:100000000C94FA140C94099B0C94DE9A0C94B39AF9
:100010000C94889A0C945D9A0C94329A0C94079ADA
:100020000C94DC990C94B55B0C94855B0C94555B3B
:100030000C942B150C942B150C942B150C942B1540
:100040000C942B150C9433A70C942B150C942B1596
:100050000C942B150C942B150C942B150C94FCAFB5
:100060000C942B150C94849D0C945B9D0C942B1577
:100070000C942B150C94FB590C942B150C942B15EC
:100080000C942B150C942B150C942B150C94977722
:100090000C94329D0C94099D0C942B150C9417A56F
:1000A0000C942B150C942B150C942B150C942B15D0
:1000B0000C942B150C942B150C942B150C942B15C0
:1000C0000C942B150C942B150C942B150C94E09C74
:1000D0000C94B79C0C942B150C942B150C942B158D
:1000E0000C942B1585578A578F579957A3571C582F
:1000F000AD57B557BD57C757D157DB57EA57F457D8
:100100001C58FE5708581258C391C691B591B99121
:10011000BF91FD91CA91CE91D491D891DC91E29199
:10012000E691EA91FD91F091F491F891534B525977
:1001300050544F5759005245435A4E590041555457
:100140004F0052520052524D0052524D32005A410D
:100150005359504F5759004252554C490045434F4F
:10016000414C004C41544F005A494D4100425255B8
:100170004C490045434F414C004E69657A6E616EB3
:100180007920647A69656E004E4400534F005054E4
:1001900000435A00535200575400504F002A005851
:1001A00058444D5F504C55535F4D4F430058584491
:1001B0004D5F504C55535F4D4F4300585854455375
:1001C000545F4E5231207A6E616C657A696F6E6F42
:1001D000005858544553545F4E52310058585445B6
:1001E00053545F4E5231207A6E616C657A696F6E3E
:1001F0006F005858544553545F4E5231005757576B
:100200003A206861736C6F207A6120646C7567694D
:1002100065005757575F4841534C4F005757575F3A
:10022000415554480057594C5F414C474F00415588
:10023000544F4C41544F5F54525942004155544F12
:100240004C41544F5F54574557004155544F4C4112
:10025000544F5F484953544552455A410041555403
:100260004F4C41544F5F54454D5000545259422019
:100270004155544F21004F55545F57454E54594CEA
:1002800041544F520054525942204155544F21007D
:100290004F55545F504F4D50414359524B005452AB
:1002A0005942204155544F21004F55545F504F4DF6
:1002B00050414357550054525942204155544F2103
:1002C000004F55545F504F4D5041435755320054E5
:1002D000525942204155544F21004F55545F504FC1
:1002E0004D5041434F0054525942204155544F21E3
:1002F000004F55545F504F44414A4E494B005254B1
:1003000043005254435F435A4153005254435F44A5
:10031000415441004155544F005254435F5A494D96
:10032000410050524143412042455A2044455445E2
:100330004B544F524100444554454B544F525F5427
:10034000455354554A455F42455A504945435A4ED4
:10035000494B004E69657A6E616E7920647A6965F1
:100360006E0050524F475F4359524B5F0050524FFF
:10037000475F005A4144414E41004B525A59574140
:10038000005A41574F5234442D54525942005A4159
:10039000574F5234442D505245534554005A4157FB
:1003A0004F5234442D5A4144414E41005A41574F17
:1003B0005234442D484953544552455A41005A41FC
:1003C000574F5234442D4F424E495A4F4E41005AD6
:1003D00041574F5234442D435A554A4E494B005AC7
:1003E00041574F5234442D435A41535F504F4D496A
:1003F000415255005A41574F5234442D435A4153AC
:100400005F4B524F4B005A41574F5234442D435A81
:1004100041535F4F54574152434941004B525A593F
:1004200057415F47525A414E49412B3135004B529B
:100430005A5957415F47525A414E49412B35004B5B
:10044000525A5957415F47525A414E49412D300047
:100450004B525A5957415F47525A414E49412D31EB
:1004600030004B525A5957415F47525A414E494109
:100470002D3230004B525A5957415F47525A414E24
:1004800049412D3330005600414E414C4F470054F6
:100490003800543700543600543500543400543377
:1004A00000543200543100545350414C494E5900CD
:1004B00054504F444C4F47410054435755005457F4
:1004C000455700545A45570054504F44414A4E49ED
:1004D0004B0054504F57524F54005450494543001D
:1004E000545F4D4150554A5F5A5F4252554C490046
:1004F000545F4D4150554A5F5A5F45434F414C0050
:100500005A415359504F57595F4D4F43005252571C
:100510005F484953544552455A41005252575F5023
:100520004F53544F4A005252575F504F44414E4927
:10053000450052524D5F4F504F5A4E49454E494526
:100540005F504F44414E49410052524D5F4E41571A
:1005500045474C414E49450052524D5F4E4157452B
:10056000474C414E49455F43594B4C005252575FEF
:100570004E41444D5543480052524D5F5749454CFA
:10058000455F4D4F43590052524D5F444F50414CCF
:10059000414E49455F435A41530052524D5F444FCB
:1005A00050414C414E49455F4D4F430052524D5FC3
:1005B0004D41585F50525A4542494349455F544C5A
:1005C0004F0052524D5F544C4F5F435A41530052BB
:1005D000524D5F544C4F5F435A41535F504F44411B
:1005E0004E49450052524D5F544C4F5F4D4F4300B2
:1005F00052524D5F544C4F5F574C41435A4F4E45FA
:100600000052525F50524143415F4D4F430052529E
:100610005F50524143415F504F53544F4A00525232
:100620005F50524143415F504F44414E4945005253
:10063000525F504F4454525A594D414E49455F4DB7
:100640004F430052525F504F4454525A594D414EFD
:1006500049455F504F53544F4A0052525F504F44E8
:1006600054525A594D414E49455F504F44414E49AD
:10067000450052525F504F4454525A594D414E49D1
:10068000455F435A41535F4C41544F0052525F50B3
:100690004F4454525A594D414E49455F435A415374
:1006A000004359524B554C41434A415F544D494ECA
:1006B000004359524B554C41434A415F435A4153C1
:1006C0005F57594C41435A004359524B554C414393
:1006D0004A415F435A41535F574C41435A00435983
:1006E000524B554C41434A415F414C474F5259543C
:1006F0004D00434F5F435A41535F57594C41435A52
:1007000000434F5F435A41535F574C41435A0043A4
:100710004F5F414C474F5259544D00434F5F545225
:10072000594200435755325F435A554A4E494B0090
:10073000435755325F414C474F5259544D00435730
:1007400055325F5452594200435755325F4849531E
:10075000544552455A4100435755325F5A4144412E
:100760004E41004357555F545F4D41580043575524
:100770005F484953544552455A41004357555F50CD
:1007800052494F5259544554004357555F414C47C5
:100790004F5259544D004357555F545259420043EC
:1007A00057555F5A4144414E4100545745575F43A6
:1007B0004F5F4F424E495A4F4E4100545745575F85
:1007C0005A4144414E4100504945435F414C474FD7
:1007D0005259544D00504945435F4849535445527E
:1007E000455A4100504945435F5A4144414E4100FA
:1007F000504945435F5452594200504945435F5464
:100800005F4D415800504945435F545F4D494E008C
:10081000544C4F4B5F435A41535F43594B4C550027
:10082000504F44414A4E494B5F544C4F4B4F5759E0
:1008300000504F44414A4E494B5F414C41524D5F3D
:100840004D494E00504F44414A4E494B5F5052452E
:10085000444B4F53435F504F444157414E49410031
:10086000504F44414A4E494B5F435A41535F504FAA
:1008700044414A4E494B4100504F44414A4E494B36
:100880005F435A41535F444F5F4F50524F5A4E4956
:10089000454E494100504F44414A4E494B5F545FD9
:1008A0004D415800504F44414A4E494B5F435A41D5
:1008B000535F5759525A55545500504F44414A4E70
:1008C000494B5F545F5759534F4B415F504F5754FB
:1008D0004F524B4900504F44414A4E494B5F545F81
:1008E0005759534F4B4100504F44414A4E494B5F7B
:1008F000435A41535F504F444E4F535A454E49411E
:100900000054524941433A207A6D69616E61206E0C
:100910006120747279622025640054524941433A3F
:10092000207A6D69616E61206E6120747279622037
:10093000256400444D5F54595000444D5F504C5560
:10094000535F4D4F4300444D5F504C55535F435AE6
:10095000415300444D5F524F5A525543485F4D4FEB
:100960004300444D5F524F5A525543485F435A41EA
:100970005300444D5F544C4F5F4D4F4300444D5F17
:10098000544C4F5F435A415300444D5F444F5041D4
:100990004C414E49455F4D4F4300444D5F444F50DD
:1009A000414C414E49455F435A415300444D5F4DD0
:1009B0004F44554C41434A4100444D5F494E5745D1
:1009C00052534A415F50574D00444D5F4F46465386
:1009D000455400444D5543484157415F41435F47AB
:1009E0005255504F574F004E45545F444E53004EA2
:1009F00045545F4252414D41004E45545F4D415375
:100A00004B41006175746F004E45545F4950004E74
:100A100045545F4D4143004F46465345545F002DBA
:100A20003E002000533A2000535F00504B543A20C0
:100A300043524300504B543A2045545800504B54B5
:100A40003A205354580044533A206E723A25642099
:100A5000703A2564204552524F520044533A206E5A
:100A6000723A256420703A256420743A2564206324
:100A700072633A2564204F4B00253032643A2530AA
:100A800032643A20414C41524D2054504F44414A27
:100A90004E494B3D545759534F4B412025643E001E
:100AA000253032643A253032643A20414C41524D6F
:100AB0002054504F44414A4E494B3D544D415820DB
:100AC00025643E002A2A444D5031002A2A444D54C0
:100AD00032002A2A444D5431002A2A444D545F4F93
:100AE0004E002A2A444D445F4F4E002A2A444D505E
:100AF0005F4F4646002A2A444D505F4F4E002A2A37
:100B0000444D525F4F464632002A2A444D525F4FB1
:100B10004646002A2A444D525F4F4E002A2A432D52
:100B20004F46462A002A2A432D4F4646002A2A438A
:100B30002D4F4E002A2A432D4F4E2A00202D3E20B5
:100B4000004841524D4F4E4F4752414D3A207A6D29
:100B500069616E612000503A2025642C2530346490
:100B60002C253034642C253034642C25303464003A
:100B700041363A20256420256420256400414C4CF0
:100B80003A2025646D7300545A3A00545249414347
:100B90003A20302D256420312D256420532D2564E5
:100BA000206F6B2D25640054524941433A20302D6B
:100BB000256420312D256420532D2564206F6B2D55
:100BC0002564002025642525204445542D25642FC7
:100BD0003230300054524941433A20542D2564208C
:100BE0005A2D256420542D5A2D256420462D256428
:100BF000002025642525204445542D25642F3230BE
:100C0000300054524941433A20542D2564205A2D36
:100C1000256420542D5A2D256420462D2564004D31
:100C2000415820646174613A202523782C20743A5D
:100C300025642C20743A2564002053435600205329
:100C4000434700204F4300544B206572726F723A45
:100C50000054524941433A2070726F626C656D795D
:100C6000207A20646574656B746F72656D20302026
:100C70003A2025642F323030005254433A20643AEF
:100C800025642025643A25640054524941433A20A2
:100C90007A616B6C6F63656E6961207A206465743C
:100CA000656B746F72612C20543D0054524941436E
:100CB0003A207A616B6C6F63656E6961207A20649B
:100CC0006574656B746F72612C20543D00207265F1
:100CD0007472793D0045434F414C3A2070726F6207
:100CE0006C656D79207A206B6F6D756E696B6163D1
:100CF0006A61203A206572723D004553503A0054B3
:100D0000524941433A737461727920747279620076
:100D100054524941433A6E6F777920747279620078
:100D20005254433A20643A25642025643A25643AB3
:100D3000256400576F6C6E792052414D3A00576F11
:100D40006C6E792052414D3A0020615F703A00612B
:100D50005F743A00414C4D3A2050525A4550414C34
:100D60004F4E592042455A504945435A4E494B002F
:100D7000414C4D3A20504F44414A4E494B20535428
:100D8000414E204D494E00414C4D3A20504F444178
:100D90004A4E494B20544D415800414C4D3A205049
:100DA00049454320544D415800414C4D3A20425250
:100DB000414B00576F6C6E792052414D3A00743AA6
:100DC0005B00736574205B004553503A20637A6181
:100DD000733A20004553503A20706F626965726122
:100DE0006D20637A617300666C6173683A005452D7
:100DF0004941433A73746172792074727962005484
:100E0000524941433A6E6F77792074727962005289
:100E100054433A20643A25642025643A25643A25EF
:100E20006400576F6C6E792052414D3A00576F6CD9
:100E30006E792052414D3A0020615F703A00615F47
:100E4000743A00414C4D3A2050525A4550414C4F53
:100E50004E592042455A504945435A4E494B00414C
:100E60004C4D3A20504F44414A4E494B2053544137
:100E70004E204D494E00414C4D3A20504F44414A7E
:100E80004E494B20544D415800414C4D3A20504959
:100E9000454320544D415800414C4D3A2042524167
:100EA0004B00576F6C6E792052414D3A00743A5B9B
:100EB00000736574205B00524553455400524553FE
:100EC0004554005745423A004C43443A0064697324
:100ED00061626C656400656E61626C65640020200F
:100EE000416363656C65726174696F6E206973201C
:100EF00000436C69636B456E636F6465723A3A4494
:100F00006F75626C65436C69636B656400427574F0
:100F1000746F6E3A200020613A2000206D656E7576
:100F20003A20002045323A20005A34443A00504DCD
:100F3000503A00444D553A00504F443A00414C4716
:100F40003A00414C4D3A004D41503A00414E413A31
:100F5000004D41583A0044414C4C3A00434F4E3A00
:100F60000054494D3A0044414C4C41533A204B6F98
:100F70006E69656320706F737A756B6977616E69EE
:100F80006120637A756A6E696B6F772E0044414CFD
:100F90004C41533A204E494520444F44414E4F2145
:100FA0002100202054656D70657261747572612036
:100FB0003D2000204352433D0020204461746120C5
:100FC0003D2000204E69657A6E616E792044533170
:100FD000387878002044533138323200204453317D
:100FE0003842323000204453313853323000626C82
:100FF0006164204352430044414C4C41533A2049E0
:1010000044203D0020437A6173206B6F6D656E64F0
:1010100061206B6F6E776572736A6920646C612002
:10102000637A756A6E696B61203D200044414C4CC7
:1010300041533A20506F637A6174656B20706F730F
:101040007A756B6977616E696120637A756A6E691A
:101050006B6F772E005254433A206F64637A797431
:10106000207A61736F626E696B613A00535441522A
:10107000540053544152540049503A206272616BFB
:10108000204574686572536869656C642E2E2E0065
:101090005757573A7374726F6E6120676F746F772A
:1010A00061005757573A7572756368616D69616D74
:1010B000207374726F6E652E2E2E0049503A206494
:1010C0006E733A0049503A206272616D613A00498C
:1010D000503A206D61736B613A0049503A20616467
:1010E0007265733A0049503A206D61633A00495085
:1010F0003A20706F62696572616E69652061647221
:10110000657375207A20444843502E2E2E0062725B
:10111000616B0049503A20636869702E2E2E00578B
:101120006F6C6E792052414D3A0049503A206B6FF6
:101130006E666967757261636A6120736965636968
:101140002E2E2E00576F6C6E792052414D3A00576B
:101150006F6C6E792052414D3A00576F6C6E79205A
:1011600052414D3A0053443A20626C6164206F64EE
:10117000637A7974752064616E7963680053443AC8
:1011800020626C6164206B617274790053443A2070
:101190006272616B206B6172747900454550524FE9
:1011A0004D3A206E6965207A6E616C657A696F6E62
:1011B0006F00454550524F4D3A207A6E616C657A0A
:1011C000696F6E6F005254433A206272616B204423
:1011D0005331333037005254433A2053544F502048
:1011E0002D3E205354415254005254433A207A6EBB
:1011F000616C657A696F6E6F20445331333037000C
:10120000302E312E302E3133302E33004C75636A40
:10121000616E20762E001F1F1F0000000000181CAA
:101220001E1F1F1F1F1F1F1F1F1F1F0F0703000051
:101230000000001F1F1F1F1F1F1F1F1E1C181F1F26
:101240001F0000001F1F1F000000001F1F1F0307BB
:101250000F1F1F1F1F1F4932433A20536B616E6FD0
:1012600077616E6965202E2E2E00302E312E302EA5
:101270003133302E33004C75636A616E20762E0058
:10128000302E312E302E3133302E33004C75636AC0
:10129000616E20762E002020000000000000FF0775
:1012A000000000000000050520200000000004FFF1
:1012B00004FF0401FF0108FF0607FF0500000120ED
:1012C000040104012004080602200307020405208B
:1012D00000000000000008010304000000000102FB
:1012E000040500000000010404010401010404FFDE
:1012F0000401FF01000020050000000000000404BC
:101300000420202000002004000000000000202015
:101310000401040120200801020304050000010269
:101320002004FF040000060602FF07070000010674
:101330000204070500000304FF2020FF0000FF0651
:10134000060707050000080606030705000001015F
:101350000220082000000806020307050000080616
:10136000020707050000A5A5000000000000040515
:10137000000000000000200401010104000004043A
:101380000401010100000104200401010000010624
:1013900002200720000008060203040400000806DB
:1013A00002FF20FF0000FF0605FF07020000080102
:1013B000010304040000FF0102FF04050000FF0612
:1013C00006FF07070000FF0606FF202000000801B7
:1013D000010304020000FF04FFFF20FF000001FFE3
:1013E0000104FF0400002020FF0404050000FF04A6
:1013F00005FF20020000FF2020FF04040000080376
:101400000502FF2020FFFF0220FFFF2003FF08014D
:10141000020304050000080602FF20200000080166
:1014200002200304FF04FF0602FF2002000008065A
:1014300006070705000001FF0120FF200000FF2034
:10144000FF03040500000320200520020820FF20E0
:1014500020FF03080205030405082002000003041E
:101460000520FF2000000106050807040000FF0119
:10147000FF0400000000010420202020010401FFDF
:1014800004FF0000000008022020000000002020CF
:101490002004040400006E6F77613A202020202091
:1014A0002020253364202000505241434120202039
:1014B0002020202020202020005A415359502E4D1A
:1014C0004F433A20253364252520202020006E6FCD
:1014D00077613A202020202020202533642020001E
:1014E000504F4454525A594D414E494520202020D6
:1014F0000052522E435A41533A2020202533646D26
:1015000020202020006E6F77613A202020202020AC
:1015100020253364202000504F4454525A594D41E5
:101520004E4945202020200052522E4D4F433A2054
:10153000202020253364252520202020006E6F7771
:10154000613A2020202020202025336420200050D4
:101550004F4454525A594D414E49452020202000B5
:1015600052522E504F53544F4A3A20253364732021
:10157000202020006E6F77613A202020202020203C
:10158000253364202000504F4454525A594D414E47
:101590004945202020200052522E504F4441572EC2
:1015A0003A20253364732020202020006E6F77615D
:1015B0003A20202020202020253364202000505273
:1015C00041434120202020202020202020200052A4
:1015D000522E4D4F433A20202020253364252520CC
:1015E0002020006E6F77613A2020202020202025C7
:1015F00033642020005052414341202020202020ED
:1016000020202020200052522E504F53544F4A2E5B
:101610003A2533647320202020006E6F77613A20D2
:1016200020202020202025336420200050524143D8
:101630004120202020202020202020200052522E37
:10164000504F4441572E3A202533647320202020E8
:10165000006E6F77613A20202020202020253364FF
:10166000202000202020202020202020202020209A
:101670002020200020202020202052524D322020E7
:10168000202020200020202020202052524D2020E9
:101690002020202020002020202020205252202006
:1016A00020202020202000202020205A4153595063
:1016B0004F5759202020200020202045434F414CE7
:1016C0002F4252554C4920200020202057594C4190
:1016D000435A4F4E59202020200050494543204175
:1016E0004C474F5259544D3A2020002020202020B2
:1016F000202020202020202020202000205E5E208E
:101700002057535445435A20205E5E20002020205D
:10171000205350414C414E494120202020002020A0
:1017200020555354415749454E494120202000201F
:1017300020202020202020202020202020202000C9
:10174000202020555354415749454E4941202020DF
:10175000002020202020202020202020202533644D
:101760002525005A41534F424E494B3A2020202014
:10177000202020005A41534F424E494B3A205045B9
:101780004C4E4520555A5550454C4E49454E4945BD
:10179000006E6F77613A20202020202020253364BE
:1017A0002020002020202020202020202020202059
:1017B000202020005A4144414E4120434F3A2025E9
:1017C00033642020202020005452594220524543A7
:1017D0005A4E593A202020200054523A2052454374
:1017E0005A4E593A20256400202020202020202015
:1017F00020202020253364252500444D55434841B1
:1018000057413A202020202020200054523A2044E2
:101810004D554348415741204D4F433A20256400E0
:10182000504F44414A4E494B3A202020202020204E
:101830000054523A20504F44414A4E494B3A2025D9
:1018400064005A41572E3444205A414D594B414A65
:101850003A200054523A205A3444205A414D3A20FA
:101860002564005A41572E3444204F54574945525D
:10187000414A3A0054523A205A3444204F54573A7D
:1018800020256400504F4D5041204359524B554C38
:101890003A2020200054523A2050204359524B3ACB
:1018A00020256400504F4D504120435755323A2077
:1018B000202020200054523A205020435755323ADD
:1018C00020256400504F4D504120435755313A2058
:1018D000202020200054523A205020435755313ABE
:1018E00020256400504F4D504120434F3A20202086
:1018F000202020200054523A205020434F3A2025E7
:10190000640054383A253032642E2564202020208B
:1019100020202020200054373A253032642E2564C0
:101920002020202020202020200054363A2530324C
:10193000642E2564202020202020202020005435E3
:101940003A253032642E25642020202020202020BB
:10195000200054343A253032642E25642020202083
:1019600020202020200054333A253032642E256474
:101970002020202020202020200054323A25303200
:10198000642E256420202020202020202000543197
:101990003A253032642E256420202020202020206B
:1019A00020005350414C494E593A253033642E257E
:1019B0006420202000504F444C4F47413A2530329C
:1019C000642E25642020202000202020202020209C
:1019D00020202020202020202000504F44414A4E2B
:1019E000494B3A253032642E25642020200057458B
:1019F000574E3A20253032642E25642020202020A6
:101A00002000253032642E25642020202020200054
:101A10005A45574E3A00504F57524F543A2530329C
:101A2000642E2564202020202000504F57523A2554
:101A30003032642E2564205A3A253032642E2564D3
:101A400000434F3A253032642E2564202020202088
:101A50002020202000434F3A253032642E25642078
:101A60005A34443A253032642E25640050525A4587
:101A700050414C4F4E592042455A502E00202020B4
:101A80002020414C41524D202020202020004E4952
:101A9000534B49205354414E205A41534F4200204A
:101AA00020202020414C41524D2020202020200089
:101AB00054454D502E4D414B532E504F44414A2ECC
:101AC000002020202020414C41524D202020202069
:101AD000200054454D502E204D414B532E5049452A
:101AE0004341002020202020414C41524D20202005
:101AF000202020002020202020414C41524D4F57D3
:101B000020202020002020202020204252414B2055
:101B1000202020202000414C4D3A20534B41534F70
:101B200057414E4F2050525A4550414C4F4E59202C
:101B300042455A504945435A4E494B00414C4D3A53
:101B400020534B41534F57414E4F20504F44414A31
:101B50004E494B205354414E204D494E00414C4D6F
:101B60003A20534B41534F57414E4F20504F444121
:101B70004A4E494B20544D415800414C4D3A205358
:101B80004B41534F57414E4F205049454320544DF0
:101B9000415800414C4D3A204E494320444F205378
:101BA0004B41534F57414E494100202020202020D7
:101BB000434F3A00414C41524D20434F3A002530AB
:101BC00032643A2530326420434F3A004357553A45
:101BD000253032642E2564200020706F323A2000B8
:101BE00020706F3A200070727A65643A00204F4B83
:101BF0000D0A00485454502F312E31200020743AE1
:101C00000020653A00206D3A00206F3A0020703ABB
:101C1000002049443A0044414C4C4153200058585C
:101C20005845434F414C004252414B004252414BB8
:101C300000534F465400534F4654004D41583636DA
:101C40003735004D415836363735004D4158333120
:101C5000383535004D415833313835350044414C25
:101C60004C4153204E52203D200044414C4C4153A6
:101C7000005350414C494E5900504F444C4F47413E
:101C80000043575500574557005A455700504F4499
:101C9000414A4E494B00504F57524F5400434F005A
:101CA0004252554C490045434F414C005438005472
:101CB0003700543600543500543400543300543245
:101CC00000543100545350414C494E590054504F28
:101CD000444C4F4741005443575500545745570013
:101CE000545A45570054504F44414A4E494B0054B2
:101CF000504F57524F54005450494543005254439B
:101D00003A207A61706973207A61736F626E696BD1
:101D1000613A00202D3E2000444D3A20005759479B
:101D200041535A414E49453A205354415254004D73
:101D30004945535A414E49450042415254454B0092
:101D4000574C41435A004252554C490045434F417C
:101D50004C0057594C41435A4F4E590043594B4C34
:101D600049435A4E5900434941474C590020543485
:101D7000443A00207A6164616E613A0034443A204A
:101D8000435A454B414D59202D2064656C74613A8E
:101D900000205434443A00207A6164616E613A0054
:101DA000206B726F6B3A0034443A204B52454349E2
:101DB0004D59202D2064656C74613A0034443A20FA
:101DC0005445524D4F53544154204F4646003444DD
:101DD0003A205445524D4F53544154204F4E0057D2
:101DE000594741535A414E49453A205433204F4BAD
:101DF0000057594741535A414E49453A205450499A
:101E00004543204F4B0057594741535A414E49458E
:101E10003A20545350414C494E204F4B005759479C
:101E200041535A414E49453A20645350414C494E22
:101E30002025642C2064504945432025642C2064CF
:101E40005433202564002A2A4833002A2A474D3279
:101E5000002A2A4732002A2A474D2D002A2A4731D4
:101E6000002A2A5032002A2A5031002A2A443200FD
:101E70002A2A4431002A2A5432002A2A5431007076
:101E8000727A656A73636965206E6120706F64742D
:101E9000727A796D616E69652025643E3D25640026
:101EA00070727A656A73636965206E61206E616421
:101EB0006D75636820746C6F002A2A4833002A2AE3
:101EC0004732002A2A4731002A2A5032002A2A5053
:101ED00031001F1C1F1E1F1E1F1F1E1F1E1F005E06
:101EE000BCE2613FDD83C29C7E20A3FD1F419DC3F8
:101EF000217FFCA2401E5F01E3BD3E6082DC237DAA
:101F00009FC1421CFEA0E1BF5D0380DE3C62BEE0DB
:101F1000025CDF81633D7C22C09E1D43A1FF461809
:101F2000FAA427799BC584DA3866E5BB5907DB85B7
:101F30006739BAE406581947A5FB7826C49A653B69
:101F4000D987045AB8E6A7F91B45C6987A24F8A69B
:101F5000441A99C7257B3A6486D85B05E7B98CD2C9
:101F6000306EEDB3510F4E10F2AC2F7193CD114F77
:101F7000ADF3702ECC92D38D6F31B2EC0E50AFF129
:101F8000134DCE90722C6D33D18F0C52B0EE326C5B
:101F90008ED0530DEFB1F0AE4C1291CF2D73CA9489
:101FA0007628ABF517490856B4EA6937D58B570937
:101FB000EBB536688AD495CB2977F4AA4816E9B7E9
:101FC000550B88D6346A2B7597C94A14F6A8742A1B
:101FD000C896154BA9F7B6E80A54D7896B35434D17
:101FE000443F3F004E4545445F53594E4321002036
:101FF00000524553505F43423A2000524553505FD0
:10200000563A2000454C433A20496E76616C69642B
:1020100020435243002000200020003A20002040AE
:1020200000454C433A20676F7420007C3C3E5E2B99
:102030003D3F2F5B5D3B2C2A225C0044454C4554C0
:1020400045004F5054494F4E530050555400504F87
:1020500053540047455400444953434F4E4E454363
:102060005445440077656E74796C61746F723A0000
:10207000435755323A00435755313A00224F4646AE
:102080002200224F4E2200224F46462200224F4E6F
:1020900022002263777532223A20007B2263777513
:1020A00031223A20006163636573732D636F6E7430
:1020B000726F6C2D616C6C6F772D6F726967696ED2
:1020C0003A202A0A002E002D00227D00302E312ECB
:1020D000302E3133302E33002C22766572223A2294
:1020E000002274696D65223A002C0022616C223A4C
:1020F00020002C003000310022746572223A20004A
:102100002C0030003100226379726B223A20002CBF
:1021100000300031002263777532223A20002C0013
:10212000300031002263777531223A20002C0030D4
:1021300000310022636F223A20002C003000310071
:1021400022706F64223A20002C0022706F64676D49
:10215000696E223A20002C0022706F64637A646FEB
:10216000223A20002C0022706F64637A7A61732215
:102170003A20002C0022706F64637A223A20002CEF
:10218000002277656E31223A20002C002277656E9E
:1021900030223A20007D5D2C007B2274223A200000
:1021A0007D2C007B22746865726D6F73223A5B0030
:1021B0006163636573732D636F6E74726F6C2D61F1
:1021C0006C6C6F772D6F726967696E3A202A0A000E
:1021D0004F4B006163636573732D636F6E74726F31
:1021E0006C2D616C6C6F772D6F726967696E3A2028
:1021F0002A0A004F4B006163636573732D636F6E32
:1022000074726F6C2D616C6C6F772D6F726967697A
:102210006E3A202A0A004B4F004F4B002F6D6F641F
:10222000756C61636A61006163636573732D636FCD
:102230006E74726F6C2D616C6C6F772D6F72696745
:10224000696E3A202A0A004B4F004F4B002F68342A
:1022500064006163636573732D636F6E74726F6C7A
:102260002D616C6C6F772D6F726967696E3A202AE9
:102270000A00227D00302E312E302E3133302E33A5
:10228000002C22766572223A22007B2274696D65E9
:10229000223A006163636573732D636F6E74726FAE
:1022A0006C2D616C6C6F772D6F726967696E3A2067
:1022B0002A0A0020443A00554E4B4E4F574E2000FC
:1022C0005544502020202020202020200054494D1B
:1022D000455F574149542020200053594E53454EE5
:1022E0005420202020200053594E52454356202090
:1022F000202020005050504F45202020202020201A
:10230000004D4143524157202020202020004C49BD
:102310005354454E202020202020004C4153545F30
:1023200041434B202020200049505241572020207B
:10233000202020200046494E5F574149542020204C
:10234000200045535441424C4953484544200043E2
:102350004C4F53494E47202020202000434C4F53E0
:10236000454420574149542000494E4954202020DB
:10237000202020202000434C4F5345442020202083
:102380002020003A3078005323004553503A20571C
:10239000494649206572726F723A20004553503A9F
:1023A0002057494649206F6B004241443A20005370
:1023B000594E4321006A657374006272616B004577
:1023C00053503A20737A756B616D206573702D6C74
:1023D000696E6B202E2E2E20000000210024002785
:1023E000002A002D00300033000101000004010725
:1023F000010A0100002200250028002B002E0031D8
:1024000000340002010000050108010B0100000A70
:102410000B02090C0D0E0807030401000000000068
:1024200000000000000000000000000000000000AC
:102430000000000000000000001211100000000069
:10244000000000000000000000000000000000008C
:102450000000005757573A2041757468206F6B0091
:102460003C68313E34303120556E617574686F724E
:10247000697A65643C2F68313E005757572D417586
:102480007468656E7469636174653A20426173694A
:1024900063207265616C6D3D224C75636A616E20CC
:1024A0002D207374726F6E6120737465726F776E16
:1024B000696B612200436F6E74656E742D54797080
:1024C000653A20746578742F68746D6C00485454B4
:1024D000502F312E302034303120417574686F72A6
:1024E000697A6174696F6E2052657175697265648D
:1024F000005757573A2041757468206661696C210E
:1025000021005757573A2041757468204E554C4C5E
:1025100000573A2000463A20004B3A2000575757C0
:102520003A206272616B20706C696B753A200057BB
:1025300057573A204F64637A797420706C696B75D1
:102540003A006163636573732D636F6E74726F6CB1
:102550002D616C6C6F772D6F726967696E3A202AF6
:102560000A005757573A20426C61642070617273B9
:102570006F77616E69612055524C002062616A7408
:102580006F772900206D7320286F64656272616E19
:102590006F20002062616A746F77207720005757A0
:1025A000573A205A61706973616E6F200057575710
:1025B0003A205A61706973756A6520706C696B3A6C
:1025C00000444953434F4E4E4543544544004357FE
:1025D00055323A00435755313A00434F3A004D4F78
:1025E000433A256420686973743A25203364207067
:1025F0006F643A2520336420706F733A2520346469
:1026000020646D3A25203364206C69637A3A25642E
:1026100000424C4144004F4B004B4F004F4B006673
:10262000756C6C004F4B005757573A2073657420F8
:102630000020743A0020653A00206D3A00206F3A7D
:102640000020703A002049443A0044414C4C415328
:102650002000050505050705080808080202020212
:102660000A0A08080404040401010101010101012E
:102670000303030303030303040707070C0C0C0CF9
:102680000C0C0C0C020202020606060606060606E2
:102690000B0B0B0B0B0B0B0B01021020200808106F
:1026A00020401020408002010201080402010102C2
:1026B000040810204080804020100804020180049B
:1026C00002018040201008040201080402010102F6
:1026D00004081020408001020408102040800000FF
:1026E00020002300260029002C002F0032000001CA
:1026F000000003010601090142617369632000596A
:10270000575274615734366248566A616D46750097
:1027100030323031303030363030303030303030B0
:10272000363130330000316253C4F5A697B988DBE7
:10273000EA7D4C1F2E4372211087B6E5D4FACB9860
:10274000A93E0F5C6D86B7E4D5427320113F0E5D44
:102750006CFBCA99A8C5F4A796013063527C4D1E44
:102760002FB889DAEB3D0C5F6EF9C89BAA84B5E6F9
:10277000D7407122137E4F1C2DBA8BD8E9C7F6A51E
:102780009403326150BB8AD9E87F4E1D2C0233601E
:1027900051C6F7A495F8C99AAB3C0D5E6F41702302
:1027A0001285B4E7D67A4B1829BE8FDCEDC3F2A1AF
:1027B000900736655439085B6AFDCC9FAE80B1E264
:1027C000D344752617FCCD9EAF38095A6B45742744
:1027D0001681B0E3D2BF8EDDEC7B4A192806376440
:1027E00055C2F3A0914776251483B2E1D0FECF9C69
:1027F000AD3A0B586904356657C0F1A293BD8CDF22
:10280000EE79481B2AC1F0A3920534675678491A1D
:102810002BBC8DDEEF82B3E0D1467724153B0A59FD
:1028200068FFCE9DAC436F6E74656E742D547970E5
:10283000653A200048544D2A746578742F68746D89
:102840006C7C5458542A746578742F706C61696E6E
:102850007C4353532A746578742F6373737C584D8B
:102860004C2A746578742F786D6C7C4A532A746591
:1028700078742F6A6176617363726970747C4749FA
:10288000462A696D6167652F6769667C4A50472AE9
:10289000696D6167652F6A7065677C504E472A696C
:1028A0006D6167652F706E677C49434F2A696D6162
:1028B00067652F766E642E6D6963726F736F6674D1
:1028C0002E69636F6E7C4D50332A617564696F2F7A
:1028D0006D7065677C002020203C574C41435A4F67
:1028E0004E593E202020002020203C57594C414387
:1028F0005A4F4E593E2020004E54503A20557A7976
:10290000736B616E6F20637A617320756E69787482
:10291000696D653A00E30000EC0000000000000073
:1029200000314E31340000000000000000000000C3
:102930000000000000000000000000000000000097
:1029400000000000004E54503A20444E53202564AD
:102950003A20004554483A206E696520757A7973AB
:102960006B616E6F20637A617375207A204E5450CC
:10297000004553503A206E696520757A79736B6112
:102980006E6F20637A617375207A204E5450004533
:1029900053503A20706F62696572616D20637A618D
:1029A00073002020202020202000647A69656E3A80
:1029B000006861726D6F6E6F6772616D206379720E
:1029C0006B756C61636A693A0053443A20627261C4
:1029D0006B20706C696B7520636F6E6669672E740F
:1029E0007874005D00636F6E6669673A205B000073
:1029F000EAC657CC11241FBECFEFD1E2DEBFCDBF58
:102A000000E00CBF15E0A0E0B2E0E2E8FAEA01E085
:102A10000BBF02C007900D92AA3CB107D9F724E181
:102A2000AAECB5E001C01D92AA35B207E1F714E1A6
:102A3000C9EFD4E100E006C021970109802FFE0113
:102A40000E9476D3C83FD10780E00807A9F70E940B
:102A500046B00C9430D50C9400008F929F92AF92A8
:102A6000BF92CF92DF92EF92FF920F931F93CF937B
:102A7000DF93CDB7DEB769970FB6F894DEBF0FBE10
:102A8000CDBF8C0140E050E06DE30E9418986C01CE
:102A9000D80114968D919C9115971816190614F06B
:102AA0000C947F2EBFEFCB16DB0611F40C947F2E17
:102AB000A6014F5F5F4FB801CE010D960E946F5D7A
:102AC000CE010D960E94B99768E27AE0CE01019698
:102AD0000E943599BE016F5F7F4FC8010E944698E2
:102AE000F82ECE0101960E943099FF2009F45EC0B5
:102AF000960142E050E0B801CE0101960E949899FB
:102B0000BE016F5F7F4FC8010E949A98CE01019667
:102B10000E943099CE010D960E94AE974B015C0148
:102B2000C8010E947C588F3F11F40C94562EE8E0A7
:102B30008E02C00111249C012355364F7901D90121
:102B400014968C91813011F00C94562E64E27AE048
:102B500082E591E10E94739CB80182E591E10E94B7
:102B6000559C62E27AE082E591E10E94739CF70154
:102B7000608171814AE050E082E591E10E940C9C05
:102B80006FE17AE082E591E10E94739C4AE050E0B7
:102B9000B40182E591E10E940C9C82E591E10E94E2
:102BA0007D9BD7018D929C920C94562E67E17AE022
:102BB000CE0101960E943599BE016F5F7F4FC8011B
:102BC0000E944698F82ECE0101960E943099FF206F
:102BD00049F1960147E050E0B801CE0101960E940C
:102BE0009899BE016F5F7F4FC8010E949A98CE01ED
:102BF00001960E943099CE010D960E94AE976B010E
:102C00007C01C8010E947C588F3F11F40C94562E11
:102C1000B8E08B02F0011124E355F64FD382C28253
:102C20000C94562E6FE07AE0CE0101960E94359901
:102C3000BE016F5F7F4FC8010E944698F82ECE01FB
:102C400001960E943099FF2009F44AC089899A8927
:102C50000C9711F00C94562EE12CF12CD12C0E2D4A
:102C6000B701CE010D960E943498FC0180810E942C
:102C7000E3598F3F89F1182F1295107FB7016F5FCD
:102C80007F4FCE010D960E943498DC018C910E94FA
:102C9000E3598F3F09F10695E1E0F0E0EC0FFD1FED
:102CA000E00FF11D810F8083BAE0EB16F10411F4FF
:102CB000DD24D394E2E0EE0EF11CFCE0EF16F1040B
:102CC00071F6DD2049F086E0FE013196AEE2B2E019
:102CD00001900D928A95E1F70E9467580C94562E48
:102CE00068E07AE0CE0101960E943599BE016F5FDF
:102CF0007F4FC8010E944698E82ECE0101960E949F
:102D00003099EE2009F45EC088EC93E09A838983C1
:102D10001B821C821D821E82BE01635F7F4FCE011B
:102D200001960E942E5C882329F08B819C81AD81C5
:102D3000BE813AC063E07AE0CE0107960E943599E1
:102D400089899A892B853C8582179307F9F4892B09
:102D5000D9F00D851E85CF80D884F80181918F012F
:102D6000882391F0082E000C990B0E948FD45C01EF
:102D7000D6018D916D01082E000C990B0E948FD405
:102D8000A816B90651F302C0FF24F394CE010796AA
:102D90000E943099FF2081F08091071390910813D1
:102DA000A0910913B0910A138093D7109093D81073
:102DB000A093D910B093DA1085ED90E10E9481AD17
:102DC0000C94562E69EF79E0CE0101960E94359958
:102DD000BE016F5F7F4FC8010E944698F82ECE015A
:102DE00001960E943099FF2049F188EC93E09A8384
:102DF00089831B821C821D821E82BE01635F7F4FFE
:102E0000CE0101960E942E5C882391F08B819C81DB
:102E1000AD81BE818093D1109093D210A093D31036
:102E2000B093D410CE0101960E9481AD0C94562E21
:102E3000CE0101960E9481AD0C94562E6FEE79E082
:102E4000CE0101960E943599BE016F5F7F4FC80188
:102E50000E944698F82ECE0101960E943099FF20DC
:102E600049F188EC93E09A8389831B821C821D823E
:102E70001E82BE01635F7F4FCE0101960E942E5CD1
:102E8000882391F08B819C81AD81BE818093CB1092
:102E90009093CC10A093CD10B093CE10CE0101969C
:102EA0000E9481AD0C94562ECE0101960E9481ADF8
:102EB0000C94562E67EE79E0CE0101960E9435996A
:102EC000BE016F5F7F4FC8010E944698F82ECE0169
:102ED00001960E943099FF2049F188EC93E09A8393
:102EE00089831B821C821D821E82BE01635F7F4F0D
:102EF000CE0101960E942E5C882391F08B819C81EB
:102F0000AD81BE818093C5109093C610A093C71069
:102F1000B093C810CE0101960E9481AD0C94562E3C
:102F2000CE0101960E9481AD0C94562E63ED79E09E
:102F3000CE0101960E943599BE016F5F7F4FC80197
:102F40000E944698F82ECE0101960E943099F11009
:102F50000C94562E69EC79E0CE0101960E943599C9
:102F6000BE016F5F7F4FC8010E944698F82ECE01C8
:102F700001960E943099FF2041F0CE010D960E94EB
:102F8000AE9760935F080C94562E69EB79E0CE0102
:102F900001960E943599BE016F5F7F4FC8010E9464
:102FA0004698F82ECE0101960E943099FF2041F0FC
:102FB000CE010D960E94AE97609360080C94562E39
:102FC0006CEA79E0CE0101960E943599BE016F5FEF
:102FD0007F4FC8010E944698F82ECE0101960E94AC
:102FE0003099FF2041F0CE010D960E94AE9760937C
:102FF00061080C94562E6AE979E0CE0101960E9490
:103000003599BE016F5F7F4FC8010E944698F82E28
:10301000CE0101960E943099FF2051F0CE010D960D
:103020000E94AE9770936308609362080C94562ECA
:1030300069E879E0CE0101960E943599BE016F5F83
:103040007F4FC8010E944698F82ECE0101960E943B
:103050003099FF2051F0CE010D960E94AE977093EB
:103060006B0860936A080C94562E6DE779E0CE01E8
:1030700001960E943599BE016F5F7F4FC8010E9483
:103080004698F82ECE0101960E943099FF2051F00B
:10309000CE010D960E94AE97709367086093660804
:1030A0000C94562E62E779E0CE0101960E94359984
:1030B000BE016F5F7F4FC8010E944698F82ECE0177
:1030C00001960E943099FF2051F0CE010D960E948A
:1030D000AE9770936F0860936E080C94562E62E65C
:1030E00079E0CE0101960E943599BE016F5F7F4F56
:1030F000C8010E944698F82ECE0101960E94309990
:10310000FF2051F0CE010D960E94AE977093650896
:10311000609364080C94562E63E579E0CE01019625
:103120000E943599BE016F5F7F4FC8010E9446988B
:10313000F82ECE0101960E943099FF2051F0CE0169
:103140000D960E94AE9770936D0860936C080C9476
:10315000562E66E479E0CE0101960E943599BE01B3
:103160006F5F7F4FC8010E944698F82ECE010196EE
:103170000E943099FF2051F0CE010D960E94AE972B
:1031800070936908609368080C94562E6AE379E09E
:10319000CE0101960E943599BE016F5F7F4FC80135
:1031A0000E944698F82ECE0101960E943099FF2089
:1031B00051F0CE010D960E94AE9770937108609306
:1031C00070080C94562E63E379E0CE0101960E94BC
:1031D0003599BE016F5F7F4FC8010E944698F82E57
:1031E000CE0101960E943099FF2079F1CE010D9613
:1031F0000E94AE97162F862F0E94B3C61F921F9370
:103200008AE199E09F938F9382E591E19F938F9359
:103210000E94235D82E591E10E947D9B1F921F9396
:1032200081E099E09F938F9385E99DE09F938F9331
:103230000E94235D85E99DE00E947D9B0FB6F89476
:10324000DEBF0FBECDBF0C94562E67EE78E0CE01E8
:1032500001960E943599BE016F5F7F4FC8010E94A1
:103260004698F82ECE0101960E943099FF2099F0E1
:10327000CE010D960E94AE976F3F710509F02CF4B8
:103280001616170624F00C94562E6FEF70E060931C
:1032900073080C94562E65ED78E0CE0101960E94DD
:1032A0003599BE016F5F7F4FC8010E944698F82E86
:1032B000CE0101960E943099FF2081F0CE010D963B
:1032C0000E94AE979B01215031092A35310510F03B
:1032D0000C94562E609375080C94562E6AEB78E089
:1032E000CE0101960E943599BE016F5F7F4FC801E4
:1032F0000E944698F82ECE0101960E943099FF2038
:1033000069F0CE010D960E94AE976B35710510F0F5
:103310000C94562E609376080C94562E64EA78E04E
:10332000CE0101960E943599BE016F5F7F4FC801A3
:103330000E944698F82ECE0101960E943099FF20F7
:1033400081F0CE010D960E94AE979B01215031096C
:103350002336310510F00C94562E609372080C94AD
:10336000562E65E978E0CE0101960E943599BE019E
:103370006F5F7F4FC8010E944698F82ECE010196DC
:103380000E943099FF2081F0CE010D960E94AE97E9
:103390009B01215031092A35310510F00C94562E2D
:1033A000609374080C94562E68E778E0CE0101967D
:1033B0000E943599BE016F5F7F4FC8010E944698F9
:1033C000F82ECE0101960E943099FF20A9F0CE017F
:1033D0000D960E94AE97611571058105910511F456
:1033E0000C94562E60937708709378088093790830
:1033F00090937A080C94562E60E678E0CE01019600
:103400000E943599BE016F5F7F4FC8010E944698A8
:10341000F82ECE0101960E943099FF2081F0CE0156
:103420000D960E94AE9760937B0870937C08809302
:103430007D0890937E080E9424580C94562E64E4D4
:1034400078E0CE0101960E943599BE016F5F7F4FF3
:10345000C8010E944698F82ECE0101960E9430992C
:10346000FF2079F0CE010D960E94AE97611571058F
:1034700011F40C94562E7093800860937F080C947E
:10348000562E61E378E0CE0101960E943599BE0187
:103490006F5F7F4FC8010E944698F82ECE010196BB
:1034A0000E943099FF2041F0CE010D960E94AE9708
:1034B000609381080C94562E60E278E0CE0101966C
:1034C0000E943599BE016F5F7F4FC8010E944698E8
:1034D000F82ECE0101960E943099FF2031F1CE01E5
:1034E0000D960E94AE971616170624F481E080937D
:1034F000F50502C01092F50564EE73E082E591E1F6
:103500000E94505F8091F505811103C060E370E077
:1035100002C061E370E082E591E10E94655C82E5B2
:1035200091E10E947D9B0C94562E60E178E0CE01E3
:1035300001960E943599BE016F5F7F4FC8010E94BE
:103540004698F82ECE0101960E943099FF2091F006
:10355000CE010D960E94AE97613F71052CF41616B0
:10356000170624F00C94562E60EF70E060930F095C
:103570000C94562E65E078E0CE0101960E943599B4
:10358000BE016F5F7F4FC8010E944698F82ECE01A2
:1035900001960E943099FF2081F0CE010D960E9485
:1035A000AE979B01215031092336310510F00C9460
:1035B000562E609387080C94562E6AEF77E0CE0162
:1035C00001960E943599BE016F5F7F4FC8010E942E
:1035D0004698F82ECE0101960E943099FF2081F086
:1035E000CE010D960E94AE979B01215031092336E2
:1035F000310510F00C94562E609386080C94562ECC
:1036000060EF77E0CE0101960E943599BE016F5FB1
:103610007F4FC8010E944698E82ECE0101960E9475
:103620003099EE2009F452C0BE01635F7F4FCE0196
:1036300007960E946B996DE371E0CE0101960E949E
:103640003599BE016F5F7F4FCE0107960E94469865
:10365000182FCE0101960E94309911112DC066E3FA
:1036600071E0CE0101960E943599BE016F5F7F4FD8
:10367000CE0107960E944698182FCE0101960E940F
:103680003099111114C06CE271E0CE0101960E94D4
:103690003599BE016F5F7F4FCE0107960E94469815
:1036A000182FCE0101960E943099111103C0FF24FA
:1036B000F39402C082E0F82EF0928308CE010796C0
:1036C0000E9430990E94A4C10C94562E64EE77E0BB
:1036D000CE0101960E943599BE016F5F7F4FC801F0
:1036E0000E944698F82ECE0101960E943099FF2044
:1036F00081F0CE010D960E94AE979B0121503109B9
:103700002336310510F00C94562E609384080C94E7
:10371000562E65ED77E0CE0101960E943599BE01E7
:103720006F5F7F4FC8010E944698F82ECE01019628
:103730000E943099FF2081F0CE010D960E94AE9735
:103740009B01215031092336310510F00C94562E7F
:10375000609385080C94562E67EC77E0CE010196B5
:103760000E943599BE016F5F7F4FC8010E94469845
:10377000F82ECE0101960E943099FF2009F49AC0DC
:10378000BE01635F7F4FCE0143960E946B996DE54A
:1037900071E0CE0101960E943599BE016F5F7F4FA7
:1037A000CE0143960E944698811116C067E571E0EC
:1037B000CE0107960E943599BE01695F7F4FCE0109
:1037C00043960E94469811E0811101C010E0CE019D
:1037D00007960E94309901C011E0CE0101960E9427
:1037E0003099112321F01092190211E057C06EE4B4
:1037F00071E0CE0101960E943599BE016F5F7F4F47
:10380000CE0143960E944698182FCE0101960E9441
:10381000309911113EC069E471E0CE0101960E9419
:103820003599BE016F5F7F4FCE0143960E94469847
:10383000182FCE0101960E94309911112CC065E419
:1038400071E0CE0101960E943599BE016F5F7F4FF6
:10385000CE0143960E944698182FCE0101960E94F1
:10386000309911111AC062E471E0CE0101960E94F4
:103870003599BE016F5F7F4FCE0143960E944698F7
:10388000182FCE0101960E943099112339F013E0D0
:1038900005C012E003C015E001C014E010938208D7
:1038A000CE0143960E9430998091820880938E08C1
:1038B0000C94562E6BEB77E0CE0101960E94359961
:1038C000BE016F5F7F4FC8010E944698F82ECE015F
:1038D00001960E943099FF2041F0CE010D960E9482
:1038E000AE97609388080C94562E6AEA77E0CE0172
:1038F00001960E943599BE016F5F7F4FC8010E94FB
:103900004698F82ECE0101960E943099FF2041F092
:10391000CE010D960E94AE97609389080C94562EA6
:103920006FE977E0CE0101960E943599BE016F5F85
:103930007F4FC8010E944698F82ECE0101960E9442
:103940003099FF2081F0CE010D960E94AE979B0129
:10395000215031092336310510F00C94562E609316
:1039600095080C94562E66E977E0CE0101960E94E8
:103970003599BE016F5F7F4FC8010E944698F82EAF
:10398000CE0101960E943099FF2099F0BE01635F3D
:103990007F4FCE0101960E946B99CE0101960E9445
:1039A0001BC180939308CE0101960E9430990C941C
:1039B000562E69E877E0CE0101960E943599BE0146
:1039C0006F5F7F4FC8010E944698F82ECE01019686
:1039D0000E943099FF2099F0BE01635F7F4FCE01B6
:1039E00001960E946B99CE0101960E94C6C08093F9
:1039F0009408CE0101960E9430990C94562E6BE7E4
:103A000077E0CE0101960E943599BE016F5F7F4F2E
:103A1000C8010E944698F82ECE0101960E94309966
:103A2000FF2099F0BE01635F7F4FCE0101960E9497
:103A30006B99CE0101960E941BC180939808CE011C
:103A400001960E9430990C94562E6DE677E0CE01D7
:103A500001960E943599BE016F5F7F4FC8010E9499
:103A60004698F82ECE0101960E943099FF2069F009
:103A7000CE010D960E94AE976536710510F00C943C
:103A8000562E609397080C94562E63E677E0CE018D
:103A900001960E943599BE016F5F7F4FC8010E9459
:103AA0004698F82ECE0101960E943099FF2081F0B1
:103AB000CE010D960E94AE979B012150310923360D
:103AC000310510F00C94562E609396080C94562EE7
:103AD00067E577E0CE0101960E943599BE016F5FE0
:103AE0007F4FC8010E944698F82ECE0101960E9491
:103AF0003099FF2081F0CE010D960E94AE979B0178
:103B0000215031092336310510F00C94562E609364
:103B10009B080C94562E68E477E0CE0101960E9433
:103B20003599BE016F5F7F4FC8010E944698F82EFD
:103B3000CE0101960E943099FF2069F0CE010D96CA
:103B40000E94AE976536710510F00C94562E609366
:103B50009C080C94562E6EE377E0CE0101960E94ED
:103B60003599BE016F5F7F4FC8010E944698F82EBD
:103B7000CE0101960E943099FF2099F0BE01635F4B
:103B80007F4FCE0101960E946B99CE0101960E9453
:103B90001BC180939908CE0101960E9430990C9424
:103BA000562E60E377E0CE0101960E943599BE0162
:103BB0006F5F7F4FC8010E944698F82ECE01019694
:103BC0000E943099FF2099F0BE01635F7F4FCE01C4
:103BD00001960E946B99CE0101960E94C6C0809307
:103BE0009A08CE0101960E9430990C94562E63E2F9
:103BF00077E0CE0101960E943599BE016F5F7F4F3D
:103C0000C8010E944698F82ECE0101960E94309974
:103C1000FF2041F0CE010D960E947C5880939D08B4
:103C20000C94562E6BE177E0CE0101960E943599F7
:103C3000BE016F5F7F4FC8010E944698F82ECE01EB
:103C400001960E943099FF2009F46AC0BE01635FAB
:103C50007F4FCE0143960E946B9963E771E0CE01DE
:103C600001960E943599BE016F5F7F4FCE0143964A
:103C70000E944698811116C06DE671E0CE0107964C
:103C80000E943599BE01695F7F4FCE0143960E9425
:103C9000469811E0811101C010E0CE0107960E9404
:103CA000309901C011E0CE0101960E943099112394
:103CB00021F01092190211E02BC068E671E0CE01EC
:103CC00001960E943599BE016F5F7F4FCE014396EA
:103CD0000E944698182FCE0101960E94309911112A
:103CE00016C063E671E0CE0101960E943599BE01CF
:103CF0006F5F7F4FCE0143960E944698182FCE01EA
:103D000001960E943099112319F013E001C012E0CE
:103D100010938F08CE0143960E9430990C94562E32
:103D20006FE077E0CE0101960E943599BE016F5F8A
:103D30007F4FC8010E944698F82ECE0101960E943E
:103D40003099FF2099F0BE01635F7F4FCE0101964D
:103D50000E946B99CE0101960E94C6C08093900884
:103D6000CE0101960E9430990C94562E61E077E0C6
:103D7000CE0101960E943599BE016F5F7F4FC80149
:103D80000E944698F82ECE0101960E943099FF209D
:103D900091F0CE010D960E94AE97613F71052CF413
:103DA0001616170624F00C94562E60EF70E0609300
:103DB00091080C94562E62EF76E0CE0101960E9497
:103DC0003599BE016F5F7F4FC8010E944698F82E5B
:103DD000CE0101960E943099FF2091F0CE010D9600
:103DE0000E94AE97613F71052CF41616170624F059
:103DF0000C94562E60EF70E0609392080C94562E4F
:103E00006EED76E0CE0101960E943599BE016F5F9E
:103E10007F4FC8010E944698F82ECE0101960E945D
:103E20003099FF2099F0BE01635F7F4FCE0101966C
:103E30000E946B99CE0101960E94C6C080939E0895
:103E4000CE0101960E9430990C94562E68EC76E0D3
:103E5000CE0101960E943599BE016F5F7F4FC80168
:103E60000E944698F82ECE0101960E943099FF20BC
:103E700041F0CE010D960E94AE9760939F080C947E
:103E8000562E61EB76E0CE0101960E943599BE0177
:103E90006F5F7F4FC8010E944698F82ECE010196B1
:103EA0000E943099FF2041F0CE010D960E94AE97FE
:103EB0006093A0080C94562E61EA76E0CE0101963C
:103EC0000E943599BE016F5F7F4FC8010E944698DE
:103ED000F82ECE0101960E943099FF2071F0CE019C
:103EE0000D960E94AE978FEF860F833610F00C94DC
:103EF000562E6093A1080C94562E6CE876E0CE0105
:103F000001960E943599BE016F5F7F4FC8010E94E4
:103F10004698F82ECE0101960E943099FF2069F054
:103F2000CE010D960E94AE971616170614F00C944B
:103F3000562E6093A7080C94562E62E776E0CE01C9
:103F400001960E943599BE016F5F7F4FC8010E94A4
:103F50004698F82ECE0101960E943099FF2061F01C
:103F6000CE010D960E94AE9777FF02C00C94562E9C
:103F70006093A8080C94562E6AE576E0CE0101966F
:103F80000E943599BE016F5F7F4FC8010E9446981D
:103F9000F82ECE0101960E943099FF2069F0CE01E3
:103FA0000D960E94AE971616170614F00C94562E16
:103FB0006093A9080C94562E63E476E0CE01019636
:103FC0000E943599BE016F5F7F4FC8010E944698DD
:103FD000F82ECE0101960E943099FF2069F0CE01A3
:103FE0000D960E94AE971616170614F00C94562ED6
:103FF0006093AA080C94562E6FE276E0CE010196EB
:104000000E943599BE016F5F7F4FC8010E9446989C
:10401000F82ECE0101960E943099FF2069F0CE0162
:104020000D960E94AE971616170614F00C94562E95
:104030006093AB080C94562E6EE176E0CE010196AB
:104040000E943599BE016F5F7F4FC8010E9446985C
:10405000F82ECE0101960E943099FF2069F0CE0122
:104060000D960E94AE971616170614F00C94562E55
:104070006093AC080C94562E6EE076E0CE0101966B
:104080000E943599BE016F5F7F4FC8010E9446981C
:10409000F82ECE0101960E943099FF2069F0CE01E2
:1040A0000D960E94AE971616170614F00C94562E15
:1040B0006093AD080C94562E61E076E0CE01019637
:1040C0000E943599BE016F5F7F4FC8010E944698DC
:1040D000F82ECE0101960E943099FF2069F0CE01A2
:1040E0000D960E94AE971616170614F00C94562ED5
:1040F0006093AE080C94562E60EF75E0CE010196E9
:104100000E943599BE016F5F7F4FC8010E9446989B
:10411000F82ECE0101960E943099FF2069F0CE0161
:104120000D960E94AE976330710510F00C94562ED8
:104130006093AF080C94562E64EE75E0CE010196A4
:104140000E943599BE016F5F7F4FC8010E9446985B
:10415000F82ECE0101960E943099FF2069F0CE0121
:104160000D960E94AE971616170614F00C94562E54
:104170006093B0080C94562E6FEC75E0CE0101965A
:104180000E943599BE016F5F7F4FC8010E9446981B
:10419000F82ECE0101960E943099FF2081F0CE01C9
:1041A0000D960E94AE971616170614F00C94562E14
:1041B00070E07093B4086093B3080C94562E62ECD0
:1041C00075E0CE0101960E943599BE016F5F7F4F69
:1041D000C8010E944698F82ECE0101960E9430999F
:1041E000FF2081F0CE010D960E94AE97161617069D
:1041F00014F00C94562E70E07093B2086093B108DE
:104200000C94562E6CEA75E0CE0101960E94359909
:10421000BE016F5F7F4FC8010E944698F82ECE0105
:1042200001960E943099FF2069F0CE010D960E9400
:10423000AE971616170614F00C94562E6093B50818
:104240000C94562E6AE975E0CE0101960E943599CC
:10425000BE016F5F7F4FC8010E944698F82ECE01C5
:1042600001960E943099FF2081F0CE010D960E94A8
:10427000AE971616170614F00C94562E70E0709335
:10428000B9086093B8080C94562E67E875E0CE0123
:1042900001960E943599BE016F5F7F4FC8010E9451
:1042A0004698F82ECE0101960E943099FF2079F0B1
:1042B000CE010D960E94AE9777FF02C00C94562E49
:1042C00070E07093B7086093B6080C94562E68E7B8
:1042D00075E0CE0101960E943599BE016F5F7F4F58
:1042E000C8010E944698F82ECE0101960E9430998E
:1042F000FF2061F0CE010D960E94AE9777FF02C0BD
:104300000C94562E6093BA080C94562E6CE675E009
:10431000CE0101960E943599BE016F5F7F4FC801A3
:104320000E944698F82ECE0101960E943099FF20F7
:1043300019F16BE070E0C8010E943498DC01EC9147
:1043400010ED1E0F1A3010F00C94562ECE010D9663
:104350000E94AE976536710524F477FF04C00C9473
:10436000562E64E670E0B8E01B9FF0011124E5547E
:10437000F74F60830C94562E68E575E0CE010196E8
:104380000E943599BE016F5F7F4FC8010E94469819
:10439000F82ECE0101960E943099FF2089F0CE01BF
:1043A0000D960E94AE97613F710524F477FF04C01B
:1043B0000C94562E60EF70E060930C090C94562E0E
:1043C00069E475E0CE0101960E943599BE016F5FE8
:1043D0007F4FC8010E944698F82ECE0101960E9498
:1043E0003099FF2089F0CE010D960E94AE97613F73
:1043F000710524F477FF04C00C94562E60EF70E032
:1044000060930D090C94562E62E375E0CE0101967F
:104410000E943599BE016F5F7F4FC8010E94469888
:10442000F82ECE0101960E943099FF2089F0CE012E
:104430000D960E94AE97613F710524F477FF04C08A
:104440000C94562E60EF70E060930E090C94562E7B
:1044500066E275E0CE0101960E943599BE016F5F5C
:104460007F4FC8010E944698F82ECE0101960E9407
:104470003099FF20F1F06BE070E0C8010E943498A1
:10448000DC01EC9110ED1E0F1A3010F00C94562E3A
:10449000CE010D960E94AE9777FF02C00C94562E67
:1044A000B8E01B9FF0011124E454F74F60830C9493
:1044B000562E6BE175E0CE0101960E943599BE0142
:1044C0006F5F7F4FC8010E944698F82ECE0101967B
:1044D0000E943099FF20F9F06AE070E0C8010E9464
:1044E0003498DC01EC9110ED1E0F1A3010F00C9492
:1044F000562ECE010D960E94AE9777FF02C00C9407
:10450000562EB8E01B9FF0011124E354F74F71833E
:1045100060830C94562E6DE075E0CE0101960E94EA
:104520003599BE016F5F7F4FC8010E944698F82EF3
:10453000CE0101960E943099FF20F9F06DE070E005
:10454000C8010E943498DC01EC9110ED1E0F1A3066
:1045500010F00C94562ECE010D960E94AE9777FF68
:1045600002C00C94562EB8E01B9FF0011124E154B8
:10457000F74F718360830C94562E60E075E0CE0196
:1045800001960E943599BE016F5F7F4FC8010E945E
:104590004698F82ECE0101960E943099FF2069F0CE
:1045A000CE010D960E94AE971616170614F00C94C5
:1045B000562E60930B090C94562E60EF74E0CE01DA
:1045C00007960E943599BE01695F7F4FC8010E941E
:1045D0004698811116C060EE74E0CE0101960E94EB
:1045E0003599BE016F5F7F4FC8010E944698FF2436
:1045F000F394811101C0F12CCE0101960E943099F3
:1046000002C0FF24F394CE0107960E943099FF2048
:1046100091F1CE010D960E94AE97613011F00C948D
:10462000562E82E08093B1091092B2098093B909A5
:104630006093BA098093C1098093C2098093C90924
:1046400093E09093CA098093D10994E09093D209A2
:104650008093D90995E09093DA098093E10996E077
:104660009093E2098093E90987E08093EA09109228
:1046700019020C94562E6AED74E0CE0101960E9448
:104680003599BE016F5F7F4FC8010E944698F82E92
:10469000CE0101960E943099FF2049F0BE01635F70
:1046A0007F4F80E090E00E94C1BD0C94562E62EDD9
:1046B00074E0CE0101960E943599BE016F5F7F4F75
:1046C000C8010E944698F82ECE0101960E943099AA
:1046D000FF2049F0BE01635F7F4F81E090E00E94C0
:1046E000C1BD0C94562E68EC74E0CE0101960E9478
:1046F0003599BE016F5F7F4FC8010E944698F82E22
:10470000CE0101960E943099FF2049F0BE01635FFF
:104710007F4F82E090E00E94C1BD0C94562E63EC66
:1047200074E0CE0101960E943599BE016F5F7F4F04
:10473000C8010E944698F82ECE0101960E94309939
:10474000FF2049F0BE01635F7F4F83E090E00E944D
:10475000C1BD0C94562E6EEB74E0CE0101960E9402
:104760003599BE016F5F7F4FC8010E944698F82EB1
:10477000CE0101960E943099FF2049F0BE01635F8F
:104780007F4F84E090E00E94C1BD0C94562E69EBEF
:1047900074E0CE0101960E943599BE016F5F7F4F94
:1047A000C8010E944698F82ECE0101960E943099C9
:1047B000FF2049F0BE01635F7F4F85E090E00E94DB
:1047C000C1BD0C94562E60EB74E0CE0101960E94A0
:1047D0003599BE016F5F7F4FC8010E944698F82E41
:1047E000CE0101960E943099FF2049F0BE01635F1F
:1047F0007F4F86E090E00E94C1BD0C94562E67EA80
:1048000074E0CE0101960E943599BE016F5F7F4F23
:10481000C8010E944698F82ECE0101960E94309958
:10482000FF2049F0BE01635F7F4F87E090E00E9468
:10483000C1BD0C94562E64EA74E0CE0101960E942C
:104840003599BE016F5F7F4FC8010E944698F82ED0
:10485000CE0101960E943099FF2049F0BE01635FAE
:104860007F4F88E090E00E94C1BD0C94562E61EA13
:1048700074E0CE0101960E943599BE016F5F7F4FB3
:10488000C8010E944698F82ECE0101960E943099E8
:10489000FF2049F0BE01635F7F4F89E090E00E94F6
:1048A000C1BD0C94562E6EE974E0CE0101960E94B3
:1048B0003599BE016F5F7F4FC8010E944698F82E60
:1048C000CE0101960E943099FF2049F0BE01635F3E
:1048D0007F4F8AE090E00E94C1BD0C94562E6BE998
:1048E00074E0CE0101960E943599BE016F5F7F4F43
:1048F000C8010E944698F82ECE0101960E94309978
:10490000FF2049F0BE01635F7F4F8BE090E00E9483
:10491000C1BD0C94562E68E974E0CE0101960E9448
:104920003599BE016F5F7F4FC8010E944698F82EEF
:10493000CE0101960E943099FF2049F0BE01635FCD
:104940007F4F8CE090E00E94C1BD0C94562E65E92B
:1049500074E0CE0101960E943599BE016F5F7F4FD2
:10496000C8010E944698F82ECE0101960E94309907
:10497000FF2049F0BE01635F7F4F8DE090E00E9411
:10498000C1BD0C94562E62E974E0CE0101960E94DE
:104990003599BE016F5F7F4FC8010E944698F82E7F
:1049A000CE0101960E943099FF2049F0BE01635F5D
:1049B0007F4F8EE090E00E94C1BD0C94562E6FE8B0
:1049C00074E0CE0101960E943599BE016F5F7F4F62
:1049D000C8010E944698F82ECE0101960E94309997
:1049E000FF2049F0BE01635F7F4F8FE090E00E949F
:1049F000C1BD0C94562E68E874E0CE0101960E9469
:104A00003599BE016F5F7F4FC8010E944698F82E0E
:104A1000CE0101960E943099FF20B9F0CE010D968B
:104A20000E94AE9781E0611101C080E08093490847
:104A300080914608882311F40C94562E80914908E1
:104A400081110C945B2E0C94562E66E874E0CE0116
:104A500001960E943599BE016F5F7F4FC8010E9489
:104A60004698F82ECE0101960E943099FF2069F0F9
:104A7000CE010D960E94AE97613011F00C94562E27
:104A800081E0809331090C94562E64E774E0CE01E6
:104A900001960E943599BE016F5F7F4FC8010E9449
:104AA0004698F82ECE0101960E943099FF2079F0A9
:104AB000CE010D960E94AE976E3120F06D3318F046
:104AC0006CE301C06EE1609305020C94562E62E621
:104AD00074E0CE0101960E943599BE016F5F7F4F51
:104AE000C8010E944698F82ECE0101960E94309986
:104AF000FF2079F0CE010D960E94AE976E3120F026
:104B00006D3318F06CE301C06EE1609306020C9403
:104B1000562E60E574E0CE0101960E943599BE01E3
:104B20006F5F7F4FC8010E944698F82ECE01019614
:104B30000E943099FF2079F0CE010D960E94AE9729
:104B40006E3120F06D3318F06CE301C06EE16093BC
:104B500007020C94562E6FE374E0CE0101960E947A
:104B60003599BE016F5F7F4FC8010E944698F82EAD
:104B7000CE0101960E943099FF2079F0CE010D966A
:104B80000E94AE976E3120F06D3318F06CE301C0D7
:104B90006EE1609308020C94562E6EE274E0CE0132
:104BA00001960E943599BE016F5F7F4FC8010E9438
:104BB0004698F82ECE0101960E943099FF2079F098
:104BC000CE010D960E94AE976E3120F06D3318F035
:104BD0006CE301C06EE1609309020C94562E6CE107
:104BE00074E0CE0101960E943599BE016F5F7F4F40
:104BF000C8010E944698F82ECE0101960E94309975
:104C0000FF2079F0CE010D960E94AE976E3120F014
:104C10006D3318F06CE301C06EE160930A020C94EE
:104C2000562E66E074E0CE0101960E943599BE01D1
:104C30006F5F7F4FC8010E944698F82ECE01019603
:104C40000E943099FF2081F0CE010D960E94AE9710
:104C50002AE0269FA001279F500D112450930402A3
:104C6000409303020C94562E64EF73E0CE0101963C
:104C70000E943599BE016F5F7F4FC8010E94469820
:104C8000F82ECE0101960E943099FF2069F0CE01E6
:104C90000D960E94AE97660F862F880F880F680FBB
:104CA000609302020C94562E6FED73E0CE010196D4
:104CB0000E943599BE016F5F7F4FC8010E944698E0
:104CC000F82ECE0101960E943099FF2069F0CE01A6
:104CD0000D960E94AE97EAE06E9FB001112470938A
:104CE000010260930002E2C76FEC73E0CE0101960F
:104CF0000E943599BE016F5F7F4FC8010E944698A0
:104D0000F82ECE0101960E943099FF2039F0CE0195
:104D10000D960E947C588093A208C8C76EEB73E082
:104D2000CE0101960E943599BE016F5F7F4FC80189
:104D30000E944698F82ECE0101960E943099FF20DD
:104D400039F0CE010D960E94AE976093A308AEC7CE
:104D50006CEA73E0CE0101960E943599BE016F5F47
:104D60007F4FC8010E944698F82ECE0101960E94FE
:104D70003099FF2039F0CE010D960E94AE976093D6
:104D8000A40894C76DE973E0CE0101960E9435999D
:104D9000BE016F5F7F4FC8010E944698F82ECE017A
:104DA00001960E943099FF2039F0CE010D960E94A5
:104DB000AE976093A5087AC76EE873E0CE010196BE
:104DC0000E943599BE016F5F7F4FC8010E944698CF
:104DD000F82ECE0101960E943099FF2039F0CE01C5
:104DE0000D960E94AE976093A60860C761E873E0D5
:104DF000CE0101960E943599BE016F5F7F4FC801B9
:104E00000E944698F82ECE0101960E943099FF200C
:104E1000D9F16AE773E0CE0101960E943599BE018F
:104E20006F5F7F4FCE010D960E944698182FCE01DE
:104E300001960E943099112339F082E090E090931E
:104E4000CC058093CB0532C763E773E0CE010196B2
:104E50000E943599BE016F5F7F4FCE010D960E9473
:104E60004698182FCE0101960E943099112339F0EF
:104E700081E090E09093CC058093CB0517C710920A
:104E8000CC051092CB0512C76DE673E0CE010196FA
:104E90000E943599BE016F5F7F4FC8010E944698FE
:104EA000F82ECE0101960E943099FF2009F475C1B9
:104EB00062E673E0CE0101960E943599BE016F5FF4
:104EC0007F4FC8010E944698F82ECE0101960E949D
:104ED0003099FF2009F4EAC696014AE050E0B80193
:104EE000CE0101960E949899BE016F5F7F4FC80165
:104EF0000E949A98CE0101960E943099B801CE0185
:104F000007960E946B996DE971E0CE0101960E94AF
:104F10003599BE016F5F7F4FCE0107960E9446987C
:104F2000182FCE0101960E943099111194C06AE9A0
:104F300071E0CE0101960E943599BE016F5F7F4FEF
:104F4000CE0107960E944698182FCE0101960E9426
:104F50003099111182C067E971E0CE0101960E947B
:104F60003599BE016F5F7F4FCE0107960E9446982C
:104F7000182FCE0101960E943099111170C064E97A
:104F800071E0CE0101960E943599BE016F5F7F4F9F
:104F9000CE0107960E944698182FCE0101960E94D6
:104FA000309911115EC061E971E0CE0101960E9455
:104FB0003599BE016F5F7F4FCE0107960E944698DC
:104FC000182FCE0101960E94309911114CC06EE845
:104FD00071E0CE0101960E943599BE016F5F7F4F4F
:104FE000CE0107960E944698182FCE0101960E9486
:104FF000309911113AC06BE871E0CE0101960E9420
:105000003599BE016F5F7F4FCE0107960E9446988B
:10501000182FCE0101960E943099111128C068E81E
:1050200071E0CE0101960E943599BE016F5F7F4FFE
:10503000CE0107960E944698082FCE0101960E9445
:105040003099011115C069E771E082E591E10E9494
:10505000979C19E00DC017E00BC011E009C012E0E9
:1050600007C013E005C014E003C015E001C016E05E
:10507000CE0107960E943099193039F463E573E048
:1050800082E591E10E94979C11C6BE01635F7F4F4C
:10509000CE010196173009F073C00E946B99BE01D2
:1050A0006F5F7F4F80E00E94B1CBCE0101960E94DE
:1050B0003099BE01635F7F4FCE0101960E946B99CC
:1050C000BE016F5F7F4F81E00E94B1CBCE010196A0
:1050D0000E943099BE01635F7F4FCE0101960E940E
:1050E0006B99BE016F5F7F4F82E00E94B1CBCE0112
:1050F00001960E943099BE01635F7F4FCE010196F9
:105100000E946B99BE016F5F7F4F83E00E94B1CB1D
:10511000CE0101960E943099BE01635F7F4FCE01A0
:1051200001960E946B99BE016F5F7F4F84E00E94E1
:10513000B1CBCE0101960E943099BE01635F7F4FD3
:10514000CE0101960E946B99BE016F5F7F4F85E093
:105150000E94B1CBCE0101960E943099BE01635FDF
:105160007F4FCE0101960E946B99BE016F5F7F4F0A
:1051700086E00E94B1CBCE0101960E94309996C57F
:105180000E946B99BE016F5F7F4F812F0E94B1CB50
:10519000CE0101960E94309989C566E373E0CE0185
:1051A00001960E943599BE016F5F7F4FC8010E9432
:1051B0004698F82ECE0101960E943099FF2099F072
:1051C000CE010D960E94AE9781E0611101C080E092
:1051D0008093130281116AC562E273E082E591E176
:1051E0000E94979C63C569E173E0CE0101960E941D
:1051F0003599BE016F5F7F4FC8010E944698F82E17
:10520000CE0101960E943099FF20F9F0CE010D9653
:105210000E94AE976093CA0564E173E0CE010196E7
:105220000E943599BE016F5F7F4FCE010D960E949F
:105230004698182FCE0101960E943099112309F447
:1052400035C582E08093CA0531C56BE073E0CE01BD
:1052500001960E943599BE016F5F7F4FC8010E9481
:105260004698F82ECE0101960E943099FF2009F44D
:10527000CFC089899A890A9709F018C511E0E12CF5
:10528000F12C01E0B701CE010D960E943498DC01AB
:105290008C919E2DB4E0EB16F10409F417C59730FC
:1052A00009F40FC580538A3008F000E01A3029F065
:1052B000FFEFEF1AFF0A1F5FE5CF002309F4F6C4E2
:1052C0000E94D3C52093FB103093FC104093FD1037
:1052D0005093FE106093FF107093001160E070E037
:1052E000CE010D960E943498FC012081022E000C04
:1052F000330B20533109129F7001139FF00C1124BE
:1053000061E070E0CE010D960E943498DC018C9132
:10531000082E000C990BC0978E0D9F1D189F7001D1
:10532000199FF00C112462E070E0CE010D960E94EE
:105330003498FC012081022E000C330B20533109DC
:105340002E0D3F1D129F7001139FF00C112463E07E
:1053500070E0CE010D960E943498DC018C91082EED
:10536000000C990BC0978E0D9F1D803DB7E09B07E9
:1053700008F0805D8093FB1065E070E0CE010D9633
:105380000E943498FC012081022E000C330B205324
:1053900031091AE0129F7001139FF00C112466E08E
:1053A00070E0CE010D960E943498DC018C91082E9D
:1053B000000C990BC0978E0D9F1D8093FC1068E028
:1053C00070E0CE010D960E943498FC012081022EDF
:1053D000000C330B20533109129F7001139FF00C06
:1053E000112469E070E0CE010D960E943498DC0132
:1053F0008C91082E000C990BC0978E0D9F1D8093E9
:10540000FD108BEF90E10E942A920E9400934EC4FF
:1054100062E073E0CE0101960E943599BE016F5F94
:105420007F4FC8010E944698F82ECE0101960E9437
:105430003099FF2009F49CC089899A89089709F05E
:1054400035C421E000E010E0FF24F394B801CE0160
:105450000D96298F0E943498FC018081298D02309D
:10546000110509F437C4053009F438C480538A3073
:1054700008F0F12C273021F00F5F1F4F2F5FE6CF90
:10548000FF2009F413C40E94D3C52093FB1030936E
:10549000FC104093FD105093FE106093FF1070932A
:1054A000001160E070E0CE010D960E943498DC019E
:1054B0009C9110ED190F61E070E0CE010D960E94F5
:1054C0003498FC01912F990F292F220F220F290FB9
:1054D0008081082E000C990BC097820F911D80933C
:1054E000FE1063E070E0CE010D960E943498FC013E
:1054F000908110ED190F64E070E0CE010D960E94CE
:105500003498FC01912F990F292F220F220F290F78
:105510008081082E000C990BC097820F911D8093FB
:10552000FF1066E070E0CE010D960E943498DC0119
:105530009C9110ED190F67E070E0CE010D960E946E
:105540003498FC01912F990F292F220F220F290F38
:105550008081082E000C990BC097820F911D8093BB
:1055600000118BEF90E10E942A920E9400939EC34B
:105570006EEF72E0CE0101960E943599BE016F5F19
:105580007F4FC8010E944698F82ECE0101960E94D6
:105590003099FF2009F443C189899A89439709F01A
:1055A00085C301E0E12CF12C11E0B701CE010D968D
:1055B0000E943498FC0180819E2DF4E0EF16F104E6
:1055C00091F0973009F48FC39A3019F4803269F45E
:1055D0000DC09D3009F48CC3903109F48DC3805304
:1055E0008A3018F403C08D3219F010E0023129F02E
:1055F000BFEFEB1AFB0A0F5FD8CF112309F456C394
:105600000E94D3C52093FB103093FC104093FD10F3
:105610005093FE106093FF107093001160E070E0F3
:10562000CE010D960E943498DC012C91022E000CC4
:10563000330B205331091AE0129F7001139FF00CB5
:10564000112461E070E0CE010D960E943498FC01B7
:105650008081082E000C990BC0978E0D9F1D189FFE
:105660007001199FF00C112462E070E0CE010D96DC
:105670000E943498DC012C91022E000C330B205335
:1056800031092E0D3F1D129F7001139FF00C112444
:1056900063E070E0CE010D960E943498FC01808199
:1056A000082E000C990BC0978E0D9F1D803DF7E0D2
:1056B0009F0708F0805D8093FB1065E070E0CE01ED
:1056C0000D960E943498DC012C91022E000C330BB5
:1056D000205331091AE0129F7001139FF00C11241E
:1056E00066E070E0CE010D960E943498FC01808146
:1056F000082E000C990BC0978E0D9F1D8093FC10F7
:1057000068E070E0CE010D960E943498DC012C9187
:10571000022E000C330B20533109129F7001139F8E
:10572000F00C112469E070E0CE010D960E943498CF
:10573000FC018081082E000C990BC0978E0D9F1DD7
:105740008093FD106BE070E0CE010D960E943498BE
:10575000DC012C91022E000C330B20533109129FD7
:105760007001139FF00C11246CE070E0CE010D96D7
:105770000E943498FC018081082E000C990BC09780
:105780008E0D9F1D8093FE106EE070E0CE010D9691
:105790000E943498DC012C91022E000C330B205314
:1057A0003109129F7001139FF00C11246FE070E01B
:1057B000CE010D960E943498FC018081082E000CC9
:1057C000990BC0978E0D9F1D8093FF1061E170E0D3
:1057D000CE010D960E943498DC012C91022E000C13
:1057E000330B20533109129F7001139FF00C1124C9
:1057F00062E170E0CE010D960E943498FC01808138
:10580000082E000C990BC0978E0D9F1D80930011E0
:105810008BEF90E10E942A920E94009347C261EFB1
:1058200072E0CE0101960E943599BE016F5F7F4FF5
:10583000C8010E944698F82ECE0101960E94309928
:10584000FF20B1F0CE010D960E94AE9780918308A3
:10585000882339F081E0611101C080E08093A209C2
:1058600025C266EE72E082E591E10E94979C1EC21D
:105870006AED72E0CE0101960E943599BE016F5F1C
:105880007F4FC8010E944698F82ECE0101960E94D3
:105890003099FF20B1F0CE010D960E94AE97809115
:1058A0008308882339F081E0611101C080E0809392
:1058B000A809FCC16FEC72E082E591E10E94979C1F
:1058C000F5C161EC72E0CE0101960E943599BE01EE
:1058D0006F5F7F4FC8010E944698F82ECE01019657
:1058E0000E943099FF20B1F0CE010D960E94AE9734
:1058F00080918308882339F081E0611101C080E044
:105900008093A609D3C166EB72E082E591E10E9423
:10591000979CCCC169EA72E0CE0101960E9435994C
:10592000BE016F5F7F4FC8010E944698F82ECE01DE
:1059300001960E943099FF20B1F0CE010D960E9491
:10594000AE9780918308882339F081E0611101C00E
:1059500080E08093A709AAC16EE972E082E591E137
:105960000E94979CA3C160E972E0CE0101960E945B
:105970003599BE016F5F7F4FC8010E944698F82E8F
:10598000CE0101960E943099FF20B1F0CE010D9614
:105990000E94AE9780918308882339F081E06111DD
:1059A00001C080E08093A50981C165E872E082E5CD
:1059B00091E10E94979C7AC166E772E0CE01019660
:1059C0000E943599BE016F5F7F4FC8010E944698C3
:1059D000F82ECE0101960E943099FF20A9F0CE0149
:1059E0000D960E94AE9780918308882331F065362A
:1059F00008F064E660932E0A59C16BE672E082E516
:105A000091E10E94979C52C16DE572E0CE01019632
:105A10000E943599BE016F5F7F4FC8010E94469872
:105A2000F82ECE0101960E943099FF2051F0CE0150
:105A30000D960E94AE97662309F438C160938A08D8
:105A400035C16AE472E0CE0101960E943599BE012B
:105A50006F5F7F4FC8010E944698F82ECE010196D5
:105A60000E943099FF2051F0CE010D960E94AE9712
:105A7000662309F41BC160938B0818C16CE372E0C4
:105A8000CE0101960E943599BE016F5F7F4FC8011C
:105A90000E944698F82ECE0101960E943099FF2070
:105AA00051F0CE010D960E94AE97662309F4FEC018
:105AB00060938C08FBC06EE272E0CE0101960E94FA
:105AC0003599BE016F5F7F4FC8010E944698F82E3E
:105AD000CE0101960E943099FF20F9F0CE010D967B
