:100000000C945C0F0C94C3780C9498780C946D78D5
:100010000C9442780C9417780C94EC770C94C1777C
:100020000C9496770C94933D0C94633D0C94333D63
:100030000C948D0F0C948D0F0C948D0F0C948D0FD0
:100040000C948D0F0C94ED740C948D0F0C948D0FFB
:100050000C948D0F0C948D0F0C948D0F0C944C7789
:100060000C948D0F0C94765A0C944D5A0C948D0F61
:100070000C948D0F0C947D3B0C948D0F0C948D0F74
:100080000C948D0F0C948D0F0C948D0F0C94A27208
:100090000C94245A0C94FB590C948D0F0C94717190
:1000A0000C948D0F0C948D0F0C948D0F0C948D0F60
:1000B0000C948D0F0C948D0F0C948D0F0C948D0F50
:1000C0000C948D0F0C948D0F0C948D0F0C948D0F40
:1000D0000C948D0F0C948D0F0C948D0F0C948D0F30
:1000E0000C948D0F1D392239273931393B39B439F8
:1000F00045394D3955395F396939733982398C3908
:10010000B4399639A039AA397E568156705674563C
:100110007A56B856855689568F56935697569D5699
:10012000A156A556B856AB56AF56B356504B543A97
:100130002043524300504B543A2045545800504BF2
:10014000543A205354580044533A206E723A25646E
:1001500020703A2564204552524F520044533A20B1
:100160006E723A256420703A256420743A25642022
:100170006372633A2564204F4B00253032643A2580
:100180003032643A20414C41524D2054504F44414A
:100190004A4E494B3D545759534F4B412025643EDD
:1001A00000253032643A253032643A20414C4152C5
:1001B0004D2054504F44414A4E494B3D544D4158B7
:1001C0002025643E002A2A444D5031002A2A444DFD
:1001D0005432002A2A444D5431002A2A444D545F97
:1001E0004F4E002A2A444D445F4F4E002A2A444D68
:1001F000505F4F4646002A2A444D505F4F4E002A1A
:100200002A444D525F4F464632002A2A444D525FDF
:100210004F4646002A2A444D525F4F4E002A2A4339
:100220002D4F46462A002A2A432D4F4646002A2AA9
:10023000432D4F4E002A2A432D4F4E2A002054347E
:10024000443A00207A6164616E613A0034443A2095
:10025000435A454B414D59202D2064656C74613AD9
:1002600000205434443A00207A6164616E613A009F
:10027000206B726F6B3A0034443A204B524543492D
:100280004D59202D2064656C74613A0034443A2045
:100290005445524D4F53544154204F464600344428
:1002A0003A205445524D4F53544154204F4E002054
:1002B00020202020202000647A69656E3A00686161
:1002C000726D6F6E6F6772616D206379726B756CA2
:1002D00061636A693A00503A2025642C2530346401
:1002E0002C253034642C253034642C2530346400C3
:1002F00041363A20256420256420256400414C4C79
:100300003A2025646D7300545A3A0020256425254F
:10031000204445542D25642F323030005452494139
:10032000433A20542D2564205A2D256420542D5AFB
:100330002D256420462D2564004D415820646174AC
:10034000613A202523782C20743A25642C20743AB5
:1003500025640020534356002053434700204F4359
:1003600000544B206572726F723A005452494143F7
:100370003A2070726F626C656D79207A20646574C2
:10038000656B746F72656D2030203A2025642F32C2
:100390003030005254433A20643A25642025643AB0
:1003A00025640054524941433A207A616B6C75636D
:1003B000656E6961207A20646574656B746F726123
:1003C0002C2064656C7461203D0020726574727924
:1003D0003D0045434F414C3A2070726F626C656D31
:1003E00079207A206B6F6D756E696B61636A61202D
:1003F0003A206572723D00576F6C6E792052414D04
:100400003A00576F6C6E792052414D3A00414C4D85
:100410003A2050525A4550414C4F4E592042455A6D
:10042000504945435A4E494B00414C4D3A20504F9C
:1004300044414A4E494B205354414E204D494E00B1
:10044000414C4D3A20504F44414A4E494B20544D67
:10045000415800414C4D3A205049454320544D41AC
:100460005800414C4D3A204252414B00576F6C6E40
:10047000792052414D3A005D002C00743A5B005DDA
:1004800000736574205B0052455345540057454244
:100490003A004C43443A005A34443A00504D503AE2
:1004A00000444D553A00504F443A00414C473A0001
:1004B000414C4D3A004D41503A00414E413A004DB9
:1004C00041583A0044414C4C3A00434F4E3A005494
:1004D000494D3A0044414C4C41533A204B6F6E69B0
:1004E000656320706F737A756B6977616E696120DF
:1004F000637A756A6E696B6F772E0044414C4C418C
:10050000533A204E494520444F44414E4F2121004B
:10051000202054656D7065726174757261203D2094
:1005200000204352433D00202044617461203D205F
:1005300000204E69657A6E616E79204453313878B7
:10054000780020445331383232002044533138424D
:10055000323000204453313853323000626C6164D1
:10056000204352430044414C4C41533A20494420DB
:100570003D0020437A6173206B6F6D656E6461206E
:100580006B6F6E776572736A6920646C6120637A41
:10059000756A6E696B61203D200044414C4C4153AB
:1005A0003A20506F637A6174656B20706F737A754F
:1005B0006B6977616E696120637A756A6E696B6FCA
:1005C000772E005254433A206F64637A7974207A0C
:1005D00061736F626E696B613A005354415254000B
:1005E00049503A206272616B2045746865725368A5
:1005F00069656C642E2E2E005757573A7374726FCC
:100600006E6120676F746F7761005757573A757244
:10061000756368616D69616D207374726F6E652EAC
:100620002E2E0049503A20646E733A0049503A2009
:100630006272616D613A0049503A206D61736B617D
:100640003A0049503A2061647265733A0049503A61
:10065000206D61633A0049503A20706F626965729B
:10066000616E696520616472657375207A20444803
:1006700043502E2E2E00576F6C6E792052414D3A0A
:100680000049503A206B6F6E666967757261636AE4
:10069000612073696563692E2E2E00576F6C6E7929
:1006A0002052414D3A00576F6C6E792052414D3ABD
:1006B00000576F6C6E792052414D3A0053443A20F6
:1006C000626C6164206F64637A7974752064616E12
:1006D0007963680053443A20626C6164206B6172F4
:1006E00074790053443A206272616B206B617274BA
:1006F00079005254433A206272616B204453313383
:100700003037005254433A2053544F50202D3E204E
:100710005354415254005254433A207A6E616C65EE
:100720007A696F6E6F2044533133303700302E3189
:100730002E302E313132004C75636A616E20762E78
:10074000001F1F1F0000000000181C1E1F1F1F1F7E
:100750001F1F1F1F1F1F0F070300000000001F1F88
:100760001F1F1F1F1F1F1E1C181F1F1F0000001F01
:100770001F1F000000001F1F1F03070F1F1F1F1F49
:100780001F4932433A20536B616E6F77616E696522
:10079000202E2E2E00302E312E302E313132004CB4
:1007A00075636A616E20762E004C41544F005A49A1
:1007B0004D41004252554C490045434F414C004E7B
:1007C00069657A6E616E7920647A69656E004E445F
:1007D00000534F00505400435A00535200575400E6
:1007E000504F002A005858444D5F504C55535F4DB0
:1007F0004F43005858444D5F504C55535F4D4F4345
:10080000005858544553545F4E5231207A6E616CF3
:10081000657A696F6E6F005858544553545F4E5255
:10082000310050524143412042455A2044455445ED
:100830004B544F524100444554454B544F525F5422
:10084000455354554A455F42455A504945435A4ECF
:10085000494B004E69657A6E616E7920647A6965EC
:100860006E0050524F475F4359524B5F0050524FFA
:10087000475F005A4144414E41004B525A5957413B
:10088000005A41574F5234442D54525942005A4154
:10089000574F5234442D5A4144414E41005A41571A
:1008A0004F5234442D484953544552455A41005AF9
:1008B00041574F5234442D4F424E495A4F4E4100FA
:1008C0005A41574F5234442D435A554A4E494B00D2
:1008D0005A41574F5234442D435A41535F504F4D64
:1008E00049415255005A41574F5234442D435A41C1
:1008F000535F4B524F4B005A41574F5234442D4394
:100900005A41535F4F54574152434941004B525A49
:100910005957415F47525A414E49412B3135004B9F
:10092000525A5957415F47525A414E49412B35005F
:100930004B525A5957415F47525A414E49412D3007
:10094000004B525A5957415F47525A414E49412D27
:100950003130004B525A5957415F47525A414E4924
:10096000412D3230004B525A5957415F47525A413C
:100970004E49412D3330005600543800543700544E
:10098000360054350054340054330054320054318E
:1009900000545350414C494E590054504F444C4F11
:1009A00047410054435755005457455700545A4542
:1009B000570054504F44414A4E494B0054504F57F2
:1009C000524F5400545049454300545F4D415055D7
:1009D0004A5F5A5F4252554C4900545F4D41505551
:1009E0004A5F5A5F45434F414C005252575F484956
:1009F00053544552455A41005252575F504F535439
:100A00004F4A005252575F504F44414E49450052A1
:100A100052575F4E41444D5543480052524D5F5727
:100A200049454C455F4D4F43590052524D5F444F2D
:100A300050414C414E49455F435A41530052524D3B
:100A40005F444F50414C414E49455F4D4F4300522A
:100A5000524D5F4D41585F50525A454249434945B6
:100A60005F544C4F0052524D5F544C4F5F435A41BC
:100A7000530052524D5F544C4F5F435A41535F50A5
:100A80004F44414E49450052524D5F544C4F5F4DCB
:100A90004F430052524D5F544C4F5F574C41435AA5
:100AA0004F4E450052525F50524143415F4D4F43BC
:100AB0000052525F50524143415F504F53544F4A8E
:100AC0000052525F50524143415F504F44414E49A2
:100AD000450052525F504F4454525A594D414E496D
:100AE000455F4D4F430052525F504F4454525A5944
:100AF0004D414E49455F504F53544F4A0052525F4B
:100B0000504F4454525A594D414E49455F504F44FD
:100B1000414E49450052525F504F4454525A594D2C
:100B2000414E49455F435A4153004359524B554C3E
:100B300041434A415F544D494E004359524B554C35
:100B400041434A415F435A41535F57594C41435ACD
:100B5000004359524B554C41434A415F435A41531C
:100B60005F574C41435A004359524B554C41434AFD
:100B7000415F414C474F5259544D00434F5F435AD8
:100B800041535F57594C41435A00434F5F435A41C9
:100B9000535F574C41435A00434F5F414C474F52BC
:100BA00059544D00434F5F545259420043575532F8
:100BB0005F414C474F5259544D00435755325F5493
:100BC00052594200435755325F5A4144414E410009
:100BD0004357555F545F4D4158004357555F48494F
:100BE00053544552455A41004357555F414C474F76
:100BF0005259544D004357555F5452594200435780
:100C0000555F5A4144414E4100504945435F414C74
:100C1000474F5259544D00504945435F484953543A
:100C20004552455A4100504945435F5A4144414E5F
:100C30004100504945435F545F4D4158005049457C
:100C4000435F545F4D494E00504F44414A4E494B1B
:100C50005F414C41524D5F4D494E00504F44414A17
:100C60004E494B5F505245444B4F53435F504F44A6
:100C70004157414E494100504F44414A4E494B5F14
:100C8000435A41535F504F44414A4E494B410050F3
:100C90004F44414A4E494B5F435A41535F444F5F73
:100CA0004F50524F5A4E49454E494100504F4441D2
:100CB0004A4E494B5F545F4D415800504F44414AA2
:100CC0004E494B5F435A41535F5759525A555455F9
:100CD00000504F44414A4E494B5F545F5759534F60
:100CE0004B4100504F44414A4E494B5F435A415398
:100CF0005F504F444E4F535A454E494100444D5F5B
:100D0000504C55535F4D4F4300444D5F504C55532D
:100D10005F435A415300444D5F524F5A5255434826
:100D20005F4D4F4300444D5F524F5A525543485F09
:100D3000435A415300444D5F544C4F5F4D4F430065
:100D4000444D5F544C4F5F435A415300444D5F4400
:100D50004F50414C414E49455F4D4F4300444D5F1C
:100D6000444F50414C414E49455F435A4153004422
:100D70004D5F4D4F44554C41434A4100444D5F49FE
:100D80004E574552534A415F50574D00444D5F4FB7
:100D9000464653455400444D5543484157415F41F1
:100DA000435F475255504F574F004E45545F444E96
:100DB00053004E45545F4252414D41004E45545FF1
:100DC0004D41534B41006175746F004E45545F496E
:100DD00050004E45545F4D4143004F4646534554E5
:100DE0005F002D3E002000533A2000535F00207426
:100DF0003A0020653A00206D3A00206F3A002070DA
:100E00003A002049443A0044414C4C415320005898
:100E1000585845434F414C004252414B00425241C9
:100E20004B00534F465400534F4654004D415836E3
:100E3000363735004D415836363735004D41583339
:100E400031383535004D415833313835350044415E
:100E50004C4C4153204E52203D200044414C4C41CB
:100E600053005350414C494E5900504F444C4F474A
:100E7000410043575500574557005A455700504FBA
:100E800044414A4E494B00504F57524F5400434F34
:100E9000004252554C490045434F414C00543800E4
:100EA0005437005436005435005434005433005441
:100EB0003200543100545350414C494E5900545063
:100EC0004F444C4F474100544357550054574557E2
:100ED00000545A45570054504F44414A4E494B0024
:100EE00054504F57524F54005450494543005254A8
:100EF000433A207A61706973207A61736F626E6918
:100F00006B613A00202D3E2000444D3A2000575995
:100F10004741535A414E49453A2053544152540097
:100F20004D4945535A414E49450042415254454B63
:100F300000574C41435A004252554C490045434FDB
:100F4000414C0057594C41435A4F4E590043594B5D
:100F50004C49435A4E5900434941474C59007C3C47
:100F60003E5E2B3D3F2F5B5D3B2C2A225C00575998
:100F70004741535A414E49453A205433204F4B0084
:100F800057594741535A414E49453A2054504945D3
:100F900043204F4B0057594741535A414E49453A18
:100FA00020545350414C494E204F4B005759474114
:100FB000535A414E49453A20645350414C494E20C2
:100FC00025642C2064504945432025642C2064541A
:100FD00033202564002A2A4833002A2A474D32004C
:100FE0002A2A4732002A2A474D2D002A2A47310053
:100FF0002A2A5032002A2A5031002A2A4432002A52
:101000002A4431002A2A5432002A2A5431007072AC
:101010007A656A73636965206E6120706F647472AB
:101020007A796D616E69652025643E3D25640070A6
:10103000727A656A73636965206E61206E61646DA2
:1010400075636820746C6F002A2A4833002A2A4787
:1010500032002A2A4731002A2A5032002A2A5031E7
:10106000002020203C574C41435A4F4E593E2020EF
:1010700020002020203C57594C41435A4F4E593EA6
:101080002020004E54503A3130004E54503A340033
:101090004E54503A33004E54503A32004E54503A67
:1010A00031004E54503A20557A79736B616E6F203F
:1010B000637A617320756E697874696D653A002092
:1010C0002D3E20004841524D4F4E4F4752414D3A20
:1010D000207A6D69616E61200044454C455445009D
:1010E0004F5054494F4E530050555400504F535495
:1010F000004745540000002100240027002A002D4D
:10110000003000330001010000040107010A010062
:10111000002200250028002B002E003100340002A0
:10112000010000050108010B0100000A0B02090C77
:101130000D0E08070304010000000000000000007D
:10114000000000000000000000000000000000009F
:10115000000000000012111000000000000000005C
:10116000000000000000000000000000000000205F
:1011700020000000000000FF070000000000000544
:101180000520200000000004FF04FF0401FF010807
:10119000FF0607FF050000012004010401200408E8
:1011A00006022003070204052000000000000008DA
:1011B000010304000000000102040500000000011A
:1011C0000404010401010404FF0401FF01000020E4
:1011D000050000000000000404042020200000207E
:1011E0000400000000000020200401040120200869
:1011F0000102030405000001022004FF04000006B0
:101200000602FF07070000010602040705000003AD
:1012100004FF2020FF0000FF060607070500000866
:10122000060603070500000101022008200000084F
:10123000060203070500000806020707050000A5CF
:10124000A5000000000000040500000000000020D0
:101250000401010104000004040401010100000173
:1012600004200401010000010602200720000008FC
:1012700006020304040000080602FF20FF0000FF2E
:101280000605FF070200000801010304040000FF37
:101290000102FF04050000FF0606FF07070000FF2C
:1012A0000606FF202000000801010304020000FFE1
:1012B00004FFFF20FF000001FF0104FF04000020E5
:1012C00020FF0404050000FF0405FF20020000FFCA
:1012D0002020FF0404000008030502FF2020FFFF78
:1012E0000220FFFF2003FF0801020304050000089D
:1012F0000602FF20200000080102200304FF04FF73
:101300000602FF200200000806060707050000018C
:10131000FF0120FF200000FF20FF03040500000361
:1013200020200520020820FF2020FF0308020503DB
:101330000405082002000003040520FF200000012E
:1013400006050807040000FF01FF0400000000017B
:101350000420202020010401FF04FF0000000008F9
:1013600002202000000000202020040404000020AF
:101370002020202020202020202020253364252507
:10138000005A41534F424E494B3A20202020202002
:1013900020005A41534F424E494B3A2050454C4E43
:1013A0004520555A5550454C4E49454E49450054E7
:1013B000525942205245435A4E593A20202020008B
:1013C00054523A205245435A4E593A20256400203F
:1013D00020202020202020202020202533642525A7
:1013E00000444D5543484157413A202020202020B9
:1013F000200054523A20444D554348415741204D16
:101400004F433A20256400504F44414A4E494B3ADD
:10141000202020202020200054523A20504F4441C8
:101420004A4E494B3A202564005A41572E344420F5
:101430005A414D594B414A3A200054523A205A34AD
:1014400044205A414D3A202564005A41572E3444D5
:10145000204F5457494552414A3A0054523A205A73
:101460003444204F54573A20256400504F4D50418A
:10147000204359524B554C3A2020200054523A20D8
:1014800050204359524B3A20256400504F4D504153
:1014900020435755323A20202020200054523A2031
:1014A0005020435755323A20256400504F4D50414B
:1014B00020435755313A20202020200054523A2012
:1014C0005020435755313A20256400504F4D50412C
:1014D00020434F3A202020202020200054523A2040
:1014E0005020434F3A2025640054383A2530326466
:1014F0002E25642020202020202020200054373A50
:10150000253032642E256420202020202020202019
:101510000054363A253032642E25642020202020C5
:10152000202020200054353A253032642E256420B6
:1015300020202020202020200054343A25303264FE
:101540002E25642020202020202020200054333A03
:10155000253032642E2564202020202020202020C9
:101560000054323A253032642E2564202020202079
:10157000202020200054313A253032642E2564206A
:101580002020202020202020005350414C494E593B
:101590003A253033642E256420202000504F444CDF
:1015A0004F47413A253032642E2564202020200008
:1015B000202020202020202020202020202020202B
:1015C00000504F44414A4E494B3A253032642E2553
:1015D00064202020005745574E3A20253032642E93
:1015E000256420202020202000253032642E256410
:1015F000202020202020005A45574E3A00504F57B7
:10160000524F543A253032642E2564202020202069
:1016100000504F57523A253032642E2564205A3AF2
:10162000253032642E256400434F3A253032642E33
:10163000256420202020202020202000434F3A2510
:101640003032642E2564205A34443A253032642ED8
:1016500025640050525A4550414C4F4E5920424546
:101660005A502E002020202020414C41524D202055
:1016700020202020004E49534B49205354414E20F6
:101680005A41534F42002020202020414C41524DCE
:101690002020202020200054454D502E4D414B53FA
:1016A0002E504F44414A2E002020202020414C4102
:1016B000524D2020202020200054454D502E204DFA
:1016C000414B532E504945434100202020202041CA
:1016D0004C41524D2020202020200020202020207E
:1016E000414C41524D4F57202020200020202020E7
:1016F00020204252414B20202020202000414C4DF0
:101700003A20534B41534F57414E4F2050525A4568
:1017100050414C4F4E592042455A504945435A4E2C
:10172000494B00414C4D3A20534B41534F57414E8A
:101730004F20504F44414A4E494B205354414E2074
:101740004D494E00414C4D3A20534B41534F574168
:101750004E4F20504F44414A4E494B20544D415822
:1017600000414C4D3A20534B41534F57414E4F206F
:101770005049454320544D415800414C4D3A204E6C
:10178000494320444F20534B41534F57414E494109
:1017900000202020202020434F3A00414C41524D50
:1017A00020434F3A00253032643A253032642043DA
:1017B0004F3A004357553A253032642E25642000B5
:1017C000005EBCE2613FDD83C29C7E20A3FD1F4121
:1017D0009DC3217FFCA2401E5F01E3BD3E6082DC11
:1017E000237D9FC1421CFEA0E1BF5D0380DE3C6201
:1017F000BEE0025CDF81633D7C22C09E1D43A1FFF1
:101800004618FAA427799BC584DA3866E5BB5907E0
:10181000DB856739BAE406581947A5FB7826C49AD0
:10182000653BD987045AB8E6A7F91B45C6987A24C0
:10183000F8A6441A99C7257B3A6486D85B05E7B9B0
:101840008CD2306EEDB3510F4E10F2AC2F7193CDA0
:10185000114FADF3702ECC92D38D6F31B2EC0E5090
:10186000AFF1134DCE90722C6D33D18F0C52B0EE80
:10187000326C8ED0530DEFB1F0AE4C1291CF2D7370
:10188000CA947628ABF517490856B4EA6937D58B60
:101890005709EBB536688AD495CB2977F4AA481650
:1018A000E9B7550B88D6346A2B7597C94A14F6A840
:1018B000742AC896154BA9F7B6E80A54D7896B3530
:1018C0001F1C1F1E1F1E1F1F1E1F1E1F53443A20BA
:1018D0006272616B20706C696B7520636F6E6669F4
:1018E000672E747874005D00636F6E6669673A20D6
:1018F0005B005757573A206272616B20706C696BBE
:10190000753A20005757573A204F64637A7974200C
:10191000706C696B753A006163636573732D636FF7
:101920006E74726F6C2D616C6C6F772D6F7269675E
:10193000696E3A202A0A005757573A20426C616470
:1019400020706172736F77616E69612055524C002F
:101950002062616A746F772900206D7320286F649C
:10196000656272616E6F20002062616A746F772019
:101970007720005757573A205A61706973616E6F2C
:1019800020005757573A205A61706973756A65206D
:10199000706C696B3A00444953434F4E4E45435473
:1019A000454400435755323A00435755313A0043B6
:1019B0004F3A004D4F433A256420686973743A25C5
:1019C00020336420706F643A2520336420706F7375
:1019D0003A2520346420646D3A25203364206C69F4
:1019E000637A3A256400424C4144004F4B004B4F10
:1019F000004F4B0066756C6C0020743A0020653A0D
:101A000000206D3A00206F3A0020703A00204944CF
:101A10003A0044414C4C41532000444953434F4EFB
:101A20004E45435445440077656E74796C61746F1C
:101A3000723A00435755323A00435755313A0061E4
:101A400063636573732D636F6E74726F6C2D616C5D
:101A50006C6F772D6F726967696E3A202A0A002EC3
:101A6000002D00227D00302E312E302E31313200FB
:101A70002C22766572223A22002274696D65223A20
:101A8000002C0022616C223A20002C003000310032
:101A900022746572223A20002C003000310022634B
:101AA00079726B223A20002C0030003100226377DB
:101AB0007532223A20002C00300031002263777505
:101AC00031223A20002C003000310022636F223A8C
:101AD00020002C003000310022706F64223A200078
:101AE0002C0022706F64676D696E223A20002C0012
:101AF00022706F64637A646F223A20002C00227097
:101B00006F64637A7A6173223A20002C0022706F2E
:101B100064637A223A20002C002277656E31223AE3
:101B200020002C002277656E30223A20007D5D2C4B
:101B3000007B2274223A20007D2C007B2274686591
:101B4000726D6F73223A5B006163636573732D631B
:101B50006F6E74726F6C2D616C6C6F772D6F726924
:101B600067696E3A202A0A006163636573732D63A7
:101B70006F6E74726F6C2D616C6C6F772D6F726904
:101B800067696E3A202A0A006163636573732D6387
:101B90006F6E74726F6C2D616C6C6F772D6F7269E4
:101BA00067696E3A202A0A002F6D6F64756C616355
:101BB0006A61006163636573732D636F6E74726F26
:101BC0006C2D616C6C6F772D6F726967696E3A204E
:101BD0002A0A002F683464006163636573732D63A0
:101BE0006F6E74726F6C2D616C6C6F772D6F726994
:101BF00067696E3A202A0A00227D00302E312E308D
:101C00002E313132002C22766572223A22007B225C
:101C100074696D65223A006163636573732D636F48
:101C20006E74726F6C2D616C6C6F772D6F7269675B
:101C3000696E3A202A0A00436F6E74656E742D54E3
:101C40007970653A200048544D2A746578742F687D
:101C5000746D6C7C5458542A746578742F706C6160
:101C6000696E7C4353532A746578742F6373737C55
:101C7000584D4C2A746578742F786D6C7C4A532AC1
:101C8000746578742F6A6176617363726970747CAD
:101C90004749462A696D6167652F6769667C4A50C6
:101CA000472A696D6167652F6A7065677C504E478A
:101CB0002A696D6167652F706E677C49434F2A6999
:101CC0006D6167652F766E642E6D6963726F736FD9
:101CD00066742E69636F6E7C4D50332A617564693A
:101CE0006F2F6D7065677C00050505050705080801
:101CF0000808020202020A0A080804040404010196
:101D000001010101010103030303030303030407AA
:101D100007070C0C0C0C0C0C0C0C02020202060641
:101D20000606060606060B0B0B0B0B0B0B0B010234
:101D300010202008081020401020408002010201DD
:101D40000804020101020408102040808040201095
:101D500008040201800402018040201008040201EE
:101D60000804020101020408102040800102040856
:101D700010204080000020002300260029002C00B5
:101D80002F0032000001000003010601090130327A
:101D90003031303030363030303030303030363135
:101DA00030330000316253C4F5A697B988DBEA7D71
:101DB0004C1F2E4372211087B6E5D4FACB98A93E6A
:101DC0000F5C6D86B7E4D5427320113F0E5D6CFB4E
:101DD000CA99A8C5F4A796013063527C4D1E2FB84E
:101DE00089DAEB3D0C5F6EF9C89BAA84B5E6D74053
:101DF0007122137E4F1C2DBA8BD8E9C7F6A5940328
:101E0000326150BB8AD9E87F4E1D2C02336051C627
:101E1000F7A495F8C99AAB3C0D5E6F41702312850B
:101E2000B4E7D67A4B1829BE8FDCEDC3F2A1900738
:101E300036655439085B6AFDCC9FAE80B1E2D3446D
:101E4000752617FCCD9EAF38095A6B45742716814D
:101E5000B0E3D2BF8EDDEC7B4A192806376455C249
:101E6000F3A0914776251483B2E1D0FECF9CAD3A22
:101E70000B586904356657C0F1A293BD8CDFEE792B
:101E8000481B2AC1F0A3920534675678491A2BBC27
:101E90008DDEEF82B3E0D1467724153B0A5968FF07
:101EA000CE9DAC204F4B0D0A00485454502F312E7C
:101EB000312000004A9E469E11241FBECFEFD1E282
:101EC000DEBFCDBF00E00CBF16E0A0E0B2E0EEE068
:101ED000F4E501E00BBF02C007900D92A430B107FA
:101EE000D9F721E1A4E0B6E001C01D92A33DB207FD
:101EF000E1F71FE0CBE5DFE000E006C02197010934
:101F0000802FFE010E94ABA1CA35D10780E00807EF
:101F1000A9F70E94BF890C94F5A90C9400002F9298
:101F20003F924F925F926F927F928F929F92AF9269
:101F3000BF92CF92DF92EF92FF920F931F93CF93B6
:101F4000DF93CDB7DEB7A4970FB6F894DEBF0FBE10
:101F5000CDBFA8950E948F5B609377077093780739
:101F60008093790790937A0780917707909178070B
:101F7000A0917907B0917A078093730790937407C3
:101F8000A0937507B09376078091770790917807B3
:101F9000A0917907B0917A0780936F0790937007AB
:101FA000A0937107B09372070E948F5B00916F0737
:101FB000109170072091710730917207DC01CB01FD
:101FC000801B910BA20BB30B80936F07909370074C
:101FD000A0937107B093720780910C09882369F070
:101FE00080916F0790917007A0917107B09172076F
:101FF0000397A105B1050CF0C6C60E948F5B6093E4
:102000006F077093700780937107909372078091A8
:10201000010290910202009799F40E948F5B6093F5
:1020200036077093370780933807909339071092DB
:10203000C6061092C5061092350781E090E01DC0DB
:102040000197F9F40E948F5B0091360710913707D2
:102050002091380730913907DC01CB01801B910BAF
:10206000A20BB30B85369105A105B10550F0109276
:10207000C6061092C50682E090E09093020280931B
:10208000010280910102909102028230910509F0D3
:102090005EC000916C1010916D10C8010E9484A563
:1020A0009091330720E0E091320761E0281740F576
:1020B000F801E20FF11D949131E0320FF801E30FC6
:1020C000F11D2E5FE491A62FB0E0913410F039ECB1
:1020D00001C030ED390FE13410F079EC01C070ED42
:1020E0007E0FF0E13F9FA0011124472BEE24E394E3
:1020F000F12CEC0EFD1EAE0DBF1D4C936F5FD6CFC5
:102100009093330720933407E0933207182F1695E6
:10211000198381E08093000280910002181780F0FB
:1021200091E0980F90930002E1E0F0E0EC0FFD1FCA
:10213000E80FF11D608187EC9DE00E94C955ECCF4E
:102140001092C6061092C50683E090E013C083305B
:102150009105D1F587EC9DE00E948A55892B79F095
:1021600010920002109231071092C6061092C50616
:1021700084E090E09093020280930102D8C08091A5
:10218000C5069091C60601969093C6068093C50633
:102190008139914008F4CBC01092C6061092C50652
:1021A000809135078F5F8093350722E030E03093D0
:1021B000020220930102863008F4B9C081E08093C6
:1021C000610780931C02B3C08430910509F051C0AF
:1021D00087EC9DE00E948A5518161906BCF487EC1E
:1021E0009DE00E948A55181619069CF51091000270
:1021F00081E0810F8093000287EC9DE00E9468558A
:10220000E12FF0E0E353F94F8083E9CF8091C506D9
:102210009091C60601969093C6068093C5068139B3
:102220009140B8F01092C6061092C50682E090E088
:102230009093020280930102809135078F5F809313
:102240003507863030F082E08093610781E080932B
:102250001C0280910002863508F469C08093310722
:10226000109200021092C6061092C50687E090E018
:1022700081CF079709F05BC0809131078635B1F5B2
:102280008091CD06823019F06EE371E02BC0809111
:102290002207833021F42EEC36E0E0E003C065E352
:1022A00071E020C0B7E021323B07A1F0D9018D9148
:1022B0009D018E27E0917010F0917110E80FF11DD3
:1022C000E4918E2F90E0A0E0B0E089839A83AB8305
:1022D000BC83E8CF809121078E1711F40C9452250E
:1022E0006CE271E084EE9EE00E94DB598091C506AD
:1022F0009091C60601969093C6068093C5068139D3
:10230000914088F01092C6061092C506809135075C
:102310008F5F80933507863030F084E080936107CB
:1023200081E080931C0210920202109201020E942E
:102330008F5B00916F0710917007209171073091AA
:102340007207DC01CB01801B910BA20BB30B8093B6
:102350006F0790937007A0937107B09372078091F5
:102360000C09882369F080916F0790917007A09104
:102370007107B09172070397A105B1050CF014C560
:102380000E948F5B60936F07709370078093710753
:102390009093720780917208882309F4E7C0D09067
:1023A0003A07D11007C088E080930A060E94553C86
:1023B00081E0C9C080910A068111C7C0DA94ED2C72
:1023C000F12CFEE0DF9E80011124282F30E0D9019E
:1023D000A759B74F200F311FF901E558F84F9081E9
:1023E0009C938F5F883089F7809371080E94093C25
:1023F000882309F487C080916908823241F08832CD
:1024000031F0803121F481E08093680802C010929D
:10241000680880915C0890E0982F882720915B08DD
:10242000822B20916808222399F053E0880F991F8E
:102430005A95E1F7209162082031F9F44091610842
:102440002CE030E0241B3109807F820F931F15C0E0
:1024500020915F08207631F443E0880F991F4A9558
:10246000E1F70BC0203229F4880F991F880F991FBC
:1024700004C0203411F4880F991F2AE0289F80019E
:10248000299F100D112417FF02C0015F1F4F84E028
:10249000159507958A95E1F78EE08E9DF0018F9D49
:1024A000F00D1124E558F84F808581111DC08091F1
:1024B00063081F928F931F930F931F921F921F9277
:1024C000DF928CE591E09F938F9384EE9EE09F9343
:1024D0008F930E94FA3D84EE9EE00E9444590FB60D
:1024E000F894DEBF0FBECDBF8EE08E9DF0018F9DB4
:1024F000F00D1124E558F84F028713878091670883
:1025000080871EC0F801E558F84F108681858F5FDF
:1025100081871F921F92FF92EF9287E491E09F9331
:102520008F9384EE9EE09F938F930E94FA3D84EEFA
:102530009EE00E9444590FB6F894DEBF0FBECDBF97
:1025400080913A078F5F80933A0790913A07809184
:102550007208891758F410923A0780914A078A3016
:1025600028F480914A078F5F80934A070E948F5B0F
:1025700000916F07109170072091710730917207D9
:10258000DC01CB01801B910BA20BB30B80936F0777
:1025900090937007A0937107B093720780910C0914
:1025A000882369F080916F0790917007A09171075F
:1025B000B09172070297A105B1050CF006C40E9404
:1025C0008F5B60936F077093700780937107909390
:1025D00072078091C206811105C080910C06882384
:1025E00009F4D2C080910B068111CEC085E08093A2
:1025F0000B0680910C068823C1F18BE191E10E94CA
:10260000CD7260934B0770934C0780934D07909366
:102610004E07C0900D06D0900E06E0900F06F09089
:10262000100697018601A6E0000F111F221F331F1D
:10263000AA95D1F70C191D092E093F09DC01CB0120
:10264000800F911FA21FB31F16E0B695A79597950F
:1026500087951A95D1F7AA27BB2780930D069093EB
:102660000E06A0930F06B09310068091C206882331
:1026700009F48AC081E191E10E94CD726B017C0175
:102680006093BE067093BF068093C0069093C10608
:102690004B01770FAA08BB08109149072091450705
:1026A000309146074091470750914807A12FB0E06D
:1026B0000E94B4A9680D791D8A1D9B1D9D012F5F85
:1026C0003F4F032E000C440B550B0E94C4A92093CE
:1026D000450730934607409347075093480781E0EA
:1026E000810F8093490787FF03C08FE780934907D5
:1026F000C901330FAA0BBB0B8093110690931206EE
:10270000A0931306B093140680913D07811107C072
:10271000D0923C07C0923B0781E080933D07A09197
:102720003B07B0913C0723EF31E00E94BAA1DC01E6
:10273000CB01880D991DAA1DBB1DBC01CD01660FE3
:10274000771F881F991F28EE33E040E050E00E9479
:10275000C4A930933C0720933B0753E3C516D1042B
:10276000E104F10448F010924F07109250071092C4
:1027700051071092520708C0C0924F07D0925007DD
:10278000E0925107F09252070E948F5B00916F0711
:10279000109170072091710730917207DC01CB0115
:1027A000801B910BA20BB30B80936F079093700764
:1027B000A0937107B093720780910C09882369F088
:1027C00080916F0790917007A0917107B091720787
:1027D0000297A105B1050CF009C30E948F5B6093BD
:1027E0006F077093700780937107909372070E9430
:1027F0008F5B00916F0710917007209171073091E6
:102800007207DC01CB01801B910BA20BB30B8093F1
:102810006F0790937007A0937107B0937207809130
:102820000C09882369F080916F0790917007A0913F
:102830007107B09172070297A105B1050CF0E7C2CC
:102840000E948F5B60936F0770937007809371078E
:102850009093720780910D0690910E069AA389A31A
:10286000A0914B07B0914C07B8A3AF8FE0914F07F1
:10287000F0915007FE8FED8FE0901106F090120658
:10288000FC8EEB8E2091BE063091BF063A8F298FC9
:10289000309172083D8B4090030250901506609075
:1028A0001606709017068090180690901906A09052
:1028B0001A06B0901B0650911C0660911D0670917F
:1028C0001E0610911F0600912006F0902106E09050
:1028D0002206D0902306C0902406E3EE2E2EECE0D4
:1028E0003E2E88EE9CE09CA38BA3F1014EE08BA1D1
:1028F0009CA10197DC018C91823069F5ABA1BCA150
:102900008C91882381F0813089F0823091F083307E
:1029100099F08430A1F08530A9F08630A9F0873095
:10292000A9F4C60115C0952D862D12C0972D882DAE
:102930000FC0992D8A2D0CC09B2D852F09C0962F75
:10294000872F06C0C80104C0C70102C099E18CEFFF
:10295000908381834CC0833009F5ABA1BCA18C91DD
:10296000BD898B1778F4489FC00111248558984F72
:10297000DC011A962D913C911B9780819181821BDD
:10298000930B04C080E090E02AE13CEF8D599F4F0B
:10299000873C910500F1442051F11DC0843091F431
:1029A000ABA1BCA18C91813019F4298D3A8D13C053
:1029B000811103C08B8D9C8D13C0AD8DBE8DB183F5
:1029C000A08315C0853079F4ABA1BCA18C91811195
:1029D00005C02F8D38A13183208309C089A19AA118
:1029E0009183808304C0813051F011821082208154
:1029F000318182819381820F931F918380833796E7
:102A0000ABA1BCA11796BCA3ABA3BDE0E335FB070C
:102A100009F06DCF80914A07863010F010920302C2
:102A20000E948F5B00916F071091700720917107D2
:102A300030917207DC01CB01801B910BA20BB30B11
:102A400080936F0790937007A0937107B0937207FC
:102A500080910C09882369F080916F07909170072D
:102A6000A0917107B09172070397A105B1050CF011
:102A7000DFC10E948F5B60936F0770937007809334
:102A80007107909372070E948F5B00916F071091FE
:102A900070072091710730917207DC01CB01801B18
:102AA000910BA20BB30B80936F0790937007A093C9
:102AB0007107B093720780910C09882369F08091A7
:102AC0006F0790917007A0917107B09172070397FB
:102AD000A105B1050CF0BDC10E948F5B60936F072B
:102AE0007093700780937107909372070E94A44DB2
:102AF0000E948F5B00916F07109170072091710702
:102B000030917207DC01CB01801B910BA20BB30B40
:102B100080936F0790937007A0937107B09372072B
:102B200080910C09882369F080916F07909170075C
:102B3000A0917107B09172070397A105B1050CF040
:102B400099C10E948F5B60936F07709370078093A9
:102B50007107909372070091DF0C2091A8083091C3
:102B6000A9084091AA085091AB08C090A408D09041
:102B7000A508E090A608F090A7081091AE08A4E67A
:102B8000B0E00E94B4A9A70196010E94C4A9812FB8
:102B900090E0A0E0B0E0281739074A075B0788F407
:102BA0008091DF0C9091E00CA091E10CB091E20CCF
:102BB00088608093DF0C9093E00CA093E10CB093BD
:102BC000E20C8091B00881115FC001FB222720F93F
:102BD00001FD4CC08091F50C882309F447C0809119
:102BE000A208EAE08E9FC00111244091F10C50919F
:102BF000F20C84179507D4F54091A00828E532E03F
:102C0000429FC001439F900D11249093D60C809356
:102C1000D50C8091DF0C9091E00CA091E10CB0916B
:102C2000E20C82608093DF0C9093E00CA093E10CA7
:102C3000B093E20C81E08093D80C84EE9EE00E9479
:102C400044598091A2081F928F938091F20C8F9328
:102C50008091F10C8F93809129111F928F93809115
:102C600028111F928F9381EA91E048C18091D80C7E
:102C7000811104C08091F50C81110DC18091DF0C90
:102C800082FF4EC11092D80C80918108882349F0B0
:102C900080919B06882329F08091D80C882309F421
:102CA0005AC10E948F5B00916F07109170072091AD
:102CB000710730917207DC01CB01801B910BA20BD5
:102CC000B30B80936F0790937007A0937107B09335
:102CD000720780910C09882369F080916F079091A9
:102CE0007007A0917107B09172070397A105B10514
:102CF0000CF034C10E948F5B60936F077093700774
:102D000080937107909372078091AF08813039F4F6
:102D1000809137062AE0829FC00111240AC0809169
:102D2000AF08833071F48091B1083AE0839FC0010D
:102D3000112411E02091E30C3091E40C281739079D
:102D400008F010E08091D70C90E0909336068093C5
:102D500035062091B0082111A8C120915907309162
:102D60008F08222319F030FD0AC102C031FD07C1CE
:102D70003091AF08333009F402C13091AF083430DC
:102D800009F093C1FCC06FEC74E084EE9EE00E94F9
:102D9000B75960916F07709170078091710790919A
:102DA00072070E94EE4929C96AEC74E084EE9EE045
:102DB0000E94B75960916F077091700780917107F9
:102DC000909172070E94EE49DBCA64EC74E084EED5
:102DD0009EE00E94B75960916F07709170078091D3
:102DE0007107909172070E94EE49E9CB6FEB74E096
:102DF00084EE9EE00E94B75960916F077091700752
:102E000080917107909172070E94EE49E6CC6AEBBF
:102E100074E084EE9EE00E94B75960916F07709154
:102E2000700780917107909172070E94EE4908CD5A
:102E300065EB74E084EE9EE00E94B75960916F07E5
:102E40007091700780917107909172070E94EE490E
:102E500010CE60EB74E084EE9EE00E94B759609162
:102E60006F077091700780917107909172070E94AF
:102E7000EE4932CE6BEA74E084EE9EE00E94B759D0
:102E800060916F0770917007809171079091720740
:102E90000E94EE4956CE8091A308FAE08F9FC001B0
:102EA00011244091F10C5091F20C841795070CF00D
:102EB000E5CE8091A1083AE0839FC0011124909350
:102EC000D60C8093D50C81E08093D80C84EE9EE0E4
:102ED0000E9444598091A3081F928F938091F20C15
:102EE0008F938091F10C8F93809129111F928F9372
:102EF000809128111F928F938AE791E09F938F937F
:102F000084EE9EE09F938F930E94FA3D84EE9EE0B4
:102F10000E9444590FB6F894DEBF0FBECDBFB4CEA9
:102F200021110EC08091AF08813051F49091D80CDE
:102F3000992331F02091D50C3091D60C232B41F000
:102F40008091D50C9091D60C892B09F49BCE81E011
:102F50008093D80C99CE0E94BC39A3CE66EA74E067
:102F600084EE9EE00E94B75960916F0770917007E0
:102F700080917107909172070E94EE49BBCE4091FB
:102F8000570750915807452B91F5892B81F1211155
:102F90000E9486388091920890919308892BD9F0ED
:102FA00020919208309193084AE0429FC001439FCC
:102FB000900D1124909334068093330681E090E0C5
:102FC0009093560780935507809154078093530739
:102FD00064E172E008C083E090E09093560780932C
:102FE00055076AE072E084EE9EE00E94DB59809112
:102FF000330690913406892B51F0809135069091DB
:103000003606181619061CF411110C945B218091D8
:10301000550790915607019741F48091330690919E
:103020003406892B11F40C94652180919B06811143
:103030000CC08091D80C882341F080913306909188
:103040003406892B11F40C947321809155079091CB
:103050005607049741F48091310690913206892BEE
:1030600011F40C9493218091310690913206892BB2
:1030700071F080919E0890919F08209135063091C3
:103080003606820F931F9093360680933506809103
:103090005307882311F40C9402228091AF088430E6
:1030A00011F00C94A1210C940222892B39F083E0B9
:1030B00090E0909356078093550704C010925607EE
:1030C000109255078091350690913606009751F081
:1030D00020918D08820F911D27FD9A9590933606B9
:1030E00080933506809135069091360697FF04C08F
:1030F000109236061092350680913506909136066C
:103100008536910534F084E690E0909336068093FE
:1031100035068091DF0C81FF02C00C943C22809127
:10312000DF0C82FF02C00C943C2280913506909106
:1031300036060E94AB38809135060E945752809126
:103140003506909136061816190624F4809102016E
:103150008F7D03C080910201806280930201809183
:10316000D70C90E090935807809357070E948F5B8D
:1031700000916F07109170072091710730917207CD
:10318000DC01CB01801B910BA20BB30B80936F076B
:1031900090937007A0937107B093720780910C0908
:1031A000882371F080916F0790917007A09171074B
:1031B000B09172070397A105B10514F00C94422257
:1031C0000E948F5B60936F07709370078093710705
:1031D000909372078091E70C882311F40C94542289
:1031E0004091E30C5091E40C2091B4086AE0269FD2
:1031F0009001112491E0241735070CF090E0209104
:10320000B308AAE02A9F900111242417350714F06F
:103210000C9455228091DF0C9091E00CA091E10C70
:10322000B091E20C84608093DF0C9093E00CA0934B
:10323000E10CB093E20C81E08093DE0C8093DD0C16
:103240008093DC0C0E948F5B00916F0710917007D8
:103250002091710730917207DC01CB01801B910B2B
:10326000A20BB30B80936F0790937007A093710725
:10327000B093720780910C09882371F080916F07D9
:1032800090917007A0917107B09172070397A10503
:10329000B10514F00C94D12380911C02882329F0ED
:1032A00080911B02882309F4CEC10E948F5B60933A
:1032B0006F077093700780937107909372078091E6
:1032C000DF0C82FF06C081E08093DA0C1092D90CEB
:1032D00090C180910F02909110028230910509F007
:1032E0006AC1809145068823B1F081E08093D90CB2
:1032F00080910D0290910E029093440680934306B4
:1033000081E090E09093100280930F0210925E078C
:1033100010925D076EC18091C5088F3F09F469C1A5
:10332000E091C50837E0E302F0011124ED51F34FBD
:103330008481882309F45DC18091E70C882309F416
:1033400058C180914106909142068230910529F43E
:103350002091FC0C222309F44CC12091DE0C222385
:1033600009F447C14091E30C5091E40C20913902DB
:1033700030913A022417350708F03BC1009143060B
:10338000109144060115110509F033C1029709F0A7
:1033900078C0A090F80CB090F90CC09004024AE0FC
:1033A000C49E6001112455ED852E52E0952EC50175
:1033B0000B2C000CAA0BBB0B8D8B9E8BAF8BB88F8D
:1033C000D4018D914D010F5F1F4FBAE08B02200198
:1033D0001124A414B5040CF441C0D401EC91BAE05A
:1033E000EB02F0011124EA15FB05C4F1D801AC5F32
:1033F000BD4F6C911197CC902AE0C29E60011124C0
:103400000D2C000CEE08FF08052C000C6608770850
:103410002D893E894F89588D241935094609570948
:103420008AE0689FB0011124CB01770FAA0BBB0B78
:10343000BC01CD016C197D098E099F090E9468A10C
:103440009F01FF0F440B550B2419350946095709F5
:103450000E9498A9C20ED31EE41EF51E0530110568
:1034600009F0AECF97E9A916B10434F0C090090273
:10347000AAE0CA9E60011124D0923A02C092390299
:103480000AC08091C808BAE08B9FC00111249093B4
:103490003A0280933902319904C081E0809340065A
:1034A00011C0109240062091C60880913902909177
:1034B0003A02EAE02E9F80199109112490933A0272
:1034C0008093390280910C09882369F0809140062D
:1034D000882319F06EE972E002C06CE872E084EEB5
:1034E0009EE00E94DB59E091C50827E0E202F0016E
:1034F0001124ED51F34F0081118120913902309157
:103500003A027901E01AF10AC701F7FE04C08827E0
:1035100099278E199F094091C70850E08417950795
:103520000CF43EC02017310720F421E02093D90C81
:1035300006C00217130748F521E02093DA0C20910A
:103540000A0230E0309344062093430621E030E045
:103550003093100220930F028A309105B4F4209129
:1035600043063091440636952795309344062093C0
:103570004306059754F4809143069091440696952E
:103580008795909344068093430680910C0981119E
:103590000C94E3238091670781110C94E32329C0E5
:1035A00080910C0981110C9421248091670781116D
:1035B0000C94212410C00197E1F48091430690916E
:1035C0004406892BB1F41092DA0C1092D90C809138
:1035D000450681110EC080910B0290910C029093D0
:1035E00044068093430682E090E09093100280931B
:1035F0000F020E948F5B00916F071091700720915E
:10360000710730917207DC01CB01801B910BA20B7B
:10361000B30B80936F0790937007A0937107B093DB
:10362000720780910C09882371F080916F07909147
:103630007007A0917107B09172070397A105B105BA
:1036400014F00C944E24E0917908F0917A08F894E3
:10365000248135818085823021F4C90181709927C8
:1036600005C0843031F4C901837099279583848320
:1036700002C01582148278948085843029F43595AF
:1036800027953595279504C0823011F435952795F7
:103690008685882329F081859285892F992702C004
:1036A00080E090E037FF03C08095909506C0232B03
:1036B00011F0019602C080E090E08093530D2091BC
:1036C0006D0730916E07A901480F511D87FD5A956E
:1036D00050936E0740936D0720916B0730916C07F4
:1036E0004217530781F150936C0740936B0764EFC7
:1036F00073E084EE9EE00E94B55960916D07709171
:103700006E0784EE9EE00E9490486AEF73E084EEBC
:103710009EE00E94B5596091540D062E000C770B67
:1037200084EE9EE00E94904862E074E084EE9EE0A9
:103730000E94B5596091530D062E000C770B84EE54
:103740009EE00E947B488091550D80936A07E0912E
:103750007908F0917A088385948523853485233010
:10376000310511F014861386982F8093550D8091A2
:1037700069078823F1F19923E1F167E074E084EEB1
:103780009EE00E94B5598091550D843081F038F447
:10379000823051F0833069F566E274E026C08530EE
:1037A00049F0863051F025C060E174E01EC069E345
:1037B00074E01BC060E574E018C066E674E084EE57
:1037C0009EE00E94485962E874E084EE9EE00E9408
:1037D000B559E0917908F0917A088685811103C086
:1037E0006BEE73E002C063EE73E084EE9EE00E9435
:1037F000485980918C08882309F44AC00E948F5B45
:1038000060936F07709370078093710790937207AE
:1038100080918C08882391F080913B02882311F4D9
:103820000C9460248091530D81110C94602490912C
:103830006A078091550D98130C9460240E948F5B49
:1038400000916F07109170072091710730917207F6
:10385000DC01CB01801B910BA20BB30B80936F0794
:1038600090937007A0937107B093720780910C0931
:10387000882371F080916F0790917007A091710774
:10388000B09172070397A105B10514F00C9464245C
:10389000109246068091DF0C9091E00CA091E10C13
:1038A000B091E20C892B8A2B8B2B31F08091DF0CAD
:1038B00087FD02C00C947624469A8091D80C811121
:1038C00005C0129A809108018B7F04C012988091E4
:1038D00008018460809308018091DE0C811105C08D
:1038E000139A809108018D7F04C01398809108017C
:1038F0008260809308018091DD0C811105C0149ACB
:10390000809108018F7704C0149880910801806825
:10391000809308018091DC0C811105C0159A80917B
:1039200008018F7B04C01598809108018064809302
:1039300008018091DB0C811105C0169A8091080165
:103940008E7F04C0169880910801816080930801E1
:103950008091D90C811105C0179A809108018F7E42
:1039600004C01798809108018061809308018091BC
:10397000DA0C811105C0479A80910801877F04C045
:1039800047988091080188608093080180918008A1
:10399000882309F453C080917D0881114FC00E9493
:1039A0008F5B60936F07709370078093710790939C
:1039B00072070E94949B8091170290911802A09127
:1039C0001902B0911A02892B8A2B8B2B71F40E9459
:1039D000D34B80E09FE2ADE0B0E08093170290937C
:1039E0001802A0931902B0931A020E948F5B0091F3
:1039F0006F07109170072091710730917207DC01F9
:103A0000CB01801B910BA20BB30B80936F0790939C
:103A10007007A0937107B093720780910C098823F7
:103A200069F080916F0790917007A0917107B09134
:103A300072070397A105B1050CF05FC78091C70617
:103A40008823D9F067E874E084EE9EE00E94B759BD
:103A50009EE088E10FB6F894A895809360000FBEB1
:103A6000909360008EE290E00E94264A68EC70E03D
:103A700080E090E00E94575BF5CF84EE9EE00E94CC
:103A80008A55892B09F4B1C184EE9EE00E946855E5
:103A900090916807833769F19923E9F18A3011F031
:103AA0000C94082661E874E084EE9EE00E94B75909
:103AB0008BE091E10E94B6526FE774E084EE9EE0E5
:103AC0000E94DB596BE071E1CE0101960E948A5899
:103AD000CE0101960E946C26CE0101960E944F589D
:103AE00067ED74E08BE091E10E943A58109268070C
:103AF0007CC1992331F0682F8BE091E10E94EB5754
:103B000074C181E08093680767ED74E08BE091E118
:103B10000E943A586AC1823521F481E08093C70639
:103B200064C1823719F40E9458805FC1843729F537
:103B300084EE9EE00E9444596BE774E084EE9EE0C0
:103B40000E94B75900E010E0D1016D917C9184EEA4
:103B50009EE00E9490480F5F1F4F0031110551F009
:103B600069E774E084EE9EE00E94B75957E0250EA5
:103B7000311CEACF67E774E097C0863541F4909135
:103B80000C0981E0911180E080930C092EC18133F2
:103B900039F49091670781E089278093670725C1F1
:103BA000823339F49091690781E08927809369070E
:103BB0001CC1833339F49091660781E08927809393
:103BC000660713C1843339F49091650781E0892732
:103BD000809365070AC1853341F46091640781E0F1
:103BE00068276093640770E0FCC0863339F49091D5
:103BF000630781E0892780936307F7C0873339F42F
:103C00009091620781E0892780936207EEC0863633
:103C100019F46CE674E0DEC0813249F41092DF0CD6
:103C20001092E00C1092E10C1092E20CDEC084368F
:103C300019F40E945F3CD9C08136D9F58091DF0C20
:103C40009091E00CA091E10CB091E20C892B8A2BB1
:103C50008B2B31F462E674E084EE9EE00E94DB5927
:103C60008091DF0C82FF06C063E574E084EE9EE085
:103C70000E94DB598091DF0C81FF06C060E474E094
:103C800084EE9EE00E94DB598091DF0C83FF06C02A
:103C900069E274E084EE9EE00E94DB598091DF0CC3
:103CA00087FFA3C06DE074E084EE9EE00E94DB59C4
:103CB0009CC0883609F07BC06EEB72E084EE9EE01B
:103CC0000E94DB5900E010E0FCE08F2E67EB72E011
:103CD00084EE9EE00E94B75938010F5F1F4FB80174
:103CE00084EE9EE00E949048FF24F394A12CB12C16
:103CF000869C6001879CD00C112499249A949F0C77
:103D00008F2D81958770E82E892D8370D1F460E224
:103D100084EE9EE00E946B59B9E0BB1528F060E28A
:103D200084EE9EE00E946B594AE050E06B2D84EED9
:103D30009EE00E94655960E284EE9EE00E946B590D
:103D4000B394F601EA0DF11DE95BF94F808190E033
:103D50000E2C02C0959587950A94E2F780FF02C069
:103D600063E201C06FE584EE9EE00E946B59EFE2D2
:103D70009E120EC084EE9EE00E9444596FEA72E0EB
:103D800084EE9EE00E94B759EE2021F0F394B5CF67
:103D9000E11001C0A394F0E6FF12F8CF84EE9EE09C
:103DA0000E9444590730110509F090CF1EC08E348F
:103DB000E1F462E074E084EE9EE00E94B7590E9454
:103DC0001F65BC0184EE9EE00E947B480E94D34B9D
:103DD00067EF73E084EE9EE00E94B7590E941F6572
:103DE000BC0184EE9EE00E947B4880910C098823F0
:103DF00089F180911C02882369F180911B02811155
:103E000029C080916107882329F162ED73E084EE77
:103E10009EE00E94B7594AE050E06091610784EE4D
:103E20009EE00E9465596AEC73E084EE9EE00E9479
:103E3000B7594091C5065091C60660E070E02AE08F
:103E400084EE9EE00E94FB5884EE9EE00E9444595E
:103E50001092610780910C098823E9F0809153103A
:103E600090915410A0915510B09156108C3A9642F2
:103E7000A105B10584F463EA73E084EE9EE00E943C
:103E8000B7596091531070915410809155109091D2
:103E900056100E94EE49809116028111A6C08091B1
:103EA0008108882309F4A1C088EC8093160288E673
:103EB0000E94C94B60E081E090E10E942C710E9459
:103EC0006C4B87E090E00E940E5281E090E10E94EE
:103ED000E1708F77982F92959F701AEFD82E919F4F
:103EE000D00C112481E090E10E94E1709C01332705
:103EF00094E0359527959A95E1F7E82E129FE00C0E
:103F0000112481E090E10E94E17086FF07C5982F9F
:103F10009F71292F22952F70F92E219FF00C1124CB
:103F200085FF02C03CE0F30E81E090E10E94E17069
:103F300081E090E10E94E1709C01332744E03595D7
:103F400027954A95E1F75AEFC52E182FC29E100DFE
:103F5000112481E090E10E94E1709C01332764E02C
:103F6000359527956A95E1F7082FC29E000D11241B
:103F700081E090E10E94E1709C01332774E0359567
:103F800027957A95E1F7C29E800D11248093251123
:103F90000093261110932711F0922811E092291115
:103FA000D0922A1180910C098823E9F085E291E1F1
:103FB0000E94697A1F92EF921F92FF921F928F9335
:103FC00083E993E09F938F9384EE9EE09F938F937A
:103FD0000E94FA3D84EE9EE00E9444590FB6F89488
:103FE000DEBF0FBECDBF0E94049A8091C406882315
:103FF00009F494C01092C40680911502882351F0F0
:104000008091C306882309F495C48091C306873C38
:1040100008F4A2C480910C09882309F467C0809138
:10402000C206882309F462C080911A11898388230B
:1040300029F161E673E084EE9EE00E94B759898120
:1040400080FF06C06DE573E084EE9EE00E94B759E4
:10405000898181FF06C068E573E084EE9EE00E94DE
:10406000B759898182FF06C063E573E084EE9EE064
:104070000E94B75984EE9EE00E944459809111112C
:1040800090911211A0911311B09114112091C106B9
:104090002F932091C0062F932091BF062F9320913C
:1040A000BE062F93AC01BD0124E176956795579527
:1040B00047952A95D1F77F936F935F934F93BF9363
:1040C000AF939F938F9389E393E09F938F9384EEB5
:1040D0009EE09F938F930E94FA3D84EE9EE00E94A3
:1040E00044590FB6F894DEBF0FBECDBF80910C09C6
:1040F00081114BC480916607811147C48091650787
:10410000882361F067E073E084EE9EE00E94B75977
:104110006091C30684EE9EE00E94954880919B06C4
:1041200081118091D80C80919B06811104C08091EF
:10413000D80C811183C48091A8069091A906209182
:104140001102309112022817390709F45CC09093CC
:104150001202809311022091BC063091BD0680911D
:104160001302909114028217930738F08091BC06D5
:104170009091BD06892B09F06CC42091BC0630914A
:10418000BD0680915F07909160072817390740F0BE
:104190008091BC069091BD069093600780935F0765
:1041A00080916407882379F160915F0770916007BF
:1041B00040911302509114022091BC063091BD062B
:1041C0008091110290911202E091D80C7F936F932D
:1041D0005F934F933F932F939F938F931F92EF93F0
:1041E00086ED92E09F938F9384EE9EE09F938F9352
:1041F0000E94FA3D84EE9EE00E9444590FB6F89466
:10420000DEBF0FBECDBF0E948F5B00917307109180
:1042100074072091750730917607DC01CB01801B74
:10422000910BA20BB30B8093730790937407A09329
:104230007507B093760780910C09811104C08091B5
:104240006307882369F08091730790917407A091A8
:104250007507B09176070397A105B1050CF002C46C
:1042600080916207882309F41EC51092620720918D
:10427000BC063091BD068091A8069091A906409198
:10428000D80C3F932F939F938F931F924F9380EF60
:1042900092E09F938F9384EE9EE09F938F930E9472
:1042A000FA3D84EE9EE00E9444590FB6F894DEBFBA
:1042B0000FBECDBFF8C480919A0890919B0890934F
:1042C0003606809335060C94071883E090E09093AF
:1042D0005607809355076FEF71E084EE9EE00E94D1
:1042E000DB590C94151820919608309197084AE0F4
:1042F000429FC001439F900D1124909332068093FA
:10430000310684E090E090935607809355078091A2
:1043100054078093530766EF71E084EE9EE00E949D
:10432000DB590C94251883E090E090935607809316
:1043300055076CEE71E084EE9EE00E94DB590C9410
:104340003318809157079091580718161906F4F4FE
:104350008091D70C81111AC020919008309191085A
:104360004AE0429FC001439F900D11249093300674
:1043700080932F0685E090E0909356078093550731
:1043800063EE71E084EE9EE00E94DB5980912F067F
:1043900090913006892B29F08091D70C882309F45D
:1043A00045C080912F0690913006892B59F4809159
:1043B000550790915607059729F48091D70C8823CB
:1043C00009F43DC08091550790915607069711F06A
:1043D0000C9462188091D70C81110C946218111101
:1043E0003BC080919C0890919D08892BA9F18091F8
:1043F0009C0890919D08909336068093350663ED56
:1044000071E034C08091550790915607039711F0E1
:104410000C9462188091D70C81110C946218109240
:1044200056071092550765EC71E020C080919808FE
:10443000909199089093360680933506B2CF86E026
:1044400090E090935607809355076AED71E084EEF3
:104450009EE00E94DB59B6CF1092360610923506C8
:1044600010925607109255076CEC71E084EE9EE0B6
:104470000E94DB590C946218109236061092350691
:104480000C94951861EA74E084EE9EE00E94B7599E
:1044900060916F077091700780917107909172071A
:1044A0000E94EE490C94E01890E02091DF0C22FF6E
:1044B0000FC0882369F02091B308BAE02B9F9001C8
:1044C00011244091E30C5091E40C4217530764F11E
:1044D0002091B00821110C942219882369F02091B1
:1044E000B408EAE02E9F900111244091E30C509112
:1044F000E40C4217530754F12091B508213021F004
:104500002091B908213051F520911C02222331F16C
:104510001092DE0C1092DD0C1092DC0C10923F0613
:1045200010923E060C9422194091DF0C5091E00C41
:104530006091E10C7091E20C4B7F4093DF0C509343
:10454000E00C6093E10C7093E20CD6CF1092DE0C7D
:104550001092DD0C1092DC0C0C9422192091B908F9
:10456000243019F40E94C5373AC02091B90821308F
:1045700029F480913D068093DD0C31C06091BA082A
:10458000613009F088C020910A0D222309F483C00C
:104590004091BC082091060D3091070D442311F085
:1045A00081117CC08091BC08882309F48EC04091A1
:1045B0005B0750915C074230510509F086C040917D
:1045C000BC086AE0469FA0011124241735070CF0AF
:1045D0007CC01092DD0C10925C0710925B078091FA
:1045E000BE0820910A0D833099F4222389F080912E
:1045F000C0085AE0859FC00111244091060D5091DA
:10460000070D481759070CF493C081E08093DC0C28
:104610008091B508813019F480915A0715C08091B6
:10462000B508823009F097C08091E70C81110FC066
:1046300092C08091B708FAE08F9FC0011124909337
:104640003C0680933B0681E08093DE0C12C0109202
:1046500045068091B6088130B9F38091B608823062
:1046600009F07CC080913B0690913C06892B09F4AF
:1046700062C0222309F483C08091C4082AE0829F8B
:10468000C00111242091060D3091070D281739071C
:104690000CF067C074C01092DD0CA1CF4091BC0833
:1046A000FAE04F9FA0011124241735070CF47ACFAC
:1046B0004091E30C5091E40C421753070CF072CF79
:1046C0006093DD0C82E090E01CC04091E30C5091BF
:1046D000E40C421753070CF47CCF9923B9F0809176
:1046E000BB084091BD08AAE08A9FC0011124841B29
:1046F00091092817390754F481E08093DD0C81E09B
:1047000090E090935C0780935B0769CF80915B0793
:1047100090915C07019709F062CF8091BB08BAE0E5
:104720008B9FC0011124821793070CF452CF57CFEF
:104730001092DC0C6DCF8091DE0C882309F479CFC8
:104740008091B808EAE08E9FC001112490933C0646
:1047500080933B0603C081E0809345061092DE0CF7
:1047600088CF80913A0680FF0AC08091C1088130CD
:1047700009F454C28091C108823009F45EC280916C
:10478000DB0C882331F06DE172E084EE9EE00E9444
:10479000DB591092DB0C10923906109238060C94FB
:1047A00022196CE974E084EE9EE00E94B759609192
:1047B0006F077091700780917107909172070E9446
:1047C000EE490C944C1967E772E084EE9EE00E947B
:1047D000B759B70184EE9EE00E94904860E772E00E
:1047E00084EE9EE00E94B7594091430650914406E2
:1047F00060E070E02AE084EE9EE00E94FB5867E6ED
:1048000072E084EE9EE00E94B759409139025091C7
:104810003A0260E070E02AE084EE9EE00E94FB58DD
:1048200061E672E084EE9EE00E94B759B80184EE22
:104830009EE00E94904884EE9EE00E9444590C94B1
:10484000F91A6CE472E084EE9EE00E94B759B70159
:1048500084EE9EE00E94904863E472E084EE9EE065
:104860000E94B7594091390250913A0260E070E0DD
:104870002AE084EE9EE00E94FB586DE372E084EE35
:104880009EE00E94B759B80184EE9EE00E949048D5
:1048900084EE9EE00E9444590C94EB1A67E974E0A0
:1048A00084EE9EE00E94B75960916F077091700787
:1048B00080917107909172070E94EE490C94231B1E
:1048C0000E949B5B0C941E1C62E974E084EE9EE0E7
:1048D0000E94B75960916F077091700780917107BE
:1048E000909172070E94EE490C94481C369902C0C0
:1048F0000C945C1C46980C945D1C6DE874E084EE8E
:104900009EE00E94B75960916F0770917007809187
:104910007107909172070E94EE4990C89C0133275D
:10492000E4E035952795EA95E1F7F82E129FF00C13
:104930001124FACA8091DF0C9091E00CA091E10C57
:10494000B091E20C80688093DF0C9093E00CA09310
:10495000E10CB093E20C5ECB8091C3061F928F9363
:104960008BE693E09F938F9384EE9EE09F938F93CB
:104970000E94FA3D84EE9EE00E9444590F900F90F1
:104980000F900F900F900F9045CBE0915710F09142
:1049900058108091531090915410A0915510B091DF
:1049A0005610C0904F10D0905010E0905110F090E1
:1049B000521000914F1010915010209151103091D1
:1049C00052104091531050915410609155107091B5
:1049D0005610FF93EF938C199D09AE09BF09BF9341
:1049E000AF939F938F933F932F931F930F937F9337
:1049F0006F935F934F938CE193E09F938F9304EEBB
:104A00001EE01F930F930E94FA3D9091C306809180
:104A10004A101F929F931F928F938BE093E09F9376
:104A20008F931F930F930E94FA3DC8010E9444592F
:104A30000FB6F894DEBF0FBECDBF60CB10926007FB
:104A400010925F0780E094E0909314028093130229
:104A500072CB8091BC069091BD0690931402809316
:104A600013028BCB8091730790917407A091750707
:104A7000B0917607BF93AF939F938F938DEF92E0A2
:104A80009F938F9384EE9EE09F938F930E94FA3DB5
:104A900084EE9EE00E9444590FB6F894DEBF0FBE2C
:104AA000CDBFDECB10921C02E091DE06F0E0FE2FBF
:104AB000EE278091DD06E82BF0932206E093210695
:104AC0006091E00670E0762F66278091DF06682B04
:104AD00070931E0660931D068091E20690E0982F69
:104AE00088272091E106822B90931C0680931B0659
:104AF0004091E40650E0542F44278091E306482B70
:104B00005093200640931F068091E60690E0982F70
:104B100088272091E506822B90931806809317062C
:104B20008091E80690E0982F88272091E706822B55
:104B300090931A06809319062091EA0630E0322FEE
:104B400022278091E906282B30931606209315061C
:104B50008091EC0690E0982F8827A091EB068A2B95
:104B60009093240680932306A091ED06A09325063A
:104B7000B091F406B0932B06A1FBBB27B0F9B0931C
:104B80002906B0910A07B0932C06B170B0932D0698
:104B9000F093CC06E093CB06709309066093080669
:104BA00050930706409306063093CA062093C90621
:104BB00090930506809304068091F2068093370651
:104BC0008091F3068093C80681E090912007913090
:104BD00009F080E080934506A2FB882780F9809346
:104BE0005A07A3FBAA27A0F9A0933D0681E0909164
:104BF000EF06913009F080E08093590781E09091B1
:104C0000EE06913009F080E0809354070C949311E4
:104C10008D3011F00C947B1D0C94521D8091DB0C97
:104C2000811106C065E372E084EE9EE00E94DB59CC
:104C300081E08093DB0C0C942219809138069091CE
:104C40003906892B11F00C9422198091DB0C81110B
:104C500013C04091C20828E532E0429FC001439F43
:104C6000900D1124909339068093380681E080934B
:104C7000DB0C6EE272E011C04091C30828E532E01F
:104C8000429FC001439F900D112490933906809359
:104C900038061092DB0C66E272E084EE9EE00E9421
:104CA000DB590C942219A4960FB6F894DEBF0FBE00
:104CB000CDBFDF91CF911F910F91FF90EF90DF90CB
:104CC000CF90BF90AF909F908F907F906F905F90AC
:104CD0004F903F902F9008958F929F92AF92BF92E6
:104CE000DF92EF92FF920F931F93CF93DF93CDB795
:104CF000DEB768970FB6F894DEBF0FBECDBF8C014C
:104D000040E050E06DE30E9437577C01D8011496D3
:104D10008D919C9115971816190614F00C94513723
:104D2000BFEFEB16FB0611F40C945137A7014F5F50
:104D30005F4FB801CE010D960E94463ECE010D9602
:104D40000E94D8566BEE7DE0CE0101960E94545829
:104D5000BE016F5F7F4FC8010E946557D82ECE01FC
:104D600001960E944F58DD2009F458C0970142E097
:104D700050E0B801CE0101960E94B758BE016F5FA6
:104D80007F4FC8010E94B957CE0101960E944F582B
:104D9000CE010D960E94CD564B015C01C8010E94C8
:104DA000FE398F3F11F40C944D37E7E08E02C001BD
:104DB00011249C012D51334F7901D90114968C9106
:104DC000813011F00C944D3767EE7DE084EE9EE06B
:104DD0000E94B759C8010E94B65265EE7DE084EE8C
:104DE0009EE00E94B759F7016081718184EE9EE0D8
:104DF0000E94904862EE7DE084EE9EE00E94B759EA
:104E0000B40184EE9EE00E94904884EE9EE00E94F1
:104E10004459D7018D929C920C944D376AED7DE0F8
:104E2000CE0101960E945458BE016F5F7F4FC801AA
:104E30000E946557D82ECE0101960E944F58DD2062
:104E400049F1970147E050E0B801CE0101960E9478
:104E5000B758BE016F5F7F4FC8010E94B957CE019E
:104E600001960E944F58CE010D960E94CD564B01DF
:104E70005C01C8010E94FE398F3F11F40C944D373C
:104E8000B7E08B02F0011124ED51F34F938282823F
:104E90000C944D3762ED7DE0CE0101960E9454588E
:104EA000BE016F5F7F4FC8010E946557D82ECE01AB
:104EB00001960E944F58DD2009F44AC089899A89D9
:104EC0000C9711F00C944D37E12CF12CD12C0E2DB8
:104ED000B701CE010D960E945357FC0180810E94BC
:104EE000653B8F3F89F1182F1295107FB7016F5FD7
:104EF0007F4FCE010D960E945357DC018C910E948A
:104F0000653B8F3F09F10695E1E0F0E0EC0FFD1FF6
:104F1000E00FF11D810F8083BAE0EB16F10411F46C
:104F2000DD24D394E2E0EE0EF11CFCE0EF16F10478
:104F300071F6DD2049F086E0FE013196A3E3B2E090
:104F400001900D928A95E1F70E94E9390C944D3752
:104F50006BEC7DE0CE0101960E945458BE016F5F5C
:104F60007F4FC8010E946557B82ECE0101960E945E
:104F70004F58BB2009F45EC08FEB93E09A8389837E
:104F80001B821C821D821E82BE01635F7F4FCE0189
:104F900001960E94C33D882329F08B819C81AD81BD
:104FA000BE813AC066EC7DE0CE0107960E9454585F
:104FB00089899A892B853C8582179307F9F4892B77
:104FC000D9F00D851E85EF80F884F80181918F015D
:104FD000882391F0082E000C990B0E9463A35C01BA
:104FE000D7018D917D01082E000C990B0E9463A3BF
:104FF000A816B90651F302C0DD24D394CE0107965A
:105000000E944F58DD2081F08091571190915811E6
:10501000A0915911B0915A118093071190930811E2
:10502000A0930911B0930A1185E091E10E94A25268
:105030000C944D376CEB7DE0CE0101960E945458E4
:10504000BE016F5F7F4FC8010E946557D82ECE0109
:1050500001960E944F58DD2049F18FEB93E09A832F
:1050600089831B821C821D821E82BE01635F7F4F6B
:10507000CE0101960E94C33D882391F08B819C81D3
:10508000AD81BE818093011190930211A093031111
:10509000B0930411CE0101960E94A2520C944D3798
:1050A000CE0101960E94A2520C944D3762EB7DE036
:1050B000CE0101960E945458BE016F5F7F4FC80118
:1050C0000E946557D82ECE0101960E944F58DD20D0
:1050D00049F18FEB93E09A8389831B821C821D82A6
:1050E0001E82BE01635F7F4FCE0101960E94C33DC9
:1050F000882391F08B819C81AD81BE818093FB10D0
:105100009093FC10A093FD10B093FE10CE01019679
:105110000E94A2520C944D37CE0101960E94A252D9
:105120000C944D376AEA7DE0CE0101960E945458F6
:10513000BE016F5F7F4FC8010E946557D82ECE0118
:1051400001960E944F58DD2049F18FEB93E09A833E
:1051500089831B821C821D821E82BE01635F7F4F7A
:10516000CE0101960E94C33D882391F08B819C81E2
:10517000AD81BE818093F5109093F610A093F71047
:10518000B093F810CE0101960E94A2520C944D37B4
:10519000CE0101960E94A2520C944D3766E97DE043
:1051A000CE0101960E945458BE016F5F7F4FC80127
:1051B0000E946557D82ECE0101960E944F58D110FB
:1051C0000C944D376CE87DE0CE0101960E94545856
:1051D000BE016F5F7F4FC8010E946557D82ECE0178
:1051E00001960E944F58DD2041F0CE010D960E949D
:1051F000CD5660938D080C944D376CE77DE0CE0161
:1052000001960E945458BE016F5F7F4FC8010E94F3
:105210006557D82ECE0101960E944F58DD2041F0EF
:10522000CE010D960E94CD5660938E080C944D379A
:105230006FE67DE0CE0101960E945458BE016F5F7B
:105240007F4FC8010E946557D82ECE0101960E945B
:105250004F58DD2041F0CE010D960E94CD5660934F
:105260008F080C944D376DE57DE0CE0101960E94CC
:105270005458BE016F5F7F4FC8010E946557D82EFA
:10528000CE0101960E944F58DD2051F0CE010D96BF
:105290000E94CD5670939108609390080C944D37FE
:1052A0006CE47DE0CE0101960E945458BE016F5F10
:1052B0007F4FC8010E946557D82ECE0101960E94EB
:1052C0004F58DD2051F0CE010D960E94CD567093BF
:1052D0009908609398080C944D3760E47DE0CE0106
:1052E00001960E945458BE016F5F7F4FC8010E9413
:1052F0006557D82ECE0101960E944F58DD2051F0FF
:10530000CE010D960E94CD56709395086093940837
:105310000C944D3765E37DE0CE0101960E94545810
:10532000BE016F5F7F4FC8010E946557D82ECE0126
:1053300001960E944F58DD2051F0CE010D960E943B
:10534000CD5670939D0860939C080C944D3765E290
:105350007DE0CE0101960E945458BE016F5F7F4FE1
:10536000C8010E946557D82ECE0101960E944F5861
:10537000DD2051F0CE010D960E94CD56709393081A
:10538000609392080C944D3766E17DE0CE01019662
:105390000E945458BE016F5F7F4FC8010E9465573D
:1053A000D82ECE0101960E944F58DD2051F0CE013B
:1053B0000D960E94CD5670939B0860939A080C94AA
:1053C0004D3769E07DE0CE0101960E945458BE0140
:1053D0006F5F7F4FC8010E946557D82ECE0101969E
:1053E0000E944F58DD2051F0CE010D960E94CD56FF
:1053F00070939708609396080C944D376DEF7CE09E
:10540000CE0101960E945458BE016F5F7F4FC801C4
:105410000E946557D82ECE0101960E944F58DD207C
:1054200051F0CE010D960E94CD5670939F08609367
:105430009E080C944D3763EE7CE0CE0101960E94ED
:105440005458BE016F5F7F4FC8010E946557D82E28
:10545000CE0101960E944F58DD2099F0CE010D96A5
:105460000E94CD566F3F710509F02CF416161706F1
:1054700024F00C944D376FEF70E06093A1080C940A
:105480004D3761ED7CE0CE0101960E945458BE017B
:105490006F5F7F4FC8010E946557D82ECE010196DD
:1054A0000E944F58DD2081F0CE010D960E94CD560E
:1054B0009B01215031092A35310510F00C944D37EC
:1054C0006093A3080C944D376BEB7CE0CE01019602
:1054D0000E945458BE016F5F7F4FC8010E946557FC
:1054E000D82ECE0101960E944F58DD2081F0CE01CA
:1054F0000D960E94CD569B0121503109233631056E
:1055000010F00C944D376093A0080C944D376CEA62
:105510007CE0CE0101960E945458BE016F5F7F4F20
:10552000C8010E946557D82ECE0101960E944F589F
:10553000DD2081F0CE010D960E94CD569B012150B9
:1055400031092A35310510F00C944D376093A208CB
:105550000C944D376FE87CE0CE0101960E945458C0
:10556000BE016F5F7F4FC8010E946557D82ECE01E4
:1055700001960E944F58DD20A9F0CE010D960E94A1
:10558000CD56611571058105910511F40C944D37C7
:105590006093A4087093A5088093A6089093A70829
:1055A0000C944D3767E77CE0CE0101960E94545879
:1055B000BE016F5F7F4FC8010E946557D82ECE0194
:1055C00001960E944F58DD2081F0CE010D960E9479
:1055D000CD566093A8087093A9088093AA08909369
:1055E000AB080E94BC390C944D376BE57CE0CE01D2
:1055F00001960E945458BE016F5F7F4FC8010E9400
:105600006557D82ECE0101960E944F58DD2079F0C3
:10561000CE010D960E94CD566115710511F40C94C2
:105620004D377093AD086093AC080C944D3768E427
:105630007CE0CE0101960E945458BE016F5F7F4FFF
:10564000C8010E946557D82ECE0101960E944F587E
:10565000DD2041F0CE010D960E94CD566093AE083C
:105660000C944D376DE37CE0CE0101960E945458B6
:10567000BE016F5F7F4FC8010E946557D82ECE01D3
:1056800001960E944F58DD2081F0CE010D960E94B8
:10569000CD569B01215031092336310510F00C9471
:1056A0004D376093B4080C944D3762E37CE0CE0133
:1056B00001960E945458BE016F5F7F4FC8010E943F
:1056C0006557D82ECE0101960E944F58DD2081F0FB
:1056D000CE010D960E94CD569B01215031092336F3
:1056E000310510F00C944D376093B3080C944D378E
:1056F00066E27CE0CE0101960E945458BE016F5FC5
:105700007F4FC8010E946557D82ECE0101960E9496
:105710004F58DD2081F0CE010D960E94CD569B01A1
:10572000215031092336310510F00C944D37609328
:10573000B1080C944D3767E17CE0CE0101960E94E0
:105740005458BE016F5F7F4FC8010E946557D82E25
:10575000CE0101960E944F58DD2081F0CE010D96BA
:105760000E94CD569B01215031092336310510F09E
:105770000C944D376093B2080C944D3769E07CE08F
:10578000CE0101960E945458BE016F5F7F4FC80141
:105790000E946557D82ECE0101960E944F58DD20F9
:1057A00009F480C0BE01635F7F4FCE0143960E9423
:1057B0008A5860EB74E0CE0101960E94A358BE01A6
:1057C0006F5F7F4FCE0143960E946557811116C0CF
:1057D00066EB74E0CE0107960E94A358BE01695F94
:1057E0007F4FCE0143960E94655711E0811101C0A1
:1057F00010E0CE0107960E944F5801C011E0CE0183
:1058000001960E944F58112321F010921B0211E0C3
:1058100041C06CEB74E0CE0101960E94A358BE011A
:105820006F5F7F4FCE0143960E946557182FCE01C0
:1058300001960E944F5811112AC061EC74E0CE010C
:1058400001960E94A358BE016F5F7F4FCE01439621
:105850000E946557182FCE0101960E944F581111D2
:1058600018C065EC74E0CE0101960E94A358BE01F9
:105870006F5F7F4FCE0143960E946557182FCE0170
:1058800001960E944F58112329F012E003C014E042
:1058900001C013E01093AF08CE0143960E944F5809
:1058A0000C944D376EEF7BE0CE0101960E94545868
:1058B000BE016F5F7F4FC8010E946557D82ECE0191
:1058C00001960E944F58DD2081F0CE010D960E9476
:1058D000CD569B01215031092336310510F00C942F
:1058E0004D376093BB080C944D3765EF7BE0CE01DC
:1058F00001960E945458BE016F5F7F4FC8010E94FD
:105900006557D82ECE0101960E944F58DD2099F0A0
:10591000BE01635F7F4FCE0101960E948A58CE017F
:1059200001960E9478968093B908CE0101960E9454
:105930004F580C944D3768EE7BE0CE0101960E94E3
:105940005458BE016F5F7F4FC8010E946557D82E23
:10595000CE0101960E944F58DD2099F0BE01635F91
:105960007F4FCE0101960E948A58CE0101960E9477
:1059700023968093BA08CE0101960E944F580C944A
:105980004D376AED7BE0CE0101960E945458BE016E
:105990006F5F7F4FC8010E946557D82ECE010196D8
:1059A0000E944F58DD2069F0CE010D960E94CD5621
:1059B0006536710510F00C944D376093BD080C945A
:1059C0004D3760ED7BE0CE0101960E945458BE0138
:1059D0006F5F7F4FC8010E946557D82ECE01019698
:1059E0000E944F58DD2081F0CE010D960E94CD56C9
:1059F0009B01215031092336310510F00C944D37AD
:105A00006093BC080C944D3764EC7BE0CE010196AA
:105A10000E945458BE016F5F7F4FC8010E946557B6
:105A2000D82ECE0101960E944F58DD2081F0CE0184
:105A30000D960E94CD569B01215031092336310528
:105A400010F00C944D376093C0080C944D376AEBFE
:105A50007BE0CE0101960E945458BE016F5F7F4FDC
:105A6000C8010E946557D82ECE0101960E944F585A
:105A7000DD2099F0BE01635F7F4FCE0101960E9449
:105A80008A58CE0101960E9478968093BE08CE0176
:105A900001960E944F580C944D376CEA7BE0CE0182
:105AA00001960E945458BE016F5F7F4FC8010E944B
:105AB0006557D82ECE0101960E944F58DD2099F0EF
:105AC000BE01635F7F4FCE0101960E948A58CE01CE
:105AD00001960E9423968093BF08CE0101960E94F2
