:1000000058C400000C94E1480C9412490C944349E4
:100010000C9474490C94A5490C94D6490C94074A45
:100020000C94384A73C4000071C400006FC400000F
:100030006DC400006BC4000069C400000C94094347
:1000400065C4000063C4000061C400005FC4000018
:100050005DC400005BC4000059C400000C947D4BDB
:1000600055C400000C9487510C94CB524FC400002F
:100070004DC400004BC4000049C4000047C4000048
:1000800045C4000043C4000041C400003FC4000058
:100090000C94C7510C940A5339C4000037C40000B3
:1000A00035C4000033C4000031C400002FC4000078
:1000B0002DC400002BC4000029C4000027C4000088
:1000C00025C4000023C4000021C400000C94075282
:1000D0000C9449531BC400000C9447520C94885351
:1000E00015C4000000316253C4F5A697B988DBEA55
:1000F0007D4C1F2E4372211087B6E5D4FACB98A908
:100100003E0F5C6D86B7E4D5427320113F0E5D6CE7
:10011000FBCA99A8C5F4A796013063527C4D1E2FE7
:10012000B889DAEB3D0C5F6EF9C89BAA84B5E6D7B7
:10013000407122137E4F1C2DBA8BD8E9C7F6A594C7
:1001400003326150BB8AD9E87F4E1D2C02336051C7
:10015000C6F7A495F8C99AAB3C0D5E6F41702312A7
:1001600085B4E7D67A4B1829BE8FDCEDC3F2A19097
:100170000736655439085B6AFDCC9FAE80B1E2D387
:1001800044752617FCCD9EAF38095A6B4574271667
:1001900081B0E3D2BF8EDDEC7B4A19280637645567
:1001A000C2F3A0914776251483B2E1D0FECF9CAD77
:1001B0003A0B586904356657C0F1A293BD8CDFEE47
:1001C00079481B2AC1F0A3920534675678491A2B47
:1001D000BC8DDEEF82B3E0D1467724153B0A596827
:1001E000FFCE9DAC504B543A2045545800504B54D0
:1001F0003A205354580049503A206272616B2045AE
:1002000074686572536869656C642E2E2E0A0057F7
:1002100057573A7374726F6E6120676F746F7761AE
:100220000A005757573A7572756368616D69616D59
:10023000207374726F6E652E2E2E0A000A002E0037
:100240002E002E0049503A204F4B2E2E2E0A495098
:100250003A200049503A206B6F6E6669677572618B
:10026000636A612073696563692E2E2E0A00534408
:100270003A20626C6164206F64637A7974752064DB
:10028000616E7963680053443A20626C6164206B4C
:10029000617274790A0053443A206272616B206B78
:1002A000617274790A0053443A206272616B207063
:1002B0006C696B7520636F6E6669672E7478740A5B
:1002C000005D00636F6E6669673A205B004D4143D5
:1002D00036004D414335004D414334004D414333D9
:1002E000004D414332004D414331004950340049F3
:1002F0005033004950320049503100227D00302EE9
:10030000312E302E3136002C22766572223A2200B0
:100310007B2274696D65223A006163636573732D96
:10032000636F6E74726F6C2D616C6C6F772D6F7272
:100330006967696E3A202A0A006163636573732DE9
:10034000636F6E74726F6C2D616C6C6F772D6F7252
:100350006967696E3A202A0A006163636573732DC9
:10036000636F6E74726F6C2D616C6C6F772D6F7232
:100370006967696E3A202A0A006163636573732DA9
:10038000636F6E74726F6C2D616C6C6F772D6F7212
:100390006967696E3A202A0A002E006163636573FB
:1003A000732D636F6E74726F6C2D616C6C6F772D33
:1003B0006F726967696E3A202A0A0020703A00203D
:1003C0006F3A0020743A002049443A0044414C4CB2
:1003D000415320002062616A746F77290A00206D02
:1003E0007320286F64656272616E6F200020626105
:1003F0006A746F77207720005757573A205A6170F8
:100400006973616E6F20005757573A204F747769B0
:100410006572616D20005757573A206272616B20F8
:10042000706C696B753A20005757573A204F6463D8
:100430007A797420706C696B753A006163636573D7
:10044000732D636F6E74726F6C2D616C6C6F772D92
:100450006F726967696E3A202A0A005757573A2027
:10046000426C616420706172736F77616E696120A4
:1004700055524C0044414C4C41533A204B6F6E69ED
:10048000656320706F737A756B6977616E6961203F
:10049000637A756A6E696B6F772E00202054656DE4
:1004A0007065726174757261203D20002043524373
:1004B0003D00202044617461203D200020437A618A
:1004C0007320706F6272616E69612064616E79631E
:1004D00068207A20637A756A6E696B61203D20001E
:1004E00020437A6173206B6F6D656E6461206B6F62
:1004F0006E776572736A6920646C6120637A756ACD
:100500006E696B61203D2000204E69657A6E616ED8
:1005100079204453313878780020445331383232CE
:100520000020445331384232300020445331385394
:10053000323000626C6164204352430044414C4CB1
:1005400041533A204944203D0044414C4C41533AE8
:1005500020506F637A6174656B20706F737A756B6E
:100560006977616E696120637A756A6E696B6F770E
:100570002E0020703A00206F3A0020743A00204983
:10058000443A0044414C4C415320007C3C3E5E2B9D
:100590003D3F2F5B5D3B2C2A225C0048544D2A7462
:1005A0006578742F68746D6C7C5458542A7465781F
:1005B000742F706C61696E7C4353532A7465787430
:1005C0002F6373737C584D4C2A746578742F786D43
:1005D0006C7C4A532A746578742F6A617661736300
:1005E000726970747C4749462A696D6167652F6737
:1005F00069667C4A50472A696D6167652F6A706534
:10060000677C504E472A696D6167652F706E677C05
:1006100049434F2A696D6167652F766E642E6D6957
:1006200063726F736F66742E69636F6E7C4D5033A7
:100630002A617564696F2F6D7065677C00436F6E0A
:1006400074656E742D547970653A2000616363653A
:1006500073732D636F6E74726F6C2D616C6C6F773A
:100660002D6F726967696E3A202A0A00204F4B0D80
:100670000A00485454502F312E312000005EBCE255
:10068000613FDD83C29C7E20A3FD1F419DC3217F6E
:10069000FCA2401E5F01E3BD3E6082DC237D9FC162
:1006A000421CFEA0E1BF5D0380DE3C62BEE0025C56
:1006B000DF81633D7C22C09E1D43A1FF4618FAA442
:1006C00027799BC584DA3866E5BB5907DB8567392E
:1006D000BAE406581947A5FB7826C49A653BD98722
:1006E000045AB8E6A7F91B45C6987A24F8A6441A16
:1006F00099C7257B3A6486D85B05E7B98CD2306E02
:10070000EDB3510F4E10F2AC2F7193CD114FADF3ED
:10071000702ECC92D38D6F31B2EC0E50AFF1134DE1
:10072000CE90722C6D33D18F0C52B0EE326C8ED0D5
:10073000530DEFB1F0AE4C1291CF2D73CA947628C1
:10074000ABF517490856B4EA6937D58B5709EBB5AD
:1007500036688AD495CB2977F4AA4816E9B7550BA1
:1007600088D6346A2B7597C94A14F6A8742AC89695
:10077000154BA9F7B6E80A54D7896B35000021005C
:10078000240027002A002D00300033000101000062
:10079000040107010A0100002200250028002B00A7
:1007A0002E003100340002010000050108010B0198
:1007B000000020002300260029002C002F0032001A
:1007C00000010000030106010901050505050705F3
:1007D00008080808020202020A0A080804040404BD
:1007E00001010101010101010303030303030303E9
:1007F000040707070C0C0C0C0C0C0C0C0202020278
:1008000006060606060606060B0B0B0B0B0B0B0B60
:100810000102102020080810204010204080020112
:1008200002010804020101020408102040808040F7
:1008300020100804020180040201804020100804F6
:100840000201080402010102040810204080010294
:100850000408102040800000090A02080B0C0D0754
:10086000060304010000000000000000000000007A
:100870000000000000000000000000000000000078
:10088000000011100F000000000000000000000038
:10089000000000000000000000000000C105B21BC5
:1008A0002F1D911D6F204022DE23B029C039F7543F
:1008B000395611241FBECFEFD1E2DEBFCDBF00E01D
:1008C0000CBF15E0A0E0B2E0E4EBF3EB00E00BBFFF
:1008D00002C007900D92A83EB107D9F71BBE10E1E8
:1008E000A8EEB5E001C01D92AA33B107E1F718E008
:1008F000C2EBD8E004C02297FE010E94A859CC396F
:10090000D107C9F70E94F6560C94D85979CB0F93AA
:100910001F93CF93DF93689F8001699F100D789F8D
:10092000100D1124C8010E949245EC01009721F09E
:1009300060E070E0A8014BD0CE01DF91CF911F9114
:100940000F9108951F93FC0199278827BC01E89413
:1009500011911032E9F3193010F01E30C8F31B3238
:1009600049F01D3241F4689405C095D0610F711DA6
:10097000811D911D119110531A30B8F33EF49095DA
:100980008095709561957F4F8F4F9F4F1F91089570
:10099000FC0105900020E9F7809590958E0F9F1F30
:1009A0000895FB01DC0104C08D910190801921F4B0
:1009B00041505040C8F7881B990B0895FB01DC019A
:1009C00002C001900D9241505040D8F70895DC01CB
:1009D00001C06D9341505040E0F70895FC018191B2
:1009E000861721F08823D9F7992708953197CF01E9
:1009F0000895FB01DC018D91019080190110D9F35C
:100A0000990B0895FB01DC0101900D920020E1F7A4
:100A10000895FB01DC014150504030F08D91019070
:100A2000801919F40020B9F7881B990B0895FB0170
:100A3000DC014150504048F001900D920020C9F770
:100A400001C01D9241505040E0F70895FC0181E043
:100A500090E00190061609F4CF010020D1F701972C
:100A60000895FB0151915523A9F0BF01DC014D917F
:100A700045174111E1F759F4CD010190002049F0EB
:100A80004D9140154111C9F3FB014111EFCF81E0B8
:100A900090E001970895592F482F372F262F660F82
:100AA000771F881F991F660F771F881F991F620F76
:100AB000731F841F951F660F771F881F991F089546
:100AC0008CB190E0A0E0B0E024E0B695A7959795B2
:100AD00087952A95D1F7817008958091DB0682323F
:100AE00041F0883231F0803121F481E08093CE06EC
:100AF00002C01092CE069091D00680E02091CF06E1
:100B0000422F50E0482B592B8091CE06882399F034
:100B1000B3E0440F551FBA95E1F78091D6068031B6
:100B2000F9F42091D5068CE090E0821B9109407F7A
:100B3000480F591F15C08091D306807631F4A3E089
:100B4000440F551FAA95E1F70BC0803229F4440FDA
:100B5000551F440F551F04C0803411F4440F551F16
:100B60009A0173E0220F331F7A95E1F7440F551F66
:100B7000240F351FC90160E170E00E944259CB018A
:100B800008950F9381EE97E060E040E020E000E000
:100B90000E942D568BEE95E06DE30E94FE448AE0A4
:100BA00095E0909306068093050684EE90E090937E
:100BB00008068093070680E091E090930A068093F0
:100BC000090688EA96E09093E8078093E70780E6B5
:100BD00095E09093EA078093E9071092ED07109251
:100BE000EE071092EF071092F0071092F1071092A3
:100BF000F2071092F3071092F4071092F507109283
:100C0000F6071092FB071092FC071092FD07109256
:100C1000FE071092FF071092000810920108109230
:100C20000208109207081092080810920908109202
:100C30000A0810920B0810920C0810920D081092DE
:100C40000E088DEB96E066E10E94484281E597E050
:100C500065E974E04FEE54E020E530E00E94D13FBA
:100C600010927507109276071092790710927B0701
:100C700082E090E0A0E0B0E080937C0790937D0755
:100C8000A0937E07B0937F071092930710929D0761
:100C900010929C0786E695E090939B0780939A07B5
:100CA00010929F071092BA071092B9079093B80755
:100CB0008093B7071092BC070F910895CF92DF92EF
:100CC000EF92FF920F931F93DF93CF9300D00F9279
:100CD000CDB7DEB77C016B0100E010E024C0D70186
:100CE0001296ED91FC911397E00FF11FE4918E2F76
:100CF00090E0A0E0B0E06E2F89839A83AB83BC8341
:100D0000C6014AE050E00E94B04FF701848195810E
:100D100001970817190728F4C60160E072E00E94E5
:100D20005C500F5F1F4FD70114968D919C911597C2
:100D300008171907A0F20F900F900F900F90CF9106
:100D4000DF911F910F91FF90EF90DF90CF9008956A
:100D5000882321F4809108018F7D03C080910801D0
:100D60008062809308010895809194048823A9F0FB
:100D700010928A06109289068FE360E00E941C4B55
:100D800085E460E00E941C4B84E460E00E941C4B00
:100D90001092BA061092B90608954091100650912B
:100DA000110660E0809112062AE0829FC0011124A2
:100DB000C2974817590708F061E060930E0620E0DB
:100DC00080910C0690910D0605974817590708F079
:100DD00021E020930F0680918906882339F066234D
:100DE00029F0822F211181E0382F01C030E03093AB
:100DF000BB0672E04732570770F080911806909159
:100E000019068652924038F4662329F0822F211168
:100E100081E0282F01C020E02093BC06332319F481
:100E2000222309F459C08091B7069091B806892B06
:100E300009F068C08091B9069091BA06009719F040
:100E40008430910599F4332371F081E090E0909320
:100E5000BA068093B9068CE291E09093B80680932D
:100E6000B70685E441C082E090E01AC08130910568
:100E700019F482E090E01DC082309105B1F4222384
:100E800069F083E090E09093BA068093B9068CE213
:100E900091E09093B8068093B70625C084E090E077
:100EA0009093BA068093B9062DC0039759F584E054
:100EB00090E09093BA068093B90688E592E090930B
:100EC000B8068093B70685E460E00E941C4B84E47A
:100ED00060E00E941C4B16C04152534038F085E43C
:100EE00061E00E941C4B84E461E0F3CF85E460E0A4
:100EF0000E941C4B84E460E00E941C4B1092BA06D6
:100F00001092B906809110069091110690930D06EB
:100F100080930C0608950F931F93DF93CF9300D017
:100F20000F92CDB7DEB7282F80912106823029F0AD
:100F30008AEA9FE06DEE71E018C080918806482F24
:100F400050E0FA01E05EF94F8081833051F4009166
:100F500007061091080690E061E030E02250304032
:100F60001CC08AEA9FE064EE71E00E94E54E28C052
:100F7000EF5DF94FE081F0E0892F90E0E827F92755
:100F8000E00FF11FE4918E2F90E0A0E0B0E08983A4
:100F90009A83AB83BC839E2F6F5FE62FF0E0E2174E
:100FA000F30734F3415E594FFA018081891711F438
:100FB00081E007C08AEA9FE062E072E00E9443514C
:100FC00080E00F900F900F900F90CF91DF911F91C5
:100FD0000F9108950F931F93DF93CF93CDB7DEB793
:100FE000A9970FB6F894DEBF0FBECDBF8091F40471
:100FF0009091F504009799F40E94C54B6093DD072A
:101000007093DE078093DF079093E00710928F06BE
:1010100010928E061092900681E090E006C1813019
:101020009105D9F40E94C54B2091DD073091DE0770
:101030004091DF075091E007621B730B840B950B07
:10104000653671058105910508F4BFC110928F06C0
:1010500010928E0682E090E0E8C08230910509F09F
:101060005FC010928706DE015596EBE0F2E085E165
:1010700001900D928150E1F73091850640918606EE
:1010800090E051E0BE016B5E7F4FDE01119621C002
:10109000FB01E90FF11D40819F5FFB01E90FF11D8D
:1010A00091503081413418F0842F875302C0842F2F
:1010B0008053313418F0232F275302C0232F20539D
:1010C000FD01E50FF11D8295807F822B80839E5F5D
:1010D0005F5F9431E8F230938506409386069093E3
:1010E00087068AE0898381E0809393048E010F5FF5
:1010F0001F4F0BC0F801E80FF11D60818F5F8093D7
:1011000093048CEC9FE00E94B754809193048B3041
:1011100088F310928F0610928E0683E090E085C0CF
:1011200083309105B1F58CEC9FE00E944D54892BE2
:1011300059F0109293041092880610928F06109224
:101140008E0684E090E071C080918E0690918F06AB
:10115000019690938F0680938E068159914008F4F2
:1011600034C110928F0610928E06209190062F5F48
:101170002093900682E090E09093F5048093F4042D
:10118000263008F422C181E0809300068093940405
:101190001CC18430910509F04DC08CEC9FE00E9489
:1011A0004D54181619067CF4109193048CEC9FE0B2
:1011B0000E947E54E12FF0E0EF5DF94F80831F5FC6
:1011C0001093930423C080918E0690918F06019610
:1011D00090938F0680938E0681599140B8F01092BB
:1011E0008F0610928E0682E090E09093F504809333
:1011F000F404809190068F5F80939006863030F0E3
:1012000082E08093000681E08093940480919304AF
:10121000863508F4DAC08093880610929304109201
:101220008F0610928E0687E090E09093F5048093ED
:10123000F404CBC0079709F0C8C0809188068635B2
:1012400009F0B6C068DE882309F4B2C01092940495
:101250009091320680E02091310630E0822B932B72
:1012600090931F0680931E069091340680E0209193
:10127000330630E0822B932B909319068093180647
:101280009091360680E02091350630E0822B932B3A
:1012900090931D0680931C069091380680E0209163
:1012A000370630E0822B932B909316068093150619
:1012B00090913E0680E020913D0630E0822B932BFA
:1012C00090931106809310069091400680E0209143
:1012D0003F0630E0822B932B90931B0680931A06D7
:1012E00080914606809312068091470680931706E8
:1012F000809148068093200680918B0680938C060F
:101300008091410690E096958795817080938B0639
:1013100060E0811161E080E40E941C4B10928D0618
:1013200080917406813011F480938D06809141067E
:1013300090E09695879596958795817080938A061B
:1013400060E0811161E08FE30E941C4B80914106B7
:1013500090E013E0969587951A95E1F78170809358
:1013600089061092130680914306813011F4809310
:10137000130610921406809142068130A1F48093E6
:10138000140611C010928F0610928E06809190065E
:101390008F5F80939006863030F084E08093000663
:1013A00081E0809394041092F5041092F4040DC02F
:1013B00080918E0690918F06019690938F06809370
:1013C0008E0681599140F0F6EECFA9960FB6F894AB
:1013D000DEBF0FBECDBFCF91DF911F910F9108955A
:1013E0003F924F925F926F927F928F929F92AF92B5
:1013F000BF92CF92DF92EF92FF920F931F93CF9302
:10140000DF93909189048AE0989FB0011124CCE089
:10141000D5E049E8442E44E0542E3AE0332EE091E2
:101420001C06F0911D068881932D890280011124EC
:10143000E017F107ACF189818902D0011124AE17C0
:10144000BF0774F100D00F92BF01882777FD809508
:10145000982F9801442737FD4095542F7D01002790
:10146000F7FC0095102FF201A080A39C50011124DD
:10147000CC24B7FCC094DC2C6180639C3001112427
:10148000882477FC8094982CEDB7FEB76182728235
:10149000838294820E94AF560F900F900F900F900E
:1014A00021960894411C511CF5E0C131DF0709F079
:1014B000B6CF80911C0690911D068739910534F0B6
:1014C00090918E048AE0989FB0011124CB01DF91A6
:1014D000CF911F910F91FF90EF90DF90CF90BF9031
:1014E000AF909F908F907F906F905F904F903F90C4
:1014F0000895CF93DF938091870490918804823080
:10150000910509F071C080918D068823B9F082E4BD
:1015100061E00E941C4B8091800490918104909323
:1015200004068093030681E090E090938804809302
:101530008704109202061092010678C080918A06F4
:10154000882309F473C02091100630911106809110
:101550008504909186048217930708F067C08091F4
:10156000030690910406892B09F060C039DF90933F
:1015700086048093850420911E0630911F068217F1
:10158000930709F453C0EC01C21BD30B82179307D6
:1015900010F482E405C02817390708F047C081E439
:1015A00061E00E941C4B80918204282F30E0309330
:1015B00004062093030681E090E0909388048093D2
:1015C0008704CA30D10590F5C90196958795909307
:1015D000040680930306259748F596958795909382
:1015E00004068093030622C0019701F5809103064B
:1015F00090910406892BD1F482E460E00E941C4B98
:1016000081E460E00E941C4B80918D06882371F478
:101610008091830490918404909304068093030640
:1016200082E090E09093880480938704DF91CF91CB
:1016300008952F923F924F925F926F927F928F9276
:101640009F92BF92CF92DF92EF92FF920F931F93E0
:10165000DF93CF93CDB7DEB7C75BD0400FB6F8941A
:10166000DEBF0FBECDBF8E010E5F1F4FC80160E20F
:1016700072E00E94EB4DC80164E170E00E94614D90
:1016800087EB97E06AE977E041E252E021E00E94CF
:10169000F837882309F0C3C2EAC269816A3039F099
:1016A0006D3029F08B2D9E2D0E94A84DCFC28AEA65
:1016B0009FE063EC72E00E949A4E8AEA9FE06B2DF5
:1016C0007E2D0E9454518AEA9FE061EC72E00E94F4
:1016D000E54ECE0109966CE272E00E94EB4D8B2D37
:1016E0009E2DBE01675F7F4F0E94084D8C01CE0189
:1016F00009960E946B4E8E819F81181619060CF078
:1017000087C28FEF0F3F180709F482C280E1C82E0D
:10171000D12CCC0EDD1E0F5F1F4FC6016B2D7E2D11
:10172000A8010E94604E8E01095E1F4FC8016EE243
:1017300072E00E94EB4D8B2D9E2DB8010E94374D1B
:10174000F82EC8010E946B4EFF2031F0C6010E94A6
:10175000A94C60938F0458C28E01025E1F4FC801CE
:1017600062E372E00E94EB4D8B2D9E2DB8010E942A
:10177000374DF82EC8010E946B4EFF2031F0C60194
:101780000E94A94C609390043FC28E010B5D1F4FD5
:10179000C80166E372E00E94EB4D8B2D9E2DB801CF
:1017A0000E94374DF82EC8010E946B4EFF2031F089
:1017B000C6010E94A94C6093910426C28E01045D6B
:1017C0001F4FC8016AE372E00E94EB4D8B2D9E2DE6
:1017D000B8010E94374DF82EC8010E946B4EFF20C1
:1017E00031F0C6010E94A94C609392040DC28E0193
:1017F0000D5C1F4FC8016EE372E00E94EB4D8B2D14
:101800009E2DB8010E94374DF82EC8010E946B4EE4
:10181000FF2031F0C6010E94A94C6093F604F4C188
:101820008E01065C1F4FC80163E472E00E94EB4D1D
:101830008B2D9E2DB8010E94374DF82EC8010E94B5
:101840006B4EFF2031F0C6010E94A94C6093F70453
:10185000DBC1CE018F5B9F4F68E472E00E94EB4DCD
:101860008B2D9E2DBE016F5B7F4F0E94374D182F31
:10187000CE018F5B9F4F0E946B4E112331F0C6014A
:101880000E94A94C6093F804BFC1CE01885B9F4FB2
:101890006DE472E00E94EB4D8B2D9E2DBE01685BC6
:1018A0007F4F0E94374D182FCE01885B9F4F0E94BB
:1018B0006B4E112339F0CE0140960E94A94C6093E3
:1018C000F904A2C1CE01815B9F4F62E572E00E94E4
:1018D000EB4D8B2D9E2DBE01615B7F4F0E94374DDE
:1018E000182FCE01815B9F4F0E946B4E112339F060
:1018F000CE0140960E94A94C6093FA0485C1CE01A6
:101900008A5A9F4F67E572E00E94EB4D8B2D9E2D0A
:10191000BE016A5A7F4F0E94374D182FCE018A5A56
:101920009F4F0E946B4E112339F0CE0140960E94CA
:10193000A94C6093FB0468C1CE01835A9F4F6CE5AC
:1019400072E00E94EB4D8B2D9E2DBE01635A7F4F9E
:101950000E94374D182FCE01835A9F4F0E946B4E25
:10196000112309F04DC1CE018C599F4F60E772E001
:101970000E94EB4D8B2D9E2DBE016C597F4F0E9416
:10198000374D182FCE018C599F4F0E946B4E11235B
:1019900039F0CE0140960E94A94C6093920634C162
:1019A000CE0185599F4F6AE772E00E94EB4D8B2D67
:1019B0009E2DBE0165597F4F0E94374D182FCE01D5
:1019C00085599F4F0E946B4E112339F0CE014096EE
:1019D0000E94A94C6093930617C1CE018E589F4F69
:1019E0006AE872E00E94EB4D8B2D9E2DBE016E5871
:1019F0007F4F0E94374D182FCE018E589F4F0E9467
:101A00006B4E112339F0CE0140960E94A94C609391
:101A10009406FAC0CE0187589F4F67E972E00E9492
:101A2000EB4D8B2D9E2DBE0167587F4F0E94374D89
:101A3000182FCE0187589F4F0E946B4E112349F0FB
:101A4000CE0140960E94A94C70939606609395062D
:101A5000DBC0CE0180589F4F69EA72E00E94EB4DD7
:101A60008B2D9E2DBE0160587F4F0E94374D182F41
:101A7000CE0180589F4F0E946B4E112349F0CE013A
:101A800040960E94A94C70939E0660939D06BCC030
:101A9000CE0189579F4F6AEB72E00E94EB4D8B2D70
:101AA0009E2DBE0169577F4F0E94374D182FCE01E2
:101AB00089579F4F0E946B4E112349F0CE014096EB
:101AC0000E94A94C70939A06609399069DC0CE011E
:101AD00082579F4F66EC72E00E94EB4D8B2D9E2D3E
:101AE000BE0162577F4F0E94374D182FCE0182579B
:101AF0009F4F0E946B4E112349F0CE0140960E94E9
:101B0000A94C7093A2066093A1067EC0CE018B56AD
:101B10009F4F61ED72E00E94EB4D8B2D9E2DBE011B
:101B20006B567F4F0E94374D182FCE018B569F4F1B
:101B30000E946B4E112349F0CE0140960E94A94CA1
:101B400070939806609397065FC0C20161EE72E0E1
:101B50000E94EB4D8B2D9E2DB2010E94374D182F08
:101B6000C2010E946B4E112349F0CE0140960E94A3
:101B7000A94C7093A00660939F0646C0C10160EF18
:101B800072E00E94EB4D8B2D9E2DB1010E94374DCE
:101B9000182FC1010E946B4E112349F0CE014096CF
:101BA0000E94A94C70939C0660939B062DC0C401B3
:101BB0006DEF72E00E94EB4D8B2D9E2DB4010E94C3
:101BC000374D182FC4010E946B4E112349F0CE01EE
:101BD00040960E94A94C7093A4066093A30614C07B
:101BE000C30169E073E00E94EB4D8B2D9E2DB30184
:101BF0000E94374D182FC3010E946B4E112321F014
:101C0000CE0140960E94A94CCE0140960E946B4E98
:101C10008B2D9E2D60E272E00E94044E17C0C80119
:101C2000B02EE92EBCE94B2E512C4C0E5D1EA3EAC2
:101C30002A2E312C2C0E3D1EFAEA8F2E912C8C0E62
:101C40009D1EE1EB6E2E712C6C0E7D1E87EB97E0D6
:101C5000BE016F5F7F4F41E050E00E949433892BBB
:101C600009F01BCD87EB97E00E94C53206C08AEAD7
:101C70009FE066EA72E00E949A4ECE0102960E94B0
:101C80006B4EC954DF4F0FB6F894DEBF0FBECDBF09
:101C9000CF91DF911F910F91FF90EF90DF90CF9048
:101CA000BF909F908F907F906F905F904F903F90EC
:101CB0002F900895EF92FF920F931F938C0192E162
:101CC000E92EF12CE00EF11EC70168EC70E00E94D5
:101CD000FE3AC80167E173E00E943040C80169E143
:101CE00073E00E949A4EC7010E94C54EC70160E191
:101CF00073E00E949A4E0E94C54B28EE33E040E00C
:101D000050E00E945559C701BA01A9012AE030E00C
:101D10000E94764FC70167E073E00E949A4EC701A8
:101D20006EEF72E00E949A4EC7016BEF72E00E9464
:101D3000E54E81E01F910F91FF90EF900895EF9293
:101D4000FF920F931F938C0122E1E22EF12CE80EFB
:101D5000F91EC70168EC70E00E94FE3AC80167E115
:101D600073E00E943040C80169E573E00E949A4E1A
:101D7000C7010E94C54EC70161E273E00E94435152
:101D800081E080930B061F910F91FF90EF900895D3
:101D90000F931F93CF93DF938C01EC016296CE01DA
:101DA00068EC70E00E94FE3AC80167E173E00E94AF
:101DB0003040C8016BE973E00E949A4ECE010E9448
:101DC000C54ECE0164E273E00E945C5085E40E943F
:101DD0004E4B892B19F46EE273E002C064E373E0AA
:101DE000CE010E945C50CE0160E072E00E945C5027
:101DF000CE0169E373E00E945C5084E40E944E4B84
:101E0000892B19F46EE273E002C064E373E0CE0143
:101E10000E945C50CE0162E473E00E945C5081E05D
:101E2000DF91CF911F910F910895AF92BF92CF9202
:101E3000DF92FF920F931F93DF93CF93CDB7DEB75F
:101E400065970FB6F894DEBF0FBECDBF8C0132E1AF
:101E5000C32ED12CC80ED91EC60168EC70E00E94BA
:101E6000FE3AC80167E173E00E943040C80169E3AF
:101E700073E00E949A4EC6010E94C54EC8010E949E
:101E8000FA38BC015E010894A11CB11CC5010E9476
:101E9000EB4D8E01085F1F4FC80164E473E00E94A0
:101EA000EB4DC501B8010E94374DF82EC8010E94C4
:101EB0006B4EFF20A9F08E01015F1F4FC801B501D5
:101EC0004AE050E00E94604EC8010E94A94C609315
:101ED0009406C8010E946B4EC60161E273E003C024
:101EE000C6016FE473E00E944351CE0101960E9447
:101EF0006B4E81E065960FB6F894DEBF0FBECDBF86
:101F0000CF91DF911F910F91FF90DF90CF90BF9005
:101F1000AF900895EF92FF920F931F93F82EE92E42
:101F20008B01CB016AE070E00E9442598F2D9E2DFB
:101F30004AE050E00E942D508F2D9E2D69E973E0FC
:101F40000E949A4EC8016AE070E00E944259BC01AA
:101F50008F2D9E2D4AE050E00E942D501F910F9131
:101F6000FF90EF9008950F931F93CF93DF938C0111
:101F7000EC016296CE0168EC70E00E94FE3AC80166
:101F800067E173E00E943040C80169E773E00E9496
:101F90009A4ECE010E94C54ECE0162E573E00E94CA
:101FA0005C50CE016FE573E00E945C5060911006BA
:101FB00070911106CE01AEDFCE0166E673E00E949D
:101FC0005C50CE016FE573E00E945C506091150695
:101FD00070911606CE019EDFCE0166E673E00E9488
:101FE0005C50CE016FE573E00E945C506091180672
:101FF00070911906CE018EDFCE0166E673E00E9475
:102000005C50CE016FE573E00E945C5060911A064F
:1020100070911B06CE017EDFCE0166E673E00E9462
:102020005C50CE016FE573E00E945C5060911E062B
:1020300070911F06CE016EDFCE0169E673E00E944B
:102040005C50CE016DE673E00E945C50CE01609161
:1020500020064AE050E00E94B04FCE0160E072E0FE
:102060000E945C50CE0166E773E00E945C50609174
:10207000AD067091AE06CE014AE050E00E942D50B0
:10208000CE0160E072E00E945C50CE016FE773E029
:102090000E945C5080918B06882319F467E873E0F6
:1020A00002C069E873E0CE010E945C50CE0162E498
:1020B00073E00E945C5081E0DF91CF911F910F91FE
:1020C00008956F927F928F929F92AF92BF92CF921C
:1020D000DF92EF92FF920F931F93CF93DF934C0108
:1020E000EC016296CE0168EC70E00E94FE3AC401F9
:1020F0006BE873E00E943040CE010E94C54E50EF65
:10210000A52E56E0B52ECC24DD244DE0642E712C96
:10211000CE016CEC73E00E949A4E86010894C11CBB
:10212000D11CCE01B6014AE050E00E942D50CE01F4
:1021300067EC73E00E949A4E069D7001079DF00CBB
:10214000169DF00C112488EE96E0E80EF91E00E0D2
:10215000D7018C91803158F4D4015296ED91FC91C5
:1021600053970190F081E02DCE0160E31995CE01E7
:10217000F70161917F0140E150E00E94B04F0F5F95
:10218000083031F7CE0163EC73E00E949A4ED5011E
:1021900011966D917C911297CE014AE050E00E9419
:1021A0002D50CE016FEB73E00E949A4EF5016381D2
:1021B0007481CE014AE050E00E942D50CE016BEBBD
:1021C00073E00E949A4ECE01D5016C914AE050E036
:1021D0000E94C14FEDE0F0E0AE0EBF1EF8E0CF165A
:1021E000D10409F095CF81E0DF91CF911F910F913C
:1021F000FF90EF90DF90CF90BF90AF909F908F9027
:102200007F906F900895AF92BF92CF92DF92EF923E
:10221000FF920F931F93CF93DF9370EFC72E76E05B
:10222000D72EEE24FF246DE0A62EB12C8AEA9FE083
:1022300063E875E00E949A4E87010894E11CF11C46
:102240008AEA9FE0B7014AE050E00E942D508AEAF6
:102250009FE06EE775E00E949A4E0A9DE0010B9D9B
:10226000D00D1A9DD00D1124C851D94F00E088819E
:10227000803128F48AEA9FE060E30E94B7548AEA3A
:102280009FE0699140E150E00E94B04F0F5F08303D
:1022900071F78AEA9FE06AE775E00E949A4EF601BC
:1022A000618172818AEA9FE04AE050E00E942D50ED
:1022B0008AEA9FE066E775E00E949A4EF601638124
:1022C00074818AEA9FE04AE050E00E942D508AEA39
:1022D0009FE062E775E00E949A4E8AEA9FE0F6016D
:1022E00060814AE050E00E94C14F8DE090E0C80E4E
:1022F000D91E98E0E916F10409F098CFDF91CF914B
:102300001F910F91FF90EF90DF90CF90BF90AF9013
:1023100008950F931F93CF93DF938C01EC01629686
:10232000CE0168EC70E00E94FE3AC8016BE873E0F1
:102330000E943040CE010E94C54ECE0166E973E096
:102340000E945C5085E40E944E4BBC01CE014AE0E5
:1023500050E00E943F50CE016CE973E00E945C5057
:1023600084E40E944E4BBC01CE014AE050E00E9442
:102370003F50CE0162EA73E00E945C50CE01609152
:1023800020064AE050E00E94C14F809194048823C7
:1023900029F0CE016EEA73E00E94435160918E06EF
:1023A00070918F06CE014AE050E00E94954FCE0119
:1023B000609191064AE050E00E94C14F81E0DF91B8
:1023C000CF911F910F9108950F931F93CF93DF9398
:1023D0008C01EC016296CE0168EC70E00E94FE3A3E
:1023E000C8016BE873E00E943040CE010E94C54EE8
:1023F000CE016BEB73E00E945C506091100670910F
:102400001106CE014AE050E00E94954FCE0166E9E8
:1024100073E00E945C506091150670911606CE0123
:102420004AE050E00E94954FCE016CE973E00E94B3
:102430005C506091180670911906CE014AE050E098
:102440000E94954F80919404882329F0CE016EEA72
:1024500073E00E94435181E0DF91CF911F910F9172
:1024600008950F931F93CF93DF938C01EC01629635
:10247000CE0168EC70E00E94FE3AC8016BE873E0A0
:102480000E943040CE010E94C54E4091F00550910F
:10249000F1056091F2057091F305CE0122E030E084
:1024A0000E9432518BEE95E00E944244682FCE018B
:1024B0004AE050E00E94C14F60911A0670911B06DD
:1024C000CE014AE050E00E94954F4091F4055091B2
:1024D000F5056091F6057091F705CE012AE030E030
:1024E0000E94834F60911C0670911D06CE014AE048
:1024F00050E00E943F506091850470918604CE01A7
:102500004AE050E00E94954FCE01609100064AE0FB
:1025100050E00E94C14FCE01609113064AE050E0A6
:102520000E94C14F6091B3067091B406CE014AE09B
:1025300050E00E943F506091AD067091AE06CE0112
:102540004AE050E00E943F506091B5067091B60697
:10255000CE014AE050E00E943F50CE010E94C54E9D
:102560006091B9067091BA06CE014AE050E00E942F
:102570003F50CE016091BB064AE050E00E94C14F3F
:10258000CE016091BC064AE050E00E94C14F85E454
:102590000E944E4B892B19F46EE273E002C064E393
:1025A00073E0CE010E94435184E40E944E4B892B7C
:1025B00019F46EE273E002C064E373E0CE010E949E
:1025C000435181E0DF91CF911F910F9108950F93B7
:1025D0001F93CF93DF938C01E9016130710509F4FA
:1025E00044C06230710509F465C0672B09F0B4C0BE
:1025F0000E94C54B609313087093140880931508CC
:102600009093160810920F0810921008109211085B
:10261000109212088091BC07882309F09DC0C80160
:102620000E94FA380E94FE3CEC01009709F494C025
:102630008AEA9FE067E074E00E949A4E8AEA9FE08F
:10264000BE010E945C508AEA9FE06FEB73E00E943B
:102650005C5087EB97E06AE977E0AE0122E50E94E3
:10266000F837CE010E94194677C08091BC078823B5
:1026700009F472C087EB97E0BA01A9010E94D23534
:102680009E01442737FD4095542F80910F0890916B
:102690001008A0911108B0911208820F931FA41F77
:1026A000B51F80930F0890931008A0931108B09362
:1026B000120852C087EB97E00E947D328AEA9FE0C1
:1026C00068EF73E00E949A4E4091CA075091CB0781
:1026D0006091CC077091CD078AEA9FE02AE030E054
:1026E0000E94764F8AEA9FE06DEE73E00E949A4E58
:1026F0000E94C54BAB01BC01809113089091140856
:10270000A0911508B0911608481B590B6A0B7B0B5A
:102710008AEA9FE02AE030E00E94764F8AEA9FE052
:102720006EED73E00E949A4E40910F085091100890
:1027300060911108709112088AEA9FE02AE030E067
:102740000E94764F8AEA9FE064ED73E00E949A4E01
:1027500087EB97E00E94C532DF91CF911F910F91D7
:102760000895CF92DF92EF92FF920F931F93CF9332
:10277000DF93EC016B01E2E1EE2EF12CE80EF91E85
:102780006115710559F4C70164E971E00E94FE3AD0
:10279000CE016BE574E00E949A4E42C0CB010E94CC
:1027A000273A8C01C70168EC70E00E94FE3ACE0126
:1027B000B8010E944640CE016BE374E00E949A4E3D
:1027C000C7010E94C54E87EB97E06AE977E0A60152
:1027D00021E00E94F8378823A9F08AEA9FE068E2A6
:1027E00074E00E949A4E8AEA9FE0B6010E9443512B
:1027F000CE0167EB77E00E94F53987EB97E00E9406
:10280000C5320EC0CE0166E174E00E949A4ECE0140
:10281000B6010E945C50CE016FEB73E00E945C50E9
:10282000DF91CF911F910F91FF90EF90DF90CF90AC
:10283000089561EC73E095DF81E00895EF92FF92D7
:102840000F931F937C010E94FA380E94FE3C8C017A
:10285000C701B80186DFC8010E94194681E01F91B7
:102860000F91FF90EF9008951F938DEB96E00E94DB
:102870006C418093CD068DEB96E06BED76E00E9487
:102880004D418DEB96E06EEB40E00E940B411092C3
:10289000CB060EC08DEB96E00E94BB40E12FF0E02E
:1028A000E153F94F80838091CB068F5F8093CB06F5
:1028B0001091CB06193070F31F9108950F931F9359
:1028C0000DEB16E0C8010E946C41C8010E944A410C
:1028D000C80164E441E00E940B411F910F910895EB
:1028E0000F931F938091CC06882309F469C09091BF
:1028F0005007992351F489E08093E706DFDF809148
:1029000050078F5F809350075BC08091E706882354
:1029100009F056C040E0892F90E001972DE030E0AB
:10292000829FB001839F700D929F700D11240CC087
:10293000E42FF0E0DB01AE0FBF1FA851B94F8C911F
:10294000E552F94F80834F5F483090F34093CB06B8
:102950008BDF0091500710E0015010400E946D0580
:102960002DE030E0029FF001039FF00D129FF00D6B
:102970001124E851F94F928781878091500790E0A8
:102980000197829FF001839FF00D929FF00D11241B
:10299000E851F94F8091CD068087618572858AEA7A
:1029A0009FE04AE050E00E943F50809150078F5FC7
:1029B000809350079091CC06891711F4109250071C
:1029C0001F910F9108956F927F928F929F92AF9275
:1029D000BF92CF92DF92EF92FF920F931F93CF930C
:1029E000DF938AEA9FE069E475E00E94E54E8AEA97
:1029F0009FE00E94C54E8DE0882E912CAA24A394BE
:102A00000CE0602E712CA8C18AEA9FE06CE375E0AF
:102A10000E949A4E1092CB061CC0F0E0E552F94F8E
:102A200000818AEA9FE060E20E94B754003128F4F6
:102A30008AEA9FE060E30E94B7548AEA9FE0602F31
:102A400040E150E00E94B04F8091CB068F5F8093B1
:102A5000CB06E091CB06E83000F38BED96E067E023
:102A60000E9476409091E206891739F08AEA9FE049
:102A700063E375E00E94E54E6FC18091DB06823210
:102A800091F0883259F08031B9F48AEA9FE06AE225
:102A900075E00E94E54EA092CE0615C08AEA9FE03E
:102AA00061E275E004C08AEA9FE069E175E00E9496
:102AB000E54E1092CE0607C08AEA9FE068E075E016
:102AC0000E94E54E66C10E94C54B6093E306709379
:102AD000E4068093E5069093E606F0DE0E94C54B7F
:102AE0002091E3063091E4064091E5065091E60618
:102AF000621B730B840B950B6093E3067093E406E3
:102B00008093E5069093E6068AEA9FE060EE74E023
:102B10000E949A4E4091E3065091E4066091E506CA
:102B20007091E6068AEA9FE02AE030E00E941B509E
:102B300068EE73E080E090E00E94D34B0E94C54BAA
:102B40006093E3067093E4068093E5069093E606AF
:102B50008BDE0E94C54B2091E3063091E406409144
:102B6000E5065091E606621B730B840B950B609390
:102B7000E3067093E4068093E5069093E6068AEAFE
:102B80009FE06CEB74E00E949A4E4091E3065091F6
:102B9000E4066091E5067091E6068AEA9FE02AE085
:102BA00030E00E941B508AEA9FE062EB74E00E94D2
:102BB0009A4E8AEA9FE06091CD0640E150E00E9483
:102BC000B04F8AEA9FE060E20E94B7541092CB06B1
:102BD0001EC08AEA9FE060E20E94B754E091CB06F3
:102BE000F0E0E153F94F0081003128F48AEA9FE0D8
:102BF00060E30E94B7548AEA9FE0602F40E150E012
:102C00000E94B04F8091CB068F5F8093CB0680915E
:102C1000CB068930F0F28AEA9FE06CEA74E00E9409
:102C20009A4E8FEC96E068E00E947640682F8AEA20
:102C30009FE040E150E00E94B04F8AEA9FE00E948E
:102C4000C54ED091D006C0E08091CF06282F30E04D
:102C50002C2B3D2B8091CE06882391F013E0220F80
:102C6000331F1A95E1F78091D6068031F1F48091F7
:102C7000D506A301481B5109207F240F351F15C01D
:102C80008091D306807631F4B3E0220F331FBA95DA
:102C9000E1F70BC0803229F4220F331F220F331FBC
:102CA00004C0803411F4220F331FB901882777FD47
:102CB0008095982F0E94085820E030E040E85DE3BE
:102CC0000E94BC586B017C018AEA9FE06BE974E0CA
:102CD0000E949A4E8AEA9FE0B701A60122E030E006
:102CE0000E9432511092CB06B090CC062B2D30E0D2
:102CF00090E0289DA001299D500D389D500D112474
:102D00000CC0E92FF0E0DA01AE0FBF1FA851B94F98
:102D1000E552F94F80818C939F5F983090F39093A8
:102D2000CB06289D8001299D100D389D100D112482
:102D30000851194FF801A086C701B60120E030E024
:102D400040E251E40E94BC580E94D557F8017287B6
:102D50006187B394B092CC068DEB96E06BED76E094
:102D60000E94B741882309F04FCE8AEA9FE064E7CA
:102D700074E00E94E54E8AEA9FE00E94C54E8DEB0A
:102D800096E00E9469406AEF70E080E090E00E9467
:102D9000D34BDF91CF911F910F91FF90EF90DF9078
:102DA000CF90BF90AF909F908F907F906F9008953D
:102DB0002ADA09DE28CAAF92BF92CF92DF92EF9251
:102DC000FF920F931F939C0197FF03C020E030E018
:102DD00005C08536910514F024E630E000D00F924E
:102DE000B901882777FD8095982F2FEF30E040E0DC
:102DF00050E0EDB7FEB7218332834383548320E054
:102E000030E040E050E0E4E6EE2EF12C012D112DF3
:102E1000AA24BB2465010E94AF569B017093B6069D
:102E20006093B5060F900F900F900F9080919306CE
:102E3000882341F08FEF90E0821B930B9093B606AE
:102E40008093B5066091B5067091B6068CE00E943D
:102E500087471F910F91FF90EF90DF90CF90BF9029
:102E6000AF90089570911206E0911006F09111064E
:102E70002091AD063091AE063093B0062093AF0698
:102E800060912006462F50E05093AE064093AD0669
:102E900080911306882329F08091940680FD05C057
:102EA0000EC18091940681FF0AC1A091B106B09134
:102EB000B206109749F5662339F12115310509F05D
:102EC00054C180919706909198069C0153E0220F7F
:102ED000331F5A95E1F7880F991F280F391F309338
:102EE000A8062093A70681E090E09093B406809313
:102EF000B306809114068093170806C083E090E023
:102F00009093B4068093B30640E08AE0789FC001B6
:102F10001124E817F90708F441E02091A706309141
:102F2000A8062115310561F0662351F0442341F0D4
:102F300080919F069091A0069093AE068093AD0677
:102F40008091B3069091B406019749F4211531059B
:102F500031F483E090E09093B4068093B3068091BF
:102F60008C06882311F580918B068130F1F4232B98
:102F7000E1F480919B0690919C069C0173E0220FE6
:102F8000331F7A95E1F7880F991F280F391F309367
:102F9000AC062093AB0684E090E09093B406809357
:102FA000B30680911406809317088091B306909120
:102FB000B406049761F48091AB069091AC06892B1E
:102FC00031F483E090E09093B4068093B30680914F
:102FD000AB069091AC06892B71F08091AD06909173
:102FE000AE062091A3063091A406820F931F909302
:102FF000AE068093AD0680911708882309F456C069
:103000001A161B06D4F46623C1F48091950690919C
:1030100096069C01A3E0220F331FAA95E1F7880FC3
:10302000991F280F391F3093A6062093A50685E027
:1030300090E09093B4068093B3068091A50690919A
:10304000A606892B59F06623B9F480919D069091CC
:103050009E069093AE068093AD060EC08091B30697
:103060009091B406059741F4662331F486E090E030
:103070009093B4068093B3068091B3069091B40602
:10308000069751F5662341F5442359F48091A10632
:103090009091A206009729F09093AE068093AD061A
:1030A0001BC01092AE061092AD0612C08091B306FE
:1030B0009091B406039781F4662371F409C0452BFF
:1030C00039F083E090E09093B4068093B30604C097
:1030D0001092B4061092B3062091AD063091AE0660
:1030E0002115310559F080919206992787FD909519
:1030F000820F931F9093AE068093AD068091AD062C
:103100009091AE0697FF04C01092AE061092AD06E5
:103110008091AD069091AE068536910534F084E637
:1031200090E09093AE068093AD068091AD069091AD
:10313000AE0641DE87EE97E06091AD060E947D43CA
:103140008091AD069091AE06181619061CF488E021
:1031500060E002C088E061E00E941C4B8091200684
:103160008093B1061092B2060895121613060CF45D
:10317000C5CECACEEF92FF920F931F930E94C54B0C
:103180009B01AC012093FC053093FD054093FE05A7
:103190005093FF058091D4079091D507A091D60751
:1031A000B091D70779018A01E81AF90A0A0B1B0BBB
:1031B000D801C70185369105A105B1050CF488C079
:1031C0002093D4073093D5074093D6075093D70761
:1031D0008BEE95E00E94D2446093F0057093F10568
:1031E0008093F2059093F3050E94DA572AE030E0CD
:1031F00040E050E00E942359DC01CB018093F805A8
:103200009093F905A093FA05B093FB056091E8054A
:103210007091E9050E941A45AA2797FDA095BA2F3B
:103220008093F4059093F505A093F605B093F70508
:103230008091030690910406009729F001979093DE
:103240000406809303068091EA05882319F08150D3
:103250008093EA058091A5069091A606009729F033
:1032600001979093A6068093A5068091A906909158
:10327000AA06009729F001979093AA068093A906C1
:103280008091AB069091AC06009729F0019790933E
:10329000AC068093AB068091A7069091A806009794
:1032A00029F001979093A8068093A7068091B7060E
:1032B0009091B806009729F001979093B8068093F3
:1032C000B7068091E706882319F081508093E706BE
:1032D0002091FC053091FD054091FE055091FF05C0
:1032E0008091D8079091D907A091DA07B091DB07B8
:1032F00079018A01E81AF90A0A0B1B0BD801C701E8
:10330000C397A105B10544F02093D8073093D9079E
:103310004093DA075093DB070E94EA07E1DAA2DD67
:103320000E94B40680919404882311F40E94790AC3
:103330008091EA05882399F48DE00E944E4B60E06D
:10334000892B09F461E08DE00E941C4B809194046C
:10335000882311F481E001C08AE08093EA0580911E
:10336000F304882341F08091DC07882321F481E570
:1033700097E00E94A13E80910B06882319F0E0E0BF
:10338000F0E019951F910F91FF90EF9008958CE058
:1033900061E00E94694A80E090E00DDD88E061E034
:1033A0000E94694A88E060E00E941C4B83E461E06F
:1033B0000E94694A83E460E00E941C4B87EE97E01C
:1033C00060E070E00E943D4388EE93E0A0E0B0E052
:1033D00080930B0890930C08A0930D08B0930E08EF
:1033E00008950F931F93DF93CF93CDB7DEB72C973C
:1033F0000FB6F894DEBF0FBECDBF8AEA9FE040E073
:1034000052EC61E070E00E94C7538CEC9FE040E01A
:1034100052EC61E070E00E94C75382E161E00E94DB
:103420001C4B83E161E00E941C4B8DE061E00E9437
:103430001C4B8DE061E00E94694A8FE360E00E94CE
:103440001C4B8FE361E00E94694A85E460E00E94C2
:103450001C4B85E461E00E94694A84E460E00E94BC
:103460001C4B84E461E00E94694A82E460E00E94AF
:103470001C4B82E461E00E94694A81E460E00E94A2
:103480001C4B81E461E00E94694A80E460E00E9494
:103490001C4B80E461E00E94694A8ADC85E361E0BC
:1034A0000E94694A85E361E00E941C4B8AE061E06A
:1034B0000E94694A8AE061E00E941C4B84E061E05E
:1034C0000E94694A84E061E00E941C4B80E797E01B
:1034D00060E044E00E94FA2B882341F48AEA9FE0EE
:1034E00066E972E00E949A4E1092F3048CE797E02E
:1034F00060E777E041E00E94582D882389F48CE74B
:1035000097E060E777E040E00E94582D882341F47F
:103510008AEA9FE066E872E00E949A4E1092F304F5
:103520008AE997E06CE777E00E94F034882341F461
:103530008AEA9FE06EE672E00E949A4E1092F304CF
:103540008091F304882341F087EE92E19093B90AC9
:103550008093B80A0E94190B1ADF8AEA9FE063E59C
:1035600072E00E949A4E8E010F5F1F4FC8016FE8F4
:1035700074E00E94945688E398E066EF74E0A80136
:103580000E945C238E01095F1F4F89E090E0B80123
:1035900046E050E00E94A328C80166EF74E046E0D0
:1035A00050E00E94D1048093DC07882309F04DC0CD
:1035B0008AEA9FE064E472E00E949A4E8AEA9FE001
:1035C00060918F044AE050E00E94B04F8AEA9FE089
:1035D00062E472E00E949A4E8AEA9FE06091900451
:1035E0004AE050E00E94B04F8AEA9FE060E472E057
:1035F0000E949A4E8AEA9FE0609191044AE050E06E
:103600000E94B04F8AEA9FE06EE372E00E949A4EF9
:103610008AEA9FE0609192044AE050E00E94B04F35
:103620008AEA9FE06CE372E00E949A4E8AEA9FE089
:1036300062E272E00E949A4E81E597E00E94EE3BC2
:103640008AEA9FE06FE072E004C08AEA9FE066EFDA
:1036500071E00E949A4E8BEE95E00E94D2446093F6
:10366000F0057093F1058093F2059093F3050E94A5
:10367000C54B6093D4077093D5078093D60790937A
:10368000D7076093D8077093D9078093DA07909390
:10369000DB0782E00E945D459093E9058093E80591
:1036A0002C960FB6F894DEBF0FBECDBFCF91DF9141
:1036B0001F910F910895882319F48CB5806202C080
:1036C0008CB58F7D8CBD08959CB5937F982B9CBD48
:1036D00008952CB5382F33702C7F322B3CBD2DB57F
:1036E00090E0959587959595879581702E7F822B93
:1036F0008DBD089585E361E00E941C4B85E361E088
:103700000E94694A8CB580618CBD8CB580648CBD8B
:1037100084E361E00E94694A83E361E00C94694AB2
:10372000FC011382128286E195E091838083758388
:1037300064830895DF93CF930F92CDB7DEB7FC017A
:103740006983A081B18112962D913C911397BE019E
:103750006F5F7F4F41E050E0F90119950F90CF91D5
:10376000DF9108950F9388E198E060E040E020E069
:1037700000E00E942D560F9108958F929F92BF9264
:10378000CF92DF92EF92FF920F931F93DF93CF932D
:10379000CDB7DEB72D970FB6F894DEBF0FBECDBF05
:1037A0007C0100E318E088249924BB246E0108946E
:1037B000C11CD11CC6016B2D4AD4D8012D913C915E
:1037C000F701848195812817390791F4C60192D4B5
:1037D000843121F481E0882E912C0AC0C6018AD45C
:1037E0008C3131F4C60134D5892B11F4C601B0D423
:1037F000B3940E5F1F4FF4E0BF16E1F6892841F441
:10380000D701ED91FC910480F581E02DC701199558
:103810002D960FB6F894DEBF0FBECDBFCF91DF91CE
:103820001F910F91FF90EF90DF90CF90BF909F90EE
:103830008F9008954F925F926F927F928F929F9296
:10384000AF92BF92DF92EF92FF920F931F93DF939D
:10385000CF93CDB7DEB72D970FB6F894DEBF0FBE6E
:10386000CDBF4C012B013A0188DF90E3E92E98E0AF
:10387000F92E00E010E0DD245E010894A11CB11CCB
:10388000C5016D2DE4D3F70120813181F4018481DC
:1038900095812817390751F4C5012CD4873131F4AB
:1038A000C501B201A301E1D4080F191FD39482E02E
:1038B00090E0E80EF91E94E0D91611F7C8012D9694
:1038C0000FB6F894DEBF0FBECDBFCF91DF911F9131
:1038D0000F91FF90EF90DF90BF90AF909F908F90EF
:1038E0007F906F905F904F9008959F92AF92BF929C
:1038F000CF92DF92EF92FF920F931F93DF93CF93BC
:10390000CDB7DEB72D970FB6F894DEBF0FBECDBF93
:10391000C82E992E5B01CB0130DF00E318E0DD24D7
:103920007E010894E11CF11CC7016D2D90D3F801B4
:1039300020813181F501848195812817390749F566
:10394000C701D8D3873121F0C701D4D38C3109F511
:10395000C7017ED4892BE9F0EC2DF92D8B819C8158
:10396000938382838D819E81AF81B8858483958383
:10397000A683B78389859A85AB85BC858087918727
:10398000A287B38780E295E0918380838D858487C9
:103990000AC0D3940E5F1F4FF4E0DF1629F68C2D7A
:1039A000992D64E054D38C2D992D2D960FB6F89453
:1039B000DEBF0FBECDBFCF91DF911F910F91FF9062
:1039C000EF90DF90CF90BF90AF909F900895CF92EF
:1039D000DF92EF92FF920F931F93DF93CF93CDB7B8
:1039E000DEB72D970FB6F894DEBF0FBECDBF6C01CA
:1039F00000E010E07E010894E11CF11CC701602F7B
:103A000026D3C70177D38823B1F4F60144815581C9
:103A1000802F61E020E00E941126802F0E949F25C8
:103A2000000F111F005D174FF60184819581F80189
:103A30009183808305C00F5F1F4F04301105F1F69D
:103A40002D960FB6F894DEBF0FBECDBFCF91DF919C
:103A50001F910F91FF90EF90DF90CF9008950F93FB
:103A60008EE198E060E040E020E000E00E942D560A
:103A70000F9108959C01FB0182819381A481B581FE
:103A8000F90182839383A483B583178216820895F4
:103A9000CF93DF93FB0101C0319680818823E1F74A
:103AA000EB01A0E0B0E020E030E021C06E3261F434
:103AB0002F3F310509F07CF5FA01EA0FFB1F228345
:103AC000119620E030E012C0C901E3E0880F991F91
:103AD000EA95E1F7220F331F820F931F262F33271A
:103AE00027FD309520533040280F391F21966881DB
:103AF000662319F0A430B105CCF22F3F310509F04F
:103B000054F4A430B1053CF4A40FB51F12962C93C5
:103B100021E030E002C020E030E0C901DF91CF9128
:103B200008950F9384E298E060E040E020E000E038
:103B30000E942D560F9108952F923F924F925F92BF
:103B40006F927F928F929F92AF92BF92CF92DF92AD
:103B5000EF92FF920F931F93DF93CF93CDB7DEB712
:103B600069970FB6F894DEBF0FBECDBF4C018B0135
:103B70001A010E94C54B2B013C01F8E0EF2EF12CFD
:103B8000E80CF91C5801CC24DD2414C00E94C54B5C
:103B90006419750986099709A616B706C806D906D5
:103BA00018F42FEF3FEFF8C062E370E080E090E0A0
:103BB0000E94D34BC70173D6181619063CF7F401BF
:103BC0002281338144815581818D928DA38DB48D65
:103BD0008A879B87AC87BD87281739074A075B0709
:103BE00009F0D8C0858D968DC59709F0D3C0EEC079
:103BF0008E01025F1F4FC701B8014CE050E003D6B1
:103C0000F801528143815B834A83F4012681378125
:103C10008E859F852817390711F457FD05C0C70108
:103C2000BBD52CEF3FEFB8C04F705270452B29F039
:103C3000C701B2D52BEF3FEFAFC0F80176806780A8
:103C40006114710441F0AA24BB2448012E01089498
:103C5000411C511C24C0C7019FD52AEF3FEF9CC0D7
:103C6000C701B20141E050E0CED58981882319F423
:103C700007C0C701EAD58981815089838F5FC9F761
:103C80008981882369F700E010E0C701DED50F5F66
:103C90001F4F04301105C9F70894A11CB11CF40191
:103CA000D480C580AC14BD04D8F244245524C70187
:103CB000BE016F5F7F4F41E050E0A5D59981892F0C
:103CC000807C59F4992319F40BC0C701BED58981B2
:103CD000815089838F5FC9F703C0C701B6D51982A8
:103CE0008981882321F7C701BE016C5F7F4F42E0C5
:103CF00050E089D5C701BE016A5F7F4F42E050E0C6
:103D000082D500E010E0C701A0D50F5F1F4F04303F
:103D10001105C9F7C701BE016E5F7F4F42E050E059
:103D200072D5DC80CD80F1E0CF16D10401F5BE80E4
:103D3000AF8081E0A816B104D1F49A818B810497F9
:103D400029F0C70129D527EF3FEF26C0E2E0F0E0D8
:103D50002E0E3F1EC701B10144E050E054D521E0D2
:103D600030E01AC0C70171D50F5F1F4F02C000E0DD
:103D700010E09A808B8008151905A0F30894411C67
:103D8000511C4614570408F492CFC70105D526EFFD
:103D90003FEF02C02EEF3FEFC90169960FB6F894CE
:103DA000DEBF0FBECDBFCF91DF911F910F91FF906E
:103DB000EF90DF90CF90BF90AF909F908F907F90CB
:103DC0006F905F904F903F902F90089586EE95E012
:103DD00099878887C701C4D40C970CF009CF2DEFC1
:103DE0003FEFDACF6F927F928F929F92AF92BF9206
:103DF000CF92DF92EF92FF920F931F93DF93CF93B7
:103E000000D0CDB7DEB78C01F62EE72E0E94C54B51
:103E1000F80177836683B8E0CB2ED12CC00ED11E7B
:103E20000A5F1F4FC601B80142E050E08AD581E029
:103E300090E09B838A83A2E08A2E912C8C0E9D1E9B
:103E4000C601B40142E050E07CD580E091E09B8364
:103E50008A83C601B40142E050E073D51B821A8206
:103E6000C601B40142E050E06CD5C601B40142E0A5
:103E700050E067D5C601B40142E050E062D52F2D75
:103E80003E2DC9018C017C013E010894611C711C0E
:103E90001EC00894E11CF11CF7018081882311F0F9
:103EA0008E32B9F75701A01AB10A1A141B0464F430
:103EB0008E2D801B8983C601B30141E050E041D5BE
:103EC000C601B801A5013DD587010F5F1F4FF7015E
:103ED0008081882311F07801DFCF1982C601BE01ED
:103EE0006F5F7F4F41E050E02CD500E011E01B8375
:103EF0000A83C601B40142E050E023D51B830A8344
:103F0000C601B40142E050E01CD581E090E00F9082
:103F10000F900F90CF91DF911F910F91FF90EF9035
:103F2000DF90CF90BF90AF909F908F907F906F90D9
:103F300008958F929F92AF92BF92CF92DF92EF92AD
:103F4000FF920F931F93DF93CF9300D000D0CDB794
:103F5000DEB76C017B014A019BDD892B19F001E082
:103F600010E061C0F6012281338144815581809146
:103F7000260890912708A0912808B09129082817B1
:103F800039074A075B0719F40EEF1FEF4CC018E022
:103F9000A12EB12CAC0CBD1C0E94C54B9B01AC01E9
:103FA0002F70307020503C4FC501B90183D581304E
:103FB00019F000E010E037C086EE95E09A8389831F
:103FC000F60182819381A481B5818B839C83AD832B
:103FD000BE83C501BE016F5F7F4F45E350E0CED485
:103FE0008C010097F1F0C601B701FCDE8C0100974F
:103FF000C1F0C501C0D48C01009799F0EE24FF24D4
:10400000C60168E873E1A40197DD8C010894E11C06
:10401000F11CF3E0EF16F10421F08FEF0F3F1807CA
:1040200079F3C50133D5C80126960FB6F894DEBFE3
:104030000FBECDBFCF91DF911F910F91FF90EF90F9
:10404000DF90CF90BF90AF909F908F900895FC012C
:104050001382128288EE93E0A0E0B0E0848395831F
:10406000A683B78380E295E0918380836487089577
:10407000DF93CF930F92CDB7DEB7FC016983A081A8
:10408000B18112962D913C911397BE016F5F7F4FC6
:1040900041E050E0F90119950F90CF91DF9108951B
:1040A000CF93DF93EC0107C0E881F9810680F781A7
:1040B000E02DCE011995E881F9810480F581E02D8C
:1040C000CE011995892B81F7DF91CF91089520E0DA
:1040D000FC018485843009F021E0822F08950F933C
:1040E0008AE298E060E040E020E000E00E942D5687
:1040F0000F910895FC018485843011F480E00895C7
:10410000982F80E08D5F9B4F2AC7CF93DF93EC0100
:104110008C85843011F480E018C0CE01EBDF84314F
:1041200091F0882381F0883171F08C3151F4E8816D
:10413000F9810480F581E02DCE01199520E0892BCD
:1041400019F021E001C020E0822FDF91CF91089586
:10415000EF92FF920F931F93CF93DF93EC018C8527
:10416000843069F1E0D40E94C54B7B018C01CE0103
:10417000C1DF8823F9F00E94C54B6E197F09800BBF
:10418000910B685E734080409040A0F461E070E065
:1041900080E090E00E94D34BEACF8C8509D5EC8576
:1041A000F0E0EE0FFF1FE05DF74F1182108284E018
:1041B0008C8705C0CE019EDF882389F3EECFDF9187
:1041C000CF911F910F91FF90EF9008950F931F9340
:1041D000DF93CF930F92CDB7DEB78C01DC01ED9169
:1041E000FC910480F581E02D1995892B19F42FEFAE
:1041F0003FEF09C0F8018485BE016F5F7F4F23D672
:104200008981282F30E0C9010F90CF91DF911F9154
:104210000F910895FC01848524C6DF93CF930F92FC
:10422000CDB7DEB7FC018485BE016F5F7F4F41E0F3
:1042300050E017D6181619061CF02FEF3FEF03C0F9
:104240008981282F30E0C9010F90CF91DF91089527
:10425000FC016485643019F420E030E004C08EE491
:1042600098E028D79C01C90108950F931F93CF931D
:10427000DF938C01EA01FC018485843019F481E02C
:1042800090E006C091D5892B39F481E090E0F801E7
:1042900093838283C0E0D0E0CE01DF91CF911F9164
:1042A0000F910895AF92BF92CF92DF92EF92FF925B
:1042B0000F931F93CF93DF937C016B015A01FC0195
:1042C0008485843009F051C0C0E0D0E003E014E000
:1042D000C80145D6882321F0883111F08C3119F4BA
:1042E000F701C48706C0219600501F4FC430D10586
:1042F00079F7F70124852430C1F18091FC04909175
:10430000FD0401969093FD048093FC04892B31F405
:1043100080E094E09093FD048093FC044091FC04C1
:104320005091FD04822F61E020E07BD482E090E098
:10433000C80ED91EF7018485B601A501D0D408C0E6
:1043400061E070E080E090E00E94D34BC701D2DED4
:10435000882321F484E0F701848707C0C701CADEFF
:10436000873171F721E030E002C020E030E0C90180
:10437000DF91CF911F910F91FF90EF90DF90CF9041
:10438000BF90AF9008956F927F928F929F92AF925D
:10439000BF92CF92DF92EF92FF920F931F93DF9322
:1043A000CF93CDB7DEB7E5970FB6F894DEBF0FBE5B
:1043B000CDBF4C015B013A0193E1E92EF12CEC0EEB
:1043C000FD1EC7010E94A556CE014B96DED26E019E
:1043D0000894C11CD11CC6010E94A5568E01095F1C
:1043E0001F4FC80168E378E03AD0C701B80142DB4B
:1043F000C701B501A6019DDD9C0181309105C9F47D
:10440000D401ED91FC910484F585E02D86EE95E0D4
:104410009E878D878B819C81AD81BE818F87988B94
:10442000A98BBA8BC401BE01635F7F4FA3011995AD
:104430009C01C901E5960FB6F894DEBF0FBECDBF53
:10444000CF91DF911F910F91FF90EF90DF90CF9070
:10445000BF90AF909F908F907F906F900895DB01F9
:10446000FC0126EE35E03183208312962D913D919B
:104470004D915C911597228333834483558308952E
:104480000F9380E498E060E040E020E000E00E94CC
:104490002D5688E398E00E94A5560F9108956F92DB
:1044A0007F928F929F92AF92BF92CF92DF92EF92C4
:1044B000FF920F931F933C015B016A0149018EE457
:1044C00098E0F7D689E090E0B50146E050E020D5CD
:1044D00082E090E0C80ED91E8FE090E0B60144E083
:1044E00050E016D50E5F1F4F81E090E0B80144E028
:1044F00050E00ED5E2E0F0E0EE0EFF1E85E090E029
:10450000B70144E050E004D5F40182819381A48195
:10451000B581F30182839383A483B5831F910F91A7
:10452000FF90EF90DF90CF90BF90AF909F908F90D3
:104530007F906F9008956F927F928F929F92AF922B
:10454000BF92CF92DF92EF92FF920F931F93DF9370
:10455000CF93CDB7DEB76E970FB6F894DEBF0FBE20
:10456000CDBF4C013B017A0169015801CE01019692
:104570006FEF4FEF2FEF00E00E942D5626EE35E053
:1045800038872F83F70182819381A481B581898740
:104590009A87AB87BC873E872D87F60182819381FE
:1045A000A481B5818F87988BA98BBA8B3C8B2B8B81
:1045B000F50182819381A481B5818D8B9E8BAF8B18
:1045C000B88F3A8F298F8B819C81AD81BE818B8F73
:1045D0009C8FAD8FBE8FC401B301AE01495F5F4FA9
:1045E0009E01235F3F4F8E010D5E1F4FE9E1EE2ECE
:1045F000F12CEC0EFD1E53DF6E960FB6F894DEBF65
:104600000FBECDBFCF91DF911F910F91FF90EF9023
:10461000DF90CF90BF90AF909F908F907F906F90E2
:1046200008950F931F93DF93CF93CDB7DEB76897AD
:104630000FB6F894DEBF0FBECDBFFA01D9012281BB
:104640003381448155812B833C834D835E83E6EE29
:10465000F5E0F887EF8329873A874B875C87FE87E9
:10466000ED8712962D913D914D915C9115972F8775
:10467000388B498B5A8BFC8BEB8B21E02E832B8163
:104680003C814D815E812D8B3E8B4F8B588FAE01CF
:10469000495F5F4F9E01235F3F4F8E010D5E1F4FAD
:1046A0004ADF68960FB6F894DEBF0FBECDBFCF913C
:1046B000DF911F910F910895DF93CF93CDB7DEB7B0
:1046C00062970FB6F894DEBF0FBECDBFFA0122810C
:1046D0003381448155812B833C834D835E83E6EE99
:1046E000F5E0F887EF8329873A874B875C87FE8759
:1046F000ED8721E02E832B813C814D815E812F87C8
:10470000388B498B5A8BAE01495F5F4F9E01235F07
:104710003F4F87DF62960FB6F894DEBF0FBECDBF66
:10472000CF91DF910895DC01ED91FC91008CF18D2A
:10473000E02D19950895DB01FC0126EE35E031836B
:10474000208351962D913D914D915C9154972283F8
:104750003383448355830895FC01858996890895A0
:10476000FC01818D928D0895DF93CF930F92CDB789
:10477000DEB7FC016983A081B18112962D913C9135
:104780001397BE016F5F7F4F41E050E0F90119952B
:104790000F90CF91DF910895CF93DF93EC0107C085
:1047A000E881F9810680F781E02DCE011995898D88
:1047B0009A8D892BA9F7DF91CF9108950F9386E405
:1047C00098E060E040E020E000E00E942D560F916C
:1047D0000895DF93CF930F92CDB7DEB7FC01818DA3
:1047E000928D892B19F42FEF3FEF08C08485BE010D
:1047F0006F5F7F4F28D38981282F30E0C9010F9048
:10480000CF91DF910895CF93DF93EC019A01498D09
:104810005A8D4115510599F02417350710F08C85F4
:1048200002C08C85A9011DD39C01181619063CF401
:10483000898D9A8D821B930B9A8F898F02C02FEFDF
:104840003FEFC901DF91CF9108950F931F93DF933D
:10485000CF930F92CDB7DEB78C01FC01818D928D85
:10486000892BA1F08485BE016F5F7F4F41E050E04E
:10487000F8D21816190654F4F801818D928D01971B
:10488000928F818F8981282F30E002C02FEF3FEF78
:10489000C9010F90CF91DF911F910F910895EF9271
:1048A000FF920F931F93DF93CF93CDB7DEB7289777
:1048B0000FB6F894DEBF0FBECDBF8C01DC01ED91C9
:1048C000FC910284F385E02D19958EE498E0F801BF
:1048D0006485F0D3892B19F420E030E024C0D8019E
:1048E0001C968C917E010894E11CF11CB70148E0F4
:1048F00050E0B7D29C0118161906ACF4C8010F9607
:10490000B7010E9487569D8180E02E81820F911D04
:10491000F801968B858B9F8180E02885820F911D01
:10492000928F818F9C01C90128960FB6F894DEBF43
:104930000FBECDBFCF91DF911F910F91FF90EF90F0
:1049400008950F931F938C01FB019A01DC01579688
:104950006D917C9158971C968C91AF01F8D19C0178
:10496000F8018789908D820F931F908F878BC901E3
:104970001F910F910895FC018485FBC0FC01108EEE
:10498000178A6E5F7F4F848581C1FC01138212827A
:1049900088EE93E0A0E0B0E084839583A683B7839C
:1049A0008CE395E09183808384E08487CF010F9628
:1049B0000C94A5566F927F928F929F92AF92BF9266
:1049C000CF92DF92EF92FF920F931F93DF93CF93DB
:1049D000CDB7DEB7E5970FB6F894DEBF0FBECDBFFB
:1049E0004C015B013A0183E1E82EF12CEC0EFD1E37
:1049F000C7010E94A556CE014B96C7DF6E010894F1
:104A0000C11CD11CC6010E94A5568E01095F1F4F13
:104A1000C80168E378E023DDC701B8012BD8C701DE
:104A2000B501A60186DA9C0181309105C9F4D40153
:104A3000ED91FC910088F189E02D86EE95E09E874E
:104A40008D878B819C81AD81BE818F87988BA98B4F
:104A5000BA8BC401BE01635F7F4FA30119959C010E
:104A6000C901E5960FB6F894DEBF0FBECDBFCF915A
:104A7000DF911F910F91FF90EF90DF90CF90BF904B
:104A8000AF909F908F907F906F900895CF93DF931A
:104A9000EC018C85843059F08BD0EC85F0E0EE0F82
:104AA000FF1FE05DF74F1182108284E08C87DF9159
:104AB000CF910895CF92DF92EF92FF920F931F93C1
:104AC000CF93DF937C016B01FC018485843009F571
:104AD000C0E0D0E003E014E0C80141D2882311F027
:104AE000883119F4F701C48706C0219600501F4F82
:104AF000C430D10589F7F7018485843051F0D6861A
:104B0000C586128E118E62E0A60120E08AD081E077
:104B100001C080E0DF91CF911F910F91FF90EF9046
:104B2000DF90CF900895682F8EE498E048E050E041
:104B3000B0C390E0982F88278E5F9B4F10C21F93C1
:104B4000182F982F80E08D5F9B4F09D2833111F091
:104B500080E007C08EE498E0612F42E050E099D3F6
:104B600081E01F91089590E0982F88278E5F9B4FDA
:104B7000B5C11F93182F8EE498E0612F40E250E0FA
:104B800088D30AC0812FD5DF83FF06C0812F68E15B
:104B9000EADF20E030E009C0812FCBDF84FFF2CFD5
:104BA000812F60E1E0DF21E030E0C9011F9108952D
:104BB0001F93182F8EE498E0612F40E150E069D3F5
:104BC000812F6FEFD0DF1F910895FF920F931F93F6
:104BD000F62E672F082F10E00C5F1F4F102F0027B5
:104BE000C80140967BD1C80141966F2D77D11F91A6
:104BF0000F91FF900895FF920F931F93F62E672F4A
:104C0000082F10E00C5F1F4F102F0027C8010496DB
:104C100065D1C80105966F2D61D11F910F91FF904D
:104C20000895FF920F931F93CF93DF93082FF62ED3
:104C3000EA01122F862F8150853010F080E020C0CD
:104C4000802FB6DF1F2980E0902F9C5F612F46D117
:104C5000209719F0802FBE010BC060914C08709115
:104C60004D086F5F7F4F70934D0860934C08802F05
:104C7000C2DF8EE498E0602F41E050E00AD381E08B
:104C8000DF91CF911F910F91FF9008951F93CF93C4
:104C9000DF93182FFB01EA018081882349F4818189
:104CA000882331F48281882319F48381882381F059
:104CB000209771F0912F80E0845F9B4FBF0144E00B
:104CC00050E026D1812FBE0180DF21E030E002C01C
:104CD00020E030E0C901DF91CF911F9108951F932B
:104CE000CF93DF93182FFB01EA0180818F3F51F4AE
:104CF00081818F3F91F482818F3F79F483818F3F4F
:104D000061F420C0882349F48181882331F48281B1
:104D1000882319F483818823A9F0209799F0912F93
:104D200080E0845F9B4FBF0144E050E0F1D0812FD1
:104D3000BE014BDF8EE498E0612F44E050E0A9D241
:104D400081E001C080E0DF91CF911F910895AF9283
:104D5000BF92DF92EF92FF920F931F93CF93DF9357
:104D6000D82EEB015A0189018EE498E06D2DD1D146
:104D70008017910710F0780105C08EE498E06D2D42
:104D8000C8D17C018EE498E06D2DAE0195018701BC
:104D900006D1C701DF91CF911F910F91FF90EF9046
:104DA000DF90BF90AF900895AF92BF92DF92EF92E5
:104DB000FF920F931F93CF93DF93D82E5B018A014D
:104DC00088E04130580710F000E018E0DD2DC0E029
:104DD000CD5FDB4F8EE498E06D2D9BD17C01CE0141
:104DE000BED0873129F08C3119F000E010E003C00B
:104DF000E016F10678F38EE498E06D2DA501980198
:104E000039D18EE498E06D2D40E250E042D209C0E5
:104E1000CE01A5D0882329F48D2DCADE00E010E054
:104E200007C08D2D86DE84FFF3CF8D2D60E19BDEE4
:104E3000C801DF91CF911F910F91FF90EF90DF900C
:104E4000BF90AF9008950F93282FAB018EE498E0A8
:104E5000622F21E030E001E0D6D181E090E00F91B7
:104E60000895CF92DF92FF920F931F93CF93DF931A
:104E7000F82E6B018A018EE498E06F2D1BD1EC01B6
:104E8000009761F49F2D80E08D5F9B4F68D0843147
:104E9000C9F08823B9F08C31A9F01DC00817190793
:104EA0000CF4E8011C161D066CF48EE498E06F2DDE
:104EB000A6019E0100E0A7D18EE498E06F2D40E4AA
:104EC00050E0E7D1CE01DF91CF911F910F91FF907C
:104ED000DF90CF900895CFEFDFEFF4CF282F2C98FD
:104EE00080EF8EBD0DB407FEFDCF8EB59EBD0DB417
:104EF00007FEFDCF8EB52EBD0DB407FEFDCF8EB5DE
:104F00006EBD0DB407FEFDCF8EB52C9A81E00895DD
:104F1000DC0120E030E090EF1DC02C989EBD0DB468
:104F200007FEFDCF8EB5BEBD0DB407FEFDCF8EB51D
:104F3000AEBD0DB407FEFDCF8EB5FB01E20FF31F32
:104F400080818EBD0DB407FEFDCF11968EB52C9AD3
:104F50002F5F3F4F2417350700F3CA010895282F0C
:104F60002C988FE08EBD0DB407FEFDCF8EB59EBD93
:104F70000DB407FEFDCF8EB52EBD0DB407FEFDCFDF
:104F80008EB51EBC0DB407FEFDCF8EB52C9A0895CC
:104F900090E00496982F8827860F971FE0CF7F9286
:104FA0008F929F92AF92BF92CF92DF92EF92FF9239
:104FB0000F931F93CF93DF936C01762E7A014901F3
:104FC0005801862F64E270E0E3DF182F872D65E239
:104FD00070E0DEDFC82FD0E0912F80E0C82BD92B06
:104FE000CE0DDF1DAE015770872D90E0880F991F01
:104FF000C80ED91EF60120813181240F351FCA0148
:105000008A0D9B1D8150984090F000E018E0041B31
:10501000150BC901B401A8017BDFA501401B510B91
:10502000F60180819181080D191DB80103C0C901E5
:10503000B401A5016DDF7E01EA0CFB1C072D10E019
:105040000C5F1F4F102F0027C80184966F2D46DF7D
:10505000C80185966E2D42DFDF91CF911F910F9190
:10506000FF90EF90DF90CF90BF90AF909F908F9088
:105070007F9008950F931F93FA01890140E050E05B
:105080009F018DDF1F910F9108950F931F93182F8C
:1050900066E270E07DDF082F812F67E270E078DF45
:1050A000502F40E0282F30E0242B352BC9011F91D1
:1050B0000F910895FF920F931F93CF93DF93F62ED6
:1050C000C0E0D0E08F2DE1DF8C01009719F08F2D2B
:1050D000DCDFEC01C017D107A9F7CE01DF91CF913A
:1050E0001F910F91FF9008950F931F93182F60E267
:1050F00070E04EDF082F812F61E270E049DF502F12
:1051000040E0282F30E0242B352BC9011F910F914F
:105110000895FF920F931F93CF93DF93F62EC0E075
:10512000D0E08F2DE1DF8C01009719F08F2DDCDFAF
:10513000EC01C017D107A9F7CE01DF91CF911F91E4
:105140000F91FF900895DC0120E030E09FE01DC04A
:105150002C989EBD0DB407FEFDCF8EB5BEBD0DB41F
:1051600007FEFDCF8EB5AEBD0DB407FEFDCF8EB5EB
:105170001EBC0DB407FEFDCF11968EB5FB01E20FEC
:10518000F31F80832C9A2F5F3F4F2417350700F3BE
:10519000CA010895CF92DF92EF92FF920F931F936F
:1051A000CF93DF93690178015770C62FD0E0249622
:1051B000CC0FDD1FC80FD91F28813981240F351F5F
:1051C000C801840F951F8150984080F000E018E0DE
:1051D000041B150BC901B601A801B5DFE01AF10ADD
:1051E000888199810C0D1D1DB80102C0C901B6014D
:1051F000A701A9DFDF91CF911F910F91FF90EF9051
:10520000DF90CF9008958F929F92AF92BF92CF92EE
:10521000DF92EF92FF920F931F93CF93DF937C0166
:10522000A62E6A014901B02E862F68E270E0B0DE3A
:10523000182F8A2D69E270E0ABDEC82FD0E0912FE5
:1052400080E0C82BD92BC7016A2DAE0196018401DD
:10525000A1DFBB2089F47E01E80CF91C0A2D10E0C7
:105260000C5F1F4F102F0027C80188966F2D36DE68
:10527000C80189966E2D32DEDF91CF911F910F917B
:10528000FF90EF90DF90CF90BF90AF909F908F9066
:1052900008951F93162F962F80E08F5F9B4F642FEA
:1052A0001DDE812F61E070E073DE8823D1F71F914E
:1052B00008950F931F93182F092F6CE271E080E07F
:1052C00090E00E94D34B0E947A1B249A80E090E0E9
:1052D00060E804DE8BE190E065E500DE8AE190E0C5
:1052E00065E5FCDD212F302FC901FC0180E090E451
:1052F000918380838050904E918780878050984121
:10530000329620E68030920799F71F910F91089509
:10531000FC0180E695E09183808373836283089526
:10532000EF92FF920F931F93CF93DF937C018B013A
:10533000C0E0D0E0D7011296ED91FC911397EC0FED
:10534000FD1F6491662329F0C8010E94BD4E21967D
:10535000F1CFDF91CF911F910F91FF90EF900895C2
:1053600010926308109264081092670810926908FE
:1053700082E090E0A0E0B0E080936A0890936B0830
:10538000A0936C08B0936D081092810810928B085E
:1053900010928A0886E695E09093890880938808A1
:1053A00010928D080895FC01673020F086E1858316
:1053B00080E00895262F30E060FD02C0663019F4C9
:1053C0008DB58E7F02C08DB581608DBD8CB58C7F13
:1053D0008CBD4CB522FD02C090E001C092E0369534
:1053E0002795822F8170842B892B8CBD81E00895B5
:1053F000FF920F931F93CF93DF938B010E94C54BB6
:10540000EB01FF24FA94FEBC0DB407FEFDCF8EB570
:105410008F3F11F481E008C00E94C54B6C1B7D0BCF
:105420006017710780F380E0DF91CF911F910F919A
:10543000FF900895FC01848160E00C941C4BFC01FA
:10544000848161E00C941C4BDC016EBDFA0120E00C
:1054500030E00DB407FEFDCF80818EBD0DB407FE98
:10546000FDCF81818EBD2E5F3F4F329682E020308E
:10547000380779F70DB407FEFDCF8FEF8EBD0DB461
:1054800007FEFDCF8FEF8EBD0DB407FEFDCF8FEF72
:105490008EBD0DB407FEFDCF8EB51A968C931A976C
:1054A0008F71853011F481E0089581E115968C9318
:1054B0001597CD01C4DF80E00895FF920F931F93ED
:1054C000CF93DF93EC010E94C54B8B01FF24FA942C
:1054D00009C00E94C54B601B710B6D52714010F0EA
:1054E0008FE00DC0FEBC0DB407FEFDCF8EB58A87E0
:1054F0008F3F79F38E3F11F481E005C08DE08D83FD
:10550000CE019DDF80E0DF91CF911F910F91FF9041
:105510000895CF93DF93EC018E818823C9F08FEF3C
:105520008EBD2F8138854FEF04C00DB407FEFDCF2F
:105530004EBD2F5F3F4FC901019781509240A8F3A4
:1055400038872F830DB407FEFDCFCE0178DF1E8292
:10555000DF91CF910895DF92EF92FF920F931F9307
:10556000CF93DF93EC01D62E79018A01D2DFCE01F1
:1055700061DFCE016CE271E03BDF8D2D80648EBD7A
:105580000DB407FEFDCF28E130E0D801C701022E9F
:1055900004C0B695A795979587950A94D2F78EBDC6
:1055A0000DB407FEFDCF285030408FEF283F38075D
:1055B00061F7DD2011F485E906C088E0D81611F402
:1055C00087E801C08FEF8EBD0DB407FEFDCF90E0E0
:1055D0002FEF2EBD0DB407FEFDCF8EB587FF02C0A5
:1055E0009150B9F78A87DF91CF911F910F91FF906A
:1055F000EF90DF900895CF92DF92EF92FF920F939A
:105600001F93CF93DF93EC017A018B016901411560
:1056100051056105710511F482E133C08B8583303A
:1056200039F029E0EE0CFF1C001F111F2A95D1F75D
:10563000CE0168E1A80197018EDF882311F084E094
:1056400020C0CE016EEFA601FFDE8823D9F0CE0187
:1056500068E572E0CDDE882311F485E112C0CE0149
:105660006DE020E030E040E050E075DF882341F459
:105670008FEF8EBD0DB407FEFDCF8EB5882371F080
:1056800084E18D83CE01DBDE80E0DF91CF911F913D
:105690000F91FF90EF90DF90CF900895CE01CFDE75
:1056A00081E0F3CF8F929F92AF92BF92CF92DF9221
:1056B000EF92FF920F931F93CF93DF93EC015A0168
:1056C0006B0149010115110509F477C0C801820F6A
:1056D000931F8150924008F06CC08E81882371F036
:1056E00088819981AA81BB81481759076A077B077E
:1056F00029F48F8198858816990608F5A882B982C1
:10570000CA82DB828B85833039F069E0AA0CBB1C2E
:10571000CC1CDD1C6A95D1F7CE0161E1A601950193
:105720001ADF882319F083E08D8343C0CE01C5DEE4
:10573000882309F43EC018861F8281E08E838FEF94
:105740008EBD8F8198852FEF05C00DB407FEFDCF6C
:105750002EBD019688159905C0F398878F83D801CF
:10576000119720E030E09FEF0BC00DB407FEFDCF96
:105770008EB5F701E20FF31F80839EBD2F5F3F4F71
:105780002A173B0790F30DB407FEFDCF8EB5AE0D83
:10579000BF1D8C932F813885200F311F38872F83B1
:1057A0008985882319F02050324038F0CE01B1DECF
:1057B00004C0CE0144DE80E001C081E0DF91CF91E2
:1057C0001F910F91FF90EF90DF90CF90BF90AF901F
:1057D0009F908F900895EF92FF920F931F937901FE
:1057E00020E030E000E012E05DDF1F910F91FF90BC
:1057F000EF900895BF92CF92DF92EF92FF920F93B6
:105800001F93CF93DF93EC01B62E1B8619861E8261
:105810001D824C830E94C54B6B018C8161E00E940C
:10582000694ACE010CDE82E360E00E94694A83E3AC
:1058300061E00E94694A84E361E00E94694A85E36D
:1058400061E00E94694A85E361E00E941C4B83E5A8
:105850008CBD8DB58E7F8DBD80E09FEF9EBD0DB45C
:1058600007FEFDCF8F5F8A30C9F7CE01E3DD09C0A7
:105870000E94C54B6C197D09615D774010F081E095
:1058800059C0CE0160E020E030E040E050E063DE4F
:10589000182F8A87813061F7CE0168E02AEA31E06B
:1058A00040E050E058DE82FF02C01B8711C080E05C
:1058B0002FEF2EBD0DB407FEFDCF9EB58F5F843058
:1058C000C1F79A879A3A11F082E034C082E08B8760
:1058D0008B85823021F0EE24FF2487010FC0E12C5C
:1058E000F12C012DF0E41F2F09C00E94C54B6C194B
:1058F0007D09615D774010F088E01CC0CE0167E350
:1059000020E030E040E050E026DECE0169E2A80170
:10591000970121DE8A87882341F78B85823021F524
:10592000CE016AE320E030E040E050E014DE88235E
:1059300031F086E08D83CE0182DD80E01AC08FEFEA
:105940008EBD0DB407FEFDCF8EB5807C803C11F47A
:1059500083E08B8780E09FEF9EBD0DB407FEFDCFF7
:105960002EB58F5F8330C1F7CE0169DDCE016B2D7F
:105970001ADDDF91CF911F910F91FF90EF90DF9093
:10598000CF90BF9008958091A90A882389F1409112
:10599000FE045091FF046091000570910105809113
:1059A000A70A9091A80A27EA38E025DE882311F19A
:1059B0004091AA0A5091AB0A6091AC0A7091AD0A6D
:1059C000411551056105710589F08091A70A9091F3
:1059D000A80A27EA38E00FDE882361F01092AA0AAD
:1059E0001092AB0A1092AC0A1092AD0A1092A90A5A
:1059F00081E0089580E00895EF92FF920F931F9346
:105A00007B018C01C0DF8823A9F0E7EAF8E011925E
:105A10008AE0E73AF807D9F7E092FE04F092FF0433
:105A200000930005109301058091A90A816080937D
:105A3000A90A81E01F910F91FF90EF900895DF92E6
:105A4000EF92FF920F931F937B018C01D42E8091D4
:105A5000FE049091FF04A0910005B09101058E1500
:105A60009F05A007B107B1F08EDF8823D1F08091A8
:105A7000A70A9091A80AB801A70127EA38E0ABDE8F
:105A8000882379F0E092FE04F092FF040093000571
:105A9000109301058091A90A8D298093A90A81E0BC
:105AA00001C080E01F910F91FF90EF90DF9008956B
:105AB0008F929F92AF92BF92CF92DF92EF92FF921E
:105AC0000F931F93CF93DF936C01142F7093A80A49
:105AD0006093A70A442321F48824992454013FC0E9
