:100000000CC500000C9498580C94C3580C94EE58EE
:100010000C9419590C9444590C946F590C949A5996
:100020000C94C5592BC5000029C5000027C5000048
:1000300025C5000023C5000021C500000C9487568B
:100040001DC500001BC5000019C5000017C5000034
:1000500015C5000013C5000011C500000C94F1592E
:100060000DC500000C942C5E0C94625E07C5000068
:1000700005C5000003C5000001C50000FFC4000065
:10008000FDC40000FBC40000F9C400000C94D2576A
:100090000C94D75E0C940D5FF1C40000EFC4000017
:1000A000EDC40000EBC40000E9C40000E7C4000098
:1000B000E5C40000E3C40000E1C40000DFC40000A8
:1000C000DDC40000DBC40000D9C40000D7C40000B8
:1000D000D5C40000D3C40000D1C40000CFC40000C8
:1000E000CDC4000072583C58445850585D587E5852
:1000F0008B58325B375B3C5B465B505BC95B5A5B42
:10010000625B6A5B745B7E5B885B975BA15BC95BD0
:10011000AB5BB55BBF5BEB5BEE5BDD5BE15BE75B6A
:10012000255CF25BF65BFC5B005C045C0A5C0E5CCD
:10013000125C255C185C1C5C205C524553455400E5
:100140005745423A005A34443A00504D503A004420
:100150004D553A00504F443A00414C473A00414C0B
:100160004D3A004D41503A0044414C4C3A00434F07
:100170004E3A0054494D3A0053443A206272616B42
:1001800020706C696B7520636F6E6669672E74787A
:10019000740A005858544553545F4E5231207A6EB9
:1001A000616C657A696F6E6F005D00636F6E666982
:1001B000673A205B0049503A206272616B204574B7
:1001C000686572536869656C642E2E2E0057575708
:1001D0003A7374726F6E6120676F746F7761005746
:1001E00057573A7572756368616D69616D207374F4
:1001F000726F6E652E2E2E0049503A204F4B2E2ED8
:100200002E0A49503A20002E002E002E00576F6C07
:100210006E792052414D3A0049503A206B6F6E661C
:100220006967757261636A612073696563692E2EFF
:100230002E00576F6C6E792052414D3A00576F6C0B
:100240006E792052414D3A00576F6C6E79205241C1
:100250004D3A0053443A20626C6164206F64637AC3
:100260007974752064616E7963680053443A206242
:100270006C6164206B617274790053443A2062723D
:10028000616B206B6172747900302E312E302E3309
:1002900038004C75636A616E20762E00227D003036
:1002A0002E312E302E3338002C22766572223A22DF
:1002B000007B2274696D65223A0061636365737324
:1002C0002D636F6E74726F6C2D616C6C6F772D6F18
:1002D000726967696E3A202A0A0061636365737305
:1002E0002D636F6E74726F6C2D616C6C6F772D6FF8
:1002F000726967696E3A202A0A00616363657373E5
:100300002D636F6E74726F6C2D616C6C6F772D6FD7
:10031000726967696E3A202A0A00227D00302E3108
:100320002E302E3338002C22766572223A2200229B
:1003300074696D65223A002C003000310022637729
:100340007532223A20002C0030003100226377758C
:1003500031223A20002C003000310022636F223A13
:1003600020002C003000310022706F64223A2000FF
:100370002C0022637A706F64223A20002C002277CE
:10038000656E31223A20002C002277656E30223AC9
:1003900020007D5D2C007B2274223A20007D2C0001
:1003A0007B22746865726D6F73223A5B00616363D0
:1003B0006573732D636F6E74726F6C2D616C6C6FEF
:1003C000772D6F726967696E3A202A0A002E0061E4
:1003D00063636573732D636F6E74726F6C2D616CE4
:1003E0006C6F772D6F726967696E3A202A0A002058
:1003F000743A00206F3A0020703A002049443A00D5
:1004000044414C4C415320005757573A205A617091
:100410006973616E6F20002062616A746F77207764
:100420002000206D7320286F64656272616E6F20FA
:10043000002062616A746F77290A005757573A2083
:100440004F7477696572616D20005757573A206283
:1004500072616B20706C696B753A20005757573A80
:10046000204F64637A797420706C696B753A00610F
:1004700063636573732D636F6E74726F6C2D616C43
:100480006C6F772D6F726967696E3A202A0A005780
:1004900057573A20426C616420706172736F7761C4
:1004A0006E69612055524C0053443A206272616B70
:1004B00020706C696B7520706F64616A6E696B2E59
:1004C0007478740044414C4C4153204E52203D20DE
:1004D0000044414C4C41533A204B6F6E6965632098
:1004E000706F737A756B6977616E696120637A7575
:1004F0006A6E696B6F772E00202054656D7065728F
:100500006174757261203D2000204352433D0020FC
:100510002044617461203D200020437A6173207083
:100520006F6272616E69612064616E796368207ABE
:1005300020637A756A6E696B61203D200020437AE2
:100540006173206B6F6D656E6461206B6F6E776594
:1005500072736A6920646C6120637A756A6E696B74
:1005600061203D2000204E69657A6E616E792044DD
:1005700053313878780020445331383232002044E7
:100580005331384232300020445331385332300036
:10059000626C6164204352430044414C4C41533AE5
:1005A000204944203D0044414C4C41533A20506F77
:1005B000637A6174656B20706F737A756B697761AC
:1005C0006E696120637A756A6E696B6F772E0020A1
:1005D000743A00206F3A0020703A002049443A00F3
:1005E00044414C4C41532000504B543A2045545800
:1005F00000504B543A205354580030323031303090
:10060000303630303030303030303631303300003A
:10061000316253C4F5A697B988DBEA7D4C1F2E439F
:1006200072211087B6E5D4FACB98A93E0F5C6D868F
:10063000B7E4D5427320113F0E5D6CFBCA99A8C583
:10064000F4A796013063527C4D1E2FB889DAEB3D3A
:100650000C5F6EF9C89BAA84B5E6D7407122137E61
:100660004F1C2DBA8BD8E9C7F6A59403326150BB55
:100670008AD9E87F4E1D2C02336051C6F7A495F845
:10068000C99AAB3C0D5E6F4170231285B4E7D67AF0
:100690004B1829BE8FDCEDC3F2A1900736655439A3
:1006A000085B6AFDCC9FAE80B1E2D344752617FC8F
:1006B000CD9EAF38095A6B4574271681B0E3D2BF7F
:1006C0008EDDEC7B4A192806376455C2F3A09147AA
:1006D00076251483B2E1D0FECF9CAD3A0B58690465
:1006E000356657C0F1A293BD8CDFEE79481B2AC155
:1006F000F0A3920534675678491A2BBC8DDEEF8241
:10070000B3E0D1467724153B0A5968FFCE9DAC7CF7
:100710003C3E5E2B3D3F2F5B5D3B2C2A225C002044
:100720004F4B0D0A00485454502F312E31200043B6
:100730006F6E74656E742D547970653A200048545C
:100740004D2A746578742F68746D6C7C5458542AE3
:10075000746578742F706C61696E7C4353532A748E
:100760006578742F6373737C584D4C2A7465787464
:100770002F786D6C7C4A532A746578742F6A617681
:10078000617363726970747C4749462A696D616759
:10079000652F6769667C4A50472A696D6167652FD6
:1007A0006A7065677C504E472A696D6167652F7076
:1007B0006E677C49434F2A696D6167652F766E6469
:1007C0002E6D6963726F736F66742E69636F6E7CD2
:1007D0004D50332A617564696F2F6D7065677C00B9
:1007E000005EBCE2613FDD83C29C7E20A3FD1F4111
:1007F0009DC3217FFCA2401E5F01E3BD3E6082DC01
:10080000237D9FC1421CFEA0E1BF5D0380DE3C62F0
:10081000BEE0025CDF81633D7C22C09E1D43A1FFE0
:100820004618FAA427799BC584DA3866E5BB5907D0
:10083000DB856739BAE406581947A5FB7826C49AC0
:10084000653BD987045AB8E6A7F91B45C6987A24B0
:10085000F8A6441A99C7257B3A6486D85B05E7B9A0
:100860008CD2306EEDB3510F4E10F2AC2F7193CD90
:10087000114FADF3702ECC92D38D6F31B2EC0E5080
:10088000AFF1134DCE90722C6D33D18F0C52B0EE70
:10089000326C8ED0530DEFB1F0AE4C1291CF2D7360
:1008A000CA947628ABF517490856B4EA6937D58B50
:1008B0005709EBB536688AD495CB2977F4AA481640
:1008C000E9B7550B88D6346A2B7597C94A14F6A830
:1008D000742AC896154BA9F7B6E80A54D7896B3520
:1008E00000000A0B02090C0D0E08070304010000AA
:1008F00000000000000000000000000000000000F8
:1009000000000000000000000000000012111000B4
:1009100000000000000000000000000000000000D7
:1009200000000000000001021020200808102040F4
:1009300010204080020102010804020101020408A3
:100940001020408080402010080402018004020131
:10095000804020100804020108040201010204087A
:100960001020408001020408102040800505050584
:10097000070508080808020202020A0A0808040417
:100980000404010101010101010103030303030345
:100990000303040707070C0C0C0C0C0C0C0C0202D4
:1009A000020206060606060606060B0B0B0B0B0BD1
:1009B0000B0B000020002300260029002C002F0034
:1009C00032000001000003010601090100002200BD
:1009D000250028002B002E00310034000201000009
:1009E000050108010B0100002100240027002A0056
:1009F0002D003000330001010000040107010A014D
:100A00000426BC2C072D2A31F7327B34C636693DCB
:100A10005C402753945E3F5FEA5F11241FBECFEF17
:100A2000D1E2DEBFCDBF00E00CBF17E0A0E0B2E036
:100A3000E8E9F5ED00E00BBF02C007900D92A23A85
:100A4000B107D9F72FE0A2EAB7E001C01D92AB31A0
:100A5000B207E1F71AE0CAE1DAE000E006C0229747
:100A60000109FE010BBF0E94B267C030D10780E0D0
:100A70000807A9F70E9406650C94CA6AC1CA8CB11E
:100A80008295817008954F925F926F927F928F92BC
:100A90009F92AF92BF92CF92DF92EF92FF926C0142
:100AA000CA0179016130710509F44EC062307105E7
:100AB00009F46FC0672B09F0D0C00E943B5A6093C5
:100AC000A6077093A7078093A8079093A907109291
:100AD000A2071092A3071092A4071092A507809175
:100AE00063098111BAC0C6010E94924E0E944B4F09
:100AF0007C01009709F4B1C06BE374E086ED9DE0E2
:100B00000E943760B70186ED9DE00E94686062E94F
:100B100077E086ED9DE00E94686022E5A7016BE723
:100B200079E08EE599E00E94E344C701FF90EF90E1
:100B3000DF90CF90BF90AF909F908F907F906F90FD
:100B40005F904F900C947C68209163092223F9F008
:100B5000A701BC018EE599E00E94C245A701662766
:100B600057FD6095762F8091A2079091A307A091E1
:100B7000A407B091A507840F951FA61FB71F8093E8
:100B8000A2079093A307A093A407B093A507A895E5
:100B900064C08EE599E00E9474438090A207909013
:100BA000A307A090A407B090A5070E943B5A6B0131
:100BB0007C018091A6079091A707A091A807B0910A
:100BC000A907C81AD90AEA0AFB0A4090710950908D
:100BD0007209609073097090740968E074E086EDA2
:100BE0009DE00E9437602AE030E0B301A20186ED6B
:100BF0009DE00E94546167E174E086ED9DE00E94F3
:100C000037602AE030E0B701A60186ED9DE00E9442
:100C1000546162E274E086ED9DE00E9437602AE054
:100C200030E0B501A40186ED9DE00E94546161E3CE
:100C300074E086ED9DE00E9437608EE599E0FF90BC
:100C4000EF90DF90CF90BF90AF909F908F907F906C
:100C50006F905F904F900C94B943FF90EF90DF90AE
:100C6000CF90BF90AF909F908F907F906F905F904C
:100C70004F9008950F931F93CF93DF938C01EC0156
:100C8000629668EC70E0CE010E94284E67EA72E03E
:100C9000C8010E94784ECE010E94706062EB72E043
:100CA000CE010E9468606091420A7091430A4AE056
:100CB00050E0CE010E947B6166EB72E0CE010E94A3
:100CC000686060913D0A70913E0A4AE050E0CE01B2
:100CD0000E947B616CEB72E0CE010E9468606091C3
:100CE0003A0A70913B0A4AE050E0CE010E947B61D3
:100CF00080917002882329F062EC72E0CE010E949C
:100D0000836081E0DF91CF911F910F9108957F92D1
:100D10008F929F92AF92BF92CF92DF92EF92FF920B
:100D20000F931F93CF93DF935C01EC01629668EC05
:100D300070E0CE010E94284E67EA72E0C5010E9471
:100D4000784ECE010E94706087EAC82E88E0D82EC7
:100D50000FE918E0712C60E074E0CE010E9437606A
:100D60004AE050E0672DCE010E9460616BEF73E0B6
:100D7000CE010E943760E12CF12C48018E0C9F1CA3
:100D8000D4018C91803158F4D5015296ED91FC91AB
:100D900053970190F081E02D60E3CE01199540E179
:100DA00050E0F4016081CE010E946061FFEFEF1A14
:100DB000FF0A88E0E816F10401F767EF73E0CE015F
:100DC0000E9437604AE050E0D6016C91CE010E944B
:100DD000606163EF73E0CE010E943760F8016385C4
:100DE00074854AE050E0CE010E9427616FEE73E007
:100DF000CE010E943760D80119966D917C911A97A7
:100E00004AE050E0CE010E942E617394BDE0CB0E0B
:100E1000D11C035F1F4FE8E07E129DCF81E0DF9180
:100E2000CF911F910F91FF90EF90DF90CF90BF90E7
:100E3000AF909F908F907F9008950F931F93CF93C3
:100E4000DF938C01EC01629668EC70E0CE010E94A9
:100E5000284E6FEC72E0C8010E94784E6AEF72E093
:100E6000C8010E943760CE010E94706069ED72E097
:100E7000CE010E94836081E08093480ADF91CF9188
:100E80001F910F9108950F931F93CF93DF938C01C0
:100E9000EC01629668EC70E0CE010E94284E6FEC87
:100EA00072E0C8010E94784E6AEB72E0C8010E94AD
:100EB0003760CE010E94706061EB72E0CE010E944B
:100EC00037600E943B5A28EE33E040E050E00E9439
:100ED0005567BA01A9012AE030E0CE010E945461B1
:100EE00068EA72E0CE010E9437606FE972E0CE01DD
:100EF0000E9437606CE972E0CE010E94736081E06D
:100F0000DF91CF911F910F9108950F931F93CF936E
:100F1000DF938C01EC01629668EC70E0CE010E94D8
:100F2000284E67EA72E0C8010E94784ECE010E9406
:100F3000706040915A0A50915B0A60915C0A70910E
:100F40005D0A22E030E0CE010E9476628EE59AE0F2
:100F50000E9417574AE050E0682FCE010E94666158
:100F60006091380A7091390A4AE050E0CE010E943F
:100F70007B614091560A5091570A6091580A7091CE
:100F8000590A2AE030E0CE010E948F616091360A52
:100F90007091370A4AE050E0CE010E942E616091C4
:100FA0008402709185024AE050E0CE010E947B618C
:100FB0004AE050E060914D0ACE010E946661609166
:100FC000400A70E04AE050E0CE010E942E6160913C
:100FD0001208709113084AE050E0CE010E942E6181
:100FE00060911808709119084AE050E0CE010E9403
:100FF0002E616091E8077091E9074AE050E0CE0168
:101000000E942E61CE010E9470606091DD07709198
:10101000DE074AE050E0CE010E942E616091DC07BD
:1010200070E04AE050E0CE010E942E616091DB0743
:1010300070E04AE050E0CE010E942E6185E40E94FB
:10104000945C892B19F06CED72E002C061EE72E0E5
:10105000CE010E94836084E40E94945C892B19F085
:101060006CED72E002C061EE72E0CE010E9483601E
:1010700081E0DF91CF911F910F9108950F931F93FE
:10108000CF93DF938C01EC01629668EC70E0CE01A7
:101090000E94284E67EA72E0C8010E94784ECE0195
:1010A0000E94706066EB72E0CE010E94686085E489
:1010B0000E94945C4AE050E0BC01CE010E942E6187
:1010C0006CEB72E0CE010E94686084E40E94945C44
:1010D0004AE050E0BC01CE010E942E6167EE72E052
:1010E000CE010E9468604AE050E06091330ACE0170
:1010F0000E94666180917002882329F062EC72E0A0
:10110000CE010E9483606091C4097091C5094AE0D4
:1011100050E0CE010E947B614AE050E06091C2093C
:10112000CE010E94666181E0DF91CF911F910F9106
:1011300008950F931F93CF93DF938C01EC01629678
:1011400068EC70E0CE010E94284E6FEC72E0C8019E
:101150000E94784E6FEC73E0C8010E943760CE01A8
:101160000E94706063EF72E0CE010E94686085E4C7
:101170000E94945C892B19F06CED72E002C061EE64
:1011800072E0CE010E9468606DEF72E0CE010E94B5
:1011900068606FEF72E0CE010E94686084E40E9494
:1011A000945C892B19F06CED72E002C061EE72E084
:1011B000CE010E94686068E073E0CE010E94686022
:1011C00081E0DF91CF911F910F910895811104C0AB
:1011D000809108018F7D03C0809108018062809317
:1011E00008010895CF92DF92EF92FF920F931F9321
:1011F000CF93DF9300D01F92CDB7DEB77C016B0198
:1012000000E010E0D70114968D919C911597081776
:10121000190720F5D7011296ED91FC911397E00F75
:10122000F11F449150E060E070E049835A836B8382
:101230007C83642F4AE050E0C6010E946061F701A0
:101240008481958101970817190728F46DEF72E0E2
:10125000C6010E9468600F5F1F4FD4CF0F900F90A0
:101260000F900F90DF91CF911F910F91FF90EF9012
:10127000DF90CF900895EF92FF920F931F93CF933B
:10128000DF93CDB7DEB72C970FB6F894DEBF0FBE55
:10129000CDBF7C018C010E5E1F4F68EC70E0C80171
:1012A0000E94284E6FEC72E0C7010E94784E6AEDF2
:1012B00072E0C7010E943760C8010E947060C701D8
:1012C0000E94924EBC01CE0107960E9437636AE0ED
:1012D00073E0CE0101960E943763BE016F5F7F4FBE
:1012E000CE0107960E941E64F82ECE0101960E9440
:1012F000D062FF20C1F02B853C854AE050E0BE0162
:10130000695F7F4FCE0101960E945C64CE01019619
:101310000E94FB6460932408CE0101960E94D06273
:1013200069ED72E002C065E173E0C8010E9483606C
:10133000CE0107960E94D06281E02C960FB6F894F9
:10134000DEBF0FBECDBFDF91CF911F910F91FF90F8
:10135000EF900895DC01ED91FC910190F081E02D7A
:101360001994813410F0875301C08053613410F018
:10137000675301C0605320E1829FC0011124862B76
:101380000895CF93DF9300D01F92CDB7DEB7909131
:10139000CF09923019F061EF75E011C02091CB09AF
:1013A00030E02153364FF90131979081933029F481
:1013B000A1E040E090E0029707C068EE75E086ED9E
:1013C0009DE00E94736025C06A2F70E0681779075E
:1013D000ACF4FB01E153F64F60816427E0913809DA
:1013E000F0913909E60FF11D449150E060E070E0A2
:1013F00049835A836B837C83AF5FE6CFF9013297D1
:101400008081841741F068E173E086ED9DE00E94E1
:10141000836080E001C081E00F900F900F900F90EB
:10142000DF91CF91089580910709882329F0809159
:10143000070981508093070908950F931F93CF9355
:10144000DF930FE918E0C0E0D0E048E050E0B801D9
:101450008CE099E00E94556A892B41F02196035F48
:101460001F4FC830D10589F7CFEFDFEFCE01DF91F5
:10147000CF911F910F91089590912209973011F10A
:1014800060E04DE0949F90011124462F50E0F90157
:10149000E40FF51FE156F74FDA01A45FB64F4C9108
:1014A000408341E0460F483010F4642FEECF409364
:1014B0002309F901E156F74F80879F5F9093220936
:1014C00081E0089580E00895BF92CF92DF92EF927D
:1014D000FF920F931F93CF93DF9397EAE92E98E043
:1014E000F92ECFE9D8E0B12C60EE75E086ED9DE0F5
:1014F0000E9437604AE050E06B2D86ED9DE00E942F
:1015000060616BED75E086ED9DE00E94376000E064
:1015100010E06E01C00ED11EF6018081803128F4EA
:1015200060E370E086ED9DE015DF40E150E0F601FC
:10153000608186ED9DE00E9460610F5F1F4F083063
:10154000110539F767ED75E086ED9DE00E94376083
:101550004AE050E0F701608186ED9DE00E94606105
:1015600063ED75E086ED9DE00E9437606B857C85BC
:101570004AE050E086ED9DE00E9427616FEC75E047
:1015800086ED9DE00E94376069857A854AE050E0EB
:1015900086ED9DE00E942E61B394FDE0EF0EF11CFC
:1015A0002D9688E0B812A0CFDF91CF911F910F91B7
:1015B000FF90EF90DF90CF90BF90089584E299E084
:1015C0000E94405384E299E00E945A5441E064E44E
:1015D00084E299E00C94D353CF9384E299E00E9483
:1015E0004053809321096CE079E084E299E00E9405
:1015F0002F5440E06EEB84E299E00E94D3531092A6
:101600002309C0912309C93078F484E299E00E944B
:101610001454EC2FF0E0EC5EF64F808380912309A8
:101620008F5F80932309EDCF68E084E199E00E9409
:10163000235591E020911C09821390E0892FCF91CE
:10164000089580910C09823241F0883231F0803166
:1016500021F481E08093200902C01092200920919A
:10166000150930E0322F222780911409282B809110
:101670002009882399F073E0220F331F7A95E1F750
:1016800080911B098031F9F440911A098CE090E0B7
:10169000841B9109207F280F391F15C080911809DC
:1016A000807631F463E0220F331F6A95E1F70BC0B7
:1016B000803229F4220F331F220F331F04C08034DD
:1016C00011F4220F331F4AE0429FC001439F900D47
:1016D000112497FD0F9624E0959587952A95E1F7BB
:1016E0000895AF92BF92CF92DF92EF92FF920F9345
:1016F0001F93CF93DF9366EA75E086ED9DE00E942D
:10170000736086ED9DE00E9470601DE0CCE0D0E04B
:101710006CE079E084E299E00E949054882309F417
:1017200091C169E975E086ED9DE00E9437601092F5
:101730002309E0912309E830E8F4F0E0E45FF64F94
:10174000008160E270E086ED9DE004DE003128F467
:1017500060E370E086ED9DE0FDDD40E150E0602F4C
:1017600086ED9DE00E946061809123098F5F8093E8
:101770002309DFCF67E08CE099E00E942355909128
:101780001309891739F060E975E086ED9DE00E9444
:101790007360BECF80910C09823289F0883261F08B
:1017A0008031B1F467E875E086ED9DE00E947360DA
:1017B00081E0809320091CC06EE775E002C066E7F7
:1017C00075E086ED9DE00E9473601092200910C0C4
:1017D00065E675E086ED9DE0DF91CF911F910F9159
:1017E000FF90EF90DF90CF90BF90AF900C9473601C
:1017F0000E943B5A609308097093090980930A0973
:1018000090930B09DBDE0E943B5AC0900809D090F0
:101810000909E0900A09F0900B096C197D098E09FD
:101820009F09609308097093090980930A099093AE
:101830000B096DE375E086ED9DE00E9437604091F5
:1018400008095091090960910A0970910B092AE071
:1018500030E086ED9DE00E94446168EE73E080E038
:1018600090E00E946A5A0E943B5A60930809709364
:10187000090980930A0990930B09AEDE0E943B5A36
:10188000C0900809D0900909E0900A09F0900B096E
:101890006C197D098E099F096093080970930909E5
:1018A00080930A0990930B0969E175E086ED9DE04C
:1018B0000E943760409108095091090960910A0916
:1018C00070910B092AE030E086ED9DE00E944461B2
:1018D0006FE075E086ED9DE00E94376040E150E0EA
:1018E0006091210986ED9DE00E94606160E270E0F8
:1018F00086ED9DE02FDD1092230980912309893028
:10190000F8F460E270E086ED9DE024DDE0912309CB
:10191000F0E0EC5EF64F0081003128F460E370E007
:1019200086ED9DE017DD40E150E0602F86ED9DE003
:101930000E946061809123098F5F80932309DDCF2E
:1019400069E075E086ED9DE00E94376068E084E123
:1019500099E00E94235540E150E0682F86ED9DE01C
:101960000E94606186ED9DE00E94706060911509A3
:1019700070E0762F662780911409682B80912009EA
:10198000882391F003E0660F771F0A95E1F78091B5
:101990001B098031F1F480911A099E01281B31093D
:1019A000607F620F731F15C080911809807631F433
:1019B000B3E0660F771FBA95E1F70BC0803229F4C8
:1019C000660F771F660F771F04C0803411F4660F0F
:1019D000771F882777FD8095982F0E94186620E052
:1019E00030E040E85DE30E94CC666B017C0168EF6B
:1019F00074E086ED9DE00E94376022E030E0B701A0
:101A0000A60186ED9DE00E94766281E035DD809141
:101A1000220990E00197189F5001199FB00C1124E2
:101A2000C5018156974F5C0120E030E040E251E46F
:101A3000C701B6010E94CC660E94E565F501728778
:101A4000618766CE61ED74E086ED9DE00E94736073
:101A500086ED9DE00E94706084E299E00E945D54F2
:101A60006AEF70E080E090E0DF91CF911F910F91DD
:101A7000FF90EF90DF90CF90BF90AF900C946A5A98
:101A800084E299E00E945D546AEF70E080E090E0AB
:101A90000E946A5A26DE18CDCF93DF9380912209E7
:101AA000882309F43CC0C0919E08C11105C088E09C
:101AB0008093070983DD26C080910709811127C023
:101AC000C1509DE0C99FE0011124E82FF0E0DF0143
:101AD000A45FB64FEC0FFD1FE156F74F90819C932A
:101AE0008F5F883090F38093230976DDC156D74FFE
:101AF000882339F0A6DD9A87898780912109888714
:101B000001C0188680919E088F5F80939E089091F7
:101B10009E0880912209891710F410929E08DF9187
:101B2000CF9108956F927F928F929F92AF92BF92C2
:101B3000CF92DF92EF92FF920F931F93CF93DF9399
:101B400040914009509141096091420970914309C7
:101B50001091440900914509F0904609E090470929
:101B6000D0904809C0904909B0904A09A0904B090B
:101B700090904C0980904D0970904E0960904F09EB
:101B800020912209EEE4F8E0A1E5B8E03DE0ED01A6
:101B900021978881823041F58C91882389F08130AA
:101BA00091F0823099F0833099F0843099F085304B
:101BB00099F0863099F0873099F099E18CEF11C057
:101BC000942F852F0EC0962F872F0BC0C80109C0F8
:101BD000C70107C0C60105C0C50103C0C40101C0DB
:101BE000C3019083818314C0833081F4CC91C217E8
:101BF00040F43C9FE0011124C156D74F89859A8556
:101C000002C08AE19CEF9183808302C0118210821E
:101C10003596159688E0EE39F80709F0B8CFDF91D0
:101C2000CF911F910F91FF90EF90DF90CF90BF90D9
:101C3000AF909F908F907F906F900895CF93DF9398
:101C4000C82FDD27C7FDD095CE010E94296A892BB8
:101C500049F0CE010E94446A90ED980F9A3020F02E
:101C6000875303C08FEF01C0892FDF91CF91089573
:101C70009F92AF92BF92CF92DF92EF92FF920F931B
:101C80001F93CF93DF93CDB7DEB72C970FB6F894A1
:101C9000DEBF0FBECDBF6C018B01CB010E949F64E4
:101CA0006BE5C8010E9459647C0197FDA4C1AC0199
:101CB0006DE5C8010E943E645C01A7016CE2C801A9
:101CC0000E943E641A141B040CF095C163E373E098
:101CD000CE0107960E943763BE01695F7F4FC8013E
:101CE0000E941E64811116C067EE75E0CE01019658
:101CF0000E943763BE016F5F7F4FC8010E941E6460
:101D0000BB24B394811101C0B12CCE0101960E9475
:101D1000D06202C0BB24B394CE0107960E94D06269
:101D2000BB2009F4B3C0F80124813581A7014F5FBE
:101D30005F4FB801CE0101960E945C64BE016F5FE7
:101D40007F4FC8010E949D63CE0101960E94D06220
:101D5000C8010E949F6461E273E0CE0101960E9477
:101D60003763BE016F5F7F4FC8010E941E64F82E6B
:101D7000CE0101960E94D062F11025C164EF75E09A
:101D8000CE0101960E943763BE016F5F7F4FC8018D
:101D90000E941E64F82ECE0101960E94D062F110BE
:101DA00014C16CEF75E0CE0101960E943763BE014D
:101DB0006F5F7F4FC8010E941E64F82ECE0101960E
:101DC0000E94D062F11003C166E076E0CE01019678
:101DD0000E943763BE016F5F7F4FC8010E941E647F
:101DE000F82ECE0101960E94D062F110F2C06BE095
:101DF00076E0CE0101960E943763BE016F5F7F4F90
:101E0000C8010E941E64F82ECE0101960E94D06285
:101E1000F110E1C060E176E0CE0101960E943763E7
:101E2000BE016F5F7F4FC8010E941E64F82ECE0175
:101E300001960E94D062F110D0C065E176E0CE013B
:101E400001960E943763BE016F5F7F4FC8010E94F9
:101E50001E64F82ECE0101960E94D062F110BFC020
:101E60006EE176E0CE0101960E943763BE016F5F9E
:101E70007F4FC8010E941E64182FCE0101960E9458
:101E8000D062112309F4B7C087E0AAC064E273E00E
:101E9000CE0101960E943763BE016F5F7F4FC8017C
:101EA0000E941E64B82ECE0101960E94D062BB2013
:101EB00009F45AC0FFEFEF1AFF0AA12CB12CB701A9
:101EC000C8010E942C64FC018081B8DE982E929497
:101ED00090EF9922B7016F5F7F4FC8010E942C6479
:101EE000FC018081ABDEF501F595E795E45FF64FE7
:101EF000890D8083F2E0AF0EB11C82E0E80EF11C88
:101F0000E0E1AE16B104D9F698DA8C0197FF13C060
:101F100080E0B2DA8823D1F00091220910E001506C
:101F200011098DE0809FF001819FF00D1124E15691
:101F3000F74F1286118685E08C9DF0018D9DF00D86
:101F40001124E25BF74F83E08283038364EC74E047
:101F500086ED9DE00E9437604AE050E0B80186EDD2
:101F60009DE00E942E6147C06BE273E0CE010196B6
:101F70000E943763BE016F5F7F4FC8010E941E64DD
:101F8000F82ECE0101960E94D062FF2059F085E024
:101F90008C9DF0018D9DF00D1124E25BF74F81E0E7
:101FA000828329C060E373E0CE0101960E9437630B
:101FB000BE016F5F7F4FC8010E941E64CE01019673
:101FC0000E94D06218C080E00BC081E009C082E0AE
:101FD00007C083E005C084E003C085E001C086E05F
:101FE00095E09C9DF0019D9DF00D1124E25BF74F63
:101FF00092E0928383832C960FB6F894DEBF0FBED7
:10200000CDBFDF91CF911F910F91FF90EF90DF90A7
:10201000CF90BF90AF909F900895809120089091AD
:102020002108892B49F0809120089091210801977F
:10203000909321088093200880911C0890911D089E
:10204000892B49F080911C0890911D08019790936D
:102050001D0880931C0880911A0890911B08892BF9
:1020600049F080911A0890911B08019790931B08E2
:1020700080931A0880911E0890911F08892B49F0BF
:1020800080911E0890911F08019790931F088093DC
:102090001E080895AF92BF92CF92DF92EF92FF9207
:1020A0000F931F9397FD06C0853691052CF084E6AB
:1020B00090E002C080E090E0BC01882777FD809529
:1020C000982F1F921F921F922FEF2F93A12CB12CAC
:1020D000650114E6E12EF12C00E010E020E030E094
:1020E000A9010E9486627093E9076093E8070F9048
:1020F0000F900F900F9020912308222341F02FEF93
:1021000030E0261B370B3093E9072093E8076091F6
:10211000E8077091E9078CE01F910F91FF90EF9015
:10212000DF90CF90BF90AF900C940E5B61E08CE09D
:102130000E94265C80E090E0ADDF61E088E00E94D4
:10214000265C60E088E00E945F5C61E083E40E94BE
:10215000265C60E083E40E945F5C60E070E08AEEF1
:1021600097E00E94BB5688EE93E0A0E0B0E0809339
:102170000E0890930F08A0931008B09311080895CB
:10218000CF93C091410A4091420A5091430A8091F5
:102190001808909119089093170880931608609179
:1021A000330A262F30E03093190820931808E09165
:1021B000400A70912408EE2319F070FD08C002C097
:1021C00071FD05C070913708733009F0D6C02091B9
:1021D0001408309115082115310531F5662321F1D8
:1021E0000097C9F4A0912708B09128088AE08A9F37
:1021F000F0018B9FF00D1124F0931F08E0931E084F
:10220000E1E0F0E0F0931308E093120880913F0AB8
:102210008093AA0709C01816190634F4E3E0F0E029
:10222000F0931308E09312087AE0C79FC0011124CD
:1022300071E04817590708F070E080911E089091EE
:102240001F08892B21F0662311F07111FFC08091C6
:10225000120890911308019739F480911E0890910B
:102260001F08892B09F4FBC08091C70981110BC09D
:102270008091C809882339F080911E0890911F0829
:10228000892B09F4F3C080911208909113080497E8
:1022900039F480911A0890911B08892B09F4FFC02A
:1022A00080911A0890911B08892B71F08091180871
:1022B000909119084091330850913408840F951F6C
:1022C00090931908809318088091AA07882309F42D
:1022D0004BC012161306B4F4611114C020912508E6
:1022E000309126084AE0429FC001439F900D11247F
:1022F000909321088093200885E090E09093130844
:10230000809312088091200890912108892B19F060
:10231000662309F4CBC08091200890912108892B75
:1023200049F48091120890911308059719F46623D7
:1023300009F4C5C08091120890911308069751F5D1
:10234000611128C071110BC0809131089091320841
:10235000009729F090931908809318081BC01092D9
:1023600019081092180812C0809112089091130851
:10237000039781F461110EC009C0232B39F083E06B
:1023800090E0909313088093120804C010921308F1
:10239000109212088091180890911908009751F036
:1023A00020912208820F911D27FD9A95909319087C
:1023B00080931808809118089091190897FF04C01D
:1023C0001092190810921808809118089091190815
:1023D0008536910534F084E690E090931908809357
:1023E000180880915A0990915B09A0915C09B091FD
:1023F0005D0986709927AA27BB27892B8A2B8B2BEF
:1024000021F01092190810921808809118089091E4
:10241000190840DE609118088AEE97E00E942F5557
:1024200080911808909119081816190614F460E0A4
:1024300001C061E088E00E945F5C8091330A90E017
:102440009093150880931408CF91089580912F08D8
:10245000909130089093190880931808F8CE83E083
:1024600090E09093130880931208FECE40912B08C1
:1024700050912C08EAE0E49FC001E59F900D1124E3
:1024800090931B0880931A0884E090E090931308BF
:102490008093120880913F0A8093AA07F4CE83E0CC
:1024A00090E09093130880931208FACE80912D0843
:1024B00090912E0890931908809318082CCF86E0ED
:1024C00090E0909313088093120834CF90915A09AA
:1024D00091FD0FC02AE0829FC00111249093E7076D
:1024E0008093E60781E08093C80961E080E40C9462
:1024F0005F5C089580915A0990915B09A0915C09F5
:10250000B0915D09AC01BD017695679557954795EA
:10251000E42FE17040FD28C020915A08222321F1C8
:10252000209136084AE0249F9001112440915808D8
:102530005091590824173507BCF46091350848E5D7
:1025400052E0649F9001659F300D11243093E7079E
:102550002093E607826080935A0990935B09A093C9
:102560005C09B0935D0919C082FF07C060E080E498
:102570000E945F5C1092C8090895E11116C0809115
:102580003708813091F48091C809882371F08091D7
:10259000E6079091E707892B41F461E080E40E940F
:1025A0005F5C81E08093C80908958091E60790916F
:1025B000E707892BD9F2F1CF60E08FE30E945F5CDF
:1025C00061E08FE30E94265C60E085E40E945F5C2E
:1025D00061E085E40E94265C60E084E40E945F5C28
:1025E00061E084E40E94265C8AE580933A0898E2E0
:1025F00090933B0881E08093370822E320933808CA
:102600001092390822E020933C0880933D081092F4
:102610003E0880933F089093400810924208109221
:1026200043088093440808958091420A9091430A98
:102630002091410A4AE0249F90011124225331093C
:1026400061E08217930708F460E06093450A2091E7
:10265000460A3091470A2550310941E08217930715
:1026600008F440E04093440A2091CA09222311F063
:10267000611102C050E001C0542F5093DC07873233
:1026800072E0970748F020913A0A30913B0A2632CF
:10269000324010F4611101C040E04093DB0751115A
:1026A00003C0442309F456C08091DF079091E007EE
:1026B000892B09F067C08091DD079091DE079C01AE
:1026C0002B7F232BA1F4552379F081E090E09093A8
:1026D000DE078093DD078CE291E09093E007809322
:1026E000DF0761E085E43FC082E090E01AC08130FE
:1026F000910519F482E090E01DC082309105B1F49B
:10270000442369F083E090E09093DE078093DD0737
:102710008CE291E09093E0078093DF0722C084E091
:1027200090E09093DE078093DD072CC0039751F56E
:1027300084E090E09093DE078093DD0788E592E0E7
:102740009093E0078093DF0760E085E40E945F5C80
:1027500060E008C08132934048F061E085E40E9467
:102760005F5C61E084E40E945F5C0CC060E085E433
:102770000E945F5C60E084E40E945F5C1092DE0770
:102780001092DD078091420A9091430A9093470A84
:102790008093460A08956091500880915A0990915B
:1027A0005B09A0915C09B0915D09662301F120915C
:1027B0003A084AE0249F9001112440914E0850911C
:1027C0004F08241735079CF4846080935A0990932E
:1027D0005B09A0935C09B0935D0961E08FE30E94FF
:1027E0005F5C61E085E40E945F5C61E034C082FF71
:1027F0001AC0662391F120913A087AE0279F900150
:10280000112440914E0850914F08421753076CF421
:1028100024E0822780935A0990935B09A0935C0976
:10282000B0935D091AC06623C1F080913B083AE07D
:10283000839FC001112420914E0830914F08281722
:1028400039075CF460E08FE30E945F5C60E085E440
:102850000E945F5C60E084E4BEC080913C088130EF
:1028600021F080913E088130C9F480917002882364
:10287000A9F01092C9091092CA0960E08FE30E9482
:102880005F5C60E085E40E945F5C60E084E40E943D
:102890005F5C1092DE071092DD07089580913E087C
:1028A000843011F4C1DE6EC0813031F48091CA09E8
:1028B000882331F061E005C080913F08813029F024
:1028C00060E085E40E945F5C5DC0809169088823B8
:1028D000B9F32091410880916708909168082223FC
:1028E00071F16623A9F06AE0269FA00111248417E4
:1028F000950774F040914E0850914F0848175907BA
:102900003CF461E085E40E945F5C82E090E02BC0D3
:102910004091D9075091DA074230510581F47AE0AD
:10292000279F90011124821793074CF460E085E4FF
:102930000E945F5C1092DA071092D90723C02091A1
:1029400040084AE0249F9001112440914208B901B7
:10295000641B7109861797075CF461E085E40E94A7
:102960005F5C81E090E09093DA078093D9070AC01A
:102970004091D9075091DA074130510519F42817D1
:102980003907A4F2809143088330B9F48091690833
:10299000882399F0809145087AE0879FC00111242F
:1029A00020916708309168082817390714F061E012
:1029B00001C060E084E40E945F5C80913C0881304B
:1029C00031F48091C909882321F061E003C082308D
:1029D00021F060E08FE30C945F5C80913D088130D2
:1029E000C1F780915008EFCFFF920F931F93CF93C1
:1029F000DF93CDB7DEB72C970FB6F894DEBF0FBECE
:102A0000CDBF8C0163E373E0CE0107960E9437636C
:102A1000BE01695F7F4FC8010E941E64811116C00C
:102A200067EE75E0CE0101960E943763BE016F5FCD
:102A30007F4FC8010E941E64FF24F394811101C0DE
:102A4000F12CCE0101960E94D06202C0FF24F394C3
:102A5000CE0107960E94D062F11028C069E373E0AE
:102A6000CE0101960E943763BE016F5F7F4FC801A0
:102A70000E941E64F82ECE0101960E94D062F110D1
:102A800017C06DE373E0CE0101960E943763BE016B
:102A90006F5F7F4FC8010E941E64182FCE01019600
:102AA0000E94D062112331F082E005C081E003C0B2
:102AB00083E001C080E02C960FB6F894DEBF0FBE15
:102AC000CDBFDF91CF911F910F91FF900895FF929D
:102AD0000F931F93CF93DF93CDB7DEB72C970FB62D
:102AE000F894DEBF0FBECDBF8C0163E373E0CE016F
:102AF00007960E943763BE01695F7F4FC8010E943D
:102B00001E64811116C067EE75E0CE0101960E9429
:102B10003763BE016F5F7F4FC8010E941E64FF24B0
:102B2000F394811101C0F12CCE0101960E94D06274
:102B300002C0FF24F394CE0107960E94D062F110E8
:102B400041C060E473E0CE0101960E943763BE018C
:102B50006F5F7F4FC8010E941E64F82ECE01019660
:102B60000E94D062F11028C066E473E0CE010196A5
:102B70000E943763BE016F5F7F4FC8010E941E64D1
:102B8000F82ECE0101960E94D062F11017C06DE4BC
:102B900073E0CE0101960E943763BE016F5F7F4FE5
:102BA000C8010E941E64182FCE0101960E94D062B7
:102BB000112331F083E007C082E005C084E003C048
:102BC00080E001C081E02C960FB6F894DEBF0FBE06
:102BD000CDBFDF91CF911F910F91FF900895FF928C
:102BE0000F931F93CF93DF9300D000D0CDB7DEB704
:102BF0008C0167E573E0CE0101960E943763BE0148
:102C00006F5F7F4FC8010E941E64F82ECE010196AF
:102C10000E94D062F11015C06EE573E0CE010196FE
:102C20000E943763BE016F5F7F4FC8010E941E6420
:102C3000182FCE0101960E94D062112311F082E07C
:102C400001C081E026960FB6F894DEBF0FBECDBF5F
:102C5000DF91CF911F910F91FF900895FF920F93F5
:102C60001F93CF93DF93CDB7DEB72C970FB6F894B1
:102C7000DEBF0FBECDBF8C0163E373E0CE010796CC
:102C80000E943763BE01695F7F4FC8010E941E64C6
:102C9000811116C067EE75E0CE0101960E94376380
:102CA000BE016F5F7F4FC8010E941E64FF24F39432
:102CB000811101C0F12CCE0101960E94D06202C0A8
:102CC000FF24F394CE0107960E94D062F11028C031
:102CD00068E673E0CE0101960E943763BE016F5F24
:102CE0007F4FC8010E941E64F82ECE0101960E94FB
:102CF000D062F11017C06DE673E0CE0101960E941C
:102D00003763BE016F5F7F4FC8010E941E64182F9A
:102D1000CE0101960E94D062112331F083E005C0FC
:102D200081E003C082E001C080E02C960FB6F894E9
:102D3000DEBF0FBECDBFDF91CF911F910F91FF90EE
:102D400008954F925F926F927F928F929F92AF926F
:102D5000BF92CF92DF92EF92FF920F931F93CF9388
:102D6000DF9380917C022AE0829FC0011124C3EE90
:102D7000D6E0FDE78F2EF2E09F2E6091360A70912B
:102D8000370A29914AE0240290011124621773073F
:102D9000A4F148815AE0450270011124E616F706B5
:102DA00064F1D401EC911197AC90BAE0AB9E500164
:102DB0001124CC24B7FCC094DC2C0027F7FC009530
:102DC000102F442737FD4095542F882777FD809595
:102DD000982FAAE0EA9FF00111242F01662457FCE6
:102DE0006094762C7F926F925F924F920E948662DF
:102DF000CB010F900F900F900F90BFEF8B1A9B0A93
:102E000026E0C83ED20709F0B8CF2091360A3091AB
:102E1000370A2739310534F0809181024AE0849FD6
:102E2000C0011124DF91CF911F910F91FF90EF907E
:102E3000DF90CF90BF90AF909F908F907F906F90DA
:102E40005F904F900895CF93DF9380915A0982FF4E
:102E500006C061E081E4DF91CF910C945F5C8091CA
:102E60008202909183028230910599F58091C60982
:102E70008823B9F061E082E40E945F5C809189025E
:102E800090918A0290934A0A8093490A81E090E0E7
:102E9000909383028093820210924C0A10924B0A04
:102EA0007FC08091C909882309F47AC02091420A21
:102EB0003091430A80918402909185028217930792
:102EC00008F06EC08091490A90914A0A892B31F12D
:102ED00067C0019709F064C08091490A90914A0A3D
:102EE000892B09F05DC060E082E40E945F5C60E0D5
:102EF00081E40E945F5C8091C609811151C080917C
:102F000086029091870290934A0A8093490A82E050
:102F100090E0909383028093820242C012DF9093EC
:102F20008502809384022091340A3091350A8217F9
:102F30009307B1F1EC01C21BD30B8217930718F46E
:102F400061E082E405C02817390750F561E081E4AB
:102F50000E945F5C8091880290E090934A0A80937F
:102F6000490A81E090E09093830280938202CA3004
:102F7000D105B0F48091490A90914A0A96958795B7
:102F800090934A0A8093490A259750F48091490A00
:102F900090914A0A9695879590934A0A8093490A98
:102FA000DF91CF9108958091690290916A02A0917A
:102FB0006B02B0916C02892B8A2B8B2B99F080913C
:102FC000690290916A02A0916B02B0916C02019724
:102FD000A109B1098093690290936A02A0936B02E0
:102FE000B0936C0208958091490A90914A0A892B06
:102FF00049F08091490A90914A0A019790934A0AB0
:103000008093490A8091630A882329F08091630A9A
:1030100081508093630A01D88091DF079091E00787
:10302000892B49F08091DF079091E00701979093F9
:10303000E0078093DF078091E6079091E707892BEF
:1030400049F08091E6079091E70701979093E70791
:103050008093E6078091C809882329F08091E107D1
:103060008F5F8093E1078091E1078A30A9F4109285
:10307000E1078091E2079091E307A091E407B09106
:10308000E5070196A11DB11D8093E2079093E30728
:10309000A093E407B093E5070E94130A84CF8AE067
:1030A00080934608809347082EE12093480898E2D1
:1030B0009093490880934A0820934B0890934C08BA
:1030C0000895809150088823D9F0509138082AE05B
:1030D000529FC001112420913908821B910920912F
:1030E0004E0830914F082817390784F040E06AE015
:1030F000569FC0011124281739070CF07EC001C06B
:1031000040E080916802811178C004C0109268028A
:1031100041E0EDCF442309F464C08091D70790913A
:10312000D807009709F04DC062E773E086ED9DE097
:103130000E94836080914C088093330A80914A08F2
:10314000C5D980914B0820914A0830E040E050E01A
:10315000280F311D411D511DAAE0B0E00E94A86753
:103160006093690270936A0280936B0290936C0281
:103170006091E6077091E7074AE050E086ED9DE038
:103180000E947B614091690250916A0260916B02DA
:1031900070916C022AE030E086ED9DE00E948F6124
:1031A0000E943B5A6093D3077093D4078093D5074E
:1031B0009093D60781E090E09093D8078093D7074B
:1031C00018C00197B1F48091690290916A02A091B0
:1031D0006B02B0916C02892B8A2B8B2B09F485C072
:1031E00008C067E773E086ED9DE00E94836010925F
:1031F000330A80E08093680208958091D707909108
:10320000D807009709F046C08091690290916A0240
:10321000A0916B02B0916C02892B8A2B8B2B09F049
:1032200062C06CE773E086ED9DE00E948360809150
:1032300049088093330A8091470848D9809148080B
:103240002091470830E040E050E0280F311D411D3B
:10325000511DAAE0B0E00E94A867609369027093D4
:103260006A0280936B0290936C02409169025091C4
:103270006A0260916B0270916C022AE030E086ED88
:103280009DE00E948F6181E090E09093D807809349
:10329000D707B0CF019739F58091690290916A0202
:1032A000A0916B02B0916C02892B8A2B8B2BD9F4E5
:1032B00061E873E086ED9DE00E94836020914608FE
:1032C00030E0A8E5B2E00E949967609369027093CC
:1032D0006A0280936B0290936C021092330A1092F0
:1032E000D8071092D70781E085CF66E873E086EDB6
:1032F0009DE00E9483600E943B5AAB01BC0180911B
:10330000D3079091D407A091D507B091D607481B59
:10331000590B6A0B7B0B2AE030E086ED9DE00E94A2
:103320008F611092D8071092D70763CF8091C80998
:103330008093C70980913708813091F480917002A1
:10334000882329F01092330A1092C80908958091B9
:1033500056098093330A809154098093C8090895CF
:103360008250823078F7ADCECF93DF93CDB7DEB702
:1033700027970FB6F894DEBF0FBECDBF63E977E0A5
:10338000CE0101960E94376364E170E0CE010196A0
:103390000E94FE6221E04BE853E06BE779E08EE5A6
:1033A00099E00E94E344882309F141E050E0BE0126
:1033B000695F7F4F8EE599E00E948A41892B89F0F1
:1033C0006F816A3039F06D3029F0CE0101960E948C
:1033D000E863EBCF63E977E0CE0101960E94A86332
:1033E000E4CF8EE599E00E94B94306C068EA74E034
:1033F00086ED9DE00E947360CE0101960E94D0622E
:1034000027960FB6F894DEBF0FBECDBFDF91CF91E8
:1034100008957F928F929F92AF92BF92CF92DF9248
:10342000EF92FF920F931F93CF93DF93CDB7DEB749
:1034300069970FB6F894DEBF0FBECDBF8E010D5E4B
:103440001F4F63E977E0C8010E94376364E170E0D1
:10345000C8010E94FE6221E048E953E06BE779E091
:103460008EE599E00E94E344882311F40C945422E1
:10347000F02EE12E82E0D82E93E0C92E24E0B22E69
:1034800035E0A32E46E0942E57E0852E41E050E033
:10349000BE01675E7F4F8EE599E00E948A41892BCD
:1034A00009F4FDC7698D6A3031F06D3021F0C80133
:1034B0000E94E863EBCF6BEA71E086ED9DE00E942D
:1034C0003760B80186ED9DE00E945A6069EA71E0BC
:1034D00086ED9DE00E9473606DE3C8010E9459640F
:1034E0002F89388D121613060CF0D2C78F3F4FEF7D
:1034F000940709F4CDC7AC014F5F5F4FB801CE010F
:103500000D960E945C64CE010D960E949F6463EA52
:1035100073E0CE0101960E943763BE016F5F7F4F5B
:10352000C8010E941E64782ECE0101960E94D062CE
:10353000772039F0CE010D960E94FB6460937802EB
:10354000A3C767EA73E0CE0101960E943763BE010C
:103550006F5F7F4FC8010E941E64782ECE010196D6
:103560000E94D062772039F0CE010D960E94FB6454
:103570006093790289C76BEA73E0CE0101960E94DD
:103580003763BE016F5F7F4FC8010E941E64782EB3
:10359000CE0101960E94D062772039F0CE010D96BF
:1035A0000E94FB6460937A026FC76FEA73E0CE01FA
:1035B00001960E943763BE016F5F7F4FC8010E9472
:1035C0001E64782ECE0101960E94D062772039F0D9
:1035D000CE010D960E94FB6460937B0255C763EB9E
:1035E00073E0CE0101960E943763BE016F5F7F4F8B
:1035F000C8010E941E64782ECE0101960E94D062FE
:10360000772039F0CE010D960E94FB646093720220
:103610003BC768EB73E0CE0101960E943763BE01A1
:103620006F5F7F4FC8010E941E64782ECE01019605
:103630000E94D062772039F0CE010D960E94FB6483
:103640006093730221C76DEB73E0CE0101960E9477
:103650003763BE016F5F7F4FC8010E941E64782EE2
:10366000CE0101960E94D062772039F0CE010D96EE
:103670000E94FB646093740207C762EC73E0CE01A2
:1036800001960E943763BE016F5F7F4FC8010E94A1
:103690001E64782ECE0101960E94D062772039F008
:1036A000CE010D960E94FB6460937502EDC667EC37
:1036B00073E0CE0101960E943763BE016F5F7F4FBA
:1036C000C8010E941E64782ECE0101960E94D0622D
:1036D000772039F0CE010D960E94FB64609376024C
:1036E000D3C66CEC73E0CE0101960E943763BE0135
:1036F0006F5F7F4FC8010E941E64782ECE01019635
:103700000E94D062772039F0CE010D960E94FB64B2
:1037100060937702B9C661ED73E0CE0101960E9415
:103720003763BE016F5F7F4FC8010E941E64782E11
:10373000CE0101960E94D062772029F0CE010D962D
:103740000E94FB64A1C665EE73E0CE0101960E9463
:103750003763BE016F5F7F4FC8010E941E64782EE1
:10376000CE0101960E94D062772039F0CE010D96ED
:103770000E94FB646093220887C66FEE73E0CE015F
:1037800001960E943763BE016F5F7F4FC8010E94A0
:103790001E64782ECE0101960E94D062772039F007
:1037A000CE010D960E94FB64609323086DC66FEFF7
:1037B00073E0CE0101960E943763BE016F5F7F4FB9
:1037C000C8010E941E64782ECE0101960E94D0622C
:1037D000772039F0CE010D960E94FB646093240897
:1037E00053C66CE074E0CE0101960E943763BE01BF
:1037F0006F5F7F4FC8010E941E64782ECE01019634
:103800000E94D062772049F0CE010D960E94FB64A1
:10381000709326086093250837C66EE174E0CE01E8
:1038200001960E943763BE016F5F7F4FC8010E94FF
:103830001E64782ECE0101960E94D062772049F056
:10384000CE010D960E94FB6470932E0860932D08A4
:103850001BC66FE274E0CE0101960E943763BE0181
:103860006F5F7F4FC8010E941E64782ECE010196C3
:103870000E94D062772049F0CE010D960E94FB6431
:1038800070932A0860932908FFC56BE374E0CE01AA
:1038900001960E943763BE016F5F7F4FC8010E948F
:1038A0001E64782ECE0101960E94D062772049F0E6
:1038B000CE010D960E94FB6470933208609331082C
:1038C000E3C566E474E0CE0101960E943763BE0151
:1038D0006F5F7F4FC8010E941E64782ECE01019653
:1038E0000E94D062772049F0CE010D960E94FB64C1
:1038F0007093280860932708C7C566E574E0CE0179
:1039000001960E943763BE016F5F7F4FC8010E941E
:103910001E64782ECE0101960E94D062772049F075
:10392000CE010D960E94FB647093300860932F08BF
:10393000ABC565E674E0CE0101960E943763BE0117
:103940006F5F7F4FC8010E941E64782ECE010196E2
:103950000E94D062772049F0CE010D960E94FB6450
:1039600070932C0860932B088FC56DE476E0CE0130
:1039700001960E943763BE016F5F7F4FC8010E94AE
:103980001E64782ECE0101960E94D062772049F005
:10399000CE010D960E94FB64709334086093330847
:1039A00073C562E774E0CE0101960E943763BE01E1
:1039B0006F5F7F4FC8010E941E64782ECE01019672
:1039C0000E94D062772071F0CE010D960E94FB64B8
:1039D0009B01215031092336310508F055C560930C
:1039E000350852C568E874E0CE0101960E9437633D
:1039F000BE016F5F7F4FC8010E941E64782ECE010A
:103A000001960E94D062772071F0CE010D960E943F
:103A1000FB649B01215031092A35310508F034C57A
:103A20006093360831C567E974E0CE0101960E94C3
:103A30003763BE016F5F7F4FC8010E941E64782EFE
:103A4000CE0101960E94D062772071F0CE010D96D2
:103A50000E94FB649B01215031092336310508F097
:103A600013C560933B0810C562EA74E0CE0101966D
:103A70000E943763BE016F5F7F4FC8010E941E64C2
:103A8000782ECE0101960E94D062772071F0CE018F
:103A90000D960E94FB649B012150310923363105AC
:103AA00008F0F2C460933A08EFC46DEA74E0CE0106
:103AB00001960E943763BE016F5F7F4FC8010E946D
:103AC0001E64782ECE0101960E94D062772071F09C
:103AD000CE010D960E94FB649B01215031092336D3
:103AE000310508F0D1C460933808CEC469EB74E0A6
:103AF000CE0101960E943763BE016F5F7F4FC80100
:103B00000E941E64782ECE0101960E94D06277201A
:103B100071F0CE010D960E94FB649B01215031098A
:103B20002336310508F0B0C460933908ADC468ECA1
:103B300074E0CE0101960E943763BE016F5F7F4F34
:103B40008F2D9E2D0E941E64782ECE0101960E941C
:103B5000D062772071F0BE01635F7F4FCE01019686
:103B60000E949563CE0101960E94F4148093370859
:103B700043C066ED74E0CE0101960E943763BE013A
:103B80006F5F7F4F8F2D9E2D0E941E64782ECE0179
:103B900001960E94D062772071F0CE010D960E94AE
:103BA000FB649B01215031092336310508F06CC4B8
:103BB0006093400869C461EE74E0CE0101960E94F2
:103BC0003763BE016F5F7F4F8F2D9E2D0E941E6455
:103BD000782ECE0101960E94D062772091F0BE012E
:103BE000635F7F4FCE0101960E949563CE010196DF
:103BF0000E94671580933E08CE0101960E94D06214
:103C000043C46AEE74E0CE0101960E943763BE01A0
:103C10006F5F7F4F8F2D9E2D0E941E64782ECE01E8
:103C200001960E94D062772071F0BE01635F7F4FE2
:103C3000CE0101960E949563CE0101960E94EF1578
:103C400080933F08D9CF67EF74E0CE0101960E94C0
:103C50003763BE016F5F7F4F8F2D9E2D0E941E64C4
:103C6000782ECE0101960E94D062772059F0CE01C5
:103C70000D960E94FB646436710508F005C46093DC
:103C8000420802C465E075E0CE0101960E943763E8
:103C9000BE016F5F7F4F8F2D9E2D0E941E64782E78
:103CA000CE0101960E94D062772071F0CE010D9670
:103CB0000E94FB649B01215031092336310508F035
:103CC000E3C360934108E0C36FE075E0CE01019665
:103CD0000E943763BE016F5F7F4F8F2D9E2D0E9424
:103CE0001E64782ECE0101960E94D062772071F07A
:103CF000CE010D960E94FB649B01215031092336B1
:103D0000310508F0C1C360934508BEC36BE175E09F
:103D1000CE0101960E943763BE016F5F7F4F8F2DEA
:103D20009E2D0E941E64782ECE0101960E94D062C4
:103D3000772071F0BE01635F7F4FCE0101960E9434
:103D40009563CE0101960E9467158093430854CF76
:103D500065E275E0CE0101960E943763BE016F5F98
:103D60007F4F8F2D9E2D0E941E64782ECE010196CE
:103D70000E94D062772071F0BE01635F7F4FCE0159
:103D800001960E949563CE0101960E94EF158093E3
:103D9000440832CF63E375E0CE0101960E94376399
:103DA000BE016F5F7F4F8F2D9E2D0E941E64782E67
:103DB000CE0101960E94D062772071F0BE01635F50
:103DC0007F4FCE0101960E949563CE0101960E941D
:103DD0002E1680933C0810CF6BE375E0CE01019660
:103DE0000E943763BE016F5F7F4F8F2D9E2D0E9413
:103DF0001E64782ECE0101960E94D062772071F069
:103E0000BE01635F7F4FCE0101960E949563CE0194
:103E100001960E94EF1580933D08EECE67E475E0B1
:103E2000CE0101960E943763BE016F5F7F4F8F2DD9
:103E30009E2D0E941E64782ECE0101960E94D062B3
:103E4000772059F0CE010D960E94FB6416161706D6
:103E50000CF01AC36093460817C36CE575E0CE01F9
:103E600001960E943763BE016F5F7F4F8F2D9E2D9D
:103E70000E941E64782ECE0101960E94D0627720A7
:103E800059F0CE010D960E94FB64161617060CF031
:103E9000FBC260934708F8C264E775E0CE01019663
:103EA0000E943763BE016F5F7F4F8F2D9E2D0E9452
:103EB0001E64782ECE0101960E94D062772059F0C0
:103EC000CE010D960E94FB64161617060CF0DCC29C
:103ED00060934808D9C26BE875E0CE0101960E9454
:103EE0003763BE016F5F7F4F8F2D9E2D0E941E6432
:103EF000782ECE0101960E94D062772059F0CE0133
:103F00000D960E94FB64161617060CF0BDC2609356
:103F10004908BAC26FE975E0CE0101960E94376385
:103F2000BE016F5F7F4F8F2D9E2D0E941E64782EE5
:103F3000CE0101960E94D062772059F0CE010D96F5
:103F40000E94FB64161617060CF09EC260934A0886
:103F50009BC260EB75E0CE0101960E943763BE0103
:103F60006F5F7F4F8F2D9E2D0E941E64782ECE0195
:103F700001960E94D062772059F0CE010D960E94E2
:103F8000FB64161617060CF07FC260934B087CC2C8
:103F900060EC75E0CE0101960E943763BE016F5F51
:103FA0007F4F8F2D9E2D0E941E64782ECE0101968C
:103FB0000E94D062772059F0CE010D960E94FB64DA
:103FC000161617060CF060C260934C085DC26DECCB
:103FD00075E0CE0107960E943763BE01695F7F4F8F
:103FE0008F2D9E2D0E941E64811117C06DED75E00E
:103FF000CE0101960E943763BE016F5F7F4F8F2D08
:104000009E2D0E941E6477247394811101C0712C2F
:10401000CE0101960E94D06202C077247394CE0133
:1040200007960E94D062772041F1CE010D960E9442
:10403000FB64613009F028C2D092500810925108F8
:10404000D092550860935608D0925A08D0925B08D7
:10405000D0925F08C0926008D0926408B092650860
:10406000D0926908A0926A08D0926E0890926F0868
:10407000D09273088092740807C26DEE75E0CE018D
:1040800001960E943763BE016F5F7F4F8F2D9E2D7B
:104090000E941E64782ECE0101960E94D062772085
:1040A00031F0BE01635F7F4F80E090E019C063EFA5
:1040B00075E0CE0101960E943763BE016F5F7F4FAE
:1040C0008F2D9E2D0E941E64782ECE0101960E9497
:1040D000D062772041F0BE01635F7F4F81E090E0C6
:1040E0000E94380ED1C16BEF75E0CE0101960E949F
:1040F0003763BE016F5F7F4F8F2D9E2D0E941E6420
:10410000782ECE0101960E94D062772031F0BE0158
:10411000635F7F4F82E090E0E3CF65E076E0CE0121
:1041200001960E943763BE016F5F7F4F8F2D9E2DDA
:104130000E941E64782ECE0101960E94D0627720E4
:1041400031F0BE01635F7F4F83E090E0C9CF6AE04A
:1041500076E0CE0101960E943763BE016F5F7F4F0C
:104160008F2D9E2D0E941E64782ECE0101960E94F6
:10417000D062772031F0BE01635F7F4F84E090E032
:10418000AFCF6FE076E0CE0101960E943763BE01AB
:104190006F5F7F4F8F2D9E2D0E941E64782ECE0163
:1041A00001960E94D062772031F0BE01635F7F4F9D
:1041B00085E090E095CF64E176E0CE0101960E9423
:1041C0003763BE016F5F7F4F8F2D9E2D0E941E644F
:1041D000782ECE0101960E94D062772031F0BE0188
:1041E000635F7F4F86E090E07BCF6DE176E0CE01AC
:1041F00001960E943763BE016F5F7F4F8F2D9E2D0A
:104200000E941E64782ECE0101960E94D062772013
:1042100031F0BE01635F7F4F87E090E061CF66E2DF
:1042200076E0CE0101960E943763BE016F5F7F4F3B
:104230008F2D9E2D0E941E64782ECE0101960E9425
:10424000D062772031F0BE01635F7F4F88E090E05D
:1042500047CF69E276E0CE0101960E943763BE0146
:104260006F5F7F4F8F2D9E2D0E941E64782ECE0192
:1042700001960E94D062772031F0BE01635F7F4FCC
:1042800089E090E02DCF6CE276E0CE0101960E94AD
:104290003763BE016F5F7F4F8F2D9E2D0E941E647E
:1042A000782ECE0101960E94D062772031F0BE01B7
:1042B000635F7F4F8AE090E013CF6FE276E0CE013C
:1042C00001960E943763BE016F5F7F4F8F2D9E2D39
:1042D0000E941E64782ECE0101960E94D062772043
:1042E00031F0BE01635F7F4F8BE090E0F9CE62E377
:1042F00076E0CE0101960E943763BE016F5F7F4F6B
:104300008F2D9E2D0E941E64782ECE0101960E9454
:10431000D062772031F0BE01635F7F4F8CE090E088
:10432000DFCE65E376E0CE0101960E943763BE01E1
:104330006F5F7F4F8F2D9E2D0E941E64782ECE01C1
:1043400001960E94D062772031F0BE01635F7F4FFB
:104350008DE090E0C5CE68E376E0CE0101960E9444
:104360003763BE016F5F7F4F8F2D9E2D0E941E64AD
:10437000782ECE0101960E94D062772031F0BE01E6
:10438000635F7F4F8EE090E0ABCE6BE376E0CE01D3
:1043900001960E943763BE016F5F7F4F8F2D9E2D68
:1043A0000E941E64782ECE0101960E94D062772072
:1043B00031F0BE01635F7F4F8FE090E091CE6EE3FE
:1043C00076E0CE0101960E943763BE016F5F7F4F9A
:1043D0008F2D9E2D0E941E64782ECE0101960E9484
:1043E000D062772051F0CE010D960E94FB646130BF
:1043F00009F04AC060934D0847C060E476E0CE0102
:1044000001960E943763BE016F5F7F4F8F2D9E2DF7
:104410000E941E64782ECE0101960E94D062772001
:1044200059F0CE010D960E94FB6463E971E086EDC0
:104430009DE00E94736028C06BE476E0CE01019697
:104440000E943763BE016F5F7F4F8F2D9E2D0E94AC
:104450001E64782ECE0101960E94D06271106EC942
:104460006BE476E0CE0101960E943763BE016F5F78
:104470007F4F8F2D9E2D0E941E64782ECE010196B7
:104480000E94D06271105AC9CE010D960E94D0626E
:1044900063E977E0C8010E94A8630C94461A8EE590
:1044A00099E00E94B94306C068E771E086ED9DE09F
:1044B0000E943760C8010E94D06269960FB6F894D6
:1044C000DEBF0FBECDBFDF91CF911F910F91FF9047
:1044D000EF90DF90CF90BF90AF909F908F907F90A4
:1044E0000895CF92DF92EF92FF920F931F93CF9395
:1044F000DF93EC018B0142967C016115710589F413
:1045000064E971E00E94284E6FE874E0CE01DF910B
:10451000CF911F910F91FF90EF90DF90CF900C946F
:104520003760CB010E94714F6C0168EC70E0C701ED
:104530000E94284EB601CE010E944C4E6FE674E0F8
:10454000CE010E943760C7010E94706021E0A8017F
:104550006BE779E08EE599E00E94E3448823E1F07F
:104560006CE574E086ED9DE00E943760B80186ED51
:104570009DE00E9483606EE579E0CE010E94E34FEA
:104580008EE599E0DF91CF911F910F91FF90EF9011
:10459000DF90CF900C94B9436AE474E0CE010E949E
:1045A0003760B801CE010E94686062E977E0CE0111
:1045B000DF91CF911F910F91FF90EF90DF90CF90FF
:1045C0000C9468600F931F93CF93DF938C010E942C
:1045D000924E0E944B4FEC01BC01C80182DFCE011C
:1045E0000E947C6881E0DF91CF911F910F91089527
:1045F00069E576E076DF81E008950F931F93CF930E
:10460000DF93EC01CB016AE070E00E9442678C010D
:104610004AE050E0CE010E9427616DEC73E0CE01CC
:104620000E9437604AE050E0B801CE01DF91CF919F
:104630001F910F910C942761EF92FF920F931F939C
:10464000CF93DF938C01EC01629668EC70E0CE01B1
:104650000E94284E6FEC72E0C8010E94784E6DEA0D
:1046600073E0C8010E943760CE010E94706060EA6A
:1046700073E0CE010E9437600EE418E0E12CF12CCB
:1046800066E973E0CE010E943760F80160817181B4
:10469000CE01B3DFFFEFEF1AFF0A80E1E816F10465
:1046A00041F06DE973E0CE010E9437600B5F1F4F50
:1046B000E7CF62E973E0CE010E94376069E873E0FA
:1046C000CE010E9437604AE050E06091330ACE018B
:1046D0000E94606167E873E0CE010E9437606EE778
:1046E00073E0CE010E94376060911808709119083C
:1046F0004AE050E0CE010E9427616CE773E0CE01F2
:104700000E94376062E773E0CE010E9437604091FB
:10471000E2075091E3076091E4077091E5072AE012
:1047200030E0CE010E94546160E773E0CE010E9448
:10473000376068E673E0CE010E9437608091060121
:1047400082FF03C066E673E002C064E673E0CE0158
:104750000E94376062E673E0CE010E9437606BE52D
:1047600073E0CE010E9437608091060181FF03C093
:1047700069E573E002C067E573E0CE010E9437602F
:1047800065E573E0CE010E9437606CE473E0CE0112
:104790000E9437608091060187FF03C06AE473E0DE
:1047A00002C068E473E0CE010E94376066E473E003
:1047B000CE010E9437606DE373E0CE010E94376046
:1047C0008091060186FF03C06BE373E002C069E3DA
:1047D00073E0CE010E94376067E373E0CE010E9470
:1047E00037606FE273E0CE010E9437600E943B5A4F
:1047F00028EE33E040E050E00E945567BA01A9017D
:104800002AE030E0CE010E94546166E273E0CE01FE
:104810000E9437606DE173E0CE010E9437606AE16B
:1048200073E0CE010E94736081E0DF91CF911F9110
:104830000F91FF90EF900895EF92FF920F931F93C7
:10484000CF93DF9300D000D0CDB7DEB726E040E0B5
:1048500052EC61E070E086ED9DE00E94CA5D26E0CA
:1048600040E052EC61E070E083E79EE00E94CA5DA8
:1048700061E082E10E945F5C61E083E10E945F5C35
:1048800061E08DE00E945F5C61E08DE00E94265C4B
:104890006AEF70E080E090E00E946A5A86ED9DE049
:1048A0000E94706062E972E086ED9DE00E943760D0
:1048B00069E872E086ED9DE00E9473600E94DC1260
:1048C00060E082E40E945F5C61E082E40E94265C1A
:1048D00060E081E40E945F5C61E081E40E94265C0C
:1048E00085E0809335088CE38093360860E080E4AF
:1048F0000E945F5C61E080E40E94265C0E944F1889
:1049000029E288E190E00FB6F894A89580936000C2
:104910000FBE209360000E94400D61E085E30E947D
:10492000265C61E085E30E945F5C61E08AE00E94B2
:10493000265C61E08AE00E945F5C61E084E00E94A6
:10494000265C61E084E00E945F5C44E060E086EB0E
:1049500099E00E94793E811108C06AE772E086ED15
:104960009DE00E94736010926F0241E066EB79E077
:1049700088E999E00E94F34A811111C040E066EB9A
:1049800079E088E999E00E94F34A811108C06BE65A
:1049900072E086ED9DE00E94736010926F0268E9FC
:1049A00079E08BE799E00E943B41811108C063E503
:1049B00072E086ED9DE00E94736010926F0280911C
:1049C0006F028823B9F183E495E090930C0D8093F6
:1049D0000B0D68E472E086ED9DE00E9437600E9456
:1049E000193D4AE050E0BC0186ED9DE00E942E6139
:1049F0000E94091A6DE372E086ED9DE00E94376027
:104A00000E94193D4AE050E0BC0186ED9DE00E9405
:104A10002E610E94B41962E372E086ED9DE00E946F
:104A200037600E94193D4AE050E0BC0186ED9DE0F0
:104A30000E942E610E94961068E172E086ED9DE072
:104A40000E94736068E772E0CE0101960E94CF5F1A
:104A5000AE014F5F5F4F62E772E08CE79AE00E9421
:104A6000DD306DE072E086ED9DE00E9437600E94CF
:104A7000193D4AE050E0BC0186ED9DE00E942E61A8
:104A800046E050E0BE016F5F7F4F89E090E00E94FA
:104A90003D3C46E050E062E772E0CE0101960E94A4
:104AA000556A21E0892B09F420E02093AB072111FE
:104AB0004DC010917B0200917A02F0907902E09053
:104AC000780268EF71E086ED9DE00E9437604AE071
:104AD00050E06E2D86ED9DE00E94606167E072E01F
:104AE00086ED9DE00E9437604AE050E06F2D86ED34
:104AF0009DE00E94606169E072E086ED9DE00E94A9
:104B000037604AE050E0602F86ED9DE00E946061D2
:104B10006BE072E086ED9DE00E9437604AE050E075
:104B2000612F86ED9DE00E94606186ED9DE00E9410
:104B300070606FED71E086ED9DE00E94736084EB24
:104B400097E00E943D536DEC71E002C065EB71E0AF
:104B500086ED9DE00E9473608EE59AE00E94A65764
:104B600060935A0A70935B0A80935C0A90935D0A83
:104B70000E943B5A6093B0077093B1078093B207CD
:104B80009093B3078091B0079091B107A091B207BD
:104B9000B091B3078093AC079093AD07A093AE0795
:104BA000B093AF0782E00E94FD579093650A80930F
:104BB000640A80E1809391001092900083E08093DA
:104BC000C60D84ED90E39093C80D8093C70D90932C
:104BD00097008093960083E18093910083EF97E1A3
:104BE0009093CA0D8093C90D81E080937100269641
:104BF0000FB6F894DEBF0FBECDBFDF91CF911F91EE
:104C00000F91FF90EF9008950F9300E020E040E0B7
:104C100060E086E69AE00E94C35F6DE38EE59AE06D
:104C20000E94FB561092BB091092BC091092BF095A
:104C30001092C10982E090E0A0E0B0E08093980972
:104C400090939909A0939A09B0939B091092AF0988
:104C500010927E0910927D098DE497E090937C0973
:104C600080937B091092800910926109109260096B
:104C700090935F0980935E09109263098DEE96E030
:104C800090933709809336098FE096E09093390925
:104C90008093380980E091E090933B0980933A0932
:104CA0006AEF75E082E399E00E94613D66E184E28B
:104CB00099E00E946F5486EE98E09093EB07809302
:104CC000EA078FE395E09093ED078093EC0710924D
:104CD000F0071092F1071092F2071092F30710926A
:104CE000F4071092F5071092F6071092F70710924A
:104CF000F8071092F9071092FE071092FF07109222
:104D000000081092010810920208109203081092F5
:104D100004081092050810920A0810920B081092CD
:104D20000C0810920D0810920E0810920F081092A5
:104D300010081092110820E530E04AE052E06EE0E1
:104D400072E084EB97E00F910C94494CAF92BF92C4
:104D5000CF92DF92EF92FF920F931F93CF93DF9347
:104D6000CDB7DEB764970FB6F894DEBF0FBECDBFE8
:104D700080916D0290916E02009799F40E943B5AC7
:104D800060933C0970933D0980933E0990933F09DD
:104D90001092C5091092C4091092C30981E090E0F5
:104DA0001BC00197E9F40E943B5A00913C09109105
:104DB0003D0920913E0930913F09601B710B820B28
:104DC000930B653671058105910550F01092C50968
:104DD0001092C40982E090E090936E0280936D027D
:104DE00080916D0290916E028230910509F05AC057
:104DF0001092CC0981E080937102009134091091E6
:104E00003509C8010E944C6AE82EC090CD0990E097
:104E1000D090CE09FF24F394BB24B394BF0C9E150D
:104E2000D0F4F801E90FF11DC49082E0A82EA90E7C
:104E30009F5FF801E90FF11DD4906D2D8C2D0E941C
:104E4000B109A1E0B0E0AC0FBD1FAF0DB11D8C9357
:104E50009A2DFB2CE1CFC092CD099093CC09D09232
:104E6000CE091E2D1695198381E0809371029091D1
:104E70007102191780F081E0890F80937102E1E0DF
:104E8000F0E0EC0FFD1FE90FF11D608183E79EE06C
:104E90000E94665DECCF1092C5091092C40983E0B0
:104EA00090E08DC083309105B1F583E79EE00E94CC
:104EB000BC5C892B59F0109271021092CB091092B0
:104EC000C5091092C40984E090E079C08091C409BA
:104ED0009091C50901969093C5098093C4098139C1
:104EE000914008F459C11092C5091092C40920914B
:104EF000C3092F5F2093C30982E090E090936E0274
:104F000080936D02263008F447C181E080934D0AFA
:104F10008093700241C18430910509F055C083E748
:104F20009EE00E94BC5C18161906BCF483E79EE064
:104F30000E94BC5C181619069CF51091710281E064
:104F4000810F8093710283E79EE00E94D55CE12F80
:104F5000F0E0E153F64F8083E9CF8091C40990914E
:104F6000C50901969093C5098093C4098139914080
:104F7000B8F01092C5091092C40982E090E09093B5
:104F80006E0280936D028091C3098F5F8093C30985
:104F9000863030F082E080934D0A81E08093700289
:104FA00080917102863508F4F7C08093CB09109286
:104FB00071021092C5091092C40987E090E09093A5
:104FC0006E0280936D02E8C0079709F0E5C08091FA
:104FD000CB09863509F0C2C00E94C109882309F4B3
:104FE000BDC010927002A091E009B0E0BA2FAA27CC
:104FF0008091DF09A82BB0934D09A0934C09E09153
:10500000E209F0E0FE2FEE278091E109E82BF09312
:105010004909E09348096091E40970E0762F66271A
:105020008091E309682B709347096093460940918A
:10503000E60950E0542F44278091E509482B50930E
:105040004B0940934A098091E80990E0982F8827FE
:105050002091E709822B9093430980934209809124
:10506000EA0990E0982F88272091E909822B9093F4
:105070004509809344092091EC0930E0322F222722
:105080008091EB09282B30934109209340098091AE
:10509000EE0990E0982F88271091ED09812B9093CD
:1050A0004F0980934E091091EF0910935009009118
:1050B000F6090093560911FB002700F900935409E3
:1050C00000910C0A00935709017000935809B0939E
:1050D000350AA093340AF0933B0AE0933A0A70939E
:1050E000370A6093360A50933E0A40933D0A309344
:1050F000430A2093420A9093390A8093380A809198
:10510000F4098093410A8091F50980933C0A81E07B
:105110009091220A913009F080E08093C60912FB39
:10512000882780F98093C90913FB112710F9109380
:10513000CA0981E09091F109913009F080E08093F3
:10514000400A81E09091F009913009F080E080936D
:105150003F0A10926E0210926D021EC08091C40927
:105160009091C50901969093C5098093C40981392E
:10517000914078F31092C5091092C4098091C30937
:105180008F5F8093C309863020F384E080934D0ABB
:1051900081E080937002DDCF64960FB6F894DEBF95
:1051A0000FBECDBFDF91CF911F910F91FF90EF9078
:1051B000DF90CF90BF90AF9008950F931F93A89565
:1051C0000E943B5A6093520A7093530A8093540A88
:1051D0009093550A8091520A9091530AA091540AD3
:1051E000B091550A80934E0A90934F0AA093500AAB
:1051F000B093510A8091520A9091530AA091540A97
:10520000B091550A4091AC075091AD076091AE073F
:105210007091AF07841B950BA60BB70BC397A10525
:10522000B10584F08091520A9091530AA091540ADA
:10523000B091550A8093AC079093AD07A093AE0749
:10524000B093AF070E943B5A00914E0A10914F0A4B
:105250002091500A3091510A601B710B820B930B05
:1052600060934E0A70934F0A8093500A9093510AAC
:1052700080914D08882369F080914E0A90914F0AE1
:10528000A091500AB091510A0397A105B1050CF005
:1052900053C20E943B5A60934E0A70934F0A809308
:1052A000500A9093510A52DD0E943B5A00914E0AD7
:1052B00010914F0A2091500A3091510A601B710BD6
:1052C000820B930B60934E0A70934F0A8093500A9F
:1052D0009093510A80914D08882369F080914E0A7D
:1052E00090914F0AA091500AB091510A0397A105DD
:1052F000B1050CF036C20E943B5A60934E0A70937F
:105300004F0A8093500A9093510A0E944C0D0E94BC
:105310003B5A00914E0A10914F0A2091500A309149
:10532000510A601B710B820B930B60934E0A7093B2
:105330004F0A8093500A9093510A80914D08882318
:1053400069F080914E0A90914F0AA091500AB09155
:10535000510A0297A105B1050CF018C20E943B5AF0
:1053600060934E0A70934F0A8093500A9093510AAB
:105370000E94920D0E943B5A00914E0A10914F0AD2
:105380002091500A3091510A601B710B820B930BD4
:1053900060934E0A70934F0A8093500A9093510A7B
:1053A00080914D08882369F080914E0A90914F0AB0
:1053B000A091500AB091510A0397A105B1050CF0D4
:1053C000FAC10E943B5A60934E0A70934F0A809331
:1053D000500A9093510A0E943B5A00914E0A109134
:1053E0004F0A2091500A3091510A601B710B820BB9
:1053F000930B60934E0A70934F0A8093500A9093D8
:10540000510A80914D08882369F080914E0A90914D
:105410004F0AA091500AB091510A0397A105B10516
:105420000CF0DEC10E943B5A60934E0A70934F0A03
:105430008093500A9093510A0E9496190E943B5AF9
:1054400000914E0A10914F0A2091500A3091510A52
:10545000601B710B820B930B60934E0A70934F0A83
:105460008093500A9093510A80914D08882369F0E7
:1054700080914E0A90914F0AA091500AB091510A22
:105480000397A105B1050CF0C0C10E943B5A60937F
:105490004E0A70934F0A8093500A9093510A0E94CB
:1054A0007A120E943B5A00914E0A10914F0A2091A5
:1054B000500A3091510A601B710B820B930B609361
:1054C0004E0A70934F0A8093500A9093510A80912C
:1054D0004D08882369F080914E0A90914F0AA0915F
:1054E000500AB091510A0397A105B1050CF0A2C171
:1054F0000E943B5A60934E0A70934F0A8093500A61
:105500009093510A0E94C0100E943B5A00914E0A8B
:1055100010914F0A2091500A3091510A601B710B73
:10552000820B930B60934E0A70934F0A8093500A3C
:105530009093510A80914D08882369F080914E0A1A
:1055400090914F0AA091500AB091510A0397A1057A
:10555000B1050CF084C10E943B5A60934E0A7093CF
:105560004F0A8093500A9093510A0E94CB130E94D5
:105570003B5A00914E0A10914F0A2091500A3091E7
:10558000510A601B710B820B930B60934E0A709350
:105590004F0A8093500A9093510A80914D088823B6
:1055A00069F080914E0A90914F0AA091500AB091F3
:1055B000510A0397A105B1050CF066C180917002F4
:1055C000811133C00E943B5A60934E0A70934F0A78
:1055D0008093500A9093510A0E9423170E943B5ACD
:1055E00000914E0A10914F0A2091500A3091510AB1
:1055F000601B710B820B930B60934E0A70934F0AE2
:105600008093500A9093510A80914D08882369F045
:1056100080914E0A90914F0AA091500AB091510A80
:105620000397A105B1050CF044C18091630A811173
:1056300013C08DE00E94945C61E0892B09F060E06A
:105640008DE00E945F5C80917002811102C081E058
:1056500001C08AE08093630A80916F028823C9F1B8
:105660008091AB07811135C00E943B5A60934E0A6E
:1056700070934F0A8093500A9093510A84EB97E0FD
:105680000E94F8500E943B5A00914E0A10914F0A16
:105690002091500A3091510A601B710B820B930BC1
:1056A00060934E0A70934F0A8093500A9093510A68
:1056B00080914D08882369F080914E0A90914F0A9D
:1056C000A091500AB091510A0397A105B1050CF0C1
:1056D00005C18091480A882399F06AE371E086ED5C
:1056E0009DE00E9437606EE270E086ED9DE00E94D2
:1056F000AA0968EE73E080E090E00E946A5AF3CF56
:1057000086ED9DE00E94BC5C892B09F4FCC086ED0F
:105710009DE00E94D55C823521F481E08093480AA7
:10572000F2C0863509F0EFC081E090914D089111EB
:1057300080E080934D08E7C063E771E086ED9DE06F
:105740000E94376040914E0A50914F0A6091500A72
:105750007091510A2AE030E086ED9DE00E9444619C
:1057600098CD6EE671E086ED9DE00E943760409135
:105770004E0A50914F0A6091500A7091510A2AE0E6
:1057800030E086ED9DE00E944461B5CD68E671E0B1
:1057900086ED9DE00E94376040914E0A50914F0A7D
:1057A0006091500A7091510A2AE030E086ED9DE048
:1057B0000E944461D3CD63E671E086ED9DE00E94D6
:1057C000376040914E0A50914F0A6091500A709193
:1057D000510A2AE030E086ED9DE00E944461F1CD5F
:1057E0006EE571E086ED9DE00E94376040914E0AC3
:1057F00050914F0A6091500A7091510A2AE030E0AE
:1058000086ED9DE00E9444610DCE69E571E086ED74
:105810009DE00E94376040914E0A50914F0A60917E
:10582000500A7091510A2AE030E086ED9DE00E9416
:1058300044612BCE64E571E086ED9DE00E94376007
:1058400040914E0A50914F0A6091500A7091510A4E
:105850002AE030E086ED9DE00E94446149CE6FE48D
:1058600071E086ED9DE00E94376040914E0A5091B4
:105870004F0A6091500A7091510A2AE030E086ED9B
:105880009DE00E94446167CE6AE471E086ED9DE090
:105890000E94376040914E0A50914F0A6091500A21
:1058A0007091510A2AE030E086ED9DE00E9444614B
:1058B00085CE65E471E086ED9DE00E943760409101
:1058C0004E0A50914F0A6091500A7091510A2AE095
:1058D00030E086ED9DE00E944461A7CE60E471E077
:1058E00086ED9DE00E94376040914E0A50914F0A2C
:1058F0006091500A7091510A2AE030E086ED9DE0F7
:105900000E944461E6CE1F910F910895CF93CFB7C7
:10591000F89480916F0A811127C0E1EAF9E084913F
:10592000EBE5F9E09491E82FF0E0EE0FFF1FEA516C
:10593000F64FA591B4918C91892321F461E085E320
:105940000E945F5C61E085E30E94265C8CB580610B
:105950008CBD8CB580648CBD61E084E30E94265CC4
:1059600061E083E30E94265C80916F0A8F5F8093E1
:105970006F0ACFBFCF9108950F9300E020E040E081
:1059800060E080E79AE00E94C35F0F910895FB01F9
:105990004281538164817581FC0142835383648316
:1059A0007583178216820895FB0120E080E090E065
:1059B0006AE03191332309F170ED730F7A3080F48E
:1059C000DC016A9FC0016B9F900D1124C097830F6B
:1059D000911D37FD9A958F3F910559F350F314C0EF
:1059E0003E3291F4233081F0DA01A20FB11D1296FC
:1059F0008C932F5F80E090E0DCCF233029F4FA0114
:105A0000858381E090E0089580E090E008950F9311
:105A100000E020E040E060E086E79AE00E94C35F9B
:105A20000F910895AF92BF92CF92DF92EF92FF92C3
:105A30000F931F93CF93DF9300D01F921F92CDB788
:105A4000DEB78C017B010E943B5AF80177836683A5
:105A50007627672776277A836983085F1F4F42E09E
:105A600050E0BE016F5F7F4FC801A4D781E090E096
:105A70009C838B8342E050E0BE016D5F7F4FC80185
:105A800099D780E091E09C838B8342E050E0BE0197
:105A90006D5F7F4FC8018ED71C821B8242E050E0B1
:105AA000BE016D5F7F4FC80185D742E050E0BE0167
:105AB0006D5F7F4FC8017ED742E050E0BE016D5F51
:105AC0007F4FC80177D76701F6018081882301F1F4
:105AD000F7016F018191811113C05601AE18BF0803
