:100000007DC200000C9473390C94A4390C94D5393A
:100010000C94063A0C94373A0C94683A0C94993A3A
:100020000C94CA3A98C2000096C2000094C2000024
:1000300092C2000090C200008EC200000C943F34B7
:100040008AC2000088C2000086C2000084C200008C
:1000500082C2000080C200007EC200000C940F3CEF
:100060007AC200000C9402400C94464174C2000015
:1000700072C2000070C200006EC200006CC20000BC
:100080006AC2000068C2000066C2000064C20000CC
:100090000C9442400C9485415EC200005CC200009A
:1000A0005AC2000058C2000056C2000054C20000EC
:1000B00052C2000050C200004EC200004CC20000FC
:1000C0004AC2000048C2000046C200000C948240B0
:1000D0000C94C44140C200000C94C2400C940342F2
:1000E0003AC2000000316253C4F5A697B988DBEA32
:1000F0007D4C1F2E4372211087B6E5D4FACB98A908
:100100003E0F5C6D86B7E4D5427320113F0E5D6CE7
:10011000FBCA99A8C5F4A796013063527C4D1E2FE7
:10012000B889DAEB3D0C5F6EF9C89BAA84B5E6D7B7
:10013000407122137E4F1C2DBA8BD8E9C7F6A594C7
:1001400003326150BB8AD9E87F4E1D2C02336051C7
:10015000C6F7A495F8C99AAB3C0D5E6F41702312A7
:1001600085B4E7D67A4B1829BE8FDCEDC3F2A19097
:100170000736655439085B6AFDCC9FAE80B1E2D387
:1001800044752617FCCD9EAF38095A6B4574271667
:1001900081B0E3D2BF8EDDEC7B4A19280637645567
:1001A000C2F3A0914776251483B2E1D0FECF9CAD77
:1001B0003A0B586904356657C0F1A293BD8CDFEE47
:1001C00079481B2AC1F0A3920534675678491A2B47
:1001D000BC8DDEEF82B3E0D1467724153B0A596827
:1001E000FFCE9DAC49503A206272616B2045746825
:1001F0006572536869656C642E2E2E0A0057575736
:100200003A7374726F6E6120676F746F77610A0062
:100210005757573A7572756368616D69616D2073E0
:1002200074726F6E652E2E2E0A0049503A4F4B2E77
:100230002E2E0A0049503A206B6F6E666967757200
:1002400061636A612073696563692E2E2E0A00530B
:10025000443A20626C6164206F64637A797475201B
:1002600064616E7963680053443A20626C61642073
:100270006B617274790A0053443A206272616B2098
:100280006B617274790A00206279746573290A00BF
:10029000206D696C6C697320287265636569766589
:1002A00064200020627974657320696E20005772A3
:1002B0006F746520004372656174696E6720004346
:1002C0006F756C64206E6F742066696E6420666959
:1002D0006C653A2000526561642066696C65200097
:1002E000436F756C64206E6F74207061727365204B
:1002F00055524C007C3C3E5E2B3D3F2F5B5D3B2CC2
:100300002A225C0048544D2A746578742F68746DF5
:100310006C7C5458542A746578742F706C61696EC3
:100320007C4353532A746578742F6373737C584DE0
:100330004C2A746578742F786D6C7C4A532A7465E6
:1003400078742F6A6176617363726970747C47494F
:10035000462A696D6167652F6769667C4A50472A3E
:10036000696D6167652F6A7065677C504E472A69C1
:100370006D6167652F706E677C49434F2A696D61B7
:1003800067652F766E642E6D6963726F736F667426
:100390002E69636F6E7C4D50332A617564696F2FCF
:1003A0006D7065677C00436F6E74656E742D547953
:1003B00070653A2000204F4B0D0A00485454502FCE
:1003C000312E31200000002100240027002A002DBA
:1003D000003000330001010000040107010A0100A0
:1003E000002200250028002B002E003100340002DE
:1003F000010000050108010B010000200023002678
:100400000029002C002F003200000100000301062B
:10041000010901050505050705080808080202028B
:10042000020A0A080804040404010101010101018F
:10043000010303030303030303040707070C0C0C66
:100440000C0C0C0C0C02020202060606060606063E
:10045000060B0B0B0B0B0B0B0B01021020200808DB
:100460001020401020408002010201080402010116
:1004700002040810204080804020100804020180FF
:100480000402018040201008040201080402010156
:10049000020408102040800102040810204080005F
:1004A00000090A02080B0C0D0706030401000000F6
:1004B000000000000000000000000000000000003C
:1004C000000000000000000000000011100F0000FC
:1004D000000000000000000000000000000000001C
:1004E000000000000000C703050F8210E410C213D3
:1004F00093153117031D132D7243B44411241FBEED
:10050000CFEFD1E2DEBFCDBF00E00CBF14E0A0E032
:10051000B2E0E4E8F0E900E00BBF02C007900D9202
:10052000A839B107D9F71BBE1EE0A8E9B4E001C0A5
:100530001D92A832B107E1F714E0CCEFD4E004C07B
:100540002297FE010E941048C63ED107C9F70E94BB
:1005500071450C94404854CD0F931F93CF93DF9374
:10056000689F8001699F100D789F100D1124C801AC
:100570000E94FA36EC01009721F060E070E0A801DB
:100580004BD0CE01DF91CF911F910F9108951F9312
:10059000FC0199278827BC01E89411911032E9F3F6
:1005A000193010F01E30C8F31B3249F01D3241F4EF
:1005B000689405C07BD0610F711D811D911D119143
:1005C00010531A30B8F33EF490958095709561956C
:1005D0007F4F8F4F9F4F1F910895FC010590002082
:1005E000E9F7809590958E0F9F1F0895FB01DC0120
:1005F00004C08D910190801921F441505040C8F7FA
:10060000881B990B0895FB01DC0102C001900D923B
:1006100041505040D8F70895DC0101C06D9341501E
:100620005040E0F70895FC018191861721F088235E
:10063000D9F7992708953197CF010895FB01DC017F
:100640008D91019080190110D9F3990B0895FB0148
:10065000DC0101900D920020E1F70895FB01DC011F
:100660004150504030F08D910190801919F40020D4
:10067000B9F7881B990B0895FB01DC0141505040EC
:1006800048F001900D920020C9F701C01D92415021
:100690005040E0F70895FC0181E090E001900616DB
:1006A00009F4CF010020D1F701970895592F482F61
:1006B000372F262F660F771F881F991F660F771F0A
:1006C000881F991F620F731F841F951F660F771F66
:1006D000881F991F08958CB190E0A0E0B0E024E05D
:1006E000B695A795979587952A95D1F78170089526
:1006F0000F931F93DF93CF9300D00F92CDB7DEB748
:10070000282F8091D0048230B9F580913705482F89
:1007100050E0FA01E153FB4F8081833069F500918D
:10072000BB041091BC0490E061E030E02250304006
:1007300015C0E053FB4FE081F0E0892F90E0E827FF
:10074000F927E00FF11FE4918E2F90E0A0E0B0E0D8
:1007500089839A83AB83BC839E2F6F5FE62FF0E083
:10076000E217F30734F320E042535B4FFA01808134
:10077000891719F421E001C020E0822F0F900F901B
:100780000F900F90CF91DF911F910F9108950F93CC
:1007900080ED95E060E040E020E000E00E94A844A9
:1007A0008FE994E06DE30E94663689EA94E09093C5
:1007B000D7058093D6058BE693E09093D905809377
:1007C000D8051092DC051092DD051092DE0510921E
:1007D000DF051092E0051092E1051092E2051092FB
:1007E000E3051092E4051092E5051092EA051092D7
:1007F000EB051092EC051092ED051092EE051092AB
:10080000EF051092F0051092F1051092F605109286
:10081000F7051092F8051092F9051092FA0510925A
:10082000FB051092FC051092FD058BEB93E0909375
:10083000BA048093B90484EE90E09093BC04809352
:10084000BB0480E091E09093BE048093BD0480E4FB
:1008500095E066E573E04EE953E020E530E00E9464
:100860001C33109264051092650510926805109271
:100870006A0582E090E0A0E0B0E080936B05909381
:100880006C05A0936D05B0936E05109282051092D1
:100890008C0510928B0586E194E090938A058093F5
:1008A000890510928E051092A9051092A8059093C3
:1008B000A7058093A6051092AB050F910895CF92DE
:1008C000DF92EF92FF920F931F93DF93CF9300D0AD
:1008D0000F92CDB7DEB77C016B0100E010E024C0C1
:1008E000D7011296ED91FC911397E00FF11FE4915F
:1008F0008E2F90E0A0E0B0E06E2F89839A83AB83C7
:10090000BC83C6014AE050E00E945E3EF70184814C
:10091000958101970817190728F4C60160E072E075
:100920000E940A3F0F5F1F4FD70114968D919C9133
:10093000159708171907A0F20F900F900F900F90BE
:10094000CF91DF911F910F91FF90EF90DF90CF90AB
:100950000895882321F4809108018F7D03C0809140
:1009600008018062809308010895809155038823CF
:1009700071F010923905109238058FE360E00E9403
:10098000AE3B85E460E00E94AE3B84E441C0409110
:10099000BF045091C00430E08091C1042AE0829FDE
:1009A000C00111244817590708F031E03093C304FF
:1009B00022E04D3B520718F081E08093380582E039
:1009C0004732580778F08091C7049091C804865246
:1009D000924010F4332319F44D5B524018F084E434
:1009E00061E002C084E460E00E94AE3B8091380583
:1009F000882369F08091C304882349F08EE190E058
:100A00009093A6038093A50385E461E002C085E48A
:100A100060E00C94AE3B3F924F925F926F927F9258
:100A20008F929F92AF92BF92CF92DF92EF92FF92FE
:100A30000F931F93CF93DF9390914B038AE0989F7E
:100A4000B0011124CDEBD3E04BE4442E43E0542E0F
:100A50003AE0332EE091CB04F091CC048881932DC1
:100A6000890280011124E017F107ACF18981890224
:100A7000D0011124AE17BF0774F100D00F92BF014F
:100A8000882777FD8095982F9801442737FD40955A
:100A9000542F7D010027F7FC0095102FF201A08054
:100AA000A39C50011124CC24B7FCC094DC2C6180A1
:100AB000639C30011124882477FC8094982CEDB736
:100AC000FEB761827282838294820E942A450F90CF
:100AD0000F900F900F9021960894411C511CF3E049
:100AE000C13CDF0709F0B6CF8091CB049091CC04D4
:100AF0008536910534F090914F038AE0989FB001BC
:100B00001124CB01DF91CF911F910F91FF90EF90B6
:100B1000DF90CF90BF90AF909F908F907F906F901D
:100B20005F904F903F900895CF93DF93809149035A
:100B300090914A038230910509F071C080913B0584
:100B40008823B9F082E461E00E94AE3B80914203C9
:100B5000909143039093B8048093B70481E090E0B0
:100B600090934A03809349031092B6041092B504FF
:100B700078C080913905882309F473C02091BF049F
:100B80003091C004809147039091480382179307E6
:100B900008F067C08091B7049091B804892B09F0E0
:100BA00060C039DF90934803809347032091CD04C0
:100BB0003091CE048217930709F453C0EC01C21B95
:100BC000D30B8217930710F482E405C02817390766
:100BD00008F047C081E461E00E94AE3B809144038D
:100BE000282F30E03093B8042093B70481E090E0E0
:100BF00090934A0380934903CA30D10590F5C90107
:100C0000969587959093B8048093B704259748F5F7
:100C1000969587959093B8048093B70422C0019766
:100C200001F58091B7049091B804892BD1F482E446
:100C300060E00E94AE3B81E460E00E94AE3B8091A8
:100C40003B05882371F4809145039091460390936E
:100C5000B8048093B70482E090E090934A038093B5
:100C60004903DF91CF910895AF92BF92CF92DF9267
:100C7000EF92FF920F931F93DF93CF93CDB7DEB721
:100C8000A9970FB6F894DEBF0FBECDBF8091A30326
:100C90009091A403009799F40E94573C6093CC056F
:100CA0007093CD058093CE059093CF0510923D05AE
:100CB00010923C0510923E0581E090E006C1813023
:100CC0009105D9F40E94573C2091CC053091CD0577
:100CD0004091CE055091CF05621B730B840B950B91
:100CE000653671058105910508F40CC210923D0529
:100CF00010923C0582E090E0E8C08230910509F056
:100D00005FC010923605DE015596E2E0F2E085E123
:100D100001900D928150E1F73091340540913505F5
:100D200051E090E0BE016B5E7F4FDE01119621C065
:100D3000FB01E90FF11D40819F5FFB01E90FF11DF0
:100D400091503081413418F0842F875302C0842F92
:100D50008053313418F0232F275302C0232F205300
:100D6000FD01E50FF11D8295807F822B80835F5FFF
:100D70009E5F9431E8F230933405409335059093AB
:100D800036058AE0898381E0809354038E010F5FEA
:100D90001F4F0BC0F801E80FF11D60818F5F80933A
:100DA00054038AEB9DE00E943243809154038B30C0
:100DB00088F310923D0510923C0583E090E085C0D9
:100DC00083309105B1F58AEB9DE00E94C842892BE2
:100DD00059F0109254031092370510923D0510926D
:100DE0003C0584E090E071C080913C0590913D0508
:100DF000019690933D0580933C058159914008F4FC
:100E000081C110923D0510923C0520913E052F5F57
:100E100020933E0582E090E09093A4038093A30387
:100E2000263008F46FC181E08093B40480935503A9
:100E300069C18430910509F04DC08AEB9DE00E94A4
:100E4000C842181619067CF4109154038AEB9DE0F1
:100E50000E94F942E12FF0E0E053FB4F80831F5FD7
:100E60001093540323C080913C0590913D05019659
:100E700090933D0580933C0581599140B8F01092C4
:100E80003D0510923C0582E090E09093A40380938E
:100E9000A30380913E058F5F80933E05863030F03E
:100EA00082E08093B40481E08093550380915403E1
:100EB000863508F427C180933705109254031092A9
:100EC0003D0510923C0587E090E09093A403809349
:100ED000A30318C1079709F015C18091370586351E
:100EE00009F003C105DC882309F4FFC01092550303
:100EF0009091E10480E02091E00430E0822B932B7C
:100F00009093CE048093CD049091E30480E02091EF
:100F1000E20430E0822B932B9093C8048093C704A3
:100F20009091E50480E02091E40430E0822B932B43
:100F30009093CC048093CB049091E70480E02091BF
:100F4000E60430E0822B932B9093C5048093C40475
:100F50009091ED0480E02091EC0430E0822B932B03
:100F60009093C0048093BF049091EF0480E020919F
:100F7000EE0430E0822B932B9093CA048093C90433
:100F80008091F1048093C2048091F5048093C104A0
:100F90008091F6048093C6046091F7046093CF04B7
:100FA00086ED95E00E94B3342091CF04422F50E0AB
:100FB000253110F04451504080919B0490919C0445
:100FC000892B31F488EC90E090939E0480939D04EB
:100FD00080919D0490919E04181619068CF422238A
:100FE00079F08091C1042AE0829FC00111242091F0
:100FF000BF043091C0042817390710F440E550E0D1
:1010000000D00F92BA01882777FD8095982FEDB711
:10101000FEB7118212821382148220E030E040E099
:1010200050E0B4E6EB2EF12C012D112DAFEFAA2EDE
:10103000B12CC12CD12C0E942A459B01AC010F90F0
:101040000F900F900F908CE0B9010E941938809199
:10105000CF0480939B0410929C048091F00490E054
:1010600096958795817080933A0560E0811161E0E3
:1010700080E40E94AE3B10923B05809123058130B5
:1010800011F480933B058091F00490E0969587954C
:101090009695879581708093390560E0811161E0B4
:1010A0008FE30E94AE3B8091F00490E073E0969550
:1010B00087957A95E1F781708093380511C0109279
:1010C0003D0510923C0580913E058F5F80933E0563
:1010D000863030F084E08093B40481E0809355033F
:1010E0001092A4031092A3030DC080913C0590912F
:1010F0003D05019690933D0580933C0581599140B3
:10110000F0F6EECFA9960FB6F894DEBF0FBECDBFB6
:10111000CF91DF911F910F91FF90EF90DF90CF90D3
:10112000BF90AF9008950E94573C2091C305309125
:10113000C4054091C5055091C605621B730B840B15
:10114000950B653671058105910508F478C00E94FC
:10115000573C6093B0047093B1048093B2049093B1
:10116000B3048FE994E00E943A366093A40470932C
:10117000A5048093A6049093A7040E9455462AE0F4
:1011800030E040E050E00E949E47DC01CB018093BC
:10119000AC049093AD04A093AE04B093AF046091FF
:1011A0009804709199040E948236AA2797FDA09511
:1011B000BA2F8093A8049093A904A093AA04B09393
:1011C000AB040E94573C2091B0043091B10440918F
:1011D000B2045091B304621B730B840B950B6093A4
:1011E000B0047093B1048093B2049093B3040E944E
:1011F000573C6093C3057093C4058093C5059093D5
:10120000C6058091B7049091B804009729F0019722
:101210009093B8048093B70480919D0490919E04AC
:10122000181619062CF4019790939E0480939D0440
:1012300080919A04882319F0815080939A040E9427
:10124000573C2091C7053091C8054091C905509180
:10125000CA05621B730B840B950B63337105810503
:10126000910550F00E94573C6093C7057093C805E4
:101270008093C9059093CA05F7DC77DB809155030D
:10128000882309F451DC80919A04882399F48DE035
:101290000E94E03B60E0892B09F461E08DE00E9450
:1012A000AE3B80915503882311F481E001C08AE0B0
:1012B00080939A048091A203882341F08091CB050A
:1012C000882321F480E495E00C94EC3108950F9389
:1012D0001F93DF93CF93CDB7DEB72C970FB6F8945B
:1012E000DEBF0FBECDBF88E99DE040E855E260E07B
:1012F00070E00E9442428AEB9DE040E052EC61E0E7
:1013000070E00E94424282E161E00E94AE3B83E1D4
:1013100061E00E94AE3B8DE061E00E94AE3B8DE05B
:1013200061E00E94FB3A8FE360E00E94AE3B8FE3F6
:1013300061E00E94FB3A85E460E00E94AE3B85E4F8
:1013400061E00E94FB3A84E460E00E94AE3B84E4EA
:1013500061E00E94FB3A82E460E00E94AE3B82E4DE
:1013600061E00E94FB3A81E460E00E94AE3B81E4D0
:1013700061E00E94FB3A80E460E00E94AE3B80E4C2
:1013800061E00E94FB3A8CE061E00E94FB3A8CE055
:101390006FEF70E00E94193883E461E00E94FB3A2D
:1013A00083E460E00E94AE3B86ED95E060E070E093
:1013B0000E94733488EE93E0A0E0B0E08093FA05D9
:1013C0009093FB05A093FC05B093FD0585E361E0D8
:1013D0000E94FB3A85E361E00E94AE3B8AE061E057
:1013E0000E94FB3A8AE061E00E94AE3B84E061E04B
:1013F0000E94FB3A84E061E00E94AE3B8FE595E0FD
:1014000060E044E00E944D1F882341F488E99DE09C
:1014100067E772E00E944A3D1092A2038BE695E0D6
:101420006FE575E041E00E94AB20882389F48BE6EC
:1014300095E06FE575E040E00E94AB20882341F421
:1014400088E99DE067E672E00E944A3D1092A2039F
:1014500089E895E06BE675E00E944328882341F413
:1014600088E99DE06FE472E00E944A3D1092A20379
:101470008091A203882331F086E69DE09093A7082F
:101480008093A60888E99DE064E372E00E944A3DEB
:101490008E010F5F1F4FC80160E573E00E940F458A
:1014A00086E296E067EA73E0A8010E94AF168E011B
:1014B000095F1F4F89E090E0B80146E050E00E94CC
:1014C000F61BC80167EA73E046E050E08FD88093CE
:1014D000CB058823A9F488E99DE06AE272E00E94C6
:1014E0004A3D88E99DE060E172E00E944A3D80E467
:1014F00095E00E943D2F88E99DE06DEF71E004C00A
:1015000088E99DE064EE71E00E944A3D8FE994E035
:101510000E943A366093A4047093A5048093A604B5
:101520009093A7040E94573C6093C3057093C40531
:101530008093C5059093C6056093C7057093C80551
:101540008093C9059093CA0582E00E94C5369093A6
:101550009904809398042C960FB6F894DEBF0FBEC2
:10156000CDBFCF91DF911F910F910895EF92FF9220
:101570000F931F938C0182E1E82EF12CE00EF11EF7
:10158000C70168EC70E00E94512EC80167E172E06B
:101590000E947B33C7010E94753DC70161E272E082
:1015A0000E940A3F0E94573C28EE33E040E050E0A2
:1015B0000E94D147C701BA01A9012AE030E00E9488
:1015C000143EC7016AE272E00E94F03F81E01F9181
:1015D0000F91FF90EF9008950F931F93CF93DF9398
:1015E0008C01EC016296CE0168EC70E00E94512EF5
:1015F000C80167E172E00E947B33CE010E94753D15
:10160000CE016CE272E00E940A3F85E40E94E03B5A
:10161000892B19F466E372E002C06CE372E0CE013C
:101620000E940A3FCE0160E072E00E940A3FCE01B4
:1016300061E472E00E940A3F84E40E94E03B892B4F
:1016400019F466E372E002C06CE372E0CE010E941E
:101650000A3FCE016AE272E00E940A3F81E0DF9118
:10166000CF911F910F910895AF92BF92CF92DF92C9
:10167000EF92FF920F931F937C018C010E5E1F4F20
:10168000C80168EC70E00E94512EC70167E172E06A
:101690000E947B33C8010E94753DC8016AE472E074
:1016A0000E940A3F3CE4C32E32E0D32EC801B601AB
:1016B0000E940A3F8091BF049091C0046AE070E0EC
:1016C0000E94BD47C8014AE050E00E94333E26E533
:1016D000A22E22E0B22EC801B5010E940A3F8091DD
:1016E000BF049091C0046AE070E00E94BD47BC0155
:1016F000C8014AE050E00E94333E98E5E92E92E0AE
:10170000F92EC801B7010E940A3FC801B6010E9424
:101710000A3F8091C4049091C5046AE070E00E9481
:10172000BD47C8014AE050E00E94333EC801B50100
:101730000E940A3F8091C4049091C5046AE070E061
:101740000E94BD47BC01C8014AE050E00E94333E00
:10175000C801B7010E940A3FC801B6010E940A3FB2
:101760008091C7049091C8046AE070E00E94BD4770
:10177000C8014AE050E00E94333EC801B5010E9412
:101780000A3F8091C7049091C8046AE070E00E940B
:10179000BD47BC01C8014AE050E00E94333EC80189
:1017A000B7010E940A3FC801B6010E940A3F80911A
:1017B000C9049091CA046AE070E00E94BD47C80164
:1017C0004AE050E00E94333EC801B5010E940A3F42
:1017D0008091C9049091CA046AE070E00E94BD47FC
:1017E000BC01C8014AE050E00E94333EC801B70185
:1017F0000E940A3FC801B6010E940A3FC8016091D9
:10180000CF044AE050E00E945E3EC801B7010E944A
:101810000A3FC801B6010E940A3F8091CD04909111
:10182000CE046AE070E00E94BD47C8014AE050E083
:101830000E94333EC801B5010E940A3F8091CD0449
:101840009091CE046AE070E00E94BD47BC01C801DF
:101850004AE050E00E94333EC8016BE572E00E940E
:101860000A3F81E01F910F91FF90EF90DF90CF90A2
:10187000BF90AF9008950F931F93CF93DF938C0188
:10188000EC016296CE0168EC70E00E94512EC80116
:101890006EE572E00E947B33CE010E94753DCE0161
:1018A00069E672E00E940A3F85E40E94E03BBC01C9
:1018B000CE014AE050E00E94ED3ECE016FE672E0BC
:1018C0000E940A3F84E40E94E03BBC01CE014AE052
:1018D00050E00E94ED3ECE0165E772E00E940A3FB3
:1018E000CE016091CF044AE050E00E946F3E8091AB
:1018F0005503882329F0CE0161E872E00E94F03F91
:1019000060913C0570913D05CE014AE050E00E9497
:10191000433ECE0160913F054AE050E00E946F3E99
:1019200081E0DF91CF911F910F9108950F931F9345
:10193000CF93DF938C01EC016296CE0168EC70E0EE
:101940000E94512EC8016EE572E00E947B33CE01E9
:101950000E94753DCE016EE872E00E940A3F6091E0
:10196000BF047091C004CE014AE050E00E94433EA3
:10197000CE0169E672E00E940A3F6091C404709152
:10198000C504CE014AE050E00E94433ECE016FE61E
:1019900072E00E940A3F6091C7047091C804CE01B2
:1019A0004AE050E00E94433E80915503882329F08D
:1019B000CE0161E872E00E94F03F81E0DF91CF91BB
:1019C0001F910F910895EF92FF920F931F937C0147
:1019D0008C010E5E1F4FC80168EC70E00E94512E12
:1019E000C7016EE572E00E947B33C8010E94753D1D
:1019F0004091A4045091A5046091A6047091A7049D
:101A0000C80122E030E00E94DF3F8FE994E00E94AD
:101A1000AA35682FC8014AE050E00E946F3E6091ED
:101A2000C9047091CA04C8014AE050E00E94433ED4
:101A30004091A8045091A9046091AA047091AB044C
:101A4000C8012AE030E00E94213E4091B00450914C
:101A5000B1046091B2047091B304C8012AE030E08F
:101A60000E94C93E6091CB047091CC04C8014AE049
:101A700050E00E94ED3E6091470370914803C80119
:101A80004AE050E00E94433EC8016091C1044AE030
:101A900050E00E946F3EC8016091C3044AE050E0EC
:101AA0000E946F3EC8016091C2044AE050E00E946B
:101AB0006F3EC8016091B4044AE050E00E946F3E5E
:101AC00081E01F910F91FF90EF9008950F931F9366
:101AD000CF93DF938C01E9016130710509F444C0B3
:101AE0006230710509F465C0672B09F0B4C00E942B
:101AF000573C60930206709303068093040690930C
:101B000005061092FE051092FF0510920006109235
:101B100001068091AB05882309F09DC0C8010E9491
:101B20004D2C0E944B30EC01009709F494C088E9D9
:101B30009DE065EB72E00E944A3D88E99DE0BE01B0
:101B40000E940A3F88E99DE062E972E00E940A3F34
:101B500086EA95E069E875E0AE0122E50E944B2B2C
:101B6000CE010E94813777C08091AB05882309F4AC
:101B700072C086EA95E0BA01A9010E9425299E015A
:101B8000442737FD4095542F8091FE059091FF0525
:101B9000A0910006B0910106820F931FA41FB51FEC
:101BA0008093FE059093FF05A0930006B093010675
:101BB00052C086EA95E00E94D02588E99DE06EEA51
:101BC00072E00E944A3D4091B9055091BA0560917A
:101BD000BB057091BC0588E99DE02AE030E00E94D9
:101BE000143E88E99DE063EA72E00E944A3D0E944B
:101BF000573CAB01BC018091020690910306A09175
:101C00000406B0910506481B590B6A0B7B0B88E94B
:101C10009DE02AE030E00E94143E88E99DE060E902
:101C200072E00E944A3D4091FE055091FF0560918F
:101C300000067091010688E99DE02AE030E00E94EC
:101C4000143E88E99DE067E872E00E944A3D86EA1A
:101C500095E00E941826DF91CF911F910F91089572
:101C6000CF92DF92EF92FF920F931F93CF93DF9368
:101C7000EC016B0142E1E42EF12CE80EF91E611536
:101C8000710559F4C70164E971E00E94512ECE013B
:101C900060EE72E00E944A3D3DC0CB010E947A2D69
:101CA0008C01C70168EC70E00E94512ECE01B80192
:101CB0000E949133C7010E94753D86EA95E069E86C
:101CC00075E0A60121E00E944B2B8823A9F088E94A
:101CD0009DE065ED72E00E944A3D88E99DE0B60115
:101CE0000E94F03FCE0166EA75E00E94482D86EA28
:101CF00095E00E9418260EC0CE016FEB72E00E94A4
:101D00004A3DCE01B6010E940A3FCE0162E972E06F
:101D10000E940A3FDF91CF911F910F91FF90EF90AA
:101D2000DF90CF90089564E972E09ADF81E0089532
:101D3000EF92FF920F931F937C010E944D2C0E9403
:101D40004B308C01C701B8018BDFC8010E9481377D
:101D500081E01F910F91FF90EF900895882319F46F
:101D60008CB5806202C08CB58F7D8CBD08959CB50A
:101D7000937F982B9CBD08952CB5382F33702C7F02
:101D8000322B3CBD2DB590E095958795959587951F
:101D900081702E7F822B8DBD089585E361E00E94C6
:101DA000AE3B85E361E00E94FB3A8CB580618CBD5F
:101DB0008CB580648CBD84E361E00E94FB3A83E3D0
:101DC00061E00C94FB3AFC011382128286EC93E0F2
:101DD00091838083758364830895DF93CF930F92FB
:101DE000CDB7DEB7FC016983A081B18112962D9138
:101DF0003C911397BE016F5F7F4F41E050E0F901C6
:101E000019950F90CF91DF9108950F9386E096E09A
:101E100060E040E020E000E00E94A8440F910895B7
:101E20008F929F92BF92CF92DF92EF92FF920F9389
:101E30001F93DF93CF93CDB7DEB72D970FB6F894EE
:101E4000DEBF0FBECDBF7C010EE116E088249924D1
:101E5000BB246E010894C11CD11CC6016B2D4AD451
:101E6000D8012D913C91F70184819581281739077C
:101E700091F4C60192D4843121F481E0882E912C12
:101E80000AC0C6018AD48C3131F4C60134D5892BFD
:101E900011F4C601B0D4B3940E5F1F4FF4E0BF1627
:101EA000E1F6892841F4D701ED91FC910480F58198
:101EB000E02DC70119952D960FB6F894DEBF0FBE21
:101EC000CDBFCF91DF911F910F91FF90EF90DF90E9
:101ED000CF90BF909F908F9008954F925F926F9296
:101EE0007F928F929F92AF92BF92DF92EF92FF927A
:101EF0000F931F93DF93CF93CDB7DEB72D970FB618
:101F0000F894DEBF0FBECDBF4C012B013A0188DF34
:101F10009EE1E92E96E0F92E00E010E0DD245E015E
:101F20000894A11CB11CC5016D2DE4D3F7012081DB
:101F30003181F401848195812817390751F4C50155
:101F40002CD4873131F4C501B201A301E1D4080FCB
:101F5000191FD39482E090E0E80EF91E94E0D916A0
:101F600011F7C8012D960FB6F894DEBF0FBECDBF96
:101F7000CF91DF911F910F91FF90EF90DF90BF9075
:101F8000AF909F908F907F906F905F904F9008954B
:101F90009F92AF92BF92CF92DF92EF92FF920F93F8
:101FA0001F93DF93CF93CDB7DEB72D970FB6F8947D
:101FB000DEBF0FBECDBFC82E992E5B01CB0130DF37
:101FC0000EE116E0DD247E010894E11CF11CC7013E
:101FD0006D2D90D3F80120813181F50184819581A7
:101FE0002817390749F5C701D8D3873121F0C70130
:101FF000D4D38C3109F5C7017ED4892BE9F0EC2DBF
:10200000F92D8B819C81938382838D819E81AF8109
:10201000B88584839583A683B78389859A85AB85A4
:10202000BC8580879187A287B38780ED93E09183F9
:1020300080838D8584870AC0D3940E5F1F4FF4E0A0
:10204000DF1629F68C2D992D64E054D38C2D992D13
:102050002D960FB6F894DEBF0FBECDBFCF91DF91A6
:102060001F910F91FF90EF90DF90CF90BF90AF90B6
:102070009F900895CF92DF92EF92FF920F931F935C
:10208000DF93CF93CDB7DEB72D970FB6F894DEBFB1
:102090000FBECDBF6C0100E010E07E010894E11C92
:1020A000F11CC701602F26D3C70177D38823B1F471
:1020B000F60144815581802F61E020E00E9464197F
:1020C000802F0E94F218000F111F025E194FF601B7
:1020D00084819581F8019183808305C00F5F1F4F34
:1020E00004301105F1F62D960FB6F894DEBF0FBE41
:1020F000CDBFCF91DF911F910F91FF90EF90DF90B7
:10210000CF9008950F938CE096E060E040E020E0EF
:1021100000E00E94A8440F9108959C01FB01828178
:102120009381A481B581F90182839383A483B583CC
:10213000178216820895CF93DF93FB0101C0319679
:1021400080818823E1F7EB01A0E0B0E020E030E0FF
:1021500021C06E3261F42F3F310509F07CF5FA01A0
:10216000EA0FFB1F2283119620E030E012C0C90164
:10217000E3E0880F991FEA95E1F7220F331F820FE2
:10218000931F262F332727FD309520533040280FEB
:10219000391F21966881662319F0A430B105CCF26D
:1021A0002F3F310509F054F4A430B1053CF4A40FDD
:1021B000B51F12962C9321E030E002C020E030E001
:1021C000C901DF91CF9108950F9382E196E060E01D
:1021D00040E020E000E00E94A8440F9108952F9273
:1021E0003F924F925F926F927F928F929F92AF92A7
:1021F000BF92CF92DF92EF92FF920F931F93DF93E4
:10220000CF93CDB7DEB769970FB6F894DEBF0FBE98
:10221000CDBF4C018B011A010E94573C2B013C01A0
:10222000F8E0EF2EF12CE80CF91C5801CC24DD2449
:1022300014C00E94573C6419750986099709A616AF
:10224000B706C806D90618F42FEF3FEFF8C062E3CF
:1022500070E080E090E00E94653CC70173D61816DC
:1022600019063CF7F4012281338144815581818D27
:10227000928DA38DB48D8A879B87AC87BD872817E5
:1022800039074A075B0709F0D8C0858D968DC59739
:1022900009F0D3C0EEC08E01025F1F4FC701B80125
:1022A0004CE050E003D6F801528143815B834A83BE
:1022B000F401268137818E859F852817390711F40F
:1022C00057FD05C0C701BBD52CEF3FEFB8C04F701D
:1022D0005270452B29F0C701B2D52BEF3FEFAFC0AD
:1022E000F801768067806114710441F0AA24BB2450
:1022F00048012E010894411C511C24C0C7019FD5E0
:102300002AEF3FEF9CC0C701B20141E050E0CED5BB
:102310008981882319F407C0C701EAD589818150D2
:1023200089838F5FC9F78981882369F700E010E00E
:10233000C701DED50F5F1F4F04301105C9F70894A0
:10234000A11CB11CF401D480C580AC14BD04D8F22A
:1023500044245524C701BE016F5F7F4F41E050E028
:10236000A5D59981892F807C59F4992319F40BC044
:10237000C701BED58981815089838F5FC9F703C0AA
:10238000C701B6D519828981882321F7C701BE010B
:102390006C5F7F4F42E050E089D5C701BE016A5FA4
:1023A0007F4F42E050E082D500E010E0C701A0D5A9
:1023B0000F5F1F4F04301105C9F7C701BE016E5FE3
:1023C0007F4F42E050E072D5DC80CD80F1E0CF1647
:1023D000D10401F5BE80AF8081E0A816B104D1F42C
:1023E0009A818B81049729F0C70129D527EF3FEF08
:1023F00026C0E2E0F0E02E0E3F1EC701B10144E02E
:1024000050E054D521E030E01AC0C70171D50F5F0C
:102410001F4F02C000E010E09A808B80081519055C
:10242000A0F30894411C511C4614570408F492CFA1
:10243000C70105D526EF3FEF02C02EEF3FEFC901E0
:1024400069960FB6F894DEBF0FBECDBFCF91DF9176
:102450001F910F91FF90EF90DF90CF90BF90AF90C2
:102460009F908F907F906F905F904F903F902F90B4
:10247000089586E994E099878887C701C4D40C97AA
:102480000CF009CF2DEF3FEFDACF6F927F928F9252
:102490009F92AF92BF92CF92DF92EF92FF920F93F3
:1024A0001F93DF93CF9300D0CDB7DEB78C01F62E0C
:1024B000E72E0E94573CF80177836683B8E0CB2E65
:1024C000D12CC00ED11E0A5F1F4FC601B80142E0D9
:1024D00050E08AD581E090E09B838A83A2E08A2E37
:1024E000912C8C0E9D1EC601B40142E050E07CD5BB
:1024F00080E091E09B838A83C601B40142E050E012
:1025000073D51B821A82C601B40142E050E06CD53B
:10251000C601B40142E050E067D5C601B40142E013
:1025200050E062D52F2D3E2DC9018C017C013E016A
:102530000894611C711C1EC00894E11CF11CF70179
:102540008081882311F08E32B9F75701A01AB10AA1
:102550001A141B0464F48E2D801B8983C601B301F9
:1025600041E050E041D5C601B801A5013DD5870144
:102570000F5F1F4FF7018081882311F07801DFCFB3
:102580001982C601BE016F5F7F4F41E050E02CD53C
:1025900000E011E01B830A83C601B40142E050E071
:1025A00023D51B830A83C601B40142E050E01CD549
:1025B00081E090E00F900F900F90CF91DF911F91ED
:1025C0000F91FF90EF90DF90CF90BF90AF909F90D2
:1025D0008F907F906F9008958F929F92AF92BF924D
:1025E000CF92DF92EF92FF920F931F93DF93CF93DF
:1025F00000D000D0CDB7DEB76C017B014A019BDD76
:10260000892B19F001E010E061C0F60122813381CD
:10261000448155818091140690911506A09116066B
:10262000B0911706281739074A075B0719F40EEF10
:102630001FEF4CC018E0A12EB12CAC0CBD1C0E94A9
:10264000573C9B01AC012F70307020503C4FC501AE
:10265000B90183D5813019F000E010E037C086E978
:1026600094E09A838983F60182819381A481B58164
:102670008B839C83AD83BE83C501BE016F5F7F4F9B
:1026800045E350E0CED48C010097F1F0C601B701CC
:10269000FCDE8C010097C1F0C501C0D48C0100970D
:1026A00099F0EE24FF24C60168E873E1A40197DDE8
:1026B0008C010894E11CF11CF3E0EF16F10421F009
:1026C0008FEF0F3F180779F3C50133D5C801269660
:1026D0000FB6F894DEBF0FBECDBFCF91DF911F9133
:1026E0000F91FF90EF90DF90CF90BF90AF909F90B1
:1026F0008F900895FC011382128288EE93E0A0E08F
:10270000B0E084839583A683B78380ED93E09183C3
:10271000808364870895DF93CF930F92CDB7DEB7A0
:10272000FC016983A081B18112962D913C91139790
:10273000BE016F5F7F4F41E050E0F90119950F90A6
:10274000CF91DF910895CF93DF93EC0107C0E8812B
:10275000F9810680F781E02DCE011995E881F98194
:102760000480F581E02DCE011995892B81F7DF9149
:10277000CF91089520E0FC018485843009F021E0A8
:10278000822F08950F9388E196E060E040E020E01A
:1027900000E00E94A8440F910895FC0184858430D4
:1027A00011F480E00895982F80E08D5F9B4F2AC739
:1027B000CF93DF93EC018C85843011F480E018C056
:1027C000CE01EBDF843191F0882381F0883171F004
:1027D0008C3151F4E881F9810480F581E02DCE013E
:1027E000199520E0892B19F021E001C020E0822F0B
:1027F000DF91CF910895EF92FF920F931F93CF93A4
:10280000DF93EC018C85843069F1E0D40E94573C61
:102810007B018C01CE01C1DF8823F9F00E94573C77
:102820006E197F09800B910B685E73408040904069
:10283000A0F461E070E080E090E00E94653CEACFA7
:102840008C8509D5EC85F0E0EE0FFF1FE25EF94FB5
:102850001182108284E08C8705C0CE019EDF882320
:1028600089F3EECFDF91CF911F910F91FF90EF9001
:1028700008950F931F93DF93CF930F92CDB7DEB7D9
:102880008C01DC01ED91FC910480F581E02D19951E
:10289000892B19F42FEF3FEF09C0F8018485BE01A1
:1028A0006F5F7F4F23D68981282F30E0C9010F90B9
:1028B000CF91DF911F910F910895FC01848524C66B
:1028C000DF93CF930F92CDB7DEB7FC018485BE01B5
:1028D0006F5F7F4F41E050E017D6181619061CF0C5
:1028E0002FEF3FEF03C08981282F30E0C9010F90FF
:1028F000CF91DF910895FC016485643019F420E0E4
:1029000030E004C08CE396E028D79C01C90108950B
:102910000F931F93CF93DF938C01EA01FC01848511
:10292000843019F481E090E006C091D5892B39F408
:1029300081E090E0F80193838283C0E0D0E0CE0193
:10294000DF91CF911F910F910895AF92BF92CF92D7
:10295000DF92EF92FF920F931F93CF93DF937C014F
:102960006B015A01FC018485843009F051C0C0E03C
:10297000D0E003E014E0C80145D6882321F0883177
:1029800011F08C3119F4F701C48706C0219600506C
:102990001F4FC430D10579F7F70124852430C1F1E8
:1029A0008091AD039091AE0301969093AE03809316
:1029B000AD03892B31F480E094E09093AE038093D3
:1029C000AD034091AD035091AE03822F61E020E052
:1029D0007BD482E090E0C80ED91EF7018485B60151
:1029E000A501D0D408C061E070E080E090E00E94D2
:1029F000653CC701D2DE882321F484E0F701848797
:102A000007C0C701CADE873171F721E030E002C09C
:102A100020E030E0C901DF91CF911F910F91FF902D
:102A2000EF90DF90CF90BF90AF9008956F927F921C
:102A30008F929F92AF92BF92CF92DF92EF92FF92CE
:102A40000F931F93DF93CF93CDB7DEB7E5970FB604
:102A5000F894DEBF0FBECDBF4C015B013A0193E19C
:102A6000E92EF12CEC0EFD1EC7010E942045CE017F
:102A70004B96DED26E010894C11CD11CC6010E9487
:102A800020458E01095F1F4FC80166E276E03AD00B
:102A9000C701B80142DBC701B501A6019DDD9C015C
:102AA00081309105C9F4D401ED91FC910484F58540
:102AB000E02D86E994E09E878D878B819C81AD8196
:102AC000BE818F87988BA98BBA8BC401BE01635FCF
:102AD0007F4FA30119959C01C901E5960FB6F894A3
:102AE000DEBF0FBECDBFCF91DF911F910F91FF9041
:102AF000EF90DF90CF90BF90AF909F908F907F909E
:102B00006F900895DB01FC0126E934E031832083D6
:102B100012962D913D914D915C91159722833383AF
:102B20004483558308950F938EE296E060E040E081
:102B300020E000E00E94A84486E296E00E94204542
:102B40000F9108956F927F928F929F92AF92BF9252
:102B5000CF92DF92EF92FF920F931F933C015B01A4
:102B60006A0149018CE396E0F7D689E090E0B5016F
:102B700046E050E020D582E090E0C80ED91E8FE0FC
:102B800090E0B60144E050E016D50E5F1F4F81E0A3
:102B900090E0B80144E050E00ED5E2E0F0E0EE0E47
:102BA000FF1E85E090E0B70144E050E004D5F40159
:102BB00082819381A481B581F30182839383A4836D
:102BC000B5831F910F91FF90EF90DF90CF90BF9052
:102BD000AF909F908F907F906F9008956F927F92AB
:102BE0008F929F92AF92BF92CF92DF92EF92FF921D
:102BF0000F931F93DF93CF93CDB7DEB76E970FB6CA
:102C0000F894DEBF0FBECDBF4C013B017A016901D4
:102C10005801CE0101966FEF4FEF2FEF00E00E94B9
:102C2000A84426E934E038872F83F7018281938115
:102C3000A481B58189879A87AB87BC873E872D871A
:102C4000F60182819381A481B5818F87988BA98BAE
:102C5000BA8B3C8B2B8BF50182819381A481B5814A
:102C60008D8B9E8BAF8BB88F3A8F298F8B819C81F8
:102C7000AD81BE818B8F9C8FAD8FBE8FC401B301A0
:102C8000AE01495F5F4F9E01235F3F4F8E010D5E96
:102C90001F4FE9E1EE2EF12CEC0EFD1E53DF6E9678
:102CA0000FB6F894DEBF0FBECDBFCF91DF911F915D
:102CB0000F91FF90EF90DF90CF90BF90AF909F90DB
:102CC0008F907F906F9008950F931F93DF93CF9312
:102CD000CDB7DEB768970FB6F894DEBF0FBECDBF95
:102CE000FA01D90122813381448155812B833C83B0
:102CF0004D835E83E6E9F4E0F887EF8329873A871E
:102D00004B875C87FE87ED8712962D913D914D9103
:102D10005C9115972F87388B498B5A8BFC8BEB8BEB
:102D200021E02E832B813C814D815E812D8B3E8B5A
:102D30004F8B588FAE01495F5F4F9E01235F3F4F1E
:102D40008E010D5E1F4F4ADF68960FB6F894DEBF06
:102D50000FBECDBFCF91DF911F910F910895DF93EB
:102D6000CF93CDB7DEB762970FB6F894DEBF0FBE34
:102D7000CDBFFA0122813381448155812B833C836D
:102D80004D835E83E6E9F4E0F887EF8329873A878D
:102D90004B875C87FE87ED8721E02E832B813C816A
:102DA0004D815E812F87388B498B5A8BAE01495FED
:102DB0005F4F9E01235F3F4F87DF62960FB6F89407
:102DC000DEBF0FBECDBFCF91DF910895DC01ED9145
:102DD000FC91008CF18DE02D19950895DB01FC012B
:102DE00026E934E03183208351962D913D914D9118
:102DF0005C91549722833383448355830895FC0167
:102E0000858996890895FC01818D928D0895DF93BF
:102E1000CF930F92CDB7DEB7FC016983A081B1815A
:102E200012962D913C911397BE016F5F7F4F41E049
:102E300050E0F90119950F90CF91DF910895CF934C
:102E4000DF93EC0107C0E881F9810680F781E02D6E
:102E5000CE011995898D9A8D892BA9F7DF91CF9194
:102E600008950F9384E396E060E040E020E000E006
:102E70000E94A8440F910895DF93CF930F92CDB78E
:102E8000DEB7FC01818D928D892B19F42FEF3FEF76
:102E900008C08485BE016F5F7F4F28D38981282FAA
:102EA00030E0C9010F90CF91DF910895CF93DF9368
:102EB000EC019A01498D5A8D4115510599F024175D
:102EC000350710F08C8502C08C85A9011DD39C01AB
:102ED000181619063CF4898D9A8D821B930B9A8FD4
:102EE000898F02C02FEF3FEFC901DF91CF91089585
:102EF0000F931F93DF93CF930F92CDB7DEB78C0163
:102F0000FC01818D928D892BA1F08485BE016F5FBC
:102F10007F4F41E050E0F8D21816190654F4F8013A
:102F2000818D928D0197928F818F8981282F30E03A
:102F300002C02FEF3FEFC9010F90CF91DF911F919A
:102F40000F910895EF92FF920F931F93DF93CF930A
:102F5000CDB7DEB728970FB6F894DEBF0FBECDBF52
:102F60008C01DC01ED91FC910284F385E02D199533
:102F70008CE396E0F8016485F0D3892B19F420E006
:102F800030E024C0D8011C968C917E010894E11C8D
:102F9000F11CB70148E050E0B7D29C0118161906A1
:102FA000ACF4C8010F96B7010E9402459D8180E0F4
:102FB0002E81820F911DF801968B858B9F8180E079
:102FC0002885820F911D928F818F9C01C9012896BF
:102FD0000FB6F894DEBF0FBECDBFCF91DF911F912A
:102FE0000F91FF90EF9008950F931F938C01FB01B9
:102FF0009A01DC0157966D917C9158971C968C91A3
:10300000AF01F8D19C01F8018789908D820F931F41
:10301000908F878BC9011F910F910895FC018485C2
:10302000FBC0FC01108E178A6E5F7F4F848581C1C3
:10303000FC011382128288EE93E0A0E0B0E084836A
:103040009583A683B7838CEE93E09183808384E09D
:103050008487CF010F960C9420456F927F928F92B8
:103060009F92AF92BF92CF92DF92EF92FF920F9317
:103070001F93DF93CF93CDB7DEB7E5970FB6F894E4
:10308000DEBF0FBECDBF4C015B013A0183E1E82EEC
:10309000F12CEC0EFD1EC7010E942045CE014B967F
:1030A000C7DF6E010894C11CD11CC6010E942045D7
:1030B0008E01095F1F4FC80166E276E023DDC7017C
:1030C000B8012BD8C701B501A60186DA9C01813071
:1030D0009105C9F4D401ED91FC910088F189E02DAE
:1030E00086E994E09E878D878B819C81AD81BE812E
:1030F0008F87988BA98BBA8BC401BE01635F7F4F0A
:10310000A30119959C01C901E5960FB6F894DEBF9D
:103110000FBECDBFCF91DF911F910F91FF90EF9028
:10312000DF90CF90BF90AF909F908F907F906F90E7
:103130000895CF93DF93EC018C85843059F08BD0C8
:10314000EC85F0E0EE0FFF1FE25EF94F1182108276
:1031500084E08C87DF91CF910895CF92DF92EF9238
:10316000FF920F931F93CF93DF937C016B01FC01C0
:103170008485843009F5C0E0D0E003E014E0C801A4
:1031800041D2882311F0883119F4F701C48706C0B1
:10319000219600501F4FC430D10589F7F70184856F
:1031A000843051F0D686C586128E118E62E0A6015B
:1031B00020E08AD081E001C080E0DF91CF911F91B3
:1031C0000F91FF90EF90DF90CF900895682F8CE3E0
:1031D00096E048E050E0B0C390E0982F88278E5FDB
:1031E0009B4F10C21F93182F982F80E08D5F9B4F2D
:1031F00009D2833111F080E007C08CE396E0612FA3
:1032000042E050E099D381E01F91089590E0982F1B
:1032100088278E5F9B4FB5C11F93182F8CE396E0D4
:10322000612F40E250E088D30AC0812FD5DF83FFB1
:1032300006C0812F68E1EADF20E030E009C0812F7D
:10324000CBDF84FFF2CF812F60E1E0DF21E030E0CF
:10325000C9011F9108951F93182F8CE396E0612FE9
:1032600040E150E069D3812F6FEFD0DF1F910895C7
:10327000FF920F931F93F62E672F082F10E00C5F1D
:103280001F4F102F0027C80140967BD1C8014196DF
:103290006F2D77D11F910F91FF900895FF920F939B
:1032A0001F93F62E672F082F10E00C5F1F4F102F73
:1032B0000027C801049665D1C80105966F2D61D11C
:1032C0001F910F91FF900895FF920F931F93CF933B
:1032D000DF93082FF62EEA01122F862F81508530BA
:1032E00010F080E020C0802FB6DF1F2980E0902FF3
:1032F0009C5F612F46D1209719F0802FBE010BC033
:1033000060913A0670913B066F5F7F4F70933B066A
:1033100060933A06802FC2DF8CE396E0602F41E095
:1033200050E00AD381E0DF91CF911F910F91FF9080
:1033300008951F93CF93DF93182FFB01EA0180813B
:10334000882349F48181882331F48281882319F408
:103350008381882381F0209771F0912F80E0845F32
:103360009B4FBF0144E050E026D1812FBE0180DF9A
:1033700021E030E002C020E030E0C901DF91CF91D0
:103380001F9108951F93CF93DF93182FFB01EA013C
:1033900080818F3F51F481818F3F91F482818F3FF3
:1033A00079F483818F3F61F420C0882349F48181BF
:1033B000882331F48281882319F483818823A9F03A
:1033C000209799F0912F80E0845F9B4FBF0144E0EC
:1033D00050E0F1D0812FBE014BDF8CE396E0612FEE
:1033E00044E050E0A9D281E001C080E0DF91CF91BC
:1033F0001F910895AF92BF92DF92EF92FF920F93C9
:103400001F93CF93DF93D82EEB015A0189018CE3F0
:1034100096E06D2DD1D18017910710F0780105C08D
:103420008CE396E06D2DC8D17C018CE396E06D2D88
:10343000AE019501870106D1C701DF91CF911F91A0
:103440000F91FF90EF90DF90BF90AF900895AF92F3
:10345000BF92DF92EF92FF920F931F93CF93DF9370
:10346000D82E5B018A0188E04130580710F000E057
:1034700018E0DD2DC0E0CD5FDB4F8CE396E06D2DD5
:103480009BD17C01CE01BED0873129F08C3119F05F
:1034900000E010E003C0E016F10678F38CE396E05C
:1034A0006D2DA501980139D18CE396E06D2D40E298
:1034B00050E042D209C0CE01A5D0882329F48D2D39
:1034C000CADE00E010E007C08D2D86DE84FFF3CF5A
:1034D0008D2D60E19BDEC801DF91CF911F910F918F
:1034E000FF90EF90DF90BF90AF9008950F93282F3B
:1034F000AB018CE396E0622F21E030E001E0D6D111
:1035000081E090E00F910895CF92DF92FF920F93A8
:103510001F93CF93DF93F82E6B018A018CE396E023
:103520006F2D1BD1EC01009761F49F2D80E08D5F22
:103530009B4F68D08431C9F08823B9F08C31A9F051
:103540001DC0081719070CF4E8011C161D066CF4C1
:103550008CE396E06F2DA6019E0100E0A7D18CE3DD
:1035600096E06F2D40E450E0E7D1CE01DF91CF919E
:103570001F910F91FF90DF90CF900895CFEFDFEF75
:10358000F4CF282F2C9880EF8EBD0DB407FEFDCF11
:103590008EB59EBD0DB407FEFDCF8EB52EBD0DB40C
:1035A00007FEFDCF8EB56EBD0DB407FEFDCF8EB507
:1035B0002C9A81E00895DC0120E030E090EF1DC0FE
:1035C0002C989EBD0DB407FEFDCF8EB5BEBD0DB4CB
:1035D00007FEFDCF8EB5AEBD0DB407FEFDCF8EB597
:1035E000FB01E20FF31F80818EBD0DB407FEFDCFFE
:1035F00011968EB52C9A2F5F3F4F2417350700F395
:10360000CA010895282F2C988FE08EBD0DB407FEB7
:10361000FDCF8EB59EBD0DB407FEFDCF8EB52EBD80
:103620000DB407FEFDCF8EB51EBC0DB407FEFDCF59
:103630008EB52C9A089590E00496982F8827860FCF
:10364000971FE0CF7F928F929F92AF92BF92CF92BF
:10365000DF92EF92FF920F931F93CF93DF936C0152
:10366000762E7A0149015801862F64E270E0E3DF8B
:10367000182F872D65E270E0DEDFC82FD0E0912F94
:1036800080E0C82BD92BCE0DDF1DAE015770872DE2
:1036900090E0880F991FC80ED91EF6012081318154
:1036A000240F351FCA018A0D9B1D8150984090F050
:1036B00000E018E0041B150BC901B401A8017BDF71
:1036C000A501401B510BF60180819181080D191D48
:1036D000B80103C0C901B401A5016DDF7E01EA0C88
:1036E000FB1C072D10E00C5F1F4F102F0027C80197
:1036F00084966F2D46DFC80185966E2D42DFDF91DF
:10370000CF911F910F91FF90EF90DF90CF90BF90DE
:10371000AF909F908F907F9008950F931F93FA0121
:10372000890140E050E09F018DDF1F910F910895C6
:103730000F931F93182F66E270E07DDF082F812F13
:1037400067E270E078DF502F40E0282F30E0242B34
:10375000352BC9011F910F910895FF920F931F936D
:10376000CF93DF93F62EC0E0D0E08F2DE1DF8C0108
:10377000009719F08F2DDCDFEC01C017D107A9F7F6
:10378000CE01DF91CF911F910F91FF9008950F937C
:103790001F93182F60E270E04EDF082F812F61E247
:1037A00070E049DF502F40E0282F30E0242B352BEC
:1037B000C9011F910F910895FF920F931F93CF930B
:1037C000DF93F62EC0E0D0E08F2DE1DF8C01009773
:1037D00019F08F2DDCDFEC01C017D107A9F7CE015E
:1037E000DF91CF911F910F91FF900895DC0120E0B0
:1037F00030E09FE01DC02C989EBD0DB407FEFDCFAC
:103800008EB5BEBD0DB407FEFDCF8EB5AEBD0DB4F9
:1038100007FEFDCF8EB51EBC0DB407FEFDCF119681
:103820008EB5FB01E20FF31F80832C9A2F5F3F4F71
:103830002417350700F3CA010895CF92DF92EF9263
:10384000FF920F931F93CF93DF9369017801577015
:10385000C62FD0E02496CC0FDD1FC80FD91F2881BA
:103860003981240F351FC801840F951F815098405E
:1038700080F000E018E0041B150BC901B601A80197
:10388000B5DFE01AF10A888199810C0D1D1DB80180
:1038900002C0C901B601A701A9DFDF91CF911F9135
:1038A0000F91FF90EF90DF90CF9008958F929F92AD
:1038B000AF92BF92CF92DF92EF92FF920F931F933E
:1038C000CF93DF937C01A62E6A014901B02E862F8B
:1038D00068E270E0B0DE182F8A2D69E270E0ABDE9E
:1038E000C82FD0E0912F80E0C82BD92BC7016A2DBB
:1038F000AE0196018401A1DFBB2089F47E01E80CB2
:10390000F91C0A2D10E00C5F1F4F102F0027C80173
:1039100088966F2D36DEC80189966E2D32DEDF91D6
:10392000CF911F910F91FF90EF90DF90CF90BF90BC
:10393000AF909F908F9008951F93162F962F80E041
:103940008F5F9B4F642F1DDE812F61E070E073DE7F
:103950008823D1F71F9108950F931F93182F092FD4
:103960006CE271E080E090E00E94653C0E94CD0E28
:10397000249A80E090E060E804DE8BE190E065E569
:1039800000DE8AE190E065E5FCDD212F302FC901E2
:10399000FC0180E090E4918380838050904E918779
:1039A000808780509841329620E68030920799F7C0
:1039B0001F910F910895FC0180E194E09183808331
:1039C000738362830895EF92FF920F931F93CF93B7
:1039D000DF937C018B01C0E0D0E0D7011296ED911E
:1039E000FC911397EC0FFD1F6491662329F0C80129
:1039F0000E946D3D2196F1CFDF91CF911F910F91E4
:103A0000FF90EF9008951092510610925206109276
:103A100055061092570682E090E0A0E0B0E0809357
:103A2000580690935906A0935A06B0935B061092DD
:103A30006F06109279061092780686E194E09093D2
:103A400077068093760610927B060895FC01673016
:103A500020F086E1858380E00895262F30E060FD28
:103A600002C0663019F48DB58E7F02C08DB58160BD
:103A70008DBD8CB58C7F8CBD4CB522FD02C090E015
:103A800001C092E036952795822F8170842B892B77
:103A90008CBD81E00895FF920F931F93CF93DF9326
:103AA0008B010E94573CEB01FF24FA94FEBC0DB43D
:103AB00007FEFDCF8EB58F3F11F481E008C00E9454
:103AC000573C6C1B7D0B6017710780F380E0DF9122
:103AD000CF911F910F91FF900895FC01848160E0C8
:103AE0000C94AE3BFC01848161E00C94AE3BDC01A4
:103AF0006EBDFA0120E030E00DB407FEFDCF8081FD
:103B00008EBD0DB407FEFDCF81818EBD2E5F3F4F70
:103B1000329682E02030380779F70DB407FEFDCFEA
:103B20008FEF8EBD0DB407FEFDCF8FEF8EBD0DB4B0
:103B300007FEFDCF8FEF8EBD0DB407FEFDCF8EB516
:103B40001A968C931A978F71853011F481E008953D
:103B500081E115968C931597CD01C4DF80E008951F
:103B6000FF920F931F93CF93DF93EC010E94573C7A
:103B70008B01FF24FA9409C00E94573C601B710B13
:103B80006D52714010F08FE00DC0FEBC0DB407FE09
:103B9000FDCF8EB58A878F3F79F38E3F11F481E098
:103BA00005C08DE08D83CE019DDF80E0DF91CF9158
:103BB0001F910F91FF900895CF93DF93EC018E81B9
:103BC0008823C9F08FEF8EBD2F8138854FEF04C059
:103BD0000DB407FEFDCF4EBD2F5F3F4FC9010197CA
:103BE00081509240A8F338872F830DB407FEFDCF94
:103BF000CE0178DF1E82DF91CF910895DF92EF92A0
:103C0000FF920F931F93CF93DF93EC01D62E790190
:103C10008A01D2DFCE0161DFCE016CE271E03BDFD1
:103C20008D2D80648EBD0DB407FEFDCF28E130E000
:103C3000D801C701022E04C0B695A7959795879520
:103C40000A94D2F78EBD0DB407FEFDCF2850304048
:103C50008FEF283F380761F7DD2011F485E906C0B2
:103C600088E0D81611F487E801C08FEF8EBD0DB43F
:103C700007FEFDCF90E02FEF2EBD0DB407FEFDCF68
:103C80008EB587FF02C09150B9F78A87DF91CF9137
:103C90001F910F91FF90EF90DF900895CF92DF92E8
:103CA000EF92FF920F931F93CF93DF93EC017A0172
:103CB0008B016901411551056105710511F482E11E
:103CC00033C08B85833039F029E0EE0CFF1C001FD8
:103CD000111F2A95D1F7CE0168E1A80197018EDF67
:103CE000882311F084E020C0CE016EEFA601FFDE34
:103CF0008823D9F0CE0168E572E0CDDE882311F487
:103D000085E112C0CE016DE020E030E040E050E0FF
:103D100075DF882341F48FEF8EBD0DB407FEFDCF14
:103D20008EB5882371F084E18D83CE01DBDE80E0E7
:103D3000DF91CF911F910F91FF90EF90DF90CF9087
:103D40000895CE01CFDE81E0F3CF8F929F92AF92A4
:103D5000BF92CF92DF92EF92FF920F931F93CF9378
:103D6000DF93EC015A016B0149010115110509F4BA
:103D700077C0C801820F931F8150924008F06CC039
:103D80008E81882371F088819981AA81BB8148172F
:103D900059076A077B0729F48F8198858816990649
:103DA00008F5A882B982CA82DB828B85833039F01C
:103DB00069E0AA0CBB1CCC1CDD1C6A95D1F7CE01B6
:103DC00061E1A60195011ADF882319F083E08D8354
:103DD00043C0CE01C5DE882309F43EC018861F8289
:103DE00081E08E838FEF8EBD8F8198852FEF05C088
:103DF0000DB407FEFDCF2EBD019688159905C0F3C1
:103E000098878F83D801119720E030E09FEF0BC097
:103E10000DB407FEFDCF8EB5F701E20FF31F8083CF
:103E20009EBD2F5F3F4F2A173B0790F30DB407FE4F
:103E3000FDCF8EB5AE0DBF1D8C932F813885200F21
:103E4000311F38872F838985882319F0205032400D
:103E500038F0CE01B1DE04C0CE0144DE80E001C006
:103E600081E0DF91CF911F910F91FF90EF90DF9054
:103E7000CF90BF90AF909F908F900895EF92FF9258
:103E80000F931F93790120E030E000E012E05DDF46
:103E90001F910F91FF90EF900895BF92CF92DF9204
:103EA000EF92FF920F931F93CF93DF93EC01B62E07
:103EB0001B8619861E821D824C830E94573C6B0113
:103EC0008C8161E00E94FB3ACE010CDE82E360E06F
:103ED0000E94FB3A83E361E00E94FB3A84E361E0E5
:103EE0000E94FB3A85E361E00E94FB3A85E361E0D2
:103EF0000E94AE3B83E58CBD8DB58E7F8DBD80E08D
:103F00009FEF9EBD0DB407FEFDCF8F5F8A30C9F7CE
:103F1000CE01E3DD09C00E94573C6C197D09615D4B
:103F2000774010F081E059C0CE0160E020E030E041
:103F300040E050E063DE182F8A87813061F7CE01C0
:103F400068E02AEA31E040E050E058DE82FF02C03B
:103F50001B8711C080E02FEF2EBD0DB407FEFDCFF3
:103F60009EB58F5F8430C1F79A879A3A11F082E04C
:103F700034C082E08B878B85823021F0EE24FF24D1
:103F800087010FC0E12CF12C012DF0E41F2F09C097
:103F90000E94573C6C197D09615D774010F088E004
:103FA0001CC0CE0167E320E030E040E050E026DEB8
:103FB000CE0169E2A801970121DE8A87882341F7B3
:103FC0008B85823021F5CE016AE320E030E040E0CD
:103FD00050E014DE882331F086E08D83CE0182DD4F
:103FE00080E01AC08FEF8EBD0DB407FEFDCF8EB5F9
:103FF000807C803C11F483E08B8780E09FEF9EBD46
:104000000DB407FEFDCF2EB58F5F8330C1F7CE0113
:1040100069DDCE016B2D1ADDDF91CF911F910F91DC
:10402000FF90EF90DF90CF90BF9008958091970818
:10403000882389F14091AF035091B0036091B1039F
:104040007091B203809195089091960825E936E029
:1040500025DE882311F140919808509199086091CC
:104060009A0870919B08411551056105710589F009
:10407000809195089091960825E936E00FDE882317
:1040800061F0109298081092990810929A08109274
:104090009B081092970881E0089580E00895EF92C0
:1040A000FF920F931F937B018C01C0DF8823A9F03F
:1040B000E5E9F6E0119288E0E539F807D9F7E092F2
:1040C000AF03F092B0030093B1031093B203809159
:1040D000970881608093970881E01F910F91FF906E
:1040E000EF900895DF92EF92FF920F931F937B0161
:1040F0008C01D42E8091AF039091B003A091B103B5
:10410000B091B2038E159F05A007B107B1F08EDF05
:104110008823D1F08091950890919608B801A70165
:1041200025E936E0ABDE882379F0E092AF03F09228
:10413000B0030093B1031093B203809197088D29C7
:104140008093970881E001C080E01F910F91FF905C
:10415000EF90DF9008958F929F92AF92BF92CF928F
:10416000DF92EF92FF920F931F93CF93DF936C0137
:10417000142F7093960860939508442321F48824A3
:10418000992454013FC0453008F01AC160E070E046
:1041900080E090E040E0A6DF882309F411C1C12F40
:1041A000D0E02197FE0174E0EE0FFF1F7A95E1F752
:1041B000EB56F94FE254FE4F8081EE5BF14090E008
:1041C0008F779070892B09F0FBC0E653FE4F8081FA
:1041D0009181A281B38184369105A105B10508F4CE
:1041E000EFC064E0CC0FDD1F6A95E1F7C55AD74FE9
:1041F00088809980AA80BB8081149104A104B104B5
:1042000009F4DEC0C501B40140E06CDF882309F485
:10421000D7C08091A0069091A1068050924009F0ED
:10422000CFC02091A506222309F4CAC08091A3061D
:104230009091A406892B09F4C3C08091A20688231B
:1042400009F4BEC0F601228B8091A20684831586F4
:1042500061E070E007C04F5FF6014587415048308C
:1042600008F0AEC0F6014585848190E09B01042EE4
:1042700002C0220F331F0A94E2F78217930759F7FF
:104280002091AB063091AC062115310519F040E0C4
:1042900050E008C02091B9063091BA064091BB06A3
:1042A0005091BC06F6012583368347835087E09002
:1042B000A306F090A40600E010E0E80CF91C0A1D2B
:1042C0001B1DE38AF48A058B168B8091A6069091BC
:1042D000A706918F808F6091A50670E080E090E046
:1042E0000E949E476E0D7F1D801F911FF601628FF9
:1042F000738F848F958F2091A6063091A70655E085
:10430000220F331F5A95E1F721503E4F232F3327B9
:10431000269540E050E0260F371F481F591F26877B
:104320003787408B518B8091A8069091A906009702
:1043300019F0A0E0B0E008C08091B5069091B606F3
:10434000A091B706B091B80685017401E21AF30A8C
:10435000040B150BA8019701280F391F4A1F5B1F7B
:10436000F601058404C056954795379527950A941C
:10437000D2F72187328743875487253FFFE03F07E5
:10438000F0E04F07F0E05F0710F48CE006C0255F17
:104390003F4F4040504028F480E1F601878B81E098
:1043A00010C08091C1069091C206A091C306B09141
:1043B000C406F601828F938FA48FB58F80E2EECF73
:1043C00080E0DF91CF911F910F91FF90EF90DF90F0
:1043D000CF90BF90AF909F908F9008954F925F9233
:1043E0006F927F928F929F92AF92BF92CF92DF9205
:1043F000EF92FF920F931F93CF93DF93EC016A012B
:104400007B0128013901423051056105710508F42D
:104410006EC089859A85AB85BC850196A11DB11DAD
:1044200084179507A607B70708F461C02B893C8954
:104430004D895E898F89803129F499278F2D7E2DB2
:104440006D2D09C0C701B60117E096958795779540
:1044500067951A95D1F74B015C01820E931EA41E3D
:10446000B51E8091AF039091B003A091B103B091BC
:10447000B20388169906AA06BB0631F0C501B4013D
:1044800040E030DE882399F18F89803149F4F601CC
:10449000F070EE0FFF1FEB56F94F518240820DC0B6
:1044A000F601EF77F070EE0FFF1FEE0FFF1FEB56D8
:1044B000F94F4082518262827382809197088160B5
:1044C000809397088A89823080F08D819E81AF81A8
:1044D000B885880E991EAA1EBB1E809298089092DD
:1044E0009908A0929A08B0929B0881E001C080E0F0
:1044F000DF91CF911F910F91FF90EF90DF90CF90C0
:10450000BF90AF909F908F907F906F905F904F90F3
:104510000895CF92DF92EF92FF920F931F93CF9364
:10452000DF93EC017A018B01690189859A85AB855E
:10453000BC850196A11DB11D84179507A607B70775
:1045400008F44FC02B893C894D895E898F89803161
:1045500029F49927812F702F6F2D09C0C801B70149
:10456000E7E09695879577956795EA95D1F7260FB9
:10457000371F481F591F8091AF039091B003A0913E
:10458000B103B091B203281739074A075B0731F02E
:10459000CA01B90140E0A6DD882319F18F89803175
:1045A00059F4F701F070EE0FFF1FEB56F94F8081C1
:1045B0009181A0E0B0E00EC0F701EF77F070EE0F50
:1045C000FF1FEE0FFF1FEB56F94F80819181A281F3
:1045D000B381BF70F60180839183A283B38381E0AE
:1045E00001C080E0DF91CF911F910F91FF90EF907C
:1045F000DF90CF900895AF92BF92CF92DF92EF926B
:10460000FF920F931F93DF93CF9300D00F92CDB7FC
:10461000DEB76C017A018B0182E090E0A0E0B0E0AF
:10462000F60180839183A283B3835E010894A11C69
:10463000B11CC601B801A70195016BDF882311F1F8
:10464000C601B801A70100E010E020E030E0C6DEBE
:104650008823C1F0E980FA800B811C81F6018789EB
:10466000803129F088EF9FEFAFEFBFE004C088EF03
:104670009FEFA0E0B0E0E816F9060A071B07C8F2B2
:1046800081E001C080E00F900F900F900F90CF91CC
:10469000DF911F910F91FF90EF90DF90CF90BF902F
:1046A000AF9008954F925F926F927F928F929F92F8
:1046B000AF92BF92CF92DF92EF92FF920F931F9330
:1046C000DF93CF9300D00F92CDB7DEB76C01498353
:1046D0005A836B837C833901EE24FF2487012E01EA
:1046E0000894411C511C812CA2E09A2EA12CB12CC3
:1046F00049815A816B817C81C60192010ADF88233E
:1047000051F1D501C401F601058404C0880F991F39
:10471000AA1FBB1F0A94D2F7E80EF91E0A1F1B1F1F
:1047200029813A814B815C818789803129F088EF2A
:104730009FEFAFEFBFE004C088EF9FEFA0E0B0E0D5
:10474000281739074A075B0798F2F301E082F182E4
:104750000283138381E00F900F900F900F90CF9101
:10476000DF911F910F91FF90EF90DF90CF90BF905E
:10477000AF909F908F907F906F905F904F90089533
:104780002F923F924F925F926F927F928F929F9261
:10479000AF92BF92CF92DF92EF92FF920F931F934F
:1047A000DF93CF93CDB7DEB72F970FB6F894DEBF68
:1047B0000FBECDBF1C014A875B876C877D873F8713
:1047C0002E87D9010D911D912D913C910115110557
:1047D0002105310549F0480159010894811C911CBB
:1047E000A11CB11C198610C0FC0180809180A280A0
:1047F000B38019868A859B85AC85BD850197A10507
:10480000B10511F491E09987D10119968D919D918F
:104810000D90BC91A02D0196A11DB11D8D839E838D
:10482000AF83B887750164014424552432018E0199
:104830000F5F1F4FF10181859285A385B4854816CE
:1048400059066A067B0608F08CC08D819E81AF8177
:10485000B8858C159D05AE05BF0550F482E0882E05
:10486000912CA12CB12CB2E0CB2ED12CE12CF12C2F
:10487000C101B701A60198014CDE882309F471C07B
:1048800089819A81AB81BC81A70196012F5F3F4F3F
:104890004F4F5F4F0097A105B10519F049015A012B
:1048A0000DC0281939094A095B098A859B85AC85A1
:1048B000BD85281739074A075B0759F00894411C42
:1048C000511C611C711C0894C11CD11CE11CF11C01
:1048D000B1CFC101A601B7010FEF1FEF2FEF3FE0EE
:1048E0007DDD882391F43DC02601370108944108FD
:1048F000510861087108C101B301A2019701860145
:104900006DDD882371F1730162018C149D04AE0486
:10491000BF0450F3AE85BF854D915D916D917C9143
:10492000411551056105710531F0C1019501840101
:1049300055DD8823B1F0EE85FF8580829182A282C9
:10494000B382F985FF2359F00894811C911CA11CA6
:10495000B11CD1018D929D92AD92BC92139781E0D2
:1049600001C080E02F960FB6F894DEBF0FBECDBF1A
:10497000CF91DF911F910F91FF90EF90DF90CF903B
:10498000BF90AF909F908F907F906F905F904F906F
:104990003F902F900895CF93DF93EC01DB0180E0EF
:1049A00090E020E2FD01E80FF91F208301968B3093
:1049B0009105C1F757E040E021C02E3219F084EF95
:1049C00092E007C05A3019F15AE048E017C0321798
:1049D000F1F0FC01019634913323C9F75417B8F074
:1049E0002132A8F02F3798F4822F81568A3108F4AB
:1049F0002052FD01E40FF11D20834F5F29912223F6
:104A0000E1F690E08C91803219F091E001C090E0E5
:104A1000892FDF91CF9108956F927F928F929F920D
:104A2000AF92BF92CF92DF92EF92FF920F931F93BC
:104A3000CF93DF93EC017A018B012D81222309F4BE
:104A40007FC08B899C89AD89BE8984179507A6078D
:104A5000B70708F475C084C0E114F104010511051D
:104A600049F41E821F82188619861A861B861C86A8
:104A70001D8664C02A853B854C855D85EB8DFC8D4C
:104A8000858590E0099621503040404050403901E2
:104A90004A01082E04C096948794779467940A94E8
:104AA000D2F72F5F3F4F4F4F5F4F0894E108F10857
:104AB000010911095701680104C0D694C794B7943D
:104AC000A7948A95D2F70894E11CF11C011D111DD1
:104AD000A614B704C804D90428F0211531054105EE
:104AE000510549F48F89988DA98DBA8D8E839F8346
:104AF000A887B98715C0A618B708C808D90810C074
:104B00004E815F81688579858B8D9C8D940101DD57
:104B10000894A108B108C108D108882331F410C055
:104B200086E0882E912C8C0E9D1EA114B104C10428
:104B3000D10431F7EA86FB860C871D8781E001C02E
:104B400080E0DF91CF911F910F91FF90EF90DF9068
:104B5000CF90BF90AF909F908F907F906F9008956F
:104B6000223009F079CFE6CFCF93DF93EC01462FC7
:104B70006E857F8588899989B5DA882319F420E0C4
:104B800030E00AC08A89282F30E095E0220F331FD9
:104B90009A95E1F72B56394FC901DF91CF910895CE
:104BA0000F931F93CF93DF938C01FC0185818823A2
:104BB000C9F1848187FF34C0C80161E0D5DFEC0111
:104BC000009781F1F8018581823040F483899489CE
:104BD000A589B6898C8F9D8FAE8FBF8FF80187898D
:104BE000908D9B8F8A8F8789908DA18DB28DCD01FD
:104BF000AA27BB279D8B8C8BE0919C08F0919D0888
:104C0000309751F0BE016A5E7F4FCE0148961995EC
:104C1000888D998D9B8B8A8BF80184818F77848313
:104C200005DA01C080E0DF91CF911F910F910895C7
:104C3000CF93DF93EC01B4DF882311F01D8281E074
:104C4000DF91CF9108956F927F928F929F92AF9252
:104C5000BF92CF92DF92EF92FF920F931F93DF9359
:104C6000CF9300D00F92CDB7DEB77C015A016B0114
:104C7000DC0115968C911597813009F088C0149647
:104C80008C9181FF84C097C00097A105B10511F4F4
:104C900081E07EC0F7016284738484849584C701B7
:104CA000B601A501B9DE882309F471C0D7015B966E
:104CB0008D919C915C97A114B104C104D10481F43D
:104CC00057964D915D916D917C915A9794DC882314
:104CD00009F45DC0F701178A108E118E128E3AC04A
:104CE000D70116964D915D916D917C9119979E011A
:104CF0002F5F3F4F0EDC882309F449C0D7015B9634
:104D0000ED91FC915C9749815A816B817C81878907
:104D1000803129F088EF9FEFAFEFBFE004C088EF4C
:104D20009FEFA0E0B0E0481759076A077B0790F4AF
:104D3000CF0161DC882359F1F701468157816085F5
:104D40007185838D948D0FEF1FEF2FEF3FE046DBD2
:104D50008823E9F0D7015396AD92BD92CD92DC92B3
:104D6000569714968C911497806814968C93C7016B
:104D700017DF882361F0B601A5016A147B048C0457
:104D80009D0410F4B401A301C70146DE01C080E018
:104D90000F900F900F900F90CF91DF911F910F9177
:104DA000FF90EF90DF90CF90BF90AF909F908F904B
:104DB0007F906F900895F70183899489A589B689BA
:104DC00084179507A607B70708F05ECFE0CF2F92AC
:104DD0003F924F925F926F927F928F929F92AF928B
:104DE000BF92CF92DF92EF92FF920F931F93CF93D8
:104DF000DF93EC012A018D81882309F4C5C08C81E1
:104E000080FFC2C0D7C025014E185F084B0176E075
:104E1000272E312C2C0E3D1E3201B0C02A853B8539
:104E20004C855D856FEFA62E61E0B62EA222B322DF
:104E30008D8179018A0199E016950795F794E79499
:104E40009A95D1F7EB8DFC8D823049F4428D538DCC
:104E5000648D758D4E0D5F1D601F711F3EC0D48027
:104E6000DA94DE20A114B104D1F4DD20C1F42115BF
:104E700031054105510549F48F89988DA98DBA8D69
:104E80008E839F83A887B9870AC04E815F8168851A
:104E90007985CF0191013DDB882309F475C0EB8D45
:104EA000FC8D4E815F81688579854250504060401D
:104EB0007040058404C0440F551F661F771F0A9475
:104EC000D2F786859785A089B189480F591F6A1F37
:104ED0007B1F4D0D511D611D711D80E092E08A19EF
:104EE0009B0963018615970508F46C018C8186FD8A
:104EF00006C080E0C81682E0D80609F073C0809131
:104F0000AF039091B003A091B103B091B2034817E1
:104F100059076A077B0709F465C08091950890914D
:104F200096089501860174010E94A51E882361F1EF
:104F30008C0C9D1C12C095012B56394FA9014C0DAC
:104F40005D1DD401F90102C081918D93E417F5072D
:104F5000D9F7E21BF30B8E0E9F1E960140E050E046
:104F60008A859B85AC85BD85820F931FA41FB51FC5
:104F70008A879B87AC87BD876C187D086114710494
:104F800009F04CCFA20102C04FEF5FEFCA01DF91E1
:104F9000CF911F910F91FF90EF90DF90CF90BF9036
:104FA000AF909F908F907F906F905F904F903F90C9
:104FB0002F900895AB88BC88CD88DE88EA84FB8476
:104FC0000C851D859A0140E050E0D601C5018E197F
:104FD0009F09A00BB10B82179307A407B50708F42C
:104FE00012CF14CFCB01BA0140E07CD8882309F05E
:104FF000A2CFCACFCF92DF92EF92FF920F931F936F
:10500000DF93CF930F92CDB7DEB76C01FC018581A2
:10501000823068F0E284F38404851585C601BE0100
:105020006F5F7F4F41E050E0D2DE019769F020E0F2
:1050300030E0C9010F90CF91DF911F910F91FF9048
:10504000EF90DF90CF900895F60182859385A48537
:10505000B5854F96A11DB11D82879387A487B5871B
:10506000F5E016950795F794E794FA95D1F78E2D0C
:105070008F70282F30E0E5E0220F331FEA95E1F72B
:105080002B56394FD6CF0F931F93CF93DF93EC015D
:105090008B018D81882309F040C0FB018789803115
:1050A000B1F482E08D831F8A188E198E1A8E808D3E
:1050B000918DA0E0B0E045E0880F991FAA1FBB1FAB
:1050C0004A95D1F78B8B9C8BAD8BBE8B14C08032F5
:1050D00021F583E08D83FB01428D538D648D758DA9
:1050E0004F8B588F698F7A8F9E012D5E3F4FC8017D
:1050F000D9DA882391F01C8F0B8F81E08C831E827C
:105100001F82188619861A861B861C861D861E8697
:105110001F86188A198A1A8A01C080E0DF91CF9110
:105120001F910F9108951F93CF93DF93EC01142FDC
:10513000E62FF0E075E0EE0FFF1F7A95E1F7EB56F2
:10514000F94F8385817121F0842F827409F052C058
:105150006A8B8091AF039091B003A091B103B0919D
:10516000B2038E879F87A88BB98B84899589A0E02D
:10517000B0E0BC0155274427828D938DA0E0B0E0BC
:10518000482B592B6A2B7B2B4F8B588F698F7A8F2B
:10519000838590E088719070009751F4848D958D8F
:1051A000A68DB78D8B8B9C8BAD8BBE8B81E00BC09E
:1051B000409701F59E012D5E3F4F8B8D9C8D72DADD
:1051C0008823C1F084E08D83812F8F708C831E82B1
:1051D0001F82188619861A861B861C861D8616FD58
:1051E00002C081E008C0CE0140E050E060E070E025
:1051F0002ADD01C080E0DF91CF911F910895CF9308
:10520000DF93EC019C012A5F3F4F8B8D9C8D41E029
:1052100050E060E070E0B4DA8823A1F08F89988DC7
:10522000A98DBA8D0097A105B10559F48E819F8192
:10523000A885B9858F8B988FA98FBA8F8C8180684C
:105240008C8381E0DF91CF9108952F923F924F920E
:105250005F927F928F929F92AF92BF92CF92DF9296
:10526000EF92FF920F931F93DF93CF9300D000D064
:10527000CDB7DEB76C01162F072F5E834D83DC019F
:1052800015968C911597813009F06CC114968C910C
:1052900081FF68C18AC1F60143895489658976898D
:1052A00082859385A485B58584179507A607B707DA
:1052B00029F0C601B1DB882309F454C1812F902F56
:1052C0009C0129012D803E8015C1D6015B96ED9190
:1052D000FC915C97DA01C90119E0B695A7959795FD
:1052E00087951A95D1F774807A9478227FEF872E6C
:1052F00071E0972E82229322772009F04CC081140E
:10530000910409F048C0D60116964D915D916D91BA
:105310007C911997411551056105710581F45796E6
:105320008D919D910D90BC91A02D0097A105B10587
:1053300041F1F60186839783A087B1872CC0CF0106
:105340009E012F5F3F4FE5D8882309F412C12981C0
:105350003A814B815C81D6015B96ED91FC915C9723
:105360008789803129F088EF9FEFAFEFBFE004C05D
:1053700088EF9FEFA0E0B0E0281739074A075B07E6
:1053800028F0C6013CDF882331F4ECC0F601268307
:1053900037834087518780E092E08819990951014D
:1053A0008215930508F45C01D6015B96ED91FC91A2
:1053B0005C971696ED90FD900D911C9119978EEFCC
:1053C0009FEFAFEFBFEFE80EF91E0A1F1B1F05840A
:1053D00004C0EE0CFF1C001F111F0A94D2F7868533
:1053E0009785A089B189E80EF91E0A1F1B1FE70CDB
:1053F000F11C011D111D90E0A91692E0B90651F5AE
:105400008091AF039091B003A091B103B091B2032A
:105410008E159F05A007B10761F48FEF9FEFAFEFE7
:10542000BFEF8093AF039093B003A093B103B09309
:10543000B2038091950890919608B801A701920156
:105440000E944E1E882309F48DC0A0E0B2E04A0EEF
:105450005B1E3EC08114910409F5F6012285338557
:105460004485558583899489A589B6892817390784
:105470004A075B0798F00E941620882309F472C03F
:10548000E092AF03F092B0030093B1031093B20324
:105490008091970881608093970808C0C801B70180
:1054A00041E00E947220882309F45CC094012B56CD
:1054B000394FA9014A0D5B1DD201F90102C08D913E
:1054C0008193E417F507D9F7E21BF30B4E0E5F1E2D
:1054D0002A183B08950140E050E0F601828593854B
:1054E000A485B585820F931FA41FB51F828793875C
:1054F000A487B587D6011A962D913D914D915C9167
:105500001D972114310409F0E0CE53968D919D91A1
:105510000D90BC91A02D82179307A407B50748F4FE
:10552000F601238B348B458B568B84818068848372
:1055300011C080919C0890919D08892B59F08D8114
:105540009E81892B39F0D60114968C91149780682E
:1055500014968C93F601848183FF0DC0C60120DB75
:10556000882349F481E090E0D60113969C938E93B2
:1055700012971E821D828D819E8126960FB6F89409
:10558000DEBF0FBECDBFCF91DF911F910F91FF9076
:10559000EF90DF90CF90BF90AF909F908F907F90D3
:1055A0005F904F903F902F90089582FD74CE86CEED
:1055B000DF93CF930F92CDB7DEB76983BE016F5FE4
:1055C0007F4F41E050E041DE0F90CF91DF91089591
:1055D000DF92EF92FF920F931F93CF93DF93EC0133
:1055E0000EDE882309F44EC0EB8DFC8DEE80FF802B
:1055F000088519858EEF9FEFAFEFBFEFE80EF91E1C
:105600000A1F1B1F058404C0EE0CFF1C001F111F86
:105610000A94D2F786859785A089B189E80EF91E8C
:105620000A1F1B1FD4800894E108F1080109110921
:105630000BC0C801B7016D0D711D811D911D0E9428
:105640004F208823F9F0DA94DD2099F7EB8DFC8D5B
:1056500020E032E040E050E0058404C0220F331F18
:10566000441F551F0A94D2F78B899C89AD89BE8946
:10567000820F931FA41FB51F8B8B9C8BAD8BBE8B92
:1056800081E001C080E0DF91CF911F910F91FF90E9
:10569000EF90DF9008956F927F928F929F92AF92DA
:1056A000BF92CF92DF92EF92FF920F931F93DF93FF
:1056B000CF93CDB7DEB72B970FB6F894DEBF0FBEF2
:1056C000CDBF5C016B01822EDC0115968C91882385
:1056D00009F0CDC0CA018E010F5F1F4FB8015BD921
:1056E000882309F4C4C0F601838D948DD5015C969E
:1056F0009C938E935B971682178210861186D60133
:105700001A961D921D921D921C921D979924380184
:1057100040C0C6016FDCFC01009709F4A8C085E019
:1057200016950795F794E7948A95D1F71E2D1F706B
:105730008081882311F0853ED1F4992091F4D50120
:1057400052961C9352972091AF033091B003409131
:10575000B1035091B2031E962D933D934D935C93EC
:1057600051978081882399F49924939421C0C3018F
:10577000BF014BE050E00E94F602009751F4882DE3
:105780008073803309F473C0C501612F6DC0992403
:105790009394F601E284F3840485158583899489C2
:1057A000A589B689E816F9060A071B0708F4B1CFE0
:1057B000882D8271823109F05AC0992039F0C501D3
:1057C00061E0D2D98C01009781F451C0D6011596C1
:1057D0008C91823009F44BC0C601FADE882309F4AB
:1057E00046C0F501128A05E916E080E2D8011D9253
:1057F0008A95E9F7D801FE0131968BE001900D9270
:105800008150E1F7E0919C08F0919D08309739F0C4
:10581000B801625F7F4FC8014096199509C081E2C7
:1058200098E2F801918B808B80E098E097878687DB
:10583000D80150968D919C91519753969C938E933D
:10584000529759969C938E9358971E968D919C9142
:105850001F9757969C938E9356970E9416208823E5
:1058600031F0C501F5016289482D5DDC01C080E0A1
:105870002B960FB6F894DEBF0FBECDBFCF91DF9150
:105880001F910F91FF90EF90DF90CF90BF90AF905E
:105890009F908F907F906F900895FC0186859785EB
:1058A00008950F931F93CF93DF93EB018A01E88153
:1058B000F9810480F581E02DCB011995892B11F434
:1058C00080E00AC0E881F9810680F781E02DCE01F1
:1058D0001995F801808381E0DF91CF911F910F919D
:1058E00008956F927F928F929F92AF92BF92CF92C4
:1058F000DF92EF92FF920F931F93DF93CF930F925C
:10590000CDB7DEB75C017B016A01DB011C9282E14D
:10591000882E912C8A0C9B1C00E010E00894C10892
:10592000D1083E010894611C711C15C0D501ED9190
:10593000FC910084F185E02DC501B401A301199506
:10594000882339F089818A3049F0F701E00FF11F8F
:1059500080830F5F1F4F0C151D0544F3E00EF11EF1
:10596000F701108280E00C151D050CF481E00F900A
:10597000CF91DF911F910F91FF90EF90DF90CF902B
:10598000BF90AF909F908F907F906F9008956F928F
:105990007F928F929F92AF92BF92CF92DF92EF92BF
:1059A000FF920F931F93DF93CF930F92CDB7DEB784
:1059B0007C014B015A01690100E010E03E010894AE
:1059C000611C711C0C151D05A4F4D701ED91FC910F
:1059D0000084F185E02DC701B401A3011995882346
:1059E00041F0F501E00FF11F898180830F5F1F4FA8
:1059F000E9CFC8010F90CF91DF911F910F91FF90D8
:105A0000EF90DF90CF90BF90AF909F908F907F905E
:105A10006F90089542960E94D81390E0882309F46D
:105A200091E0892F08950F9388EA98E060E040E0C4
:105A300020E000E00E94A8448EE998E064E073E072
:105A40000E94DB1C82EA98E066EA73E00E94DB1C9D
:105A50000F910895CF93DF93EC016115710579F0F3
:105A6000DB010D900020E9F71197A61BB70BEA891F
:105A7000FB890280F381E02D4296AD011995DF91FB
:105A8000CF91089542960C94881442960C948B13EF
:105A9000CF92DF92EF92FF920F931F93CF93DF93FA
:105AA0008C016B0192E1E92EF12CE00EF11E10C089
:105AB000C7010E94D8138823A1F0D801ED91FC9171
:105AC0000280F381E02DC8016EEA78E0AE011995FD
:105AD000C6016EEA78E040EA50E079D9EC0100971F
