:1000000081C400000C94914C0C94BC4C0C94E74CB3
:100010000C94124D0C943D4D0C94684D0C94934DE2
:100020000C94BE4DA0C400009EC400009CC40000FF
:100030009AC4000098C4000096C400000C946F4A53
:1000400092C4000090C400008EC400008CC4000064
:100050008AC4000088C4000086C400000C94EA4DE5
:1000600082C400000C9413520C9449527CC40000CA
:100070007AC4000078C4000076C4000074C4000094
:1000800072C4000070C400006EC400006CC40000A4
:100090000C94BE520C94F45266C4000064C4000078
:1000A00062C4000060C400005EC400005CC40000C4
:1000B0005AC4000058C4000056C4000054C40000D4
:1000C00052C4000050C400004EC400004CC40000E4
:1000D0004AC4000048C4000046C4000044C40000F4
:1000E00042C400006B4C354C3D4C494C564C774C4F
:1000F000844C194F1E4F234F2D4F374FB04F414F58
:10010000494F514F5B4F654F6F4F7E4F884FB04FF8
:10011000924F9C4FA64FD24FD54FC44FC84FCE4F92
:100120000C50D94FDD4FE34FE74FEB4FF14FF54FF9
:10013000F94F0C50FF4F03500750504B543A204595
:10014000545800504B543A205354580053443A20CA
:100150006272616B20706C696B7520636F6E66698B
:10016000672E7478740A005858544553545F4E52A1
:1001700031207A6E616C657A696F6E6F005D006325
:100180006F6E6669673A205B0049503A206272617F
:100190006B204574686572536869656C642E2E2EF9
:1001A0000A005757573A7374726F6E6120676F7405
:1001B0006F77610A005757573A7572756368616DBA
:1001C00069616D207374726F6E652E2E2E0A004960
:1001D000503A204F4B2E2E2E0A49503A20002E0026
:1001E0002E002E000A00576F6C6E792052414D3A56
:1001F0000049503A206B6F6E666967757261636A79
:10020000612073696563692E2E2E0A00576F6C6E2C
:10021000792052414D3A00576F6C6E792052414D12
:100220003A0053443A20626C6164206F64637A79C7
:1002300074752064616E7963680053443A20626C7F
:100240006164206B617274790A0053443A206272CF
:10025000616B206B617274790A00227D00302E314F
:100260002E302E3231002C22766572223A22007B0B
:100270002274696D65223A006163636573732D634F
:100280006F6E74726F6C2D616C6C6F772D6F72690D
:1002900067696E3A202A0A006163636573732D6390
:1002A0006F6E74726F6C2D616C6C6F772D6F7269ED
:1002B00067696E3A202A0A006163636573732D6370
:1002C0006F6E74726F6C2D616C6C6F772D6F7269CD
:1002D00067696E3A202A0A006163636573732D6350
:1002E0006F6E74726F6C2D616C6C6F772D6F7269AD
:1002F00067696E3A202A0A002E0061636365737392
:100300002D636F6E74726F6C2D616C6C6F772D6FD7
:10031000726967696E3A202A0A0020743A00206FD9
:100320003A0020703A002049443A0044414C4C4184
:100330005320005757573A205A61706973616E6FA6
:1003400020002062616A746F7720772000206D732F
:1003500020286F64656272616E6F20002062616A9E
:10036000746F77290A005757573A204F7477696599
:1003700072616D20005757573A206272616B20708E
:100380006C696B753A20005757573A204F64637A6F
:10039000797420706C696B753A006163636573737F
:1003A0002D636F6E74726F6C2D616C6C6F772D6F37
:1003B000726967696E3A202A0A005757573A2042F5
:1003C0006C616420706172736F77616E6961205532
:1003D000524C0044414C4C4153204E52203D200091
:1003E00044414C4C41533A204B6F6E696563207019
:1003F0006F737A756B6977616E696120637A756A6C
:100400006E696B6F772E00202054656D7065726188
:1004100074757261203D2000204352433D0020202E
:1004200044617461203D200020437A617320706F25
:100430006272616E69612064616E796368207A20FE
:10044000637A756A6E696B61203D200020437A6192
:1004500073206B6F6D656E6461206B6F6E77657274
:10046000736A6920646C6120637A756A6E696B6176
:10047000203D2000204E69657A6E616E79204453DC
:1004800031387878002044533138323200204453D8
:100490003138423230002044533138533230006218
:1004A0006C6164204352430044414C4C41533A2018
:1004B0004944203D0044414C4C41533A20506F6325
:1004C0007A6174656B20706F737A756B6977616E92
:1004D000696120637A756A6E696B6F772E0020748C
:1004E0003A00206F3A0020703A002049443A004414
:1004F000414C4C4153200000316253C4F5A697B9DA
:1005000088DBEA7D4C1F2E4372211087B6E5D4FAB2
:10051000CB98A93E0F5C6D86B7E4D5427320113F9E
:100520000E5D6CFBCA99A8C5F4A796013063527C96
:100530004D1E2FB889DAEB3D0C5F6EF9C89BAA847B
:10054000B5E6D7407122137E4F1C2DBA8BD8E9C770
:10055000F6A59403326150BB8AD9E87F4E1D2C0268
:10056000336051C6F7A495F8C99AAB3C0D5E6F4154
:1005700070231285B4E7D67A4B1829BE8FDCEDC301
:10058000F2A1900736655439085B6AFDCC9FAE80B6
:10059000B1E2D344752617FCCD9EAF38095A6B459E
:1005A00074271681B0E3D2BF8EDDEC7B4A19280692
:1005B000376455C2F3A0914776251483B2E1D0FE8B
:1005C000CF9CAD3A0B586904356657C0F1A293BD74
:1005D0008CDFEE79481B2AC1F0A392053467567868
:1005E000491A2BBC8DDEEF82B3E0D1467724153B50
:1005F0000A5968FFCE9DAC7C3C3E5E2B3D3F2F5B95
:100600005D3B2C2A225C00204F4B0D0A00485454BD
:10061000502F312E312000436F6E74656E742D544F
:100620007970653A200048544D2A746578742F68B3
:10063000746D6C7C5458542A746578742F706C6196
:10064000696E7C4353532A746578742F6373737C8B
:10065000584D4C2A746578742F786D6C7C4A532AF7
:10066000746578742F6A6176617363726970747CE3
:100670004749462A696D6167652F6769667C4A50FC
:10068000472A696D6167652F6A7065677C504E47C0
:100690002A696D6167652F706E677C49434F2A69CF
:1006A0006D6167652F766E642E6D6963726F736F0F
:1006B00066742E69636F6E7C4D50332A6175646970
:1006C0006F2F6D7065677C00005EBCE2613FDD836B
:1006D000C29C7E20A3FD1F419DC3217FFCA2401E22
:1006E0005F01E3BD3E6082DC237D9FC1421CFEA012
:1006F000E1BF5D0380DE3C62BEE0025CDF81633D02
:100700007C22C09E1D43A1FF4618FAA427799BC5F1
:1007100084DA3866E5BB5907DB856739BAE40658E1
:100720001947A5FB7826C49A653BD987045AB8E6D1
:10073000A7F91B45C6987A24F8A6441A99C7257BC1
:100740003A6486D85B05E7B98CD2306EEDB3510FB1
:100750004E10F2AC2F7193CD114FADF3702ECC92A1
:10076000D38D6F31B2EC0E50AFF1134DCE90722C91
:100770006D33D18F0C52B0EE326C8ED0530DEFB181
:10078000F0AE4C1291CF2D73CA947628ABF5174971
:100790000856B4EA6937D58B5709EBB536688AD461
:1007A00095CB2977F4AA4816E9B7550B88D6346A51
:1007B0002B7597C94A14F6A8742AC896154BA9F741
:1007C000B6E80A54D7896B3500000A0B02090C0DF4
:1007D0000E080703040100000000000000000000F4
:1007E0000000000000000000000000000000000009
:1007F00000000000121110000000000000000000C6
:1008000000000000000000000000000000000102E5
:100810001020200808102040102040800201020112
:1008200008040201010204081020408080402010CA
:100830000804020180040201804020100804020123
:10084000080402010102040810204080010204088B
:100850001020408005050505070508080808020264
:1008600002020A0A0808040404040101010101014A
:1008700001010303030303030303040707070C0C2D
:100880000C0C0C0C0C0C02020202060606060606F4
:1008900006060B0B0B0B0B0B0B0B000020002300B1
:1008A000260029002C002F00320000010000030167
:1008B0000601090100002200250028002B002E005F
:1008C0003100340002010000050108010B010000A5
:1008D0002100240027002A002D00300033000101F0
:1008E0000000040107010A019F1CA520F020132528
:1008F000E0266428AF2A523145340F477B522653F5
:10090000D153411D11241FBECFEFD1E2DEBFCDBFB9
:1009100000E00CBF16E0A0E0B2E0E8E9FDEB00E08B
:100920000BBF02C007900D92AE35B107D9F72DE08D
:10093000AEE5B6E001C01D92A53BB207E1F718E0B5
:10094000C2E0D9E000E006C022970109FE010BBF1A
:100950000E94A35BC83ED10780E00807A9F70E9468
:10096000F7580C94BB5E4CCB8CB182958170089586
:100970004F925F926F927F928F929F92AF92BF92AF
:10098000CF92DF92EF92FF926C01CA017901613040
:10099000710509F44EC06230710509F46FC0672B10
:1009A00009F0D0C00E94344E6093620670936306D3
:1009B000809364069093650610925E0610925F061F
:1009C000109260061092610680917F068111BAC074
:1009D000C6010E947B420E9434437C01009709F4C7
:1009E000B1C066E673E080E79CE00E941E54B70148
:1009F00080E79CE00E944F546DE476E080E79CE045
:100A00000E944F5422E5A70167E976E08AE796E065
:100A10000E94CC38C701FF90EF90DF90CF90BF903D
:100A2000AF909F908F907F906F905F904F900C94BD
:100A30006D5C20917F06222309F484C0A701BC01CC
:100A40008AE796E00E94AB39A701662757FD6095BB
:100A5000762F80915E0690915F06A0916006B0911E
:100A60006106840F951FA61FB71F80935E069093A3
:100A70005F06A0936006B093610664C08AE796E0C3
:100A80000E945D3780905E0690905F06A0906006A1
:100A9000B09061060E94344E6B017C018091620629
:100AA00090916306A0916406B0916506C81AD90AB0
:100AB000EA0AFB0A40908D0650908E0660908F06E1
:100AC0007090900663E373E080E79CE00E941E5400
:100AD0002AE030E0B301A20180E79CE00E94455586
:100AE00062E473E080E79CE00E941E542AE030E05C
:100AF000B701A60180E79CE00E9445556DE473E0D4
:100B000080E79CE00E941E542AE030E0B501A40179
:100B100080E79CE00E9445556CE573E080E79CE02F
:100B20000E941E548AE796E0FF90EF90DF90CF90EE
:100B3000BF90AF909F908F907F906F905F904F90FD
:100B40000C94A237FF90EF90DF90CF90BF90AF90C2
:100B50009F908F907F906F905F904F9008957F92BD
:100B60008F929F92AF92BF92CF92DF92EF92FF92BD
:100B70000F931F93CF93DF935C01EC01629668ECB7
:100B800070E0CE010E94114262EA72E0C5010E944B
:100B90006142CE010E9457548EEAC82E87E0D82EBB
:100BA00006EA17E0712C6BE273E0CE010E941E543E
:100BB0004AE050E0672DCE010E94515566E273E095
:100BC000CE010E941E54E12CF12C48018E0C9F1C7A
:100BD000D4018C91803158F4D5015296ED91FC915D
:100BE00053970190F081E02D60E3CE01199540E12B
:100BF00050E0F4016081CE010E945155FFEFEF1AE1
:100C0000FF0A88E0E816F10401F762E273E0CE0122
:100C10000E941E544AE050E0D6016C91CE010E9421
:100C200051556EE173E0CE010E941E54F8016385B8
:100C300074854AE050E0CE010E9418556AE173E0E5
:100C4000CE010E941E54D80119966D917C911A977D
:100C50004AE050E0CE010E941F557394BDE0CB0ED8
:100C6000D11C035F1F4FE8E07E129DCF81E0DF9132
:100C7000CF911F910F91FF90EF90DF90CF90BF9099
:100C8000AF909F908F907F9008950F931F93CF9375
:100C9000DF938C01EC01629668EC70E0CE010E945B
:100CA00011426DEA72E0C8010E94614268EB72E095
:100CB000C8010E941E54CE010E94575467EB72E097
:100CC000CE010E946A5481E08093DD08DF91CF91CC
:100CD0001F910F9108950F931F93CF93DF938C0172
:100CE000EC01629668EC70E0CE010E9411426DEA60
:100CF00072E0C8010E94614268E772E0C8010E9488
:100D00001E54CE010E9457546FE672E0CE010E943D
:100D10001E540E94344E28EE33E040E050E00E9422
:100D2000465BBA01A9012AE030E0CE010E94455598
:100D300066E672E0CE010E941E546DE572E0CE01BF
:100D40000E941E546AE572E0CE010E945A5481E06E
:100D5000DF91CF911F910F9108950F931F93CF9320
:100D6000DF938C01EC01629668EC70E0CE010E948A
:100D7000114262EA72E0C8010E946142CE010E9403
:100D800057546AEB72E0CE010E944F546091D7082D
:100D90007091D8084AE050E0CE010E946C556EEB8D
:100DA00072E0CE010E944F546091D2087091D30836
:100DB0004AE050E0CE010E946C5564EC72E0CE0136
:100DC0000E944F546091CF087091D0084AE050E0E3
:100DD000CE010E946C5580916B02882329F06AEC49
:100DE00072E0CE010E946A5481E0DF91CF911F91A1
:100DF0000F9108950F931F93CF93DF938C01EC0114
:100E0000629668EC70E0CE010E94114262EA72E0E4
:100E1000C8010E946142CE010E9457544091F508DA
:100E20005091F6086091F7087091F80822E030E0E0
:100E3000CE010E94675689EF98E00E94FF4A4AE07F
:100E400050E0682FCE010E9457556091CD087091F7
:100E5000CE084AE050E0CE010E946C554091F10866
:100E60005091F2086091F3087091F4082AE030E0A4
:100E7000CE010E9480556091CB087091CC084AE069
:100E800050E0CE010E941F5560917F027091800258
:100E90004AE050E0CE010E946C554AE050E060917B
:100EA000E808CE010E9457556091D50870E04AE0ED
:100EB00050E0CE010E941F5560912F0770913007BE
:100EC0004AE050E0CE010E941F55609135077091B5
:100ED00036074AE050E0CE010E941F556091050799
:100EE000709106074AE050E0CE010E941F55CE01E6
:100EF0000E9457546091FF06709100074AE050E04D
:100F0000CE010E941F556091FE0670E04AE050E05D
:100F1000CE010E941F556091FD0670E04AE050E04E
:100F2000CE010E941F5585E40E947B50892B19F049
:100F300067ED72E002C06CED72E0CE010E946A546F
:100F400084E40E947B50892B19F067ED72E002C0A7
:100F50006CED72E0CE010E946A5481E0DF91CF9186
:100F60001F910F9108950F931F93CF93DF938C01DF
:100F7000EC01629668EC70E0CE010E94114262EAD8
:100F800072E0C8010E946142CE010E9457546EEB8C
:100F900072E0CE010E944F5485E40E947B504AE0EB
:100FA00050E0BC01CE010E941F5564EC72E0CE01FE
:100FB0000E944F5484E40E947B504AE050E0BC0100
:100FC000CE010E941F5562EE72E0CE010E944F5486
:100FD0004AE050E06091C808CE010E9457558091C8
:100FE0006B02882329F06AEC72E0CE010E946A54F9
:100FF0006091590870915A084AE050E0CE010E9471
:101000006C554AE050E060915708CE010E94575558
:1010100081E0DF91CF911F910F9108950F931F935E
:10102000CF93DF938C01EC01629668EC70E0CE0107
:101030000E9411426DEA72E0C8010E9461426AEFAB
:1010400072E0C8010E941E54CE010E9457546EEEF9
:1010500072E0CE010E944F5485E40E947B50892BA0
:1010600019F067ED72E002C06CED72E0CE010E94F3
:101070004F546EE473E0CE010E944F5468EF72E06B
:10108000CE010E944F5484E40E947B50892B19F0BA
:1010900067ED72E002C06CED72E0CE010E944F5429
:1010A00061E073E0CE010E944F5481E0DF91CF9167
:1010B0001F910F910895811104C0809108018F7DC7
:1010C00003C0809108018062809308010895CF9247
:1010D000DF92EF92FF920F931F93CF93DF9300D095
:1010E0001F92CDB7DEB77C016B0100E010E0D701A5
:1010F00014968D919C9115970817190720F5D70123
:101100001296ED91FC911397E00FF11F449150E07E
:1011100060E070E049835A836B837C83642F4AE0EC
:1011200050E0C6010E945155F701848195810197D5
:101130000817190728F46EE473E0C6010E944F54A3
:101140000F5F1F4FD4CF0F900F900F900F90DF9134
:10115000CF911F910F91FF90EF90DF90CF90089566
:10116000EF92FF920F931F93CF93DF93CDB7DEB72C
:101170002C970FB6F894DEBF0FBECDBF7C018C015B
:101180000E5E1F4F68EC70E0C8010E9411426DEACC
:1011900072E0C7010E94614268E972E0C7010E94E3
:1011A0001E54C8010E945754C7010E947B42BC01D3
:1011B000CE0107960E94285763E073E0CE010196A6
:1011C0000E942857BE016F5F7F4FCE0107960E9495
:1011D0000F58F82ECE0101960E94C156FF20C1F093
:1011E0002B853C854AE050E0BE01695F7F4FCE0110
:1011F00001960E944D58CE0101960E94EC586093D2
:101200004107CE0101960E94C15667EB72E002C011
:101210006EE073E0C8010E946A54CE0107960E94F6
:10122000C15681E02C960FB6F894DEBF0FBECDBF3D
:10123000DF91CF911F910F91FF90EF900895DC0106
:10124000ED91FC910190F081E02D199480910E08B0
:10125000882319F0815080930E0808950F931F93EF
:10126000CF93DF9306EA17E0C0E0D0E048E050E01B
:10127000B80183E198E00E94465E892B41F02196F7
:10128000035F1F4FC830D10589F7CFEFDFEFCE01E5
:10129000DF91CF911F910F91089590912908973078
:1012A00011F160E04DE0949F90011124462F50E031
:1012B000F901E40FF51FEA55F84FDA01AD5EB74FBB
:1012C0004C91408341E0460F483010F4642FEECF3C
:1012D00040932A08F901EA55F84F80879F5F909361
:1012E000290881E0089580E00895BF92CF92DF92AF
:1012F000EF92FF920F931F93CF93DF939EEAE92E15
:1013000097E0F92EC6EAD7E0B12C6FEE74E080E7E3
:101310009CE00E941E544AE050E06B2D80E79CE068
:101320000E9451556AEE74E080E79CE00E941E54D2
:1013300000E010E06E01C00ED11EF6018081803108
:1013400028F460E370E080E79CE079DF40E150E062
:10135000F601608180E79CE00E9451550F5F1F4FAE
:101360000830110539F766EE74E080E79CE00E94D2
:101370001E544AE050E0F701608180E79CE00E9443
:10138000515562EE74E080E79CE00E941E546B852C
:101390007C854AE050E080E79CE00E9418556EEDA5
:1013A00074E080E79CE00E941E5469857A854AE0DB
:1013B00050E080E79CE00E941F55B394FDE0EF0EE3
:1013C000F11C2D9688E0B812A0CFDF91CF911F912C
:1013D0000F91FF90EF90DF90CF90BF9008958BE238
:1013E00098E00E9428478BE298E00E94424841E042
:1013F00064E48BE298E00C94BB47CF938BE298E0D7
:101400000E9428478093280863E178E08BE298E007
:101410000E94174840E06EEB8BE298E00E94BB47C9
:1014200010922A08C0912A08C93078F48BE298E01B
:101430000E94FC47EC2FF0E0E55EF74F808380913F
:101440002A088F5F80932A08EDCF68E08BE198E04F
:101450000E940B4991E020912308821390E0892F8C
:10146000CF91089580911308823241F0883231F093
:10147000803121F481E08093270802C01092270870
:1014800020911C0830E0322F222780911B08282B46
:1014900080912708882399F073E0220F331F7A95F3
:1014A000E1F7809122088031F9F4409121088CE025
:1014B00090E0841B9109207F280F391F15C080916F
:1014C0001F08807631F463E0220F331F6A95E1F73D
:1014D0000BC0803229F4220F331F220F331F04C0A8
:1014E000803411F4220F331F4AE0429FC001439F12
:1014F000900D112497FD0F9624E0959587952A95D8
:10150000E1F70895AF92BF92CF92DF92EF92FF92F0
:101510000F931F93CF93DF9365EB74E080E79CE01C
:101520000E945A5480E79CE00E9457541DE0CCE092
:10153000D0E063E178E08BE298E00E94784888236D
:1015400009F491C168EA74E080E79CE00E941E54AF
:1015500010922A08E0912A08E830E8F4F0E0ED5E05
:10156000F74F008160E270E080E79CE068DE0031C8
:1015700028F460E370E080E79CE061DE40E150E049
:10158000602F80E79CE00E94515580912A088F5F70
:1015900080932A08DFCF67E083E198E00E940B493F
:1015A00090911A08891739F06FE974E080E79CE0A0
:1015B0000E945A54BECF80911308823289F088323B
:1015C00061F08031B1F466E974E080E79CE00E944C
:1015D0005A5481E0809327081CC06DE874E002C073
:1015E00065E874E080E79CE00E945A541092270856
:1015F00010C064E774E080E79CE0DF91CF911F9119
:101600000F91FF90EF90DF90CF90BF90AF900C9430
:101610005A540E94344E60930F08709310088093C0
:10162000110890931208DBDE0E94344EC0900F0820
:10163000D0901008E0901108F09012086C197D0904
:101640008E099F0960930F0870931008809311080A
:10165000909312086CE474E080E79CE00E941E54B2
:1016600040910F0850911008609111087091120874
:101670002AE030E080E79CE00E94355568EE73E098
:1016800080E090E00E94634E0E94344E60930F0809
:10169000709310088093110890931208AEDE0E9498
:1016A000344EC0900F08D0901008E0901108F090D0
:1016B00012086C197D098E099F0960930F087093B9
:1016C0001008809311089093120868E274E080E794
:1016D0009CE00E941E5440910F08509110086091A8
:1016E0001108709112082AE030E080E79CE00E9427
:1016F00035556EE174E080E79CE00E941E5440E1A5
:1017000050E06091280880E79CE00E94515560E21B
:1017100070E080E79CE093DD10922A0880912A080F
:101720008930F8F460E270E080E79CE088DDE091C9
:101730002A08F0E0E55EF74F0081003128F460E30D
:1017400070E080E79CE07BDD40E150E0602F80E7C7
:101750009CE00E94515580912A088F5F80932A084F
:10176000DDCF68E174E080E79CE00E941E5468E0F1
:101770008BE198E00E940B4940E150E0682F80E740
:101780009CE00E94515580E79CE00E945754609174
:101790001C0870E0762F662780911B08682B8091CB
:1017A0002708882391F003E0660F771F0A95E1F779
:1017B000809122088031F1F4809121089E01281B3C
:1017C0003109607F620F731F15C080911F088076FA
:1017D00031F4B3E0660F771FBA95E1F70BC08032A2
:1017E00029F4660F771F660F771F04C0803411F449
:1017F000660F771F882777FD8095982F0E94095ADA
:1018000020E030E040E85DE30E94BD5A6B017C01BE
:1018100067E074E080E79CE00E941E5422E030E024
:10182000B701A60180E79CE00E94675681E035DDA4
:101830008091290890E00197189F5001199FB00CE2
:101840001124C5018A55984F5C0120E030E040E248
:1018500051E4C701B6010E94BD5A0E94D659F50154
:101860007287618766CE60EE73E080E79CE00E943D
:101870005A5480E79CE00E9457548BE298E00E9403
:1018800045486AEF70E080E090E0DF91CF911F91D2
:101890000F91FF90EF90DF90CF90BF90AF900C949E
:1018A000634E30DE22CDCF93DF93809129088823C9
:1018B00009F43CC0C091A507C11105C088E0809320
:1018C0000E088DDD26C080910E08811127C0C15001
:1018D0009DE0C99FE0011124E82FF0E0DF01AD5E3B
:1018E000B74FEC0FFD1FEA55F84F90819C938F5F27
:1018F000883090F380932A0880DDCA55D84F88231A
:1019000039F0B0DD9A87898780912808888701C0DF
:1019100018868091A5078F5F8093A5079091A507F2
:1019200080912908891710F41092A507DF91CF91B3
:1019300008956F927F928F929F92AF92BF92CF92B3
:10194000DF92EF92FF920F931F93CF93DF9340911B
:10195000390850913A0860913B0870913C08109109
:101960003D0800913E08F0903F08E0904008D0907C
:101970004108C0904208B0904308A090440890905D
:10198000450880904608709047086090480820916C
:101990002908E5E5F7E0A8E5B7E03DE0ED0121978E
:1019A0008881823041F58C91882389F0813091F0D3
:1019B000823099F0833099F0843099F0853099F035
:1019C000863099F0873099F099E18CEF11C0942F0F
:1019D000852F0EC0962F872F0BC0C80109C0C701E5
:1019E00007C0C60105C0C50103C0C40101C0C301D1
:1019F0009083818314C0833081F4CC91C21740F46A
:101A00003C9FE0011124CA55D84F89859A8502C0B0
:101A10008AE19CEF9183808302C011821082359607
:101A2000159687E0E53AF80709F0B8CFDF91CF9136
:101A30001F910F91FF90EF90DF90CF90BF90AF90EC
:101A40009F908F907F906F900895CF93DF93C82FD2
:101A5000DD27C7FDD095CE010E941A5E892B49F083
:101A6000CE010E94355E90ED980F9A3020F087539A
:101A700003C08FEF01C0892FDF91CF9108959F920E
:101A8000AF92BF92CF92DF92EF92FF920F931F938C
:101A9000CF93DF93CDB7DEB72C970FB6F894DEBFA8
:101AA0000FBECDBF6C018B01CB010E9490586BE53E
:101AB000C8010E944A587C0197FDA4C1AC016DE5A4
:101AC000C8010E942F585C01A7016CE2C8010E9466
:101AD0002F581A141B040CF095C163E273E0CE0179
:101AE00007960E942857BE01695F7F4FC8010E9478
:101AF0000F58811116C060E974E0CE0101960E9472
:101B00002857BE016F5F7F4FC8010E940F58BB244A
:101B1000B394811101C0B12CCE0101960E94C1562F
:101B200002C0BB24B394CE0107960E94C156BB20CD
:101B300009F4B3C0F80124813581A7014F5F5F4FDD
:101B4000B801CE0101960E944D58BE016F5F7F4FD4
:101B5000C8010E948E57CE0101960E94C156C8014D
:101B60000E94905861E173E0CE0101960E942857CF
:101B7000BE016F5F7F4FC8010E940F58F82ECE0143
:101B800001960E94C156F11025C16DE974E0CE01A5
:101B900001960E942857BE016F5F7F4FC8010E94C7
:101BA0000F58F82ECE0101960E94C156F11014C1B3
:101BB00065EA74E0CE0101960E942857BE016F5F6E
:101BC0007F4FC8010E940F58F82ECE0101960E9447
:101BD000C156F11003C16FEA74E0CE0101960E9474
:101BE0002857BE016F5F7F4FC8010E940F58F82E23
:101BF000CE0101960E94C156F110F2C064EB74E070
:101C0000CE0101960E942857BE016F5F7F4FC80129
:101C10000E940F58F82ECE0101960E94C156F11075
:101C2000E1C069EB74E0CE0101960E942857BE0125
:101C30006F5F7F4FC8010E940F58F82ECE010196AA
:101C40000E94C156F110D0C06EEB74E0CE01019637
:101C50000E942857BE016F5F7F4FC8010E940F5836
:101C6000F82ECE0101960E94C156F110BFC067EC5C
:101C700074E0CE0101960E942857BE016F5F7F4F2E
:101C8000C8010E940F58182FCE0101960E94C1561C
:101C9000112309F4B7C087E0AAC064E173E0CE0164
:101CA00001960E942857BE016F5F7F4FC8010E94B6
:101CB0000F58B82ECE0101960E94C156BB2009F4E0
:101CC0005AC0FFEFEF1AFF0AA12CB12CB701C801CF
:101CD0000E941D58FC018081B8DE982E929490EFEE
:101CE0009922B7016F5F7F4FC8010E941D58FC0108
:101CF0008081ABDEF501F595E795ED5EF74F890D37
:101D00008083F2E0AF0EB11C82E0E80EF11CE0E14E
:101D1000AE16B104D9F6A2DA8C0197FF13C080E0A9
:101D2000BCDA8823D1F00091290810E00150110994
:101D30008DE0809FF001819FF00D1124EA55F84F4E
:101D40001286118685E08C9DF0018D9DF00D112489
:101D5000EB5AF84F83E08283038363ED73E080E7FF
:101D60009CE00E941E544AE050E0B80180E79CE0ED
:101D70000E941F5547C06BE173E0CE0101960E949F
:101D80002857BE016F5F7F4FC8010E940F58F82E81
:101D9000CE0101960E94C156FF2059F085E08C9D2E
:101DA000F0018D9DF00D1124EB5AF84F81E08283F4
:101DB00029C060E273E0CE0101960E942857BE015F
:101DC0006F5F7F4FC8010E940F58CE0101960E949D
:101DD000C15618C080E00BC081E009C082E007C096
:101DE00083E005C084E003C085E001C086E095E0A3
:101DF0009C9DF0019D9DF00D1124EB5AF84F92E04F
:101E0000928383832C960FB6F894DEBF0FBECDBFAE
:101E1000DF91CF911F910F91FF90EF90DF90CF90C6
:101E2000BF90AF909F90089580913D0790913E079D
:101E3000009729F0019790933E0780933D0780918A
:101E4000390790913A07009729F0019790933A0744
:101E5000809339078091370790913807009729F0D0
:101E60000197909338078093370780913B079091B3
:101E70003C07009729F0019790933C0780933B071C
:101E80000895AF92BF92CF92DF92EF92FF920F939D
:101E90001F9397FD06C0853691052CF084E690E0EF
:101EA00002C080E090E0BC01882777FD8095982FE4
:101EB0001F921F921F922FEF2F93A12CB12C65011F
:101EC00014E6E12EF12C00E010E020E030E0A90162
:101ED0000E94775670930607609305070F900F9046
:101EE0000F900F9020914007222341F02FEF30E018
:101EF000261B370B309306072093050760910507D3
:101F0000709106078CE01F910F91FF90EF90DF908A
:101F1000CF90BF90AF900C94F54E61E08CE00E94A2
:101F20000D5080E090E0ADDF61E088E00E940D5050
:101F300060E088E00E94465061E083E40E940D501A
:101F400060E083E40E94465060E070E087E097E044
:101F50000E94A34A88EE93E0A0E0B0E080932B07B4
:101F600090932C07A0932D07B0932E070895CF933D
:101F7000C091D6084091D7085091D8088091350774
:101F80009091360790933407809333076091C80887
:101F9000262F30E03093360720933507E091D5089F
:101FA00070914107EE2319F070FD03C0FEC071FF70
:101FB000FCC020913107309132072115310531F5F0
:101FC000662321F10097C9F4A0914407B091450719
:101FD0008AE08A9FF0018B9FF00D1124F0933C075B
:101FE000E0933B07E1E0F0E0F0933007E0932F0748
:101FF0008091D4088093660609C01816190634F437
:10200000E3E0F0E0F0933007E0932F077AE0C79F1A
:10201000C001112471E04817590708F070E0809161
:102020003B0790913C07009761F0662351F07723BE
:1020300041F040914C0750914D0750933607409323
:10204000350740912F07509130074130510541F439
:10205000009731F443E050E05093300740932F074E
:1020600040915C0841111EC040915D084423D1F0AD
:10207000892BC1F44091480750914907EAE0E49F59
:10208000C001E59F900D1124909338078093370786
:1020900084E090E09093300780932F078091D408DC
:1020A0008093660640912F07509130078091370743
:1020B000909138074430510541F4009731F443E0E2
:1020C00050E05093300740932F07892B71F0809197
:1020D0003507909136074091500750915107840F72
:1020E000951F909336078093350780916606882365
:1020F00009F452C012161306B4F4611114C02091F1
:102100004207309143074AE0429FC001439F900D30
:10211000112490933E0780933D0785E090E09093D3
:10212000300780932F0780913D0790913E07892BC0
:1021300059F0611117C080914A0790914B07909315
:102140003607809335070EC080912F079091300796
:10215000059741F4611106C086E090E09093300746
:1021600080932F0780912F0790913007069751F5A4
:10217000611128C071110BC080914E0790914F07DB
:10218000009729F090933607809335071BC0109273
:1021900036071092350712C080912F0790913007B3
:1021A000039781F461110EC009C0232B39F083E03D
:1021B00090E09093300780932F0704C0109230076F
:1021C00010922F078091350790913607009751F0B4
:1021D00020913F07820F911D27FD9A959093360716
:1021E00080933507809135079091360797FF04C09B
:1021F0001092360710923507809135079091360777
:102200008536910534F084E690E09093360780930C
:102210003507809135079091360733DE6091350799
:1022200087E097E00E941749809135079091360723
:102230001816190614F460E001C061E088E00E94FD
:1022400046508091C80890E0909332078093310700
:10225000CF9108958091530890915408A09155080A
:10226000B091560881FD3AC0409161072091030763
:1022700030910407442339F1409153076AE0469FA7
:10228000A001112460915F077091600746175707FE
:10229000D4F421153105B9F46091520748E552E0B4
:1022A000649F9001659F300D1124309304072093A3
:1022B000030782608093530890935408A0935508B5
:1022C000B093560807C080915D08882329F0211536
:1022D000310511F461E003C0232BE1F760E080E4F5
:1022E0000C94465080916B028823A9F010925E08EE
:1022F00010925F0860E08FE30E94465060E085E442
:102300000E94465060E084E40E944650109200070C
:102310001092FF0608958091D7089091D8082091D7
:10232000D6084AE0249F900111242253310961E02C
:102330008217930708F460E06093DA082091DB08C5
:102340003091DC082550310941E08217930708F4E9
:1023500040E04093D90820915F08222311F06111D9
:1023600002C050E001C0542F5093FE06873272E045
:10237000970748F02091CF083091D008263232409C
:1023800010F4611101C040E04093FD06511103C0FB
:10239000442309F456C08091010790910207892BCC
:1023A00009F067C08091FF06909100079C012B7F88
:1023B000232BA1F4552379F081E090E0909300075E
:1023C0008093FF068CE291E09093020780930107CF
:1023D00061E085E43FC082E090E01AC08130910561
:1023E00019F482E090E01DC082309105B1F44423DD
:1023F00069F083E090E0909300078093FF068CE201
:1024000091E0909302078093010722C084E090E05E
:10241000909300078093FF062CC0039751F584E04A
:1024200090E0909300078093FF0688E592E09093F8
:1024300002078093010760E085E40E94465060E057
:1024400008C08132934048F061E085E40E94465024
:1024500061E084E40E9446500CC060E085E40E9484
:10246000465060E084E40E944650109200071092AB
:10247000FF068091D7089091D8089093DC0880934C
:10248000DB080895CF92DF92EF92FF920F931F9394
:10249000CF93DF93EC018B0142967C0161157105AE
:1024A00089F464E971E00E9411426AEB73E0CE01A5
:1024B000DF91CF911F910F91FF90EF90DF90CF9020
:1024C0000C941E54CB010E945A436C0168EC70E0DE
:1024D000C7010E941142B601CE010E9435426AE94D
:1024E00073E0CE010E941E54C7010E94575421E0A0
:1024F000A80167E976E08AE796E00E94CC38882355
:10250000E1F067E873E080E79CE00E941E54B801A8
:1025100080E79CE00E946A546AE776E0CE010E9460
:10252000CC438AE796E0DF91CF911F910F91FF9006
:10253000EF90DF90CF900C94A23765E773E0CE0167
:102540000E941E54B801CE010E944F546DE476E003
:10255000CE01DF91CF911F910F91FF90EF90DF900F
:10256000CF900C944F540F931F93CF93DF938C0114
:102570000E947B420E943443EC01BC01C80182DF0F
:10258000CE010E946D5C81E0DF91CF911F910F9190
:10259000089569E273E076DF81E008950F931F9359
:1025A000CF93DF93EC01CB016AE070E00E94335BD4
:1025B0008C014AE050E0CE010E94185568EF72E0AD
:1025C000CE010E941E544AE050E0B801CE01DF91D6
:1025D000CF911F910F910C941855EF92FF920F938A
:1025E0001F93CF93DF938C01EC01629668EC70E04F
:1025F000CE010E9411426DEA72E0C8010E94614260
:1026000068ED72E0C8010E941E54CE010E9457542A
:1026100065E373E0CE010E944F5405E517E0E12C1D
:10262000F12C65E473E0CE010E944F54F801608103
:102630007181CE01B3DFFFEFEF1AFF0A80E1E816E8
:10264000F10441F062E473E0CE010E944F540B5F4D
:102650001F4FE7CF6CE473E0CE010E944F5460E55A
:1026600073E0CE010E944F544AE050E06091C808E8
:10267000CE010E9451556EE473E0CE010E944F548A
:1026800069E573E0CE010E944F5460913507709167
:1026900036074AE050E0CE010E9418556EE473E020
:1026A000CE010E944F5462E673E0CE010E944F5467
:1026B00080915D08882319F068E873E002C063E345
:1026C00073E0CE010E944F5461E073E0CE010E949E
:1026D0004F5481E0DF91CF911F910F91FF90EF90C8
:1026E00008957F928F929F92AF92BF92CF92DF9286
:1026F000EF92FF920F931F93CF93DF93CDB7DEB787
:1027000069970FB6F894DEBF0FBECDBF8E010D5E88
:102710001F4F6EE476E0C8010E94285764E170E024
:10272000C8010E94EF5621E04AE653E067E976E0EF
:102730008AE796E00E94CC38882309F4B8C5F02EC9
:10274000E12E42E0D42E53E0C52E64E0B62E75E0B3
:10275000A72EE6E09E2EF7E08F2E41E050E0BE016E
:10276000675E7F4F8AE796E00E947335892B09F4F4
:1027700099C5698D6A3031F06D3021F0C8010E9431
:10278000D957EBCF6FE771E080E79CE00E941E54C1
:10279000B80180E79CE00E9441546DE771E080E75A
:1027A0009CE00E945A546DE3C8010E944A582F8948
:1027B000388D121613060CF06FC58F3F4FEF94073C
:1027C00009F46AC5AC014F5F5F4FB801CE010D96A9
:1027D0000E944D5865E773E0CE0101960E9428578C
:1027E000BE016F5F7F4FC8010E940F58782ECE0147
:1027F00001960E94C156772039F0CE010D960E94B5
:10280000EC586093730244C569E773E0CE0101960A
:102810000E942857BE016F5F7F4FC8010E940F586A
:10282000782ECE0101960E94C156772039F0CE0154
:102830000D960E94EC58609374022AC56DE773E010
:10284000CE0101960E942857BE016F5F7F4FC801DD
:102850000E940F58782ECE0101960E94C156772013
:1028600039F0CE010D960E94EC586093750210C5A8
:1028700061E873E0CE0101960E942857BE016F5FA8
:102880007F4FC8010E940F58782ECE0101960E94FA
:10289000C156772039F0CE010D960E94EC58609316
:1028A0007602F6C465E873E0CE0101960E942857CF
:1028B000BE016F5F7F4FC8010E940F58782ECE0176
:1028C00001960E94C156772039F0CE010D960E94E4
:1028D000EC5860936D02DCC46AE873E0CE010196A7
:1028E0000E942857BE016F5F7F4FC8010E940F589A
:1028F000782ECE0101960E94C156772039F0CE0184
:102900000D960E94EC5860936E02C2C46FE873E0AB
:10291000CE0101960E942857BE016F5F7F4FC8010C
:102920000E940F58782ECE0101960E94C156772042
:1029300039F0CE010D960E94EC5860936F02A8C446
:1029400064E973E0CE0101960E942857BE016F5FD3
:102950007F4FC8010E940F58782ECE0101960E9429
:10296000C156772039F0CE010D960E94EC58609345
:1029700070028EC469E973E0CE0101960E94285767
:10298000BE016F5F7F4FC8010E940F58782ECE01A5
:1029900001960E94C156772039F0CE010D960E9413
:1029A000EC586093710274C46EE973E0CE01019635
:1029B0000E942857BE016F5F7F4FC8010E940F58C9
:1029C000782ECE0101960E94C156772039F0CE01B3
:1029D0000D960E94EC58609372025AC463EA73E049
:1029E000CE0101960E942857BE016F5F7F4FC8013C
:1029F0000E940F58782ECE0101960E94C156772072
:102A000029F0CE010D960E94EC5842C467EB73E0AA
:102A1000CE0101960E942857BE016F5F7F4FC8010B
:102A20000E940F58782ECE0101960E94C156772041
:102A300039F0CE010D960E94EC5860933F0728C4F0
:102A400061EC73E0CE0101960E942857BE016F5FD2
:102A50007F4FC8010E940F58782ECE0101960E9428
:102A6000C156772039F0CE010D960E94EC58609344
:102A700040070EC461ED73E0CE0101960E94285715
:102A8000BE016F5F7F4FC8010E940F58782ECE01A4
:102A900001960E94C156772039F0CE010D960E9412
:102AA000EC5860934107F4C36EED73E0CE010196DC
:102AB0000E942857BE016F5F7F4FC8010E940F58C8
:102AC000782ECE0101960E94C156772049F0CE01A2
:102AD0000D960E94EC587093430760934207D8C349
:102AE00060EF73E0CE0101960E942857BE016F5F30
:102AF0007F4FC8010E940F58782ECE0101960E9488
:102B0000C156772049F0CE010D960E94EC58709383
:102B10004B0760934A07BCC361E074E0CE010196A5
:102B20000E942857BE016F5F7F4FC8010E940F5857
:102B3000782ECE0101960E94C156772049F0CE0131
:102B40000D960E94EC587093470760934607A0C308
:102B50006DE074E0CE0101960E942857BE016F5FC0
:102B60007F4FC8010E940F58782ECE0101960E9417
:102B7000C156772049F0CE010D960E94EC58709313
:102B80004F0760934E0784C368E174E0CE0101965D
:102B90000E942857BE016F5F7F4FC8010E940F58E7
:102BA000782ECE0101960E94C156772049F0CE01C1
:102BB0000D960E94EC58709345076093440768C3D4
:102BC00068E274E0CE0101960E942857BE016F5F53
:102BD0007F4FC8010E940F58782ECE0101960E94A7
:102BE000C156772049F0CE010D960E94EC587093A3
:102BF0004D0760934C074CC367E374E0CE01019628
:102C00000E942857BE016F5F7F4FC8010E940F5876
:102C1000782ECE0101960E94C156772049F0CE0150
:102C20000D960E94EC58709349076093480730C393
:102C300064EF74E0CE0101960E942857BE016F5FD9
:102C40007F4FC8010E940F58782ECE0101960E9436
:102C5000C156772049F0CE010D960E94EC58709332
:102C600051076093500714C364E474E0CE010196E9
:102C70000E942857BE016F5F7F4FC8010E940F5806
:102C8000782ECE0101960E94C156772071F0CE01B8
:102C90000D960E94EC589B012150310923363105D5
:102CA00008F0F6C260935207F3C26AE574E0CE0101
:102CB00001960E942857BE016F5F7F4FC8010E9496
:102CC0000F58782ECE0101960E94C156772071F0E0
:102CD000CE010D960E94EC589B01215031092336FC
:102CE000310508F0D5C260935307D2C269E674E09B
:102CF000CE0101960E942857BE016F5F7F4FC80129
:102D00000E940F58782ECE0101960E94C15677205E
:102D100071F0CE010D960E94EC589B0121503109B3
:102D20002336310508F0B4C260935407B1C266E798
:102D300074E0CE0107960E942857BE01695F7F4F5D
:102D4000C8010E940F58811116C066E874E0CE01D8
:102D500001960E942857BE016F5F7F4FC8010E94F5
:102D60000F5877247394811101C0712CCE01019604
:102D70000E94C15602C077247394CE0107960E9428
:102D8000C156772041F1CE010D960E94EC5861307A
:102D900009F07EC2D092570710925807D0925C0774
:102DA00060935D07D0926107D0926207D092660768
:102DB000C0926707D0926B07B0926C07D0927007F1
:102DC000A0927107D092750790927607D0927A07F9
:102DD00080927B075DC266E974E0CE0101960E9495
:102DE0002857BE016F5F7F4F8F2D9E2D0E940F5879
:102DF000782ECE0101960E94C156772069F0BE015F
:102E0000635F7F4FCE0101960E948657BE016F5FC0
:102E10007F4F80E090E020C06CE974E0CE01019625
:102E20000E942857BE016F5F7F4F8F2D9E2D0E94FD
:102E30000F58782ECE0101960E94C156772099F046
:102E4000BE01635F7F4FCE0101960E948657BE018F
:102E50006F5F7F4F81E090E00E943F0DCE010196B1
:102E60000E94C15615C264EA74E0CE0101960E9428
:102E70002857BE016F5F7F4F8F2D9E2D0E940F58E8
:102E8000782ECE0101960E94C156772069F0BE01CE
:102E9000635F7F4FCE0101960E948657BE016F5F30
:102EA0007F4F82E090E0D8CF6EEA74E0CE010196C9
:102EB0000E942857BE016F5F7F4F8F2D9E2D0E946D
:102EC0000F58782ECE0101960E94C156772069F0E6
:102ED000BE01635F7F4FCE0101960E948657BE01FF
:102EE0006F5F7F4F83E090E0B7CF63EB74E0CE017C
:102EF00001960E942857BE016F5F7F4F8F2D9E2D38
:102F00000E940F58782ECE0101960E94C15677205C
:102F100069F0BE01635F7F4FCE0101960E94865724
:102F2000BE016F5F7F4F84E090E096CF68EB74E066
:102F3000CE0101960E942857BE016F5F7F4F8F2DF3
:102F40009E2D0E940F58782ECE0101960E94C156E8
:102F5000772069F0BE01635F7F4FCE0101960E942A
:102F60008657BE016F5F7F4F85E090E075CF6DEBB8
:102F700074E0CE0101960E942857BE016F5F7F4F1B
:102F80008F2D9E2D0E940F58782ECE0101960E9403
:102F9000C156772069F0BE01635F7F4FCE01019675
:102FA0000E948657BE016F5F7F4F86E090E054CF4E
:102FB00066EC74E0CE0101960E942857BE016F5F57
:102FC0007F4F8F2D9E2D0E940F58782ECE01019697
:102FD0000E94C156772069F0BE01635F7F4FCE012A
:102FE00001960E948657BE016F5F7F4F87E090E099
:102FF00033CF6FEC74E0CE0101960E942857BE01DA
:103000006F5F7F4F8F2D9E2D0E940F58782ECE011F
:1030100001960E94C156772069F0BE01635F7F4F21
:10302000CE0101960E948657BE016F5F7F4F88E0F8
:1030300090E012CF62ED74E0CE0101960E94285715
:10304000BE016F5F7F4F8F2D9E2D0E940F58782EEF
:10305000CE0101960E94C156772069F0BE01635FE0
:103060007F4FCE0101960E948657BE016F5F7F4F52
:1030700089E090E0F1CE65ED74E0CE0101960E940A
:103080002857BE016F5F7F4F8F2D9E2D0E940F58D6
:10309000782ECE0101960E94C156772069F0BE01BC
:1030A000635F7F4FCE0101960E948657BE016F5F1E
:1030B0007F4F8AE090E0D0CE68ED74E0CE010196BB
:1030C0000E942857BE016F5F7F4F8F2D9E2D0E945B
:1030D0000F58782ECE0101960E94C156772069F0D4
:1030E000BE01635F7F4FCE0101960E948657BE01ED
:1030F0006F5F7F4F8BE090E0AFCE6BED74E0CE0161
:1031000001960E942857BE016F5F7F4F8F2D9E2D25
:103110000E940F58782ECE0101960E94C15677204A
:1031200069F0BE01635F7F4FCE0101960E94865712
:10313000BE016F5F7F4F8CE090E08ECE6EED74E04D
:10314000CE0101960E942857BE016F5F7F4F8F2DE1
:103150009E2D0E940F58782ECE0101960E94C156D6
:10316000772069F0BE01635F7F4FCE0101960E9418
:103170008657BE016F5F7F4F8DE090E06DCE61EEB0
:1031800074E0CE0101960E942857BE016F5F7F4F09
:103190008F2D9E2D0E940F58782ECE0101960E94F1
:1031A000C156772069F0BE01635F7F4FCE01019663
:1031B0000E948657BE016F5F7F4F8EE090E04CCE3D
:1031C00064EE74E0CE0101960E942857BE016F5F45
:1031D0007F4F8F2D9E2D0E940F58782ECE01019685
:1031E0000E94C156772069F0BE01635F7F4FCE0118
:1031F00001960E948657BE016F5F7F4F8FE090E07F
:103200002BCE67EE74E0CE0101960E942857BE01D6
:103210006F5F7F4F8F2D9E2D0E940F58782ECE010D
:1032200001960E94C156772059F0CE010D960E945A
:10323000EC5867E671E080E79CE00E945A5428C091
:1032400062EF74E0CE0101960E942857BE016F5FC5
:103250007F4F8F2D9E2D0E940F58782ECE01019604
:103260000E94C1567110CDCB62EF74E0CE01019681
:103270000E942857BE016F5F7F4F8F2D9E2D0E94A9
:103280000F58782ECE0101960E94C1567110B9CB0D
:10329000CE010D960E94C1566EE476E0C8010E94F0
:1032A00099575BCA8AE796E00E94A23706C06CE491
:1032B00071E080E79CE00E941E54C8010E94C15644
:1032C00069960FB6F894DEBF0FBECDBFDF91CF91E8
:1032D0001F910F91FF90EF90DF90CF90BF90AF9034
:1032E0009F908F907F900895EF92FF920F931F937E
:1032F000CF93DF9300D000D0CDB7DEB726E040E01B
:1033000052EC61E070E080E79CE00E94B15126E061
:1033100040E052EC61E070E08DE09DE00E94B15130
:1033200061E082E10E94465061E083E10E944650E4
:1033300061E08DE00E94465061E08DE00E940D50FA
:1033400060E08FE30E94465061E08FE30E940D50E1
:1033500060E085E40E94465061E085E40E940D50E3
:1033600060E084E40E94465061E084E40E940D50D5
:1033700060E082E40E94465061E082E40E940D50C9
:1033800060E081E40E94465061E081E40E940D50BB
:1033900060E080E40E94465061E080E40E940D50AD
:1033A00085E0809352078CE3809353078AE58093EE
:1033B00054070E94510C61E085E30E940D5061E0CA
:1033C00085E30E94465061E08AE00E940D5061E072
:1033D0008AE00E94465061E084E00E940D5061E066
:1033E00084E00E94465044E060E082ED96E00E9456
:1033F0006232811108C06AE472E080E79CE00E94BA
:103400001E5410920C0241E062ED76E084EB96E0EF
:103410000E94DC3E811111C040E062ED76E084EB59
:1034200096E00E94DC3E811108C06AE372E080E70A
:103430009CE00E941E5410920C0264EB76E087E937
:1034400096E00E942435811108C062E272E080E7B4
:103450009CE00E941E5410920C0280910C02882362
:1034600029F188EB94E09093A70B8093A60B67E17A
:1034700072E080E79CE00E941E540E9402314AE004
:1034800050E0BC0180E79CE00E941F552AD96CE007
:1034900072E080E79CE00E941E540E9402314AE0E4
:1034A00050E0BC0180E79CE00E941F550E948D0FF8
:1034B00061EF71E080E79CE00E941E5463E772E0D8
:1034C000CE0101960E94B653AE014F5F5F4F6DE68D
:1034D00072E087E199E00E94C62466EE71E080E721
:1034E0009CE00E941E540E9402314AE050E0BC0160
:1034F00080E79CE00E941F5546E050E0BE016F5FF0
:103500007F4F89E090E00E94263046E050E06DE673
:1035100072E0CE0101960E94465E21E0892B09F4FB
:1035200020E020936B0621114FC01091760200918C
:103530007502F0907402E09073026FEC71E080E726
:103540009CE00E941E544AE050E06E2D80E79CE013
:103550000E9451556EED71E080E79CE00E941E5480
:103560004AE050E06F2D80E79CE00E94515560EEEC
:1035700071E080E79CE00E941E544AE050E0602F1A
:1035800080E79CE00E94515562EE71E080E79CE08C
:103590000E941E544AE050E0612F80E79CE00E94A8
:1035A000515564EE71E080E79CE00E941E5465EB8B
:1035B00071E080E79CE00E941E548EED96E00E9430
:1035C000254762EA71E002C069E871E080E79CE0AB
:1035D0000E941E5489EF98E00E948E4B6093F5087C
:1035E0007093F6088093F7089093F8080E94344E81
:1035F00060937006709371068093720690937306C1
:1036000060936C0670936D0680936E0690936F06C0
:1036100082E00E94BA4B909300098093FF0826969F
:103620000FB6F894DEBF0FBECDBFDF91CF911F91D3
:103630000F91FF90EF900895813410F0875301C0EF
:103640008053613410F0675301C0605320E1829FC2
:10365000C0011124862B08954F925F926F927F9242
:103660008F929F92AF92BF92CF92DF92EF92FF9292
:103670000F931F93CF93DF93809177022AE0829F6D
:10368000C0011124CEE9D5E0A8E78A2EA2E09A2E47
:103690006091CB087091CC0829914AE024029001F6
:1036A000112462177307A4F148815AE045027001A2
:1036B0001124E616F70664F1D401EC911197AC9051
:1036C000BAE0AB9E50011124CC24B7FCC094DC2C92
:1036D0000027F7FC0095102F442737FD4095542F05
:1036E000882777FD8095982FAAE0EA9FF0011124A2
:1036F0002F01662457FC6094762C7F926F925F9224
:103700004F920E947756CB010F900F900F900F9021
:10371000BFEF8B1A9B0A25E0C33AD20709F0B8CF56
:103720002091CB083091CC082739310534F08091B5
:103730007C024AE0849FC0011124DF91CF911F9148
:103740000F91FF90EF90DF90CF90BF90AF909F9040
:103750008F907F906F905F904F900895CF93DF93FD
:1037600080917D0290917E028230910509F070C0B7
:1037700080915B088823B9F061E082E40E944650A2
:1037800080918402909185029093E5088093E408EB
:1037900081E090E090937E0280937D021092E70892
:1037A0001092E60877C080915E08882309F472C001
:1037B0002091D7083091D80880917F0290918002A3
:1037C0008217930708F066C08091E4089091E5089D
:1037D000892B09F05FC040DF9093800280937F02C5
:1037E0002091C9083091CA088217930709F452C082
:1037F000EC01C21BD30B8217930718F461E082E43B
:1038000006C02817390708F045C061E081E40E942E
:1038100046508091830290E09093E5088093E408FD
:1038200021E030E030937E0220937D02CA30D10542
:1038300088F5969587959093E5088093E4082597F9
:1038400048F5969587959093E5088093E40822C003
:10385000019701F58091E4089091E508892BD1F456
:1038600060E082E40E94465060E081E40E9446509D
:1038700080915B0881110EC080918102909182023B
:103880009093E5088093E40882E090E090937E02B4
:1038900080937D02DF91CF910895CF93DF9300D085
:1038A0001F92CDB7DEB790916408923019F063E4AF
:1038B00071E011C02091600830E02C59374FF901B8
:1038C00031979081933029F4A1E040E090E0029795
:1038D00007C06AE371E080E79CE00E945A5425C06B
:1038E0006A2F70E068177907ACF4FB01EC59F74FC9
:1038F00060816427E091E008F091E108E60FF11D96
:10390000449150E060E070E049835A836B837C838C
:10391000AF5FE6CFF90132978081841741F060E014
:1039200075E080E79CE00E946A5480E001C081E07D
:103930000F900F900F900F90DF91CF9108950F93FC
:1039400000E020E040E060E081E099E00E94AA53BE
:103950006DE389EF98E00E94E34A88EA95E090934E
:10396000DF088093DE0887EF94E09093E10880936E
:10397000E00880E091E09093E3088093E20866E13C
:103980008BE298E00E9457488BE598E090930807F7
:103990008093070784EB94E090930A0780930907CC
:1039A00010920D0710920E0710920F071092100739
:1039B0001092110710921207109213071092140719
:1039C000109215071092160710921B0710921C07F1
:1039D00010921D0710921E0710921F0710922007C9
:1039E00010922107109222071092270710922807A1
:1039F0001092290710922A0710922B0710922C0779
:103A000010922D0710922E0720E530E04DE052E095
:103A100061E172E08EED96E00E9432401092D7068E
:103A20001092D8061092DB061092DD0682E090E03C
:103A3000A0E0B0E08093B4069093B506A093B606DC
:103A4000B093B7061092CB0610929A061092990680
:103A500088E096E0909398068093970610929C06D3
:103A600010927D0610927C0690937B0680937A06D6
:103A700010927F066EE476E084E796E00F910C9456
:103A8000285784E796E00C94C156DF92EF92FF929C
:103A90000F931F93CF93DF93CDB7DEB7A9970FB6E0
:103AA000F894DEBF0FBECDBF80910A0290910B0249
:103AB000009799F40E94344E6093670670936806ED
:103AC0008093690690936A0610925A0810925908DA
:103AD0001092580881E090E008C181309105D9F436
:103AE0000E94344E00916706109168062091690685
:103AF00030916A06601B710B820B930B6536710562
:103B00008105910508F4E7C110925A0810925908EE
:103B100082E090E0EAC08230910509F060C0109226
:103B2000610881E080936C0285E1E9E0F5E0DE0167
:103B3000119601900D928A95E1F7F09062089091AC
:103B400061080091630810916C02EE24E394E10E89
:103B50009431F8F4E1E0F0E0EC0FFD1FE90FF11D06
:103B6000F080E2E0DE2ED90E9F5FE1E0F0E0EC0FA6
:103B7000FD1FE90FF11D0081602F8F2D5DDDE6E156
:103B8000F0E0EC0FFD1FE10FF11D80839D2D1E2D38
:103B9000DCCFF092620890936108009363088AE09A
:103BA0008E8B81E080936C0280916C028B3080F46C
:103BB00091E0980F90936C02E6E1F0E0EC0FFD1FAE
:103BC000E80FF11D60818DE09DE00E944D51ECCF2A
:103BD00010925A081092590883E090E086C0833012
:103BE0009105B1F58DE09DE00E94A350892B59F01D
:103BF00010926C021092600810925A0810925908A4
:103C000084E090E072C08091590890915A08019622
:103C100090935A08809359088139914008F45BC108
:103C200010925A0810925908209158082F5F20933B
:103C3000580882E090E090930B0280930A022630AD
:103C400008F449C181E08093E80880936B0243C186
:103C50008430910509F04EC08DE09DE00E94A35094
:103C60001816190684F410916C0281E0810F80937C
:103C70006C028DE09DE00E94BC50E12FF0E0EC5919
:103C8000F74F808323C08091590890915A0801967C
:103C900090935A088093590881399140B8F0109256
:103CA0005A081092590882E090E090930B0280939A
:103CB0000A02809158088F5F80935808863030F050
:103CC00082E08093E80881E080936B0280916C022F
:103CD000863508F400C18093600810926C0210923F
:103CE0005A081092590887E090E090930B02809355
:103CF0000A02F1C0079709F0EEC08091600886358E
:103D000019F4CBDD811122C08091590890915A0895
:103D1000019690935A08809359088139914088F010
:103D200010925A0810925908809158088F5F80931A
:103D30005808863030F084E08093E80881E0809372
:103D40006B0210920B0210920A02C5C010926B0215
:103D50000091750810E0102F002780917408082B3F
:103D60001093460800934508A0917708B0E0BA2F59
:103D7000AA2780917608A82BB0934208A093410807
:103D8000E0917908F0E0FE2FEE2780917808E82B8B
:103D9000F0934008E0933F0840917B0850E0542F97
:103DA000442780917A08482B509344084093430855
:103DB00080917D0890E0982F882720917C08822BA5
:103DC00090933C0880933B0880917F0890E0982F67
:103DD000882720917E08822B90933E0880933D088F
:103DE0002091810830E0322F222780918008282BF3
:103DF00030933A08209339088091830890E0982FF7
:103E0000882760918208862B909348088093470802
:103E10006091840860934908E0908B08E0924F0815
:103E2000F090A108F09250087F2D717070935108A6
:103E30001093CA080093C908B093D008A093CF0884
:103E4000F093CC08E093CB085093D3084093D2086A
:103E50003093D8082093D7089093CE088093CD084C
:103E6000809189088093D60880918A088093D10830
:103E7000E092C80880915D0880935C0861FB882708
:103E800080F980935D0881E09091B708913009F046
:103E900080E080935B0862FB662760F960935E08B0
:103EA0008FE30E9446508091840883FB882780F925
:103EB00080935F0881E090918608913009F080E05E
:103EC0008093D50881E090918508913009F080E0D9
:103ED0008093D40836CFA9960FB6F894DEBF0FBEF4
:103EE000CDBFDF91CF911F910F91FF90EF90DF90A9
:103EF0000895CF92DF92EF92FF920F931F930E944B
:103F0000344E6093E9087093EA088093EB0890932D
:103F1000EC080091700610917106209172063091A4
:103F200073066B017C01C01AD10AE20AF30A9701F9
:103F3000860105361105210531050CF464C0609336
:103F4000700670937106809372069093730689EFE2
:103F500098E00E948E4B6093F5087093F60880936A
:103F6000F7089093F8080E94DB599B01AC01AAE086
:103F7000B0E00E94995BDC01CB018093ED08909347
:103F8000EE08A093EF08B093F0086091FF087091DD
:103F900000090E94E34BAA2797FDA095BA2F8093B2
:103FA000F1089093F208A093F308B093F40880917D
:103FB000E4089091E508009729F001979093E508AF
:103FC0008093E4088091FE08882319F08150809343
:103FD000FE080E94140F809101079091020700973C
:103FE00029F00197909302078093010780910307BE
:103FF00090910407009729F001979093040780930C
:1040000003070E9426098091E9089091EA08A0918F
:10401000EB08B091EC0840916C0650916D066091F0
:104020006E0670916F067C018D01E41AF50A060B8D
:10403000170BB801A701433351056105710544F021
:1040400080936C0690936D06A0936E06B0936F06F6
:104050001CDD0E94530C0E94990C0E94B70F0E9415
:104060002A110E94721180916B02811101C076DBCE
:104070008091FE08811113C08DE00E947B5061E0A9
:10408000892B09F060E08DE00E94465080916B0220
:10409000811102C081E001C08AE08093FE08809116
:1040A0000C02882341F080916B06811104C08EEDD3
:1040B00096E00E94E0448091DD08882349F0E0E02A
:1040C000F0E01F910F91FF90EF90DF90CF90199447
:1040D0001F910F91FF90EF90DF90CF900895CF93B5
:1040E000CFB7F89480910A09811127C0E9E8F8E078
:1040F0008491E3E4F8E09491E82FF0E0EE0FFF1FE5
:10410000E253F74FA591B4918C91892321F461E09A
:1041100085E30E94465061E085E30E940D508CB516
:1041200080618CBD8CB580648CBD61E084E30E94AD
:104130000D5061E083E30E940D5080910A098F5F6A
:1041400080930A09CFBFCF9108950F9300E020E03C
:1041500040E060E08BE099E00E94AA530F9108953F
:10416000FB014281538164817581FC014283538349
:1041700064837583178216820895FB0120E080E036
:1041800090E06AE03191332309F170ED730F7A30DA
:1041900080F4DC016A9FC0016B9F900D1124C097D1
:1041A000830F911D37FD9A958F3F910559F350F379
:1041B00014C03E3291F4233081F0DA01A20FB11D18
:1041C00012968C932F5F80E090E0DCCF233029F4AF
:1041D000FA01858381E090E0089580E090E0089501
:1041E0000F9300E020E040E060E081E199E00E9470
:1041F000AA530F910895AF92BF92CF92DF92EF92A0
:10420000FF920F931F93CF93DF9300D01F921F92C3
:10421000CDB7DEB78C017B010E94344EF801778365
:1042200066837627672776277A836983085F1F4F1F
:1042300042E050E0BE016F5F7F4FC801A4D781E02C
:1042400090E09C838B8342E050E0BE016D5F7F4F26
:10425000C80199D780E091E09C838B8342E050E0D5
:10426000BE016D5F7F4FC8018ED71C821B8242E06A
:1042700050E0BE016D5F7F4FC80185D742E050E03E
:10428000BE016D5F7F4FC8017ED742E050E0BE01A6
:104290006D5F7F4FC80177D76701F6018081882362
:1042A00001F1F7016F018191811113C05601AE1820
:1042B000BF081A141B0484F4AD8241E050E0BE0133
:1042C0006B5F7F4FC8015FD7A501B701C8015BD7FE
:1042D00003C08E3239F7EACF7601FFEFEF1AFF0AFB
:1042E000DCCF1D8241E050E0BE016B5F7F4FC80113
:1042F0004AD7E12CFF24F394FC82EB8242E050E0A9
:10430000BE016D5F7F4FC8013ED7FC82EB8242E069
:1043100050E0BE016D5F7F4FC80135D781E090E06E
:104320000F900F900F900F900F90DF91CF911F91F2
:104330000F91FF90EF90DF90CF90BF90AF900895D6
:104340004F925F926F927F928F929F92AF92BF92A5
:10435000CF92DF92EF92FF920F931F93CF93DF9351
:10436000CDB7DEB763970FB6F894DEBF0FBECDBFF3
:104370007C015B016A010E94344E2B013C018701E4
:10438000085F1F4F4501A12CB12CC80196D7181604
:10439000190694F00E94344E64197509860997092C
:1043A00086169706A806B906D0F062E370E080E0B2
:1043B00090E00E94634EE9CFF7014281538164810E
:1043C0007581808D918DA28DB38D481759076A072D
:1043D0007B0741F4848D958DC59721F406C08FEF3E
:1043E0009FEFE1C08EEF9FEFDEC0C80193D60C9720
:1043F000E4F04CE050E0BE016F5F7F4FC801FED695
:104400006C818B810E94BC569A8B898BF701E68068
:10441000F7806A8189810E94BC56E816F90641F44A
:1044200089899A8997FF04C008C08DEF9FEFBBC0B0
:10443000C8018AD68CEF9FEFB6C08F709270892B1F
:1044400029F0C80181D68BEF9FEFADC068858F81C1
:104450000E94BC565C01009719F0E12CF12C1DC0A4
:10446000C80172D68AEF9FEF9EC041E050E0BE01C6
:10447000635F7F4FC801C2D68D85811116C08D85BF
:104480008111F3CFC80192D6C80190D6C8018ED64B
:10449000C8018CD6FFEFEF1AFF0A6E818D810E9452
:1044A000BC56E816F90608F309C08D859FEF980FF2
:1044B0009D87882321F3C80179D6F7CFE12CF12C11
:1044C00041E050E0BE016D5E7F4FC80197D68B89F9
:1044D000982F907C59F4882361F08B899FEF980F77
:1044E0009B8B882331F0C80161D6F7CFC8015ED617
:1044F0001B8A8B898111E4CF42E050E0BE01615FED
:104500007F4FC8017BD642E050E0BE01635F7F4F22
:10451000C80174D6C8014AD6C80148D6C80146D6D3
:10452000C80144D642E050E0BE016F5E7F4FC80133
:1045300065D68F8598898115914029F48D859E8552
:104540008115914019F0812C912C14C089899A8988
:104550008115944029F0C801F7D587EF9FEF23C05C
:10456000B6016E5F7F4F44E050E0C80147D681E05E
:1045700090E019C089899A899827892798278816F1
:10458000990630F4C80112D62FEF821A920AF2CFA0
:104590008FEFE81AF80AEA14FB0409F091CFC8017A
:1045A000D3D586EF9FEF63960FB6F894DEBF0FBEAC
:1045B000CDBFDF91CF911F910F91FF90EF90DF90D2
:1045C000CF90BF90AF909F908F907F906F905F90B3
:1045D0004F9008958F929F92AF92BF92CF92DF92A9
:1045E000EF92FF920F931F93CF93DF9300D000D0F1
:1045F000CDB7DEB78C015B016A01BFDD4C010097CE
:1046000009F057C0F801428153816481758180911E
:10461000130990911409A0911509B0911609481732
:1046200059076A077B0709F448C00E94344E780195
:10463000F8E0EF0EF11C6F7077277C5FC70112D690
:10464000813009F03EC08AE496E09A838983F801BC
:1046500082819381A481B5818B839C83AD83BE834A
:1046600045E350E0BE016F5F7F4FC70182D5892BC4
:1046700019F4812C912C1AC0B501C801BCDD892B1D
:10468000C1F3C7017DD5892BA1F333E0A32EB12C53
:10469000A60168E873E1C80153DE4C01F1E0AF1AEE
:1046A000B10821F08F3F2FEF920791F3C7014DD54D
:1046B00008C088248394912C04C09EEF892E9924ED
:1046C0009A94C40126960FB6F894DEBF0FBECDBFF4
:1046D000DF91CF911F910F91FF90EF90DF90CF90DE
:1046E000BF90AF909F908F90089520910909222349
:1046F00099F03FB7F89420910909213059F42DB36E
:10470000209307094DB320910809209524232DBB40
:104710003FBF02C0309307098CBD9DBD08958091B5
:104720000909882361F09FB7F894209109098091C5
:104730000709213019F48DBB9FBF08958FBF0895DD
:1047400044E050E0BC0181E090E00C94102F44E084
:1047500050E0BC0185E090E00C94102F44E050E064
:10476000BC018FE090E00C94102F8F929F92AF923B
:10477000BF92CF92DF92EF92FF920F931F93CF934E
:10478000DF931F921F92CDB7DEB74C016A0159012A
:1047900081E499E069837A830E94AB2E80E590E002
:1047A000A4DF46E050E069817A8189E090E00E94D0
:1047B000102FC6010296D2DFC8010296C1DFC701E1
:1047C0000296C5DFACDFF5014281538164817581BA
:1047D000F40142835383648375830F900F90DF91BC
:1047E000CF911F910F91FF90EF90DF90CF90BF90EE
:1047F000AF909F908F9008956F927F928F929F922B
:10480000AF92BF92CF92DF92EF92FF920F931F93DE
:10481000CF93DF93CDB7DEB76E970FB6F894DEBFB8
:104820000FBECDBF6C015B017A014901380100E088
:104830002FEF4FEF6FEFCE0149960E94AA532AE463
:1048400036E03A8329838B8D9C8DAD8DBE8D8B8315
:104850009C83AD83BE8338872F83F301828193814C
:10486000A481B58189879A87AB87BC873E872D87CE
:10487000F40182819381A481B5818F87988BA98B64
:10488000BA8B3C8B2B8BF7014281538164817581FC
:104890004D8B5E8B6F8B788FCE0101967C018E01E4
:1048A000095F1F4F9E01235F3F4FAE014D5E5F4F7B
:1048B000B501C6015ADF6E960FB6F894DEBF0FBE83
:1048C000CDBFDF91CF911F910F91FF90EF90DF90BF
:1048D000CF90BF90AF909F908F907F906F900895F2
:1048E000CF92DF92EF92FF920F931F93CF93DF93BC
:1048F000CDB7DEB768970FB6F894DEBF0FBECDBF59
:104900006B017901DA0112964D915D916D917C9167
:1049100015974D8B5E8B6F8B788FAAE4B6E0BA83C8
:10492000A98321E0288F0D891E892F89388D0B835B
:104930001C832D833E83B887AF83F70102811381E7
:104940002481358109871A872B873C87BE87AD87ED
:104950004F87588B698B7A8B8E010F5F1F4F9E019B
:10496000295F3F4FAE01435F5F4FB60145DF689659
:104970000FB6F894DEBF0FBECDBFDF91CF911F9170
:104980000F91FF90EF90DF90CF9008950F931F93BA
:10499000CF93DF93CDB7DEB762970FB6F894DEBF43
:1049A0000FBECDBFDB01FA01428153816481758165
:1049B0004F87588B698B7A8BEAE4F6E0FA83E983B8
:1049C00021E02A8B0F85188929893A890B831C835A
:1049D0002D833E83F887EF8349875A876B877C87CF
:1049E0009E012F5F3F4FAE01495F5F4FBD0178DFF2
:1049F00062960FB6F894DEBF0FBECDBFDF91CF91A8
:104A00001F910F9108952AE436E0FC013183208341
:104A1000FB014281538164817581FC014283538390
:104A20006483758308950F9300E020E040E060E028
:104A300087E299E00E94AA5387E199E00F910C94D4
:104A4000A05381E086270895862F0895DC01ED911B
:104A5000FC91048CF58DE02D199591E0892708953E
:104A6000CF93DF931F92CDB7DEB76983DC01ED9161
:104A7000FC910280F381E02D41E050E0BE016F5FC8
:104A80007F4F19950F90DF91CF91089521E0FC01A0
:104A90008485843009F420E0822F0895FC019485F8
:104AA000FB018485981303C081E0943009F480E011
:104AB00008950F931F93CF93DF93EC018A018C85A8
:104AC000843019F00DD7892B39F481E090E09B8375
:104AD0008A8380E090E001C0C801DF91CF911F91EF
:104AE0000F910895FC018485843009F0E0C780E0CF
:104AF00090E00895CF93DF931F92CDB7DEB741E0EA
:104B000050E0BE016F5F7F4FFC01848574D718169B
:104B100019061CF4898190E002C08FEF9FEF0F907F
:104B2000DF91CF910895FC01848565C70F931F9392
:104B3000CF93DF931F92CDB7DEB78C01DC01ED91EF
:104B4000FC910480F581E02D1995892B49F0BE0177
:104B50006F5F7F4FF8018485D3D7898190E002C0D1
:104B60008FEF9FEF0F90DF91CF911F910F910895DD
:104B7000FC018485F3C7CF92DF92EF92FF920F93EF
:104B80001F93CF93DF93CDB7DEB7AF970FB6F894EF
:104B9000DEBF0FBECDBF7C018B016A01CE01019645
:104BA0000E94A053CE01099665D4CE018A960E9438
:104BB000A05367E179E0CE01849625DFBE016C5DEC
:104BC0007F4FCE010196CCDAAE01465D5F4FB80152
:104BD000CE010196FFDC81309105C1F4D701ED9142
:104BE000FC910484F585E02D8AE496E09DA38CA3D6
:104BF0000CA51DA52EA53FA50EA31FA328A739A769
:104C0000A601BE016C5D7F4FC7011995AF960FB627
:104C1000F894DEBF0FBECDBFDF91CF911F910F91F2
:104C2000FF90EF90DF90CF900895FC01262F138224
:104C3000128248EE53E060E070E04483558366835F
:104C400077838EEA95E09183808324870895FC0121
:104C50008485843009F001C580E00895DF92EF92E9
:104C6000FF920F931F93CF93DF93EC017B018A0197
:104C70008C85843009F040C0D12C8D2DEED481116B
:104C800002C0DC8607C08B7F8831D9F3D39484E0DF
:104C9000D812F3CF8C85843079F12091860230913F
:104CA00087022F5F3F4F11F420E030EC30938702F2
:104CB00020938602409186025091870220E061E0B5
:104CC00015D5B7016E5F7F4FA8018C858FD58111F7
:104CD00003C084E08C8710C0CE01B9DF873149F072
:104CE00061E070E080E090E00E94634ECE01AFDFB3
:104CF000EECF81E090E002C080E090E0DF91CF91C4
:104D00001F910F91FF90EF90DF900895CF92DF9267
:104D1000EF92FF92CF93DF93EC018C85843031F1D9
:104D2000BAD50E94344E6B017C01CE0190DF8823FE
:104D300099F061E070E080E090E00E94634E0E9494
:104D4000344E6C197D098E099F09683E73408105B8
:104D5000910558F38C85A4D4EC85F0E0EE0FFF1F8D
:104D6000E15EF64F1182108284E08C87DF91CF9153
:104D7000FF90EF90DF90CF900895CF93DF93EC01F9
:104D80008C858430C9F0CE0162DF8431A9F088239C
:104D900099F0883189F08C3169F4E881F9810480D7
:104DA000F581E02DCE01199521E0892B09F420E051
:104DB000822F03C081E001C080E0DF91CF91089590
:104DC0000F9300E020E040E060E08DE299E00E9477
:104DD000AA530F910895CF93DF931F92CDB7DEB7FB
:104DE0006983DC01ED91FC910280F381E02D41E0CB
:104DF00050E0BE016F5F7F4F19950F90DF91CF910B
:104E00000895EF92FF920F931F93CF93DF93CDB747
:104E1000DEB72D970FB6F894DEBF0FBECDBF7C0175
:104E200000E010E0602FCE010196FFDECE0101967A
:104E30000EDF811114C0F7014481558120E061E04B
:104E4000802F54D4802FA2D4F70184819581F8015A
:104E5000EE0FFF1FE15EF64F9183808305C00F5F69
:104E60001F4F04301105F1F62D960FB6F894DEBFF2
:104E70000FBECDBFDF91CF911F910F91FF90EF90AB
:104E80000895FC011382128282ED95E09183808364
:104E9000758364830895BF92CF92DF92EF92FF9261
:104EA0000F931F93CF93DF93CDB7DEB72D970FB638
:104EB000F894DEBF0FBECDBF8C014FE1C42E49E098
:104EC000D42EB12CE12CF12C6B2DCE010196ADDE50
:104ED000D6012D913D916D01F801848195812817AE
:104EE000390799F4CE010196B2DE843159F0CE0132
:104EF0000196ADDE8C3149F4CE010196F3DD892BAC
:104F000099F003C0EE24E394F12CB394F4E0BF12C3
:104F1000DBCFEF2869F4D801ED91FC910480F58195
:104F2000E02DC801199504C0CE010196EFDEEDCF4A
:104F30002D960FB6F894DEBF0FBECDBFDF91CF9197
:104F40001F910F91FF90EF90DF90CF90BF90089549
:104F50007F928F929F92AF92BF92CF92DF92EF9209
:104F6000FF920F931F93CF93DF93CDB7DEB72D97AB
:104F70000FB6F894DEBF0FBECDBF6C015B014A01D6
:104F80008ADF5FE1E52E59E0F52E712C00E010E09C
:104F9000672DCE01019649DEF701219131917F0104
:104FA000F601848195812817390729F4CE010196ED
:104FB0004EDE8731C9F07394F4E07F12E9CFC80167
:104FC0002D960FB6F894DEBF0FBECDBFDF91CF9107
:104FD0001F910F91FF90EF90DF90CF90BF90AF9017
:104FE0009F908F907F900895A401B501CE01019606
:104FF00060DD080F191FDFCFBF92CF92DF92EF92D3
:10500000FF920F931F93CF93DF93CDB7DEB72D970A
:105010000FB6F894DEBF0FBECDBF8C016B01CB0184
:105020003ADF6FE1E62E69E0F62EB12C6B2DCE0152
:105030000196FBDDF701219131917F01F601848119
:1050400095812817390741F5CE01019600DE873199
:1050500011F08C3109F5CE01019644DD892BE1F088
:105060008B819C81F801938382838D819E81AF81A6
:10507000B88584839583A683B78349855A856B85D4
:105080007C8540875187628773878EEA95E091839C
:1050900080838D85848707C0B394F4E0BF12C6CFA8
:1050A00064E0C801C2DDC8012D960FB6F894DEBFDA
:1050B0000FBECDBFDF91CF911F910F91FF90EF9069
:1050C000DF90CF90BF9008950F9300E020E040E084
:1050D00060E083E399E00E94AA530F910895DC01F8
:1050E000ED91FC91008CF18DE02D19942AE436E0CD
:1050F000FC0131832083FB014089518962897389D6
:10510000FC0142835383648375830895FC01848981
:1051100095890895FC01818D928D0895CF93DF9339
:105120001F92CDB7DEB76983DC01ED91FC9102805F
:10513000F381E02D41E050E0BE016F5F7F4F199594
:105140000F90DF91CF9108950895CF93DF93EC01F5
:10515000888D843059F0A4D2E88DF0E0EE0FFF1F67
:10516000E15EF64F1182108284E0888FDF91CF914B
:105170000895FC01178A168A6E5F7F4F808D33C5B4
:10518000FC01808D74C5CF93DF93EC019A018E8969
:105190009F89AB01BC01888DE2D42E893F89280FFD
:1051A000391F3F8B2E8BDF91CF9108950F931F9363
:1051B000CF93DF931F92CDB7DEB78C01FC01818DB9
:1051C000928D892B51F041E050E0BE016F5F7F4F1F
:1051D000808D11D4181619061CF08FEF9FEF08C0B0
:1051E000F801818D928D0197928F818F898190E056
:1051F0000F90DF91CF911F910F910895CF93DF937F
:10520000EC01898D9A8D009719F48FEF9FEF0FC0F5
:105210004817590708F0AC01888DEDD31816190608
:10522000A4F7298D3A8D281B390B3A8F298FDF91EE
:10523000CF910895CF93DF931F92CDB7DEB7FC01D6
:10524000218D328D232B41F0BE016F5F7F4F808D0A
:1052500057D4898190E002C08FEF9FEF0F90DF91CC
:10526000CF910895FF920F931F93CF93DF93EC019B
:105270008B01888D8430D1F4F12C8F2DEED18111EA
:1052800002C0F88E06C08831E1F3F39484E0F8128E
:10529000F4CF888D843051F01D870C871A8E198EBB
:1052A00020E0A80162E022D281E001C080E0DF912D
:1052B000CF911F910F91FF9008950F931F93CF935C
:1052C000DF93CDB7DEB728970FB6F894DEBF0FBED9
:1052D000CDBF8C01F801818D928D892B49F0D801C9
:1052E000ED91FC910680F781E02DC8011995F2CF70
:1052F000808DDDD3181619063CF548E050E0BE015C
:105300006F5F7F4FD80158968C9175D31816190688
:10531000ECF4BE016F5F7F4FC8010E960E94C6532A
:105320008D8190E0982F88272E81820F911DF801A2
:10533000958B848B8F8190E0982F88272885820F0A
:10534000911D928F818F02C080E090E028960FB669
:10535000F894DEBF0FBECDBFDF91CF911F910F91AB
:1053600008958F929F92AF92BF92CF92DF92EF9269
:10537000FF920F931F93CF93DF9300D000D0CDB750
:10538000DEB78C017B014A01FC01808D843009F07D
:105390005DC073E0A72E74E0B72EC12CD12CC501DF
:1053A00068D5811103C0F801C08E0AC08831D9F3D5
:1053B000FFEFCF1ADF0AB394E4E0CE16D10479F7F9
:1053C000F801808D843009F441C096E0ECE9F2E008
:1053D000DE01119601900D929A95E1F7F701938104
:1053E0009F779C8394819D8395819E83B7016E5F97
:1053F0007F4F90E0982F882744E050E0845F9B4FD8
:105400000FD5F801808D90E00496F82EEE24692DDA
:10541000C701409683D4682DC70141967FD4F80117
:10542000808D90E0982F882746E050E0BE016F5FA6
:105430007F4F8A5F9B4FF4D4F801128E118E20E8C3
:10544000A40162E0808D52D181E001C080E0269607
:105450000FB6F894DEBF0FBECDBFDF91CF911F9185
:105460000F91FF90EF90DF90CF90BF90AF909F9003
:105470008F900895CF93DF93EC011B821A8248EE40
:1054800053E060E070E04C835D836E837F838CED3E
:1054900095E099838883CE010E960E94A05384E004
:1054A000888FDF91CF910895CF92DF92EF92FF9294
:1054B0000F931F93CF93DF93CDB7DEB7AF970FB6A0
:1054C000F894DEBF0FBECDBF7C018B016A01CE0117
:1054D00001960E94A053CE010996CCDFCE018A9698
:1054E0000E94A05367E179E0CE0184968CDABE0178
:1054F0006C5D7F4FCE0101960E94B020AE01465DEB
:105500005F4FB801CE01019665D881309105C1F495
:10551000D701ED91FC910088F189E02D8AE496E0B5
:105520009DA38CA30CA51DA52EA53FA50EA31FA36F
:1055300028A739A7A601BE016C5D7F4FC701199549
:10554000AF960FB6F894DEBF0FBECDBFDF91CF91FF
:105550001F910F91FF90EF90DF90CF9008950F93E0
:1055600000E020E040E060E089E399E00E94AA5377
:105570000F910895CF92DF92EF92FF920F9330E058
:10558000C12CF2E1DF2EFAE7EF2EF12C4C155D0570
:105590006E057F0540F4F694E794D794C7943F5F77
:1055A0003630A1F737E041E04327211102C050E730
:1055B00001C050E5242F30E03595279523700C70FD
:1055C000202B252BFC012083417041830F91FF90FC
:1055D000EF90DF90CF90089590E0982F882744E0D7
:1055E00050E0845F9B4F1CC4282F30E02C5F3F4F5E
:1055F000922F8827860F971F3CC462E070E0F4CF9B
:10560000FB01282F30E02C5F3F4F922F8827642F1B
:105610008E0F9F1F83C3CF93DF93C82FD62F472FA3
:1056200064E070E0EDDF4D2F65E070E08C2FDF91DE
:10563000CF91E6CF462F62E070E0E2CFCF93DF93C9
:10564000C82FD62F472F60E170E0DADF4D2F61E1E0
:1056500070E08C2FDF91CF91D3CF0F931F93CF9317
:10566000DF9300D0CDB7DEB7182F00E021E040E097
:1056700059E06DE370E0CE0101967CDF89819A816B
:1056800034D863E070E0812FAFDF8B8348D88B8103
:105690000F900F900F90DF91CF911F910F91089570
:1056A0000F931F93CF93DF931F921F92CDB7DEB757
:1056B000182F00E021E040E059E06DE370E0CE01FA
:1056C000019658DF89819A8110D840E150E0612F1E
:1056D00081E499E077D56FEF812FACDF20D80F9070
:1056E0000F90DF91CF911F910F910895CF92DF928C
:1056F000EF92FF920F931F93CF93DF931F921F920E
:10570000CDB7DEB7182FD62E7A01C22E8FEF860FB7
:10571000853080F5812FC4DF00E021E040E059E0D2
:105720006DE370E0CE01019625DF89819A810E94A8
:1057300075234D2D4C2960E070E0812F61DFE1146D
:10574000F10411F0B7010AC060913F09709140095E
:105750006F5F7F4F7093400960933F09812F5BDF3C
:1057600041E050E0612F81E499E02CD50E948F2325
:1057700081E001C080E00F900F90DF91CF911F91E9
:105780000F91FF90EF90DF90CF9008950F931F93AC
:10579000CF93DF931F921F92CDB7DEB7182F00E093
:1057A00021E040E059E06DE370E0CE010196E2DED9
:1057B00089819A810E94752363E070E0812F14DF54
:1057C000833121F00E948F2380E009C042E050E045
:1057D000612F81E499E0F6D40E948F2381E00F903D
:1057E0000F90DF91CF911F910F910895CF92DF928B
:1057F000EF92FF920F931F93CF93DF931F921F920D
:10580000CDB7DEB7182F7B016A01FB0180818F3F86
:1058100051F481818F3F99F482818F3F81F483819C
:105820008F3F69F42CC081110AC0FB018181811175
:1058300006C08281811103C08381882301F1C114D4
:10584000D104E9F000E021E040E059E06DE370E0D0
:10585000CE0101968FDE89819A810E947523B7015E
:10586000812FBADEB601812FE9DE44E050E0612FDE
:1058700081E499E0A7D40E948F2381E001C080E0F9
:105880000F900F90DF91CF911F910F91FF90EF90AC
:10589000DF90CF9008950F931F93CF93DF931F92C4
:1058A0001F92CDB7DEB7182F00E021E040E059E0AD
:1058B0006DE370E0CE0101965DDE89819A810E94E0
:1058C000752348E050E0612F81E499E07BD40E9489
:1058D0008F230F900F90DF91CF911F910F9108951B
:1058E000BF92CF92DF92EF92FF920F931F93CF93CD
:1058F000DF9300D0CDB7DEB7B82E6B017A0141300F
:1059000088E0580718F0E12C98E0F92E00E021E03B
:1059100040E059E06DE370E0CE0101962BDE898115
:105920009A810E9475236B2D81E499E0D2D28C017B
:1059300063E070E08B2D58DE8B830E948F238B8178
:10594000873111F08C3131F40E94E94D0E151F059D
:10595000E8F202C0E12CF12C00E021E040E059E047
:105960006DE370E0CE01019605DE89819A810E9487
:1059700075239701A6016B2D81E499E05DD340E288
:1059800050E06B2D81E499E01DD48B2D36DE84FD33
:105990001FC063E070E08B2D27DE811107C00E94DD
:1059A0008F238B2D7DDE80E090E018C00E948F2336
:1059B0000E94E94D00E021E040E059E06DE370E035
:1059C000CE010196D7DD89819A810E947523DDCFB2
:1059D00060E18B2D2FDE0E948F23C7010F900F9067
:1059E0000F90DF91CF911F910F91FF90EF90DF907B
:1059F000CF90BF900895AF92BF92CF92DF92EF9277
:105A0000FF920F931F93CF93DF931F921F92CDB7F7
:105A1000DEB7182F5B016A0100E021E040E059E0A9
:105A20006DE370E0CE010196A5DD89819A810E9427
:105A30007523612F81E499E07CD27C01009799F471
:105A400063E070E0812FD0DD843109F18823F9F023
:105A500021E030E08C3111F420E030E0EE24FF242E
:105A6000E21AF30A14C0C816D9060CF476011E1403
:105A70001F046CF400E09701A501612F81E499E017
:105A800056D340E450E0612F81E499E09BD30E941B
:105A90008F23C7010F900F90DF91CF911F910F912E
:105AA000FF90EF90DF90CF90BF90AF9008950F934D
:105AB0001F93CF93DF9300D01F92CDB7DEB7182F7F
:105AC00000E021E040E059E06DE370E0CE01019696
:105AD00051DD89819A810E947523612F81E499E0CB
