:100000000C944D160C944E9A0C94239A0C94F899D7
:100010000C94CD990C94A2990C9477990C944C99CA
:100020000C9421990C94A95C0C94795C0C94495C17
:100030000C947E160C947E160C947E160C947E16F0
:100040000C947E160C94017A0C947E160C947E16F9
:100050000C947E160C947E160C947E160C9420B88C
:100060000C947E160C947EA00C94F1A00C947E1639
:100070000C947E160C94EF5A0C947E160C947E16FB
:100080000C947E160C947E160C947E160C94787745
:100090000C9455A00C94C8A00C947E160C94307847
:1000A0000C947E160C947E160C947E160C947E1680
:1000B0000C947E160C947E160C947E160C947E1670
:1000C0000C947E160C947E160C947E160C942CA028
:1000D0000C94149C0C947E160C947E160C947E1634
:1000E0000C947E1609960E9613961D962796A0964A
:1000F0003196399641964B9655965F966E967896C0
:10010000A09682968C969696E9B6ECB6DBB6DFB6EC
:10011000E5B623B7F0B6F4B6FAB6FEB602B708B73E
:100120000CB710B723B716B71AB71EB7534B5259AF
:1001300050544F5759005245435A4E590041555457
:100140004F0052520052524D0052524D32005A410D
:100150005359504F5759004252554C490045434F4F
:10016000414C004C41544F005A494D4100425255B8
:100170004C490045434F414C004E69657A6E616EB3
:100180007920647A69656E004E4400534F005054E4
:1001900000435A00535200575400504F002A005851
:1001A00058444D5F504C55535F4D4F430058584491
:1001B0004D5F504C55535F4D4F4300585854455375
:1001C000545F4E5231207A6E616C657A696F6E6F42
:1001D000005858544553545F4E52310058585445B6
:1001E00053545F4E5231207A6E616C657A696F6E3E
:1001F0006F005858544553545F4E5231005757576B
:100200003A206861736C6F207A6120646C7567694D
:1002100065005757575F4841534C4F005757575F3A
:10022000415554480057594C5F414C474F00415588
:10023000544F4C41544F5F54525942004155544F12
:100240004C41544F5F54574557004155544F4C4112
:10025000544F5F484953544552455A410041555403
:100260004F4C41544F5F54454D5000545259422019
:100270004155544F21004F55545F57454E54594CEA
:1002800041544F520054525942204155544F21007D
:100290004F55545F504F4D50414359524B005452AB
:1002A0005942204155544F21004F55545F504F4DF6
:1002B00050414357550054525942204155544F2103
:1002C000004F55545F504F4D5041435755320054E5
:1002D000525942204155544F21004F55545F504FC1
:1002E0004D5041434F0054525942204155544F21E3
:1002F000004F55545F504F44414A4E494B005254B1
:1003000043005254435F435A4153005254435F44A5
:10031000415441004155544F005254435F5A494D96
:10032000410050524143412042455A2044455445E2
:100330004B544F524100444554454B544F525F5427
:10034000455354554A455F42455A504945435A4ED4
:10035000494B004E69657A6E616E7920647A6965F1
:100360006E0050524F475F4359524B5F0050524FFF
:10037000475F005A4144414E41004B525A59574140
:10038000005A41574F5234442D54525942005A4159
:10039000574F5234442D505245534554005A4157FB
:1003A0004F5234442D5A4144414E41005A41574F17
:1003B0005234442D484953544552455A41005A41FC
:1003C000574F5234442D4F424E495A4F4E41005AD6
:1003D00041574F5234442D435A554A4E494B005AC7
:1003E00041574F5234442D435A41535F504F4D496A
:1003F000415255005A41574F5234442D435A4153AC
:100400005F4B524F4B005A41574F5234442D435A81
:1004100041535F4F54574152434941004B525A593F
:1004200057415F47525A414E49412B3135004B529B
:100430005A5957415F47525A414E49412B35004B5B
:10044000525A5957415F47525A414E49412D300047
:100450004B525A5957415F47525A414E49412D31EB
:1004600030004B525A5957415F47525A414E494109
:100470002D3230004B525A5957415F47525A414E24
:1004800049412D3330005600414E414C4F470054F6
:100490003800543700543600543500543400543377
:1004A00000543200543100545350414C494E5900CD
:1004B00054504F444C4F47410054435755005457F4
:1004C000455700545A45570054504F44414A4E49ED
:1004D0004B0054504F57524F54005450494543001D
:1004E000545F4D4150554A5F5A5F4252554C490046
:1004F000545F4D4150554A5F5A5F45434F414C0050
:100500005A415359504F57595F4D4F43005252571C
:100510005F484953544552455A41005252575F5023
:100520004F53544F4A005252575F504F44414E4927
:10053000450052524D5F4F504F5A4E49454E494526
:100540005F504F44414E49410052524D5F4E41571A
:1005500045474C414E49450052524D5F4E4157452B
:10056000474C414E49455F43594B4C005252575FEF
:100570004E41444D5543480052524D5F5749454CFA
:10058000455F4D4F43590052524D5F444F50414CCF
:10059000414E49455F435A41530052524D5F444FCB
:1005A00050414C414E49455F4D4F430052524D5FC3
:1005B0004D41585F50525A4542494349455F544C5A
:1005C0004F0052524D5F544C4F5F435A41530052BB
:1005D000524D5F544C4F5F435A41535F504F44411B
:1005E0004E49450052524D5F544C4F5F4D4F4300B2
:1005F00052524D5F544C4F5F574C41435A4F4E45FA
:100600000052525F50524143415F4D4F430052529E
:100610005F50524143415F504F53544F4A00525232
:100620005F50524143415F504F44414E4945005253
:10063000525F504F4454525A594D414E49455F4DB7
:100640004F430052525F504F4454525A594D414EFD
:1006500049455F504F53544F4A0052525F504F44E8
:1006600054525A594D414E49455F504F44414E49AD
:10067000450052525F504F4454525A594D414E49D1
:10068000455F435A41535F4C41544F0052525F50B3
:100690004F4454525A594D414E49455F435A415374
:1006A000004359524B554C41434A415F544D494ECA
:1006B000004359524B554C41434A415F435A4153C1
:1006C0005F57594C41435A004359524B554C414393
:1006D0004A415F435A41535F574C41435A00435983
:1006E000524B554C41434A415F414C474F5259543C
:1006F0004D00434F5F435A41535F57594C41435A52
:1007000000434F5F435A41535F574C41435A0043A4
:100710004F5F414C474F5259544D00434F5F545225
:10072000594200435755325F435A554A4E494B0090
:10073000435755325F414C474F5259544D00435730
:1007400055325F5452594200435755325F4849531E
:10075000544552455A4100435755325F5A4144412E
:100760004E41004357555F545F4D41580043575524
:100770005F484953544552455A41004357555F50CD
:1007800052494F5259544554004357555F414C47C5
:100790004F5259544D004357555F545259420043EC
:1007A00057555F5A4144414E4100545745575F43A6
:1007B0004F5F4F424E495A4F4E4100545745575F85
:1007C0005A4144414E4100504945435F414C474FD7
:1007D0005259544D00504945435F4849535445527E
:1007E000455A4100504945435F5A4144414E4100FA
:1007F000504945435F5452594200504945435F5464
:100800005F4D415800504945435F414C41524D5F57
:10081000545F4D494E00504945435F545F4D494E2A
:1008200000544C4F4B5F435A41535F43594B4C5517
:1008300000504F44414A4E494B5F544C4F4B4F5729
:100840005900504F44414A4E494B5F414C41524D33
:100850005F4D494E00504F44414A4E494B5F505204
:1008600045444B4F53435F504F444157414E4941DC
:1008700000504F44414A4E494B5F435A41535F50E9
:100880004F44414A4E494B4100504F44414A4E4922
:100890004B5F435A41535F444F5F4F50524F5A4E44
:1008A00049454E494100504F44414A4E494B5F54DF
:1008B0005F4D415800504F44414A4E494B5F435AA7
:1008C00041535F5759525A55545500504F44414A6D
:1008D0004E494B5F545F5759534F4B415F504F57F1
:1008E000544F524B4900504F44414A4E494B5F547C
:1008F0005F5759534F4B4100504F44414A4E494B6B
:100900005F435A41535F504F444E4F535A454E49EF
:10091000410054524941433A207A6D69616E612029
:100920006E612074727962202564005452494143FB
:100930003A207A6D69616E61206E6120747279620D
:1009400020256400444D5F54595000444D5F504C85
:1009500055535F4D4F4300444D5F504C55535F43DB
:100960005A415300444D5F524F5A525543485F4DD0
:100970004F4300444D5F524F5A525543485F435ACC
:10098000415300444D5F544C4F5F4D4F4300444D25
:100990005F544C4F5F435A415300444D5F444F50A6
:1009A000414C414E49455F4D4F4300444D5F444FDC
:1009B00050414C414E49455F435A415300444D5FBD
:1009C0004D4F44554C41434A4100444D5F494E57B9
:1009D0004552534A415F50574D00444D5F4F464684
:1009E00053455400444D5543484157415F41435F8F
:1009F000475255504F574F004E45545F444E530099
:100A00004E45545F4252414D41004E45545F4D4169
:100A1000534B41006175746F004E45545F4950005F
:100A20004E45545F4D4143004F46465345545F0089
:100A30002D3E002000533A2000535F00504B543AA3
:100A40002043524300504B543A2045545800504BD9
:100A5000543A205354580044533A206E723A256455
:100A600020703A2564204552524F520044533A2098
:100A70006E723A256420703A256420743A25642009
:100A80006372633A2564204F4B00544C4F4B204E09
:100A900049452057524F43494C00544C4F4B204E30
:100AA00041535445504E592043594B4C3A20005421
:100AB0004C4F4B204B4F4E49454300544C4F4B201D
:100AC0004E4945205255535A594C00544C4F4B20D7
:100AD0005255434800544C4F4B20535441525400FC
:100AE000544C4F4B2053594E43204F4B00732E0014
:100AF000253032643A253032643A20414C41524D1F
:100B00002054504F44414A4E494B3D545759534F3E
:100B10004B412025643E00253032643A2530326452
:100B20003A20414C41524D2054504F44414A4E4985
:100B30004B3D544D41582025643E002A2A444D50D7
:100B400031002A2A444D5432002A2A444D5431009F
:100B50002A2A444D545F4F4E002A2A444D445F4F89
:100B60004E002A2A444D505F4F4646002A2A444DE3
:100B7000505F4F4E002A2A444D525F4F4646320086
:100B80002A2A444D525F4F4646002A2A444D525F5E
:100B90004F4E00205434443A00207A6164616E6103
:100BA0003A0034443A20435A454B414D59202D20B8
:100BB00064656C74613A00205434443A00207A61D0
:100BC00064616E613A00206B726F6B3A0034443A94
:100BD000204B524543494D59202D2064656C74616A
:100BE0003A0034443A205445524D4F535441542016
:100BF0004F46460034443A205445524D4F535441D9
:100C000054204F4E00202D3E20004841524D4F4E63
:100C10004F4752414D3A207A6D69616E6120005014
:100C20003A2025642C253034642C253034642C255E
:100C30003034642C253034640041363A2025642059
:100C4000256420256400414C4C3A2025646D7300D6
:100C5000545A3A0054524941433A20302D256420D9
:100C6000312D256420532D2564206F6B2D256400C4
:100C700054524941433A20302D256420312D2564BA
:100C800020532D2564206F6B2D25640020256425BD
:100C900025204445542D25642F32303000545249CC
:100CA00041433A20542D2564205A2D256420542D8B
:100CB0005A2D256420462D256400202564252520F5
:100CC0004445542D25642F3230300054524941435D
:100CD0003A20542D2564205A2D256420542D5A2D58
:100CE000256420462D2564004D41582064617461BF
:100CF0003A202523782C20743A25642C20743A2538
:100D0000640020534356002053434700204F4300C4
:100D1000544B206572726F723A0054524941433A03
:100D20002070726F626C656D79207A2064657465DD
:100D30006B746F72656D2030203A2025642F32303D
:100D400030005254433A20643A25642025643A2501
:100D5000640054524941433A207A616B6C6F636579
:100D60006E6961207A20646574656B746F72612CA2
:100D700020543D0054524941433A207A616B6C6FD4
:100D800063656E6961207A20646574656B746F7247
:100D9000612C20543D002072657472793D004543FA
:100DA0004F414C3A2070726F626C656D79207A20E9
:100DB0006B6F6D756E696B61636A61203A20657255
:100DC000723D004553503A0054524941433A7374BE
:100DD00061727920747279620054524941433A6ECB
:100DE0006F77792074727962005254433A20643AE2
:100DF00025642025643A25643A256400576F6C6E9B
:100E0000792052414D3A00576F6C6E792052414D16
:100E10003A0020615F703A00615F743A00414C4DC6
:100E20003A20504945432057594741535A4F4E594C
:100E300000414C4D3A205049454320542E4D494ED7
:100E400000414C4D3A2050525A4550414C4F4E595A
:100E50002042455A504945435A4E494B00414C4D5A
:100E60003A2050524F424C454D205A20544C4F4B43
:100E700049454D00414C4D3A20504F44414A4E495E
:100E80004B205354414E204D494E00414C4D3A2089
:100E9000504F44414A4E494B20542E4D4158004139
:100EA0004C4D3A205049454320542E4D4158004165
:100EB0004C4D3A204252414B00576F6C6E79205294
:100EC000414D3A00743A5B00736574205B004553F2
:100ED000503A20637A61733A20004553503A2070AB
:100EE0006F62696572616D20637A617300666C611F
:100EF00073683A0054524941433A737461727920DD
:100F0000747279620054524941433A6E6F77792086
:100F100074727962005254433A20643A2564202561
:100F2000643A25643A256400576F6C6E792052410B
:100F30004D3A00576F6C6E792052414D3A00206156
:100F40005F703A00615F743A00414C4D3A2050495D
:100F500045432057594741535A4F4E5900414C4D34
:100F60003A205049454320542E4D494E00414C4DA6
:100F70003A2050525A4550414C4F4E592042455A02
:100F8000504945435A4E494B00414C4D3A2050522E
:100F90004F424C454D205A20544C4F4B49454D0033
:100FA000414C4D3A20504F44414A4E494B205354F6
:100FB000414E204D494E00414C4D3A20504F444146
:100FC0004A4E494B20542E4D415800414C4D3A2039
:100FD0005049454320542E4D415800414C4D3A2034
:100FE0004252414B00576F6C6E792052414D3A008E
:100FF000743A5B00736574205B005245534554009E
:101000005245534554005745423A004C43443A0038
:1010100064697361626C656400656E61626C6564CD
:10102000002020416363656C65726174696F6E2096
:1010300069732000436C69636B456E636F6465720E
:101040003A3A446F75626C65436C69636B65640022
:10105000427574746F6E3A200020613A2000206D52
:10106000656E753A20002045323A20005A34443AE1
:1010700000504D503A00444D553A00504F443A000C
:10108000414C473A00414C4D3A004D41503A0041E5
:101090004E413A004D41583A0044414C4C3A0043CD
:1010A0004F4E3A0054494D3A0044414C4C41533A5A
:1010B000204B6F6E69656320706F737A756B69770B
:1010C000616E696120637A756A6E696B6F772E0055
:1010D00044414C4C41533A204E494520444F4441F1
:1010E0004E4F212100202054656D7065726174752A
:1010F0007261203D2000204352433D002020446186
:101100007461203D2000204E69657A6E616E792001
:10111000445331387878002044533138323200203B
:101120004453313842323000204453313853323046
:1011300000626C6164204352430044414C4C415373
:101140003A204944203D0020437A6173206B6F6D43
:10115000656E6461206B6F6E776572736A69206477
:101160006C6120637A756A6E696B61203D20004472
:10117000414C4C41533A20506F637A6174656B2047
:10118000706F737A756B6977616E696120637A75C8
:101190006A6E696B6F772E005254433A206F646316
:1011A0007A7974207A61736F626E696B613A005369
:1011B000544152540053544152540049503A206211
:1011C00072616B204574686572536869656C642E42
:1011D0002E2E005757573A7374726F6E6120676FE7
:1011E000746F7761005757573A7572756368616D10
:1011F00069616D207374726F6E652E2E2E004950DA
:101200003A20646E733A0049503A206272616D610F
:101210003A0049503A206D61736B613A0049503A87
:101220002061647265733A0049503A206D61633AF7
:101230000049503A20706F62696572616E6965207D
:10124000616472657375207A20444843502E2E2EB7
:10125000006272616B0049503A20636869702E2EFB
:101260002E00576F6C6E792052414D3A0049503A2A
:10127000206B6F6E666967757261636A612073695E
:101280006563692E2E2E00576F6C6E792052414D8A
:101290003A00576F6C6E792052414D3A00576F6C8F
:1012A0006E792052414D3A0053443A20626C616499
:1012B000206F64637A7974752064616E7963680065
:1012C00053443A20626C6164206B617274790053FC
:1012D000443A206272616B206B61727479004545FB
:1012E00050524F4D3A206E6965207A6E616C657A76
:1012F000696F6E6F00454550524F4D3A207A6E61CE
:101300006C657A696F6E6F005254433A2062726165
:101310006B20445331333037005254433A205354F6
:101320004F50202D3E205354415254005254433AC2
:10133000207A6E616C657A696F6E6F204453313329
:10134000303700302E312E302E3133302E38004CD5
:1013500075636A616E20762E001F1F1F000000005B
:1013600000181C1E1F1F1F1F1F1F1F1F1F1F0F07DF
:101370000300000000001F1F1F1F1F1F1F1F1E1C38
:10138000181F1F1F0000001F1F1F000000001F1F4D
:101390001F03070F1F1F1F1F1F4932433A20536BA4
:1013A000616E6F77616E6965202E2E2E00302E31B2
:1013B0002E302E3133302E38004C75636A616E202A
:1013C000762E00302E312E302E3133302E38004C18
:1013D00075636A616E20762E0020200000000000F8
:1013E00000FF0700000000000005052020000000AD
:1013F0000004FF04FF0401FF0108FF0607FF0500CA
:101400000001200401040120040806022003070251
:101410000405200000000000000801030400000093
:1014200000010204050000000001040401040101A0
:101430000404FF0401FF010000200500000000007B
:10144000000404042020200000200400000000000C
:1014500000202004010401202008010203040500EB
:101460000001022004FF040000060602FF07070037
:101470000001060204070500000304FF2020FF000E
:1014800000FF06060707050000080606030705001B
:1014900000010102200820000008060203070500E1
:1014A000000806020707050000A5A50000000000CF
:1014B00000040500000000000020040101010400F8
:1014C00000040404010101000001042004010100E2
:1014D00000010602200720000008060203040400A1
:1014E00000080602FF20FF0000FF0605FF070200BC
:1014F000000801010304040000FF0102FF040500CD
:1015000000FF0606FF07070000FF0606FF20200079
:10151000000801010304020000FF04FFFF20FF0098
:101520000001FF0104FF0400002020FF0404050067
:1015300000FF0405FF20020000FF2020FF0404003C
:101540000008030502FF2020FFFF0220FFFF200309
:10155000FF0801020304050000080602FF20200026
:1015600000080102200304FF04FF0602FF2002001E
:1015700000080606070705000001FF0120FF200004
:1015800000FF20FF030405000003202005200208BF
:1015900020FF2020FF0308020503040508200200A5
:1015A0000003040520FF20000001060508070400D1
:1015B00000FF01FF040000000001042020202001A2
:1015C0000401FF04FF0000000008022020000000CA
:1015D0000020202004040400006E6F77613A202070
:1015E00020202020202533642020005052414341F8
:1015F0002020202020202020202020005A41535944
:10160000502E4D4F433A202533642525202020209D
:10161000006E6F77613A202020202020202533643F
:10162000202000504F4454525A594D414E494520B4
:101630002020200052522E435A41533A2020202588
:1016400033646D20202020006E6F77613A202020C7
:1016500020202020253364202000504F4454525A2B
:10166000594D414E4945202020200052522E4D4FC9
:10167000433A2020202025336425252020202000E7
:101680006E6F77613A2020202020202025336420AF
:101690002000504F4454525A594D414E4945202044
:1016A00020200052522E504F53544F4A3A20253397
:1016B000647320202020006E6F77613A2020202064
:1016C000202020253364202000504F4454525A5982
:1016D0004D414E4945202020200052522E504F446B
:1016E00041572E3A20253364732020202020006E9D
:1016F0006F77613A2020202020202025336420208D
:101700000050524143412020202020202020202032
:10171000200052522E4D4F433A2020202025336482
:101720002525202020006E6F77613A202020202080
:1017300020202533642020005052414341202020A6
:1017400020202020202020200052522E504F535481
:101750004F4A2E3A2533647320202020006E6F7785
:10176000613A2020202020202025336420200050B2
:1017700052414341202020202020202020202000F2
:1017800052522E504F4441572E3A20253364732035
:10179000202020006E6F77613A202020202020201A
:1017A00025336420200020202020202020202020FD
:1017B0002020202020200020202020202052524DB8
:1017C00032202020202020002020202020205252C3
:1017D0004D202020202020200020202020202052CA
:1017E00052202020202020202000202020205A418C
:1017F0005359504F57592020202000202020454386
:101800004F414C2F4252554C492020002020205758
:10181000594C41435A4F4E592020202000504945F1
:101820004320414C474F5259544D3A20200020202C
:1018300020202020202020202020202020200020C8
:101840005E5E202057535445435A20205E5E2000A0
:10185000202020205350414C414E4941202020203F
:1018600000202020555354415749454E49412020DE
:101870002000202020202020202020202020202088
:10188000202000202020555354415749454E4941BE
:101890002020200020202020202020202020202068
:1018A0002533642525005A41534F424E494B3A2077
:1018B000202020202020005A41534F424E494B3ACD
:1018C0002050454C4E4520555A5550454C4E4945A3
:1018D0004E4945006E6F77613A202020202020205D
:1018E00025336420200020202020202020202020BC
:1018F000202020202020005A4144414E4120434FC7
:101900003A202533642020202020005452594220C0
:101910005245435A4E593A202020200054523A2032
:101920005245435A4E593A20256400202020202059
:1019300020202020202020253364252500444D55DB
:1019400043484157413A2020202020202000545273
:101950003A20444D554348415741204D4F433A208A
:10196000256400504F44414A4E494B3A20202020E4
:101970002020200054523A20504F44414A4E494BB7
:101980003A202564005A41572E3444205A414D597B
:101990004B414A3A200054523A205A3444205A418A
:1019A0004D3A202564005A41572E3444204F545755
:1019B000494552414A3A0054523A205A3444204F41
:1019C00054573A20256400504F4D504120435952FE
:1019D0004B554C3A2020200054523A205020435975
:1019E000524B3A20256400504F4D504120435755EB
:1019F000323A20202020200054523A2050204357D1
:101A000055323A20256400504F4D504120435755E0
:101A1000313A20202020200054523A2050204357B1
:101A200055313A20256400504F4D504120434F3AE4
:101A3000202020202020200054523A205020434FC4
:101A40003A2025640054383A253032642E2564202B
:101A500020202020202020200054373A25303264D6
:101A60002E25642020202020202020200054363ADB
:101A7000253032642E2564202020202020202020A4
:101A80000054353A253032642E2564202020202051
:101A9000202020200054343A253032642E25642042
:101AA00020202020202020200054333A253032648A
:101AB0002E25642020202020202020200054323A8F
:101AC000253032642E256420202020202020202054
:101AD0000054313A253032642E2564202020202005
:101AE00020202020005350414C494E593A25303394
:101AF000642E256420202000504F444C4F47413A2B
:101B0000253032642E256420202020002020202033
:101B100020202020202020202020202000504F4462
:101B2000414A4E494B3A253032642E25642020200C
:101B3000005745574E3A20253032642E2564202028
:101B40002020202000253032642E256420202020F3
:101B50002020005A45574E3A00504F57524F543AA2
:101B6000253032642E2564202020202000504F573D
:101B7000523A253032642E2564205A3A2530326498
:101B80002E256400434F3A253032642E25642020F0
:101B90002020202020202000434F3A253032642E80
:101BA0002564205A34443A253032642E25640020BE
:101BB0002020202020202020202020202020200045
:101BC000204E49455A4E414E5920414C41524D20DC
:101BD0000020504945432057594741535A4F4E59C9
:101BE00020002020202020414C41524D2020202048
:101BF0002020002020504945432020542E4D494E9E
:101C0000202020002020202020414C41524D202027
:101C1000202020200050525A4550414C4F4E592010
:101C200042455A502E002020202020414C41524D48
:101C30002020202020200020504F5A59434A412084
:101C4000544C4F4B412020002020202020414C416B
:101C5000524D202020202020004E49534B49205334
:101C600054414E205A41534F420020202020204111
:101C70004C41524D2020202020200054454D502E14
:101C80004D414B532E504F44414A2E0020202020DE
:101C900020414C41524D2020202020200054454D11
:101CA000502E204D414B532E50494543410020209A
:101CB000202020414C41524D202020202020002077
:101CC00020202020414C41524D4F57202020200001
:101CD0002020202020204252414B20202020202064
:101CE00000414C4D3A20534B41534F57414E4F20EA
:101CF0005049454320544D494E00414C4D3A2053E4
:101D00004B41534F57414E4F20504945432057595F
:101D10004741535A4F4E5900414C4D3A20534B4185
:101D2000534F57414E4F2050525A4550414C4F4E01
:101D3000592042455A504945435A4E494B00414C5F
:101D40004D3A20534B41534F57414E4F2050524F25
:101D5000424C454D205A20544C4F4B49454D004173
:101D60004C4D3A20534B41534F57414E4F20504F0B
:101D700044414A4E494B205354414E204D494E0058
:101D8000414C4D3A20534B41534F57414E4F2050F9
:101D90004F44414A4E494B20544D415800414C4D0F
:101DA0003A20534B41534F57414E4F2050494543E2
:101DB00020544D415800414C4D3A204E4943204457
:101DC0004F20534B41534F57414E49410020202053
:101DD000202020434F3A00414C41524D20434F3A7E
:101DE00000253032643A2530326420434F3A0043B4
:101DF00057553A253032642E2564200020706F320A
:101E00003A200020706F3A200070727A65643A00C0
:101E1000204F4B0D0A00485454502F312E312000D2
:101E200020743A0020653A00206D3A00206F3A0095
:101E300020703A002049443A0044414C4C41532020
:101E40000058585845434F414C004252414B0042C4
:101E500052414B00534F465400534F4654004D419E
:101E60005836363735004D415836363735004D41F6
:101E7000583331383535004D415833313835350018
:101E800044414C4C4153204E52203D200044414C93
:101E90004C4153005350414C494E5900504F444C13
:101EA0004F47410043575500574557005A45570083
:101EB000504F44414A4E494B00504F57524F5400E7
:101EC000434F004252554C490045434F414C00544A
:101ED000380054370054360054350054340054331D
:101EE00000543200543100545350414C494E590073
:101EF00054504F444C4F474100544357550054579A
:101F0000455700545A45570054504F44414A4E4992
:101F10004B0054504F57524F5400545049454300C2
:101F20005254433A207A61706973207A61736F6208
:101F30006E696B613A00434D443F3F004E45454456
:101F40005F53594E4321002000524553505F434296
:101F50003A2000524553505F563A2000454C433AD0
:101F600020496E76616C6964204352430020002052
:101F70000020003A2000204000454C433A20676F83
:101F80007420007C3C3E5E2B3D3F2F5B5D3B2C2A4A
:101F9000225C0044454C455445004F5054494F4E37
:101FA000530050555400504F535400474554001FA0
:101FB0001C1F1E1F1E1F1F1E1F1E1F005EBCE26176
:101FC0003FDD83C29C7E20A3FD1F419DC3217FFC7A
:101FD000A2401E5F01E3BD3E6082DC237D9FC142C3
:101FE0001CFEA0E1BF5D0380DE3C62BEE0025CDF60
:101FF00081633D7C22C09E1D43A1FF4618FAA427A1
:10200000799BC584DA3866E5BB5907DB856739BA41
:10201000E406581947A5FB7826C49A653BD987047E
:102020005AB8E6A7F91B45C6987A24F8A6441A9927
:10203000C7257B3A6486D85B05E7B98CD2306EED54
:10204000B3510F4E10F2AC2F7193CD114FADF37011
:102050002ECC92D38D6F31B2EC0E50AFF1134DCE2A
:1020600090722C6D33D18F0C52B0EE326C8ED053F7
:102070000DEFB1F0AE4C1291CF2D73CA947628AB10
:10208000F517490856B4EA6937D58B5709EBB536C9
:10209000688AD495CB2977F4AA4816E9B7550B88F6
:1020A000D6346A2B7597C94A14F6A8742AC89615AF
:1020B0004BA9F7B6E80A54D7896B3505050505071E
:1020C0000508080808020202020A0A0808040404B3
:1020D00004010101010101010103030303030303DF
:1020E00003040707070C0C0C0C0C0C0C0C0202026E
:1020F0000206060606060606060B0B0B0B0B0B0B61
:102100000B010210202008081020401020408002FF
:10211000010201080402010102040810204080802D
:1021200040201008040201800402018040201008B1
:102130000402010804020101020408102040800189
:1021400002040810204080000020002300260029FF
:10215000002C002F003200000100000301060109DD
:1021600001426173696320005957527461573436D4
:102170006248566A616D4675003032303130303019
:10218000363030303030303030363130330000319E
:102190006253C4F5A697B988DBEA7D4C1F2E4372C3
:1021A000211087B6E5D4FACB98A93E0F5C6D86B7AF
:1021B000E4D5427320113F0E5D6CFBCA99A8C5F4AB
:1021C000A796013063527C4D1E2FB889DAEB3D0C87
:1021D0005F6EF9C89BAA84B5E6D7407122137E4F83
:1021E0001C2DBA8BD8E9C7F6A59403326150BB8A7F
:1021F000D9E87F4E1D2C02336051C6F7A495F8C96B
:102200009AAB3C0D5E6F4170231285B4E7D67A4BD2
:102210001829BE8FDCEDC3F2A1900736655439084A
:102220005B6AFDCC9FAE80B1E2D344752617FCCD2E
:102230009EAF38095A6B4574271681B0E3D2BF8E22
:10224000DDEC7B4A192806376455C2F3A091477626
:10225000251483B2E1D0FECF9CAD3A0B586904350A
:102260006657C0F1A293BD8CDFEE79481B2AC1F0FE
:10227000A3920534675678491A2BBC8DDEEF82B3E2
:10228000E0D1467724153B0A5968FFCE9DAC436FD9
:102290006E74656E742D547970653A200048544D03
:1022A0002A746578742F68746D6C7C5458542A7441
:1022B0006578742F706C61696E7C4353532A746522
:1022C00078742F6373737C584D4C2A746578742F1F
:1022D000786D6C7C4A532A746578742F6A617661D4
:1022E0007363726970747C4749462A696D616765DA
:1022F0002F6769667C4A50472A696D6167652F6A56
:102300007065677C504E472A696D6167652F706EF6
:10231000677C49434F2A696D6167652F766E642E2D
:102320006D6963726F736F66742E69636F6E7C4D37
:1023300050332A617564696F2F6D7065677C005733
:10234000594741535A414E49453A205433204F4B47
:102350000057594741535A414E49453A2054504934
:102360004543204F4B0057594741535A414E494529
:102370003A20545350414C494E204F4B0057594737
:1023800041535A414E49453A20645350414C494EBD
:102390002025642C2064504945432025642C20646A
:1023A0005433202564002A2A4833002A2A474D3214
:1023B000002A2A4732002A2A474D2D002A2A47316F
:1023C000002A2A5032002A2A5031002A2A44320098
:1023D0002A2A4431002A2A5432002A2A5431007011
:1023E000727A656A73636965206E6120706F6474C8
:1023F000727A796D616E69652025643E3D256400C1
:1024000070727A656A73636965206E61206E6164BB
:102410006D75636820746C6F002A2A4833002A2A7D
:102420004732002A2A4731002A2A5032002A2A50ED
:102430003100202D3E2000444D3A2000575947419D
:10244000535A414E49453A205354415254002A2A86
:10245000432D4F46462A002A2A432D4F4646002A3E
:102460002A432D4F4E002A2A432D4F4E2A004D4914
:1024700045535A414E49450042415254454B00573D
:102480004C41435A004252554C490045434F414C40
:102490000057594C41435A4F4E590043594B4C49F0
:1024A000435A4E5900434941474C590053443A203E
:1024B0006272616B20706C696B7520636F6E666908
:1024C000672E747874005D00636F6E6669673A20EA
:1024D0005B005757573A2041757468206F6B003C7A
:1024E00068313E34303120556E617574686F7269A1
:1024F0007A65643C2F68313E005757572D417574FB
:1025000068656E7469636174653A204261736963DA
:10251000207265616C6D3D224C75636A616E202D81
:10252000207374726F6E6120737465726F776E6959
:102530006B612200436F6E74656E742D5479706503
:102540003A20746578742F68746D6C004854545048
:102550002F312E302034303120417574686F72690C
:102560007A6174696F6E2052657175697265640075
:102570005757573A2041757468206661696C21216C
:10258000005757573A2041757468204E554C4C00FF
:10259000573A2000463A20004B3A20005757573A06
:1025A000206272616B20706C696B753A200057571E
:1025B000573A204F64637A797420706C696B753A6E
:1025C000006163636573732D636F6E74726F6C2D3E
:1025D000616C6C6F772D6F726967696E3A202A0A99
:1025E000005757573A20426C616420706172736FD4
:1025F00077616E69612055524C002062616A746F88
:10260000772900206D7320286F64656272616E6F98
:1026100020002062616A746F772077200057575737
:102620003A205A61706973616E6F20005757573AAC
:10263000205A61706973756A6520706C696B3A0025
:10264000444953434F4E4E45435445440043575528
:10265000323A00435755313A00434F3A004D4F4309
:102660003A256420686973743A2520336420706FBA
:10267000643A2520336420706F733A252034642037
:10268000646D3A25203364206C69637A3A256400CE
:10269000424C4144004F4B004B4F004F4B0066757E
:1026A0006C6C004F4B006163636573732D636F6ED9
:1026B00074726F6C2D616C6C6F772D6F72696769C6
:1026C0006E3A202A0A004F4B006163636573732DD5
:1026D000636F6E74726F6C2D616C6C6F772D6F729F
:1026E0006967696E3A202A0A004B4F004F4B002F52
:1026F0006D6F64756C61636A6100616363657373B8
:102700002D636F6E74726F6C2D616C6C6F772D6FB3
:10271000726967696E3A202A0A004B4F004F4B00DE
:102720002F683464006163636573732D636F6E7427
:10273000726F6C2D616C6C6F772D6F726967696E4B
:102740003A202A0A00227D00302E312E302E3133DD
:10275000302E38002C22766572223A22007B2274B9
:10276000696D65223A006163636573732D636F6EF3
:1027700074726F6C2D616C6C6F772D6F7269676905
:102780006E3A202A0A0020443A00554E4B4E4F57CD
:102790004E200055445020202020202020202000C2
:1027A00054494D455F574149542020200053594E0C
:1027B00053454E5420202020200053594E5245436B
:1027C000562020202020005050504F45202020200F
:1027D000202020004D41435241572020202020201E
:1027E000004C495354454E202020202020004C41CD
:1027F00053545F41434B2020202000495052415701
:10280000202020202020200046494E5F5741495477
:10281000202020200045535441424C495348454410
:102820002000434C4F53494E472020202020004396
:102830004C4F53454420574149542000494E495478
:10284000202020202020202000434C4F53454420AE
:102850002020202020003A30780053230045535098
:102860003A2057494649206572726F723A200045F6
:1028700053503A2057494649206F6B004241443A31
:10288000200053594E4321006A65737400627261DF
:102890006B004553503A20737A756B616D206573F8
:1028A000702D6C696E6B202E2E2E20004F4B005722
:1028B00057573A20736574200020743A0020653A17
:1028C00000206D3A00206F3A0020703A0020494401
:1028D0003A0044414C4C41532000444953434F4E2D
:1028E0004E45435445440077656E74796C61746F4E
:1028F000723A00435755323A00435755313A002255
:102900004F46462200224F4E2200224F46462200CA
:10291000224F4E22002263777532223A20007B221A
:1029200063777531223A20006163636573732D63A9
:102930006F6E74726F6C2D616C6C6F772D6F726936
:1029400067696E3A202A0A00743A5B006163636526
:1029500073732D636F6E74726F6C2D616C6C6F7717
:102960002D6F726967696E3A202A0A002E002D00C9
:10297000227D00302E312E302E3133302E38002C77
:1029800022766572223A22002274696D65223A002D
:102990002C0022616C223A20002C003000310022F1
:1029A000746572223A20002C0030003100226379D5
:1029B000726B223A20002C003000310022637775C0
:1029C00032223A20002C003000310022637775312A
:1029D000223A20002C003000310022636F223A207E
:1029E000002C003000310022706F64223A20002C4D
:1029F0000022706F64676D696E223A20002C0022FD
:102A0000706F64637A646F223A20002C0022706F2A
:102A100064637A7A6173223A20002C0022706F641A
:102A2000637A223A20002C002277656E31223A2008
:102A3000002C002277656E30223A20007D5D2C004C
:102A40007B2274223A20007D2C007B227468657200
:102A50006D6F73223A5B006163636573732D636FFF
:102A60006E74726F6C2D616C6C6F772D6F7269670D
:102A7000696E3A202A0A002020203C574C41435AD4
:102A80004F4E593E202020002020203C57594C41D9
:102A9000435A4F4E593E2020004E54503A20557A0A
:102AA00079736B616E6F20637A617320756E6978DC
:102AB00074696D653A00E30000EC0000000000005E
:102AC0000000314E31340000000000000000000022
:102AD00000000000000000000000000000000000F6
:102AE0000000000000004E54503A20444E53202570
:102AF000643A20004554483A206E696520757A7919
:102B0000736B616E6F20637A617375207A204E5407
:102B100050004553503A206E696520757A79736B81
:102B2000616E6F20637A617375207A204E54500075
:102B30004553503A20706F62696572616D20637A07
:102B40006173004E45543A206A65737420706F6C4F
:102B500061637A656E6965004E45543A2062726120
:102B60006B20706F6C61637A656E696100444E53CF
:102B70003A2025643A2000743A00743A00452E0049
:102B8000743A00436F6E6E656374696F6E3A2063CA
:102B90006C6F736500302E312E302E3133302E386D
:102BA00000557365722D4167656E743A206C7563CC
:102BB0006A616E2000486F73743A200047455420C4
:102BC0002F6C752E74787420485454502F312E3148
:102BD000002E322E00743A002E312E00743A00433B
:102BE000302E00743A00423A0074633A0074643A3A
:102BF00000442E002020202020202000647A6965D7
:102C00006E3A006861726D6F6E6F6772616D2063FE
:102C100079726B756C61636A693A00000021002467
:102C20000027002A002D00300033000101000004BD
:102C30000107010A0100002200250028002B002EB8
:102C4000003100340002010000050108010B010001
:102C5000000A0B02090C0D0E080703040100000016
:102C60000000000000000000000000000000000064
:102C70000000000000000000000000121110000021
:102C80000000000000000000000000000000000044
:102C900000000000000018CC3CD511241FBECFEF6F
:102CA000D1E2DEBFCDBF00E00CBF15E0A0E0B2E096
:102CB000ECE4FCEB01E00BBF02C007900D92A03EDC
:102CC000B107D9F724E1A0EEB5E001C01D92A93EFD
:102CD000B207E1F716E1CCE4D6E100E006C02197A7
:102CE0000109802FFE010E945BDCCB34D10780E01C
:102CF0000807A9F70E9491B80C9415DE0C94000007
:102D00008F929F92AF92BF92CF92DF92EF92FF92FB
:102D10000F931F93CF93DF93CDB7DEB769970FB6AD
:102D2000F894DEBF0FBECDBF8C0140E050E06DE3F4
:102D30000E945D976C01D80114968D919C91159716
:102D40001816190614F00C941130BFEFCB16DB06E1
:102D500011F40C941130A6014F5F5F4FB801CE0102
:102D60000D960E94635ECE010D960E94FE9669E369
:102D70007AE0CE0101960E947A98BE016F5F7F4F84
:102D8000C8010E948B97F82ECE0101960E9475987B
:102D9000FF2009F45EC0960142E050E0B801CE0188
:102DA00001960E94DD98BE016F5F7F4FC8010E94AF
:102DB000DF97CE0101960E947598CE010D960E9474
:102DC000F3964B015C01C8010E9470598F3F11F4CA
:102DD0000C94E82FE8E08E02C00111249C012153DD
:102DE000364F7901D90114968C91813011F00C94F1
:102DF000E82F65E37AE083EC91E10E94D09BB80173
:102E000083EC91E10E94B29B63E37AE083EC91E171
:102E10000E94D09BF701608171814AE050E083EC11
:102E200091E10E94699B60E37AE083EC91E10E946A
:102E3000D09B4AE050E0B40183EC91E10E94699B91
:102E400083EC91E10E94C29AD7018D929C920C94DE
:102E5000E82F68E27AE0CE0101960E947A98BE01DE
:102E60006F5F7F4FC8010E948B97F82ECE010196AD
:102E70000E947598FF2049F1960147E050E0B801A3
:102E8000CE0101960E94DD98BE016F5F7F4FC801A1
:102E90000E94DF97CE0101960E947598CE010D9693
:102EA0000E94F3966B017C01C8010E9470598F3F0C
:102EB00011F40C94E82FB8E08B02F0011124E153D7
:102EC000F64FD382C2820C94E82F60E27AE0CE0102
:102ED00001960E947A98BE016F5F7F4FC8010E94E1
:102EE0008B97F82ECE0101960E947598FF2009F469
:102EF0004AC089899A890C9711F00C94E82FE12C2B
:102F0000F12CD12C0E2DB701CE010D960E94799790
:102F1000FC0180810E94D75A8F3F89F1182F1295AA
:102F2000107FB7016F5F7F4FCE010D960E9479979A
:102F3000DC018C910E94D75A8F3F09F10695E1E0A0
:102F4000F0E0EC0FFD1FE00FF11D810F8083BAE070
:102F5000EB16F10411F4DD24D394E2E0EE0EF11C43
:102F6000FCE0EF16F10471F6DD2049F086E0FE0189
:102F70003196AEEBB2E001900D928A95E1F70E9496
:102F80005B590C94E82F69E17AE0CE0101960E942A
:102F90007A98BE016F5F7F4FC8010E948B97E82E21
:102FA000CE0101960E947598EE2009F460C081EC74
:102FB00093E09A8389831B821C821D821E82BE013C
:102FC000635F7F4FCE0101960E94225D882329F026
:102FD0008B819C81AD81BE813AC064E17AE0CE01F3
:102FE00007960E947A9889899A892B853C85821751
:102FF0009307F9F4892BD9F00D851E85CF80D884ED
:10300000F80181918F01882391F0082E000C990B13
:103010000E9474DD5C01D6018D916D01082E000CBB
:10302000990B0E9474DDA816B90651F302C0FF2463
:10303000F394CE0107960E947598FF2081F080914D
:10304000781390917913A0917A13B0917B138093A8
:10305000111190931211A0931311B09314116FE0FA
:1030600071E183EC91E10E94C69A0C94E82F6AE02A
:103070007AE0CE0101960E947A98BE016F5F7F4F81
:10308000C8010E948B97F82ECE0101960E94759878
:10309000FF2079F181EC93E09A8389831B821C8263
:1030A0001D821E82BE01635F7F4FCE0101960E948A
:1030B000225D8823A9F08B819C81AD81BE818093A4
:1030C0000B1190930C11A0930D11B0930E11BE0132
:1030D0006F5F7F4F83EC91E10E94C69A0C94E82FBA
:1030E000BE016F5F7F4F83EC91E10E94C69A0C9402
:1030F000E82F60E07AE0CE0101960E947A98BE0146
:103100006F5F7F4FC8010E948B97F82ECE0101960A
:103110000E947598FF2079F181EC93E09A8389836E
:103120001B821C821D821E82BE01635F7F4FCE0107
:1031300001960E94225D8823A9F08B819C81AD813C
:10314000BE818093051190930611A0930711B0934F
:103150000811BE016F5F7F4F83EC91E10E94C69A18
:103160000C94E82FBE016F5F7F4F83EC91E10E94CA
:10317000C69A0C94E82F68EF79E0CE0101960E9480
:103180007A98BE016F5F7F4FC8010E948B97F82E1F
:10319000CE0101960E947598FF2079F181EC93E0B1
:1031A0009A8389831B821C821D821E82BE01635FFB
:1031B0007F4FCE0101960E94225D8823A9F08B816A
:1031C0009C81AD81BE818093FF1090930011A093EC
:1031D0000111B0930211BE016F5F7F4F83EC91E14B
:1031E0000E94C69A0C94E82FBE016F5F7F4F83EC5C
:1031F00091E10E94C69A0C94E82F64EE79E0CE012A
:1032000001960E947A98BE016F5F7F4FC8010E94AD
:103210008B97F82ECE0101960E947598F1100C94B0
:10322000E82F6AED79E0CE0101960E947A98BE01FE
:103230006F5F7F4FC8010E948B97F82ECE010196D9
:103240000E947598FF2041F0CE010D960E94F396E2
:10325000609380080C94E82F6AEC79E0CE01019627
:103260000E947A98BE016F5F7F4FC8010E948B97C2
:10327000F82ECE0101960E947598FF2041F0CE01F4
:103280000D960E94F396609381080C94E82F6DEBE5
:1032900079E0CE0101960E947A98BE016F5F7F4F60
:1032A000C8010E948B97F82ECE0101960E94759856
:1032B000FF2041F0CE010D960E94F39660938208A4
:1032C0000C94E82F6BEA79E0CE0101960E947A987F
:1032D000BE016F5F7F4FC8010E948B97F82ECE0111
:1032E00001960E947598FF2051F0CE010D960E9424
:1032F000F39670938408609383080C94E82F6AE92E
:1033000079E0CE0101960E947A98BE016F5F7F4FEF
:10331000C8010E948B97F82ECE0101960E947598E5
:10332000FF2051F0CE010D960E94F39670938C0809
:1033300060938B080C94E82F6EE879E0CE0101963B
:103340000E947A98BE016F5F7F4FC8010E948B97E1
:10335000F82ECE0101960E947598FF2051F0CE0103
:103360000D960E94F39670938808609387080C94DA
:10337000E82F63E879E0CE0101960E947A98BE01B9
:103380006F5F7F4FC8010E948B97F82ECE01019688
:103390000E947598FF2051F0CE010D960E94F39681
:1033A0007093900860938F080C94E82F63E779E09E
:1033B000CE0101960E947A98BE016F5F7F4FC801CF
:1033C0000E948B97F82ECE0101960E947598FF20DF
:1033D00051F0CE010D960E94F3967093860860938B
:1033E00085080C94E82F64E679E0CE0101960E94EE
:1033F0007A98BE016F5F7F4FC8010E948B97F82EAD
:10340000CE0101960E947598FF2051F0CE010D96D5
:103410000E94F39670938E0860938D080C94E82FA9
:1034200067E579E0CE0101960E947A98BE016F5F50
:103430007F4FC8010E948B97F82ECE0101960E9403
:103440007598FF2051F0CE010D960E94F39670936F
:103450008A08609389080C94E82F6BE479E0CE0128
:1034600001960E947A98BE016F5F7F4FC8010E944B
:103470008B97F82ECE0101960E947598FF2051F08F
:10348000CE010D960E94F396709392086093910876
:103490000C94E82F64E479E0CE0101960E947A98BA
:1034A000BE016F5F7F4FC8010E948B97F82ECE013F
:1034B00001960E947598FF2079F1CE010D960E9429
:1034C000F396162F862F0E946CD21F921F938BE2C9
:1034D00099E09F938F9383EC91E19F938F930E9448
:1034E000175E83EC91E10E94C29A1F921F9382E1C2
:1034F00099E09F938F9389E99DE09F938F930E941A
:10350000175E89E99DE00E94C29A0FB6F894DEBF6B
:103510000FBECDBF0C94E82F68EF78E0CE01019686
:103520000E947A98BE016F5F7F4FC8010E948B97FF
:10353000F82ECE0101960E947598FF2099F0CE01D9
:103540000D960E94F3966F3F710509F02CF4161644
:10355000170624F00C94E82F6FEF70E06093940846
:103560000C94E82F66EE78E0CE0101960E947A98DE
:10357000BE016F5F7F4FC8010E948B97F82ECE016E
:1035800001960E947598FF2081F0CE010D960E9451
:10359000F3969B01215031092A35310510F00C9426
:1035A000E82F609396080C94E82F6BEC78E0CE013E
:1035B00001960E947A98BE016F5F7F4FC8010E94FA
:1035C0008B97F82ECE0101960E947598FF2069F026
:1035D000CE010D960E94F3966B35710510F00C9498
:1035E000E82F609397080C94E82F65EB78E0CE0104
:1035F00001960E947A98BE016F5F7F4FC8010E94BA
:103600008B97F82ECE0101960E947598FF2081F0CD
:10361000CE010D960E94F3969B012150310923366D
:10362000310510F00C94E82F609393080C94E82F68
:1036300066EA78E0CE0101960E947A98BE016F5F3B
:103640007F4FC8010E948B97F82ECE0101960E94F1
:103650007598FF2081F0CE010D960E94F3969B0194
:10366000215031092A35310510F00C94E82F609370
:1036700095080C94E82F69E878E0CE0101960E9445
:103680007A98BE016F5F7F4FC8010E948B97F82E1A
:10369000CE0101960E947598FF20A9F0CE010D96EB
:1036A0000E94F396611571058105910511F40C9442
:1036B000E82F609398087093990880939A089093E4
:1036C0009B080C94E82F61E778E0CE0101960E94F8
:1036D0007A98BE016F5F7F4FC8010E948B97F82ECA
:1036E000CE0101960E947598FF2081F0CE010D96C3
:1036F0000E94F39660939C0870939D0880939E08A7
:1037000090939F080E9418590C94E82F65E578E083
:10371000CE0101960E947A98BE016F5F7F4FC8016B
:103720000E948B97F82ECE0101960E947598FF207B
:1037300079F0CE010D960E94F3966115710511F492
:103740000C94E82F7093A1086093A0080C94E82FC4
:1037500062E478E0CE0101960E947A98BE016F5F24
:103760007F4FC8010E948B97F82ECE0101960E94D0
:103770007598FF2041F0CE010D960E94F39660935C
:10378000A2080C94E82F61E378E0CE0101960E9434
:103790007A98BE016F5F7F4FC8010E948B97F82E09
:1037A000CE0101960E947598FF2031F1CE010D9651
:1037B0000E94F3961616170624F481E080931206F1
:1037C00002C0109212066BEE73E083EC91E10E944E
:1037D000416080911206811103C060E370E002C075
:1037E00061E370E083EC91E10E94595D83EC91E12B
:1037F0000E94C29A0C94E82F61E278E0CE01019613
:103800000E947A98BE016F5F7F4FC8010E948B971C
:10381000F82ECE0101960E947598FF2091F0CE01FE
:103820000D960E94F396613F71052CF4161617064B
:1038300024F00C94E82F60EF70E0609331090C9451
:10384000E82F66E178E0CE0101960E947A98BE01E9
:103850006F5F7F4FC8010E948B97F82ECE010196B3
:103860000E947598FF2081F0CE010D960E94F3967C
:103870009B01215031092336310510F00C94E82FBB
:103880006093A8080C94E82F65E078E0CE010196DB
:103890000E947A98BE016F5F7F4FC8010E948B978C
:1038A000F82ECE0101960E947598FF20C1F0CE013E
:1038B0000D960E94F3962091E1056536710548F456
:1038C0006093A908822F8D7F81608093E1050C941D
:1038D000E82F822F8C7F8093E1050C94E82F6AEF0C
:1038E00077E0CE0101960E947A98BE016F5F7F4F0C
:1038F000C8010E948B97F82ECE0101960E94759800
:10390000FF2081F0CE010D960E94F3969B0121507D
:1039100031092336310510F00C94E82F6093A70885
:103920000C94E82F60EF77E0CE0101960E947A9820
:10393000BE016F5F7F4FC8010E948B97E82ECE01BA
:1039400001960E947598EE2009F452C0BE01635F93
:103950007F4FCE0107960E94B0986DE371E0CE01D3
:1039600001960E947A98BE016F5F7F4FCE01079645
:103970000E948B97182FCE0101960E947598111105
:103980002DC066E371E0CE0101960E947A98BE01D7
:103990006F5F7F4FCE0107960E948B97182FCE0145
:1039A00001960E947598111114C06CE271E0CE016D
:1039B00001960E947A98BE016F5F7F4FCE010796F5
:1039C0000E948B97182FCE0101960E9475981111B5
:1039D00003C0FF24F39402C082E0F82EF092A40802
:1039E000CE0107960E9475980E9475D10C94E82F1D
:1039F00064EE77E0CE0101960E947A98BE016F5F77
:103A00007F4FC8010E948B97F82ECE0101960E942D
:103A10007598FF2081F0CE010D960E94F3969B01D0
:103A2000215031092336310510F00C94E82F6093B2
:103A3000A5080C94E82F65ED77E0CE0101960E9471
:103A40007A98BE016F5F7F4FC8010E948B97F82E56
:103A5000CE0101960E947598FF2081F0CE010D964F
:103A60000E94F3969B01215031092336310510F055
:103A70000C94E82F6093A6080C94E82F67EC77E08D
:103A8000CE0101960E947A98BE016F5F7F4FC801F8
:103A90000E948B97F82ECE0101960E947598FF2008
:103AA00009F49AC0BE01635F7F4FCE0143960E9426
:103AB000B0986DE571E0CE0101960E947A98BE0142
:103AC0006F5F7F4FCE0143960E948B97811116C086
:103AD00067E571E0CE0107960E947A98BE01695FA2
:103AE0007F4FCE0143960E948B9711E0811101C058
:103AF00010E0CE0107960E94759801C011E0CE013A
:103B000001960E947598112321F01092200211E075
:103B100057C06EE471E0CE0101960E947A98BE0112
:103B20006F5F7F4FCE0143960E948B97182FCE0177
:103B300001960E94759811113EC069E471E0CE01B2
:103B400001960E947A98BE016F5F7F4FCE01439627
:103B50000E948B97182FCE0101960E947598111123
:103B60002CC065E471E0CE0101960E947A98BE01F6
:103B70006F5F7F4FCE0143960E948B97182FCE0127
:103B800001960E94759811111AC062E471E0CE018D
:103B900001960E947A98BE016F5F7F4FCE014396D7
:103BA0000E948B97182FCE0101960E9475981123C1
:103BB00039F013E005C012E003C015E001C014E0C5
:103BC0001093A308CE0143960E9475988091A30894
:103BD0008093B0080C94E82F6BEB77E0CE01019650
:103BE0000E947A98BE016F5F7F4FC8010E948B9739
:103BF000F82ECE0101960E947598FF2041F0CE016B
:103C00000D960E94F3966093AA080C94E82F6AEA36
:103C100077E0CE0101960E947A98BE016F5F7F4FD8
:103C2000C8010E948B97F82ECE0101960E947598CC
:103C3000FF2041F0CE010D960E94F3966093AB08F1
:103C40000C94E82F6FE977E0CE0101960E947A98F4
:103C5000BE016F5F7F4FC8010E948B97F82ECE0187
:103C600001960E947598FF2081F0CE010D960E946A
:103C7000F3969B01215031092336310510F00C9445
:103C8000E82F6093B7080C94E82F66E977E0CE013F
:103C900001960E947A98BE016F5F7F4FC8010E9413
:103CA0008B97F82ECE0101960E947598FF2099F00F
:103CB000BE01635F7F4FCE0101960E94B098CE0196
:103CC00001960E94ECD08093B508CE0101960E9427
:103CD00075980C94E82F69E877E0CE0101960E9470
:103CE0007A98BE016F5F7F4FC8010E948B97F82EB4
:103CF000CE0101960E947598FF2099F0BE01635F86
:103D00007F4FCE0101960E94B098CE0101960E948D
:103D100097D08093B608CE0101960E9475980C94B6
:103D2000E82F6BE777E0CE0101960E947A98BE01FA
:103D30006F5F7F4FC8010E948B97F82ECE010196CE
:103D40000E947598FF2099F0BE01635F7F4FCE01FE
:103D500001960E94B098CE0101960E94ECD080930B
:103D6000BA08CE0101960E9475980C94E82F6DE672
:103D700077E0CE0101960E947A98BE016F5F7F4F77
:103D8000C8010E948B97F82ECE0101960E9475986B
:103D9000FF2069F0CE010D960E94F39665367105FD
:103DA00010F00C94E82F6093B9080C94E82F63E6A8
:103DB00077E0CE0101960E947A98BE016F5F7F4F37
:103DC000C8010E948B97F82ECE0101960E9475982B
:103DD000FF2081F0CE010D960E94F3969B012150A9
:103DE00031092336310510F00C94E82F6093B808A0
:103DF0000C94E82F67E577E0CE0101960E947A984F
:103E0000BE016F5F7F4FC8010E948B97F82ECE01D5
:103E100001960E947598FF2081F0CE010D960E94B8
:103E2000F3969B01215031092336310510F00C9493
:103E3000E82F6093BD080C94E82F68E477E0CE018A
:103E400001960E947A98BE016F5F7F4FC8010E9461
:103E50008B97F82ECE0101960E947598FF2069F08D
:103E6000CE010D960E94F3966536710510F00C9404
:103E7000E82F6093BE080C94E82F6EE377E0CE0144
:103E800001960E947A98BE016F5F7F4FC8010E9421
:103E90008B97F82ECE0101960E947598FF2099F01D
:103EA000BE01635F7F4FCE0101960E94B098CE01A4
:103EB00001960E94ECD08093BB08CE0101960E942F
:103EC00075980C94E82F60E377E0CE0101960E948C
:103ED0007A98BE016F5F7F4FC8010E948B97F82EC2
:103EE000CE0101960E947598FF2099F0BE01635F94
:103EF0007F4FCE0101960E94B098CE0101960E949C
:103F000097D08093BC08CE0101960E9475980C94BE
:103F1000E82F63E277E0CE0101960E947A98BE0115
:103F20006F5F7F4FC8010E948B97F82ECE010196DC
:103F30000E947598FF2041F0CE010D960E947059A5
:103F40008093BF080C94E82F6BE177E0CE010196D7
:103F50000E947A98BE016F5F7F4FC8010E948B97C5
:103F6000F82ECE0101960E947598FF2009F46AC0D0
:103F7000BE01635F7F4FCE0143960E94B09863E716
:103F800071E0CE0101960E947A98BE016F5F7F4F6B
:103F9000CE0143960E948B97811116C06DE671E0A9
:103FA000CE0107960E947A98BE01695F7F4FCE01CD
:103FB00043960E948B9711E0811101C010E0CE0161
:103FC00007960E94759801C011E0CE0101960E94EB
:103FD0007598112321F01092200211E02BC068E6A1
:103FE00071E0CE0101960E947A98BE016F5F7F4F0B
:103FF000CE0143960E948B97182FCE0101960E9406
:104000007598111116C063E671E0CE0101960E9409
:104010007A98BE016F5F7F4FCE0143960E948B97C7
:10402000182FCE0101960E947598112319F013E004
:1040300001C012E01093B108CE0143960E9475981A
:104040000C94E82F6FE077E0CE0101960E947A98F9
:10405000BE016F5F7F4FC8010E948B97F82ECE0183
:1040600001960E947598FF2099F0BE01635F7F4F13
:10407000CE0101960E94B098CE0101960E9497D081
:104080008093B208CE0101960E9475980C94E82F97
:1040900061E077E0CE0101960E947A98BE016F5FE1
:1040A0007F4FC8010E948B97F82ECE0101960E9487
:1040B0007598FF2091F0CE010D960E94F396613F16
:1040C00071052CF41616170624F00C94E82F60EFF7
:1040D00070E06093B3080C94E82F62EF76E0CE01B5
:1040E00001960E947A98BE016F5F7F4FC8010E94BF
:1040F0008B97F82ECE0101960E947598FF2091F0C3
:10410000CE010D960E94F396613F71052CF41616B0
:10411000170624F00C94E82F60EF70E06093B40869
:104120000C94E82F6EED76E0CE0101960E947A980D
:10413000BE016F5F7F4FC8010E948B97F82ECE01A2
:1041400001960E947598FF2099F0BE01635F7F4F32
:10415000CE0101960E94B098CE0101960E9497D0A0
:104160008093C008CE0101960E9475980C94E82FA8
:1041700068EC76E0CE0101960E947A98BE016F5FEE
:104180007F4FC8010E948B97F82ECE0101960E94A6
:104190007598FF2041F0CE010D960E94F396609332
:1041A000C1080C94E82F61EB76E0CE0101960E94E5
:1041B0007A98BE016F5F7F4FC8010E948B97F82EDF
:1041C000CE0101960E947598FF2041F0CE010D9618
:1041D0000E94F3966093C2080C94E82F61EA76E09F
:1041E000CE0101960E947A98BE016F5F7F4FC80191
:1041F0000E948B97F82ECE0101960E947598FF20A1
:1042000071F0CE010D960E94F3968FEF860F8336E4
:1042100010F00C94E82F6093C3080C94E82F6CE81E
:1042200076E0CE0101960E947A98BE016F5F7F4FC3
:10423000C8010E948B97F82ECE0101960E947598B6
:10424000FF2069F0CE010D960E94F3961616170610
:1042500014F00C94E82F6093C9080C94E82F62E7DF
:1042600076E0CE0101960E947A98BE016F5F7F4F83
:10427000C8010E948B97F82ECE0101960E94759876
:10428000FF2061F0CE010D960E94F39677FF02C0E9
:104290000C94E82F6093CA080C94E82F6AE576E046
:1042A000CE0101960E947A98BE016F5F7F4FC801D0
:1042B0000E948B97F82ECE0101960E947598FF20E0
:1042C00069F0CE010D960E94F3961616170614F0AB
:1042D0000C94E82F6093CB080C94E82F63E476E00D
:1042E000CE0101960E947A98BE016F5F7F4FC80190
:1042F0000E948B97F82ECE0101960E947598FF20A0
:1043000069F0CE010D960E94F3961616170614F06A
:104310000C94E82F6093CC080C94E82F6FE276E0C1
:10432000CE0101960E947A98BE016F5F7F4FC8014F
:104330000E948B97F82ECE0101960E947598FF205F
:1043400069F0CE010D960E94F3961616170614F02A
:104350000C94E82F6093CD080C94E82F6EE176E082
:10436000CE0101960E947A98BE016F5F7F4FC8010F
:104370000E948B97F82ECE0101960E947598FF201F
:1043800069F0CE010D960E94F3961616170614F0EA
:104390000C94E82F6093CE080C94E82F6EE076E042
:1043A000CE0101960E947A98BE016F5F7F4FC801CF
:1043B0000E948B97F82ECE0101960E947598FF20DF
:1043C00069F0CE010D960E94F3961616170614F0AA
:1043D0000C94E82F6093CF080C94E82F61E076E00E
:1043E000CE0101960E947A98BE016F5F7F4FC8018F
:1043F0000E948B97F82ECE0101960E947598FF209F
:1044000069F0CE010D960E94F3961616170614F069
:104410000C94E82F6093D0080C94E82F60EF75E0BF
:10442000CE0101960E947A98BE016F5F7F4FC8014E
:104430000E948B97F82ECE0101960E947598FF205E
:1044400069F0CE010D960E94F3966330710510F06D
:104450000C94E82F6093D1080C94E82F64EE75E07B
:10446000CE0101960E947A98BE016F5F7F4FC8010E
:104470000E948B97F82ECE0101960E947598FF201E
:1044800069F0CE010D960E94F3961616170614F0E9
:104490000C94E82F6093D2080C94E82F6FEC75E031
:1044A000CE0101960E947A98BE016F5F7F4FC801CE
:1044B0000E948B97F82ECE0101960E947598FF20DE
:1044C00081F0CE010D960E94F3961616170614F091
:1044D0000C94E82F70E07093D6086093D5080C9484
:1044E000E82F62EC75E0CE0101960E947A98BE0139
:1044F0006F5F7F4FC8010E948B97F82ECE01019607
:104500000E947598FF2081F0CE010D960E94F396CF
:104510001616170614F00C94E82F70E07093D40868
:104520006093D3080C94E82F6CEA75E0CE010196F5
:104530000E947A98BE016F5F7F4FC8010E948B97DF
:10454000F82ECE0101960E947598FF2069F0CE01E9
:104550000D960E94F3961616170614F00C94E82F89
:104560006093D7080C94E82F6AE975E0CE010196B4
:104570000E947A98BE016F5F7F4FC8010E948B979F
:10458000F82ECE0101960E947598FF2081F0CE0191
:104590000D960E94F3961616170614F00C94E82F49
:1045A00070E07093DB086093DA080C94E82F67E8FA
:1045B00075E0CE0101960E947A98BE016F5F7F4F31
:1045C000C8010E948B97F82ECE0101960E94759823
:1045D000FF2079F0CE010D960E94F39677FF02C07E
:1045E0000C94E82F70E07093D9086093D8080C946D
:1045F000E82F68E775E0CE0101960E947A98BE0127
:104600006F5F7F4FC8010E948B97F82ECE010196F5
:104610000E947598FF2061F0CE010D960E94F396DE
:1046200077FF02C00C94E82F6093DC080C94E82F0D
:104630006CE675E0CE0101960E947A98BE016F5F2C
:104640007F4FC8010E948B97F82ECE0101960E94E1
:104650007598FF2019F16BE070E0C8010E9479970E
:10466000DC01EC9110ED1E0F1A3010F00C94E82FC5
:10467000CE010D960E94F3966536710524F477FFFE
:1046800004C00C94E82F64E670E0B8E01B9FF001D2
:104690001124E352F74F60830C94E82F68E575E02E
:1046A000CE0101960E947A98BE016F5F7F4FC801CC
:1046B0000E948B97F82ECE0101960E947598FF20DC
:1046C00089F0CE010D960E94F396613F710524F4A6
:1046D00077FF04C00C94E82F60EF70E060932E0920
:1046E0000C94E82F69E475E0CE0101960E947A9857
:1046F000BE016F5F7F4FC8010E948B97F82ECE01DD
:1047000001960E947598FF2089F0CE010D960E94B7
:10471000F396613F710524F477FF04C00C94E82FF1
:1047200060EF70E060932F090C94E82F62E375E06E
:10473000CE0101960E947A98BE016F5F7F4FC8013B
:104740000E948B97F82ECE0101960E947598FF204B
:1047500089F0CE010D960E94F396613F710524F415
:1047600077FF04C00C94E82F60EF70E0609330098D
:104770000C94E82F66E275E0CE0101960E947A98CB
:10478000BE016F5F7F4FC8010E948B97F82ECE014C
:1047900001960E947598FF20F1F06BE070E0C8016F
:1047A0000E947997DC01EC9110ED1E0F1A3010F089
:1047B0000C94E82FCE010D960E94F39677FF02C06D
:1047C0000C94E82FB8E01B9FF0011124E252F74F40
:1047D00060830C94E82F6BE175E0CE0101960E9496
:1047E0007A98BE016F5F7F4FC8010E948B97F82EA9
:1047F000CE0101960E947598FF20F9F06AE070E002
:10480000C8010E947997DC01EC9110ED1E0F1A305F
:1048100010F00C94E82FCE010D960E94F39677FFCE
:1048200002C00C94E82FB8E01B9FF0011124E15264
:10483000F74F718360830C94E82F6DE075E0CE0133
:1048400001960E947A98BE016F5F7F4FC8010E9457
:104850008B97F82ECE0101960E947598FF20F9F0F3
:104860006DE070E0C8010E947997DC01EC9110EDD9
:104870001E0F1A3010F00C94E82FCE010D960E94F6
:10488000F39677FF02C00C94E82FB8E01B9FF0016D
:104890001124EF51F74F718360830C94E82F60E08F
:1048A00075E0CE0101960E947A98BE016F5F7F4F3E
:1048B000C8010E948B97F82ECE0101960E94759830
:1048C000FF2069F0CE010D960E94F396161617068A
:1048D00014F00C94E82F60932D090C94E82F60EFEE
:1048E00074E0CE0107960E947A98BE01695F7F4FFF
:1048F000C8010E948B97811116C060EE74E0CE0152
:1049000001960E947A98BE016F5F7F4FC8010E9496
:104910008B97FF24F394811101C0F12CCE010196F5
:104920000E94759802C0FF24F394CE0107960E945E
:104930007598FF2091F1CE010D960E94F39661309B
:1049400011F00C94E82F82E08093D3091092D409DF
:104950008093DB096093DC098093E3098093E40989
:104960008093EB0993E09093EC098093F30994E032
:104970009093F4098093FB0995E09093FC09809350
:10498000030A96E09093040A80930B0A87E08093D1
:104990000C0A109220020C94E82F6AED74E0CE010C
:1049A00001960E947A98BE016F5F7F4FC8010E94F6
:1049B0008B97F82ECE0101960E947598FF2049F042
:1049C000BE01635F7F4F80E090E00E9406C60C94BA
:1049D000E82F62ED74E0CE0101960E947A98BE0144
:1049E0006F5F7F4FC8010E948B97F82ECE01019612
:1049F0000E947598FF2049F0BE01635F7F4F81E000
:104A000090E00E9406C60C94E82F68EC74E0CE019A
:104A100001960E947A98BE016F5F7F4FC8010E9485
:104A20008B97F82ECE0101960E947598FF2049F0D1
:104A3000BE01635F7F4F82E090E00E9406C60C9447
:104A4000E82F63EC74E0CE0101960E947A98BE01D3
:104A50006F5F7F4FC8010E948B97F82ECE010196A1
:104A60000E947598FF2049F0BE01635F7F4F83E08D
:104A700090E00E9406C60C94E82F6EEB74E0CE0125
:104A800001960E947A98BE016F5F7F4FC8010E9415
:104A90008B97F82ECE0101960E947598FF2049F061
:104AA000BE01635F7F4F84E090E00E9406C60C94D5
:104AB000E82F69EB74E0CE0101960E947A98BE015E
:104AC0006F5F7F4FC8010E948B97F82ECE01019631
:104AD0000E947598FF2049F0BE01635F7F4F85E01B
:104AE00090E00E9406C60C94E82F60EB74E0CE01C3
:104AF00001960E947A98BE016F5F7F4FC8010E94A5
:104B00008B97F82ECE0101960E947598FF2049F0F0
:104B1000BE01635F7F4F86E090E00E9406C60C9462
:104B2000E82F67EA74E0CE0101960E947A98BE01F0
:104B30006F5F7F4FC8010E948B97F82ECE010196C0
:104B40000E947598FF2049F0BE01635F7F4F87E0A8
:104B500090E00E9406C60C94E82F64EA74E0CE014F
:104B600001960E947A98BE016F5F7F4FC8010E9434
:104B70008B97F82ECE0101960E947598FF2049F080
:104B8000BE01635F7F4F88E090E00E9406C60C94F0
:104B9000E82F61EA74E0CE0101960E947A98BE0186
:104BA0006F5F7F4FC8010E948B97F82ECE01019650
:104BB0000E947598FF2049F0BE01635F7F4F89E036
:104BC00090E00E9406C60C94E82F6EE974E0CE01D6
:104BD00001960E947A98BE016F5F7F4FC8010E94C4
:104BE0008B97F82ECE0101960E947598FF2049F010
:104BF000BE01635F7F4F8AE090E00E9406C60C947E
:104C0000E82F6BE974E0CE0101960E947A98BE010C
:104C10006F5F7F4FC8010E948B97F82ECE010196DF
:104C20000E947598FF2049F0BE01635F7F4F8BE0C3
:104C300090E00E9406C60C94E82F68E974E0CE016B
:104C400001960E947A98BE016F5F7F4FC8010E9453
:104C50008B97F82ECE0101960E947598FF2049F09F
:104C6000BE01635F7F4F8CE090E00E9406C60C940B
:104C7000E82F65E974E0CE0101960E947A98BE01A2
:104C80006F5F7F4FC8010E948B97F82ECE0101966F
:104C90000E947598FF2049F0BE01635F7F4F8DE051
:104CA00090E00E9406C60C94E82F62E974E0CE0101
:104CB00001960E947A98BE016F5F7F4FC8010E94E3
:104CC0008B97F82ECE0101960E947598FF2049F02F
:104CD000BE01635F7F4F8EE090E00E9406C60C9499
:104CE000E82F6FE874E0CE0101960E947A98BE0129
:104CF0006F5F7F4FC8010E948B97F82ECE010196FF
:104D00000E947598FF2049F0BE01635F7F4F8FE0DE
:104D100090E00E9406C60C94E82F68E874E0CE018B
:104D200001960E947A98BE016F5F7F4FC8010E9472
:104D30008B97F82ECE0101960E947598FF20B9F04E
:104D4000CE010D960E94F39681E0611101C080E0D2
:104D500080936A0880916708882311F40C94E82FE7
:104D600080916A0881110C94ED2F0C94E82F66E86D
:104D700074E0CE0101960E947A98BE016F5F7F4F6A
:104D8000C8010E948B97F82ECE0101960E9475985B
:104D9000FF2069F0CE010D960E94F396613011F06C
:104DA0000C94E82F81E0809353090C94E82F64E77A
:104DB00074E0CE0101960E947A98BE016F5F7F4F2A
:104DC000C8010E948B97F82ECE0101960E9475981B
:104DD000FF2079F0CE010D960E94F3966E3120F0FF
:104DE0006D3318F06CE301C06EE1609308020C941F
:104DF000E82F62E674E0CE0101960E947A98BE0127
:104E00006F5F7F4FC8010E948B97F82ECE010196ED
:104E10000E947598FF2079F0CE010D960E94F396BE
:104E20006E3120F06D3318F06CE301C06EE16093D9
:104E300009020C94E82F60E574E0CE0101960E940F
:104E40007A98BE016F5F7F4FC8010E948B97F82E42
:104E5000CE0101960E947598FF2079F0CE010D9643
:104E60000E94F3966E3120F06D3318F06CE301C0B0
:104E70006EE160930A020C94E82F6FE374E0CE01B8
:104E800001960E947A98BE016F5F7F4FC8010E9411
:104E90008B97F82ECE0101960E947598FF2079F02D
:104EA000CE010D960E94F3966E3120F06D3318F00E
:104EB0006CE301C06EE160930B020C94E82F6EE28C
:104EC00074E0CE0101960E947A98BE016F5F7F4F19
:104ED000C8010E948B97F82ECE0101960E9475980A
:104EE000FF2079F0CE010D960E94F3966E3120F0EE
:104EF0006D3318F06CE301C06EE160930C020C940A
:104F0000E82F6CE174E0CE0101960E947A98BE0110
:104F10006F5F7F4FC8010E948B97F82ECE010196DC
:104F20000E947598FF2079F0CE010D960E94F396AD
:104F30006E3120F06D3318F06CE301C06EE16093C8
:104F40000D020C94E82F66E074E0CE0101960E94F9
:104F50007A98BE016F5F7F4FC8010E948B97F82E31
:104F6000CE0101960E947598FF2081F0CE010D962A
:104F70000E94F3962AE0269FA001279F500D11243E
:104F800050931202409311020C94E82F64EF73E0E7
:104F9000CE0101960E947A98BE016F5F7F4FC801D3
:104FA0000E948B97F82ECE0101960E947598FF20E3
:104FB00069F0CE010D960E94F396660F862F880F3A
:104FC000880F680F609310020C94E82F6FED73E068
:104FD000CE0101960E947A98BE016F5F7F4FC80193
:104FE0000E948B97F82ECE0101960E947598FF20A3
:104FF00069F0CE010D960E94F396EAE06E9FB00133
:10500000112470930F0260930E02E2C76FEC73E0FD
:10501000CE0101960E947A98BE016F5F7F4FC80152
:105020000E948B97F82ECE0101960E947598FF2062
:1050300039F0CE010D960E9470598093C408C8C7FC
:105040006EEB73E0CE0101960E947A98BE016F5F0D
:105050007F4FC8010E948B97F82ECE0101960E94C7
:105060007598FF2039F0CE010D960E94F39660935B
:10507000C508AEC76CEA73E0CE0101960E947A982B
:10508000BE016F5F7F4FC8010E948B97F82ECE0143
:1050900001960E947598FF2039F0CE010D960E946E
:1050A000F3966093C60894C76DE973E0CE0101964C
:1050B0000E947A98BE016F5F7F4FC8010E948B9754
:1050C000F82ECE0101960E947598FF2039F0CE018E
:1050D0000D960E94F3966093C7087AC76EE873E056
:1050E000CE0101960E947A98BE016F5F7F4FC80182
:1050F0000E948B97F82ECE0101960E947598FF2092
:1051000039F0CE010D960E94F3966093C80860C7EF
:1051100061E873E0CE0101960E947A98BE016F5F4C
:105120007F4FC8010E948B97F82ECE0101960E94F6
:105130007598FF20D9F16AE773E0CE0101960E94CD
:105140007A98BE016F5F7F4FCE010D960E948B97BC
:10515000182FCE0101960E947598112339F082E034
:1051600090E0909322068093210632C763E773E0B4
:10517000CE0101960E947A98BE016F5F7F4FCE01EB
:105180000D960E948B97182FCE0101960E9475985C
:10519000112339F081E090E090932206809321065C
:1051A00017C7109222061092210612C76DE673E00F
:1051B000CE0101960E947A98BE016F5F7F4FC801B1
:1051C0000E948B97F82ECE0101960E947598FF20C1
:1051D00009F475C162E673E0CE0101960E947A98E7
:1051E000BE016F5F7F4FC8010E948B97F82ECE01E2
:1051F00001960E947598FF2009F4EAC696014AE0DC
:1052000050E0B801CE0101960E94DD98BE016F5FAB
:105210007F4FC8010E94DF97CE0101960E947598CA
:10522000B801CE0107960E94B0986DE971E0CE01F9
:1052300001960E947A98BE016F5F7F4FCE0107965C
:105240000E948B97182FCE0101960E94759811111C
:1052500094C06AE971E0CE0101960E947A98BE017D
:105260006F5F7F4FCE0107960E948B97182FCE015C
:1052700001960E947598111182C067E971E0CE0114
:1052800001960E947A98BE016F5F7F4FCE0107960C
:105290000E948B97182FCE0101960E9475981111CC
:1052A00070C064E971E0CE0101960E947A98BE0157
:1052B0006F5F7F4FCE0107960E948B97182FCE010C
:1052C00001960E94759811115EC061E971E0CE01EE
:1052D00001960E947A98BE016F5F7F4FCE010796BC
:1052E0000E948B97182FCE0101960E94759811117C
:1052F0004CC06EE871E0CE0101960E947A98BE0122
:105300006F5F7F4FCE0107960E948B97182FCE01BB
:1053100001960E94759811113AC06BE871E0CE01B8
:1053200001960E947A98BE016F5F7F4FCE0107966B
:105330000E948B97182FCE0101960E94759811112B
:1053400028C068E871E0CE0101960E947A98BE01FB
:105350006F5F7F4FCE0107960E948B97082FCE017B
:1053600001960E947598011115C069E771E083EC00
:1053700091E10E94F49B19E00DC017E00BC011E011
:1053800009C012E007C013E005C014E003C015E037
:1053900001C016E0CE0107960E947598193039F4C5
:1053A00063E573E083EC91E10E94F49B11C6BE01BA
:1053B000635F7F4FCE010196173009F073C00E94E2
:1053C000B098BE016F5F7F4F80E00E9496D4CE01FF
:1053D00001960E947598BE01635F7F4FCE010196D2
:1053E0000E94B098BE016F5F7F4F81E00E9496D40B
:1053F000CE0101960E947598BE01635F7F4FCE017A
:1054000001960E94B098BE016F5F7F4F82E00E94BC
:1054100096D4CE0101960E947598BE01635F7F4FBE
:10542000CE0101960E94B098BE016F5F7F4F83E06E
:105430000E9496D4CE0101960E947598BE01635FCA
:105440007F4FCE0101960E94B098BE016F5F7F4FE3
:1054500084E00E9496D4CE0101960E947598BE0108
:10546000635F7F4FCE0101960E94B098BE016F5FCF
:105470007F4F85E00E9496D4CE0101960E947598D8
:10548000BE01635F7F4FCE0101960E94B098BE01BE
:105490006F5F7F4F86E00E9496D4CE0101960E94F6
:1054A000759896C50E94B098BE016F5F7F4F812F9F
:1054B0000E9496D4CE0101960E94759889C566E334
:1054C00073E0CE0101960E947A98BE016F5F7F4F14
:1054D000C8010E948B97F82ECE0101960E94759804
:1054E000FF2099F0CE010D960E94F39681E06111A4
:1054F00001C080E08093190281116AC562E273E005
:1055000083EC91E10E94F49B63C569E173E0CE01F5
:1055100001960E947A98BE016F5F7F4FC8010E947A
:105520008B97F82ECE0101960E947598FF20F9F016
:10553000CE010D960E94F3966093E00564E173E05E
:10554000CE0101960E947A98BE016F5F7F4FCE0117
:105550000D960E948B97182FCE0101960E94759888
:10556000112309F435C582E08093E00531C56BE075
:1055700073E0CE0101960E947A98BE016F5F7F4F63
:10558000C8010E948B97F82ECE0101960E94759853
:10559000FF2009F4CFC089899A890A9709F018C5B4
:1055A00011E0E12CF12C01E0B701CE010D960E9433
:1055B0007997DC018C919E2DB4E0EB16F10409F48F
:1055C00012C5973009F413C580538A3008F000E003
:1055D0001A3029F0FFEFEF1AFF0A1F5FE5CF002313
:1055E00009F4F6C40E948CD120936C1130936D1194
:1055F00040936E1150936F116093701170937111FD
:1056000060E070E0CE010D960E947997FC01208148
:10561000022E000C330B20533109129F7001139F8F
:10562000F00C112461E070E0CE010D960E94799794
:10563000DC018C91082E000C990BC0978E0D9F1DDC
:10564000189F7001199FF00C112462E070E0CE01E8
:105650000D960E947997FC012081022E000C330BDD
:10566000205331092E0D3F1D129F7001139FF00C26
:10567000112463E070E0CE010D960E947997DC0161
:105680008C91082E000C990BC0978E0D9F1D803DAC
:10569000B7E09B0708F0805D80936C1165E070E0D7
:1056A000CE010D960E947997FC012081022E000CFC
:1056B000330B205331091AE0129F7001139FF00C35
:1056C000112466E070E0CE010D960E947997DC010E
:1056D0008C91082E000C990BC0978E0D9F1D809306
:1056E0006D1168E070E0CE010D960E947997FC0183
:1056F0002081022E000C330B20533109129F7001C0
:10570000139FF00C112469E070E0CE010D960E9409
:105710007997DC018C91082E000C990BC0978E0DA7
:105720009F1D80936E118CE691E10E94699C0E94FE
:105730003F9D4EC462E073E0CE0101960E947A98CC
:10574000BE016F5F7F4FC8010E948B97F82ECE017C
:1057500001960E947598FF2009F49CC089899A8956
:10576000089709F035C421E000E010E0FF24F3942D
:10577000B801CE010D96298F0E947997FC01808196
:10578000298D0230110509F43CC4053009F434C4F4
:1057900080538A3008F0F12C273021F00F5F1F4F23
:1057A0002F5FE6CFFF2009F413C40E948CD1209311
:1057B0006C1130936D1140936E1150936F11609383
:1057C00070117093711160E070E0CE010D960E942F
:1057D0007997DC019C9110ED190F61E070E0CE012A
:1057E0000D960E947997FC01912F990F292F220F76
:1057F000220F290F8081082E000C990BC097820F71
:10580000911D80936F1163E070E0CE010D960E94B0
:105810007997FC01908110ED190F64E070E0CE01E2
:105820000D960E947997FC01912F990F292F220F35
:10583000220F290F8081082E000C990BC097820F30
:10584000911D8093701166E070E0CE010D960E946C
:105850007997DC019C9110ED190F67E070E0CE01A3
:105860000D960E947997FC01912F990F292F220FF5
:10587000220F290F8081082E000C990BC097820FF0
:10588000911D809371118CE691E10E94699C0E94A8
:105890003F9D9EC36EEF72E0CE0101960E947A9802
:1058A000BE016F5F7F4FC8010E948B97F82ECE011B
:1058B00001960E947598FF2009F443C189899A894D
:1058C000439709F085C301E0E12CF12C11E0B70109
:1058D000CE010D960E947997FC0180819E2DF4E007
:1058E000EF16F10491F0973009F48FC39A3019F450
:1058F000803269F40DC09D3009F48CC3903109F4F5
:105900008DC380538A3018F403C08D3219F010E033
:10591000023129F0BFEFEB1AFB0A0F5FD8CF11233A
:1059200009F456C30E948CD120936C1130936D11F1
:1059300040936E1150936F116093701170937111B9
:1059400060E070E0CE010D960E947997DC012C9109
:10595000022E000C330B205331091AE0129F700104
:10596000139FF00C112461E070E0CE010D960E94AF
:105970007997FC018081082E000C990BC0978E0D41
:105980009F1D189F7001199FF00C112462E070E0B8
:10599000CE010D960E947997DC012C91022E000C0D
:1059A000330B205331092E0D3F1D129F7001139FA1
:1059B000F00C112463E070E0CE010D960E947997FF
:1059C000FC018081082E000C990BC0978E0D9F1D45
:1059D000803DF7E09F0708F0805D80936C1165E0E3
:1059E00070E0CE010D960E947997DC012C91022E79
:1059F000000C330B205331091AE0129F7001139FE2
:105A0000F00C112466E070E0CE010D960E947997AB
:105A1000FC018081082E000C990BC0978E0D9F1DF4
:105A200080936D1168E070E0CE010D960E94799729
:105A3000DC012C91022E000C330B20533109129FF4
:105A40007001139FF00C112469E070E0CE010D96F7
:105A50000E947997FC018081082E000C990BC09759
:105A60008E0D9F1D80936E116BE070E0CE010D9640
:105A70000E947997DC012C91022E000C330B2053ED
:105A80003109129F7001139FF00C11246CE070E03B
:105A9000CE010D960E947997FC018081082E000CA2
:105AA000990BC0978E0D9F1D80936F116EE070E073
:105AB000CE010D960E947997DC012C91022E000CEC
:105AC000330B20533109129F7001139FF00C1124E6
:105AD0006FE070E0CE010D960E947997FC01808105
