:100000000C943D160C94B59C0C948A9C0C945F9CAB
:100010000C94349C0C94099C0C94DE9B0C94B39B24
:100020000C94889B0C943C5C0C940C5C0C94DC5BF6
:100030000C946E160C946E160C946E160C946E1630
:100040000C946E160C94207C0C946E160C946E1608
:100050000C946E160C946E160C946E160C9483B65B
:100060000C946E160C94F8970C94CF970C946E1613
:100070000C946E160C94825A0C946E160C946E1698
:100080000C946E160C946E160C946E160C94977954
:100090000C94A6970C947D970C946E160C944F7A42
:1000A0000C946E160C946E160C946E160C946E16C0
:1000B0000C946E160C946E160C946E160C946E16B0
:1000C0000C946E160C946E160C946E160C94549739
:1000D0000C942B970C946E160C946E160C946E1652
:1000E0000C946E169491979186918A919091CE91ED
:1000F0009B919F91A591A991AD91B391B791BB911E
:10010000CE91C191C591C991E8A2EDA2F2A2FCA243
:1001100006A37FA310A318A320A32AA334A33EA35E
:100120004DA357A37FA361A36BA375A3534B525950
:1001300050544F5759005245435A4E590041555457
:100140004F0052520052524D0052524D32005A410D
:100150005359504F5759004252554C490045434F4F
:10016000414C004C41544F005A494D4100425255B8
:100170004C490045434F414C004E69657A6E616EB3
:100180007920647A69656E004E4400534F005054E4
:1001900000435A00535200575400504F002A005851
:1001A00058444D5F504C55535F4D4F430058584491
:1001B0004D5F504C55535F4D4F4300585854455375
:1001C000545F4E5231207A6E616C657A696F6E6F42
:1001D000005858544553545F4E52310058585445B6
:1001E00053545F4E5231207A6E616C657A696F6E3E
:1001F0006F005858544553545F4E5231005757576B
:100200003A206861736C6F207A6120646C7567694D
:1002100065005757575F4841534C4F005757575F3A
:10022000415554480057594C5F414C474F00415588
:10023000544F4C41544F5F54525942004155544F12
:100240004C41544F5F54574557004155544F4C4112
:10025000544F5F484953544552455A410041555403
:100260004F4C41544F5F54454D5000545259422019
:100270004155544F21004F55545F57454E54594CEA
:1002800041544F520054525942204155544F21007D
:100290004F55545F504F4D50414359524B005452AB
:1002A0005942204155544F21004F55545F504F4DF6
:1002B00050414357550054525942204155544F2103
:1002C000004F55545F504F4D5041435755320054E5
:1002D000525942204155544F21004F55545F504FC1
:1002E0004D5041434F0054525942204155544F21E3
:1002F000004F55545F504F44414A4E494B005254B1
:1003000043005254435F435A4153005254435F44A5
:10031000415441004155544F005254435F5A494D96
:10032000410050524143412042455A2044455445E2
:100330004B544F524100444554454B544F525F5427
:10034000455354554A455F42455A504945435A4ED4
:10035000494B004E69657A6E616E7920647A6965F1
:100360006E0050524F475F4359524B5F0050524FFF
:10037000475F005A4144414E41004B525A59574140
:10038000005A41574F5234442D54525942005A4159
:10039000574F5234442D505245534554005A4157FB
:1003A0004F5234442D5A4144414E41005A41574F17
:1003B0005234442D484953544552455A41005A41FC
:1003C000574F5234442D4F424E495A4F4E41005AD6
:1003D00041574F5234442D435A554A4E494B005AC7
:1003E00041574F5234442D435A41535F504F4D496A
:1003F000415255005A41574F5234442D435A4153AC
:100400005F4B524F4B005A41574F5234442D435A81
:1004100041535F4F54574152434941004B525A593F
:1004200057415F47525A414E49412B3135004B529B
:100430005A5957415F47525A414E49412B35004B5B
:10044000525A5957415F47525A414E49412D300047
:100450004B525A5957415F47525A414E49412D31EB
:1004600030004B525A5957415F47525A414E494109
:100470002D3230004B525A5957415F47525A414E24
:1004800049412D3330005600414E414C4F470054F6
:100490003800543700543600543500543400543377
:1004A00000543200543100545350414C494E5900CD
:1004B00054504F444C4F47410054435755005457F4
:1004C000455700545A45570054504F44414A4E49ED
:1004D0004B0054504F57524F54005450494543001D
:1004E000545F4D4150554A5F5A5F4252554C490046
:1004F000545F4D4150554A5F5A5F45434F414C0050
:100500005A415359504F57595F4D4F43005252571C
:100510005F484953544552455A41005252575F5023
:100520004F53544F4A005252575F504F44414E4927
:10053000450052524D5F4F504F5A4E49454E494526
:100540005F504F44414E49410052524D5F4E41571A
:1005500045474C414E49450052524D5F4E4157452B
:10056000474C414E49455F43594B4C005252575FEF
:100570004E41444D5543480052524D5F5749454CFA
:10058000455F4D4F43590052524D5F444F50414CCF
:10059000414E49455F435A41530052524D5F444FCB
:1005A00050414C414E49455F4D4F430052524D5FC3
:1005B0004D41585F50525A4542494349455F544C5A
:1005C0004F0052524D5F544C4F5F435A41530052BB
:1005D000524D5F544C4F5F435A41535F504F44411B
:1005E0004E49450052524D5F544C4F5F4D4F4300B2
:1005F00052524D5F544C4F5F574C41435A4F4E45FA
:100600000052525F50524143415F4D4F430052529E
:100610005F50524143415F504F53544F4A00525232
:100620005F50524143415F504F44414E4945005253
:10063000525F504F4454525A594D414E49455F4DB7
:100640004F430052525F504F4454525A594D414EFD
:1006500049455F504F53544F4A0052525F504F44E8
:1006600054525A594D414E49455F504F44414E49AD
:10067000450052525F504F4454525A594D414E49D1
:10068000455F435A41535F4C41544F0052525F50B3
:100690004F4454525A594D414E49455F435A415374
:1006A000004359524B554C41434A415F544D494ECA
:1006B000004359524B554C41434A415F435A4153C1
:1006C0005F57594C41435A004359524B554C414393
:1006D0004A415F435A41535F574C41435A00435983
:1006E000524B554C41434A415F414C474F5259543C
:1006F0004D00434F5F435A41535F57594C41435A52
:1007000000434F5F435A41535F574C41435A0043A4
:100710004F5F414C474F5259544D00434F5F545225
:10072000594200435755325F435A554A4E494B0090
:10073000435755325F414C474F5259544D00435730
:1007400055325F5452594200435755325F4849531E
:10075000544552455A4100435755325F5A4144412E
:100760004E41004357555F545F4D41580043575524
:100770005F484953544552455A41004357555F50CD
:1007800052494F5259544554004357555F414C47C5
:100790004F5259544D004357555F545259420043EC
:1007A00057555F5A4144414E4100545745575F43A6
:1007B0004F5F4F424E495A4F4E4100545745575F85
:1007C0005A4144414E4100504945435F414C474FD7
:1007D0005259544D00504945435F4849535445527E
:1007E000455A4100504945435F5A4144414E4100FA
:1007F000504945435F5452594200504945435F5464
:100800005F4D415800504945435F414C41524D5F57
:10081000545F4D494E00504945435F545F4D494E2A
:1008200000544C4F4B5F435A41535F43594B4C5517
:1008300000504F44414A4E494B5F544C4F4B4F5729
:100840005900504F44414A4E494B5F414C41524D33
:100850005F4D494E00504F44414A4E494B5F505204
:1008600045444B4F53435F504F444157414E4941DC
:1008700000504F44414A4E494B5F435A41535F50E9
:100880004F44414A4E494B4100504F44414A4E4922
:100890004B5F435A41535F444F5F4F50524F5A4E44
:1008A00049454E494100504F44414A4E494B5F54DF
:1008B0005F4D415800504F44414A4E494B5F435AA7
:1008C00041535F5759525A55545500504F44414A6D
:1008D0004E494B5F545F5759534F4B415F504F57F1
:1008E000544F524B4900504F44414A4E494B5F547C
:1008F0005F5759534F4B4100504F44414A4E494B6B
:100900005F435A41535F504F444E4F535A454E49EF
:10091000410054524941433A207A6D69616E612029
:100920006E612074727962202564005452494143FB
:100930003A207A6D69616E61206E6120747279620D
:1009400020256400444D5F54595000444D5F504C85
:1009500055535F4D4F4300444D5F504C55535F43DB
:100960005A415300444D5F524F5A525543485F4DD0
:100970004F4300444D5F524F5A525543485F435ACC
:10098000415300444D5F544C4F5F4D4F4300444D25
:100990005F544C4F5F435A415300444D5F444F50A6
:1009A000414C414E49455F4D4F4300444D5F444FDC
:1009B00050414C414E49455F435A415300444D5FBD
:1009C0004D4F44554C41434A4100444D5F494E57B9
:1009D0004552534A415F50574D00444D5F4F464684
:1009E00053455400444D5543484157415F41435F8F
:1009F000475255504F574F004E45545F444E530099
:100A00004E45545F4252414D41004E45545F4D4169
:100A1000534B41006175746F004E45545F4950005F
:100A20004E45545F4D4143004F46465345545F0089
:100A30002D3E002000533A2000535F00504B543AA3
:100A40002043524300504B543A2045545800504BD9
:100A5000543A205354580044533A206E723A256455
:100A600020703A2564204552524F520044533A2098
:100A70006E723A256420703A256420743A25642009
:100A80006372633A2564204F4B00544C4F4B204E09
:100A900049452057524F43494C00544C4F4B204E30
:100AA00041535445504E592043594B4C3A20005421
:100AB0004C4F4B204B4F4E49454300544C4F4B201D
:100AC0004E4945205255535A594C00544C4F4B20D7
:100AD0005255434800544C4F4B20535441525400FC
:100AE000544C4F4B2053594E43204F4B00732E0014
:100AF000253032643A253032643A20414C41524D1F
:100B00002054504F44414A4E494B3D545759534F3E
:100B10004B412025643E00253032643A2530326452
:100B20003A20414C41524D2054504F44414A4E4985
:100B30004B3D544D41582025643E002A2A444D50D7
:100B400031002A2A444D5432002A2A444D5431009F
:100B50002A2A444D545F4F4E002A2A444D445F4F89
:100B60004E002A2A444D505F4F4646002A2A444DE3
:100B7000505F4F4E002A2A444D525F4F4646320086
:100B80002A2A444D525F4F4646002A2A444D525F5E
:100B90004F4E00205434443A00207A6164616E6103
:100BA0003A0034443A20435A454B414D59202D20B8
:100BB00064656C74613A00205434443A00207A61D0
:100BC00064616E613A00206B726F6B3A0034443A94
:100BD000204B524543494D59202D2064656C74616A
:100BE0003A0034443A205445524D4F535441542016
:100BF0004F46460034443A205445524D4F535441D9
:100C000054204F4E00503A2025642C253034642C5B
:100C1000253034642C253034642C25303464004174
:100C2000363A20256420256420256400414C4C3A46
:100C30002025646D7300545A3A0054524941433A96
:100C400020302D256420312D256420532D2564204E
:100C50006F6B2D25640054524941433A20302D25B5
:100C60006420312D256420532D2564206F6B2D25A4
:100C700064002025642525204445542D25642F3209
:100C800030300054524941433A20542D2564205AB3
:100C90002D256420542D5A2D256420462D256400D1
:100CA0002025642525204445542D25642F323030DD
:100CB0000054524941433A20542D2564205A2D2591
:100CC0006420542D5A2D256420462D2564004D4165
:100CD0005820646174613A202523782C20743A25C9
:100CE000642C20743A25640020534356002053435B
:100CF0004700204F4300544B206572726F723A00D8
:100D000054524941433A2070726F626C656D79208C
:100D10007A20646574656B746F72656D2030203A5B
:100D20002025642F323030005254433A20643A2553
:100D3000642025643A25640054524941433A207A9C
:100D4000616B6C6F63656E6961207A2064657465A0
:100D50006B746F72612C20543D0054524941433AE8
:100D6000207A616B6C6F63656E6961207A206465BF
:100D700074656B746F72612C20543D002072657431
:100D800072793D0045434F414C3A2070726F626C5E
:100D9000656D79207A206B6F6D756E696B61636A22
:100DA00061203A206572723D004553503A0054521A
:100DB0004941433A737461727920747279620054C4
:100DC000524941433A6E6F777920747279620052CA
:100DD00054433A20643A25642025643A25643A2530
:100DE0006400576F6C6E792052414D3A00576F6C1A
:100DF0006E792052414D3A0020615F703A00615F88
:100E0000743A00414C4D3A205049454320575947C8
:100E100041535A4F4E5900414C4D3A205049454399
:100E200020542E4D494E00414C4D3A2050525A45C7
:100E300050414C4F4E592042455A504945435A4E15
:100E4000494B00414C4D3A2050524F424C454D20A9
:100E50005A20544C4F4B49454D00414C4D3A20507F
:100E60004F44414A4E494B205354414E204D494E28
:100E700000414C4D3A20504F44414A4E494B20547A
:100E80002E4D415800414C4D3A2050494543205485
:100E90002E4D415800414C4D3A204252414B005793
:100EA0006F6C6E792052414D3A00743A5B00736565
:100EB00074205B004553503A20637A61733A2000F6
:100EC0004553503A20706F62696572616D20637A94
:100ED000617300666C6173683A0054524941433A49
:100EE000737461727920747279620054524941437B
:100EF0003A6E6F77792074727962005254433A20C7
:100F0000643A25642025643A25643A256400576FC5
:100F10006C6E792052414D3A00576F6C6E792052B9
:100F2000414D3A0020615F703A00615F743A0041C0
:100F30004C4D3A20504945432057594741535A4F49
:100F40004E5900414C4D3A205049454320542E4DB6
:100F5000494E00414C4D3A2050525A4550414C4F59
:100F60004E592042455A504945435A4E494B00413B
:100F70004C4D3A2050524F424C454D205A20544C33
:100F80004F4B49454D00414C4D3A20504F44414A4A
:100F90004E494B205354414E204D494E00414C4D3B
:100FA0003A20504F44414A4E494B20542E4D41580F
:100FB00000414C4D3A205049454320542E4D415854
:100FC00000414C4D3A204252414B00576F6C6E79B4
:100FD0002052414D3A00743A5B00736574205B0007
:100FE0005245534554005245534554005745423AE3
:100FF000004C43443A0064697361626C6564006547
:101000006E61626C6564002020416363656C65728B
:101010006174696F6E2069732000436C69636B456E
:101020006E636F6465723A3A446F75626C65436CC7
:1010300069636B656400427574746F6E3A200020BA
:10104000613A2000206D656E753A20002045323AE5
:1010500020005A34443A00504D503A00444D553A1D
:1010600000504F443A00414C473A00414C4D3A0041
:101070004D41503A00414E413A004D41583A0044EA
:10108000414C4C3A00434F4E3A0054494D3A0044CB
:10109000414C4C41533A204B6F6E69656320706F31
:1010A000737A756B6977616E696120637A756A6EB0
:1010B000696B6F772E0044414C4C41533A204E49A6
:1010C0004520444F44414E4F212100202054656D5E
:1010D0007065726174757261203D20002043524337
:1010E0003D00202044617461203D2000204E696550
:1010F0007A6E616E792044533138787800204453F9
:1011000031383232002044533138423230002044EA
:1011100053313853323000626C61642043524300D3
:1011200044414C4C41533A204944203D0020437AED
:101130006173206B6F6D656E6461206B6F6E776598
:1011400072736A6920646C6120637A756A6E696B78
:1011500061203D200044414C4C41533A20506F6384
:101160007A6174656B20706F737A756B6977616EE5
:10117000696120637A756A6E696B6F772E005254CD
:10118000433A206F64637A7974207A61736F626E78
:10119000696B613A005354415254005354415254C4
:1011A0000049503A206272616B2045746865725341
:1011B0006869656C642E2E2E005757573A73747207
:1011C0006F6E6120676F746F7761005757573A757C
:1011D00072756368616D69616D207374726F6E659D
:1011E0002E2E2E0049503A20646E733A0049503A30
:1011F000206272616D613A0049503A206D61736BF3
:10120000613A0049503A2061647265733A0049506E
:101210003A206D61633A0049503A20706F62696507
:1012200072616E696520616472657375207A20440D
:101230004843502E2E2E006272616B0049503A20B6
:10124000636869702E2E2E00576F6C6E79205241A4
:101250004D3A0049503A206B6F6E6669677572614E
:10126000636A612073696563692E2E2E00576F6C67
:101270006E792052414D3A00576F6C6E7920524181
:101280004D3A00576F6C6E792052414D3A005344ED
:101290003A20626C6164206F64637A7974752064AB
:1012A000616E7963680053443A20626C6164206B1C
:1012B000617274790053443A206272616B206B61F1
:1012C00072747900454550524F4D3A206E69652041
:1012D0007A6E616C657A696F6E6F00454550524F4A
:1012E0004D3A207A6E616C657A696F6E6F00525468
:1012F000433A206272616B204453313330370052DD
:1013000054433A2053544F50202D3E2053544152C1
:1013100054005254433A207A6E616C657A696F6E5C
:101320006F2044533133303700302E312E302E3180
:1013300033302E35004C75636A616E20762E001FA7
:101340001F1F0000000000181C1E1F1F1F1F1F1F53
:101350001F1F1F1F0F070300000000001F1F1F1F7C
:101360001F1F1F1F1E1C181F1F1F0000001F1F1FF5
:10137000000000001F1F1F03070F1F1F1F1F1F4913
:1013800032433A20536B616E6F77616E6965202E30
:101390002E2E00302E312E302E3133302E35004C93
:1013A00075636A616E20762E00302E312E302E311C
:1013B00033302E35004C75636A616E20762E002026
:1013C00020000000000000FF0700000000000005F2
:1013D0000520200000000004FF04FF0401FF0108B5
:1013E000FF0607FF05000001200401040120040896
:1013F0000602200307020405200000000000000888
:1014000001030400000000010204050000000001C7
:101410000404010401010404FF0401FF0100002091
:10142000050000000000000404042020200000202B
:101430000400000000000020200401040120200816
:101440000102030405000001022004FF040000065D
:101450000602FF070700000106020407050000035B
:1014600004FF2020FF0000FF060607070500000814
:1014700006060307050000010102200820000008FD
:10148000060203070500000806020707050000A57D
:10149000A50000000000000405000000000000207E
:1014A0000401010104000004040401010100000121
:1014B00004200401010000010602200720000008AA
:1014C00006020304040000080602FF20FF0000FFDC
:1014D0000605FF070200000801010304040000FFE5
:1014E0000102FF04050000FF0606FF07070000FFDA
:1014F0000606FF202000000801010304020000FF8F
:1015000004FFFF20FF000001FF0104FF0400002092
:1015100020FF0404050000FF0405FF20020000FF77
:101520002020FF0404000008030502FF2020FFFF25
:101530000220FFFF2003FF0801020304050000084A
:101540000602FF20200000080102200304FF04FF20
:101550000602FF200200000806060707050000013A
:10156000FF0120FF200000FF20FF0304050000030F
:1015700020200520020820FF2020FF030802050389
:101580000405082002000003040520FF20000001DC
:1015900006050807040000FF01FF04000000000129
:1015A0000420202020010401FF04FF0000000008A7
:1015B0000220200000000020202004040400006E0F
:1015C0006F77613A202020202020202533642020BE
:1015D0000050524143412020202020202020202064
:1015E00020005A415359502E4D4F433A2025336421
:1015F000252520202020006E6F77613A20202020B2
:10160000202020253364202000504F4454525A5942
:101610004D414E4945202020200052522E435A4130
:10162000533A2020202533646D20202020006E6F47
:1016300077613A20202020202020253364202000BC
:10164000504F4454525A594D414E49452020202074
:101650000052522E4D4F433A20202020253364253E
:101660002520202020006E6F77613A202020202046
:101670002020253364202000504F4454525A594DA5
:10168000414E4945202020200052522E504F5354A5
:101690004F4A3A202533647320202020006E6F7754
:1016A000613A202020202020202533642020005073
:1016B0004F4454525A594D414E4945202020200054
:1016C00052522E504F4441572E3A202533647320F6
:1016D00020202020006E6F77613A202020202020DB
:1016E00020253364202000505241434120202020F7
:1016F000202020202020200052522E4D4F433A20FF
:101700002020202533642525202020006E6F77615E
:101710003A20202020202020253364202000505211
:101720004143412020202020202020202020005242
:10173000522E504F53544F4A2E3A25336473202073
:101740002020006E6F77613A202020202020202565
:10175000336420200050524143412020202020208B
:1017600020202020200052522E504F4441572E3A24
:10177000202533647320202020006E6F77613A208B
:10178000202020202020253364202000202020201D
:101790002020202020202020202020200020202069
:1017A00020202052524D32202020202020002020B6
:1017B0002020202052524D202020202020200020B8
:1017C00020202020205252202020202020202000D5
:1017D000202020205A415359504F57592020202073
:1017E0000020202045434F414C2F4252554C492068
:1017F000200020202057594C41435A4F4E59202059
:101800002020005049454320414C474F5259544DE8
:101810003A202000202020202020202020202020CE
:101820002020202000205E5E202057535445435A3C
:1018300020205E5E2000202020205350414C414E4D
:101840004941202020200020202055535441574951
:10185000454E49412020200020202020202020200B
:1018600020202020202020200020202055535441DB
:101870005749454E4941202020002020202020208B
:101880002020202020202533642525005A41534F55
:10189000424E494B3A20202020202020005A41531C
:1018A0004F424E494B3A2050454C4E4520555A55D3
:1018B00050454C4E49454E4945006E6F77613A2080
:1018C00020202020202025336420200020202020DC
:1018D000202020202020202020202020005A4144A9
:1018E000414E4120434F3A202533642020202020C0
:1018F0000054525942205245435A4E593A20202012
:10190000200054523A205245435A4E593A202564F9
:10191000002020202020202020202020202533648B
:10192000252500444D5543484157413A2020202069
:101930002020200054523A20444D554348415741FD
:10194000204D4F433A20256400504F44414A4E49B0
:101950004B3A202020202020200054523A20504F83
:1019600044414A4E494B3A202564005A41572E348F
:1019700044205A414D594B414A3A200054523A2092
:101980005A3444205A414D3A202564005A41572E7A
:101990003444204F5457494552414A3A0054523A30
:1019A000205A3444204F54573A20256400504F4D5C
:1019B0005041204359524B554C3A2020200054525C
:1019C0003A2050204359524B3A20256400504F4D45
:1019D000504120435755323A2020202020005452B5
:1019E0003A205020435755323A20256400504F4D3D
:1019F000504120435755313A202020202000545296
:101A00003A205020435755313A20256400504F4D1D
:101A1000504120434F3A20202020202020005452C3
:101A20003A205020434F3A2025640054383A25305C
:101A300032642E25642020202020202020200054E5
:101A4000373A253032642E256420202020202020A3
:101A500020200054363A253032642E256420202080
:101A60002020202020200054353A253032642E25B5
:101A7000642020202020202020200054343A2530CB
:101A800032642E2564202020202020202020005495
:101A9000333A253032642E25642020202020202057
:101AA00020200054323A253032642E256420202034
:101AB0002020202020200054313A253032642E2569
:101AC00064202020202020202020005350414C4919
:101AD0004E593A253033642E256420202000504F83
:101AE000444C4F47413A253032642E256420202053
:101AF0002000202020202020202020202020202006
:101B0000202000504F44414A4E494B3A2530326420
:101B10002E2564202020005745574E3A202530328C
:101B2000642E256420202020202000253032642EC1
:101B30002564202020202020005A45574E3A00508E
:101B40004F57524F543A253032642E2564202020BE
:101B5000202000504F57523A253032642E25642001
:101B60005A3A253032642E256400434F3A253032EC
:101B7000642E256420202020202020202000434F98
:101B80003A253032642E2564205A34443A253032C6
:101B9000642E2564002020202020202020202020CA
:101BA000202020202000204E49455A4E414E5920E9
:101BB000414C41524D200020504945432057594740
:101BC00041535A4F4E5920002020202020414C41A3
:101BD000524D202020202020002020504945432025
:101BE00020542E4D494E202020002020202020412E
:101BF0004C41524D2020202020200050525A455068
:101C0000414C4F4E592042455A502E002020202052
:101C100020414C41524D2020202020200020504FB8
:101C20005A59434A4120544C4F4B41202000202018
:101C3000202020414C41524D202020202020004EC9
:101C400049534B49205354414E205A41534F42006F
:101C50002020202020414C41524D202020202020B7
:101C60000054454D502E4D414B532E504F44414A48
:101C70002E002020202020414C41524D20202020A9
:101C800020200054454D502E204D414B532E50499D
:101C9000454341002020202020414C41524D20202E
:101CA00020202020002020202020414C41524D4F58
:101CB0005720202020002020202020204252414B6D
:101CC00020202020202000414C4D3A20534B4153EE
:101CD0004F57414E4F205049454320544D494E00E7
:101CE000414C4D3A20534B41534F57414E4F20509A
:101CF0004945432057594741535A4F4E5900414C8B
:101D00004D3A20534B41534F57414E4F2050525A5A
:101D10004550414C4F4E592042455A504945435A2F
:101D20004E494B00414C4D3A20534B41534F574184
:101D30004E4F2050524F424C454D205A20544C4F4C
:101D40004B49454D00414C4D3A20534B41534F5761
:101D5000414E4F20504F44414A4E494B205354412D
:101D60004E204D494E00414C4D3A20534B41534F6C
:101D700057414E4F20504F44414A4E494B20544DFD
:101D8000415800414C4D3A20534B41534F57414E1F
:101D90004F205049454320544D415800414C4D3A45
:101DA000204E494320444F20534B41534F57414EFF
:101DB000494100202020202020434F3A00414C413F
:101DC000524D20434F3A00253032643A2530326478
:101DD00020434F3A004357553A253032642E25644C
:101DE000200020706F323A200020706F3A2000707F
:101DF000727A65643A00204F4B0D0A0048545450E3
:101E00002F312E31200020743A0020653A00206DD9
:101E10003A00206F3A0020703A002049443A0044CA
:101E2000414C4C4153200058585845434F414C00B9
:101E30004252414B004252414B00534F46540053D3
:101E40004F4654004D415836363735004D415836CF
:101E5000363735004D41583331383535004D41580E
:101E600033313835350044414C4C4153204E5220DB
:101E70003D200044414C4C4153005350414C494E8D
:101E80005900504F444C4F47410043575500574568
:101E900057005A455700504F44414A4E494B005055
:101EA0004F57524F5400434F004252554C49004542
:101EB000434F414C005438005437005436005435D9
:101EC0000054340054330054320054310054535001
:101ED000414C494E590054504F444C4F47410054D7
:101EE000435755005457455700545A4557005450CE
:101EF0004F44414A4E494B0054504F57524F5400A3
:101F00005450494543001F1C1F1E1F1E1F1F1E1F2C
:101F10001E1F005EBCE2613FDD83C29C7E20A3FDEC
:101F20001F419DC3217FFCA2401E5F01E3BD3E60B7
:101F300082DC237D9FC1421CFEA0E1BF5D0380DEE9
:101F40003C62BEE0025CDF81633D7C22C09E1D439B
:101F5000A1FF4618FAA427799BC584DA3866E5BB49
:101F60005907DB856739BAE406581947A5FB782677
:101F7000C49A653BD987045AB8E6A7F91B45C698A9
:101F80007A24F8A6441A99C7257B3A6486D85B055B
:101F9000E7B98CD2306EEDB3510F4E10F2AC2F7109
:101FA00093CD114FADF3702ECC92D38D6F31B2EC37
:101FB0000E50AFF1134DCE90722C6D33D18F0C5269
:101FC000B0EE326C8ED0530DEFB1F0AE4C1291CF1B
:101FD0002D73CA947628ABF517490856B4EA6937C9
:101FE000D58B5709EBB536688AD495CB2977F4AAF7
:101FF0004816E9B7550B88D6346A2B7597C94A1429
:10200000F6A8742AC896154BA9F7B6E80A54D789DA
:102010006B357C3C3E5E2B3D3F2F5B5D3B2C2A228B
:102020005C0044454C455445004F5054494F4E5375
:102030000050555400504F53540047455400434DF1
:10204000443F3F004E4545445F53594E43210020D5
:1020500000524553505F43423A2000524553505F6F
:10206000563A2000454C433A20496E76616C6964CB
:1020700020435243002000200020003A200020404E
:1020800000454C433A20676F7420004D4945535A30
:10209000414E49450042415254454B00574C414343
:1020A0005A004252554C490045434F414C00575944
:1020B0004C41435A4F4E590043594B4C49435A4E99
:1020C0005900434941474C590057594741535A41D8
:1020D0004E49453A205433204F4B005759474153FE
:1020E0005A414E49453A205450494543204F4B00F0
:1020F00057594741535A414E49453A20545350414C
:102100004C494E204F4B0057594741535A414E4975
:10211000453A20645350414C494E2025642C20649C
:10212000504945432025642C206454332025640005
:102130002A2A4833002A2A474D32002A2A473200E9
:102140002A2A474D2D002A2A4731002A2A503200D8
:102150002A2A5031002A2A4432002A2A4431002AED
:102160002A5432002A2A54310070727A656A7363E5
:102170006965206E6120706F6474727A796D616E2A
:1021800069652025643E3D25640070727A656A7336
:10219000636965206E61206E61646D75636820748B
:1021A0006C6F002A2A4833002A2A4732002A2A471D
:1021B00031002A2A5032002A2A503100743A5B003A
:1021C0006163636573732D636F6E74726F6C2D61E1
:1021D0006C6C6F772D6F726967696E3A202A0A00FE
:1021E0002E002D00227D00302E312E302E31333046
:1021F0002E35002C22766572223A22002274696DF7
:1022000065223A002C0022616C223A20002C00301A
:1022100000310022746572223A20002C0030003117
:1022200000226379726B223A20002C0030003100CA
:102230002263777532223A20002C003000310022D0
:1022400063777531223A20002C0030003100226380
:102250006F223A20002C003000310022706F64227F
:102260003A20002C0022706F64676D696E223A205C
:10227000002C0022706F64637A646F223A20002C75
:102280000022706F64637A7A6173223A20002C0016
:1022900022706F64637A223A20002C002277656EE8
:1022A00031223A20002C002277656E30223A20003D
:1022B0007D5D2C007B2274223A20007D2C007B2245
:1022C000746865726D6F73223A5B00616363657356
:1022D000732D636F6E74726F6C2D616C6C6F772DE4
:1022E0006F726967696E3A202A0A004F4B0061637A
:1022F000636573732D636F6E74726F6C2D616C6C9C
:102300006F772D6F726967696E3A202A0A004F4B0A
:10231000006163636573732D636F6E74726F6C2DF0
:10232000616C6C6F772D6F726967696E3A202A0A4B
:10233000004B4F004F4B002F6D6F64756C61636AEB
:1023400061006163636573732D636F6E74726F6C8C
:102350002D616C6C6F772D6F726967696E3A202AF8
:102360000A004B4F004F4B002F68346400616363D9
:102370006573732D636F6E74726F6C2D616C6C6F0F
:10238000772D6F726967696E3A202A0A00227D00F4
:10239000302E312E302E3133302E35002C22766502
:1023A00072223A22007B2274696D65223A006163D1
:1023B000636573732D636F6E74726F6C2D616C6CDB
:1023C0006F772D6F726967696E3A202A0A00204480
:1023D0003A00554E4B4E4F574E200055445020204A
:1023E000202020202020200054494D455F5741499E
:1023F000542020200053594E53454E542020202075
:10240000200053594E524543562020202020005092
:1024100050504F4520202020202020004D41435285
:102420004157202020202020004C495354454E2065
:102430002020202020004C4153545F41434B20205A
:1024400020200049505241572020202020202000E9
:1024500046494E5F5741495420202020004553549F
:1024600041424C49534845442000434C4F53494E48
:1024700047202020202000434C4F53454420574103
:1024800049542000494E495420202020202020205B
:1024900000434C4F534544202020202020003A3058
:1024A00078005323004553503A2057494649206548
:1024B00072726F723A20004553503A20574946498C
:1024C000206F6B004241443A200053594E43210093
:1024D0006A657374006272616B004553503A2073F1
:1024E0007A756B616D206573702D6C696E6B202E33
:1024F0002E2E20000505050507050808080802021C
:1025000002020A0A0808040404040101010101018D
:1025100001010303030303030303040707070C0C70
:102520000C0C0C0C0C0C0202020206060606060637
:1025300006060B0B0B0B0B0B0B0B010210202008DC
:10254000081020401020408002010201080402010E
:10255000010204081020408080402010080402017D
:1025600080040201804020100804020108040201D6
:10257000010204081020408001020408102040805D
:10258000000020002300260029002C002F0032002C
:102590000001000003010601090142617369632023
:1025A0000059575274615734366248566A616D4615
:1025B00075003032303130303036303030303030FD
:1025C0003030363130330000316253C4F5A697B94C
:1025D00088DBEA7D4C1F2E4372211087B6E5D4FAC2
:1025E000CB98A93E0F5C6D86B7E4D5427320113FAE
:1025F0000E5D6CFBCA99A8C5F4A796013063527CA6
:102600004D1E2FB889DAEB3D0C5F6EF9C89BAA848A
:10261000B5E6D7407122137E4F1C2DBA8BD8E9C77F
:10262000F6A59403326150BB8AD9E87F4E1D2C0277
:10263000336051C6F7A495F8C99AAB3C0D5E6F4163
:1026400070231285B4E7D67A4B1829BE8FDCEDC310
:10265000F2A1900736655439085B6AFDCC9FAE80C5
:10266000B1E2D344752617FCCD9EAF38095A6B45AD
:1026700074271681B0E3D2BF8EDDEC7B4A192806A1
:10268000376455C2F3A0914776251483B2E1D0FE9A
:10269000CF9CAD3A0B586904356657C0F1A293BD83
:1026A0008CDFEE79481B2AC1F0A392053467567877
:1026B000491A2BBC8DDEEF82B3E0D1467724153B5F
:1026C0000A5968FFCE9DAC436F6E74656E742D54CD
:1026D0007970653A200048544D2A746578742F68E3
:1026E000746D6C7C5458542A746578742F706C61C6
:1026F000696E7C4353532A746578742F6373737CBB
:10270000584D4C2A746578742F786D6C7C4A532A26
:10271000746578742F6A6176617363726970747C12
:102720004749462A696D6167652F6769667C4A502B
:10273000472A696D6167652F6A7065677C504E47EF
:102740002A696D6167652F706E677C49434F2A69FE
:102750006D6167652F766E642E6D6963726F736F3E
:1027600066742E69636F6E7C4D50332A617564699F
:102770006F2F6D7065677C0000002100240027002A
:102780002A002D0030003300010100000401070180
:102790000A0100002200250028002B002E00310035
:1027A000340002010000050108010B0100000A0BC2
:1027B00002090C0D0E0807030401000000000000D0
:1027C0000000000000000000000000000000000009
:1027D00000000000000000001211100000000000C6
:1027E00000000000000000000000000000000000E9
:1027F00000005254433A207A61706973207A617301
:102800006F626E696B613A00202D3E2000444D3AA4
:10281000200057594741535A414E49453A20535495
:10282000415254002A2A432D4F46462A002A2A4361
:102830002D4F4646002A2A432D4F4E002A2A432D6B
:102840004F4E2A002062616A746F772900206D73F1
:1028500020286F64656272616E6F20002062616A79
:10286000746F77207720005757573A205A61706964
:1028700073616E6F20005757573A205A6170697321
:10288000756A6520706C696B3A00444953434F4E3A
:102890004E454354454400435755323A004357553B
:1028A000313A00434F3A004D4F433A25642068695E
:1028B00073743A2520336420706F643A25203364A2
:1028C00020706F733A2520346420646D3A252033DC
:1028D00064206C69637A3A256400424C4144004F9D
:1028E0004B004B4F004F4B0066756C6C004F4B001C
:1028F0005757573A20736574200020743A002065BA
:102900003A00206D3A00206F3A0020703A002049CA
:10291000443A0044414C4C41532000444953434FF6
:102920004E4E45435445440077656E74796C61742E
:102930006F723A00435755323A00435755313A00C7
:10294000224F46462200224F4E2200224F46462268
:1029500000224F4E22002263777532223A20007BFC
:102960002263777531223A20006163636573732DAA
:10297000636F6E74726F6C2D616C6C6F772D6F72FC
:102980006967696E3A202A0A002020203C574C4192
:10299000435A4F4E593E202020002020203C5759BA
:1029A0004C41435A4F4E593E2020004E54503A203D
:1029B000557A79736B616E6F20637A617320756EDF
:1029C000697874696D653A00E30000EC000000006E
:1029D00000000000314E3134000000000000000013
:1029E00000000000000000000000000000000000E7
:1029F00000000000000000004E54503A20444E53A6
:102A00002025643A20004554483A206E69652075B7
:102A10007A79736B616E6F20637A617375207A20A7
:102A20004E5450004553503A206E696520757A79AE
:102A3000736B616E6F20637A617375207A204E54D8
:102A400050004553503A20706F62696572616D2085
:102A5000637A617300444E533A2025643A20006A39
:102A60006573742E2E2E3A00743A2000436F6E6EFA
:102A7000656374696F6E3A20636C6F73650055739C
:102A800065722D4167656E743A206C75636A616E7C
:102A900000486F73743A206C75636A616E00474535
:102AA00054202F6C61746573742E747874204854AC
:102AB00054502F312E3100636F6E6E656374656400
:102AC0002E2E2E00636F6E6E656374696E672E2EF8
:102AD0002E0073746F70696E672E2E2E0062796CF3
:102AE0006F2E2E2E3A002020202020202000647AF5
:102AF00069656E3A006861726D6F6E6F6772616DC5
:102B0000206379726B756C61636A693A00202D3EAF
:102B100020004841524D4F4E4F4752414D3A207A86
:102B20006D69616E61200053443A206272616B20CE
:102B3000706C696B7520636F6E6669672E7478744C
:102B4000005D00636F6E6669673A205B00575757F8
:102B50003A2041757468206F6B003C68313E343018
:102B60003120556E617574686F72697A65643C2FA7
:102B700068313E005757572D41757468656E74690A
:102B8000636174653A204261736963207265616CA8
:102B90006D3D224C75636A616E202D207374726FD7
:102BA0006E6120737465726F776E696B612200438A
:102BB0006F6E74656E742D547970653A2074657803
:102BC000742F68746D6C00485454502F312E30208F
:102BD00034303120417574686F72697A6174696F3D
:102BE0006E205265717569726564005757573A20B7
:102BF00041757468206661696C2121005757573A06
:102C00002041757468204E554C4C00573A200046C0
:102C10003A20004B3A20005757573A206272616BB6
:102C200020706C696B753A20005757573A204F64F3
:102C3000637A797420706C696B753A0061636365BF
:102C400073732D636F6E74726F6C2D616C6C6F7724
:102C50002D6F726967696E3A202A0A005757573AF2
:102C600020426C616420706172736F77616E69617C
:102C70002055524C0000ADCC2AD411241FBECFEFFA
:102C8000D1E2DEBFCDBF00E00CBF15E0A0E0B2E0B6
:102C9000E8E2FAEB01E00BBF02C007900D92AE3DF7
:102CA000B107D9F724E1AEEDB5E001C01D92A53E14
:102CB000B207E1F716E1CCE3D6E100E006C02197C8
:102CC0000109802FFE010E9449DBCB33D10780E050
:102CD0000807A9F70E94F4B60C9403DD0C940000D9
:102CE0008F929F92AF92BF92CF92DF92EF92FF921C
:102CF0000F931F93CF93DF93CDB7DEB769970FB6CE
:102D0000F894DEBF0FBECDBF8C0140E050E06DE314
:102D10000E94C4996C01D80114968D919C911597CD
:102D20001816190614F00C94E22FBFEFCB16DB0631
:102D300011F40C94E22FA6014F5F5F4FB801CE0152
:102D40000D960E94F65DCE010D960E94659969E38D
:102D50007AE0CE0101960E94E19ABE016F5F7F4F3B
:102D6000C8010E94F299F82ECE0101960E94DC9AC9
:102D7000FF2009F45EC0960142E050E0B801CE01A8
:102D800001960E94449BBE016F5F7F4FC8010E9465
:102D9000469ACE0101960E94DC9ACE010D960E94C1
:102DA0005A994B015C01C8010E9403598F3F11F4ED
:102DB0000C94B92FE8E08E02C00111249C012A581E
:102DC000364F7901D90114968C91813011F00C9411
:102DD000B92F65E37AE089E891E10E941F9EB8016E
:102DE00089E891E10E94019E63E37AE089E891E13C
:102DF0000E941F9EF701608171814AE050E089E8DE
:102E000091E10E94B89D60E37AE089E891E10E9437
:102E10001F9E4AE050E0B40189E891E10E94B89D0C
:102E200089E891E10E94299DD7018D929C920C9492
:102E3000B92F68E27AE0CE0101960E94E19ABE01C4
:102E40006F5F7F4FC8010E94F299F82ECE01019664
:102E50000E94DC9AFF2049F1960147E050E0B8015A
:102E6000CE0101960E94449BBE016F5F7F4FC80157
:102E70000E94469ACE0101960E94DC9ACE010D96E0
:102E80000E945A996B017C01C8010E9403598F3F2F
:102E900011F40C94B92FB8E08B02F0011124EA5818
:102EA000F64FD382C2820C94B92F60E27AE0CE0151
:102EB00001960E94E19ABE016F5F7F4FC8010E9498
:102EC000F299F82ECE0101960E94DC9AFF2009F4B7
:102ED0004AC089899A890C9711F00C94B92FE12C7A
:102EE000F12CD12C0E2DB701CE010D960E94E09948
:102EF000FC0180810E946A5A8F3F89F1182F129538
:102F0000107FB7016F5F7F4FCE010D960E94E09951
:102F1000DC018C910E946A5A8F3F09F10695E1E02D
:102F2000F0E0EC0FFD1FE00FF11D810F8083BAE090
:102F3000EB16F10411F4DD24D394E2E0EE0EF11C63
:102F4000FCE0EF16F10471F6DD2049F086E0FE01A9
:102F50003196AEEBB2E001900D928A95E1F70E94B6
:102F6000EE580C94B92F69E17AE0CE0101960E94E7
:102F7000E19ABE016F5F7F4FC8010E94F299E82E6F
:102F8000CE0101960E94DC9AEE2009F45EC080EC2E
:102F900093E09A8389831B821C821D821E82BE015C
:102FA000635F7F4FCE0101960E94B55C882329F0B4
:102FB0008B819C81AD81BE813AC064E17AE0CE0113
:102FC00007960E94E19A89899A892B853C85821708
:102FD0009307F9F4892BD9F00D851E85CF80D8840D
:102FE000F80181918F01882391F0082E000C990B34
:102FF0000E9462DC5C01D6018D916D01082E000CEF
:10300000990B0E9462DCA816B90651F302C0FF2496
:10301000F394CE0107960E94DC9AFF2081F0809104
:103020003E1390913F13A0914013B09141138093B0
:10303000D7109093D810A093D910B093DA1085EDE3
:1030400090E10E9463760C94B92F6AE07AE0CE0199
:1030500001960E94E19ABE016F5F7F4FC8010E94F6
:10306000F299F82ECE0101960E94DC9AFF2049F1D8
:1030700080EC93E09A8389831B821C821D821E82CE
:10308000BE01635F7F4FCE0101960E94B55C88232D
:1030900091F08B819C81AD81BE818093D110909302
:1030A000D210A093D310B093D410CE0101960E94F9
:1030B00063760C94B92FCE0101960E9463760C942E
:1030C000B92F60E07AE0CE0101960E94E19ABE013C
:1030D0006F5F7F4FC8010E94F299F82ECE010196D2
:1030E0000E94DC9AFF2049F180EC93E09A83898367
:1030F0001B821C821D821E82BE01635F7F4FCE0138
:1031000001960E94B55C882391F08B819C81AD81F2
:10311000BE818093CB109093CC10A093CD10B09330
:10312000CE10CE0101960E9463760C94B92FCE0189
:1031300001960E9463760C94B92F68EF79E0CE0176
:1031400001960E94E19ABE016F5F7F4FC8010E9405
:10315000F299F82ECE0101960E94DC9AFF2049F1E7
:1031600080EC93E09A8389831B821C821D821E82DD
:10317000BE01635F7F4FCE0101960E94B55C88233C
:1031800091F08B819C81AD81BE818093C51090931D
:10319000C610A093C710B093C810CE0101960E942C
:1031A00063760C94B92FCE0101960E9463760C943D
:1031B000B92F64EE79E0CE0101960E94E19ABE013A
:1031C0006F5F7F4FC8010E94F299F82ECE010196E1
:1031D0000E94DC9AF1100C94B92F6AED79E0CE01CF
:1031E00001960E94E19ABE016F5F7F4FC8010E9465
:1031F000F299F82ECE0101960E94DC9AFF2041F050
:10320000CE010D960E945A99609328080C94B92F0C
:103210006AEC79E0CE0101960E94E19ABE016F5FEF
:103220007F4FC8010E94F299F82ECE0101960E94AC
:10323000DC9AFF2041F0CE010D960E945A996093CE
:1032400029080C94B92F6DEB79E0CE0101960E940C
:10325000E19ABE016F5F7F4FC8010E94F299F82E7C
:10326000CE0101960E94DC9AFF2041F0CE010D961E
:103270000E945A9960932A080C94B92F6BEA79E05E
:10328000CE0101960E94E19ABE016F5F7F4FC80197
:103290000E94F299F82ECE0101960E94DC9AFF203E
:1032A00051F0CE010D960E945A9970932C086093AC
:1032B0002B080C94B92F6AE979E0CE0101960E949F
:1032C000E19ABE016F5F7F4FC8010E94F299F82E0C
:1032D000CE0101960E94DC9AFF2051F0CE010D969E
:1032E0000E945A9970933408609333080C94B92F54
:1032F0006EE879E0CE0101960E94E19ABE016F5F0F
:103300007F4FC8010E94F299F82ECE0101960E94CB
:10331000DC9AFF2051F0CE010D960E945A997093CD
:10332000300860932F080C94B92F63E879E0CE0140
:1033300001960E94E19ABE016F5F7F4FC8010E9413
:10334000F299F82ECE0101960E94DC9AFF2051F0EE
:10335000CE010D960E945A997093380860933708F1
:103360000C94B92F63E779E0CE0101960E94E19AAF
:10337000BE016F5F7F4FC8010E94F299F82ECE0107
:1033800001960E94DC9AFF2051F0CE010D960E941A
:103390005A9970932E0860932D080C94B92F64E607
:1033A00079E0CE0101960E94E19ABE016F5F7F4FE6
:1033B000C8010E94F299F82ECE0101960E94DC9A73
:1033C000FF2051F0CE010D960E945A997093360855
:1033D000609335080C94B92F67E579E0CE0101962A
:1033E0000E94E19ABE016F5F7F4FC8010E94F2996F
:1033F000F82ECE0101960E94DC9AFF2051F0CE01FA
:103400000D960E945A9970933208609331080C947B
:10341000B92F6BE479E0CE0101960E94E19ABE01DA
:103420006F5F7F4FC8010E94F299F82ECE0101967E
:103430000E94DC9AFF2051F0CE010D960E945A990D
:1034400070933A08609339080C94B92F64E479E0DA
:10345000CE0101960E94E19ABE016F5F7F4FC801C5
:103460000E94F299F82ECE0101960E94DC9AFF206C
:1034700079F1CE010D960E945A99162F862F0E943F
:103480002CD11F921F938BE299E09F938F9389E831
:1034900091E19F938F930E94AA5D89E891E10E9438
:1034A000299D1F921F9382E199E09F938F938FE54F
:1034B0009DE09F938F930E94AA5D8FE59DE00E94FF
:1034C000299D0FB6F894DEBF0FBECDBF0C94B92F67
:1034D00068EF78E0CE0101960E94E19ABE016F5F2D
:1034E0007F4FC8010E94F299F82ECE0101960E94EA
:1034F000DC9AFF2099F0CE010D960E945A996F3FF9
:10350000710509F02CF41616170624F00C94B92F47
:103510006FEF70E060933C080C94B92F66EE78E092
:10352000CE0101960E94E19ABE016F5F7F4FC801F4
:103530000E94F299F82ECE0101960E94DC9AFF209B
:1035400081F0CE010D960E945A999B0121503109BC
:103550002A35310510F00C94B92F60933E080C9475
:10356000B92F6BEC78E0CE0101960E94E19ABE0182
:103570006F5F7F4FC8010E94F299F82ECE0101962D
:103580000E94DC9AFF2069F0CE010D960E945A99A4
:103590006B35710510F00C94B92F60933F080C94B3
:1035A000B92F65EB78E0CE0101960E94E19ABE0149
:1035B0006F5F7F4FC8010E94F299F82ECE010196ED
:1035C0000E94DC9AFF2081F0CE010D960E945A994C
:1035D0009B01215031092336310510F00C94B92F8D
:1035E00060933B080C94B92F66EA78E0CE0101960F
:1035F0000E94E19ABE016F5F7F4FC8010E94F2995D
:10360000F82ECE0101960E94DC9AFF2081F0CE01B7
:103610000D960E945A999B01215031092A35310596
:1036200010F00C94B92F60933D080C94B92F69E801
:1036300078E0CE0101960E94E19ABE016F5F7F4F54
:10364000C8010E94F299F82ECE0101960E94DC9AE0
:10365000FF20A9F0CE010D960E945A9961157105BF
:103660008105910511F40C94B92F60934008709373
:10367000410880934208909343080C94B92F61E766
:1036800078E0CE0101960E94E19ABE016F5F7F4F04
:10369000C8010E94F299F82ECE0101960E94DC9A90
:1036A000FF2081F0CE010D960E945A996093440844
:1036B0007093450880934608909347080E9487A31B
:1036C0000C94B92F65E578E0CE0101960E94E19A4D
:1036D000BE016F5F7F4FC8010E94F299F82ECE01A4
:1036E00001960E94DC9AFF2079F0CE010D960E948F
:1036F0005A996115710511F40C94B92F709349080A
:10370000609348080C94B92F62E478E0CE010196EA
:103710000E94E19ABE016F5F7F4FC8010E94F2993B
:10372000F82ECE0101960E94DC9AFF2041F0CE01D6
:103730000D960E945A9960934A080C94B92F61E340
:1037400078E0CE0101960E94E19ABE016F5F7F4F43
:10375000C8010E94F299F82ECE0101960E94DC9ACF
:10376000FF2031F1CE010D960E945A9916161706C8
:1037700024F481E08093100602C0109210066AEED5
:1037800073E089E891E10E94D45F80911006811175
:1037900003C060E370E002C061E370E089E891E19A
:1037A0000E94EC5C89E891E10E94299D0C94B92F5C
:1037B00061E278E0CE0101960E94E19ABE016F5F5E
:1037C0007F4FC8010E94F299F82ECE0101960E9407
:1037D000DC9AFF2091F0CE010D960E945A99613F2C
:1037E00071052CF41616170624F00C94B92F60EF0F
:1037F00070E06093D8080C94B92F66E178E0CE01B0
:1038000001960E94E19ABE016F5F7F4FC8010E943E
:10381000F299F82ECE0101960E94DC9AFF2081F0E9
:10382000CE010D960E945A999B01215031092336F1
:10383000310510F00C94B92F609350080C94B92FF7
:1038400065E078E0CE0101960E94E19ABE016F5FCB
:103850007F4FC8010E94F299F82ECE0101960E9476
:10386000DC9AFF2069F0CE010D960E945A996031D2
:10387000710510F00C94B92F6093DF050C94B92FEB
:103880006AEF77E0CE0101960E94E19ABE016F5F78
:103890007F4FC8010E94F299F82ECE0101960E9436
:1038A000DC9AFF2081F0CE010D960E945A999B016F
:1038B000215031092336310510F00C94B92F609353
:1038C0004F080C94B92F60EF77E0CE0101960E946B
:1038D000E19ABE016F5F7F4FC8010E94F299E82E06
:1038E000CE0101960E94DC9AEE2009F452C0BE017E
:1038F000635F7F4FCE0107960E94179B6DE371E0D7
:10390000CE0101960E94E19ABE016F5F7F4FCE010A
:1039100007960E94F299182FCE0101960E94DC9A18
:1039200011112DC066E371E0CE0101960E94E19A6B
:10393000BE016F5F7F4FCE0107960E94F299182F4C
:10394000CE0101960E94DC9A111114C06CE271E064
:10395000CE0101960E94E19ABE016F5F7F4FCE01BA
:1039600007960E94F299182FCE0101960E94DC9AC8
:10397000111103C0FF24F39402C082E0F82EF092EC
:103980004C08CE0107960E94DC9A0E948BCB0C94C7
:10399000B92F64EE77E0CE0101960E94E19ABE0154
:1039A0006F5F7F4FC8010E94F299F82ECE010196F9
:1039B0000E94DC9AFF2081F0CE010D960E945A9958
:1039C0009B01215031092336310510F00C94B92F99
:1039D00060934D080C94B92F65ED77E0CE01019608
:1039E0000E94E19ABE016F5F7F4FC8010E94F29969
:1039F000F82ECE0101960E94DC9AFF2081F0CE01C4
:103A00000D960E945A999B012150310923363105A8
:103A100010F00C94B92F60934E080C94B92F67ECFA
:103A200077E0CE0101960E94E19ABE016F5F7F4F61
:103A3000C8010E94F299F82ECE0101960E94DC9AEC
:103A4000FF2009F49AC0BE01635F7F4FCE01439609
:103A50000E94179B6DE571E0CE0101960E94E19AEC
:103A6000BE016F5F7F4FCE0143960E94F299811194
:103A700016C067E571E0CE0107960E94E19ABE018B
:103A8000695F7F4FCE0143960E94F29911E0811148
:103A900001C010E0CE0107960E94DC9A01C011E03F
:103AA000CE0101960E94DC9A112321F010921F0290
:103AB00011E057C06EE471E0CE0101960E94E19AD8
:103AC000BE016F5F7F4FCE0143960E94F299182F7F
:103AD000CE0101960E94DC9A11113EC069E471E0AA
:103AE000CE0101960E94E19ABE016F5F7F4FCE0129
:103AF00043960E94F299182FCE0101960E94DC9AFB
:103B000011112CC065E471E0CE0101960E94E19A8A
:103B1000BE016F5F7F4FCE0143960E94F299182F2E
:103B2000CE0101960E94DC9A11111AC062E471E084
:103B3000CE0101960E94E19ABE016F5F7F4FCE01D8
:103B400043960E94F299182FCE0101960E94DC9AAA
:103B5000112339F013E005C012E003C015E001C0E5
:103B600014E010934B08CE0143960E94DC9A80919A
:103B70004B08809357080C94B92F6BEB77E0CE017C
:103B800001960E94E19ABE016F5F7F4FC8010E94BB
:103B9000F299F82ECE0101960E94DC9AFF2041F0A6
:103BA000CE010D960E945A99609351080C94B92F3A
:103BB0006AEA77E0CE0101960E94E19ABE016F5F4A
:103BC0007F4FC8010E94F299F82ECE0101960E9403
:103BD000DC9AFF2041F0CE010D960E945A99609325
:103BE00052080C94B92F6FE977E0CE0101960E943C
:103BF000E19ABE016F5F7F4FC8010E94F299F82ED3
:103C0000CE0101960E94DC9AFF2081F0CE010D9634
:103C10000E945A999B01215031092336310510F039
:103C20000C94B92F60935E080C94B92F66E977E085
:103C3000CE0101960E94E19ABE016F5F7F4FC801DD
:103C40000E94F299F82ECE0101960E94DC9AFF2084
:103C500099F0BE01635F7F4FCE0101960E94179BD2
:103C6000CE0101960E9402CB80935C08CE010196A2
:103C70000E94DC9A0C94B92F69E877E0CE01019696
:103C80000E94E19ABE016F5F7F4FC8010E94F299C6
:103C9000F82ECE0101960E94DC9AFF2099F0BE0119
:103CA000635F7F4FCE0101960E94179BCE01019664
:103CB0000E94ADCA80935D08CE0101960E94DC9AF5
:103CC0000C94B92F6BE777E0CE0101960E94E19A40
:103CD000BE016F5F7F4FC8010E94F299F82ECE019E
:103CE00001960E94DC9AFF2099F0BE01635F7F4F2E
:103CF000CE0101960E94179BCE0101960E9402CB35
:103D000080936108CE0101960E94DC9A0C94B92F31
:103D10006DE677E0CE0101960E94E19ABE016F5FE9
:103D20007F4FC8010E94F299F82ECE0101960E94A1
:103D3000DC9AFF2069F0CE010D960E945A996536F3
:103D4000710510F00C94B92F609360080C94B92F92
:103D500063E677E0CE0101960E94E19ABE016F5FB3
:103D60007F4FC8010E94F299F82ECE0101960E9461
:103D7000DC9AFF2081F0CE010D960E945A999B019A
:103D8000215031092336310510F00C94B92F60937E
:103D90005F080C94B92F67E577E0CE0101960E9489
:103DA000E19ABE016F5F7F4FC8010E94F299F82E21
:103DB000CE0101960E94DC9AFF2081F0CE010D9683
:103DC0000E945A999B01215031092336310510F088
:103DD0000C94B92F609364080C94B92F68E477E0D1
:103DE000CE0101960E94E19ABE016F5F7F4FC8012C
:103DF0000E94F299F82ECE0101960E94DC9AFF20D3
:103E000069F0CE010D960E945A996536710510F041
:103E10000C94B92F609365080C94B92F6EE377E08A
:103E2000CE0101960E94E19ABE016F5F7F4FC801EB
:103E30000E94F299F82ECE0101960E94DC9AFF2092
:103E400099F0BE01635F7F4FCE0101960E94179BE0
:103E5000CE0101960E9402CB80936208CE010196AA
:103E60000E94DC9A0C94B92F60E377E0CE010196B2
:103E70000E94E19ABE016F5F7F4FC8010E94F299D4
:103E8000F82ECE0101960E94DC9AFF2099F0BE0127
:103E9000635F7F4FCE0101960E94179BCE01019672
:103EA0000E94ADCA80936308CE0101960E94DC9AFD
:103EB0000C94B92F63E277E0CE0101960E94E19A5B
:103EC000BE016F5F7F4FC8010E94F299F82ECE01AC
:103ED00001960E94DC9AFF2041F0CE010D960E94CF
:103EE0000359809366080C94B92F6BE177E0CE01FB
:103EF00001960E94E19ABE016F5F7F4FC8010E9448
:103F0000F299F82ECE0101960E94DC9AFF2009F466
:103F10006AC0BE01635F7F4FCE0143960E94179B2C
:103F200063E771E0CE0101960E94E19ABE016F5FE6
:103F30007F4FCE0143960E94F299811116C06DE623
:103F400071E0CE0107960E94E19ABE01695F7F4F42
:103F5000CE0143960E94F29911E0811101C010E058
:103F6000CE0107960E94DC9A01C011E0CE010196B5
:103F70000E94DC9A112321F010921F0211E02BC045
:103F800068E671E0CE0101960E94E19ABE016F5F82
:103F90007F4FCE0143960E94F299182FCE010196D1
:103FA0000E94DC9A111116C063E671E0CE01019601
:103FB0000E94E19ABE016F5F7F4FCE0143960E943F
:103FC000F299182FCE0101960E94DC9A112319F064
:103FD00013E001C012E010935808CE0143960E94EE
:103FE000DC9A0C94B92F6FE077E0CE0101960E9425
:103FF000E19ABE016F5F7F4FC8010E94F299F82ECF
:10400000CE0101960E94DC9AFF2099F0BE01635F09
:104010007F4FCE0101960E94179BCE0101960E9410
:10402000ADCA80935908CE0101960E94DC9A0C9487
:10403000B92F61E077E0CE0101960E94E19ABE01BE
:104040006F5F7F4FC8010E94F299F82ECE01019652
:104050000E94DC9AFF2091F0CE010D960E945A99A1
:10406000613F71052CF41616170624F00C94B92F35
:1040700060EF70E060935A080C94B92F62EF76E01D
:10408000CE0101960E94E19ABE016F5F7F4FC80189
:104090000E94F299F82ECE0101960E94DC9AFF2030
:1040A00091F0CE010D960E945A99613F71052CF452
:1040B0001616170624F00C94B92F60EF70E0609389
:1040C0005B080C94B92F6EED76E0CE0101960E944C
:1040D000E19ABE016F5F7F4FC8010E94F299F82EEE
:1040E000CE0101960E94DC9AFF2099F0BE01635F29
:1040F0007F4FCE0101960E94179BCE0101960E9430
:10410000ADCA80936708CE0101960E94DC9A0C9498
:10411000B92F68EC76E0CE0101960E94E19ABE01CB
:104120006F5F7F4FC8010E94F299F82ECE01019671
:104130000E94DC9AFF2041F0CE010D960E945A9910
:10414000609368080C94B92F61EB76E0CE0101967C
:104150000E94E19ABE016F5F7F4FC8010E94F299F1
:10416000F82ECE0101960E94DC9AFF2041F0CE018C
:104170000D960E945A99609369080C94B92F61EAD0
:1041800076E0CE0101960E94E19ABE016F5F7F4FFB
:10419000C8010E94F299F82ECE0101960E94DC9A85
:1041A000FF2071F0CE010D960E945A998FEF860F75
:1041B000833610F00C94B92F60936A080C94B92FD1
:1041C0006CE876E0CE0101960E94E19ABE016F5F35
:1041D0007F4FC8010E94F299F82ECE0101960E94ED
:1041E000DC9AFF2069F0CE010D960E945A991616AE
:1041F000170614F00C94B92F609370080C94B92F23
:1042000062E776E0CE0101960E94E19ABE016F5FFF
:104210007F4FC8010E94F299F82ECE0101960E94AC
:10422000DC9AFF2061F0CE010D960E945A9977FF2B
:1042300002C00C94B92F609371080C94B92F6AE5F1
:1042400076E0CE0101960E94E19ABE016F5F7F4F3A
:10425000C8010E94F299F82ECE0101960E94DC9AC4
:10426000FF2069F0CE010D960E945A991616170686
:1042700014F00C94B92F609372080C94B92F63E476
:1042800076E0CE0101960E94E19ABE016F5F7F4FFA
:10429000C8010E94F299F82ECE0101960E94DC9A84
:1042A000FF2069F0CE010D960E945A991616170646
:1042B00014F00C94B92F609373080C94B92F6FE22B
:1042C00076E0CE0101960E94E19ABE016F5F7F4FBA
:1042D000C8010E94F299F82ECE0101960E94DC9A44
:1042E000FF2069F0CE010D960E945A991616170606
:1042F00014F00C94B92F609374080C94B92F6EE1EC
:1043000076E0CE0101960E94E19ABE016F5F7F4F79
:10431000C8010E94F299F82ECE0101960E94DC9A03
:10432000FF2069F0CE010D960E945A9916161706C5
:1043300014F00C94B92F609375080C94B92F6EE0AB
:1043400076E0CE0101960E94E19ABE016F5F7F4F39
:10435000C8010E94F299F82ECE0101960E94DC9AC3
:10436000FF2069F0CE010D960E945A991616170685
:1043700014F00C94B92F609376080C94B92F61E077
:1043800076E0CE0101960E94E19ABE016F5F7F4FF9
:10439000C8010E94F299F82ECE0101960E94DC9A83
:1043A000FF2069F0CE010D960E945A991616170645
:1043B00014F00C94B92F609377080C94B92F60EF28
:1043C00075E0CE0101960E94E19ABE016F5F7F4FBA
:1043D000C8010E94F299F82ECE0101960E94DC9A43
:1043E000FF2069F0CE010D960E945A996330710545
:1043F00010F00C94B92F609378080C94B92F64EEE8
:1044000075E0CE0101960E94E19ABE016F5F7F4F79
:10441000C8010E94F299F82ECE0101960E94DC9A02
:10442000FF2069F0CE010D960E945A9916161706C4
:1044300014F00C94B92F609379080C94B92F6FEC99
:1044400075E0CE0101960E94E19ABE016F5F7F4F39
:10445000C8010E94F299F82ECE0101960E94DC9AC2
:10446000FF2081F0CE010D960E945A99161617066C
:1044700014F00C94B92F70E070937D0860937C0861
:104480000C94B92F62EC75E0CE0101960E94E19A7E
:10449000BE016F5F7F4FC8010E94F299F82ECE01D6
:1044A00001960E94DC9AFF2081F0CE010D960E94B9
:1044B0005A991616170614F00C94B92F70E07093E1
:1044C0007B0860937A080C94B92F6CEA75E0CE01F2
:1044D00001960E94E19ABE016F5F7F4FC8010E9462
:1044E000F299F82ECE0101960E94DC9AFF2069F025
:1044F000CE010D960E945A991616170614F00C94C8
:10450000B92F60937E080C94B92F6AE975E0CE014B
:1045100001960E94E19ABE016F5F7F4FC8010E9421
:10452000F299F82ECE0101960E94DC9AFF2081F0CC
:10453000CE010D960E945A991616170614F00C9487
:10454000B92F70E070938208609381080C94B92FA2
:1045500067E875E0CE0101960E94E19ABE016F5FA7
:104560007F4FC8010E94F299F82ECE0101960E9459
:10457000DC9AFF2079F0CE010D960E945A9977FFC0
:1045800002C00C94B92F70E07093800860937F088C
:104590000C94B92F68E775E0CE0101960E94E19A6C
:1045A000BE016F5F7F4FC8010E94F299F82ECE01C5
:1045B00001960E94DC9AFF2061F0CE010D960E94C8
:1045C0005A9977FF02C00C94B92F609383080C941A
:1045D000B92F6CE675E0CE0101960E94E19ABE010A
:1045E0006F5F7F4FC8010E94F299F82ECE010196AD
:1045F0000E94DC9AFF2019F16BE070E0C8010E9474
:10460000E099DC01EC9110ED1E0F1A3010F00C94C3
:10461000B92FCE010D960E945A996536710524F482
:1046200077FF04C00C94B92F64E670E0B8E01B9FDC
:10463000F0011124EC57F74F60830C94B92F68E513
:1046400075E0CE0101960E94E19ABE016F5F7F4F37
:10465000C8010E94F299F82ECE0101960E94DC9AC0
:10466000FF2089F0CE010D960E945A99613F710595
:1046700024F477FF04C00C94B92F60EF70E06093CE
:10468000D5080C94B92F69E475E0CE0101960E941B
:10469000E19ABE016F5F7F4FC8010E94F299F82E28
:1046A000CE0101960E94DC9AFF2089F0CE010D9682
:1046B0000E945A99613F710524F477FF04C00C945D
:1046C000B92F60EF70E06093D6080C94B92F62E3C5
:1046D00075E0CE0101960E94E19ABE016F5F7F4FA7
:1046E000C8010E94F299F82ECE0101960E94DC9A30
:1046F000FF2089F0CE010D960E945A99613F710505
:1047000024F477FF04C00C94B92F60EF70E060933D
:10471000D7080C94B92F66E275E0CE0101960E948D
:10472000E19ABE016F5F7F4FC8010E94F299F82E97
:10473000CE0101960E94DC9AFF20F1F06BE070E060
:10474000C8010E94E099DC01EC9110ED1E0F1A30B7
:1047500010F00C94B92FCE010D960E945A9977FF54
:1047600002C00C94B92FB8E01B9FF0011124EB5745
:10477000F74F60830C94B92F6BE175E0CE01019681
:104780000E94E19ABE016F5F7F4FC8010E94F299BB
:10479000F82ECE0101960E94DC9AFF20F9F06AE023
:1047A00070E0C8010E94E099DC01EC9110ED1E0F51
:1047B0001A3010F00C94B92FCE010D960E945A9920
:1047C00077FF02C00C94B92FB8E01B9FF0011124B1
:1047D000EA57F74F718360830C94B92F6DE075E051
:1047E000CE0101960E94E19ABE016F5F7F4FC80122
:1047F0000E94F299F82ECE0101960E94DC9AFF20C9
:10480000F9F06DE070E0C8010E94E099DC01EC91E4
:1048100010ED1E0F1A3010F00C94B92FCE010D962A
:104820000E945A9977FF02C00C94B92FB8E01B9FE1
:10483000F0011124E857F74F718360830C94B92F6E
:1048400060E075E0CE0101960E94E19ABE016F5FC3
:104850007F4FC8010E94F299F82ECE0101960E9466
:10486000DC9AFF2069F0CE010D960E945A99161627
:10487000170614F00C94B92F6093D4080C94B92F38
:1048800060EF74E0CE0107960E94E19ABE01695F75
:104890007F4FC8010E94F299811116C060EE74E04A
:1048A000CE0101960E94E19ABE016F5F7F4FC80161
:1048B0000E94F299FF24F394811101C0F12CCE01E2
:1048C00001960E94DC9A02C0FF24F394CE01079661
:1048D0000E94DC9AFF2091F1CE010D960E945A9918
:1048E000613011F00C94B92F82E080937A09109214
:1048F0007B09809382096093830980938A0980935E
:104900008B098093920993E09093930980939A097D
:1049100094E090939B098093A20995E09093A3095A
:104920008093AA0996E09093AB098093B20987E03F
:104930008093B30910921F020C94B92F6AED74E0B2
:10494000CE0101960E94E19ABE016F5F7F4FC801C0
:104950000E94F299F82ECE0101960E94DC9AFF2067
:1049600049F0BE01635F7F4F80E090E00E949BC4EE
:104970000C94B92F62ED74E0CE0101960E94E19A89
:10498000BE016F5F7F4FC8010E94F299F82ECE01E1
:1049900001960E94DC9AFF2049F0BE01635F7F4FC1
:1049A00081E090E00E949BC40C94B92F68EC74E005
:1049B000CE0101960E94E19ABE016F5F7F4FC80150
:1049C0000E94F299F82ECE0101960E94DC9AFF20F7
:1049D00049F0BE01635F7F4F82E090E00E949BC47C
:1049E0000C94B92F63EC74E0CE0101960E94E19A19
:1049F000BE016F5F7F4FC8010E94F299F82ECE0171
:104A000001960E94DC9AFF2049F0BE01635F7F4F50
:104A100083E090E00E949BC40C94B92F6EEB74E08D
:104A2000CE0101960E94E19ABE016F5F7F4FC801DF
:104A30000E94F299F82ECE0101960E94DC9AFF2086
:104A400049F0BE01635F7F4F84E090E00E949BC409
:104A50000C94B92F69EB74E0CE0101960E94E19AA3
:104A6000BE016F5F7F4FC8010E94F299F82ECE0100
:104A700001960E94DC9AFF2049F0BE01635F7F4FE0
:104A800085E090E00E949BC40C94B92F60EB74E029
:104A9000CE0101960E94E19ABE016F5F7F4FC8016F
:104AA0000E94F299F82ECE0101960E94DC9AFF2016
:104AB00049F0BE01635F7F4F86E090E00E949BC497
:104AC0000C94B92F67EA74E0CE0101960E94E19A36
:104AD000BE016F5F7F4FC8010E94F299F82ECE0190
:104AE00001960E94DC9AFF2049F0BE01635F7F4F70
:104AF00087E090E00E949BC40C94B92F64EA74E0B4
:104B0000CE0101960E94E19ABE016F5F7F4FC801FE
:104B10000E94F299F82ECE0101960E94DC9AFF20A5
:104B200049F0BE01635F7F4F88E090E00E949BC424
:104B30000C94B92F61EA74E0CE0101960E94E19ACB
:104B4000BE016F5F7F4FC8010E94F299F82ECE011F
:104B500001960E94DC9AFF2049F0BE01635F7F4FFF
:104B600089E090E00E949BC40C94B92F6EE974E038
:104B7000CE0101960E94E19ABE016F5F7F4FC8018E
:104B80000E94F299F82ECE0101960E94DC9AFF2035
:104B900049F0BE01635F7F4F8AE090E00E949BC4B2
:104BA0000C94B92F6BE974E0CE0101960E94E19A52
:104BB000BE016F5F7F4FC8010E94F299F82ECE01AF
:104BC00001960E94DC9AFF2049F0BE01635F7F4F8F
:104BD0008BE090E00E949BC40C94B92F68E974E0CC
:104BE000CE0101960E94E19ABE016F5F7F4FC8011E
:104BF0000E94F299F82ECE0101960E94DC9AFF20C5
:104C000049F0BE01635F7F4F8CE090E00E949BC43F
:104C10000C94B92F65E974E0CE0101960E94E19AE7
:104C2000BE016F5F7F4FC8010E94F299F82ECE013E
:104C300001960E94DC9AFF2049F0BE01635F7F4F1E
:104C40008DE090E00E949BC40C94B92F62E974E05F
:104C5000CE0101960E94E19ABE016F5F7F4FC801AD
:104C60000E94F299F82ECE0101960E94DC9AFF2054
:104C700049F0BE01635F7F4F8EE090E00E949BC4CD
:104C80000C94B92F6FE874E0CE0101960E94E19A6E
:104C9000BE016F5F7F4FC8010E94F299F82ECE01CE
:104CA00001960E94DC9AFF2049F0BE01635F7F4FAE
:104CB0008FE090E00E949BC40C94B92F68E874E0E8
:104CC000CE0101960E94E19ABE016F5F7F4FC8013D
:104CD0000E94F299F82ECE0101960E94DC9AFF20E4
:104CE000B9F0CE010D960E945A9981E0611101C080
:104CF00080E08093120880910F08882311F40C94AF
:104D0000B92F8091120881110C94BE2F0C94B92FE9
:104D100066E874E0CE0101960E94E19ABE016F5FE1
:104D20007F4FC8010E94F299F82ECE0101960E9491
:104D3000DC9AFF2069F0CE010D960E945A996130ED
:104D400011F00C94B92F81E08093FA080C94B92FDC
:104D500064E774E0CE0101960E94E19ABE016F5FA4
:104D60007F4FC8010E94F299F82ECE0101960E9451
:104D7000DC9AFF2079F0CE010D960E945A996E318F
:104D800020F06D3318F06CE301C06EE16093000217
:104D90000C94B92F62E674E0CE0101960E94E19A6C
:104DA000BE016F5F7F4FC8010E94F299F82ECE01BD
:104DB00001960E94DC9AFF2079F0CE010D960E94A8
:104DC0005A996E3120F06D3318F06CE301C06EE13A
:104DD000609301020C94B92F60E574E0CE01019656
:104DE0000E94E19ABE016F5F7F4FC8010E94F29955
:104DF000F82ECE0101960E94DC9AFF2079F0CE01B8
:104E00000D960E945A996E3120F06D3318F06CE3C4
:104E100001C06EE1609302020C94B92F6FE374E05D
:104E2000CE0101960E94E19ABE016F5F7F4FC801DB
:104E30000E94F299F82ECE0101960E94DC9AFF2082
:104E400079F0CE010D960E945A996E3120F06D33A3
:104E500018F06CE301C06EE1609303020C94B92F6B
:104E60006EE274E0CE0101960E94E19ABE016F5F8E
:104E70007F4FC8010E94F299F82ECE0101960E9440
:104E8000DC9AFF2079F0CE010D960E945A996E317E
:104E900020F06D3318F06CE301C06EE16093040202
:104EA0000C94B92F6CE174E0CE0101960E94E19A56
:104EB000BE016F5F7F4FC8010E94F299F82ECE01AC
:104EC00001960E94DC9AFF2079F0CE010D960E9497
:104ED0005A996E3120F06D3318F06CE301C06EE129
:104EE000609305020C94B92F66E074E0CE01019640
:104EF0000E94E19ABE016F5F7F4FC8010E94F29944
:104F0000F82ECE0101960E94DC9AFF2081F0CE019E
:104F10000D960E945A992AE0269FA001279F500DC6
:104F2000112450931202409311020C94B92F64EF94
:104F300073E0CE0101960E94E19ABE016F5F7F4F40
:104F4000C8010E94F299F82ECE0101960E94DC9AC7
:104F5000FF2069F0CE010D960E945A99660F862FA8
:104F6000880F880F680F609310020C94B92F6FEDB3
:104F700073E0CE0101960E94E19ABE016F5F7F4F00
:104F8000C8010E94F299F82ECE0101960E94DC9A87
:104F9000FF2069F0CE010D960E945A99EAE06E9FBB
:104FA000B001112470930F0260930E02E2C76FEC00
:104FB00073E0CE0101960E94E19ABE016F5F7F4FC0
:104FC000C8010E94F299F82ECE0101960E94DC9A47
:104FD000FF2039F0CE010D960E94035980936B0893
:104FE000C8C76EEB73E0CE0101960E94E19ABE0144
:104FF0006F5F7F4FC8010E94F299F82ECE01019693
:105000000E94DC9AFF2039F0CE010D960E945A9939
:1050100060936C08AEC76CEA73E0CE0101960E9403
:10502000E19ABE016F5F7F4FC8010E94F299F82E8E
:10503000CE0101960E94DC9AFF2039F0CE010D9638
:105040000E945A9960936D0894C76DE973E0CE0190
:1050500001960E94E19ABE016F5F7F4FC8010E94D6
:10506000F299F82ECE0101960E94DC9AFF2039F0C9
:10507000CE010D960E945A9960936E087AC76EE829
:1050800073E0CE0101960E94E19ABE016F5F7F4FEF
:10509000C8010E94F299F82ECE0101960E94DC9A76
:1050A000FF2039F0CE010D960E945A9960936F0847
:1050B00060C761E873E0CE0101960E94E19ABE01EB
:1050C0006F5F7F4FC8010E94F299F82ECE010196C2
:1050D0000E94DC9AFF20D9F16AE773E0CE010196C5
:1050E0000E94E19ABE016F5F7F4FCE010D960E9434
:1050F000F299182FCE0101960E94DC9A112339F003
:1051000082E090E09093200680931F0632C763E709
:1051100073E0CE0101960E94E19ABE016F5F7F4F5E
:10512000CE010D960E94F299182FCE0101960E9491
:10513000DC9A112339F081E090E09093200680936F
:105140001F0617C71092200610921F0612C76DE6A1
:1051500073E0CE0101960E94E19ABE016F5F7F4F1E
:10516000C8010E94F299F82ECE0101960E94DC9AA5
:10517000FF2009F475C162E673E0CE0101960E943A
:10518000E19ABE016F5F7F4FC8010E94F299F82E2D
:10519000CE0101960E94DC9AFF2009F4EAC696012E
:1051A0004AE050E0B801CE0101960E94449BBE0146
:1051B0006F5F7F4FC8010E94469ACE0101960E9400
:1051C000DC9AB801CE0107960E94179B6DE971E049
:1051D000CE0101960E94E19ABE016F5F7F4FCE0122
:1051E00007960E94F299182FCE0101960E94DC9A30
:1051F000111194C06AE971E0CE0101960E94E19A12
:10520000BE016F5F7F4FCE0107960E94F299182F63
:10521000CE0101960E94DC9A111182C067E971E00B
:10522000CE0101960E94E19ABE016F5F7F4FCE01D1
:1052300007960E94F299182FCE0101960E94DC9ADF
:10524000111170C064E971E0CE0101960E94E19AEB
:10525000BE016F5F7F4FCE0107960E94F299182F13
:10526000CE0101960E94DC9A11115EC061E971E0E5
:10527000CE0101960E94E19ABE016F5F7F4FCE0181
:1052800007960E94F299182FCE0101960E94DC9A8F
:1052900011114CC06EE871E0CE0101960E94E19AB6
:1052A000BE016F5F7F4FCE0107960E94F299182FC3
:1052B000CE0101960E94DC9A11113AC06BE871E0B0
:1052C000CE0101960E94E19ABE016F5F7F4FCE0131
:1052D00007960E94F299182FCE0101960E94DC9A3F
:1052E000111128C068E871E0CE0101960E94E19A90
:1052F000BE016F5F7F4FCE0107960E94F299082F83
:10530000CE0101960E94DC9A011115C069E771E097
:1053100089E891E10E94439E19E00DC017E00BC09F
:1053200011E009C012E007C013E005C014E003C09B
:1053300015E001C016E0CE0107960E94DC9A1930F4
:1053400039F463E573E089E891E10E94439E11C658
:10535000BE01635F7F4FCE010196173009F073C025
:105360000E94179BBE016F5F7F4F80E00E9484D335
:10537000CE0101960E94DC9ABE01635F7F4FCE0191
:1053800001960E94179BBE016F5F7F4F81E00E94D4
:1053900084D3CE0101960E94DC9ABE01635F7F4FE9
:1053A000CE0101960E94179BBE016F5F7F4F82E086
:1053B0000E9484D3CE0101960E94DC9ABE01635FF5
:1053C0007F4FCE0101960E94179BBE016F5F7F4FFA
:1053D00083E00E9484D3CE0101960E94DC9ABE0134
:1053E000635F7F4FCE0101960E94179BBE016F5FE6
:1053F0007F4F84E00E9484D3CE0101960E94DC9A04
:10540000BE01635F7F4FCE0101960E94179BBE01D4
:105410006F5F7F4F85E00E9484D3CE0101960E948A
:10542000DC9ABE01635F7F4FCE0101960E94179BFD
:10543000BE016F5F7F4F86E00E9484D3CE0101964C
:105440000E94DC9A96C50E94179BBE016F5F7F4F3A
:10545000812F0E9484D3CE0101960E94DC9A89C5D7
:1054600066E373E0CE0101960E94E19ABE016F5F90
:105470007F4FC8010E94F299F82ECE0101960E943A
:10548000DC9AFF2099F0CE010D960E945A9981E096
:10549000611101C080E08093190281116AC562E246
:1054A00073E089E891E10E94439E63C569E173E07E
:1054B000CE0101960E94E19ABE016F5F7F4FC80145
:1054C0000E94F299F82ECE0101960E94DC9AFF20EC
:1054D000F9F0CE010D960E945A996093DE0564E1C1
:1054E00073E0CE0101960E94E19ABE016F5F7F4F8B
:1054F000CE010D960E94F299182FCE0101960E94BE
:10550000DC9A112309F435C582E08093DE0531C5AC
:105510006BE073E0CE0101960E94E19ABE016F5FDD
:105520007F4FC8010E94F299F82ECE0101960E9489
:10553000DC9AFF2009F4CFC089899A890A9709F07B
:1055400018C511E0E12CF12C01E0B701CE010D9658
:105550000E94E099DC018C919E2DB4E0EB16F104E1
:1055600009F417C5973009F40FC580538A3008F045
:1055700000E01A3029F0FFEFEF1AFF0A1F5FE5CFB6
:10558000002309F4F6C40E9463D1209332113093B2
:105590003311409334115093351160933611709349
:1055A000371160E070E0CE010D960E94E099FC0199
:1055B0002081022E000C330B20533109129F700101
:1055C000139FF00C112461E070E0CE010D960E9453
:1055D000E099DC018C91082E000C990BC0978E0D80
:1055E0009F1D189F7001199FF00C112462E070E05C
:1055F000CE010D960E94E099FC012081022E000C44
:10560000330B205331092E0D3F1D129F7001139F44
:10561000F00C112463E070E0CE010D960E94E09939
:10562000DC018C91082E000C990BC0978E0D9F1DEC
:10563000803DB7E09B0708F0805D8093321165E004
:1056400070E0CE010D960E94E099FC012081022EAF
:10565000000C330B205331091AE0129F7001139F85
:10566000F00C112466E070E0CE010D960E94E099E6
:10567000DC018C91082E000C990BC0978E0D9F1D9C
:105680008093331168E070E0CE010D960E94E0999E
:10569000FC012081022E000C330B20533109129F94
:1056A0007001139FF00C112469E070E0CE010D969B
:1056B0000E94E099DC018C91082E000C990BC09798
:1056C0008E0D9F1D8093341182E391E10E94FB9126
:1056D0000E94D1924EC462E073E0CE0101960E9416
:1056E000E19ABE016F5F7F4FC8010E94F299F82EC8
:1056F000CE0101960E94DC9AFF2009F49CC08989A2
:105700009A89089709F035C421E000E010E0FF24F1
:10571000F394B801CE010D96298F0E94E099FC0107
:105720008081298D0230110509F43CC4053009F44B
:1057300034C480538A3008F0F12C273021F00F5FF9
:105740001F4F2F5FE6CFFF2009F413C40E9463D1DF
:10575000209332113093331140933411509335110B
:10576000609336117093371160E070E0CE010D96B2
:105770000E94E099DC019C9110ED190F61E070E04E
:10578000CE010D960E94E099FC01912F990F292FCF
:10579000220F220F290F8081082E000C990BC09731
:1057A000820F911D8093351163E070E0CE010D965C
:1057B0000E94E099FC01908110ED190F64E070E007
:1057C000CE010D960E94E099FC01912F990F292F8F
:1057D000220F220F290F8081082E000C990BC097F1
:1057E000820F911D8093361166E070E0CE010D9618
:1057F0000E94E099DC019C9110ED190F67E070E0C8
:10580000CE010D960E94E099FC01912F990F292F4E
:10581000220F220F290F8081082E000C990BC097B0
:10582000820F911D8093371182E391E10E94FB91D9
:105830000E94D1929EC36EEF72E0CE0101960E944B
:10584000E19ABE016F5F7F4FC8010E94F299F82E66
:10585000CE0101960E94DC9AFF2009F443C1898998
:105860009A89439709F085C301E0E12CF12C11E0FE
:10587000B701CE010D960E94E099FC0180819E2D1A
:10588000F4E0EF16F10491F0973009F48FC39A30E9
:1058900019F4803269F40DC09D3009F48FC3903142
:1058A00009F489C380538A3018F403C08D3219F08B
:1058B00010E0023129F0BFEFEB1AFB0A0F5FD8CFDF
:1058C000112309F456C30E9463D1209332113093FF
:1058D0003311409334115093351160933611709306
:1058E000371160E070E0CE010D960E94E099DC0176
:1058F0002C91022E000C330B205331091AE0129F19
:105900007001139FF00C112461E070E0CE010D9640
:105910000E94E099FC018081082E000C990BC09731
:105920008E0D9F1D189F7001199FF00C112462E0CD
:1059300070E0CE010D960E94E099DC012C91022EC0
:10594000000C330B205331092E0D3F1D129F7001A7
:10595000139FF00C112463E070E0CE010D960E94BD
:10596000E099FC018081082E000C990BC0978E0DE8
:105970009F1D803DF7E09F0708F0805D8093321106
:1059800065E070E0CE010D960E94E099DC012C915B
:10599000022E000C330B205331091AE0129F7001C4
:1059A000139FF00C112466E070E0CE010D960E946A
:1059B000E099FC018081082E000C990BC0978E0D98
:1059C0009F1D8093331168E070E0CE010D960E9418
:1059D000E099DC012C91022E000C330B205331098D
:1059E000129F7001139FF00C112469E070E0CE014A
:1059F0000D960E94E099FC018081082E000C990B05
:105A0000C0978E0D9F1D809334116BE070E0CE0126
:105A10000D960E94E099DC012C91022E000C330BB4
:105A200020533109129F7001139FF00C11246CE078
:105A300070E0CE010D960E94E099FC018081082E55
:105A4000000C990BC0978E0D9F1D809335116EE051
:105A500070E0CE010D960E94E099DC012C91022E9F
:105A6000000C330B20533109129F7001139FF00C6F
:105A700011246FE070E0CE010D960E94E099FC01C8
:105A80008081082E000C990BC0978E0D9F1D80936E
:105A9000361161E170E0CE010D960E94E099DC01C3
:105AA0002C91022E000C330B20533109129F7001F0
:105AB000139FF00C112462E170E0CE010D960E945C
:105AC000E099FC018081082E000C990BC0978E0D87
:105AD0009F1D8093371182E391E10E94FB910E9408
