:10000000F1C400000C940E580C9439580C946458A8
:100010000C948F580C94BA580C94E5580C941059C1
:100020000C943B5910C500000EC500000CC5000023
:100030000AC5000008C5000006C500000C94FD5567
:1000400002C5000000C50000FEC40000FCC40000A2
:10005000FAC40000F8C40000F6C400000C9467590C
:10006000F2C400000C94945D0C94D85DECC40000C4
:10007000EAC40000E8C40000E6C40000E4C40000D4
:10008000E2C40000E0C40000DEC400000C94485745
:100090000C944D5E0C94915ED6C40000D4C4000054
:1000A000D2C40000D0C40000CEC40000CCC4000004
:1000B000CAC40000C8C40000C6C40000C4C4000014
:1000C000C2C40000C0C40000BEC40000BCC4000024
:1000D000BAC40000B8C40000B6C40000B4C4000034
:1000E000B2C40000E857B257BA57C657D357F457AF
:1000F0000158965A9B5AA05AAA5AB45A2D5BBE5A16
:10010000C65ACE5AD85AE25AEC5AFB5A055B2D5BB6
:100110000F5B195B235B4F5B525B415B455B4B5B4A
:10012000895B565B5A5B605B645B685B6E5B725BB2
:10013000765B895B7C5B805B845B524553455400F6
:100140005745423A005A34443A00504D503A004420
:100150004D553A00504F443A00414C473A00414C0B
:100160004D3A004D41503A0044414C4C3A00434F07
:100170004E3A0054494D3A0053443A206272616B42
:1001800020706C696B7520636F6E6669672E74787A
:10019000740A005858544553545F4E5231207A6EB9
:1001A000616C657A696F6E6F005D00636F6E666982
:1001B000673A205B0049503A206272616B204574B7
:1001C000686572536869656C642E2E2E0A00575755
:1001D000573A7374726F6E6120676F746F77610A3C
:1001E000005757573A7572756368616D69616D2084
:1001F0007374726F6E652E2E2E0A0049503A204F8E
:100200004B2E2E2E0A49503A20002E002E002E0092
:100210000A00576F6C6E792052414D3A0049503AAE
:10022000206B6F6E666967757261636A61207369BE
:100230006563692E2E2E0A00576F6C6E792052412D
:100240004D3A00576F6C6E792052414D3A0053443D
:100250003A20626C6164206F64637A7974752064FB
:10026000616E7963680053443A20626C6164206B6C
:10027000617274790A0053443A206272616B206B98
:10028000617274790A00302E312E302E3337004CD3
:1002900075636A616E20762E00227D00302E312E2D
:1002A000302E3337002C22766572223A22007B22D0
:1002B00074696D65223A006163636573732D636FC2
:1002C0006E74726F6C2D616C6C6F772D6F726967D5
:1002D000696E3A202A0A006163636573732D636F48
:1002E0006E74726F6C2D616C6C6F772D6F726967B5
:1002F000696E3A202A0A006163636573732D636F28
:100300006E74726F6C2D616C6C6F772D6F72696794
:10031000696E3A202A0A00227D00302E312E302EBE
:100320003337002C22766572223A22002274696DDE
:1003300065223A002C002263777532223A20002C85
:10034000002263777531223A20002C0022637A70F4
:100350006F64223A20002C0022706F64223A200041
:100360002C002277656E31223A20002C002277651E
:100370006E30223A20007D5D2C007B2274223A20D0
:10038000007D2C007B22746865726D6F73223A5B6E
:10039000006163636573732D636F6E74726F6C2D90
:1003A000616C6C6F772D6F726967696E3A202A0AEB
:1003B000002E006163636573732D636F6E74726FDB
:1003C0006C2D616C6C6F772D6F726967696E3A2066
:1003D0002A0A0020743A00206F3A0020703A002068
:1003E00049443A0044414C4C415320005757573A36
:1003F000205A61706973616E6F20002062616A74B7
:100400006F7720772000206D7320286F64656272FB
:10041000616E6F20002062616A746F77290A00574D
:1004200057573A204F7477696572616D20005757AE
:10043000573A206272616B20706C696B753A2000CC
:100440005757573A204F64637A797420706C696B00
:10045000753A006163636573732D636F6E74726FB9
:100460006C2D616C6C6F772D6F726967696E3A20C5
:100470002A0A005757573A20426C61642070617213
:10048000736F77616E69612055524C0044414C4C4A
:100490004153204E52203D200044414C4C41533AA0
:1004A000204B6F6E69656320706F737A756B697727
:1004B000616E696120637A756A6E696B6F772E0071
:1004C000202054656D7065726174757261203D20E5
:1004D00000204352433D00202044617461203D20B0
:1004E0000020437A617320706F6272616E696120CF
:1004F00064616E796368207A20637A756A6E696BCD
:1005000061203D200020437A6173206B6F6D656E22
:100510006461206B6F6E776572736A6920646C61C9
:1005200020637A756A6E696B61203D2000204E69F8
:10053000657A6E616E7920445331387878002044B2
:1005400053313832320020445331384232300020A7
:100550004453313853323000626C6164204352435B
:100560000044414C4C41533A204944203D00444111
:100570004C4C41533A20506F637A6174656B207024
:100580006F737A756B6977616E696120637A756ADA
:100590006E696B6F772E0020743A00206F3A00204E
:1005A000703A002049443A0044414C4C41532000E9
:1005B000504B543A2045545800504B543A20535411
:1005C000580030323031303030363030303030302A
:1005D0003030363130330000316253C4F5A697B95C
:1005E00088DBEA7D4C1F2E4372211087B6E5D4FAD2
:1005F000CB98A93E0F5C6D86B7E4D5427320113FBE
:100600000E5D6CFBCA99A8C5F4A796013063527CB5
:100610004D1E2FB889DAEB3D0C5F6EF9C89BAA849A
:10062000B5E6D7407122137E4F1C2DBA8BD8E9C78F
:10063000F6A59403326150BB8AD9E87F4E1D2C0287
:10064000336051C6F7A495F8C99AAB3C0D5E6F4173
:1006500070231285B4E7D67A4B1829BE8FDCEDC320
:10066000F2A1900736655439085B6AFDCC9FAE80D5
:10067000B1E2D344752617FCCD9EAF38095A6B45BD
:1006800074271681B0E3D2BF8EDDEC7B4A192806B1
:10069000376455C2F3A0914776251483B2E1D0FEAA
:1006A000CF9CAD3A0B586904356657C0F1A293BD93
:1006B0008CDFEE79481B2AC1F0A392053467567887
:1006C000491A2BBC8DDEEF82B3E0D1467724153B6F
:1006D0000A5968FFCE9DAC7C3C3E5E2B3D3F2F5BB4
:1006E0005D3B2C2A225C00204F4B0D0A00485454DD
:1006F000502F312E312000436F6E74656E742D546F
:100700007970653A200048544D2A746578742F68D2
:10071000746D6C7C5458542A746578742F706C61B5
:10072000696E7C4353532A746578742F6373737CAA
:10073000584D4C2A746578742F786D6C7C4A532A16
:10074000746578742F6A6176617363726970747C02
:100750004749462A696D6167652F6769667C4A501B
:10076000472A696D6167652F6A7065677C504E47DF
:100770002A696D6167652F706E677C49434F2A69EE
:100780006D6167652F766E642E6D6963726F736F2E
:1007900066742E69636F6E7C4D50332A617564698F
:1007A0006F2F6D7065677C00005EBCE2613FDD838A
:1007B000C29C7E20A3FD1F419DC3217FFCA2401E41
:1007C0005F01E3BD3E6082DC237D9FC1421CFEA031
:1007D000E1BF5D0380DE3C62BEE0025CDF81633D21
:1007E0007C22C09E1D43A1FF4618FAA427799BC511
:1007F00084DA3866E5BB5907DB856739BAE4065801
:100800001947A5FB7826C49A653BD987045AB8E6F0
:10081000A7F91B45C6987A24F8A6441A99C7257BE0
:100820003A6486D85B05E7B98CD2306EEDB3510FD0
:100830004E10F2AC2F7193CD114FADF3702ECC92C0
:10084000D38D6F31B2EC0E50AFF1134DCE90722CB0
:100850006D33D18F0C52B0EE326C8ED0530DEFB1A0
:10086000F0AE4C1291CF2D73CA947628ABF5174990
:100870000856B4EA6937D58B5709EBB536688AD480
:1008800095CB2977F4AA4816E9B7550B88D6346A70
:100890002B7597C94A14F6A8742AC896154BA9F760
:1008A000B6E80A54D7896B3500000A0B02090C0D13
:1008B0000E08070304010000000000000000000013
:1008C0000000000000000000000000000000000028
:1008D00000000000121110000000000000000000E5
:1008E0000000000000000000000000000000010205
:1008F0001020200808102040102040800201020132
:1009000008040201010204081020408080402010E9
:100910000804020180040201804020100804020142
:1009200008040201010204081020408001020408AA
:100930001020408005050505070508080808020283
:1009400002020A0A08080404040401010101010169
:1009500001010303030303030303040707070C0C4C
:100960000C0C0C0C0C0C0202020206060606060613
:1009700006060B0B0B0B0B0B0B0B000020002300D0
:10098000260029002C002F00320000010000030186
:100990000601090100002200250028002B002E007E
:1009A0003100340002010000050108010B010000C4
:1009B0002100240027002A002D003000330001010F
:1009C0000000040107010A017025322C7D2CA030A3
:1009D0006D32F1333C36DF3CD23F9D520A5EC35E3E
:1009E0006E5F182611241FBECFEFD1E2DEBFCDBF50
:1009F00000E00CBF17E0A0E0B2E0EAEEF4ED00E0AA
:100A00000BBF02C007900D92A839B107D9F72FE0AC
:100A1000A8E9B7E001C01D92AF35B207E1F719E0D0
:100A2000C2EED9E000E006C022970109FE010BBF2B
:100A30000E946067C83CD10780E00807A9F70E94C0
:100A400094640C94646ADCCA8CB1829581700895B8
:100A50004F925F926F927F928F929F92AF92BF92CE
:100A6000CF92DF92EF92FF926C01CA01790161305F
:100A7000710509F44EC06230710509F46FC0672B2F
:100A800009F0D0C00E94B15960939C0770939D07F4
:100A900080939E0790939F07109298071092990752
:100AA00010929A0710929B0780915F098111BAC03A
:100AB000C6010E94084E0E94C14E7C01009709F4B5
:100AC000B1C06FE174E082ED9DE00E94BB5FB701B1
:100AD00082ED9DE00E94EC5F67E877E082ED9DE0AB
:100AE0000E94EC5F22E5A70167E779E08AE599E0DB
:100AF0000E945944C701FF90EF90DF90CF90BF90C4
:100B0000AF909F908F907F906F905F904F900C94DC
:100B1000166820915F092223F9F0A701BC018AE53C
:100B200099E00E943845A701662757FD6095762F0A
:100B30008091980790919907A0919A07B0919B078F
:100B4000840F951FA61FB71F80939807909399074E
:100B5000A0939A07B0939B07A89564C08AE599E093
:100B60000E94EA428090980790909907A0909A0777
:100B7000B0909B070E94B1596B017C0180919C074A
:100B800090919D07A0919E07B0919F07C81AD90A1E
:100B9000EA0AFB0A40906D0950906E0960906F0957
:100BA000709070096CEE73E082ED9DE00E94BB5F77
:100BB0002AE030E0B301A20182ED9DE00E94E260F4
:100BC0006BEF73E082ED9DE00E94BB5F2AE030E0B6
:100BD000B701A60182ED9DE00E94E26066E074E04C
:100BE00082ED9DE00E94BB5F2AE030E0B501A401E8
:100BF00082ED9DE00E94E26065E174E082ED9DE09F
:100C00000E94BB5F8AE599E0FF90EF90DF90CF9064
:100C1000BF90AF909F908F907F906F905F904F901C
:100C20000C942F43FF90EF90DF90CF90BF90AF9048
:100C30009F908F907F906F905F904F9008950F934B
:100C40001F93CF93DF938C01EC01629668EC70E008
:100C5000CE010E949E4D67EA72E0C8010E94EE4DEF
:100C6000CE010E94F45F62EB72E0CE010E94EC5F65
:100C700060913E0A70913F0A4AE050E0CE010E9426
:100C8000096166EB72E0CE010E94EC5F6091390A67
:100C900070913A0A4AE050E0CE010E9409616CEB83
:100CA00072E0CE010E94EC5F6091360A7091370AC3
:100CB0004AE050E0CE010E940961809170028823D1
:100CC00029F062EC72E0CE010E94076081E0DF91C2
:100CD000CF911F910F9108957F928F929F92AF9223
:100CE000BF92CF92DF92EF92FF920F931F93CF9319
:100CF000DF935C01EC01629668EC70E0CE010E942B
:100D00009E4D67EA72E0C5010E94EE4DCE010E9441
:100D1000F45F83EAC82E88E0D82E0BE918E0712C26
:100D200064EE73E0CE010E94BB5F4AE050E0672DA5
:100D3000CE010E94EE606FED73E0CE010E94BB5FBA
:100D4000E12CF12C48018E0C9F1CD4018C91803138
:100D500058F4D5015296ED91FC9153970190F08192
:100D6000E02D60E3CE01199540E150E0F40160818F
:100D7000CE010E94EE60FFEFEF1AFF0A88E0E8164E
:100D8000F10401F76BED73E0CE010E94BB5F4AE016
:100D900050E0D6016C91CE010E94EE6067ED73E0E9
:100DA000CE010E94BB5FF801638574854AE050E084
:100DB000CE010E94B56063ED73E0CE010E94BB5F7F
:100DC000D80119966D917C911A974AE050E0CE01B6
:100DD0000E94BC607394BDE0CB0ED11C035F1F4F1B
:100DE000E8E07E129DCF81E0DF91CF911F910F91BE
:100DF000FF90EF90DF90CF90BF90AF909F908F903B
:100E00007F9008950F931F93CF93DF938C01EC0194
:100E1000629668EC70E0CE010E949E4D6FEC72E02D
:100E2000C8010E94EE4D67EF72E0C8010E94BB5FEF
:100E3000CE010E94F45F69ED72E0CE010E9407606E
:100E400081E08093440ADF91CF911F910F91089523
:100E50000F931F93CF93DF938C01EC01629668ECA4
:100E600070E0CE010E949E4D6FEC72E0C8010E94BE
:100E7000EE4D67EB72E0C8010E94BB5FCE010E949D
:100E8000F45F6EEA72E0CE010E94BB5F0E94B1592E
:100E900028EE33E040E050E00E940367BA01A90168
:100EA0002AE030E0CE010E94E26065EA72E0CE0105
:100EB0000E94BB5F6CE972E0CE010E94BB5F69E9F2
:100EC00072E0CE010E94F75F81E0DF91CF911F9128
:100ED0000F9108950F931F93CF93DF938C01EC0133
:100EE000629668EC70E0CE010E949E4D67EA72E067
:100EF000C8010E94EE4DCE010E94F45F4091560A57
:100F00005091570A6091580A7091590A22E030E0D6
:100F1000CE010E9404628AE59AE00E948D564AE062
:100F200050E0682FCE010E94F4606091340A709105
:100F3000350A4AE050E0CE010E9409614091520A10
:100F40005091530A6091540A7091550A2AE030E09A
:100F5000CE010E941D616091320A7091330A4AE00D
:100F600050E0CE010E94BC606091840270918502C5
:100F70004AE050E0CE010E9409614AE050E06091F1
:100F8000490ACE010E94F46060913C0A70E04AE098
:100F900050E0CE010E94BC6060910E0870910F0875
:100FA0004AE050E0CE010E94BC606091140870914C
:100FB00015084AE050E0CE010E94BC606091E40751
:100FC0007091E5074AE050E0CE010E94BC60CE017E
:100FD0000E94F45F6091D9077091DA074AE050E00F
:100FE000CE010E94BC606091D80770E04AE050E0FA
:100FF000CE010E94BC606091D70770E04AE050E0EB
:10100000CE010E94BC6085E40E94F85B892B19F038
:101010006CED72E002C061EE72E0CE010E940760EA
:1010200084E40E94F85B892B19F06CED72E002C039
:1010300061EE72E0CE010E94076081E0DF91CF9106
:101040001F910F9108950F931F93CF93DF938C01FE
:10105000EC01629668EC70E0CE010E949E4D67EA5A
:1010600072E0C8010E94EE4DCE010E94F45F66EB73
:1010700072E0CE010E94EC5F85E40E94F85B4AE0DA
:1010800050E0BC01CE010E94BC606CEB72E0CE016E
:101090000E94EC5F84E40E94F85B4AE050E0BC01EF
:1010A000CE010E94BC6067EE72E0CE010E94EC5F50
:1010B0004AE050E060912F0ACE010E94F4608091D6
:1010C0007002882329F062EC72E0CE010E94076072
:1010D0006091C0097091C1094AE050E0CE010E94C0
:1010E00009614AE050E06091BE09CE010E94F460BF
:1010F00081E0DF91CF911F910F9108950F931F937E
:10110000CF93DF938C01EC01629668EC70E0CE0126
:101110000E949E4D6FEC72E0C8010E94EE4D63EBA1
:1011200073E0C8010E94BB5FCE010E94F45F63EFD1
:1011300072E0CE010E94EC5F85E40E94F85B892B8F
:1011400019F06CED72E002C061EE72E0CE010E9417
:10115000EC5F6DEF72E0CE010E94EC5F6FEF72E02A
:10116000CE010E94EC5F84E40E94F85B892B19F0A9
:101170006CED72E002C061EE72E0CE010E94EC5FA5
:1011800068E073E0CE010E94EC5F81E0DF91CF91D7
:101190001F910F910895811104C0809108018F7DE6
:1011A00003C0809108018062809308010895CF9266
:1011B000DF92EF92FF920F931F93CF93DF9300D0B4
:1011C0001F92CDB7DEB77C016B0100E010E0D701C4
:1011D00014968D919C9115970817190720F5D70142
:1011E0001296ED91FC911397E00FF11F449150E09E
:1011F00060E070E049835A836B837C83642F4AE00C
:1012000050E0C6010E94EE60F7018481958101974C
:101210000817190728F46DEF72E0C6010E94EC5F11
:101220000F5F1F4FD4CF0F900F900F900F90DF9153
:10123000CF911F910F91FF90EF90DF90CF90089585
:10124000EF92FF920F931F93CF93DF93CDB7DEB74B
:101250002C970FB6F894DEBF0FBECDBF7C018C017A
:101260000E5E1F4F68EC70E0C8010E949E4D6FEC4F
:1012700072E0C7010E94EE4D67ED72E0C7010E9467
:10128000BB5FC8010E94F45FC7010E94084EBC0109
:10129000CE0107960E94C5626AE073E0CE01019616
:1012A0000E94C562BE016F5F7F4FCE0107960E940C
:1012B000AC63F82ECE0101960E945E62FF20C1F061
:1012C0002B853C854AE050E0BE01695F7F4FCE012F
:1012D00001960E94EA63CE0101960E9489646093A0
:1012E0002008CE0101960E945E6269ED72E002C0A4
:1012F00065E173E0C8010E940760CE0107960E9475
:101300005E6281E02C960FB6F894DEBF0FBECDBFB3
:10131000DF91CF911F910F91FF90EF900895DC0125
:10132000ED91FC910190F081E02D1994813410F041
:10133000875301C08053613410F0675301C060537C
:1013400020E1829FC0011124862B0895CF93DF9363
:1013500000D01F92CDB7DEB79091CB09923019F033
:1013600069EB75E011C02091C70930E02553364F75
:10137000F90131979081933029F4A1E040E090E0A9
:10138000029707C060EB75E082ED9DE00E94F75F79
:1013900025C06A2F70E068177907ACF4FB01E553AC
:1013A000F64F60816427E0913409F0913509E60F2A
:1013B000F11D449150E060E070E049835A836B83F3
:1013C0007C83AF5FE6CFF90132978081841741F0CB
:1013D00068E173E082ED9DE00E94076080E001C05B
:1013E00081E00F900F900F900F90DF91CF910895B3
:1013F00080910309882329F080910309815080930B
:10140000030908950F931F93CF93DF930BE918E01F
:10141000C0E0D0E048E050E0B80188E099E00E94E8
:10142000EF69892B41F02196035F1F4FC830D1052A
:1014300089F7CFEFDFEFCE01DF91CF911F910F91B1
:10144000089590911E09973011F160E04DE0949F4E
:1014500090011124462F50E0F901E40FF51FE556E5
:10146000F74FDA01A85FB64F4C91408341E0460F39
:10147000483010F4642FEECF40931F09F901E55670
:10148000F74F80879F5F90931E0981E0089580E069
:101490000895BF92CF92DF92EF92FF920F931F9326
:1014A000CF93DF9393EAE92E98E0F92ECBE9D8E0C9
:1014B000B12C68EA75E082ED9DE00E94BB5F4AE0D6
:1014C00050E06B2D82ED9DE00E94EE6063EA75E0D6
:1014D00082ED9DE00E94BB5F00E010E06E01C00E57
:1014E000D11EF6018081803128F460E370E082ED46
:1014F0009DE015DF40E150E0F601608182ED9DE066
:101500000E94EE600F5F1F4F0830110539F76FE939
:1015100075E082ED9DE00E94BB5F4AE050E0F7017C
:10152000608182ED9DE00E94EE606BE975E082EDE6
:101530009DE00E94BB5F6B857C854AE050E082EDB8
:101540009DE00E94B56067E975E082ED9DE00E9434
:10155000BB5F69857A854AE050E082ED9DE00E949C
:10156000BC60B394FDE0EF0EF11C2D9688E0B8123C
:10157000A0CFDF91CF911F910F91FF90EF90DF905F
:10158000CF90BF90089580E299E00E94B65280E229
:1015900099E00E94D05341E064E480E299E00C9429
:1015A0004953CF9380E299E00E94B65280931D097F
:1015B00068E079E080E299E00E94A55340E06EEB9C
:1015C00080E299E00E94495310921F09C0911F09BF
:1015D000C93078F480E299E00E948A53EC2FF0E061
:1015E000E05FF64F808380911F098F5F80931F0912
:1015F000EDCF68E080E199E00E94995491E020915C
:101600001809821390E0892FCF91089580910809DD
:10161000823241F0883231F0803121F481E08093D0
:101620001C0902C010921C092091110930E0322FD0
:10163000222780911009282B80911C09882399F07A
:1016400073E0220F331F7A95E1F7809117098031FB
:10165000F9F4409116098CE090E0841B9109207FF9
:10166000280F391F15C080911409807631F463E08A
:10167000220F331F6A95E1F70BC0803229F4220F45
:10168000331F220F331F04C0803411F4220F331F85
:101690004AE0429FC001439F900D112497FD0F9691
:1016A00024E0959587952A95E1F70895AF92BF922A
:1016B000CF92DF92EF92FF920F931F93CF93DF931E
:1016C0006EE675E082ED9DE00E94F75F82ED9DE0A1
:1016D0000E94F45F1DE0CCE0D0E068E079E080E2B9
:1016E00099E00E940654882309F491C161E675E0EF
:1016F00082ED9DE00E94BB5F10921F09E0911F09DF
:10170000E830E8F4F0E0E85FF64F008160E270E076
:1017100082ED9DE004DE003128F460E370E082EDAC
:101720009DE0FDDD40E150E0602F82ED9DE00E94F4
:10173000EE6080911F098F5F80931F09DFCF67E004
:1017400088E099E00E94995490910F09891739F027
:1017500068E575E082ED9DE00E94F75FBECF809165
:101760000809823289F0883261F08031B1F46FE487
:1017700075E082ED9DE00E94F75F81E080931C0997
:101780001CC066E475E002C06EE375E082ED9DE08A
:101790000E94F75F10921C0910C06DE275E082EDA7
:1017A0009DE0DF91CF911F910F91FF90EF90DF901F
:1017B000CF90BF90AF900C94F75F0E94B1596093A7
:1017C0000409709305098093060990930709DBDEED
:1017D0000E94B159C0900409D0900509E090060913
:1017E000F09007096C197D098E099F09609304091F
:1017F00070930509809306099093070965E075E0E9
:1018000082ED9DE00E94BB5F409104095091050963
:1018100060910609709107092AE030E082ED9DE0B1
:101820000E94D26068EE73E080E090E00E94E05990
:101830000E94B159609304097093050980930609C9
:1018400090930709AEDE0E94B159C0900409D09070
:101850000509E0900609F09007096C197D098E09C9
:101860009F0960930409709305098093060990937A
:10187000070961EE74E082ED9DE00E94BB5F40913C
:1018800004095091050960910609709107092AE041
:1018900030E082ED9DE00E94D26067ED74E082ED61
:1018A0009DE00E94BB5F40E150E060911D0982ED28
:1018B0009DE00E94EE6060E270E082ED9DE02FDD31
:1018C00010921F0980911F098930F8F460E270E0DE
:1018D00082ED9DE024DDE0911F09F0E0E05FF64F2E
:1018E0000081003128F460E370E082ED9DE017DDB7
:1018F00040E150E0602F82ED9DE00E94EE6080911B
:101900001F098F5F80931F09DDCF61ED74E082EDC9
:101910009DE00E94BB5F68E080E199E00E949954DD
:1019200040E150E0682F82ED9DE00E94EE6082ED84
:101930009DE00E94F45F6091110970E0762F6627A8
:1019400080911009682B80911C09882391F003E095
:10195000660F771F0A95E1F7809117098031F1F43E
:10196000809116099E01281B3109607F620F731F49
:1019700015C080911409807631F4B3E0660F771FAB
:10198000BA95E1F70BC0803229F4660F771F660F16
:10199000771F04C0803411F4660F771F882777FD06
:1019A0008095982F0E94A66520E030E040E85DE336
:1019B0000E945A666B017C0160EC74E082ED9DE050
:1019C0000E94BB5F22E030E0B701A60182ED9DE0FE
:1019D0000E94046281E035DD80911E0990E001974C
:1019E000189F5001199FB00C1124C5018556974FBF
:1019F0005C0120E030E040E251E4C701B6010E9402
:101A00005A660E947365F5017287618766CE69E93F
:101A100074E082ED9DE00E94F75F82ED9DE00E9400
:101A2000F45F80E299E00E94D3536AEF70E080E0B7
:101A300090E0DF91CF911F910F91FF90EF90DF9099
:101A4000CF90BF90AF900C94E05980E299E00E9453
:101A5000D3536AEF70E080E090E00E94E05926DE08
:101A600018CDCF93DF9380911E09882309F43CC0E1
:101A7000C0919A08C11105C088E08093030983DDF5
:101A800026C080910309811127C0C1509DE0C99FE4
:101A9000E0011124E82FF0E0DF01A85FB64FEC0F62
:101AA000FD1FE556F74F90819C938F5F883090F330
:101AB00080931F0976DDC556D74F882339F0A6DD00
:101AC0009A87898780911D09888701C0188680912F
:101AD0009A088F5F80939A0890919A0880911E09C6
:101AE000891710F410929A08DF91CF9108956F92A0
:101AF0007F928F929F92AF92BF92CF92DF92EF929E
:101B0000FF920F931F93CF93DF9340913C09509125
:101B10003D0960913E0970913F0910914009009183
:101B20004109F0904209E0904309D0904409C090E7
:101B30004509B0904609A0904709909048098090C7
:101B4000490970904A0960904B0920911E09EAE406
:101B5000F8E0ADE4B8E03DE0ED0121978881823006
:101B600041F58C91882389F0813091F0823099F091
:101B7000833099F0843099F0853099F0863099F06F
:101B8000873099F099E18CEF11C0942F852F0EC00A
:101B9000962F872F0BC0C80109C0C70107C0C60117
:101BA00005C0C50103C0C40101C0C3019083818386
:101BB00014C0833081F4CC91C21740F43C9FE00103
:101BC0001124C556D74F89859A8502C08AE19CEFBA
:101BD0009183808302C0118210823596159688E029
:101BE000EA39F80709F0B8CFDF91CF911F910F9133
:101BF000FF90EF90DF90CF90BF90AF909F908F902D
:101C00007F906F900895CF93DF93C82FDD27C7FD96
:101C1000D095CE010E94C369892B49F0CE010E9464
:101C2000DE6990ED980F9A3020F0875303C08FEF54
:101C300001C0892FDF91CF9108959F92AF92BF92FB
:101C4000CF92DF92EF92FF920F931F93CF93DF9388
:101C5000CDB7DEB72C970FB6F894DEBF0FBECDBF61
:101C60006C018B01CB010E942D646BE5C8010E94C1
:101C7000E7637C0197FDA4C1AC016DE5C8010E943A
:101C8000CC635C01A7016CE2C8010E94CC631A140A
:101C90001B040CF095C163E373E0CE0107960E942C
:101CA000C562BE01695F7F4FC8010E94AC638111AC
:101CB00016C06AED75E0CE0101960E94C562BE01B4
:101CC0006F5F7F4FC8010E94AC63BB24B394811146
:101CD00001C0B12CCE0101960E945E6202C0BB24FD
:101CE000B394CE0107960E945E62BB2009F4B3C094
:101CF000F80124813581A7014F5F5F4FB801CE0104
:101D000001960E94EA63BE016F5F7F4FC8010E9487
:101D10002B63CE0101960E945E62C8010E942D6471
:101D200061E273E0CE0101960E94C562BE016F5F61
:101D30007F4FC8010E94AC63F82ECE0101960E942D
:101D40005E62F11025C167EE75E0CE0101960E943A
:101D5000C562BE016F5F7F4FC8010E94AC63F82E61
:101D6000CE0101960E945E62F11014C16FEE75E023
:101D7000CE0101960E94C562BE016F5F7F4FC80110
:101D80000E94AC63F82ECE0101960E945E62F110B3
:101D900003C169EF75E0CE0101960E94C562BE01E4
:101DA0006F5F7F4FC8010E94AC63F82ECE01019691
:101DB0000E945E62F110F2C06EEF75E0CE010196F6
:101DC0000E94C562BE016F5F7F4FC8010E94AC6375
:101DD000F82ECE0101960E945E62F110E1C063E030
:101DE00076E0CE0101960E94C562BE016F5F7F4F13
:101DF000C8010E94AC63F82ECE0101960E945E627B
:101E0000F110D0C068E076E0CE0101960E94C56274
:101E1000BE016F5F7F4FC8010E94AC63F82ECE01F8
:101E200001960E945E62F110BFC061E176E0CE01D2
:101E300001960E94C562BE016F5F7F4FC8010E947C
:101E4000AC63182FCE0101960E945E62112309F443
:101E5000B7C087E0AAC064E273E0CE0101960E9499
:101E6000C562BE016F5F7F4FC8010E94AC63B82E90
:101E7000CE0101960E945E62BB2009F45AC0FFEFBA
:101E8000EF1AFF0AA12CB12CB701C8010E94BA6356
:101E9000FC018081B8DE982E929490EF9922B701D0
:101EA0006F5F7F4FC8010E94BA63FC018081ABDE87
:101EB000F501F595E795E85FF64F890D8083F2E02F
:101EC000AF0EB11C82E0E80EF11CE0E1AE16B104E9
:101ED000D9F698DA8C0197FF13C080E0B2DA882334
:101EE000D1F000911E0910E0015011098DE0809F92
:101EF000F001819FF00D1124E556F74F12861186EF
:101F000085E08C9DF0018D9DF00D1124E65BF74F6F
:101F100083E0828303836CE874E082ED9DE00E949D
:101F2000BB5F4AE050E0B80182ED9DE00E94BC60DA
:101F300047C06BE273E0CE0101960E94C562BE010C
:101F40006F5F7F4FC8010E94AC63F82ECE010196EF
:101F50000E945E62FF2059F085E08C9DF0018D9D0E
:101F6000F00D1124E65BF74F81E0828329C060E326
:101F700073E0CE0101960E94C562BE016F5F7F4F84
:101F8000C8010E94AC63CE0101960E945E6218C037
:101F900080E00BC081E009C082E007C083E005C09B
:101FA00084E003C085E001C086E095E09C9DF001DF
:101FB0009D9DF00D1124E65BF74F92E092838383A1
:101FC0002C960FB6F894DEBF0FBECDBFDF91CF9138
:101FD0001F910F91FF90EF90DF90CF90BF90AF9047
:101FE0009F90089580911C0890911D08892B49F0BD
:101FF00080911C0890911D08019790931D08809373
:102000001C088091180890911908892B49F080913B
:10201000180890911908019790931908809318084F
:102020008091160890911708892B49F08091160825
:102030009091170801979093170880931608809144
:102040001A0890911B08892B49F080911A089091E9
:102050001B08019790931B0880931A080895AF926C
:10206000BF92CF92DF92EF92FF920F931F9397FD53
:1020700006C0853691052CF084E690E002C080E031
:1020800090E0BC01882777FD8095982F1F921F92C2
:102090001F922FEF2F93A12CB12C650114E6E12E96
:1020A000F12C00E010E020E030E0A9010E94146271
:1020B0007093E5076093E4070F900F900F900F90D7
:1020C00020911F08222341F02FEF30E0261B370B11
:1020D0003093E5072093E4076091E4077091E507EA
:1020E0008CE01F910F91FF90EF90DF90CF90BF9009
:1020F000AF900C94725A61E08CE00E948A5B80E0A1
:1021000090E0ADDF61E088E00E948A5B60E088E0FB
:102110000E94C35B61E083E40E948A5B60E083E429
:102120000E94C35B60E070E086EE97E00E9431564B
:1021300088EE93E0A0E0B0E080930A0890930B084B
:10214000A0930C08B0930D080895CF93C0913D0A59
:1021500040913E0A50913F0A8091140890911508D1
:10216000909313088093120860912F0A262F30E075
:102170003093150820931408E0913C0A70912008D0
:10218000EE2319F070FD08C002C071FD05C070910A
:102190003308733009F0D6C020911008309111082F
:1021A0002115310531F5662321F10097C9F4A0917D
:1021B0002308B09124088AE08A9FF0018B9FF00DDC
:1021C0001124F0931B08E0931A08E1E0F0E0F0938B
:1021D0000F08E0930E0880913B0A8093A00709C086
:1021E0001816190634F4E3E0F0E0F0930F08E093DA
:1021F0000E087AE0C79FC001112471E04817590703
:1022000008F070E080911A0890911B08892B21F04A
:10221000662311F07111FFC080910E0890910F0894
:10222000019739F480911A0890911B08892B09F4C1
:10223000FBC08091C30981110BC08091C409882320
:1022400039F080911A0890911B08892B09F4F3C08A
:1022500080910E0890910F08049739F48091160828
:1022600090911708892B09F4FFC08091160890916E
:102270001708892B71F080911408909115084091EE
:102280002F0850913008840F951F90931508809364
:1022900014088091A007882309F44BC01216130676
:1022A000B4F4611114C020912108309122084AE051
:1022B000429FC001439F900D112490931D0880936D
:1022C0001C0885E090E090930F0880930E088091A1
:1022D0001C0890911D08892B19F0662309F4CBC0C6
:1022E00080911C0890911D08892B49F480910E085B
:1022F00090910F08059719F4662309F4C5C08091E1
:102300000E0890910F08069751F5611128C07111C0
:102310000BC080912D0890912E08009729F0909382
:102320001508809314081BC0109215081092140809
:1023300012C080910E0890910F08039781F46111EB
:102340000EC009C0232B39F083E090E090930F0872
:1023500080930E0804C010920F0810920E0880910E
:10236000140890911508009751F020911E08820FD3
:10237000911D27FD9A9590931508809314088091DC
:1023800014089091150897FF04C010921508109238
:10239000140880911408909115088536910534F041
:1023A00084E690E090931508809314088091560974
:1023B00090915709A0915809B091590986709927B1
:1023C000AA27BB27892B8A2B8B2B21F0109215086B
:1023D00010921408809114089091150840DE6091C5
:1023E000140886EE97E00E94A554809114089091FD
:1023F00015081816190614F460E001C061E088E0C1
:102400000E94C35B80912F0A90E090931108809303
:102410001008CF91089580912B0890912C089093EB
:10242000150880931408F8CE83E090E090930F088D
:1024300080930E08FECE4091270850912808EAE0CC
:10244000E49FC001E59F900D11249093170880939D
:10245000160884E090E090930F0880930E08809116
:102460003B0A8093A007F4CE83E090E090930F089E
:1024700080930E08FACE8091290890912A089093B3
:102480001508809314082CCF86E090E090930F08F5
:1024900080930E0834CF9091560991FD0FC02AE029
:1024A000829FC00111249093E3078093E20781E0AB
:1024B0008093C40961E080E40C94C35B089580912B
:1024C000560990915709A0915809B0915909AC014A
:1024D000BD017695679557954795E42FE17040FDCE
:1024E00028C020915608222321F1209132084AE089
:1024F000249F9001112440915408509155082417AD
:102500003507BCF46091310848E552E0649F9001C2
:10251000659F300D11243093E3072093E20782601A
:102520008093560990935709A0935809B09359097D
:1025300019C082FF07C060E080E40E94C35B109274
:10254000C4090895E11116C080913308813091F4D7
:102550008091C409882371F08091E2079091E3078C
:10256000892B41F461E080E40E94C35B81E08093A9
:10257000C40908958091E2079091E307892BD9F26D
:10258000F1CF60E08FE30E94C35B61E08FE30E94C4
:102590008A5B60E085E40E94C35B61E085E40E94A1
:1025A0008A5B60E084E40E94C35B61E084E40E9493
:1025B0008A5B8AE58093360898E29093370881E039
:1025C0008093330822E3209334081092350822E0E8
:1025D000209338088093390810923A0880933B087A
:1025E00090933C0810923E0810923F088093400858
:1025F000089580913E0A90913F0A20913D0A4AE059
:10260000249F900111242253310961E0821793071E
:1026100008F460E06093410A2091420A3091430A35
:102620002550310941E08217930708F440E04093B8
:10263000400A2091C609222311F0611102C050E026
:1026400001C0542F5093D807873272E0970748F0A3
:102650002091360A3091370A2632324010F4611147
:1026600001C040E04093D707511103C0442309F44F
:1026700056C08091DB079091DC07892B09F067C079
:102680008091D9079091DA079C012B7F232BA1F42D
:10269000552379F081E090E09093DA078093D90791
:1026A0008CE291E09093DC078093DB0761E085E4A6
:1026B0003FC082E090E01AC08130910519F482E0B9
:1026C00090E01DC082309105B1F4442369F083E0AD
:1026D00090E09093DA078093D9078CE291E0909391
:1026E000DC078093DB0722C084E090E09093DA0758
:1026F0008093D9072CC0039751F584E090E0909324
:10270000DA078093D90788E592E09093DC078093FD
:10271000DB0760E085E40E94C35B60E008C08132B3
:10272000934048F061E085E40E94C35B61E084E48B
:102730000E94C35B0CC060E085E40E94C35B60E064
:1027400084E40E94C35B1092DA071092D90780914B
:102750003E0A90913F0A9093430A8093420A08955B
:1027600060914C088091560990915709A0915809A1
:10277000B0915909662301F1209136084AE0249F5F
:102780009001112440914A0850914B0824173507B5
:102790009CF484608093560990935709A09358093C
:1027A000B093590961E08FE30E94C35B61E085E467
:1027B0000E94C35B61E034C082FF1AC0662391F1BE
:1027C000209136087AE0279F9001112440914A0811
:1027D00050914B08421753076CF424E082278093F2
:1027E000560990935709A0935809B09359091AC0F4
:1027F0006623C1F0809137083AE0839FC00111241D
:1028000020914A0830914B08281739075CF460E0A2
:102810008FE30E94C35B60E085E40E94C35B60E0DD
:1028200084E4BEC080913808813021F080913A085C
:102830008130C9F4809170028823A9F01092C509F3
:102840001092C60960E08FE30E94C35B60E085E4FC
:102850000E94C35B60E084E40E94C35B1092DA07CD
:102860001092D907089580913A08843011F4C1DE9E
:102870006EC0813031F48091C609882331F061E067
:1028800005C080913B08813029F060E085E40E941A
:10289000C35B5DC0809165088823B9F320913D0832
:1028A0008091630890916408222371F16623A9F056
:1028B0006AE0269FA00111248417950774F04091C7
:1028C0004A0850914B08481759073CF461E085E4E9
:1028D0000E94C35B82E090E02BC04091D5075091ED
:1028E000D6074230510581F47AE0279F90011124E8
:1028F000821793074CF460E085E40E94C35B10925A
:10290000D6071092D50723C020913C084AE0249FA7
:102910009001112440913E08B901641B710986178A
:1029200097075CF461E085E40E94C35B81E090E07E
:102930009093D6078093D5070AC04091D507509150
:10294000D6074130510519F428173907A4F28091B0
:102950003F088330B9F480916508882399F080910D
:1029600041087AE0879FC0011124209163083091CB
:1029700064082817390714F061E001C060E084E4BE
:102980000E94C35B80913808813031F48091C50981
:10299000882321F061E003C0823021F060E08FE302
:1029A0000C94C35B809139088130C1F780914C0849
:1029B000EFCFFF920F931F93CF93DF93CDB7DEB787
:1029C0002C970FB6F894DEBF0FBECDBF8C0163E32A
:1029D00073E0CE0107960E94C562BE01695F7F4F1A
:1029E000C8010E94AC63811116C06AED75E0CE018A
:1029F00001960E94C562BE016F5F7F4FC8010E94B1
:102A0000AC63FF24F394811101C0F12CCE01019637
:102A10000E945E6202C0FF24F394CE0107960E94DA
:102A20005E62F11028C069E373E0CE0101960E9456
:102A3000C562BE016F5F7F4FC8010E94AC63F82E74
:102A4000CE0101960E945E62F11017C06DE373E043
:102A5000CE0101960E94C562BE016F5F7F4FC80123
:102A60000E94AC63182FCE0101960E945E62112372
:102A700031F082E005C081E003C083E001C080E066
:102A80002C960FB6F894DEBF0FBECDBFDF91CF916D
:102A90001F910F91FF900895FF920F931F93CF9373
:102AA000DF93CDB7DEB72C970FB6F894DEBF0FBE1D
:102AB000CDBF8C0163E373E0CE0107960E94C5622F
:102AC000BE01695F7F4FC8010E94AC63811116C0CF
:102AD0006AED75E0CE0101960E94C562BE016F5F8E
:102AE0007F4FC8010E94AC63FF24F394811101C0A1
:102AF000F12CCE0101960E945E6202C0FF24F39485
:102B0000CE0107960E945E62F11041C060E473E05E
:102B1000CE0101960E94C562BE016F5F7F4FC80162
:102B20000E94AC63F82ECE0101960E945E62F11005
:102B300028C066E473E0CE0101960E94C562BE0122
:102B40006F5F7F4FC8010E94AC63F82ECE010196E3
:102B50000E945E62F11017C06DE473E0CE01019631
:102B60000E94C562BE016F5F7F4FC8010E94AC63C7
:102B7000182FCE0101960E945E62112331F083E08E
:102B800007C082E005C084E003C080E001C081E0AE
:102B90002C960FB6F894DEBF0FBECDBFDF91CF915C
:102BA0001F910F91FF900895FF920F931F93CF9362
:102BB000DF9300D000D0CDB7DEB78C0167E573E0BE
:102BC000CE0101960E94C562BE016F5F7F4FC801B2
:102BD0000E94AC63F82ECE0101960E945E62F11055
:102BE00015C06EE573E0CE0101960E94C562BE017C
:102BF0006F5F7F4FC8010E94AC63182FCE01019612
:102C00000E945E62112311F082E001C081E02696ED
:102C10000FB6F894DEBF0FBECDBFDF91CF911F91ED
:102C20000F91FF900895FF920F931F93CF93DF931F
:102C3000CDB7DEB72C970FB6F894DEBF0FBECDBF71
:102C40008C0163E373E0CE0107960E94C562BE016A
:102C5000695F7F4FC8010E94AC63811116C06AEDA5
:102C600075E0CE0101960E94C562BE016F5F7F4F85
:102C7000C8010E94AC63FF24F394811101C0F12CC0
:102C8000CE0101960E945E6202C0FF24F394CE0141
:102C900007960E945E62F11028C068E673E0CE01DC
:102CA00001960E94C562BE016F5F7F4FC8010E94FE
:102CB000AC63F82ECE0101960E945E62F11017C03F
:102CC0006DE673E0CE0101960E94C562BE016F5FA2
:102CD0007F4FC8010E94AC63182FCE0101960E945D
:102CE0005E62112331F083E005C081E003C082E021
:102CF00001C080E02C960FB6F894DEBF0FBECDBFAA
:102D0000DF91CF911F910F91FF9008954F925F92A5
:102D10006F927F928F929F92AF92BF92CF92DF92EB
:102D2000EF92FF920F931F93CF93DF9380917C02DA
:102D30002AE0829FC0011124C8EDD6E0FDE78F2E66
:102D4000F2E09F2E6091320A7091330A29914AE095
:102D500024029001112462177307A4F148815AE0FC
:102D6000450270011124E616F70664F1D401EC91D6
:102D70001197AC90BAE0AB9E50011124CC24B7FC63
:102D8000C094DC2C0027F7FC0095102F442737FD5A
:102D90004095542F882777FD8095982FAAE0EA9FC9
:102DA000F00111242F01662457FC6094762C7F9249
:102DB0006F925F924F920E941462CB010F900F901E
:102DC0000F900F90BFEF8B1A9B0A26E0CD3DD207E4
:102DD00009F0B8CF2091320A3091330A27393105F2
:102DE00034F0809181024AE0849FC0011124DF9178
:102DF000CF911F910F91FF90EF90DF90CF90BF90F8
:102E0000AF909F908F907F906F905F904F900895BC
:102E1000CF93DF938091560982FF06C061E081E481
:102E2000DF91CF910C94C35B8091820290918302D9
:102E30008230910599F58091C2098823B9F061E04B
:102E400082E40E94C35B8091890290918A029093F0
:102E5000460A8093450A81E090E090938302809334
:102E600082021092480A1092470A7FC08091C509D9
:102E7000882309F47AC020913E0A30913F0A80915C
:102E80008402909185028217930708F06EC08091AA
:102E9000450A9091460A892B31F167C0019709F0E4
:102EA00064C08091450A9091460A892B09F05DC063
:102EB00060E082E40E94C35B60E081E40E94C35B47
:102EC0008091C209811151C0809186029091870240
:102ED0009093460A8093450A82E090E090938302A3
:102EE0008093820242C012DF909385028093840215
:102EF0002091300A3091310A82179307B1F1EC0129
:102F0000C21BD30B8217930718F461E082E405C05B
:102F10002817390750F561E081E40E94C35B809176
:102F2000880290E09093460A8093450A81E090E001
:102F30009093830280938202CA30D105B0F48091CD
:102F4000450A9091460A969587959093460A8093F4
:102F5000450A259750F48091450A9091460A969526
:102F600087959093460A8093450ADF91CF91089503
:102F70008091690290916A02A0916B02B0916C02FB
:102F8000892B8A2B8B2B99F08091690290916A0290
:102F9000A0916B02B0916C020197A109B1098093D5
:102FA000690290936A02A0936B02B0936C02089539
:102FB0008091450A9091460A892B49F08091450AF3
:102FC0009091460A01979093460A8093450A809112
:102FD0005F0A882329F080915F0A815080935F0AFD
:102FE00001D88091DB079091DC07892B49F0809113
:102FF000DB079091DC0701979093DC078093DB0758
:103000008091E2079091E307892B49F08091E207D4
:103010009091E30701979093E3078093E2078091F3
:10302000C409882329F08091DD078F5F8093DD0735
:103030008091DD078A30A9F41092DD078091DE07C8
:103040009091DF07A091E007B091E1070196A11DE3
:10305000B11D8093DE079093DF07A093E007B09344
:10306000E1070E94F80984CF8AE0809342088093A8
:1030700043082EE12093440898E2909345088093FA
:1030800046082093470890934808089580914C087B
:103090008823D9F0509134082AE0529FC0011124AE
:1030A00020913508821B910920914A0830914B08E4
:1030B0002817390784F040E06AE0569FC0011124C8
:1030C000281739070CF07EC001C040E080916802EB
:1030D000811178C004C01092680241E0EDCF442312
:1030E00009F464C08091D3079091D407009709F048
:1030F0004DC062E773E082ED9DE00E940760809121
:10310000480880932F0A80914608C5D980914708C6
:103110002091460830E040E050E0280F311D411D6D
:10312000511DAAE0B0E00E94566760936902709357
:103130006A0280936B0290936C026091E207709137
:10314000E3074AE050E082ED9DE00E940961409172
:10315000690250916A0260916B0270916C022AE0E0
:1031600030E082ED9DE00E941D610E94B1596093A4
:10317000CF077093D0078093D1079093D20781E057
:1031800090E09093D4078093D30718C00197B1F4CF
:103190008091690290916A02A0916B02B0916C02D9
:1031A000892B8A2B8B2B09F485C008C067E773E055
:1031B00082ED9DE00E94076010922F0A80E08093CC
:1031C000680208958091D3079091D407009709F081
:1031D00046C08091690290916A02A0916B02B09101
:1031E0006C02892B8A2B8B2B09F062C06CE773E091
:1031F00082ED9DE00E9407608091450880932F0A30
:103200008091430848D9809144082091430830E0D8
:1032100040E050E0280F311D411D511DAAE0B0E0F3
:103220000E9456676093690270936A0280936B02F2
:1032300090936C024091690250916A0260916B0216
:1032400070916C022AE030E082ED9DE00E941D61E9
:1032500081E090E09093D4078093D307B0CF01979B
:1032600039F58091690290916A02A0916B02B09148
:103270006C02892B8A2B8B2BD9F461E873E082EDE9
:103280009DE00E9407602091420830E0A8E5B2E08E
:103290000E9447676093690270936A0280936B0291
:1032A00090936C0210922F0A1092D4071092D307B9
:1032B00081E085CF66E873E082ED9DE00E940760C3
:1032C0000E94B159AB01BC018091CF079091D0070A
:1032D000A091D107B091D207481B590B6A0B7B0B09
:1032E0002AE030E082ED9DE00E941D611092D4073B
:1032F0001092D30763CF8091C4098093C309809152
:103300003308813091F480917002882329F0109263
:103310002F0A1092C40908958091520980932F0AB0
:10332000809150098093C40908958250823078F7C3
:10333000ADCE7F928F929F92AF92BF92CF92DF924B
:10334000EF92FF920F931F93CF93DF93CDB7DEB72A
:1033500069970FB6F894DEBF0FBECDBF8E010D5E2C
:103360001F4F68E877E0C8010E94C56264E170E021
:10337000C8010E948C6221E04BE853E067E779E0E6
:103380008AE599E00E945944882311F40C94E321C2
:10339000F02EE12E82E0D82E93E0C92E24E0B22E4A
:1033A00035E0A32E46E0942E57E0852E41E050E014
:1033B000BE01675E7F4F8AE599E00E940041892B3C
:1033C00009F4FCC7698D6A3031F06D3021F0C80115
:1033D0000E947663EBCF6BEA71E082ED9DE00E9484
:1033E000BB5FB80182ED9DE00E94DE5F69EA71E09B
:1033F00082ED9DE00E94F75F6DE3C8010E94E763E4
:103400002F89388D121613060CF0D1C78F3F4FEF5E
:10341000940709F4CCC7AC014F5F5F4FB801CE01F0
:103420000D960E94EA63CE010D960E942D6466E916
:1034300073E0CE0101960E94C562BE016F5F7F4FAF
:10344000C8010E94AC63782ECE0101960E945E6294
:10345000772039F0CE010D960E948964609378023E
:10346000A2C76AE973E0CE0101960E94C562BE015F
:103470006F5F7F4FC8010E94AC63782ECE0101962A
:103480000E945E62772039F0CE010D960E94896419
:103490006093790288C76EE973E0CE0101960E94BD
:1034A000C562BE016F5F7F4FC8010E94AC63782E7A
:1034B000CE0101960E945E62772039F0CE010D9612
:1034C0000E94896460937A026EC762EA73E0CE015B
:1034D00001960E94C562BE016F5F7F4FC8010E94C6
:1034E000AC63782ECE0101960E945E62772039F09F
:1034F000CE010D960E94896460937B0254C766EAF0
:1035000073E0CE0101960E94C562BE016F5F7F4FDE
:10351000C8010E94AC63782ECE0101960E945E62C3
:10352000772039F0CE010D960E9489646093720273
:103530003AC76BEA73E0CE0101960E94C562BE01F4
:103540006F5F7F4FC8010E94AC63782ECE01019659
:103550000E945E62772039F0CE010D960E94896448
:103560006093730220C760EB73E0CE0101960E9466
:10357000C562BE016F5F7F4FC8010E94AC63782EA9
:10358000CE0101960E945E62772039F0CE010D9641
:103590000E9489646093740206C765EB73E0CE01F4
:1035A00001960E94C562BE016F5F7F4FC8010E94F5
:1035B000AC63782ECE0101960E945E62772039F0CE
:1035C000CE010D960E94896460937502ECC66AEB89
:1035D00073E0CE0101960E94C562BE016F5F7F4F0E
:1035E000C8010E94AC63782ECE0101960E945E62F3
:1035F000772039F0CE010D960E948964609376029F
:10360000D2C66FEB73E0CE0101960E94C562BE0187
:103610006F5F7F4FC8010E94AC63782ECE01019688
:103620000E945E62772039F0CE010D960E94896477
:1036300060937702B8C664EC73E0CE0101960E94F5
:10364000C562BE016F5F7F4FC8010E94AC63782ED8
:10365000CE0101960E945E62772029F0CE010D9680
:103660000E948964A0C668ED73E0CE0101960E94B5
:10367000C562BE016F5F7F4FC8010E94AC63782EA8
:10368000CE0101960E945E62772039F0CE010D9640
:103690000E94896460931E0886C662EE73E0CE01C4
:1036A00001960E94C562BE016F5F7F4FC8010E94F4
:1036B000AC63782ECE0101960E945E62772039F0CD
:1036C000CE010D960E94896460931F086CC662EF5C
:1036D00073E0CE0101960E94C562BE016F5F7F4F0D
:1036E000C8010E94AC63782ECE0101960E945E62F2
:1036F000772039F0CE010D960E94896460932008EE
:1037000052C66FEF73E0CE0101960E94C562BE0102
:103710006F5F7F4FC8010E94AC63782ECE01019687
:103720000E945E62772049F0CE010D960E94896466
:10373000709322086093210836C661E174E0CE01DF
:1037400001960E94C562BE016F5F7F4FC8010E9453
:10375000AC63782ECE0101960E945E62772049F01C
:10376000CE010D960E94896470932A0860932908FF
:103770001AC662E274E0CE0101960E94C562BE01E3
:103780006F5F7F4FC8010E94AC63782ECE01019617
:103790000E945E62772049F0CE010D960E948964F6
:1037A0007093260860932508FEC56EE274E0CE0192
:1037B00001960E94C562BE016F5F7F4FC8010E94E3
:1037C000AC63782ECE0101960E945E62772049F0AC
:1037D000CE010D960E94896470932E0860932D0887
:1037E000E2C569E374E0CE0101960E94C562BE01A4
:1037F0006F5F7F4FC8010E94AC63782ECE010196A7
:103800000E945E62772049F0CE010D960E94896485
:103810007093240860932308C6C569E474E0CE0160
:1038200001960E94C562BE016F5F7F4FC8010E9472
:10383000AC63782ECE0101960E945E62772049F03B
:10384000CE010D960E94896470932C0860932B081A
:10385000AAC568E574E0CE0101960E94C562BE016A
:103860006F5F7F4FC8010E94AC63782ECE01019636
:103870000E945E62772049F0CE010D960E94896415
:1038800070932808609327088EC560E476E0CE0127
:1038900001960E94C562BE016F5F7F4FC8010E9402
:1038A000AC63782ECE0101960E945E62772049F0CB
:1038B000CE010D960E9489647093300860932F08A2
:1038C00072C565E674E0CE0101960E94C562BE0134
:1038D0006F5F7F4FC8010E94AC63782ECE010196C6
:1038E0000E945E62772071F0CE010D960E9489647D
:1038F0009B01215031092336310508F054C56093EE
:10390000310851C56BE774E0CE0101960E94C56293
:10391000BE016F5F7F4FC8010E94AC63782ECE015D
:1039200001960E945E62772071F0CE010D960E9492
:1039300089649B01215031092A35310508F033C5CE
:103940006093320830C56AE874E0CE0101960E94A7
:10395000C562BE016F5F7F4FC8010E94AC63782EC5
:10396000CE0101960E945E62772071F0CE010D9625
:103970000E9489649B01215031092336310508F0EA
:1039800012C5609337080FC565E974E0CE01019652
:103990000E94C562BE016F5F7F4FC8010E94AC6389
:1039A000782ECE0101960E945E62772071F0CE01E2
:1039B0000D960E9489649B012150310923363105FF
:1039C00008F0F1C460933608EEC460EA74E0CE01FA
:1039D00001960E94C562BE016F5F7F4FC8010E94C1
:1039E000AC63782ECE0101960E945E62772071F062
:1039F000CE010D960E9489649B0121503109233626
:103A0000310508F0D0C460933408CDC46CEA74E08A
:103A1000CE0101960E94C562BE016F5F7F4FC80153
:103A20000E94AC63782ECE0101960E945E627720E0
:103A300071F0CE010D960E9489649B0121503109DD
:103A40002336310508F0AFC460933508ACC46BEB86
:103A500074E0CE0101960E94C562BE016F5F7F4F88
:103A60008F2D9E2D0E94AC63782ECE0101960E9470
:103A70005E62772071F0BE01635F7F4FCE010196D9
:103A80000E942363CE0101960E94D91480933308CB
:103A900043C069EC74E0CE0101960E94C562BE018C
:103AA0006F5F7F4F8F2D9E2D0E94AC63782ECE01CD
:103AB00001960E945E62772071F0CE010D960E9401
:103AC00089649B01215031092336310508F06BC40C
:103AD00060933C0868C464ED74E0CE0101960E94D6
:103AE000C562BE016F5F7F4F8F2D9E2D0E94AC631C
:103AF000782ECE0101960E945E62772091F0BE0181
:103B0000635F7F4FCE0101960E942363CE01019631
:103B10000E944C1580933A08CE0101960E945E6285
:103B200042C46DED74E0CE0101960E94C562BE01F3
:103B30006F5F7F4F8F2D9E2D0E94AC63782ECE013C
:103B400001960E945E62772069F0BE01635F7F4F3D
:103B5000CE0101960E942363CE01019625D8809361
:103B60003B08DACF6AEE74E0CE0101960E94C5628E
:103B7000BE016F5F7F4F8F2D9E2D0E94AC63782E0C
:103B8000CE0101960E945E62772059F0CE010D961B
:103B90000E9489646436710508F005C460933E088C
:103BA00002C468EF74E0CE0101960E94C562BE01B6
:103BB0006F5F7F4F8F2D9E2D0E94AC63782ECE01BC
:103BC00001960E945E62772071F0CE010D960E94F0
:103BD00089649B01215031092336310508F0E3C384
:103BE00060933D08E0C362E075E0CE0101960E945B
:103BF000C562BE016F5F7F4F8F2D9E2D0E94AC630B
:103C0000782ECE0101960E945E62772071F0CE017F
:103C10000D960E9489649B0121503109233631059C
:103C200008F0C1C360934108BEC36EE075E0CE01E9
:103C300001960E94C562BE016F5F7F4F8F2D9E2D42
:103C40000E94AC63782ECE0101960E945E627720BE
:103C500071F0BE01635F7F4FCE0101960E94236326
:103C6000CE0101960E944C1580933F0855CF68E124
:103C700075E0CE0101960E94C562BE016F5F7F4F65
:103C80008F2D9E2D0E94AC63782ECE0101960E944E
:103C90005E62772071F0BE01635F7F4FCE010196B7
:103CA0000E942363CE0101960E94D41580934008A0
:103CB00033CF66E275E0CE0101960E94C562BE0177
:103CC0006F5F7F4F8F2D9E2D0E94AC63782ECE01AB
:103CD00001960E945E62772071F0BE01635F7F4FA4
:103CE000CE0101960E942363CE0101960E94131615
:103CF0008093380811CF6EE275E0CE0101960E94E4
:103D0000C562BE016F5F7F4F8F2D9E2D0E94AC63F9
:103D1000782ECE0101960E945E62772071F0BE017E
:103D2000635F7F4FCE0101960E942363CE0101960F
:103D30000E94D41580933908EFCE6AE375E0CE0176
:103D400001960E94C562BE016F5F7F4F8F2D9E2D31
:103D50000E94AC63782ECE0101960E945E627720AD
:103D600059F0CE010D960E948964161617060CF0C4
:103D70001AC36093420817C36FE475E0CE01019641
:103D80000E94C562BE016F5F7F4F8F2D9E2D0E94E6
:103D9000AC63782ECE0101960E945E62772059F0C6
:103DA000CE010D960E948964161617060CF0FBC210
:103DB00060934308F8C267E675E0CE0101960E9461
:103DC000C562BE016F5F7F4F8F2D9E2D0E94AC6339
:103DD000782ECE0101960E945E62772059F0CE01C6
:103DE0000D960E948964161617060CF0DCC26093CB
:103DF0004408D9C26EE775E0CE0101960E94C56203
:103E0000BE016F5F7F4F8F2D9E2D0E94AC63782E79
:103E1000CE0101960E945E62772059F0CE010D9688
:103E20000E948964161617060CF0BDC260934508FF
:103E3000BAC262E975E0CE0101960E94C562BE0178
:103E40006F5F7F4F8F2D9E2D0E94AC63782ECE0129
:103E500001960E945E62772059F0CE010D960E9475
:103E60008964161617060CF09EC2609346089BC222
:103E700063EA75E0CE0101960E94C562BE016F5FE4
:103E80007F4F8F2D9E2D0E94AC63782ECE01019620
:103E90000E945E62772059F0CE010D960E948964DF
:103EA000161617060CF07FC2609347087CC263EBBE
:103EB00075E0CE0101960E94C562BE016F5F7F4F23
:103EC0008F2D9E2D0E94AC63782ECE0101960E940C
:103ED0005E62772059F0CE010D960E948964161615
:103EE00017060CF060C2609348085DC260EC75E094
:103EF000CE0107960E94C562BE01695F7F4F8F2D7C
:103F00009E2D0E94AC63811117C060ED75E0CE015B
:103F100001960E94C562BE016F5F7F4F8F2D9E2D5F
:103F20000E94AC6377247394811101C0712CCE017F
:103F300001960E945E6202C077247394CE010796B8
:103F40000E945E62772041F1CE010D960E94896445
:103F5000613009F028C2D0924C0810924D08D092DE
:103F6000510860935208D0925608D0925708D092C8
:103F70005B08C0925C08D0926008B0926108D09251
:103F80006508A0926608D0926A0890926B08D09259
:103F90006F088092700807C260EE75E0CE0101964E
:103FA0000E94C562BE016F5F7F4F8F2D9E2D0E94C4
:103FB000AC63782ECE0101960E945E62772031F0CC
:103FC000BE01635F7F4F80E090E019C066EE75E050
:103FD000CE0101960E94C562BE016F5F7F4F8F2D9B
:103FE0009E2D0E94AC63782ECE0101960E945E62E7
:103FF000772041F0BE01635F7F4F81E090E00E9437
:104000001D0ED1C16EEE75E0CE0101960E94C56213
:10401000BE016F5F7F4F8F2D9E2D0E94AC63782E67
:10402000CE0101960E945E62772031F0BE01635F8F
:104030007F4F82E090E0E3CF68EF75E0CE0101961C
:104040000E94C562BE016F5F7F4F8F2D9E2D0E9423
:10405000AC63782ECE0101960E945E62772031F02B
:10406000BE01635F7F4F83E090E0C9CF6DEF75E0E5
:10407000CE0101960E94C562BE016F5F7F4F8F2DFA
:104080009E2D0E94AC63782ECE0101960E945E6246
:10409000772031F0BE01635F7F4F84E090E0AFCFC7
:1040A00062E076E0CE0101960E94C562BE016F5FBC
:1040B0007F4F8F2D9E2D0E94AC63782ECE010196EE
:1040C0000E945E62772031F0BE01635F7F4F85E022
:1040D00090E095CF67E076E0CE0101960E94C56240
:1040E000BE016F5F7F4F8F2D9E2D0E94AC63782E97
:1040F000CE0101960E945E62772031F0BE01635FBF
:104100007F4F86E090E07BCF60E176E0CE010196C4
:104110000E94C562BE016F5F7F4F8F2D9E2D0E9452
:10412000AC63782ECE0101960E945E62772031F05A
:10413000BE01635F7F4F87E090E061CF69E176E089
:10414000CE0101960E94C562BE016F5F7F4F8F2D29
:104150009E2D0E94AC63782ECE0101960E945E6275
:10416000772031F0BE01635F7F4F88E090E047CF5A
:104170006CE176E0CE0101960E94C562BE016F5FE0
:104180007F4F8F2D9E2D0E94AC63782ECE0101961D
:104190000E945E62772031F0BE01635F7F4F89E04D
:1041A00090E02DCF6FE176E0CE0101960E94C562CE
:1041B000BE016F5F7F4F8F2D9E2D0E94AC63782EC6
:1041C000CE0101960E945E62772031F0BE01635FEE
:1041D0007F4F8AE090E013CF62E276E0CE01019655
:1041E0000E94C562BE016F5F7F4F8F2D9E2D0E9482
:1041F000AC63782ECE0101960E945E62772031F08A
:10420000BE01635F7F4F8BE090E0F9CE65E276E020
:10421000CE0101960E94C562BE016F5F7F4F8F2D58
:104220009E2D0E94AC63782ECE0101960E945E62A4
:10423000772031F0BE01635F7F4F8CE090E0DFCEEE
:1042400068E276E0CE0101960E94C562BE016F5F12
:104250007F4F8F2D9E2D0E94AC63782ECE0101964C
:104260000E945E62772031F0BE01635F7F4F8DE078
:1042700090E0C5CE6BE276E0CE0101960E94C56269
:10428000BE016F5F7F4F8F2D9E2D0E94AC63782EF5
:10429000CE0101960E945E62772031F0BE01635F1D
:1042A0007F4F8EE090E0ABCE6EE276E0CE010196DD
:1042B0000E94C562BE016F5F7F4F8F2D9E2D0E94B1
:1042C000AC63782ECE0101960E945E62772031F0B9
:1042D000BE01635F7F4F8FE090E091CE61E376E0B7
:1042E000CE0101960E94C562BE016F5F7F4F8F2D88
:1042F0009E2D0E94AC63782ECE0101960E945E62D4
:10430000772051F0CE010D960E948964613009F04A
:104310004AC06093490847C063E376E0CE01019646
:104320000E94C562BE016F5F7F4F8F2D9E2D0E9440
:10433000AC63782ECE0101960E945E62772059F020
:10434000CE010D960E94896463E971E082ED9DE0E3
:104350000E94F75F28C06EE376E0CE0101960E94CE
:10436000C562BE016F5F7F4F8F2D9E2D0E94AC6393
:10437000782ECE0101960E945E6271106FC96EE3C5
:1043800076E0CE0101960E94C562BE016F5F7F4F4D
:104390008F2D9E2D0E94AC63782ECE0101960E9437
:1043A0005E6271105BC9CE010D960E945E6268E884
:1043B00077E0C8010E9436630C94D6198AE599E02B
:1043C0000E942F4306C068E771E082ED9DE00E94E5
:1043D000BB5FC8010E945E6269960FB6F894DEBFAB
:1043E0000FBECDBFDF91CF911F910F91FF90EF9046
:1043F000DF90CF90BF90AF909F908F907F90089567
:10440000CF92DF92EF92FF920F931F93CF93DF93A0
:10441000EC018B0142967C016115710589F464E918
:1044200071E00E949E4D63E774E0CE01DF91CF9171
:104430001F910F91FF90EF90DF90CF900C94BB5F96
:10444000CB010E94E74E6C0168EC70E0C7010E944E
:104450009E4DB601CE010E94C24D63E574E0CE01CF
:104460000E94BB5FC7010E94F45F21E0A80167E7DB
:1044700079E08AE599E00E9459448823E1F060E4FC
:1044800074E082ED9DE00E94BB5FB80182ED9DE08B
:104490000E9407606AE579E0CE010E94594F8AE5E3
:1044A00099E0DF91CF911F910F91FF90EF90DF90F6
:1044B000CF900C942F436EE274E0CE010E94BB5F5C
:1044C000B801CE010E94EC5F67E877E0CE01DF9192
:1044D000CF911F910F91FF90EF90DF90CF900C94B0
:1044E000EC5F0F931F93CF93DF938C010E94084ED4
:1044F0000E94C14EEC01BC01C80182DFCE010E94C6
:10450000166881E0DF91CF911F910F9108956CE4BF
:1045100076E076DF81E008950F931F93CF93DF93CA
:10452000EC01CB016AE070E00E94F0668C014AE089
:1045300050E0CE010E94B56061EB73E0CE010E94B5
:10454000BB5F4AE050E0B801CE01DF91CF911F91EF
:104550000F910C94B560EF92FF920F931F93CF933E
:10456000DF938C01EC01629668EC70E0CE010E9452
:104570009E4D6FEC72E0C8010E94EE4D61E973E060
:10458000C8010E94BB5FCE010E94F45F64E873E043
:10459000CE010E94BB5F0AE418E0E12CF12C6AE72F
:1045A00073E0CE010E94BB5FF80160817181CE0192
:1045B000B3DFFFEFEF1AFF0A80E1E816F10441F0E4
:1045C00061E873E0CE010E94BB5F0B5F1F4FE7CF36
:1045D00066E773E0CE010E94BB5F6DE673E0CE013B
:1045E0000E94BB5F4AE050E060912F0ACE010E941A
:1045F000EE606BE673E0CE010E94BB5F62E673E0A3
:10460000CE010E94BB5F60911408709115084AE0CA
:1046100050E0CE010E94B56060E673E0CE010E94DA
:10462000BB5F68E573E0CE010E94BB5F8091C40967
:10463000882319F069EA73E002C066E576E0CE01EE
:104640000E94EC5F66E573E0CE010E94BB5F6CE404
:1046500073E0CE010E94BB5F4091DE075091DF07FF
:104660006091E0077091E1072AE030E0CE010E94FE
:10467000E2606AE473E0CE010E94BB5F61E473E034
:10468000CE010E94BB5F85E40E94F85B892B19F084
:104690006CED72E002C061EE72E0CE010E94EC5F50
:1046A0006FE373E0CE010E94BB5F66E373E0CE016F
:1046B0000E94BB5F84E40E94F85B892B19F06CEDCB
:1046C00072E002C061EE72E0CE010E94EC5F64E332
:1046D00073E0CE010E94BB5F6CE273E0CE010E94EA
:1046E000BB5F0E94B15928EE33E040E050E00E94E9
:1046F0000367BA01A9012AE030E0CE010E94E2601E
:1047000063E273E0CE010E94BB5F6AE173E0CE0119
:104710000E94BB5F67E173E0CE010E94F75F81E01A
:10472000DF91CF911F910F91FF90EF900895EF923D
:10473000FF920F931F93CF93DF9300D000D0CDB79C
:10474000DEB726E040E052EC61E070E082ED9DE0F3
:104750000E94325D26E040E052EC61E070E083E9C7
:104760009EE00E94325D61E082E10E94C35B61E0F5
:1047700083E10E94C35B61E08DE00E94C35B61E066
:104780008DE00E948A5B6AEF70E080E090E00E941A
:10479000E05982ED9DE00E94F45F6FE872E082EDE7
:1047A0009DE00E94BB5F66E872E082ED9DE00E94A2
:1047B000F75F0E94C11260E082E40E94C35B61E087
:1047C00082E40E948A5B60E081E40E94C35B61E056
:1047D00081E40E948A5B85E0809331088CE38093BA
:1047E000320860E080E40E94C35B61E080E40E94E4
:1047F0008A5B0E94341829E288E190E00FB6F894B1
:10480000A895809360000FBE209360000E94250D44
:1048100061E085E30E948A5B61E085E30E94C35BFF
:1048200061E08AE00E948A5B61E08AE00E94C35BEB
:1048300061E084E00E948A5B61E084E00E94C35BE7
:1048400044E060E082EB99E00E94EF3D811108C0F6
:1048500066E772E082ED9DE00E94BB5F10926F02FE
:1048600041E062EB79E084E999E00E94694A8111B4
:1048700011C040E062EB79E084E999E00E94694A66
:10488000811108C066E672E082ED9DE00E94BB5F88
:1048900010926F0264E979E087E799E00E94B140E5
:1048A000811108C06EE472E082ED9DE00E94BB5F62
:1048B00010926F0280916F02882331F188E295E0B7
:1048C0009093080D8093070D63E472E082ED9DE004
:1048D0000E94BB5F0E948F3C4AE050E0BC0182ED29
:1048E0009DE00E94BC600E94991968E372E082ED2D
:1048F0009DE00E94BB5F0E948F3C4AE050E0BC01FB
:1049000082ED9DE00E94BC600E947B106DE172E030
:1049100082ED9DE00E94BB5F68E772E0CE010196E8
:104920000E94535FAE014F5F5F4F62E772E088E71E
:104930009AE00E94533062E172E082ED9DE00E94B5
:10494000BB5F0E948F3C4AE050E0BC0182ED9DE0DD
:104950000E94BC6046E050E0BE016F5F7F4F89E07F
:1049600090E00E94B33B46E050E062E772E0CE0187
:1049700001960E94EF6921E0892B09F420E0209341
:10498000A10721114FC010917B0200917A02F09093
:104990007902E09078026BEF71E082ED9DE00E9479
:1049A000BB5F4AE050E06E2D82ED9DE00E94EE601C
:1049B0006AE072E082ED9DE00E94BB5F4AE050E059
:1049C0006F2D82ED9DE00E94EE606CE072E082ED62
:1049D0009DE00E94BB5F4AE050E0602F82ED9DE0C9
:1049E0000E94EE606EE072E082ED9DE00E94BB5F8F
:1049F0004AE050E0612F82ED9DE00E94EE6060E1B0
:104A000072E082ED9DE00E94BB5F61EE71E082ED9D
:104A10009DE00E94BB5F8AEA97E00E94B3526EEC71
:104A200071E002C065EB71E082ED9DE00E94BB5F2A
:104A30008AE59AE00E941C576093560A7093570AC1
:104A40008093580A9093590A0E94B1596093A6071F
:104A50007093A7078093A8079093A9078091A60752
:104A60009091A707A091A807B091A9078093A207EA
:104A70009093A307A093A407B093A50782E00E9498
:104A800073579093610A8093600A80E1809391004C
:104A90001092900083E08093C20D84ED90E3909398
:104AA000C40D8093C30D909397008093960083E18B
:104AB0008093910088ED97E19093C60D8093C50D8A
:104AC00081E08093710026960FB6F894DEBF0FBE8A
:104AD000CDBFDF91CF911F910F91FF90EF9008957F
:104AE0000F9300E020E040E060E082E69AE00E9460
:104AF000475F6DE38AE59AE00E9471561092B7090C
:104B00001092B8091092BB091092BD0982E090E0A2
:104B1000A0E0B0E08093940990939509A093960942
:104B2000B09397091092AB0910927A091092790903
:104B300082E497E0909378098093770910927C093A
:104B400010925D0910925C0990935B0980935A0959
:104B500010925F0982EE96E09093330980933209B8
:104B600087ED95E0909335098093340980E091E0DA
:104B7000909337098093360962EC75E08EE299E0F4
:104B80000E94D73C66E180E299E00E94E5538BECFD
:104B900098E09093E7078093E60784E295E090938E
:104BA000E9078093E8071092EC071092ED07109246
:104BB000EE071092EF071092F0071092F107109293
:104BC000F2071092F3071092F4071092F507109273
:104BD000FA071092FB071092FC071092FD07109243
:104BE000FE071092FF071092000810920108109221
:104BF00006081092070810920808109209081092EF
:104C00000A0810920B0810920C0810920D0868E820
:104C100077E089EC97E00E94C56220E530E04AE049
:104C200052E06EE072E08AEA97E00F910C94BF4B7D
:104C300089EC97E00C945E62AF92BF92CF92DF92C4
:104C4000EF92FF920F931F93CF93DF93CDB7DEB711
:104C500064970FB6F894DEBF0FBECDBF80916D0292
:104C600090916E02009799F40E94B15960933809AF
:104C70007093390980933A0990933B091092C109C6
:104C80001092C0091092BF0981E090E01BC001970B
:104C9000E9F40E94B1590091380910913909209125
:104CA0003A0930913B09601B710B820B930B6536FF
:104CB00071058105910550F01092C1091092C0094B
:104CC00082E090E090936E0280936D0280916D027D
:104CD00090916E028230910509F05AC01092C80975
:104CE00081E0809371020091300910913109C8016F
:104CF0000E94E669E82EC090C90990E0D090CA09E8
:104D0000FF24F394BB24B394BF0C9E15D0F4F80198
:104D1000E90FF11DC49082E0A82EA90E9F5FF80153
:104D2000E90FF11DD4906D2D8C2D0E949609A1E004
:104D3000B0E0AC0FBD1FAF0DB11D8C939A2DFB2CB5
:104D4000E1CFC092C9099093C809D092CA091E2D1B
:104D50001695198381E08093710290917102191761
:104D600080F081E0890F80937102E1E0F0E0EC0FC8
:104D7000FD1FE90FF11D608183E99EE00E94CE5C7A
:104D8000ECCF1092C1091092C00983E090E08DC071
:104D900083309105B1F583E99EE00E94205C892B68
:104DA00059F0109271021092C7091092C109109225
:104DB000C00984E090E079C08091C0099091C10958
:104DC00001969093C1098093C0098139914008F4FC
:104DD00059C11092C1091092C0092091BF092F5FDB
:104DE0002093BF0982E090E090936E0280936D0261
:104DF000263008F447C181E08093490A809370020D
:104E000041C18430910509F055C083E99EE00E94BC
:104E1000205C18161906BCF483E99EE00E94205C11
:104E2000181619069CF51091710281E0810F80938C
:104E3000710283E99EE00E943A5CE12FF0E0E553C5
:104E4000F64F8083E9CF8091C0099091C109019606
:104E50009093C1098093C00981399140B8F01092B4
:104E6000C1091092C00982E090E090936E02809395
:104E70006D028091BF098F5F8093BF09863030F04B
:104E800082E08093490A81E08093700280917102F0
:104E9000863508F4F7C08093C7091092710210920A
:104EA000C1091092C00987E090E090936E02809350
:104EB0006D02E8C0079709F0E5C08091C709863503
:104EC00009F0C2C00E94A609882309F4BDC010924F
:104ED0007002A091DC09B0E0BA2FAA278091DB090B
:104EE000A82BB0934909A0934809E091DE09F0E0AE
:104EF000FE2FEE278091DD09E82BF0934509E09322
:104F000044096091E00970E0762F66278091DF09FF
:104F1000682B70934309609342094091E20950E085
:104F2000542F44278091E109482B5093470940931F
:104F300046098091E40990E0982F88272091E309A1
:104F4000822B90933F0980933E098091E60990E07F
:104F5000982F88272091E509822B9093410980930F
:104F600040092091E80930E0322F22278091E7099B
:104F7000282B30933D0920933C098091EA0990E069
:104F8000982F88271091E909812B90934B098093E2
:104F90004A091091EB0910934C090091F209009312
:104FA000520911FB002700F9009350090091080AEB
:104FB00000935309017000935409B093310AA093F0
:104FC000300AF093370AE093360A7093330A6093FD
:104FD000320A50933A0A4093390A30933F0A209399
:104FE0003E0A9093350A8093340A8091F0098093A9
:104FF0003D0A8091F1098093380A81E090911E0A60
:10500000913009F080E08093C20912FB882780F973
:105010008093C50913FB112710F91093C60981E08D
:105020009091ED09913009F080E080933C0A81E095
:105030009091EC09913009F080E080933B0A109246
:105040006E0210926D021EC08091C0099091C1093C
:1050500001969093C1098093C0098139914078F3FA
:105060001092C1091092C0098091BF098F5F80938F
:10507000BF09863020F384E08093490A81E0809361
:105080007002DDCF64960FB6F894DEBF0FBECDBFC1
:10509000DF91CF911F910F91FF90EF90DF90CF9014
:1050A000BF90AF9008950F931F93A8950E94B15998
:1050B00060934E0A70934F0A8093500A9093510A5E
:1050C00080914E0A90914F0AA091500AB091510AD6
:1050D00080934A0A90934B0AA0934C0AB0934D0ACE
:1050E00080914E0A90914F0AA091500AB091510AB6
:1050F0004091A2075091A3076091A4077091A50762
:10510000841B950BA60BB70BC397A105B10584F0C3
:1051100080914E0A90914F0AA091500AB091510A85
:105120008093A2079093A307A093A407B093A50729
:105130000E94B15900914A0A10914B0A20914C0AE1
:1051400030914D0A601B710B820B930B60934A0ADE
:1051500070934B0A80934C0A90934D0A80914908B2
:10516000882369F080914A0A90914B0AA0914C0AD9
:10517000B0914D0A0397A105B1050CF053C20E94EE
:10518000B15960934A0A70934B0A80934C0A9093EA
:105190004D0A52DD0E94B15900914A0A10914B0A02
:1051A00020914C0A30914D0A601B710B820B930BBE
:1051B00060934A0A70934B0A80934C0A90934D0A6D
:1051C00080914908882369F080914A0A90914B0A9E
:1051D000A0914C0AB0914D0A0397A105B1050CF0BE
:1051E00036C20E94B15960934A0A70934B0A809369
:1051F0004C0A90934D0A0E94310D0E94B1590091C2
:105200004A0A10914B0A20914C0A30914D0A601BBA
:10521000710B820B930B60934A0A70934B0A809335
:105220004C0A90934D0A80914908882369F0809137
:105230004A0A90914B0AA0914C0AB0914D0A0297EC
:10524000A105B1050CF018C20E94B15960934A0A39
:1052500070934B0A80934C0A90934D0A0E94770DED
:105260000E94B15900914A0A10914B0A20914C0AB0
:1052700030914D0A601B710B820B930B60934A0AAD
:1052800070934B0A80934C0A90934D0A8091490881
:10529000882369F080914A0A90914B0AA0914C0AA8
:1052A000B0914D0A0397A105B1050CF0FAC10E9417
:1052B000B15960934A0A70934B0A80934C0A9093B9
:1052C0004D0A0E94B15900914A0A10914B0A20914F
:1052D0004C0A30914D0A601B710B820B930B60934B
:1052E0004A0A70934B0A80934C0A90934D0A80911E
:1052F0004908882369F080914A0A90914B0AA0914D
:105300004C0AB0914D0A0397A105B1050CF0DEC11E
:105310000E94B15960934A0A70934B0A80934C0AD9
:1053200090934D0A0E947B190E94B15900914A0A3C
:1053300010914B0A20914C0A30914D0A601B710B61
:10534000820B930B60934A0A70934B0A80934C0A2A
:1053500090934D0A80914908882369F080914A0A08
:1053600090914B0AA0914C0AB0914D0A0397A10568
:10537000B1050CF0C0C10E94B15960934A0A709304
:105380004B0A80934C0A90934D0A0E945F120E9430
:10539000B15900914A0A10914B0A20914C0A309160
:1053A0004D0A601B710B820B930B60934A0A70933A
:1053B0004B0A80934C0A90934D0A809149088823A8
:1053C00069F080914A0A90914B0AA0914C0AB091E1
:1053D0004D0A0397A105B1050CF0A2C10E94B15975
:1053E00060934A0A70934B0A80934C0A90934D0A3B
:1053F0000E94A5100E94B15900914A0A10914B0ACF
:1054000020914C0A30914D0A601B710B820B930B5B
:1054100060934A0A70934B0A80934C0A90934D0A0A
:1054200080914908882369F080914A0A90914B0A3B
:10543000A0914C0AB0914D0A0397A105B1050CF05B
:1054400084C10E94B15960934A0A70934B0A8093B9
:105450004C0A90934D0A0E94B0130E94B1590091DA
:105460004A0A10914B0A20914C0A30914D0A601B58
:10547000710B820B930B60934A0A70934B0A8093D3
:105480004C0A90934D0A80914908882369F08091D5
:105490004A0A90914B0AA0914C0AB0914D0A039789
:1054A000A105B1050CF066C180917002811133C075
:1054B0000E94B15960934A0A70934B0A80934C0A38
:1054C00090934D0A0E9408170E94B15900914A0A10
:1054D00010914B0A20914C0A30914D0A601B710BC0
:1054E000820B930B60934A0A70934B0A80934C0A89
:1054F00090934D0A80914908882369F080914A0A67
:1055000090914B0AA0914C0AB0914D0A0397A105C6
:10551000B1050CF044C180915F0A811113C08DE088
:105520000E94F85B61E0892B09F060E08DE00E9449
:10553000C35B80917002811102C081E001C08AE0EA
:1055400080935F0A80916F028823C9F18091A1073F
:10555000811135C00E94B15960934A0A70934B0A79
:1055600080934C0A90934D0A8AEA97E00E946E500D
:105570000E94B15900914A0A10914B0A20914C0A9D
:1055800030914D0A601B710B820B930B60934A0A9A
:1055900070934B0A80934C0A90934D0A809149086E
:1055A000882369F080914A0A90914B0AA0914C0A95
:1055B000B0914D0A0397A105B1050CF005C180918A
:1055C000440A882399F06AE371E082ED9DE00E942D
:1055D000BB5F6EE270E082ED9DE00E948F0968EE95
:1055E00073E080E090E00E94E059F3CF82ED9DE00F
:1055F0000E94205C892B09F4FCC082ED9DE00E9492
:105600003A5C823521F481E08093440AF2C0863509
:1056100009F0EFC081E090914908911180E08093FA
:105620004908E7C063E771E082ED9DE00E94BB5F3F
:1056300040914A0A50914B0A60914C0A70914D0A70
:105640002AE030E082ED9DE00E94D26098CD6EE6C7
:1056500071E082ED9DE00E94BB5F40914A0A50914B
:105660004B0A60914C0A70914D0A2AE030E082EDBD
:105670009DE00E94D260B5CD68E671E082ED9DE0CC
:105680000E94BB5F40914A0A50914B0A60914C0ABC
:1056900070914D0A2AE030E082ED9DE00E94D260D8
:1056A000D3CD63E671E082ED9DE00E94BB5F409147
:1056B0004A0A50914B0A60914C0A70914D0A2AE0B7
:1056C00030E082ED9DE00E94D260F1CD6EE571E0A8
:1056D00082ED9DE00E94BB5F40914A0A50914B0AC7
:1056E00060914C0A70914D0A2AE030E082ED9DE015
:1056F0000E94D2600DCE69E571E082ED9DE00E94CE
:10570000BB5F40914A0A50914B0A60914C0A7091DC
:105710004D0A2AE030E082ED9DE00E94D2602BCE5F
:1057200064E571E082ED9DE00E94BB5F40914A0A12
:1057300050914B0A60914C0A70914D0A2AE030E07A
:1057400082ED9DE00E94D26049CE6FE471E082ED6F
:105750009DE00E94BB5F40914A0A50914B0A6091C4
:105760004C0A70914D0A2AE030E082ED9DE00E94E3
:10577000D26067CE6AE471E082ED9DE00E94BB5F7B
:1057800040914A0A50914B0A60914C0A70914D0A1F
:105790002AE030E082ED9DE00E94D26085CE65E493
:1057A00071E082ED9DE00E94BB5F40914A0A5091FA
:1057B0004B0A60914C0A70914D0A2AE030E082ED6C
:1057C0009DE00E94D260A7CE60E471E082ED9DE092
:1057D0000E94BB5F40914A0A50914B0A60914C0A6B
:1057E00070914D0A2AE030E082ED9DE00E94D26087
:1057F000E6CE1F910F910895CF93CFB7F894809183
:105800006B0A811127C0E9E6F9E08491E3E2F9E04F
:105810009491E82FF0E0EE0FFF1FE255F64FA591AF
:10582000B4918C91892321F461E085E30E94C35BEC
:1058300061E085E30E948A5B8CB580618CBD8CB58C
:1058400080648CBD61E084E30E948A5B61E083E355
:105850000E948A5B80916B0A8F5F80936B0ACFBF37
:10586000CF9108950F9300E020E040E060E08CE6E7
:105870009AE00E94475F0F910895FB014281538196
:1058800064817581FC01428353836483758317822D
:1058900016820895FB0120E080E090E06AE03191FB
:1058A000332309F170ED730F7A3080F4DC016A9FC5
:1058B000C0016B9F900D1124C097830F911D37FD80
:1058C0009A958F3F910559F350F314C03E3291F4ED
:1058D000233081F0DA01A20FB11D12968C932F5F55
:1058E00080E090E0DCCF233029F4FA01858381E069
:1058F00090E0089580E090E008950F9300E020E0AC
:1059000040E060E082E79AE00E94475F0F910895CF
:10591000AF92BF92CF92DF92EF92FF920F931F93BD
:10592000CF93DF9300D01F921F92CDB7DEB78C01CB
:105930007B010E94B159F801778366837627672738
:1059400076277A836983085F1F4F42E050E0BE01EB
:105950006F5F7F4FC801A4D781E090E09C838B8369
:1059600042E050E0BE016D5F7F4FC80199D780E0F3
:1059700091E09C838B8342E050E0BE016D5F7F4FDE
:10598000C8018ED71C821B8242E050E0BE016D5FD1
:105990007F4FC80185D742E050E0BE016D5F7F4F69
:1059A000C8017ED742E050E0BE016D5F7F4FC80165
:1059B00077D76701F6018081882301F1F7016F0134
:1059C0008191811113C05601AE18BF081A141B042F
:1059D00084F4AD8241E050E0BE016B5F7F4FC801AF
:1059E0005FD7A501B701C8015BD703C08E3239F775
:1059F000EACF7601FFEFEF1AFF0ADCCF1D8241E00C
:105A000050E0BE016B5F7F4FC8014AD7E12CFF24F5
:105A1000F394FC82EB8242E050E0BE016D5F7F4F69
:105A2000C8013ED7FC82EB8242E050E0BE016D5FD0
:105A30007F4FC80135D781E090E00F900F900F9015
:105A40000F900F90DF91CF911F910F91FF90EF90EA
:105A5000DF90CF90BF90AF9008954F925F926F927A
:105A60007F928F929F92AF92BF92CF92DF92EF92EE
:105A7000FF920F931F93CF93DF93CDB7DEB763975A
:105A80000FB6F894DEBF0FBECDBF7C015B016A018B
:105A90000E94B1592B013C018701085F1F4F45014E
:105AA000A12CB12CC80196D71816190694F00E94A3
:105AB000B159641975098609970986169706A806CB
:105AC000B906D0F062E370E080E090E00E94E05917
:105AD000E9CFF7014281538164817581808D918D79
