:100000000C9422180C94BD970C9492970C946797BB
:100010000C943C970C9411970C94E6960C94BB9618
:100020000C9490960C947E4E0C944D4E0C941C4E59
:100030000C9453180C9453180C9453180C94531894
:100040000C9453180C94A0350C9453180C9453181A
:100050000C94FC320C9453180C9453180C94C2C496
:100060000C9453180C94989A0C946E9A0C94531800
:100070000C9453180C94534B0C9453180C94531821
:100080000C9453180C9453180C9453180C94253357
:100090000C94449A0C941A9A0C9453180C94AD3303
:1000A0000C9453180C9453180C9453180C94531824
:1000B0000C9453180C9453180C9453180C94531814
:1000C0000C9453180C9453180C94D0320C94F0994F
:1000D0000C94C6990C9453180C9453180C94531800
:1000E0000C94531807634236B79BD8A71A39685641
:1000F00018AEBAAB558C1D3CB7CC5763BD6DEDFD4A
:10010000753EF6177231BF000000803F0800000006
:10011000BE922449123EABAAAA2ABECDCCCC4C3EFC
:1001200000000080BEABAAAAAA3E00000000BF00EB
:100130000000803F0000000000084178D3BB4387E7
:10014000D1133D190E3CC3BD4282AD2B3E68EC82FB
:1001500076BED98FE1A93E4C80EFFFBE01C4FF7F80
:100160003F00000000005457533A4E6F20737061F7
:10017000636520666F72206D616C6C6F633A20005E
:100180005457533A206D616C6C6F633A2000204FD6
:100190004B0D0A00485454502F312E312000525438
:1001A000433A207A61706973207A61736F626E6975
:1001B0006B613A00504B543A2043524300504B5429
:1001C0003A2045545800504B543A2053545800207C
:1001D000743A0020653A00206D3A00206F3A002002
:1001E000703A002049443A0044414C4C41532000AD
:1001F00058585845434F414C004252414B004252DF
:10020000414B00534F465400534F4654004B5459F2
:1002100038312D004B54593831005352303454008A
:100220005352303454004D415836363735004D4125
:100230005836363735004D41583331383535004D55
:10024000415833313835350044414C4C4153204EF0
:1002500052203D200044414C4C4153005350414CEE
:10026000494E5900504F444C4F47410043575500A9
:10027000574557005A455700504F44414A4E494B45
:1002800000504F57524F5400434F004252554C4973
:100290000045434F414C0054380054370054360059
:1002A0005435005434005433005432005431005457
:1002B0005350414C494E590054504F444C4F4741C4
:1002C0000054435755005457455700545A4557005A
:1002D00054504F44414A4E494B0054504F57524F8F
:1002E0005400545049454300202D3E2000444D3ACF
:1002F000200057594741535A414E49453A205354DB
:1003000041525400544C4F4B204E49452057524FB8
:1003100043494C00544C4F4B204E41535445504E92
:10032000592043594B4C3A2000544C4F4B204B4FD3
:100330004E49454300544C4F4B204E4945205255A1
:10034000535A594C00544C4F4B205255434800547B
:100350004C4F4B20535441525400544C4F4B20535C
:10036000594E43204F4B00732E00253032643A25FE
:100370003032643A20414C41524D2054504F444158
:100380004A4E494B3D545759534F4B412025643EEB
:1003900000253032643A253032643A20414C4152D3
:1003A0004D2054504F44414A4E494B3D544D4158C5
:1003B0002025643E002A2A432D4F46462A002A2A39
:1003C000432D4F4646002A2A432D4F4E002A2A43EA
:1003D0002D4F4E2A004D4945535A414E4945004242
:1003E000415254454B00574C41435A004252554CE0
:1003F000490045434F414C0057594C41435A4F4ED9
:10040000590043594B4C49435A4E590043494147BF
:100410004C59002A2A4833002A2A4732002A2A4700
:1004200031002A2A5032002A2A5031002A2A483321
:10043000002A2A474D32002A2A4732002A2A474DED
:100440002D002A2A4731002A2A5032002A2A503108
:10045000002A2A4432002A2A4431002A2A5432002F
:100460002A2A54310070727A656A73636965206E56
:100470006120706F6474727A796D616E6965202590
:10048000643E3D25640070727A656A736369652015
:100490006E61206E61646D75636820746C6F0057C7
:1004A000594741535A414E49453A205433204F4B06
:1004B0000057594741535A414E49453A20545049F3
:1004C0004543204F4B0057594741535A414E4945E8
:1004D0003A20545350414C494E204F4B00575947F6
:1004E00041535A414E49453A20645350414C494E7C
:1004F0002025642C2064504945432025642C206429
:100500005433202564002020203C574C41435A4F4F
:100510004E593E202020002020203C57594C41437A
:100520005A4F4E593E2020004E54503A20557A7969
:10053000736B616E6F20637A617320756E69787476
:10054000696D653A00E30000EC0000000000000067
:1005500000314E31340000000000000000000000B7
:10056000000000000000000000000000000000008B
:1005700000000000004E54503A2062706B74204519
:10058000525220004E54503A20626567696E2045F1
:10059000525220004E54503A20444E532025643A83
:1005A00020004554483A206E696520757A79736B4E
:1005B000616E6F20637A617375207A204E5450000B
:1005C0004554483A204E545039004554483A204E3C
:1005D000545038004554483A204E54503500455444
:1005E000483A204E545034004554483A204E545016
:1005F00033004554483A204E545032004554483A4E
:10060000204E545031004554483A204E545030004A
:100610004553503A206E696520757A79736B616E27
:100620006F20637A617375207A204E5450004553D1
:10063000503A20706F62696572616D20637A6173F0
:10064000003E3E206E69643A004E4554633A2000F5
:100650004E4554633A2074696D656F757400423A73
:1006600000743A00436F6E6E656374696F6E3A2072
:10067000636C6F736500302E312E302E3133302E87
:10068000333500557365722D4167656E743A206C81
:1006900075636A616E2000486F73743A20002048C9
:1006A0005454502F312E3100474554202F6C752E55
:1006B0007068703F69004E4554633A20636F6E6EF8
:1006C0006563740074643A00442E00202000290001
:1006D0004F4646004F4E002028004F4646004F4EE2
:1006E000006861726D6F6E6F6772616D20434F3A83
:1006F000200020200029002025643A2564004F4670
:100700004620004F4E20002028004F4646004F4E06
:10071000006861726D6F6E6F6772616D2043595230
:100720004B756C61636A693A20004E69657A6E6147
:100730006E7920647A69656E004E4400534F005014
:100740005400435A00535200575400504F002A009F
:10075000534B525950544F5759005245435A4E59D2
:10076000004155544F0052520052524D0052524DCA
:1007700032005A415359504F5759004252554C4933
:100780000045434F414C004C41544F005A494D41A4
:10079000004252554C490045434F414C0058584483
:1007A0004D5F504C55535F4D4F43005858444D5F7B
:1007B000504C55535F4D4F43005858544553545F68
:1007C0004E5231207A6E616C657A696F6E6F005897
:1007D00058544553545F4E52310058585445535461
:1007E0005F4E5231207A6E616C657A696F6E6F0070
:1007F0005858544553545F4E5231005554202D20C3
:1008000000435A554A4E494B0048495354455245B6
:100810005A41005A4144414E410050494E005554FE
:100820000055542050494E202D200055545F5753F9
:10083000504F4C4E595F50494E005757573A206819
:1008400061736C6F207A6120646C7567696500570D
:1008500057575F4841534C4F005757575F415554C6
:1008600048006465672E004B545938310057594C85
:100870005F414C474F004155544F4C41544F5F54DA
:10088000525942004155544F4C41544F5F545745C3
:1008900057004155544F4C41544F5F4849535445BC
:1008A00052455A41004155544F4C41544F5F5445B5
:1008B0004D500054525942204155544F21004F553C
:1008C000545F57454E54594C41544F52005452595D
:1008D00042204155544F21004F55545F504F4D50C9
:1008E000414359524B0054525942204155544F21D3
:1008F000004F55545F504F4D50414357550054528F
:100900005942204155544F21004F55545F504F4D8F
:100910005041435755320054525942204155544F8B
:1009200021004F55545F504F4D5041434F0054529A
:100930005942204155544F21004F55545F504F4468
:10094000414A4E494B00525443005254435F435A6C
:100950004153005254435F44415441004155544F68
:10096000005254435F5A494D410050524143412087
:1009700042455A20444554454B544F52410044454A
:1009800054454B544F525F54455354554A455F426A
:10099000455A504945435A4E494B0050524F475FC4
:1009A000434F0050524F475F4359524B0050524FF4
:1009B000475F4F42004E69657A6E616E7920647AB6
:1009C00069656E0050524F475F4F425F004E696548
:1009D0007A6E616E7920647A69656E0050524F4775
:1009E0005F434F5F004E69657A6E616E7920647A6D
:1009F00069656E0050524F475F4359524B5F00503C
:100A0000524F475F00504F5A59434A41005A4144A0
:100A1000414E41004B525A595741005A41574F528B
:100A200034442D54525942005A41574F5234442DA8
:100A3000435A41535F5A4D49414E595F4B494552C4
:100A4000554E4B55005A41574F5234442D50524544
:100A5000534554005A41574F5234442D5A41444152
:100A60004E41005A41574F5234442D484953544542
:100A700052455A41005A41574F5234442D4F424E2D
:100A8000495A4F4E41005A41574F5234442D435A10
:100A9000554A4E494B005A41574F5234442D435A00
:100AA00041535F504F4D49415255005A41574F52A3
:100AB00034442D435A41535F4B524F4B005A4157D8
:100AC0004F5234442D435A41535F4F545741524380
:100AD0004941004B525A5957415F47525A414E497A
:100AE000412B3135004B525A5957415F47525A41B9
:100AF0004E49412B35004B525A5957415F47525A84
:100B0000414E49412D30004B525A5957415F47528F
:100B10005A414E49412D3130004B525A5957415F8D
:100B200047525A414E49412D3230004B525A595783
:100B3000415F47525A414E49412D3330004C4344A6
:100B40005F5759474153005600414E414C4F4700B3
:100B5000414C41524D5F44414C4C4153005438008C
:100B60005437005436005435005434005433005484
:100B70003200543100545350414C494E59005450A6
:100B80004F444C4F47410054435755005457455725
:100B900000545A45570054504F44414A4E494B0067
:100BA00054504F57524F5400545049454300545FDE
:100BB0004D4150554A5F5A5F4252554C4900545F6F
:100BC0004D4150554A5F5A5F45434F414C005A4191
:100BD0005359504F57595F4D4F43005252575F483A
:100BE0004953544552455A41005252575F504F5352
:100BF000544F4A005252575F504F44414E494500AE
:100C000052524D5F4F504F5A4E49454E49455F50E5
:100C10004F44414E49410052524D5F4E4157454766
:100C20004C414E49450052524D5F4E415745474C4D
:100C3000414E49455F43594B4C005252575F4E411C
:100C4000444D5543480052524D5F5749454C455F0E
:100C50004D4F43590052524D5F444F50414C414E0D
:100C600049455F435A41530052524D5F444F5041F2
:100C70004C414E49455F4D4F430052524D5F4D41EF
:100C8000585F50525A4542494349455F544C4F00C2
:100C900052524D5F544C4F5F435A41530052524D94
:100CA0005F544C4F5F435A41535F504F44414E494C
:100CB000450052524D5F544C4F5F4D4F43005252CE
:100CC0004D5F545F57594C5F544C4F0052524D5F2B
:100CD000544C4F5F574C41435A4F4E450052525F60
:100CE00050524143415F4D4F430052525F50524179
:100CF00043415F504F53544F4A0052525F5052414C
:100D000043415F504F44414E49450052525F504F5E
:100D10004454525A594D414E49455F4D4F4300523C
:100D2000525F504F4454525A594D414E49455F50BD
:100D30004F53544F4A0052525F504F4454525A59E5
:100D40004D414E49455F504F44414E494500525236
:100D50005F504F4454525A594D414E49455F435A92
:100D600041530052525F504F4454525A594D414ED4
:100D700049455F435A41535F4C41544F00435952D8
:100D80004B554C41434A415F544D494E00435952E3
:100D90004B554C41434A415F435A41535F57594C6D
:100DA00041435A004359524B554C41434A415F43DA
:100DB0005A41535F574C41435A004359524B554C8B
:100DC00041434A415F414C474F5259544D00434FB4
:100DD0005F435A41535F57594C41435A00434F5F59
:100DE000435A41535F574C41435A00434F5F414C74
:100DF000474F5259544D00434F5F5452594200439C
:100E00005755325F435A554A4E494B004357553266
:100E10005F435A554A4E494B5200435755325F4142
:100E20004C474F5259544D00435755325F54525915
:100E30004200435755325F484953544552455A4141
:100E400000435755325F5A4144414E410043575584
:100E50005F545F4D4158004357555F4849535445CF
:100E600052455A41004357555F5052494F525954C9
:100E70004554004357555F414C474F5259544D001C
:100E80004357555F54525942004357555F5A4144A6
:100E9000414E4100545745575F434F5F4F424E49C3
:100EA0005A4F4E4100545745575F48495354455295
:100EB000455A4100545745575F5A4144414E4100FD
:100EC000504945435F414C474F5259544D0050499A
:100ED00045435F484953544552455A41005049459E
:100EE000435F5A4144414E4100504945435F54528B
:100EF000594200504945435F545F4D4158005049A5
:100F000045435F414C41524D5F545F4D494E005047
:100F10004945435F545F4D494E00544C4F4B5F432E
:100F20005A41535F43594B4C5500504F44414A4E30
:100F3000494B5F544C4F4B4F575900504F44414A17
:100F40004E494B5F474C45424F4B4F534300504F28
:100F500044414A4E494B5F414C41524D5F4D494ED1
:100F600000504F44414A4E494B5F505245444B4F0D
:100F700053435F504F444157414E494100504F4405
:100F8000414A4E494B5F435A41535F504F44414A97
:100F90004E494B4100504F44414A4E494B5F435AE2
:100FA00041535F444F5F4F50524F5A4E49454E494F
:100FB0004100504F44414A4E494B5F545F4D4158A8
:100FC00000504F44414A4E494B5F435A41535F578B
:100FD00059525A55545500504F44414A4E494B5F5F
:100FE000545F5759534F4B415F504F57544F524BDB
:100FF0004900504F44414A4E494B5F545F57595343
:101000004F4B4100504F44414A4E494B5F435A4178
:10101000535F504F444E4F535A454E49410054522E
:101020004941433A207A6D69616E61206E61207496
:101030007279622025640054524941433A207A6D06
:1010400069616E61206E612074727962202564008E
:10105000444D5F54595000444D5F504C55535F4DC3
:101060004F4300444D5F504C55535F435A4153002A
:10107000444D5F524F5A525543485F4D4F430044D1
:101080004D5F524F5A525543485F435A41530044B3
:101090004D5F544C4F5F4D4F4300444D5F544C4F98
:1010A0005F435A415300444D5F444F50414C414EC1
:1010B00049455F4D4F4300444D5F444F50414C41C3
:1010C0004E49455F435A415300444D5F4D4F44558F
:1010D0004C41434A4100444D5F494E574552534AA3
:1010E000415F50574D00444D5F4F464653455400B5
:1010F000444D5543484157415F41435F4752555026
:101100004F574F004E45545F444E53004E45545F79
:101110004252414D41004E45545F4D41534B4100B9
:101120006175746F004E45545F4950004E45545FE1
:101130004D4143004F46465345545F002D3E00202D
:1011400000533A2000535F0053443A206272616BAF
:1011500020706C696B7520636F6E6669672E74789A
:1011600074005D00636F6E6669673A205B005757D5
:10117000573A2041757468206F6B003C68313E34EB
:10118000303120556E617574686F72697A65643CA0
:101190002F68313E005757572D41757468656E743E
:1011A00069636174653A20426173696320726561A5
:1011B0006C6D3D224C75636A616E202D20737472D4
:1011C0006F6E6120737465726F776E696B61220058
:1011D000436F6E74656E742D547970653A20746532
:1011E00078742F68746D6C00485454502F312E3031
:1011F0002034303120417574686F72697A61746986
:101200006F6E205265717569726564005757573A61
:101210002041757468206661696C21210057575719
:101220003A2041757468204E554C4C00573A2000C6
:10123000463A20004B3A20005757573A20627261D5
:101240006B20706C696B753A20005757573A204FE6
:1012500064637A797420706C696B753A00616363BA
:101260006573732D636F6E74726F6C2D616C6C6F30
:10127000772D6F726967696E3A202A0A00575757AF
:101280003A20426C616420706172736F77616E699D
:10129000612055524C002062616A746F77290020EA
:1012A0006D7320286F64656272616E6F200020622A
:1012B000616A746F77207720005757573A205A6138
:1012C000706973616E6F20005757573A205A6170EA
:1012D0006973756A6520706C696B3A0044495343C1
:1012E0004F4E4E454354454400435755323A004310
:1012F0005755313A00434F3A0069643A004125326C
:1013000064202520346420252033642525202520D1
:1013100035646D560054524941433A20302D2564BE
:1013200020312D256420532D2564206F6B2D2564DD
:10133000002025642525204445542D25642F323076
:10134000300054524941433A20542D2564205A2DEF
:10135000256420542D5A2D256420462D25640054E3
:10136000524941433A20444D5F545950203D202575
:10137000640057594741535A414E49453A206453F6
:1013800050414C494E2025642C206450494543204F
:1013900025642C206454332025642C20637A6173E7
:1013A000202564004D4F433A256420686973743AE0
:1013B0002520336420706F643A2520336420706FD9
:1013C000733A2520346420646D3A25203364206C00
:1013D00069637A3A256400424C4144004F4B004F08
:1013E0004B004B4F0066756C6C004F4B00575757C6
:1013F0003A20736574200020743A0020653A00207A
:101400006D3A00206F3A0020703A002049443A00BB
:1014100044414C4C41532000444953434F4E4E45A8
:10142000435445440077656E74796C61746F723A09
:1014300000435755323A00435755313A00224F4640
:10144000462200224F4E2200224F46462200224FC3
:101450004E22002263777532223A20007B22637786
:101460007531223A20006163636573732D636F6E7B
:1014700074726F6C2D616C6C6F772D6F7269676918
:101480006E3A202A0A00743A5B00616363657373E5
:101490002D636F6E74726F6C2D616C6C6F772D6F36
:1014A000726967696E3A202A0A002E002D00227D9B
:1014B00000302E312E302E3133302E3335002C2299
:1014C000766572223A22002274696D65223A002CF8
:1014D0000022616C223A20002C003000310022747E
:1014E0006572223A20002C003000310022637972AC
:1014F0006B223A20002C00300031002263777532D5
:10150000223A20002C00300031002263777531220E
:101510003A20002C003000310022636F223A200074
:101520002C003000310022706F64223A20002C0021
:1015300022706F64676D696E223A20002C00227061
:101540006F64637A646F223A20002C0022706F640B
:10155000637A7A6173223A20002C0022706F6463F0
:101560007A223A20002C002D310022706F64636DC6
:1015700070223A20002C0022706F64636D223A20A2
:10158000002C002277656E31223A20002C00227751
:10159000656E30223A20007D5D2C007B2274223A59
:1015A00020007D2C007B22746865726D6F73223A77
:1015B0005B006163636573732D636F6E74726F6C30
:1015C0002D616C6C6F772D6F726967696E3A202A96
:1015D0000A004F4B006163636573732D636F6E7414
:1015E000726F6C2D616C6C6F772D6F726967696EAD
:1015F0003A202A0A004F4B006163636573732D63C1
:101600006F6E74726F6C2D616C6C6F772D6F726979
:1016100067696E3A202A0A004B4F004F4B002F6D2E
:101620006F64756C61636A61006163636573732DD8
:10163000636F6E74726F6C2D616C6C6F772D6F724F
:101640006967696E3A202A0A004B4F004F4B002F02
:10165000683464006163636573732D636F6E7472C5
:101660006F6C2D616C6C6F772D6F726967696E3A64
:10167000202A0A00227D00302E312E302E313330C8
:101680002E3335002C22766572223A22007B22749A
:10169000696D65223A006163636573732D636F6ED4
:1016A00074726F6C2D616C6C6F772D6F72696769E6
:1016B0006E3A202A0A0020443A00554E4B4E4F57AE
:1016C0004E200055445020202020202020202000A3
:1016D00054494D455F574149542020200053594EED
:1016E00053454E5420202020200053594E5245434C
:1016F000562020202020005050504F4520202020F0
:10170000202020004D4143524157202020202020FE
:10171000004C495354454E202020202020004C41AD
:1017200053545F41434B20202020004950524157E1
:10173000202020202020200046494E5F5741495458
:10174000202020200045535441424C4953484544F1
:101750002000434C4F53494E472020202020004377
:101760004C4F53454420574149542000494E495459
:10177000202020202020202000434C4F534544208F
:101780002020202020003A30780053230045535079
:101790003A2057494649206572726F723A200045D7
:1017A00053503A2057494649206F6B004241443A12
:1017B000200053594E4321006A65737400627261C0
:1017C0006B004553503A20737A756B616D206573D9
:1017D000702D6C696E6B202E2E2E200020200000B4
:1017E00000000000FF0700000000000005052020A9
:1017F0000000000004FF04FF0401FF0108FF0607CA
:10180000FF05000001200401040120040806022055
:101810000307020405200000000000000801030483
:1018200000000000010204050000000001040401A2
:101830000401010404FF0401FF0100002005000071
:101840000000000004040420202000002004000008
:1018500000000000202004010401202008010203F0
:101860000405000001022004FF040000060602FF38
:101870000707000001060204070500000304FF201B
:1018800020FF0000FF060607070500000806060304
:1018900007050000010102200820000008060203DD
:1018A000070500000806020707050000A5A50000BF
:1018B00000000000040500000000000020040101F9
:1018C00001040000040404010101000001042004DB
:1018D00001010000010602200720000008060203A3
:1018E00004040000080602FF20FF0000FF0605FFB9
:1018F000070200000801010304040000FF0102FFC9
:1019000004050000FF0606FF07070000FF0606FFAC
:10191000202000000801010304020000FF04FFFF73
:1019200020FF000001FF0104FF0400002020FF044D
:1019300004050000FF0405FF20020000FF2020FF37
:101940000404000008030502FF2020FFFF0220FF1F
:10195000FF2003FF0801020304050000080602FF40
:1019600020200000080102200304FF04FF0602FFFC
:1019700020020000080606070705000001FF0120FD
:10198000FF200000FF20FF030405000003202005C6
:1019900020020820FF2020FF030802050304050899
:1019A0002002000003040520FF20000001060508B6
:1019B00007040000FF01FF040000000001042020D4
:1019C0002020010401FF04FF000000000802202085
:1019D0000000000020202004040400006E6F7761E6
:1019E0003A20202020202020253364202000253389
:1019F00064732F25336473202020202020004B4F58
:101A000052454B54412025643A20253364732020ED
:101A10002020006E6F77613A202020202020202592
:101A200033642020005052414341202020202020B8
:101A30002020202020005A415359502E4D4F433A28
:101A400020253364252520202020006E6F77613A01
:101A500020202020202020253364202000504F44C7
:101A600054525A594D414E4945202020200052528F
:101A70002E435A41533A2020202533646D202020E4
:101A800020006E6F77613A2020202020202025330F
:101A900064202000504F4454525A594D414E4945FC
:101AA000202020200052522E4D4F433A202020204B
:101AB000253364252520202020006E6F77613A2091
:101AC000202020202020253364202000504F445423
:101AD000525A594D414E4945202020200052522E45
:101AE000504F53544F4A3A2025336473202020200E
:101AF000006E6F77613A202020202020202533645B
:101B0000202000504F4454525A594D414E494520CF
:101B10002020200052522E504F4441572E3A20256B
:101B20003364732020202020006E6F77613A2020DC
:101B300020202020202533642020005052414341A2
:101B400020202020202020202020200052522E4D16
:101B50004F433A20202020253364252520202000D3
:101B60006E6F77613A2020202020202025336420CA
:101B700020005052414341202020202020202020BE
:101B800020200052522E504F53544F4A2E3A2533A4
:101B9000647320202020006E6F77613A202020207F
:101BA0002020202533642020005052414341202032
:101BB0002020202020202020200052522E504F4450
:101BC00041572E3A202533647320202020006E6F69
:101BD00077613A2020202020202025336420200017
:101BE00020202020202020202020202020202020F5
:101BF0000020202020202052524D32202020202062
:101C0000200020202020202052524D202020202063
:101C10002020002020202020205252202020202080
:101C200020202000202020205A415359504F57593E
:101C3000202020200020202045434F414C2F42529D
:101C4000554C4920200020202057594C41435A4FE1
:101C50004E5920202020005049454320414C474FF9
:101C60005259544D3A2020002020202020202020AE
:101C7000202020202020202000205E5E202057539E
:101C80005445435A20205E5E2000202020205350DF
:101C9000414C414E49412020202000202020555316
:101CA00054415749454E4941202020002020202002
:101CB0002020202020202020202020200020202044
:101CC000555354415749454E4941202020006D6DE0
:101CD0002E002020202020202020202020202533FE
:101CE000642525005A41534F424E494B3A2020204B
:101CF00020202020005A41534F424E494B3A205059
:101D0000454C4E4520555A5550454C4E49454E4937
:101D100045006E6F77613A20202020202020253357
:101D2000642020002020202020202020202020208F
:101D300020202020005A4144414E4120434F3A2068
:101D4000253364202020202000545259422052453F
:101D5000435A4E593A202020200054523A205245EE
:101D6000435A4E593A20256400202020202020206C
:101D70002020202020253364252500444D5543484C
:101D80004157413A202020202020200054523A2060
:101D9000444D554348415741204D4F433A20256417
:101DA00000504F44414A4E494B3A202020202020E9
:101DB000200054523A20504F44414A4E494B3A2059
:101DC0002564005A41572E3444205A414D594B4105
:101DD0004A3A200054523A205A3444205A414D3A4B
:101DE000202564005A41572E3444204F545749450A
:101DF00052414A3A0054523A205A3444204F5457E0
:101E00003A20256400504F4D5041204359524B55C4
:101E10004C3A2020200054523A2050204359524B33
:101E20003A20256400504F4D504120435755323AD7
:101E300020202020200054523A2050204357553271
:101E40003A20256400504F4D504120435755313AB8
:101E500020202020200054523A2050204357553152
:101E60003A20256400504F4D504120434F3A2020E6
:101E700020202020200054523A205020434F3A2066
:101E800025640054383A253032642E256420202001
:101E90002020202020200054373A253032642E257F
:101EA000642020202020202020200054363A253095
:101EB00032642E2564202020202020202020005461
:101EC000353A253032642E25642020202020202021
:101ED00020200054343A253032642E2564202020FE
:101EE0002020202020200054333A253032642E2533
:101EF000642020202020202020200054323A253049
:101F000032642E2564202020202020202020005410
:101F1000313A253032642E256420202020202020D4
:101F20002020005350414C494E593A253033642EFD
:101F3000256420202000504F444C4F47413A253023
:101F400032642E2564202020200020202020202004
:101F50002020202020202020202000504F44414AD3
:101F60004E494B3A253032642E25642020200057FC
:101F700045574E3A20253032642E256420202020FB
:101F8000202000253032642E2564202020202020AF
:101F9000005A45574E3A00504F57524F543A253049
:101FA00032642E2564202020202000504F57523AC2
:101FB000253032642E2564205A3A253032642E258D
:101FC0006400434F3A253032642E256420202020BF
:101FD000202020202000434F3A253032642E2564F3
:101FE000205A34443A253032642E256400202020C3
:101FF0002020202020202020202020202000204ED3
:1020000049455A4E414E5920414C41524D200020E5
:10201000435A554A2E55535A4B4F445A4F4E590026
:102020002020202020414C41524D202020202020E3
:102030000020504945432057594741535A4F4E5964
:1020400020002020202020414C41524D20202020E3
:102050002020002020504945432020542E4D494E39
:10206000202020002020202020414C41524D2020C3
:10207000202020200050525A4550414C4F4E5920AC
:1020800042455A502E002020202020414C41524DE4
:102090002020202020200020504F5A59434A412020
:1020A000544C4F4B412020002020202020414C4107
:1020B000524D202020202020004E49534B492053D0
:1020C00054414E205A41534F4200202020202041AD
:1020D0004C41524D2020202020200054454D502EB0
:1020E0004D414B532E504F44414A2E00202020207A
:1020F00020414C41524D2020202020200054454DAD
:10210000502E204D414B532E504945434100202035
:10211000202020414C41524D202020202020002012
:1021200020202020414C41524D4F5720202020009C
:102130002020202020204252414B202020202020FF
:1021400000414C4D3A20534B41534F57414E4F2085
:102150005049454320544D494E00414C4D3A20537F
:102160004B41534F57414E4F20435A554A4E494BCE
:102170002055535A4B4F445A4F4E5900414C4D3AFB
:1021800020534B41534F57414E4F20504945432018
:1021900057594741535A4F4E5900414C4D3A2053DD
:1021A0004B41534F57414E4F2050525A4550414C8E
:1021B0004F4E592042455A504945435A4E494B00CB
:1021C000414C4D3A20534B41534F57414E4F2050B5
:1021D000524F424C454D205A20544C4F4B49454D8F
:1021E00000414C4D3A20534B41534F57414E4F20E5
:1021F000504F44414A4E494B205354414E204D4983
:102200004E00414C4D3A20534B41534F57414E4F96
:1022100020504F44414A4E494B20544D41580041B3
:102220004C4D3A20534B41534F57414E4F2050494C
:10223000454320544D415800414C4D3A204E4943AE
:1022400020444F20534B41534F57414E49410020AA
:102250002020202020434F3A00414C41524D204342
:102260004F3A00253032643A2530326420434F3AE9
:10227000004357553A253032642E256420002070E3
:102280006F323A200020706F3A200070727A6564D5
:102290003A00743A5B004C43443A006469736162EB
:1022A0006C656400656E61626C656400202041634A
:1022B00063656C65726174696F6E20697320004399
:1022C0006C69636B456E636F6465723A3A446F750F
:1022D000626C65436C69636B656400427574746F0E
:1022E0006E3A200020613A2000206D656E753A201C
:1022F000002045323A200044414C4C41533A204B97
:102300006F6E69656320706F737A756B6977616E44
:10231000696120637A756A6E696B6F772E0044413C
:102320004C4C41533A204E494520444F44414E4F76
:10233000212100202054656D706572617475726191
:10234000203D2000204352433D0020204461746121
:10235000203D2000204E69657A6E616E79204453DD
:1023600031387878002044533138323200204453D9
:102370003138423230002044533138533230006219
:102380006C6164204352430044414C4C41533A2019
:102390004944203D0020437A6173206B6F6D656E68
:1023A0006461206B6F6E776572736A6920646C611B
:1023B00020637A756A6E696B61203D200044414C50
:1023C0004C41533A20506F637A6174656B20706F93
:1023D000737A756B6977616E696120637A756A6E6D
:1023E000696B6F772E005254433A206F64637A7999
:1023F00074207A61736F626E696B613A0053544165
:1024000052540053544152540049503A2062726170
:102410006B204574686572536869656C642E2E2E56
:10242000005757573A7374726F6E6120676F746FFD
:102430007761005757573A7572756368616D6961C6
:102440006D207374726F6E652E2E2E0049503A20E7
:10245000646E733A0049503A206272616D613A00CD
:1024600049503A206D61736B613A0049503A2061DE
:10247000647265733A0049503A206D61633A0049CD
:10248000503A20706F62696572616E69652061649F
:1024900072657375207A20444843502E2E2E0062B8
:1024A00072616B0049503A20636869702E2E2E00CD
:1024B000576F6C6E792052414D3A0049503A206B6B
:1024C0006F6E666967757261636A612073696563BF
:1024D000692E2E2E00576F6C6E792052414D3A00B6
:1024E000576F6C6E792052414D3A00576F6C6E7980
:1024F0002052414D3A0053443A20626C6164206F8F
:1025000064637A7974752064616E796368005344FA
:102510003A20626C6164206B617274790053443AB2
:10252000206272616B206B61727479004545505274
:102530004F4D3A206E6965207A6E616C657A696FDD
:102540006E6F00454550524F4D3A207A6E616C6572
:102550007A696F6E6F005254433A206272616B2049
:10256000445331333037005254433A2053544F5080
:10257000202D3E205354415254005254433A207A65
:102580006E616C657A696F6E6F20445331333037FA
:1025900000302E312E302E3133302E3335004C7535
:1025A000636A616E20762E001F1F1F00000000006E
:1025B000181C1E1F1F1F1F1F1F1F1F1F1F0F07037A
:1025C00000000000001F1F1F1F1F1F1F1F1E1C18C1
:1025D0001F1F1F0000001F1F1F000000001F1F1FE4
:1025E00003070F1F1F1F1F1F4932433A20536B6100
:1025F0006E6F77616E6965202E2E2E00302E312E83
:10260000302E3133302E3335004C75636A616E20C5
:10261000762E00302E312E302E3133302E333500D1
:102620004C75636A616E20762E0044533A20002078
:102630004552524F520044533A206E723A2564205C
:10264000703A256420653A25640044533A206E723E
:102650003A256420703A256420743A256420637218
:10266000633A2564204F4B004E45543A206A657307
:102670007420706F6C61637A656E6965004E4554B5
:102680003A206272616B20706F6C61637A656E696B
:102690006100444E533A2025643A20001F1C1F1E3F
:1026A0001F1E1F1F1E1F1E1F005EBCE2613FDD8339
:1026B000C29C7E20A3FD1F419DC3217FFCA2401E22
:1026C0005F01E3BD3E6082DC237D9FC1421CFEA012
:1026D000E1BF5D0380DE3C62BEE0025CDF81633D02
:1026E0007C22C09E1D43A1FF4618FAA427799BC5F2
:1026F00084DA3866E5BB5907DB856739BAE40658E2
:102700001947A5FB7826C49A653BD987045AB8E6D1
:10271000A7F91B45C6987A24F8A6441A99C7257BC1
:102720003A6486D85B05E7B98CD2306EEDB3510FB1
:102730004E10F2AC2F7193CD114FADF3702ECC92A1
:10274000D38D6F31B2EC0E50AFF1134DCE90722C91
:102750006D33D18F0C52B0EE326C8ED0530DEFB181
:10276000F0AE4C1291CF2D73CA947628ABF5174971
:102770000856B4EA6937D58B5709EBB536688AD461
:1027800095CB2977F4AA4816E9B7550B88D6346A51
:102790002B7597C94A14F6A8742AC896154BA9F741
:1027A000B6E80A54D7896B3545433A53423200455F
:1027B000433A5343310045433A5343300045433A8B
:1027C00053434F00434D443F3F004E4545445F5304
:1027D000594E4321002000524553505F43423A2056
:1027E00000524553505F563A2000454C433A204929
:1027F0006E76616C69642043524300200020002003
:10280000003A2000204000454C433A20676F742076
:10281000004D41503A206272616B20637A756A6E96
:10282000696B612044533A20002A2A444D503100FC
:102830002A2A444D5431002A2A444D5432002A2A6F
:10284000444D545F4F4E002A2A444D445F4F4E0082
:102850002A2A444D505F4F4646002A2A444D505F75
:102860004F4E002A2A444D525F4F464632002A2AD4
:10287000444D525F4F4646002A2A444D525F4F4E08
:1028800000205434443A00207A6164616E613A0059
:1028900034443A20435A454B414D59202D2064651C
:1028A0006C74613A00205434443A00207A616461C7
:1028B0006E613A00206B726F6B3A0034443A204BE1
:1028C000524543494D59202D2064656C74613A008E
:1028D00034443A205445524D4F53544154204F46AE
:1028E000460034443A205445524D4F5354415420ED
:1028F0004F4E0052414D333A0044454C455445003B
:102900004F5054494F4E530050555400504F53545C
:10291000004745540052414D323A004F4646004F61
:102920004E00204F42202D3E20004F4646004F4E85
:102930000020434F202D3E20004F4646004F4E00C2
:1029400020435755202D3E20004841524D4F4E4FB9
:102950004752414D3A2000503A2025642C2530340E
:10296000642C253034642C253034642C25303464B8
:1029700000414C4C3A2025646D7300535230343A78
:102980000054353A2000535458207A6C7900435251
:1029900043207A6C79006D6D2E004352432C005316
:1029A00054582C0025582025582025582025582CCF
:1029B0000020532C0020532C0020532C0020532C9B
:1029C0000053523034543A200041363A20256420D6
:1029D000256420256400545A3A0054524941433A30
:1029E00020302D256420312D256420532D25642091
:1029F0006F6B2D25640054524941433A20302D25F8
:102A00006420312D256420532D2564206F6B2D25E6
:102A100064002025642525204445542D25642F324B
:102A200030300054524941433A20542D2564205AF5
:102A30002D256420542D5A2D256420462D25640013
:102A40002025642525204445542D25642F3230301F
:102A50000054524941433A20542D2564205A2D25D3
:102A60006420542D5A2D256420462D2564004D41A7
:102A70005820646174613A202523782C20743A250B
:102A8000642C20743A25640020534356002053439D
:102A90004700204F4300544B206572726F723A001A
:102AA00054524941433A2070726F626C656D7920CF
:102AB0007A20646574656B746F72656D2030203A9E
:102AC0002025642F323030005254433A20643A2596
:102AD000642025643A25640054524941433A207ADF
:102AE000616B6C6F63656E6961207A2064657465E3
:102AF0006B746F72612C20543D0054524941433A2B
:102B0000207A616B6C6F63656E6961207A20646501
:102B100074656B746F72612C20543D002072657473
:102B200072793D0045434F414C3A2070726F626CA0
:102B3000656D79207A206B6F6D756E696B61636A64
:102B400061203A206572723D004553503A0045536A
:102B5000503A20637A61733A20004553503A20700E
:102B60006F62696572616D20637A61730069643AAE
:102B7000200054524941433A73746172792074724F
:102B800079620054524941433A6E6F7779207472EA
:102B900079620054524941433A6E6F7779207472DA
:102BA00079622032005254433A20643A2564202549
:102BB000643A25643A256400576F6C6E792052415F
:102BC0004D3A00576F6C6E792052414D3A002061AA
:102BD0005F703A00615F743A00414C4D3A20435AAD
:102BE000554A2E2055535A4B4F445A4F4E59004187
:102BF0004C4D3A20504945432057594741535A4F6D
:102C00004E5900414C4D3A205049454320542E4DD9
:102C1000494E00414C4D3A2050525A4550414C4F7C
:102C20004E592042455A504945435A4E494B00415E
:102C30004C4D3A2050524F424C454D205A20544C56
:102C40004F4B49454D00414C4D3A20504F44414A6D
:102C50004E494B205354414E204D494E00414C4D5E
:102C60003A20504F44414A4E494B20542E4D415832
:102C700000414C4D3A205049454320542E4D415877
:102C800000414C4D3A204252414B00576F6C6E79D7
:102C90002052414D3A0041253264202566202520EE
:102CA0003364252520252035646D56200073657416
:102CB000205B00524553455400524553455400573C
:102CC00045423A005A34443A00504D503A00444D7F
:102CD000553A00504F443A00414C473A00414C4D60
:102CE0003A004D41503A00414E413A004D41583A68
:102CF0000044414C4C3A00434F4E3A0054494D3A3F
:102D00000000002100240027002A002D003000339D
:102D10000001010000040107010A01000022002552
:102D20000028002B002E00310034000201000005B5
:102D30000108010B0100000B0C030A0D0E0F09081E
:102D40000405020000000000000000000000000078
:102D50000000000000000000000000000000000073
:102D6000001312110000000000000000000000002D
:102D70000000000000000000000000000000000053
:102D800000000000000000000000007C3C3E5E2BC4
:102D90003D3F2F5B5D3B2C2A225C000505050507A6
:102DA0000508080808020202020A0A0808040404C6
:102DB00004010101010101010103030303030303F2
:102DC00003040707070C0C0C0C0C0C0C0C02020281
:102DD0000206060606060606060B0B0B0B0B0B0B74
:102DE0000B050505080807070404040A0A0A0A0A6D
:102DF0000A01021020200808102040102040800204
:102E00000102010804020101020408102040808030
:102E100040201008040201800402018040201008B4
:102E2000040201080402010102040810204080018C
:102E30000204081020408004408004800810102004
:102E400040040810204080000020002300260029B4
:102E5000002C002F003200000100000301060109D0
:102E600001426173696320005957527461573436C7
:102E70006248566A616D467500303230313030300C
:102E80003630303030303030303631303300003191
:102E90006253C4F5A697B988DBEA7D4C1F2E4372B6
:102EA000211087B6E5D4FACB98A93E0F5C6D86B7A2
:102EB000E4D5427320113F0E5D6CFBCA99A8C5F49E
:102EC000A796013063527C4D1E2FB889DAEB3D0C7A
:102ED0005F6EF9C89BAA84B5E6D7407122137E4F76
:102EE0001C2DBA8BD8E9C7F6A59403326150BB8A72
:102EF000D9E87F4E1D2C02336051C6F7A495F8C95E
:102F00009AAB3C0D5E6F4170231285B4E7D67A4BC5
:102F10001829BE8FDCEDC3F2A1900736655439083D
:102F20005B6AFDCC9FAE80B1E2D344752617FCCD21
:102F30009EAF38095A6B4574271681B0E3D2BF8E15
:102F4000DDEC7B4A192806376455C2F3A091477619
:102F5000251483B2E1D0FECF9CAD3A0B58690435FD
:102F60006657C0F1A293BD8CDFEE79481B2AC1F0F1
:102F7000A3920534675678491A2BBC8DDEEF82B3D5
:102F8000E0D1467724153B0A5968FFCE9DAC436FCC
:102F90006E74656E742D547970653A200048544DF6
:102FA0002A746578742F68746D6C7C5458542A7434
:102FB0006578742F706C61696E7C4353532A746515
:102FC00078742F6373737C584D4C2A746578742F12
:102FD000786D6C7C4A532A746578742F6A617661C7
:102FE0007363726970747C4749462A696D616765CD
:102FF0002F6769667C4A50472A696D6167652F6A49
:103000007065677C504E472A696D6167652F706EE9
:10301000677C49434F2A696D6167652F766E642E20
:103020006D6963726F736F66742E69636F6E7C4D2A
:1030300050332A617564696F2F6D7065677C00007D
:10304000BAE3A1CB11241FBECFEFD1E2DEBFCDBFCB
:1030500000E00CBF16E0A0E0B2E0E6E8FAEE01E026
:103060000BBF02C007900D92AE31B107D9F724E132
:10307000AEE1B6E001C01D92AE3FB207E1F718E144
:10308000C1E2D8E100E006C021970109802FFE01CE
:103090000E94ADF3C032D10780E00807A9F70E9473
:1030A000A9CB0C9432F50C940000E091440D809172
:1030B000430DE81730F4F0E0E05EF24F808190E0DD
:1030C00008958FEF9FEF08959091440D8091430DE7
:1030D0002FEF3FEF981748F4E92FF0E0E05EF24F52
:1030E000208130E09F5F9093440DC9010895809145
:1030F000430D9091440D891B990B089585ED8093A4
:10310000BC008091BC0084FDFCCF1092420D08955C
:10311000613298F42091420D243089F460931509AE
:10312000282FA5EFB8E0FC018E2F821B861710F028
:1031300080E0089581918D93F7CF81E0089582E03A
:103140000895CF92DF92EF92FF920F931F93CF9348
:10315000DF937C01CB018A012091480D222389F065
:10316000EB016B01C40ED51ECC15DD0561F0699134
:10317000D701ED91FC910190F081E02DC7011995E7
:10318000F3CF642FC5DFC801DF91CF911F910F915D
:10319000FF90EF90DF90CF900895CF93DF931F9231
:1031A000CDB7DEB769832091480D2223F9F0209135
:1031B000450D203258F021E030E0FC0133832283BA
:1031C00090E080E00F90DF91CF9108958091460DBF
:1031D000E82FF0E0E85CF64F998190838F5F809351
:1031E000460D8093450D81E090E0ECCF61E0CE018B
:1031F00001968EDFF8CFA091490DB0914A0D10973E
:1032000009F450C0E091FA0CF091FB0C4085518517
:10321000808191814115510511F491878087208526
:1032200031852150310931872087452B89F4169645
:103230002C9116971782168230E0338322839C01EB
:1032400097FF02C02F5F3F4F359527953583248325
:103250002481358142815381241B350B37FD13C0F6
:103260003583248340E0268137812F5F3F4F281725
:1032700039077CF437832683ED91FC9181E041117D
:1032800001C080E01994280F391F3583248341E061
:10329000EACF1782168297FD0196959587959583BB
:1032A0008483EACF0895CF92DF92EF92FF921F932B
:1032B000CF93DF93C091490DD0914A0D2097B1F182
:1032C00089A18A3F18F489A18F5F89A31FB7F89459
:1032D0008091840090918500B0E0A0E0898F9A8F62
:1032E000AB8FBC8F8E81882349F1C98CDA8CEB8C33
:1032F000FC8C298D3A8D4B8D5C8DAE81B0E00E94A7
:10330000BFF02CE93FEF4FEF5FEF0E94A3F02C0DD1
:103310003D1D3E8F2D8F8D8D9E8D90938B008093C4
:103320008A0010928500109284001FBFDF91CF9118
:103330001F91FF90EF90DF90CF900895898D9A8D27
:10334000AB8DBC8D88579C4E9E8F8D8FE4CF08959A
:103350008CB18295817008958091840B882369F0E7
:10336000109248081092470810925E0B10926E0A55
:103370001092580B1092590B089510925C0B1092FA
:103380005B0B10925A0BECCF90910F0B91FD2BC061
:1033900090911108992341F12091150C9AE0299FF1
:1033A0009001112430934808209347082091470842
:1033B0003091480840910402509105026091060244
:1033C00070910702420F531F611D711D409304024B
:1033D00050930502609306027093070280939A0649
:1033E00081E080935E0B08952AE0829FC001112442
:1033F0009093480880934708F3CF811108C08091CB
:1034000008018F7D809308014598449A0895809122
:103410000801806280930801459A44980895CF93EB
:10342000DF939091490A903151F1ADE4BDE02EE077
:10343000929FE001112430E020E0492F50E0283035
:10344000310551F06D91F901EC0FFD1FE759F64F71
:1034500060832F5F3F4FF3CF28E02093ED082EE0ED
:10346000249FF001259FF00D1124E759F64F808726
:103470009F5F9093490A81E0DF91CF91089580E0AA
:10348000FBCFFF920F931F93CF93DF938C01D80153
:1034900017968C91179720912A0615969C9115974F
:1034A00030912A0616964C911697C0912A06C0951F
:1034B000C4239323C92B8227FC2EF82280912A064D
:1034C00017968C9317971896CD91DC912097B1F0B1
:1034D0008B81982F9F2171F090912A06892391E08A
:1034E00009F490E0909329068C8180932806E88166
:1034F000F98119950D80DE81C02DE8CF9BB3F801CD
:103500008481982351F09BB3892B8BBB0190F08170
:10351000E02D808180932A06BACFDF91CF911F9151
:103520000F91FF900895FC01848595850895FC0115
:103530008489958908952CED33E0FC013183208343
:10354000FB014089518962897389FC01428353835D
:10355000648375830895DC01ED91FC91028CF38DF9
:10356000E02D1994CF93DF93FC01EB01A881B98181
:1035700090E030E020E08AE04D91442311F150EDDD
:10358000540F5A3090F4829FB001839F700D112424
:103590009B0120533109240F311D47FD3A952F3FE0
:1035A000310551F348F380E010C04E32E1F793301B
:1035B000D1F3EF01C90FD11D2A839F5F30E020E0D6
:1035C000DBCF933081F7258381E0DF91CF910895A0
:1035D0000F931F93CF93DF93EB018A01E881F98169
:1035E0000480F581E02DCB011995892B79F0E881D4
:1035F000F9810680F781E02DCE011995F8018083CD
:1036000081E0DF91CF911F910F91089580E0F9CF74
:10361000FC01768765870895DC01ED91FC91068CAD
:10362000F78DE02D199591E089270895862F08954B
:1036300081E08627089521E0FC018485883008F028
:1036400020E0822F0895CF92DF92EF92FF92CF93E6
:10365000DF93CDB7DEB72E970FB6F894DEBF0FBE5F
:10366000CDBF0E94F6C16B017C018EE0EEEDF3E070
:10367000DE01119601900D928A95E1F740917F113C
:103680005091801160918111709182118091661426
:1036900090916714A0916814B09169144817590764
:1036A0006A077B07D9F44DE751E1BE016F5F7F4F99
:1036B00089E891E10E941BC29F938F9382E996E271
:1036C0009F938F9381E393E19F938F930E944298FE
:1036D0000F900F900F900F900F900F906DE771E18A
:1036E00081E393E10E94FC980E94F6C1DC01CB01CA
:1036F0008C199D09AE09BF098093F1089093F208D7
:10370000A093F308B093F40821E0813B34E09307E1
:10371000A105B10508F420E02093F0086DE776E2FA
:10372000813B9440A105B10510F468E676E281E39F
:1037300093E10E946E992E960FB6F894DEBF0FBEED
:10374000CDBFDF91CF91FF90EF90DF90CF900895A4
:1037500066E075E0811102C067E175E08EEE92E1EE
:103760000C944A99CF93DF93CAE2D2E0699140E189
:1037700050E081E393E10E94B09882E0C033D80723
:10378000A9F781E393E1DF91CF910C949298EF92A6
:10379000FF920F931F93CF93DF93119A0E9467BB01
:1037A0008093E0080E94C5BB61E08EEB0E9439BBAC
:1037B0001092ED08C091ED08C930C0F4D0E088E067
:1037C000E82EF12C10E001E00E94A0BB8111102B2B
:1037D000000F81E0E81AF108B9F7CF51D74F1883ED
:1037E0008091ED088F5F8093ED08E4CF119868E039
:1037F00081EE98E00E9475AA91E02091E9082813D3
:1038000090E0892FDF91CF911F910F91FF90EF9062
:103810000895119A0E9467BB60E08CEC0E9439BB4E
:1038200061E084E40E9439BB11980895EF92FF9201
:103830000F931F93CF93DF938C017B01D0E0C0E007
:10384000D80114968D919C911597C817D907C8F483
:103850001296ED91FC91EC0FFD1F64914AE050E04F
:10386000C7010E94B098F801848195810197C8171B
:10387000D90728F46CEE73E0C7010E94E8972196FF
:10388000DFCFDF91CF911F910F91FF90EF900895BF
:103890006115710519F042960C94E89790E080E06C
:1038A00008958091CF089091D0080C94C29A80918D
:1038B000CF089091D0080E94C29A80915408882322
:1038C00031F08091540881508093540808958AE023
:1038D000809354088091F30A9091F40A892B49F05F
:1038E0008091F30A9091F40A01979093F40A8093DF
:1038F000F30A80915308882329F08091530881505E
:103900008093530880916009882329F08091600991
:1039100081508093600980912002882329F0809152
:10392000200281508093200280910902882329F08F
:103930008091090281508093090280912102909127
:103940002202A0912302B0912402892B8A2B8B2B77
:1039500099F08091210290912202A0912302B091CE
:1039600024020197A109B1098093210290932202B8
:10397000A0932302B09324028091510890915208A1
:10398000892B49F0809151089091520801979093AA
:1039900052088093510880914F0890915008892BCC
:1039A00049F080914F0890915008019790935008EA
:1039B00080934F08809108028823A9F08091080223
:1039C0008150809308028091080281110CC080917F
:1039D000CD111092CD118093070B84E180930802E2
:1039E00081E08093080B8091640A9091650A892B8D
:1039F00049F08091640A9091650A01979093650A55
:103A00008093640A80914D0890914E08892B49F06B
:103A100080914D0890914E08019790934E088093A5
:103A20004D088091660A9091670A892B49F0809130
:103A3000660A9091670A01979093670A8093660AD5
:103A40008091690A90916A0A892B49F08091690AEC
:103A500090916A0A019790936A0A8093690A80910B
:103A60004B0890914C08892B49F080914B0890911C
:103A70004C08019790934C0880934B08809149081B
:103A800090914A08892B49F08091490890914A0801
:103A9000019790934A088093490880914708909134
:103AA0004808892B49F08091470890914808019770
:103AB000909348088093470880915E0B882329F0F3
:103AC000809146088F5F80934608809146088A302F
:103AD000E9F5109246088091420890914308A09120
:103AE0004408B09145080196A11DB11D809342087C
:103AF00090934308A0934408B093450880914008F0
:103B000090914108019690934108809340088091DC
:103B10007B0B90917C0BA0917D0BB0917E0B892B40
:103B20008A2B8B2B99F080917B0B90917C0BA09131
:103B30007D0BB0917E0B0197A109B10980937B0B9E
:103B400090937C0BA0937D0BB0937E0B8091EE083D
:103B5000882329F08091EE0881508093EE088091AF
:103B6000040290910502A0910602B0910702892BF0
:103B70008A2B8B2B99F08091040290910502A091E1
:103B80000602B09107020197A109B10980930402CE
:103B900090930502A0930602B09307020895CF9276
:103BA000DF92EF92FF920F931F93CF93DF930E94C8
:103BB000F6C16093FB0A7093FC0A8093FD0A909310
:103BC000FE0AE091CF08F091D008F89486819781A1
:103BD0002285223009F048C19C01217033273783A8
:103BE000268378942285243009F047C195958795DE
:103BF000959587952089222309F445C1238534852D
:103C0000232F332797FF42C1C90180959095809358
:103C10003F0820913D0830913E08A901480F511DF1
:103C200087FD5A9550933E0840933D0820913B08EC
:103C300030913C0842175307A1F12091130B509388
:103C40003C0840933B08222361F161EF72E281E37B
:103C500093E10E944A9960913D0870913E0881E38A
:103C600093E10E9481B669EE72E281E393E10E94E2
:103C70004A9960913A08062E000C770B81E393E194
:103C80000E9481B664EE72E281E393E10E944A9958
:103C900060913F08062E000C770B81E393E10E94B0
:103CA00088B68091390880933808E091CF08F09168
:103CB000D00885859685258536852330310511F018
:103CC00016861586982F809339088091130B8823C8
:103CD000B9F09923A9F06BED72E281E393E10E94C0
:103CE0004A9980913908843009F4FEC008F0D4C0A4
:103CF000823009F4F2C064E074E0833009F4EFC06C
:103D00008091DE08882309F435C40E94F6C16093CF
:103D1000620C7093630C8093640C9093650C80919B
:103D2000380C882339F1809136089091370820911A
:103D30003F08211107C03091380820913908321707
:103D400009F4D8C0892B61F488E08093F91260E00F
:103D50008EEE92E10E9402AA809139088093380881
:103D60008091380C55E0859FC0011124909337084D
:103D7000809336088091DE08882309F4C3C39091AC
:103D8000090280913908992349F090913F089111D7
:103D900005C090913808981709F4B4C3833009F02E
:103DA000BCC0E091CF08F091D00880819181893B1F
:103DB0009B4048F482E180933A08109231080E94B7
:103DC000CFBF1092300880913F08882309F434C295
:103DD00080913108811130C26BE872E281E393E196
:103DE0000E944A9960913F08062E000C770B81E3F0
:103DF00093E10E9481B66CE270E081E393E10E945E
:103E000086B660913A08062E000C770B81E393E1A9
:103E10000E9481B680913A0890913F08890F809363
:103E20003A0865E872E281E393E10E944A99609161
:103E30003A08062E000C770B81E393E10E9481B6CD
:103E4000809130088111BDC180913A0887FF03C07D
:103E50008B5E80933A0880913A0885310CF4DDC17D
:103E6000855180933A08D9C1243021F49C012370F4
:103E70003327B5CE17821682B4CE223009F0BACEDF
:103E800095958795B7CE30E020E0BCCE009709F439
:103E9000BECEC9010196BBCE853049F1863009F00E
:103EA0002FCF6FEB72E281E393E10E946E996CEA8F
:103EB00072E281E393E10E944A99E091CF08F09188
:103EC000D008808964EA72E2811102C06BE972E273
:103ED00081E393E10E946E9913CF6EEE73E081E36C
:103EE00093E10E9495980CCF67E174E0F8CF6EE201
:103EF00074E0F5CF009709F43DCF01979093370810
:103F000080933608892B09F035CF1092F91260E0C2
:103F10008EEE92E10E9402AA2DCF863041F0909160
:103F20003108992309F44FCF853009F04CCFC09167
:103F30003A08C131F9F48091840B811132C0CC521E
:103F4000CA3008F040CF8091310891E0811190E0B3
:103F50009093310881112DC10E94D6BFEC2FF0E063
:103F600080913108E95AF74F811126C180912E08BE
:103F7000808332C0C63109F03DC08091310891E0A4
:103F8000811190E090933108811129C00E94D6BF21
:103F900080913108811126C080912E088093850B75
:103FA0001BC08091310891E0811190E0909331081D
:103FB00081110BC00E94D6BF80913108811108C0C9
:103FC00080916E0A8093B30B07C00E94CFBFF4CFDD
:103FD0008091B30B80936E0A10923908F4CE0E9440
:103FE000CFBFD6CF8091850B90E090932F08809320
:103FF0002E08F2CFCB31D1F48091310891E08111BC
:1040000090E09093310881110BC00E94D6BF80913F
:104010003108811108C080912E088093B10BDCCF4C
:104020000E94CFBFF4CF8091B10BDECFCC31D1F461
:104030008091310891E0811190E0909331088111D5
:104040000BC00E94D6BF80913108811108C08091B9
:104050002E088093B20BC0CF0E94CFBFF4CF8091C7
:10406000B20BC2CFCD31C1F48091310891E0811102
:1040700090E090933108811109C00E94D6BF8091D1
:104080003108811106C080912E089CCF0E94CFBFBD
:10409000F6CF8091B30BA8CFCF31D1F48091310806
:1040A00091E0811190E09093310881110BC00E9442
:1040B000D6BF80913108811108C080912E0880936D
:1040C000AE0B8ACF0E94CFBFF4CF8091AE0B8CCFC6
:1040D000C032D1F48091310891E0811190E0909349
:1040E000310881110BC00E94D6BF80913108811127
:1040F00008C080912E088093AF0B6ECF0E94CFBF77
:10410000F4CF8091AF0B70CFC132D1F480913108E0
:1041100091E0811190E09093310881110BC00E94D1
:10412000D6BF80913108811108C080912E088093FC
:10413000B00B52CF0E94CFBFF4CF8091B00B54CFC1
:10414000CE31D1F48091310891E0811190E09093CB
:10415000310881110BC00E94D6BF809131088111B6
:1041600008C080912E088093AC0B36CF0E94CFBF41
:10417000F4CF8091AC0B38CFC53209F0E0CE8091FE
:10418000310891E0811190E09093310881110BC0CA
:104190000E94D6BF80913108811108C080912E08FD
:1041A0008093110C19CF0E94CFBFF4CF8091110CD6
:1041B0001BCF0E94CFBFD2CE8081082E000C990B5E
:1041C00014CF813069F480913A0886311CF48D5FF8
:1041D00080933A0880913A088931FCF0835041CEAF
:1041E000823069F480913A088A311CF4875F8093A9
:1041F0003A0880913A08833284F0895032CE833075
:1042000009F0ADC080913A0884321CF48D5F809330
:104210003A0880913A0887320CF76EE772E281E340
:1042200093E10E944A9960913A08062E000C770BA0
:1042300081E393E10E9488B68AE080930902C091ED
:104240003A08C11146C28091730A9091740A109283
:104250002B0807EE13E0883E73E0970734F497FFCE
:1042600003C09195819591098C0160E08FE00E94D7
:104270009BBFCAE0D0E0C801BE010E949AF37B0157
:1042800060E3680F8EEE92E10E942FAAC701BE0183
:104290000E949AF3805D80932A08C80164E670E06A
:1042A0000E949AF3CB01BE010E949AF3805D809335
:1042B0002908C9E2D8E019E08991882309F4C0C02F
:1042C00090EE980F903408F0B8C0E8E08E02C0017C
:1042D0001124A4EDB8E030E020E040E08452994E93
:1042E000FC01E20FF31FE491ED93E1114F5F2F5FAB
:1042F0003F4F28303105A1F74093DD081092DC08CC
:1043000010922808E12EF12C80912808823008F0C4
:104310008CC010932708809127086091280820916D
:10432000DD0826952E0D3F2D311D821713060CF04A
:1043300078C00E949BBFE091DC0881E08E0F8093E3
:10434000DC08F0E0EC52F74F60818EEE92E10E94C3
:104350002FAA809127088F5F80932708DCCF8430B5
:1043600071F480913A0888321CF48E5F80933A0889
:1043700080913A088A320CF450CF825072CD853049
:1043800071F480913A088B321CF4845F80933A0870
:1043900080913A0887330CF440CF8C5062CD863040
:1043A00071F480913A0888331CF48F5F80933A0847
:1043B00080913A0889330CF430CF815052CD873048
:1043C00069F480913A088A331CF48F5F80933A082D
:1043D00080913A088B330CF420CFEFCF883069F40A
:1043E00080913A088C331CF48F5F80933A08809157
:1043F0003A088D330CF411CFE0CF893069F4809105
:104400003A088E331CF48F5F80933A0880913A0803
:104410008F330CF402CFD1CF1092300810923A08AB
:10442000FCCE6F5F609328086FCF8091DD08869582
:104430008150990B0196180F3FCF90E080E0FACFA2
:10444000C0919B0AD0919C0A61E080E00E949BBFD2
:10445000CE016AE070E00E949AF39F938F937F935E
:104460006F9381E792E29F938F938EEE92E19F93F9
:104470008F930E94429861E08FE00E949BBF8091E1
:10448000840B2DB73EB7285F3F4F0FB6F8943EBF61
:104490000FBE2DBF62E5811101C061E48EEE92E195
:1044A0000E942FAA0E94C8BF2091090B40910F0BB8
:1044B0005091100B6091110B7091120B9091DE12C4
:1044C0008091DD12222309F4D1C041155105610507
:1044D000710509F0CBC01F929F931F928F9383E6C3
:1044E00092E29F938F938EEE92E19F938F930E941F
:1044F00042984DB75EB7485F5F4F0FB6F8945EBF06
:104500000FBE4DBF0E94F6C10091620C1091630C6A
:104510002091640C3091650C601B710B820B930B26
:104520006093620C7093630C8093640C9093650CA1
:104530008091370C8823F1F08091620C9091630C8C
:10454000A091640CB091650C0397A105B10594F09E
:1045500066E972E281E393E10E944A994091620C1C
:104560005091630C6091640C7091650C81E393E150
:104570000E940CB90E94F6C10091320810913308D4
:104580002091340830913508601B710B820B930B1E
:10459000683E73408105910588F10E94F6C16093E1
:1045A00032087093330880933408909335088091D3
:1045B000140B80FF23C081E393E10E94929862E98B
:1045C00072E281E393E10E944A9903E71AE0C0E0B6
:1045D000F8016081718181E393E10E9481B6CF5F30
:1045E000C03111F00C94BA2E6DE570E081E393E1D7
:1045F0000E9486B681E393E10E949298109253083C
:1046000080910F0B9091100BA091110BB091120B98
:104610000097A105B10511F40C94C42E87FF02C0C8
:104620000C94C42E369902C00C94C42E46980E9455
:10463000F6C10091FB0A1091FC0A2091FD0A30910D
:10464000FE0A601B710B820B930B6093FB0A709345
:10465000FC0A8093FD0A9093FE0ADF91CF911F918F
:104660000F91FF90EF90DF90CF900895452B462B50
:10467000472BC1F01F929F931F928F9389E592E27F
:104680009F938F938EEE92E19F938F930E94429817
:104690006DB77EB7685F7F4F0FB6F8947EBF0FBED1
:1046A0006DBF30CF1F929F931F928F938FE492E242
:1046B0009F938F938EEE92E19F938F930E944298E7
:1046C0008DB79EB708960FB6F8949EBF0FBE8DBFEC
:1046D00019CFC13009F04AC1809139088530F9F409
:1046E00080910F0B9091100BA091110BB091120BB8
:1046F00068E372E20097A105B10569F082FF2FC05F
:104700008B7F80930F0B9093100BA093110BB093A2
:10471000120B6FE172E281E393E10E946E99809146
:104720000F0B9091100BA091110BB091120B0097F1
:10473000A105B10509F075C00E94C8BF60E371E230
:104740008EEE92E10E944A9961E080E00E949BBF58
:104750006FE171E28EEE92E10E944A99D3CE81FF21
:104760000CC08D7F80930F0B9093100BA093110BB7
:10477000B093120B62E072E2CECF83FF0CC0877F52
:1047800080930F0B9093100BA093110BB093120B0F
:1047900061EE71E2C0CF86FF0CC08F7B80930F0B60
:1047A0009093100BA093110BB093120B60EC71E27D
:1047B000B2CF87FF0CC08F7780930F0B9093100BB5
:1047C000A093110BB093120B6AE971E2A4CF91FF91
:1047D0000CC09D7F80930F0B9093100BA093110B37
:1047E000B093120B6CE771E296CF92FF0CC09B7FE7
:1047F00080930F0B9093100BA093110BB093120B9F
:104800006AE571E288CF90FF8ACF9E7F80930F0B7D
:104810009093100BA093110BB093120B61E471E213
:104820007ACF82FF0FC00E94C8BF6EE071E28EEEA9
:1048300092E10E944A9961E080E00E949BBF6DEF87
:1048400070E288CF81FF0FC00E94C8BF6CEE70E29B
:104850008EEE92E10E944A9961E080E00E949BBF47
:104860006BED70E277CF83FF0FC00E94C8BF6AEC88
:1048700070E28EEE92E10E944A9961E080E00E942F
:104880009BBF69EB70E266CF86FF0FC00E94C8BF76
:1048900068EA70E28EEE92E10E944A9961E080E05F
:1048A0000E949BBF67E970E255CF87FF0FC00E944F
:1048B000C8BF66E870E28EEE92E10E944A9961E01C
:1048C00080E00E949BBF65E770E244CF90FF0FC07D
:1048D0000E94C8BF64E670E28EEE92E10E944A999F
:1048E00061E080E00E949BBF63E570E233CF91FFFF
:1048F0000FC00E94C8BF62E470E28EEE92E10E9497
:104900004A9961E080E00E949BBF61E370E222CFA0
:1049100092FF0FC00E94C8BF60E270E28EEE92E18B
:104920000E944A9961E080E00E949BBF6FE070E2C4
:1049300011CF0E94C8BF6EEF7FE18EEE92E10E9420
:104940004A9961E080E00E949BBF40910F0B50911B
:10495000100B6091110B7091120B2AE030E08EEE7B
:1049600092E10E94AA986DEE7FE1F4CEC23009F088
:10497000A3C0C091730AD091740A0E94C8BFE0918D
:10498000A60B0AE010E0CE01B8010E949AF39B0149
:10499000482FC92FEF3F09F45FC0E091A60B98E0C4
:1049A000E902F0011124ED58F54F80819181B801A1
:1049B0000E949AF39F938F937F936F93CF934F931C
:1049C0003F932F9386ED9FE19F938F938EEE92E11D
:1049D0009F938F930E944298EDB7FEB73C960FB617
:1049E000F894FEBF0FBEEDBF00917B0A10917C0AC8
:1049F00061E080E00E949BBFF091A60BCAE0D0E08E
:104A0000C801BE010E949AF39B01482FE92FFF3F86
:104A1000D9F18091150290911602BE010E949AF37D
:104A20009F938F937F936F93EF934F933F932F9326
:104A30008BEA9FE19F938F938EEE92E19F938F93EA
:104A40000E9442984DB75EB7445F5F4F0FB6F8942F
:104A50005EBF0FBE4DBF56CD9F938F933F936F9315
:104A600082EC9FE19F938F938EEE92E19F938F93C1
:104A70000E9442982DB73EB7285F3F4F0FB6F8947B
:104A80003EBF0FBE2DBFB0CF9F938F933F936F93C9
:104A900087E99FE19F938F938EEE92E19F938F938F
:104AA0000E9442986DB77EB7685F7F4F0FB6F8944B
:104AB0007EBF0FBE6DBF26CDC33009F055C0C0917B
:104AC0008B0AD0918C0ACE016AE070E00E949AF3C2
:104AD00097FF03C0919581959109182F092F0E9486
:104AE000C8BF61E97FE18EEE92E10E944A996BE2D4
:104AF000D7FD6DE28EEE92E10E942FAA0F931F93D5
:104B00000AE010E0CE01B8010E949AF37F936F9300
:104B100083E89FE19F938F93CEEED2E1DF93CF9313
:104B20000E944298E090930AF090940A61E080E03D
:104B30000E949BBFC701B8010E949AF39F938F9375
:104B40007F936F938FE69FE19F938F93DF93CF9334
:104B50000E9442982DB73EB7205F3F4F0FB6F894A2
:104B60003EBF0FBE2DBFCECCC43069F5C091830AC5
:104B7000D091840A0E94C8BFCE016AE070E00E9412
:104B80009AF39F938F937F936F938BE59FE19F930E
:104B90008F938EEE92E19F938F930E94429861E0F3
:104BA00080E00E949BBF6AE47FE18EEE92E10E946A
:104BB0004A994DB75EB7485F5F4F0FB6F8945EBF36
:104BC0000FBE4DBF9FCCC530D9F5C091A30AD0917F
:104BD000A40A0E94C8BF0AE010E0CE01B8010E94FA
:104BE0009AF39F938F937F936F9386E39FE19F93B5
:104BF0008F93CEEED2E1DF93CF930E944298E09064
:104C0000AB0AF090AC0A61E080E00E949BBFC70154
:104C1000B8010E949AF39F938F937F936F9383E2DF
:104C20009FE19F938F93DF93CF930E944298EDB7BC
:104C3000FEB770960FB6F894FEBF0FBEEDBF62CC04
:104C4000C630E1F5C091B30AD091B40A0E94C8BF42
:104C50000AE010E0CE01B8010E949AF39F938F936F
:104C60007F936F938FE09FE19F938F93CEEED2E17E
:104C7000DF93CF930E944298E090BB0AF090BC0A69
:104C800061E080E00E949BBFC701B8010E949AF3D7
:104C90009F938F937F936F938BEF9EE19F938F935F
:104CA000DF93CF930E9442986DB77EB7605F7F4FCE
:104CB0000FB6F8947EBF0FBE6DBF24CCC730E1F5B0
:104CC000C091C30AD091C40A0E94C8BF0AE010E094
:104CD000CE01B8010E949AF39F938F937F936F93B5
:104CE00087EE9EE19F938F93CEEED2E1DF93CF9339
:104CF0000E944298E090CB0AF090CC0A61E080E0FC
:104D00000E949BBFC701B8010E949AF39F938F93A3
:104D10007F936F9383ED9EE19F938F93DF93CF9368
:104D20000E9442982DB73EB7205F3F4F0FB6F894D0
:104D30003EBF0FBE2DBFE6CBC830D9F5C091D30A18
:104D4000D091D40A0E94C8BF0AE010E0CE01B80199
:104D50000E949AF39F938F937F936F938FEB9EE1C3
:104D60009F938F93CEEED2E1DF93CF930E94429830
:104D7000E090DB0AF090DC0A61E080E00E949BBFDB
:104D8000C701B8010E949AF39F938F937F936F930B
:104D90008BEA9EE19F938F93DF93CF930E9442987B
:104DA0008DB79EB740960FB6F8949EBF0FBE8DBFCD
:104DB000A9CBC930E1F5C091E30AD091E40A0E9481
:104DC000C8BF0AE010E0CE01B8010E949AF39F9399
:104DD0008F937F936F9387E99EE19F938F93CEEE9E
:104DE000D2E1DF93CF930E944298E090EB0AF090DB
:104DF000EC0A61E080E00E949BBFC701B8010E94FD
:104E00009AF39F938F937F936F9383E89EE19F9391
:104E10008F93DF93CF930E9442984DB75EB7405F68
:104E20005F4F0FB6F8945EBF0FBE4DBF6BCBCA305D
:104E3000A9F58091840B882301F180913908853090
:104E4000E1F480915D0B91E0892780935D0B1F92C7
:104E50008F9386E79EE19F938F9381E393E19F93E6
:104E60008F930E94429881E393E10E9492980F9061
:104E70000F900F900F900F900F900E94C8BF65E6A3
:104E80007EE18EEE92E10E944A9961E080E00E940C
:104E90009BBF80915D0B0E94A81B34CBCB3099F552
:104EA0008091840B882301F1809139088530E1F4E9
:104EB00080915C0B91E0892780935C0B1F928F930C
:104EC00086E59EE19F938F9381E393E19F938F9378
:104ED0000E94429881E393E10E9492980F900F9074
:104EE0000F900F900F900F900E94C8BF65E47EE175
:104EF0008EEE92E10E944A9961E080E00E949BBFA1
:104F000080915C0BC8CFCC3099F58091840B8823BD
:104F100001F1809139088530E1F480915B0B91E0DB
:104F2000892780935B0B1F928F9386E39EE19F936B
:104F30008F9381E393E19F938F930E94429881E343
:104F400093E10E9492980F900F900F900F900F9006
:104F50000F900E94C8BF65E27EE18EEE92E10E9452
:104F60004A9961E080E00E949BBF80915B0B93CFE8
:104F7000CD3099F58091840B882301F18091390817
:104F80008530E1F480915A0B91E0892780935A0B88
:104F90001F928F9386E19EE19F938F9381E393E12C
:104FA0009F938F930E94429881E393E10E9492988D
:104FB0000F900F900F900F900F900F900E94C8BF0E
:104FC00065E07EE18EEE92E10E944A9961E080E028
:104FD0000E949BBF80915A0B5ECFCE30B9F5809175
:104FE000840B882321F18091590B811120C080917D
:104FF00039088530E1F48091580B91E0892780933E
:10500000580B1F928F9385EF9DE19F938F9381E3C0
:1050100093E19F938F930E94429881E393E10E94D2
:1050200092980F900F900F900F900F900F900E94FA
:10503000C8BF64EE7DE18EEE92E10E944A9961E084
:1050400080E00E949BBF8091580B25CFCF30B9F5EF
:105050008091840B882321F18091580B811120C00D
:10506000809139088530E1F48091590B91E08927CE
:105070008093590B1F928F9384ED9DE19F938F93A3
:1050800081E393E19F938F930E94429881E393E1A0
:105090000E9492980F900F900F900F900F900F908A
:1050A0000E94C8BF63EC7DE18EEE92E10E944A99B6
:1050B00061E080E00E949BBF8091590BECCEC03133
:1050C000A9F58091840B882311F1809139088530EE
:1050D000F1F480915E0B91E0892780935E0B8091C3
:1050E0005E0B1F928F9382EB9DE19F938F9381E3E1
:1050F00093E19F938F930E94429881E393E10E94F2
:1051000092980F900F900F900F900F900F900E9419
:10511000C8BF61EA7DE18EEE92E10E944A9961E0AA
:1051200080E00E949BBF80915E0BB5CEC13109F03B
:105130006BC0809131088823D9F090916E0A8091DC
:105140003F08282F082E000C330B9217130631F05E
:105150002CF087FF03C09C5990936E0A90916E0AC1
:10516000890F80936E0A843618F0845680936E0AF5
:105170008091840B882321F180913908853001F5D5
:1051800080916E0A81113DC08091B30B80936E0AAD
:1051900080916E0A1F928F938CE89DE19F938F936D
:1051A00081E393E19F938F930E94429881E393E17F
:1051B0000E9492980F900F900F900F900F900F9069
:1051C0000E94C8BF6BE77DE18EEE92E10E944A9992
:1051D00061E080E00E949BBF80916E0A1F928F93D6
:1051E00089E69DE19F938F938EEE92E19F938F933B
:1051F0000E9442980F900F900F900F900F900F9079
:1052000081C910926E0AC4CFC231C1F580913908AC
:10521000853009F59091840B81E0911180E08093B5
:10522000840B0E94AC198091840B1F928F938AE5A6
:105230009DE19F938F9381E393E19F938F930E94CE
:10524000429881E393E10E9492980F900F900F9003
:105250000F900F900F900E94C8BF69E47DE18EEE21
:1052600092E10E944A9961E080E00E949BBF909188
:10527000840B81E091110FCE80E00DCEC63109F094
:1052800060C080913108882319F120913F088091F6
:105290002E0890912F08820F911D27FD9A959093CB
:1052A0002F0880932E084E9734F48EE190E090936F
:1052B0002F0880932E0880912E0890912F088A3510
:1052C000910534F08AE590E090932F0880932E08A2
:1052D0000E94C8BF8091850B1F928F9385E39DE14B
:1052E0009F938F93CEEED2E1DF93CF930E944298AB
:1052F00061E080E00E949BBF0F900F900F900F9095
:105300000F900F908091310881110EC084E29DE1D1
:105310009F938F93DF938C2F8F930E9442980F90CF
:105320000F900F900F90EEC880912F088F9380916F
:105330002E088F9382E19DE19F938F93DF93CF930C
:1053400068C2C43109F09CC0809139088530A9F544
:105350008091770B9091780BA091790BB0917A0B9B
:1053600080937B0B90937C0BA0937D0BB0937E0B73
:1053700080910F0B9091100BA091110BB091120B1B
:1053800083FF09C0877F80930F0B9093100BA0932E
:10539000110BB093120B85EF9CE19F938F9381E3E8
:1053A00093E19F938F930E94429881E393E10E943F
:1053B00092980F900F900F900F9040917B0B50910F
:1053C0007C0B60917D0B70917E0B8091770B90919F
:1053D000780BA091790BB0917A0BC0E084179507F8
:1053E000A607B707C8F020917B0B30917C0B40914A
:1053F0007D0B50917E0BC090770BD090780BE09096
:10540000790BF0907A0BA4E6B0E00E94BFF0A70100
:1054100096010E94CFF0C22F0E94C8BF64EE7CE1CB
:105420008EEE92E10E944A9961E080E00E949BBF6B
:105430001F92CF9382ED9CE19F938F938EEE92E12A
:105440009F938F930E9442980F900F900F900F9010
:105450000F900F908091010B882309F453C861E0ED
:1054600080E00E949BBF6091FF0A7091000B4AE0B0
:1054700050E08EEE92E10E94AB986EEC7CE16AC93E
:10548000C331C9F480913908853031F486E18093C5
:105490003A0881E0809330080E94C8BF6DEB7CE140
:1054A0008EEE92E10E944A9961E080E00E949BBFEB
:1054B0006CEA7CE14FC9C731B9F580913908853074
:1054C00051F48091830B8330A9F48AE180933A08E8
:1054D00082E0809330080E94C8BF6BE97CE18EEEC9
:1054E00092E10E944A9961E080E00E949BBF6AE8D5
:1054F0007CE130C98091830B823029F484E280936F
:105500003A0883E0E6CF8091830B811105C088E2E1
:1055100080933A0884E0DDCF8091830B8530D9F603
:105520009BE290933A08D5CF9C2F9F7D983171F0E4
:105530009C2F9B7F923251F0C93241F09C2F977F74
:10554000963321F0CA3311F0CC3361F580913908DC
:10555000853099F480913008813029F410923A080E
:10556000109230080AC09EEF980F9330A8F487E19C
:1055700080933A0881E0809330080E94C8BF69E7B1
:105580007CE18EEE92E10E944A9961E080E00E9407
:105590009BBF68E67CE1DEC8853001F787E1809338
:1055A0003A08DECFCA3139F0C43229F0C83219F0D6
:1055B000CB3209F075C080913108882301F1209128
:1055C0003F0880912E0890912F08820F911D27FD92
:1055D0009A9590932F0880932E0897FF04C01092FD
:1055E0002F0810922E0880912E0890912F08069770
:1055F00034F086E090E090932F0880932E080E946C
:10560000C8BF67E57CE18EEE92E10E944A9961E0B5
:1056100080E00E949BBF80913108811132C080914F
:10562000830B811108C086E49CE19F938F938EEEDB
:1056300092E19F9371CE8091830B813019F485E3C1
:105640009CE1F3CF8091830B823019F484E29CE1DA
:10565000ECCF8091830B833019F483E19CE1E5CF9B
:105660008091830B843019F482E09CE1DECF80913D
:10567000830B853019F481EF9BE1D7CF80EE9BE15E
:10568000D4CF80912F088F9380912E088F938EEC2A
:105690009BE19F938F938EEE92E19F938F93B9C07E
:1056A000CB3109F05AC080913108882321F1209133
:1056B0003F0880912E0890912F08820F911D27FDA1
:1056C0009A9590932F0880932E081816190634F097
:1056D00081E090E090932F0880932E0880912E080F
:1056E00090912F08883C910534F088EC90E09093DD
:1056F0002F0880932E080E94C8BF8091B10B1F9283
:105700008F938AEB9BE19F938F93CEEED2E1DF9351
:10571000CF930E94429861E080E00E949BBF0F906F
:105720000F900F900F900F900F9080913108811182
:1057300007C089EA9BE19F938F93DF93CF93EDCDD1
:1057400080912F088F9380912E088F9387E99BE19A
:105750009F938F93DF93CF935CC0CC3109F060C0EF
:1057600080913108882321F120913F0880912E08F3
:1057700090912F08820F911D27FD9A9590932F08E5
:1057800080932E081816190634F081E090E090936B
:105790002F0880932E0880912E0890912F088A3F21
:1057A000910534F08AEF90E090932F0880932E08B3
:1057B0000E94C8BF8091B20B1F928F9383E89BE138
:1057C0009F938F93CEEED2E1DF93CF930E944298C6
:1057D00061E080E00E949BBF0F900F900F900F90B0
:1057E0000F900F9080913108811107C082E79BE1F3
:1057F0009F938F93DF93CF9390CD80912F088F93BA
:1058000080912E088F9380E69BE19F938F93DF9387
:10581000CF930E9442986FE081E00E949BBFEACC48
:10582000CD3109F059C080913108882319F12091B8
:105830003F0880912E0890912F08820F911D27FD1F
:105840009A9590932F0880932E084E9734F48EE10A
:1058500090E090932F0880932E0880912E089091CD
:105860002F088436910534F084E690E090932F0859
:1058700080932E080E94C8BF8091B30B1F928F9314
:105880008CE49BE19F938F93CEEED2E1DF93CF9395
:105890000E94429861E080E00E949BBF0F900F90B1
:1058A0000F900F900F900F9080913108811107C0D9
:1058B0008BE39BE19F938F93DF93CF932ECD8091CA
:1058C0002F088F9380912E088F9389E29BE19F93FD
:1058D0008F93DF938C2FE2CECF3109F052C08091AD
:1058E0003108882321F120913F0880912E08909162
:1058F0002F08820F911D27FD9A9590932F08809372
:105900002E081816190634F081E090E090932F08C5
:1059100080932E0880912E0890912F08883C910545
:1059200034F088EC90E090932F0880932E080E942A
:10593000C8BF8091AE0B1F928F9384E19BE19F9330
:105940008F93CEEED2E1DF93CF930E94429861E035
:1059500080E00E949BBF0F900F900F900F900F90D0
:105960000F908091310863E07BE1882309F455C1F1
:1059700080912F088F9380912E088F9381EF9AE169
:1059800044CFC03209F052C080913108882321F100
:1059900020913F0880912E0890912F08820F911D31
:1059A00027FD9A9590932F0880932E0818161906B4
:1059B00034F081E090E090932F0880932E0880913E
:1059C0002E0890912F088A3F910534F08AEF90E0DD
:1059D00090932F0880932E080E94C8BF8091AF0B30
:1059E0001F928F938DED9AE19F938F93CEEED2E12C
:1059F000DF93CF930E94429861E080E00E949BBFBA
:105A00000F900F900F900F900F900F908091310892
:105A10006CEC7AE1882309F400C180912F088F9300
:105A200080912E088F938AEB9AE192CEC13209F0D1
:105A300051C080913108882319F120913F0880914D
:105A40002E0890912F08820F911D27FD9A95909313
:105A50002F0880932E084E9734F48EE190E09093B7
:105A60002F0880932E0880912E0890912F0884365D
:105A7000910534F084E690E090932F0880932E08EF
:105A80000E94C8BF8091B00B1F928F9385EA9AE164
:105A90009F938F93CEEED2E1DF93CF930E944298F3
:105AA00061E080E00E949BBF0F900F900F900F90DD
:105AB0000F900F908091310864E97AE1882309F40E
:105AC000ACC080912F088F9380912E088F9382E82D
:105AD0009AE132CCCE3109F056C08091310888234A
