:100000000C94AD080C94E1380C94B6380C948B38F1
:100010000C9460380C9435380C940A380C94DF3703
:100020000C94B4370C94DE080C94DE080C94DE08B3
:100030000C94DE080C94DE080C94DE080C94DE08A8
:100040000C94DE080C94213B0C94DE080C94DE0822
:100050000C94DE080C94DE080C94DE080C946A37CD
:100060000C94DE080C9441350C9418350C94DE0881
:100070000C94DE080C94DE080C94DE080C94DE0868
:100080000C94DE080C94DE080C94DE080C943D3AC7
:100090000C94EF340C94C6340C94DE080C940C3998
:1000A0000C94DE080C94DE080C94DE080C94DE0838
:1000B0000C94DE080C94DE080C94DE080C94DE0828
:1000C0000C94DE080C94DE080C94DE080C94DE0818
:1000D0000C94DE080C94DE080C94DE080C94DE0808
:1000E0000C94DE0821312431133117311D315B317D
:1000F00028312C31323136313A31403144314831B6
:100100005B314E31523156314E595359585962591B
:100110006C59E55976597E59865990599A59A4597E
:10012000B359BD59E559C759D159DB5944414C4CD4
:1001300041533A204B6F6E69656320706F737A7517
:100140006B6977616E696120637A756A6E696B6F3E
:10015000772E00202054656D706572617475726130
:10016000203D2000204352433D0020204461746123
:10017000203D200020437A617320706F6272616EAF
:1001800069612064616E796368207A20637A756A98
:100190006E696B61203D2000204E69657A6E616E4C
:1001A0007920445331387878002044533138323242
:1001B0000020445331384232300020445331385308
:1001C000323000626C6164204352430044414C4C25
:1001D00041533A204944203D0020437A6173206B0B
:1001E0006F6D656E6461206B6F6E776572736A699F
:1001F00020646C6120637A756A6E696B61203D20B2
:100200000044414C4C41533A20506F637A6174650D
:100210006B20706F737A756B6977616E69612063AB
:100220007A756A6E696B6F772E0020743A00206FC2
:100230003A0020703A002049443A0044414C4C4175
:1002400053200053443A206272616B20706C696BDA
:100250007520706F64616A6E696B2E747874001F0C
:100260001C1F1E1F1E1F1F1E1F1E1F5254433A20FD
:100270006F64637A7974207A61736F626E696B61FF
:100280003A004E54503A20557A79736B616E6F2064
:10029000637A617320756E697874696D653A00528E
:1002A00054433A207A6E616C657A696F6E6F2044B0
:1002B0005331333037005254433A206272616B201D
:1002C000445331333037005254433A20537A756BDC
:1002D000616D20445331333037202E2E2E0049508B
:1002E0003A206272616B2045746865725368696573
:1002F0006C642E2E2E005757573A7374726F6E61CE
:1003000020676F746F7761005757573A757275633E
:1003100068616D69616D207374726F6E652E2E2E2B
:100320000049503A20646E733A0049503A20627294
:10033000616D613A0049503A206D61736B613A001A
:1003400049503A2061647265733A0049503A206D11
:1003500061633A0049503A20706F62696572616E5C
:10036000696520616472657375207A204448435042
:100370002E2E2E00576F6C6E792052414D3A004957
:10038000503A206B6F6E666967757261636A6120AF
:1003900073696563692E2E2E00576F6C6E7920523B
:1003A000414D3A00576F6C6E792052414D3A0057DB
:1003B0006F6C6E792052414D3A0053443A20626C82
:1003C0006164206F64637A7974752064616E796307
:1003D000680053443A20626C6164206B61727479E6
:1003E0000053443A206272616B206B617274790031
:1003F000302E312E302E3538004C75636A616E20F8
:10040000762E00504B543A2043524300504B543AFE
:100410002045545800504B543A20535458002A2A2F
:100420004833002A2A4732002A2A4731002A2A5014
:1004300032002A2A5031002A2A444D5031002A2AFB
:10044000444D5432002A2A444D5431002A2A444D46
:10045000545F4F4E002A2A444D445F4F4646002ABF
:100460002A444D445F4F4E002A2A444D505F4F4668
:1004700046002A2A444D505F4F4E002A2A444D52CE
:100480005F4F464632002A2A444D525F4F4646008F
:100490002A2A444D525F4F4E002A2A432D4F46468A
:1004A0002A002A2A432D4F4646002A2A432D4F4E22
:1004B000002A2A432D4F4E2A00206B726F6B3A00A0
:1004C00034443A20726F7A6E6963613A0052455340
:1004D0004554005745423A005A34443A00504D5072
:1004E0003A00444D553A00504F443A00414C473A87
:1004F00000414C4D3A004D41503A0044414C4C3A79
:1005000000434F4E3A0054494D3A004C41544F007D
:100510005A494D41004252554C490045434F414CC8
:100520000054380054370054360054350054340019
:10053000543300543200543100545350414C494E0E
:10054000590054504F444C4F4741005443575500B5
:100550005457455700545A45570054504F44414A48
:100560004E494B0054504F57524F54005450494538
:10057000430053443A206272616B20706C696B7562
:1005800020636F6E6669672E747874005858444D06
:100590005F504C55535F4D4F43005858444D5F508A
:1005A0004C55535F4D4F43005858544553545F4E7C
:1005B0005231207A6E616C657A696F6E6F0058589F
:1005C000544553545F4E5231005A41574F523444B0
:1005D0002D435A554A4E494B005A41574F523444C5
:1005E0002D435A41535F504F4D49415255005A4196
:1005F000574F5234442D435A41535F4B524F4B0097
:100600005A41574F5234442D435A41535F4F545728
:100610004152434941004B525A5957415F47525A40
:10062000414E49412B3135004B525A5957415F4792
:10063000525A414E49412B35004B525A5957415F4E
:1006400047525A414E49412D30004B525A59574159
:100650005F47525A414E49412D3130004B525A5951
:1006600057415F47525A414E49412D3230004B525B
:100670005A5957415F47525A414E49412D33300034
:100680005600543800543700543600543500543462
:1006900000543300543200543100545350414C49FB
:1006A0004E590054504F444C4F4741005443575506
:1006B000005457455700545A45570054504F444131
:1006C0004A4E494B0054504F57524F5400545049D2
:1006D000454300545F4D4150554A5F5A5F42525561
:1006E0004C4900545F4D4150554A5F5A5F45434F56
:1006F000414C0052525F50524143415F4D4F4300C5
:1007000052525F50524143415F504F53544F4A0041
:1007100052525F50524143415F504F44414E494510
:100720000052525F504F4454525A594D414E494520
:100730005F4D4F430052525F504F4454525A594DEF
:10074000414E49455F504F53544F4A0052525F50FB
:100750004F4454525A594D414E49455F504F4441C0
:100760004E49450052525F504F4454525A594D41E0
:100770004E49455F435A4153004359524B554C41F2
:10078000434A415F544D494E004359524B554C41E9
:10079000434A415F435A41535F57594C41435A00C2
:1007A0004359524B554C41434A415F435A41535F71
:1007B000574C41435A004359524B554C41434A41CF
:1007C0005F414C474F5259544D00434F5F414C4796
:1007D0004F5259544D00434F5F54525942004357B2
:1007E00055325F414C474F5259544D004357553293
:1007F0005F5452594200435755325F5A4144414E6B
:1008000041004357555F545F4D4158004357555F72
:10081000484953544552455A41004357555F414C4E
:10082000474F5259544D004357555F545259420057
:100830004357555F5A4144414E4100504945435F3B
:10084000414C474F5259544D00504945435F484928
:1008500053544552455A4100504945435F5A41441B
:10086000414E4100504945435F545F4D415800504F
:100870004945435F545F4D494E00504F44414A4EF5
:10088000494B5F414C41524D5F4D494E00504F44E2
:10089000414A4E494B5F505245444B4F53435F5082
:1008A0004F444157414E494100504F44414A4E49FF
:1008B0004B5F435A41535F504F44414A4E494B416D
:1008C00000504F44414A4E494B5F435A41535F44A5
:1008D0004F5F4F50524F5A4E49454E494100504F7D
:1008E00044414A4E494B5F545F4D415800504F447C
:1008F000414A4E494B5F435A41535F5759525A55EB
:10090000545500444D5F504C55535F4D4F43004488
:100910004D5F504C55535F435A415300444D5F5215
:100920004F5A525543485F4D4F4300444D5F524F1D
:100930005A525543485F435A415300444D5F544C0B
:100940004F5F4D4F4300444D5F544C4F5F435A41FE
:100950005300444D5F444F50414C414E49455F4D1B
:100960004F4300444D5F444F50414C414E49455F19
:10097000435A415300444D5F4D4F44554C41434A07
:100980004100444D5F494E574552534A415F5057CD
:100990004D00444D5F4F464653455400444D55432A
:1009A000484157415F41435F475255504F574F00B1
:1009B0004E45545F444E53004E45545F4252414DA4
:1009C00041004E45545F4D41534B41006175746F7A
:1009D000004E45545F4950004E45545F4D41430021
:1009E0005D00636F6E6669673A205B00000021005E
:1009F000240027002A002D003000330001010000F0
:100A0000040107010A0100002200250028002B0034
:100A10002E003100340002010000050108010B0125
:100A200000000A0B02090C0D0E0807030401000068
:100A300000000000000000000000000000000000B6
:100A40000000000000000000000000001211100073
:100A50000000000000000000000000000000000096
:100A6000000000000000204F4B0D0A004854545075
:100A70002F312E312000005EBCE2613FDD83C29C3D
:100A80007E20A3FD1F419DC3217FFCA2401E5F016C
:100A9000E3BD3E6082DC237D9FC1421CFEA0E1BF1E
:100AA0005D0380DE3C62BEE0025CDF81633D7C2250
:100AB000C09E1D43A1FF4618FAA427799BC584DA7E
:100AC0003866E5BB5907DB856739BAE4065819472C
:100AD000A5FB7826C49A653BD987045AB8E6A7F9DE
:100AE0001B45C6987A24F8A6441A99C7257B3A6410
:100AF00086D85B05E7B98CD2306EEDB3510F4E103E
:100B0000F2AC2F7193CD114FADF3702ECC92D38DEB
:100B10006F31B2EC0E50AFF1134DCE90722C6D339D
:100B2000D18F0C52B0EE326C8ED0530DEFB1F0AECF
:100B30004C1291CF2D73CA947628ABF517490856FD
:100B4000B4EA6937D58B5709EBB536688AD495CBAB
:100B50002977F4AA4816E9B7550B88D6346A2B755D
:100B600097C94A14F6A8742AC896154BA9F7B6E88F
:100B70000A54D7896B357C3C3E5E2B3D3F2F5B5D35
:100B80003B2C2A225C002062616A746F7729002066
:100B90006D7320286F64656272616E6F2000206241
:100BA000616A746F77207720005757573A205A614F
:100BB000706973616E6F20005757573A205A617001
:100BC0006973756A6520706C696B3A0044495343D8
:100BD0004F4E4E454354454400435755323A004327
:100BE0005755313A00434F3A004B4F004F4B006688
:100BF000756C6C0020743A00206F3A0020703A0047
:100C00002049443A0044414C4C415320004449534C
:100C1000434F4E4E45435445440077656E74796C9E
:100C200061746F723A00435755323A004357553159
:100C30003A006163636573732D636F6E74726F6CDA
:100C40002D616C6C6F772D6F726967696E3A202A1F
:100C50000A002E00227D00302E312E302E35380035
:100C60002C22766572223A22002274696D65223A3E
:100C7000002C0022616C223A20002C003000310050
:100C8000226379726B223A20002C0030003100225E
:100C900063777532223A20002C0030003100226345
:100CA000777531223A20002C003000310022636F2A
:100CB000223A20002C003000310022706F64223A6A
:100CC00020002C0022706F64676D696E223A20004C
:100CD0002C0022706F64637A646F223A20002C002B
:100CE00022706F64637A7A6173223A20002C0022AA
:100CF000706F64637A223A20002C002277656E318F
:100D0000223A20002C002277656E30223A20007DA6
:100D10005D2C007B2274223A20007D2C007B227403
:100D20006865726D6F73223A5B006163636573730C
:100D30002D636F6E74726F6C2D616C6C6F772D6F9D
:100D4000726967696E3A202A0A006163636573738A
:100D50002D636F6E74726F6C2D616C6C6F772D6F7D
:100D6000726967696E3A202A0A002F6D6F64756C8C
:100D700061636A61006163636573732D636F6E7491
:100D8000726F6C2D616C6C6F772D6F726967696E15
:100D90003A202A0A00227D00302E312E302E35389E
:100DA000002C22766572223A22007B2274696D65DE
:100DB000223A006163636573732D636F6E74726FA3
:100DC0006C2D616C6C6F772D6F726967696E3A205C
:100DD0002A0A0058585845434F414C00534F465437
:100DE0000044414C4C4153204E52203D2000444190
:100DF0004C4C4153005350414C494E5900504F44C4
:100E00004C4F47410043575500574557005A4557E7
:100E100000504F44414A4E494B00504F57524F5497
:100E200000434F004252554C490045434F414C004E
:100E30005254433A207A61706973207A61736F6209
:100E40006E696B613A00202D3E2000444D3A20002F
:100E50004D4945535A414E49450042415254454B34
:100E600000574C41435A004252554C490045434FAC
:100E7000414C0057594C41435A4F4E590043594B2E
:100E80004C49435A4E5900434941474C5900436F1E
:100E90006E74656E742D547970653A200048544D17
:100EA0002A746578742F68746D6C7C5458542A7455
:100EB0006578742F706C61696E7C4353532A746536
:100EC00078742F6373737C584D4C2A746578742F33
:100ED000786D6C7C4A532A746578742F6A617661E8
:100EE0007363726970747C4749462A696D616765EE
:100EF0002F6769667C4A50472A696D6167652F6A6A
:100F00007065677C504E472A696D6167652F706E0A
:100F1000677C49434F2A696D6167652F766E642E41
:100F20006D6963726F736F66742E69636F6E7C4D4B
:100F300050332A617564696F2F6D7065677C00009E
:100F40000020002300260029002C002F0032000082
:100F50000100000301060109010505050507050853
:100F6000080808020202020A0A080804040404012C
:100F7000010101010101010303030303030303044E
:100F80000707070C0C0C0C0C0C0C0C0202020206DE
:100F9000060606060606060B0B0B0B0B0B0B0B01CE
:100FA000021020200808102040102040800201027A
:100FB0000108040201010204081020408080402042
:100FC000100804020180040201804020100804027D
:100FD00001080402010102040810204080010204FB
:100FE00008102040803032303130303036303030F0
:100FF0003030303030363130330000316253C4F598
:10100000A697B988DBEA7D4C1F2E4372211087B664
:10101000E5D4FACB98A93E0F5C6D86B7E4D5427350
:1010200020113F0E5D6CFBCA99A8C5F4A79601304C
:1010300063527C4D1E2FB889DAEB3D0C5F6EF9C808
:101040009BAA84B5E6D7407122137E4F1C2DBA8B24
:10105000D8E9C7F6A59403326150BB8AD9E87F4E20
:101060001D2C02336051C6F7A495F8C99AAB3C0D0C
:101070005E6F4170231285B4E7D67A4B1829BE8F74
:10108000DCEDC3F2A1900736655439085B6AFDCCEC
:101090009FAE80B1E2D344752617FCCD9EAF3809D0
:1010A0005A6B4574271681B0E3D2BF8EDDEC7B4AC4
:1010B000192806376455C2F3A0914776251483B2E8
:1010C000E1D0FECF9CAD3A0B586904356657C0F1AC
:1010D000A293BD8CDFEE79481B2AC1F0A3920534A0
:1010E000675678491A2BBC8DDEEF82B3E0D1467784
:1010F00024153B0A5968FFCE9DAC5757573A2062DA
:1011000072616B20706C696B753A20005757573AC3
:10111000204F64637A797420706C696B753A006152
:1011200063636573732D636F6E74726F6C2D616C86
:101130006C6F772D6F726967696E3A202A0A0057C3
:1011400057573A20426C616420706172736F776107
:101150006E69612055524C00EB7111241FBECFEF18
:10116000D1E2DEBFCDBF00E00CBF15E0A0E0B2E0F1
:10117000E0ECF5EF00E00BBF02C007900D92AC323F
:10118000B107D9F72DE0ACE2B5E001C01D92A63E53
:10119000B207E1F718E0CDEAD8E000E006C02197F9
:1011A0000109802FFE010E947075CC3AD10780E0C2
:1011B0000807A9F70E9432620C94DE7A0C940000B2
:1011C0002F923F924F925F926F927F928F929F9257
:1011D000AF92BF92CF92DF92EF92FF920F931F9345
:1011E000CF93DF93CDB7DEB76F970FB6F894DEBF1E
:1011F0000FBECDBFA8950E945E3760939F07709386
:10120000A0078093A1079093A20780919F079091D8
:10121000A007A091A107B091A20780939B0790938C
:101220009C07A0939D07B0939E0780919F07909184
:10123000A007A091A107B091A2074091EF0550919E
:10124000F0056091F1057091F205841B950BA60BDA
:10125000B70BC397A105B10584F080919F079091CA
:10126000A007A091A107B091A2078093EF059093EA
:10127000F005A093F105B093F2050E945E3700914E
:101280009B0710919C0720919D0730919E07DC01E0
:10129000CB01801B910BA20BB30B80939B07909308
:1012A0009C07A0939D07B0939E078091EB05882330
:1012B00069F080919B0790919C07A0919D07B09148
:1012C0009E070397A105B1050CF0D6C40E945E37B6
:1012D00060939B0770939C0780939D0790939E0754
:1012E0008091120290911302009799F40E945E3748
:1012F00060935D0770935E0780935F07909360072C
:1013000010927C0610927B0610925C0781E090E0C0
:101310001DC00197F9F40E945E3700915D0710919E
:101320005E0720915F0730916007DC01CB01801BD5
:10133000910BA20BB30B85369105A105B10550F0B9
:1013400010927C0610927B0682E090E0909313024C
:1013500080931202809112029091130282309105C3
:1013600009F05DC00091C20B1091C30BC8010E942F
:101370003F7990915A0720E0E091590731E0281712
:1013800038F5F801E20FF11D949141E0420FF801A8
:10139000E40FF11D2E5FE491632F70E0913410F0A3
:1013A00049EC01C040ED490FE13410F0F9EC01C007
:1013B000F0EDFE0FA0E14A9FA00111244F2BA1E008
:1013C000B0E0AC0FBD1FA60FB71F4C933F5FD7CF48
:1013D00090935A0720935B07E0935907182F1695AF
:1013E000198381E08093110280911102181780F017
:1013F00091E0980F90931102E1E0F0E0EC0FFD1FF7
:10140000E80FF11D60818CE19AE00E946C30ECCF16
:1014100010927C0610927B0683E090E013C083302C
:101420009105D1F58CE19AE00E942D30892B79F05D
:10143000109211021092580710927C0610927B06AF
:1014400084E090E09093130280931202D8C08091C0
:101450007B0690917C06019690937C0680937B0698
:101460008139914008F4CBC010927C0610927B0623
:1014700080915C078F5F80935C0722E030E03093BF
:10148000130220931202863008F4B9C081E08093E1
:10149000570780932A02B3C08430910509F051C0E8
:1014A0008CE19AE00E942D3018161906BCF48CE1EC
:1014B0009AE00E942D30181619069CF51091110221
:1014C00081E0810F809311028CE19AE00E940B3041
:1014D000E12FF0E0ED50F94F8083E9CF80917B065A
:1014E00090917C06019690937C0680937B068139CF
:1014F0009140B8F010927C0610927B0682E090E05A
:10150000909313028093120280915C078F5F809307
:101510005C07863030F082E08093570781E080934B
:101520002A0280911102863508F469C08093580719
:101530001092110210927C0610927B0687E090E0D8
:1015400081CF079709F05BC0809158078635B1F5C8
:101550008091F306823019F065E174E02BC0809130
:101560004807833021F424EF36E0E0E003C06CE06C
:1015700074E020C0B7E027343B07A1F0D9018D917A
:101580009D018E27E091C60BF091C70BE80FF11D6E
:10159000E4918E2F90E0A0E0B0E089839A83AB8342
:1015A000BC83E8CF809147078E1711F40C945B1A27
:1015B00063E074E089EB9AE00E94733480917B06CB
:1015C00090917C06019690937C0680937B068139EE
:1015D000914088F010927C0610927B0680915C0707
:1015E0008F5F80935C07863030F084E080935707EC
:1015F00081E080932A0210921302109212020E943C
:101600005E3700919B0710919C0720919D073091B8
:101610009E07DC01CB01801B910BA20BB30B8093C7
:101620009B0790939C07A0939D07B0939E07809182
:10163000EB05882369F080919B0790919C07A0910E
:101640009D07B0919E070397A105B1050CF025C336
:101650000E945E3760939B0770939C0780939D0761
:1016600090939E0780912C05882309F4A5C0D09003
:101670006107D11009C088E080937D060E949A5AC4
:1016800081E08093610790C020917D0621118CC07C
:101690000FEF0D0DE02EF12CFDE00F9F80011124C6
:1016A000822F90E0FC01E55CFA4F800F911FDC0176
:1016B000AC5BBA4F8C9180832F5F283089F72093E1
:1016C00043050E944E5A882309F467C080913B0568
:1016D000823241F0883231F0803121F481E0809310
:1016E0003A0502C010923A0580912E0590E0982F9D
:1016F000882720912D05822B20913A05222399F0ED
:1017000043E0880F991F4A95E1F720913405203175
:10171000F9F4409133052CE030E0241B3109807F3F
:10172000820F931F15C020913105207631F433E0EC
:10173000880F991F3A95E1F70BC0203229F4880FE2
:10174000991F880F991F04C0203411F4880F991F26
:101750002DE02E9DF0012F9DF00D1124EC5BFA4F32
:101760004AE0489F9001499F300D112437FF02C085
:10177000215F3F4F14E0359527951A95E1F73287A1
:1017800021878DE08E9DF0018F9DF00D1124EC5B83
:10179000FA4F80913905808704C0F801EC5BFA4F5D
:1017A0001086D394D09261079091610780912C05A7
:1017B000891710F4109261070E945E3700919B0711
:1017C00010919C0720919D0730919E07DC01CB0171
:1017D000801B910BA20BB30B80939B0790939C07EC
:1017E000A0939D07B0939E078091EB05882369F035
:1017F00080919B0790919C07A0919D07B0919E07B7
:101800000297A105B1050CF059C20E945E376093A2
:101810009B0770939C0780939D0790939E078090F1
:10182000620790906307A0906407B09065072091CD
:10183000660730916707409168075091690760918A
:101840006A0770916B0710916C0700916D07F0901B
:101850006E07E0906F07D0907007C090710760909E
:101860002C05E0E9F6E0A3E94A2EA6E05A2EBDE0F9
:101870007B2EC2010197DC018C91823061F5D2018F
:101880008C91882381F0813089F0823091F083300F
:1018900099F08430A1F08530A9F08630A9F0873026
:1018A000A9F4C60115C0982D892D12C09A2D8B2D33
:1018B0000FC0922F832F0CC0942F852F09C0962F15
:1018C000872F06C0C80104C0C70102C099E18CEF90
:1018D0009083818318C08330A1F4D2018C91861546
:1018E00058F4789EC00111248C5B9A4FDC01199644
:1018F0008D919C911A9702C08AE19CEF918380831D
:1019000002C0118210823596B5E04B0E511C86E064
:10191000E03EF80709F0ADCF0E945E3700919B07CB
:1019200010919C0720919D0730919E07DC01CB010F
:10193000801B910BA20BB30B80939B0790939C078A
:10194000A0939D07B0939E078091EB05882369F0D3
:1019500080919B0790919C07A0919D07B0919E0755
:101960000397A105B1050CF0BAC10E945E376093E0
:101970009B0770939C0780939D0790939E070E94FE
:101980005E3700919B0710919C0720919D07309135
:101990009E07DC01CB01801B910BA20BB30B809344
:1019A0009B0790939C07A0939D07B0939E078091FF
:1019B000EB05882369F080919B0790919C07A0918B
:1019C0009D07B0919E070397A105B1050CF098C142
:1019D0000E945E3760939B0770939C0780939D07DE
:1019E00090939E0780918406809383078091D00511
:1019F000813091F480912A02882329F0109289067F
:101A00001092840695C08091780780938906809112
:101A10007607809384068CC08091D005823021F0B7
:101A20008091D005833051F780919206882309F484
:101A3000E4C140919006509191068091D105AAE0B1
:101A40008A9FC001112421E0481759070CF420E0B7
:101A50008091D1053091D205BAE08B9FC00111244D
:101A6000831B9109481759070CF45BC180E0109162
:101A70001802112309F457C1882309F454C1809135
:101A8000800790918107009709F0A7C168E274E090
:101A900089EB9AE00E9473348091EA05809389066D
:101AA0008091E8050E94C7582091E8058091E905DA
:101AB000422F50E060E070E09A01AB01280F311D29
:101AC000411D511DAAE0B0E00E949D7A609314026E
:101AD0007093150280931602909317020E945E374E
:101AE00060937C0770937D0780937E0790937F07B8
:101AF00060917E0670917F0689EB9AE00E944D41CD
:101B000040911402509115026091160270911702D3
:101B100089EB9AE00E94AF4181E090E090938107C9
:101B20008093800701E010E0109318020093820771
:101B30000E945E3700919B0710919C0720919D07A2
:101B400030919E07DC01CB01801B910BA20BB30BE4
:101B500080939B0790939C07A0939D07B0939E074B
:101B60008091EB05882369F080919B0790919C07F9
:101B7000A0919D07B0919E070397A105B1050CF0B8
:101B800088C10E945E3760939B0770939C07809387
:101B90009D0790939E07C090E306D090E406E090E6
:101BA000E506F090E606D701C601B695A79597958C
:101BB0008795182F11702091C9053091CA05409161
:101BC000CB055091CC058090C5059090C605A0909E
:101BD000C705B090C8050091CF05A4E6B0E00E940B
:101BE0009D7AA50194010E94AD7A802F90E0A0E03B
:101BF000B0E0281739074A075B0750F46894C4F827
:101C0000C092E306D092E406E092E506F092E60682
:101C10004091E3065091E4066091E5067091E60676
:101C2000111148C180919C06882309F443C1809119
:101C3000C405EAE08E9FC001112420919A063091DC
:101C40009B06821793070CF035C1E091C30528E588
:101C500032E0E29FC001E39F900D112490937F0634
:101C600080937E0642604093E3065093E4066093BF
:101C7000E5067093E6062AC166E075E089EB9AE016
:101C80000E944F3460919B0770919C0780919D0743
:101C900090919E070E94D35A19CB61E075E089EBC1
:101CA0009AE00E944F3460919B0770919C0780914D
:101CB0009D0790919E070E94D35ACACC6BEF74E0A7
:101CC00089EB9AE00E944F3460919B0770919C07CA
:101CD00080919D0790919E070E94D35A96CD66EF02
:101CE00074E089EB9AE00E944F3460919B077091F9
:101CF0009C0780919D0790919E070E94D35A35CEF4
:101D000061EF74E089EB9AE00E944F3460919B0789
:101D100070919C0780919D0790919E070E94D35AD5
:101D200057CE81E0A4CE00918207002311F40C94D9
:101D3000161B222311F40C94111B00E080918007E4
:101D400090918107009709F05AC0809114029091F8
:101D50001502A0911602B0911702892B8A2B8B2BAA
:101D600009F076C062E374E089EB9AE00E94733474
:101D70008091E705809389068091E5050E94C75808
:101D80002091E5058091E605422F50E060E070E08B
:101D90009A01AB01280F311D411D511DAAE0B0E091
:101DA0000E949D7A6093140270931502809316022C
:101DB00090931702409114025091150260911602FF
:101DC0007091170289EB9AE00E94AF4181E090E0A8
:101DD00090938107809380073BC0019709F0A2CEC2
:101DE0008091140290911502A0911602B0911702F1
:101DF000892B8A2B8B2B71F195CE20E037CE019762
:101E000039F58091140290911502A0911602B091BB
:101E10001702892B8A2B8B2BD9F46DE274E089EBA6
:101E20009AE00E9473342091E40530E0A8E5B2E026
:101E30000E94CF7A60931402709315028093160269
:101E400090931702109289061092810710928007D2
:101E500011E06ACE63E274E089EB9AE00E94733489
:101E60000E945E3700917C0710917D0720917E07CC
:101E700030917F07AB01BC01401B510B620B730B10
:101E800089EB9AE00E94AF4110928107109280077F
:101E900049CE6CEE74E089EB9AE00E944F34609179
:101EA0009B0770919C0780919D0790919E070E94CF
:101EB000D35A67CE42FD83C0112309F46FC08091CD
:101EC0007E0690917F06892B09F479C080910801E4
:101ED00084608093080181E0809384068091EE0500
:101EE00081110AC080918307882331F08091840694
:101EF000811102C00E94ED590E945E3700919B073C
:101F000010919C0720919D0730919E07DC01CB0129
:101F1000801B910BA20BB30B80939B0790939C07A4
:101F2000A0939D07B0939E078091EB05882369F0ED
:101F300080919B0790919C07A0919D07B0919E076F
:101F40000397A105B1050CF04AC00E945E3760936B
:101F50009B0770939C0780939D0790939E07F0903A
:101F6000910700919006109191068091890690E06A
:101F7000909388068093870620918A07222329F070
:101F80002091B20520FD06C104C02091B20521FDBB
:101F900001C12091D005233099F5FCC09091D00566
:101FA000913009F08CCF80918406882309F487CF83
:101FB00020917E0630917F06232B49F080CF8091BF
:101FC00008018B7F809308011092840687CF80914F
:101FD0000801846080930801909384067FCF67EEA8
:101FE00074E089EB9AE00E944F3460919B077091F6
:101FF0009C0780919D0790919E070E94D35AA5CF80
:10200000892B39F083E090E09093870780938607CF
:1020100004C01092870710928607809187069091DE
:102020008806009751F02091B005820F911D27FD81
:102030009A95909388068093870680918706909161
:10204000880697FF04C01092880610928706809138
:102050008706909188068536910534F084E690E0F5
:1020600090938806809387068091E3069091E4061A
:10207000A091E506B091E60686709927AA27BB27AE
:10208000892B8A2B8B2B21F01092880610928706C1
:1020900080918706909188060E94DC58809187067F
:1020A0009091880680939F0B1816190624F480914E
:1020B00002018F7D03C08091020180628093020142
:1020C0008091890690E090938907809388070E9409
:1020D0005E3700919B0710919C0720919D073091DE
:1020E0009E07DC01CB01801B910BA20BB30B8093ED
:1020F0009B0790939C07A0939D07B0939E078091A8
:10210000EB05882369F080919B0790919C07A09133
:102110009D07B0919E070397A105B1050CF0AAC1D8
:102120000E945E3760939B0770939C0780939D0786
:1021300090939E07609192068091E3069091E40649
:10214000A091E506B091E606662309F4A4C12091AA
:10215000D3054AE0249F90011124409190065091AC
:102160009106241735070CF096C184608093E3062E
:102170009093E406A093E506B093E60681E0809391
:10218000EC06809108018068809308018091080125
:102190008064CAC42091880730918907232B79F580
:1021A000892B69F18091B5059091B605892BD9F0FD
:1021B0002091B5053091B6054AE0429FC001439F8A
:1021C000900D1124909386068093850681E090E01F
:1021D0009093870780938607809185078093840773
:1021E00060E974E008C083E090E0909387078093F3
:1021F000860766E874E089EB9AE00E947334FAE09F
:10220000FF9EC0011124FF24F3940817190708F05A
:10221000F12C8091850690918606892B49F080915A
:102220008706909188061816190614F4F110AAC0B2
:102230008091860790918707019739F480918506F0
:1022400090918606892B09F4A6C08091830781119D
:102250000BC080918406882339F080918506909187
:102260008606892B09F4A4C0809186079091870780
:10227000049739F48091820690918306892B09F4A2
:10228000B6C08091820690918306892B71F080916F
:10229000C1059091C2052091870630918806820F72
:1022A000931F9093880680938706809184078823E4
:1022B00009F456C08091880790918907181619066D
:1022C000F4F48091890681111AC02091B3053091F0
:1022D000B4054AE0429FC001439F900D11249093A2
:1022E00081068093800685E090E090938707809335
:1022F00086076FE574E089EB9AE00E947334809161
:10230000800690918106892B29F080918906882387
:1023100009F47AC08091800690918106892B59F446
:102320008091860790918707059729F48091890607
:10233000882309F478C080918607909187070697D3
:1023400009F06BCE80918906811167CEF11078C0BB
:102350008091BF059091C005892B09F07CC070C0A9
:102360008091860790918707039709F056CE809158
:102370008906811152CE109287071092860767E373
:1023800074E073C08091BD059091BE05909388065E
:10239000809387064DCF83E090E0909387078093EA
:1023A00086076BE774E089EB9AE00E9473344DCFA7
:1023B0002091B9053091BA054AE0429FC001439F80
:1023C000900D1124909383068093820684E090E020
:1023D0009093870780938607809185078093840771
:1023E00062E774E089EB9AE00E9473343DCF83E0AA
:1023F00090E0909387078093860768E674E089EB06
:102400009AE00E9473343DCF8091BB059091BC054A
:10241000909388068093870665E574E089EB9AE0DF
:102420000E94733477CF86E090E090938707809383
:1024300086076CE474E089EB9AE00E9473347BCFEA
:1024400010928806109287061092870710928607CE
:102450006EE374E00AC08091BF059091C00590932F
:1024600088068093870665E474E089EB9AE00E9411
:102470007334D3CD62EE74E089EB9AE00E944F345E
:1024800060919B0770919C0780919D0790919E079A
:102490000E94D35A45CE82FF2FC36623E1F02091DC
:1024A000D3055AE0259F9001112440919006509148
:1024B0009106421753070CF422C38091D4057AE0A9
:1024C000879FC00111242091900630919106281712
:1024D00039070CF41FC38091D505813029F0809114
:1024E000D705813009F023C380912A02882309F49B
:1024F0001EC31092EC0610929807809108018F7706
:1025000080930801809108018F7B809308011092CD
:102510009707109296070E945E3700919B071091D3
:102520009C0720919D0730919E07DC01CB01801B09
:10253000910BA20BB30B80939B0790939C07A093E6
:102540009D07B0939E078091EB05882369F08091E9
:102550009B0790919C07A0919D07B0919E070397C0
:10256000A105B1050CF0A4C480912A02882329F0AA
:1025700080912902882309F4ADC00E945E376093E0
:102580009B0770939C0780939D0790939E07809173
:10259000E30682FF06C080910801886080930801ED
:1025A00070C080912602909127028230910509F037
:1025B0004AC08091E2068823B1F081E08093EA0668
:1025C00080912402909125029093E1068093E00689
:1025D00081E090E0909327028093260210929A0760
:1025E000109299074EC08091E3058F3F09F449C0CE
:1025F000E091E30575E0E702F0011124E057F94F9F
:1026000082818823F1F1809192068823D1F1809113
:10261000A1068823B1F18091EC06882391F12091E5
:1026200090063091910680912002909121028217AC
:10263000930738F50091E0061091E10601151105A8
:1026400009F447C41EC00197E1F48091E00690911F
:10265000E106892BB1F41092E9061092EA06809106
:10266000E20681110EC08091220290912302909384
:10267000E1068093E00682E090E090932702809349
:1026800026020E945E3700919B0710919C072091C3
:102690009D0730919E07DC01CB01801B910BA20BA3
:1026A000B30B80939B0790939C07A0939D07B093D7
:1026B0009E078091EB05882369F080919B0790919C
:1026C0009C07A0919D07B0919E070397A105B105B6
:1026D0000CF0DBC48091ED06811113C08DE00E94E7
:1026E0006A3561E0892B09F060E08DE00E94923547
:1026F00080912A02811102C081E001C08AE08093AA
:10270000ED068091060182FD02C0129A01C0129866
:102710008091EC06811105C0139A809108018D7F8C
:1027200004C0139880910801826080930801809111
:10273000060187FD02C0149A01C014988091060119
:1027400086FD02C0159A01C015988091EB06811193
:1027500005C0169A809108018E7F04C0169880915A
:1027600008018160809308018091EA06811105C00B
:10277000179A809108018F7E04C0179880910801F4
:102780008061809308018091E906811105C0479A14
:1027900080910801877F04C0479880910801886074
:1027A0008093080180911002882309F4C6C08091AB
:1027B000F7058111C2C00E945E3760939B0770933A
:1027C0009C0780939D0790939E0782E89BE00E9460
:1027D000DF2E03EA17E0D12C38EE832E33E0932E60
:1027E000A12CB12C41E3E42E43E0F42E1C821B8289
:1027F0008D829E82AF82B886FA82E982DD86F801F8
:10280000219131918F018091860B9091870B281730
:102810003907F1F4CE0101960E94DE2D873111F0C7
:102820008C31B1F4CE0101960E946254892B81F063
:102830002B813C818D819E81AF81B88549855A85E8
:102840006B857C854B8F5C8F6D8F7E8FDD840AC09E
:10285000D39454E0D512CACF88EE93E0A0E0B0E064
:1028600020E030E030938F0B20938E0B8093900B01
:102870009093910BA093920BB093930B6B8D7C8DE7
:102880008D8D9E8D6093940B7093950B8093960B1A
:102890009093970BD092980B8CE89BE00E945A2E55
:1028A000882311F18CE89BE00E946254892BE1F0AF
:1028B0001092C40C00E010E0AE014F5F5F4F6CE877
:1028C0007BE08AE79BE00E94F1368111EFC30F5F46
:1028D0001F4F0F39110581F7F801EC53F34F1082A8
:1028E0008091C40C8111EBC30E945E3700919B075D
:1028F00010919C0720919D0730919E07DC01CB0130
:10290000801B910BA20BB30B80939B0790939C07AA
:10291000A0939D07B0939E078091EB05882369F0F3
:1029200080919B0790919C07A0919D07B0919E0775
:102930000397A105B1050CF0ADC58091E806882389
:1029400089F06DEC74E089EB9AE00E944F348EE2DE
:1029500090E00E94024468EE73E080E090E00E9404
:10296000FD35F5CF89EB9AE00E942D30892B99F047
:1029700089EB9AE00E940B30823521F481E080934C
:10298000E80609C0863539F49091EB0581E0911194
:1029900080E08093EB0580912802811193C684E149
:1029A000809328028091E706811112C08091E3068E
:1029B0009091E406A091E506B091E60691608093BF
:1029C000E3069093E406A093E506B093E60618C0EC
:1029D0008091E706873CA0F46DEB73E089EB9AE009
:1029E0000E944D346091E7064AE050E089EB9AE09E
:1029F0000E94FD336FED73E089EB9AE00E94E033B3
:102A00008091EB05882309F45DC66DEE73E089EBD8
:102A10009AE00E944D3464EF73E089EB9AE00E94E3
:102A20004D344091A80B5091A90B6091AA0B709165
:102A3000AB0B89EB9AE00E9463416CEF73E089EB8A
:102A40009AE00E944D344091A40B5091A50B6091E7
:102A5000A60B7091A70B89EB9AE00E94634163E09B
:102A600074E089EB9AE00E944D344091A80B50919C
:102A7000A90B6091AA0B7091AB0B8091A40B909164
:102A8000A50BA091A60BB091A70B481B590B6A0B85
:102A90007B0B89EB9AE00E9463416BE074E089EB69
:102AA0009AE00E944D346091AC0B7091AD0B89EBB4
:102AB0009AE00E94AA4162E174E089EB9AE00E94E8
:102AC0004D3460919F0B4AE050E089EB9AE00E9400
:102AD000FD3366E174E089EB9AE00E944D34609129
:102AE000E7064AE050E089EB9AE00E94FD3389EB6B
:102AF0009AE00E94DC33E6C56111DFCCECCCF4E057
:102B00008F278093E3069093E406A093E506B093A5
:102B1000E606E1CC1092EC06809108018F77809355
:102B20000801809108018F7B80930801F4CC80918B
:102B3000D7057091AB06843009F0C0C0909195071D
:102B4000909398074091900650919106209191079B
:102B50008AE0289F9001112422533109E1E04217B5
:102B600053070CF4E0E0E093900720918E0730913A
:102B70008F072550310981E04217530708F480E0A0
:102B800080938D07992329F0E11102C090E001C0E4
:102B9000982F90938C074732A2E05A074CF020916F
:102BA0008C0630918D062632324010F4E11101C0BE
:102BB00080E080938B07911103C0882309F45DC0E6
:102BC00020918A0630918B06232B09F06EC020914C
:102BD000960730919707A9014B7F452BA9F49923BC
:102BE00081F081E090E090939707809396078CE2C4
:102BF00091E090938B0680938A068091080180680B
:102C00001AC082E090E02EC021303105B9F482E094
:102C100090E0909397078093960788E592E09093D1
:102C20008B0680938A06809108018F778093080134
:102C3000809108018F7B8093080137C022303105D5
:102C4000B1F4882369F083E090E090939707809334
:102C500096078CE291E090938B0680938A0615C0CC
:102C600084E090E090939707809396071EC02330EE
:102C70003105D9F484E090E0CCCF80910801413255
:102C800053403CF080688093080180910801806483
:102C9000D2CF8F7780930801809108018F7B80933A
:102CA00008011092970710929607809190069091D4
:102CB000910690938F0780938E071DC08091D70552
:102CC000813059F48091950780939807882309F4FF
:102CD00042C080910801806841C08091D805813050
:102CE000D1F571113EC037C0809193079091940740
:102CF000019709F485C08091DC058330A9F477231E
:102D000099F08091DE05AAE08A9FC00111242091EC
:102D1000A9063091AA06281739070CF485C08091BE
:102D200008018064809308018091D505813019F4F1
:102D3000809192077DC08091D505823009F08AC0CC
:102D40008091D605813009F085C0662309F482C0E0
:102D50001092E2066DC0809108018F778093080180
:102D6000CACF8091DA052091A9063091AA0688235E
:102D7000F1F06623E1F08091DA05FAE08F9FC0015F
:102D80001124281739079CF08091900690919106A4
:102D90008217930764F4809108018068809308018A
:102DA00082E090E09093940780939307A4CF809162
:102DB000DA05882379F08091930790919407029720
:102DC00049F48091DA054AE0849FC0011124281754
:102DD000390704F18091D9054091DB055AE0859FC0
:102DE000C0011124841B9109281739070CF07CCFEE
:102DF0008091080180688093080181E090E0D2CF43
:102E00008091D9055AE0859FC0011124821793074C
:102E10000CF071CF809108018F7780930801109298
:102E200094071092930767CF809108018F7B7ACF28
:102E30008093EC06772359F18091E2056AE0869F42
:102E4000C00111242091A9063091AA06281739073C
:102E50003CF41DC081E08093E2061092EC06EACFBC
:102E60008091DF05813071F48091EB06811106C0FD
:102E700061EB74E089EB9AE00E94733481E0809307
:102E8000EB0649CB8091DF05823009F4E5C38091E0
:102E9000EB06882331F069E974E089EB9AE00E943F
:102EA00073341092EB0610928F0610928E0633CB7D
:102EB0006DED74E089EB9AE00E944F3460919B07BE
:102EC00070919C0780919D0790919E070E94D35A14
:102ED0004BCBA0909F06B090A006C0901902BAE01C
:102EE000CB9E6001112485EA882E82E0982E950100
:102EF0000B2C000C440B550B2F8B388F498F5A8F9E
:102F0000D4018D914D010F5F1F4FBAE08B0220015C
:102F10001124A414B5040CF441C0D401EC91BAE01E
:102F2000EB02F0011124EA15FB05C4F1D801A75EFC
:102F3000BD4F6C911197CC902AE0C29E6001112484
:102F40000D2C000CEE08FF08052C000C6608770815
:102F50002F89388D498D5A8D24193509460957090D
:102F60008AE0689FB0011124CB01770FAA0BBB0B3D
:102F7000BC01CD016C197D098E099F090E942E7537
:102F80009F01FF0F440B550B2419350946095709BA
:102F90000E94817AC20ED31EE41EF51E0530110573
:102FA00009F0AECF97E9A916B10434F0C0901E0223
:102FB000AAE0CA9E60011124D0922102C092200290
:102FC000E091E305B5E0EB02F0011124E057F94F81
:102FD000808191818601081B190B17FF03C0119591
:102FE00001951109C816D90620F481E08093EA06FC
:102FF00006C08C159D0550F581E08093E90680910F
:103000001F0290E09093E1068093E00681E090E05B
:1030100090932702809326020A301105BCF4809118
:10302000E0069091E106969587959093E10680934E
:10303000E0060530110554F48091E0069091E10618
:10304000969587959093E1068093E0068091EB0535
:10305000882309F416CB60EC74E089EB9AE00E94B7
:103060004F34B80189EB9AE00E94AA4169EB74E001
:1030700089EB9AE00E944F346091E0067091E1067E
:1030800089EB9AE00E944D41FCCA68ED74E089EB3F
:103090009AE00E944F3460919B0770919C07809149
:1030A0009D0790919E070E94D35A14CB89818A3044
:1030B00009F412CCF801EC53F34F808308CC0F399C
:1030C000110559F46EE971E08CE89BE00E940F3C19
:1030D0008CE89BE00E947D2E07CC80E090E00E946F
:1030E000A5747C0110928B0B10928A0BBC0181EAB3
:1030F00093E00E945877892B19F481E090E024C076
:10310000B70185EA93E00E945877892B19F483E090
:1031100090E01AC0B7018AEA93E00E945877892BA1
:1031200019F484E090E010C0B7018EEA93E00E94A9
:103130005877892BB1F3B70186EB93E00E9458775B
:10314000892B31F485E090E090938B0B80938A0B70
:1031500081E090E00E94A5749093890B8093880B86
:103160008091800B9091810B892B59F40E945E37DE
:103170004B015C0101E010E024ECC22E2CE0D22EC9
:1031800036C000E010E0E091800BF091810BE00F81
:10319000F11F80819181892B49F38281938100976E
:1031A00051F00E942578E091800BF091810BE00FA7
:1031B000F11F138212820C5F1F4FE5CF0E945E3712
:1031C000DC01CB0188199909AA09BB090B97A10554
:1031D000B10508F0ECC0AE014F5F5F4F6CE87BE0DB
:1031E0008AE79BE00E94F136782E811107C08AE7BA
:1031F0009BE00E941737882309F3D9C00E945E37ED
:103200004B015C010330110509F488C03CF4013026
:10321000110569F00230110541F1C1C004301105FA
:1032200009F46AC00530110509F4B5C0B8C0298198
:103230002D3009F4B4C02A3019F47110C2C0B7C0DF
:10324000822F022E000C990B2F8F0E940B772F8D4F
:10325000892B19F42D3209F014C12093C40C2224B7
:103260002394312C02E010E09EC021017FEF471A29
:10327000570A80EA4816510408F003C129812A330D
:1032800041F5F101EC53F34F10820091800B109146
:10329000810B0115110509F4D6C1D8010D90BC911F
:1032A000A02DBE8BAD8BAB2B79F06D897E8984EC24
:1032B0009CE00E9458770C5F1F4F892B71F7212CDF
:1032C000312C04E010E06FC0E4ECFCE0FE8BED8BF1
:1032D000BEC1822F022E000C990B2F8F0E940B77FC
:1032E0002F8D892B19F42D3209F0CBC0F101EC534D
:1032F000F34F2083120153C0C1010196803A91051A
:1033000008F0BFC02981203209F449C0F101EC5313
:10331000F34F20831C0103E010E045C091012F5FB3
:103320003F4F203A310508F0ACC089818A3059F509
:10333000F101EC53F34F1082E091800BF091810B7F
:10334000309709F49EC08F0180819181009709F424
:1033500098C034962D893E8928173907A1F7D601E0
:103360000D900020E9F7CD01845C9C400E9490778D
:10337000F80193838283009709F483C064EC7CE0B6
:103380000E94617781C08D3051F0F101EC53F34F11
:103390008083190104C089818A3009F475C0063020
:1033A000110509F44ACF0115110509F020CF61EA92
:1033B00071E08CE89BE00E940F3C8CE89BE00E944F
:1033C0007D2EA090880BB090890B80908A0B9090F6
:1033D0008B0BC0907E0BD0907F0BF601008111818A
:1033E00001151105D1F1F80101900020E9F731979D
:1033F0002F01401A510AB801C5010E9458773C01BB
:10340000F801E40DF51D319780818A3209F03FC043
:10341000A20141505109B801C5010E94687767288F
:1034200011F0892BB1F4D60112968D919C911397CE
:103430008730910559F4D6011496ED91FC911597BA
:103440008AE79BE01995882391F00DC088159905AE
:1034500091F3B6E0CB0ED11CC0CF64E971E08CE8EB
:103460009BE00E940F3C8CE89BE00E947D2E8091A7
:10347000880B9091890B0E942578C7010E942578BE
:1034800033CA00E010E08FCF01E010E08CCF672856
:1034900051F2DFCF63ED74E089EB9AE00E944F3484
:1034A00060919B0770919C0780919D0790919E076A
:1034B0000E94D35A42CA10922A024091040750E057
:1034C000542F442780910307482B50936F07409354
:1034D0006E072091060730E0322F222780910507E2
:1034E000282B30936B0720936A078091080790E0A0
:1034F000982F882760910707862B90936907809300
:10350000680780910A0790E0982F88276091090743
:10351000862B90936D0780936C0760910C0770E089
:10352000762F6627E0910B076E2B709365076093EB
:10353000640760910E0770E0762F6627E0910D0713
:103540006E2B7093670760936607E0911007F0E0B9
:10355000FE2FEE2760910F07E62BF0936307E093B1
:1035600062076091120770E0762F6627A09111071D
:103570006A2B7093710760937007A0911307A09353
:103580007207B0911A07B0937807A1FBBB27B0F977
:10359000B0937607B0913007B0937907B170B093CC
:1035A0007A075093F2064093F10630938D062093EC
:1035B0008C0690937A0680937906F093F006E09358
:1035C000EF067093780660937706809118078093D2
:1035D0009107809119078093EE0681E0909146074C
:1035E000913009F080E08093E206A2FB882780F901
:1035F00080939207A3FBAA27A0F9A093950781E0E7
:1036000090911507913009F080E080938A0781E05E
:1036100090911407913009F080E0809385070C9415
:10362000FB0A11110C949E0E0C943F0D11110C9479
:103630009E0E6EE174E089EB9AE00E947334109262
:1036400089060C94940D44EC5CE05E8B4D8B212C30
:10365000312C05E010E0A7CE80918E0690918F0668
:10366000892B11F00C948B128091EB06811113C001
:103670004091E00528E532E0429FC001439F900D54
:10368000112490938F0680938E0681E08093EB0641
:103690006AEA74E011C04091E10528E532E0429FFA
:1036A000C001439F900D112490938F0680938E0646
:1036B0001092EB0662EA74E089EB9AE00E947334A0
:1036C0000C948B126F960FB6F894DEBF0FBECDBF71
:1036D000DF91CF911F910F91FF90EF90DF90CF90EE
:1036E000BF90AF909F908F907F906F905F904F9022
:1036F0003F902F9008952F923F924F925F926F923A
:103700007F928F929F92AF92BF92CF92DF92EF9271
:10371000FF920F931F93CF93DF93CDB7DEB7A097A0
:103720000FB6F894DEBF0FBECDBF7E0123E1E20EDF
:10373000F11C64E474E0C7010E943B3364E170E073
:10374000C7010E945C3261E084E294E00E947D3F08
:10375000882311F40C94B9281E2D0F2D82E0582EC9
:1037600093E0492E24E0322E39E6C32E33E0D32EE7
:1037700041E050E0BE01615E7F4F8AEC9BE00E9419
:103780005850892B11F40C94B6286F8D6A3031F0A3
:103790006D3021F0C7010E948332EACF62EE79E0FA
:1037A00089EB9AE00E944F344F89588D6B897C8950
:1037B00089EB9AE00E94C72F60EE79E089EB9AE0EE
:1037C0000E94733440E050E06DE3C7010E94DA319B
:1037D0002F89388D1216130614F00C94AF288F3FE2
:1037E0004FEF940711F40C94AF28AC014F5F5F4F7B
:1037F000B701CE010D960E944F33CE010D960E9467
:103800007B3168ED79E0CE0101960E94EC32BE0179
:103810006F5F7F4FC7010E940832282ECE010196AC
:103820000E94E732222009F448C089899A890C97BE
:1038300011F00C94AB28A12CB12C812CB501CE0138
:103840000D960E94F631FC0180810E94355A982E17
:10385000929440EF9422B5016F5F7F4FCE010D9699
:103860000E94F631FC0180810E94355AF501F595E0
:10387000E79521E030E02C0F3D1FE20FF31F890D8B
:1038800080833AE0A316B10411F48824839442E0C3
:10389000A40EB11C8CE0A816B10481F6882049F072
:1038A00086E0FE013196A5E9B2E001900D928A957D
:1038B000E1F70E94205A0C94AB2861ED79E0CE012B
:1038C00001960E94EC32BE016F5F7F4FC7010E94DC
:1038D0000832B82ECE0101960E94E732BB2009F4CF
:1038E0005BC0DA82C9821B821C821D821E826D85AA
:1038F0007E85CE0101960E948334882329F08B8136
:103900009C81AD81BE813AC06CEC79E0CE01079616
:103910000E94EC3289899A892B853C85821793070E
:10392000F9F4892BD9F0AD84BE848F809884F50199
:1039300081915F01882391F0082E000C990B0E9461
:1039400027773C01F40181914F01082E000C990B5F
:103950000E9427776816790651F302C02224239427
:10396000CE0107960E94E732222081F080914D0C13
:1039700090914E0CA0914F0CB091500C8093420C42
:103980009093430CA093440CB093450C80E49CE0CE
:103990000E948B5B0C94AB2862EC79E0CE0101961F
:1039A0000E94EC32BE016F5F7F4FC7010E94083258
:1039B000B82ECE0101960E94E732BB2031F1DA82A7
:1039C000C9821B821C821D821E826D857E85CE016E
:1039D00001960E948334882391F08B819C81AD8174
:1039E000BE8180933C0C90933D0CA0933E0CB09311
:1039F0003F0CCE0101960E948B5B0C94AB28CE014C
:103A000001960E948B5B0C94AB2868EB79E0CE01A9
:103A100001960E94EC32BE016F5F7F4FC7010E948A
:103A20000832B82ECE0101960E94E732BB2031F158
:103A3000DA82C9821B821C821D821E826D857E8570
:103A4000CE0101960E948334882391F08B819C8162
:103A5000AD81BE818093360C9093370CA093380CC7
:103A6000B093390CCE0101960E948B5B0C94AB286D
:103A7000CE0101960E948B5B0C94AB2860EB79E041
:103A8000CE0101960E94EC32BE016F5F7F4FC701ED
:103A90000E940832B82ECE0101960E94E732BB2068
:103AA00031F1DA82C9821B821C821D821E826D85E1
:103AB0007E85CE0101960E948334882391F08B810C
:103AC0009C81AD81BE818093300C9093310CA0938A
:103AD000320CB093330CCE0101960E948B5B0C9498
:103AE000AB28CE0101960E948B5B0C94AB286CE94D
:103AF00079E0CE0101960E94EC32BE016F5F7F4FEC
:103B0000C7010E940832B82ECE0101960E94E7320A
:103B1000B1100C94AB2862E979E0CE0101960E94C5
:103B2000EC32BE016F5F7F4FC7010E940832B82E92
:103B3000CE0101960E94E732BB2041F0CE010D96E6
:103B40000E9470316093B0050C94AB2862E879E074
:103B5000CE0101960E94EC32BE016F5F7F4FC7011C
:103B60000E940832B82ECE0101960E94E732BB2097
:103B700041F0CE010D960E9470316093B1050C9416
:103B8000AB2865E779E0CE0101960E94EC32BE01D8
:103B90006F5F7F4FC7010E940832B82ECE01019699
:103BA0000E94E732BB2041F0CE010D960E94703199
:103BB0006093B2050C94AB2863E679E0CE010196E0
:103BC0000E94EC32BE016F5F7F4FC7010E94083236
:103BD000B82ECE0101960E94E732BB2051F0CE01F3
:103BE0000D960E9470317093B4056093B3050C94E8
:103BF000AB2862E579E0CE0101960E94EC32BE016D
:103C00006F5F7F4FC7010E940832B82ECE01019628
:103C10000E94E732BB2051F0CE010D960E94703118
:103C20007093BC056093BB050C94AB2866E479E007
:103C3000CE0101960E94EC32BE016F5F7F4FC7013B
:103C40000E940832B82ECE0101960E94E732BB20B6
:103C500051F0CE010D960E9470317093B8056093BB
:103C6000B7050C94AB286BE379E0CE0101960E9476
:103C7000EC32BE016F5F7F4FC7010E940832B82E41
:103C8000CE0101960E94E732BB2051F0CE010D9685
:103C90000E9470317093C0056093BF050C94AB28EF
:103CA0006BE279E0CE0101960E94EC32BE016F5FBB
:103CB0007F4FC7010E940832B82ECE0101960E94A4
:103CC000E732BB2051F0CE010D960E947031709307
:103CD000B6056093B5050C94AB286CE179E0CE0194
:103CE00001960E94EC32BE016F5F7F4FC7010E94B8
:103CF0000832B82ECE0101960E94E732BB2051F067
:103D0000CE010D960E9470317093BE056093BD0583
:103D10000C94AB286FE079E0CE0101960E94EC3262
:103D2000BE016F5F7F4FC7010E940832B82ECE01DF
:103D300001960E94E732BB2051F0CE010D960E9401
:103D400070317093BA056093B9050C94AB2863E0A9
:103D500079E0CE0101960E94EC32BE016F5F7F4F89
:103D6000C7010E940832B82ECE0101960E94E732A8
:103D7000BB2051F0CE010D960E9470317093C205A8
:103D80006093C1050C94AB286DEE78E0CE010196EE
:103D90000E94EC32BE016F5F7F4FC7010E94083264
:103DA000B82ECE0101960E94E732BB2081F0CE01F1
:103DB0000D960E9470319B01215031092336310547
:103DC00010F00C94AB286093C3050C94AB286EEDF7
:103DD00078E0CE0101960E94EC32BE016F5F7F4F0A
:103DE000C7010E940832B82ECE0101960E94E73228
:103DF000BB2081F0CE010D960E9470319B012150B5
:103E000031092A35310510F00C94AB286093C405B4
:103E10000C94AB2861EC78E0CE0101960E94EC3264
:103E2000BE016F5F7F4FC7010E940832B82ECE01DE
:103E300001960E94E732BB20A9F0CE010D960E94A8
:103E40007031611571058105910511F40C94AB2851
:103E50006093C5057093C6058093C7059093C80508
:103E60000C94AB2869EA78E0CE0101960E94EC320E
:103E7000BE016F5F7F4FC7010E940832B82ECE018E
:103E800001960E94E732BB2081F0CE010D960E9480
:103E900070316093C9057093CA058093CB059093E8
:103EA000CC050E94ED590C94AB286DE878E0CE016A
:103EB00001960E94EC32BE016F5F7F4FC7010E94E6
:103EC0000832B82ECE0101960E94E732BB2079F06D
:103ED000CE010D960E9470316115710511F40C949C
:103EE000AB287093CE056093CD050C94AB286AE7A0
:103EF00078E0CE0101960E94EC32BE016F5F7F4FE9
:103F0000C7010E940832B82ECE0101960E94E73206
:103F1000BB2041F0CE010D960E9470316093CF0519
:103F20000C94AB286FE678E0CE0101960E94EC324B
:103F3000BE016F5F7F4FC7010E940832B82ECE01CD
:103F400001960E94E732BB2081F0CE010D960E94BF
:103F500070319B01215031092336310510F00C944A
:103F6000AB286093D4050C94AB2864E678E0CE01CE
:103F700001960E94EC32BE016F5F7F4FC7010E9425
:103F80000832B82ECE0101960E94E732BB2081F0A4
:103F9000CE010D960E9470319B01215031092336CC
:103FA000310510F00C94AB286093D3050C94AB282A
:103FB00068E578E0CE0101960E94EC32BE016F5FA9
:103FC0007F4FC7010E940832B82ECE0101960E9491
:103FD000E732BB2081F0CE010D960E9470319B012B
:103FE000215031092336310510F00C94AB28609331
:103FF000D1050C94AB2869E478E0CE0101960E94CB
:10400000EC32BE016F5F7F4FC7010E940832B82EAD
:10401000CE0101960E94E732BB2081F0CE010D96C1
:104020000E9470319B01215031092336310510F077
:104030000C94AB286093D2050C94AB286BE378E02A
:10404000CE0101960E94EC32BE016F5F7F4FC70127
:104050000E940832B82ECE0101960E94E732BB20A2
:1040600009F46EC0BE01635F7F4FCE0149960E9486
:1040700022336FE274E0CE0101960E943B33BE0111
:104080006F5F7F4FCE0149960E940832811117C0A1
:1040900065E374E0CE0107960E943B33BE01695F81
:1040A0007F4FCE0149960E940832BB24B394811100
:1040B00001C0B12CCE0107960E94E73202C0BB249A
:1040C000B394CE0101960E94E732BB2021F01092FA
:1040D000290221E02DC06BE374E0CE0101960E941D
:1040E0003B33BE016F5F7F4FCE0149960E9408327D
:1040F000B82ECE0101960E94E732B11018C06FE3CE
:1041000074E0CE0101960E943B33BE016F5F7F4F8A
:10411000CE0149960E940832282FCE01019628A38D
:104120000E94E73228A1222319F022E001C023E0F7
:104130002093D005CE0149960E94E7320C94AB281B
:1041400060E378E0CE0101960E94EC32BE016F5F21
:104150007F4F812F902F0E940832B82ECE010196FA
:104160000E94E732BB2071F0CE010D960E947031A3
:104170009B01215031092336310508F0ECC76093CB
:10418000D905E9C767E278E0CE0101960E94EC32DA
:10419000BE016F5F7F4F812F902F0E940832B82E93
:1041A000CE0101960E94E732BB2091F0BE01635F11
:1041B0007F4FCE0101960E942233CE0101960E94CC
:1041C0007D6F8093D705CE0101960E94E732C3C769
:1041D0006AE178E0CE0101960E94EC32BE016F5F89
:1041E0007F4F812F902F0E940832B82ECE0101966A
:1041F0000E94E732BB2091F0BE01635F7F4FCE018A
:1042000001960E942233CE0101960E94286F80936E
:10421000D805CE0101960E94E7329DC76CE078E098
:10422000CE0101960E94EC32BE016F5F7F4F812F5D
:10423000902F0E940832B82ECE0101960E94E732DC
:10424000BB2059F0CE010D960E9470316536710584
:1042500008F081C76093DB057EC762E078E0CE019D
:1042600001960E94EC32BE016F5F7F4F812F902F2D
:104270000E940832B82ECE0101960E94E732BB2080
:1042800071F0CE010D960E9470319B0121503109D1
:104290002336310508F05FC76093DA055CC766EF27
:1042A00077E0CE0101960E94EC32BE016F5F7F4F36
:1042B000812F902F0E940832B82ECE0101960E94C5
:1042C000E732BB2071F0CE010D960E9470319B0148
:1042D000215031092336310508F03DC76093DE05D2
:1042E0003AC76CEE77E0CE0101960E94EC32BE0137
:1042F0006F5F7F4F812F902F0E940832B82ECE0122
:1043000001960E94E732BB2091F0BE01635F7F4FB0
:10431000CE0101960E942233CE0101960E947D6F4C
:104320008093DC05CE0101960E94E73214C76EED42
:1043300077E0CE0101960E94EC32BE016F5F7F4FA5
:10434000812F902F0E940832B82ECE0101960E9434
:10435000E732BB2091F0BE01635F7F4FCE01019633
:104360000E942233CE0101960E94286F8093DD05C2
:10437000CE0101960E94E732EEC666ED77E0CE01EF
:1043800001960E94EC32BE016F5F7F4F812F902F0C
:104390000E940832B82ECE0101960E94E732BB205F
:1043A00009F46DC0BE01635F7F4FCE0149960E9444
:1043B00022336BE175E0CE0101960E94EC32BE0122
:1043C0006F5F7F4FCE0149960E940832811117C05E
:1043D00065E175E0CE0107960E94EC32BE01695F8F
:1043E0007F4FCE0149960E940832BB24B3948111BD
:1043F00001C0B12CCE0107960E94E73202C0BB2457
:10440000B394CE0101960E94E732BB2021F01092B6
:10441000290221E02DC060E175E0CE0101960E94E5
:10442000EC32BE016F5F7F4FCE0149960E94083289
:10443000B82ECE0101960E94E732B11018C06BE091
:1044400075E0CE0101960E94EC32BE016F5F7F4F96
:10445000CE0149960E940832282FCE01019628A34A
:104460000E94E73228A1222319F023E001C022E0B4
:104470002093D505CE0149960E94E7326CC66AECBE
:1044800077E0CE0101960E94EC32BE016F5F7F4F54
:10449000812F902F0E940832B82ECE0101960E94E3
:1044A000E732BB2091F0BE01635F7F4FCE010196E2
:1044B0000E942233CE0101960E94286F8093D60578
:1044C000CE0101960E94E73246C666EB77E0CE0148
:1044D00001960E94EC32BE016F5F7F4F812F902FBB
:1044E0000E940832B82ECE0101960E94E732BB200E
:1044F00091F0BE01635F7F4FCE0101960E9422338F
:10450000CE0101960E94286F8093DF05CE010196AF
:104510000E94E73220C660EA77E0CE0101960E9451
:10452000EC32BE016F5F7F4F812F902F0E940832C7
:10453000B82ECE0101960E94E732BB2039F0CE01A1
:104540000D960E9470316093E00505C669E877E03A
:10455000CE0101960E94EC32BE016F5F7F4F812F2A
:10456000902F0E940832B82ECE0101960E94E732A9
:10457000BB2039F0CE010D960E9470316093E105A9
:10458000EAC569E777E0CE0101960E94EC32BE01F0
:104590006F5F7F4F812F902F0E940832B82ECE017F
:1045A00001960E94E732BB2061F0CE010D960E9479
:1045B00070318FEF860F833608F0CDC56093E2052A
:1045C000CAC564E677E0CE0101960E94EC32BE01D6
:1045D0006F5F7F4F812F902F0E940832B82ECE013F
:1045E00001960E94E732BB2059F0CE010D960E9441
:1045F0007031161617060CF0AEC56093E405ABC516
:104600006CE477E0CE0101960E94EC32BE016F5F50
:104610007F4F812F902F0E940832B82ECE01019635
:104620000E94E732BB2059F0CE010D960E947031F6
:10463000161617060CF08FC56093E5058CC565E36B
:1046400077E0CE0101960E94EC32BE016F5F7F4F92
:10465000812F902F0E940832B82ECE0101960E9421
:10466000E732BB2059F0CE010D960E94703116162C
:1046700017060CF070C56093E6056DC561E277E042
:10468000CE0101960E94EC32BE016F5F7F4F812FF9
:10469000902F0E940832B82ECE0101960E94E73278
:1046A000BB2059F0CE010D960E94703116161706E8
:1046B0000CF051C56093E7054EC560E177E0CE018F
:1046C00001960E94EC32BE016F5F7F4F812F902FC9
:1046D0000E940832B82ECE0101960E94E732BB201C
:1046E00059F0CE010D960E947031161617060CF087
:1046F00032C56093E8052FC560E077E0CE010196F2
:104700000E94EC32BE016F5F7F4F812F902F0E947D
:104710000832B82ECE0101960E94E732BB2059F034
:10472000CE010D960E947031161617060CF013C5B7
:104730006093E90510C563EF76E0CE0101960E9413
:10474000EC32BE016F5F7F4F812F902F0E940832A5
:10475000B82ECE0101960E94E732BB2059F0CE015F
:104760000D960E947031161617060CF0F4C4609373
:10477000EA05F1C463EE76E0CE0107960E94EC32C2
:10478000BE01695F7F4F812F902F0E9408328111F7
:1047900017C063ED76E0CE0101960E94EC32BE01B7
:1047A0006F5F7F4F812F902F0E940832BB24B394FC
:1047B000811101C0B12CCE0101960E94E73202C0E6
:1047C000BB24B394CE0107960E94E732BB2069F167
:1047D000CE010D960E947031613009F0BCC4509238
:1047E0009206109293065092970660939806509204
:1047F0009C0650929D065092A1064092A2065092AD
:10480000A6063092A7065092AB0685E08093AC06D0
:104810005092B00686E08093B1065092B50687E0CC
:104820008093B6061092290296C46DEC76E0CE0114
:1048300001960E94EC32BE016F5F7F4F812F902F57
:104840000E940832B82ECE0101960E94E732BB20AA
:1048500041F0BE01635F7F4F80E090E00E940670F0
:104860007AC465EC76E0CE0101960E94EC32BE017E
:104870006F5F7F4F812F902F0E940832B82ECE019C
:1048800001960E94E732BB2041F0BE01635F7F4F7B
:1048900081E090E00E9406705EC46BEB76E0CE0192
:1048A00001960E94EC32BE016F5F7F4F812F902FE7
:1048B0000E940832B82ECE0101960E94E732BB203A
:1048C00041F0BE01635F7F4F82E090E00E9406707E
:1048D00042C466EB76E0CE0101960E94EC32BE0146
:1048E0006F5F7F4F812F902F0E940832B82ECE012C
:1048F00001960E94E732BB2041F0BE01635F7F4F0B
:1049000083E090E00E94067026C461EB76E0CE0161
:1049100001960E94EC32BE016F5F7F4F812F902F76
:104920000E940832B82ECE0101960E94E732BB20C9
:1049300041F0BE01635F7F4F84E090E00E9406700B
:104940000AC46CEA76E0CE0101960E94EC32BE0108
:104950006F5F7F4F812F902F0E940832B82ECE01BB
:1049600001960E94E732BB2041F0BE01635F7F4F9A
:1049700085E090E00E940670EEC363EA76E0CE0127
:1049800001960E94EC32BE016F5F7F4F812F902F06
:104990000E940832B82ECE0101960E94E732BB2059
:1049A00041F0BE01635F7F4F86E090E00E94067099
:1049B000D2C36AE976E0CE0101960E94EC32BE01D4
:1049C0006F5F7F4F812F902F0E940832B82ECE014B
:1049D00001960E94E732BB2041F0BE01635F7F4F2A
:1049E00087E090E00E940670B6C367E976E0CE01EA
:1049F00001960E94EC32BE016F5F7F4F812F902F96
:104A00000E940832B82ECE0101960E94E732BB20E8
:104A100041F0BE01635F7F4F88E090E00E94067026
:104A20009AC364E976E0CE0101960E94EC32BE01A1
:104A30006F5F7F4F812F902F0E940832B82ECE01DA
:104A400001960E94E732BB2041F0BE01635F7F4FB9
:104A500089E090E00E9406707EC361E976E0CE01B5
:104A600001960E94EC32BE016F5F7F4F812F902F25
:104A70000E940832B82ECE0101960E94E732BB2078
:104A800041F0BE01635F7F4F8AE090E00E940670B4
:104A900062C36EE876E0CE0101960E94EC32BE0160
:104AA0006F5F7F4F812F902F0E940832B82ECE016A
:104AB00001960E94E732BB2041F0BE01635F7F4F49
:104AC0008BE090E00E94067046C36BE876E0CE0172
:104AD00001960E94EC32BE016F5F7F4F812F902FB5
:104AE0000E940832B82ECE0101960E94E732BB2008
:104AF00041F0BE01635F7F4F8CE090E00E94067042
:104B00002AC368E876E0CE0101960E94EC32BE012D
:104B10006F5F7F4F812F902F0E940832B82ECE01F9
:104B200001960E94E732BB2041F0BE01635F7F4FD8
:104B30008DE090E00E9406700EC365E876E0CE013D
:104B400001960E94EC32BE016F5F7F4F812F902F44
:104B50000E940832B82ECE0101960E94E732BB2097
:104B600041F0BE01635F7F4F8EE090E00E940670CF
:104B7000F2C262E876E0CE0101960E94EC32BE01FC
:104B80006F5F7F4F812F902F0E940832B82ECE0189
:104B900001960E94E732BB2041F0BE01635F7F4F68
:104BA0008FE090E00E940670D6C260E876E0CE0109
:104BB00001960E94EC32BE016F5F7F4F812F902FD4
:104BC0000E940832B82ECE0101960E94E732BB2027
:104BD00051F0CE010D960E947031613009F0BBC2D8
:104BE0006093EB05B8C26EE676E0CE0101960E94B6
:104BF000EC32BE016F5F7F4F812F902F0E940832F1
:104C0000B82ECE0101960E94E732BB2039F0CE01CA
:104C10000D960E947031609319029DC26CE576E09A
:104C2000CE0101960E94EC32BE016F5F7F4F812F53
:104C3000902F0E940832B82ECE0101960E94E732D2
:104C4000BB2039F0CE010D960E94703160931A029C
:104C500082C26AE476E0CE0101960E94EC32BE0187
:104C60006F5F7F4F812F902F0E940832B82ECE01A8
:104C700001960E94E732BB2039F0CE010D960E94CA
:104C8000703160931B0267C269E376E0CE01019642
:104C90000E94EC32BE016F5F7F4F812F902F0E94E8
:104CA0000832B82ECE0101960E94E732BB2039F0BF
:104CB000CE010D960E94703160931C024CC268E2D6
:104CC00076E0CE0101960E94EC32BE016F5F7F4F0D
:104CD000812F902F0E940832B82ECE0101960E949B
:104CE000E732BB2039F0CE010D960E9470316093FF
:104CF0001D0231C266E176E0CE0101960E94EC32DF
:104D0000BE016F5F7F4F812F902F0E940832B82E17
:104D1000CE0101960E94E732BB2039F0CE010D96FC
:104D20000E94703160931E0216C260E076E0CE01F0
:104D300001960E94EC32BE016F5F7F4F812F902F52
:104D40000E940832B82ECE0101960E94E732BB20A5
:104D500079F0CE010D960E9470312AE0269FA001C5
:104D6000279F500D11245093250240932402F3C134
:104D70006EEE75E0CE0101960E94EC32BE016F5FCF
:104D80007F4F812F902F0E940832B82ECE010196BE
:104D90000E94E732BB2061F0CE010D960E94703177
:104DA000660F862F880F880F680F60931F02D3C18C
:104DB00069ED75E0CE0101960E94EC32BE016F5F95
:104DC0007F4F812F902F0E940832B82ECE0101967E
:104DD0000E94E732BB2069F0CE010D960E9470312F
:104DE000FAE06F9FB00111247093230260932202B6
:104DF000B2C169EC75E0CE0101960E94EC32BE01B1
:104E00006F5F7F4F812F902F0E940832B82ECE0106
:104E100001960E94E732BB2009F464C16CE675E09C
:104E2000CE0101960E94EC32BE016F5F7F4FCE0132
:104E30000D960E940832B82ECE0101960E94E732EC
:104E4000B1102EC164E675E0CE0101960E94EC32ED
:104E5000BE016F5F7F4FCE010D960E940832B82EC3
:104E6000CE0101960E94E732B1101CC16AE575E0DF
:104E7000CE0101960E94EC32BE016F5F7F4FCE01E2
:104E80000D960E940832B82ECE0101960E94E7329C
:104E9000B1100AC165E575E0CE0101960E94EC32C1
:104EA000BE016F5F7F4FCE010D960E940832B82E73
:104EB000CE0101960E94E732B110F8C060E575E0BE
:104EC000CE0101960E94EC32BE016F5F7F4FCE0192
:104ED0000D960E940832B82ECE0101960E94E7324C
:104EE000B110E6C06BE475E0CE0101960E94EC3291
:104EF000BE016F5F7F4FCE010D960E940832B82E23
:104F0000CE0101960E94E732B110D4C062E475E090
:104F1000CE0101960E94EC32BE016F5F7F4FCE0141
:104F20000D960E940832B82ECE0101960E94E732FB
:104F3000B110C2C069E375E0CE0101960E94EC3267
:104F4000BE016F5F7F4FCE010D960E940832B82ED2
:104F5000CE0101960E94E732B110B0C066E375E061
:104F6000CE0101960E94EC32BE016F5F7F4FCE01F1
:104F70000D960E940832B82ECE0101960E94E732AB
:104F8000B1109EC063E375E0CE0101960E94EC3241
:104F9000BE016F5F7F4FCE010D960E940832B82E82
:104FA000CE0101960E94E732B1108CC060E375E03B
:104FB000CE0101960E94EC32BE016F5F7F4FCE01A1
:104FC0000D960E940832B82ECE0101960E94E7325B
:104FD000B1107AC06DE275E0CE0101960E94EC320C
:104FE000BE016F5F7F4FCE010D960E940832B82E32
:104FF000CE0101960E94E732B11068C06AE275E006
:10500000CE0101960E94EC32BE016F5F7F4FCE0150
:105010000D960E940832B82ECE0101960E94E7320A
:10502000B11056C067E275E0CE0101960E94EC32E5
:10503000BE016F5F7F4FCE010D960E940832B82EE1
:10504000CE0101960E94E732B11044C064E275E0DF
:10505000CE0101960E94EC32BE016F5F7F4FCE0100
:105060000D960E940832B82ECE0101960E94E732BA
:10507000B11032C061E275E0CE0101960E94EC32BF
:10508000BE016F5F7F4FCE010D960E940832B82E91
:10509000CE0101960E94E732B11020C08FEF1FC0F1
:1050A00080E01DC081E01BC082E019C083E017C012
:1050B00084E015C085E013C086E011C087E00FC012
:1050C00088E00DC089E00BC08AE009C08BE007C012
:1050D0008CE005C08DE003C08EE001C08FE08093BE
:1050E000E30539C06EEB75E0CE0101960E94EC320B
:1050F000BE016F5F7F4F812F902F0E940832B82E24
:10510000CE0101960E94E732BB2039F068EA75E0D3
:1051100089EB9AE00E9473341EC06AE975E0CE0103
:1051200001960E94EC32BE016F5F7F4F812F902F5E
:105130000E940832B82ECE0101960E94E732B110CB
:105140000AC06CE875E0CE0101960E94EC32CE01F7
:1051500001960E94E732CE010D960E94E73264E488
:1051600074E0C7010E94D2320C94B81B0E94C95A45
:1051700006C062E775E089EB9AE00E947334C701CC
:105180000E94E732A0960FB6F894DEBF0FBECDBFE7
:10519000DF91CF911F910F91FF90EF90DF90CF9013
:1051A000BF90AF909F908F907F906F905F904F9047
:1051B0003F902F9008950895CF93DF931F92CDB71E
:1051C000DEB76983DC01ED91FC910280F381E02D73
:1051D00041E050E0BE016F5F7F4F19950F90DF9166
:1051E000CF910895FC01818D928D0895FC018489F1
:1051F0009589089529E633E0FC0131832083FB0182
:105200004089518962897389FC0142835383648395
:1052100075830895DC01ED91FC91008CF18DE02DFA
:105220001994CF93DF931F92CDB7DEB76983DC016A
:10523000ED91FC910280F381E02D41E050E0BE0150
:105240006F5F7F4F19950F90DF91CF910895FC010B
:105250009485FB018485981303C081E0943009F4A0
:1052600080E0089521E0FC018485843009F420E089
:10527000822F089508958F929F92AF92BF92CF92FE
:10528000DF92EF92FF920F931F93CF93DF931F92C2
:105290001F92CDB7DEB76C014B017A01FC01A688E5
:1052A000B788108D00E021E040E059E06DE370E048
:1052B000CE0101960E94755489819A810E94725490
:1052C000812F0E94295D8E159F0520F4812F0E9459
:1052D000295D7C019701A401B501812F0E94C45C66
:1052E0000E947154F601868997898E0D9F1D978BB8
:1052F000868BC7010F900F90DF91CF911F910F9177
:10530000FF90EF90DF90CF90BF90AF909F908F90E5
:1053100008958EBD00000DB407FEFDCF8EB5089533
:10532000EF92FF920F931F93CF93DF931F921F92E1
:10533000CDB7DEB7182F7B0100E021E040E059E057
:105340006DE370E0CE0101960E94755489819A81C7
:105350000E94725421E041E050E0B701812F0E9489
:105360005C5C0E94715481E090E00F900F90DF919F
:10537000CF911F910F91FF90EF900895CF93DF93FE
:105380001F92CDB7DEB7FC01218D328D232B41F06A
:10539000BE016F5F7F4F808DC3DF898190E002C0C7
:1053A0008FEF9FEF0F90DF91CF910895DF92EF92F3
:1053B000FF920F931F93CF93DF931F921F92CDB74E
:1053C000DEB7D82E00E021E040E059E06DE370E068
:1053D000CE0101960E94755489819A810E9472546F
:1053E00000E010E08D2D0E94E4537C01892B21F018
:1053F0008D2D0E94E4538C010E151F0599F70E9414
:105400007154C8010F900F90DF91CF911F910F91B0
:10541000FF90EF90DF900895FC011382128288EED6
:1054200093E0A0E0B0E084839583A683B78385EB07
:1054300092E09183808389E693E097878687108A3C
:10544000118A128A138A84E0808F0895CF92DF92A6
:10545000EF92FF920F931F93CF93DF93CDB7DEB7F9
:10546000E1970FB6F894DEBF0FBECDBF7C016A0195
:1054700009E613E01A8309831B821C821D821E82A7
:10548000CE01099668AB79ABC7DF1DA30CA31EA2A2
:105490001FA218A619A680916E0B90916F0BA09178
:1054A000700BB091710B8CA79DA7AEA7BFA78B8384
:1054B0009C83AD83BE8318861F82AE014C5D5F4F17
:1054C00068A979A9CE0101960E94D4558130910531
:1054D000B1F4D701ED91FC910088F189E02D1BA773
:1054E0000AA78EA19FA1A8A5B9A58CA79DA7AEA725
:1054F000BFA7A601BE01665D7F4FC7011995E19662
:105500000FB6F894DEBF0FBECDBFDF91CF911F91D4
:105510000F91FF90EF90DF90CF9008959B0190E066
:105520000496982F8827642F820F931F0C94C353DF
:105530000F931F93CF93DF931F921F92CDB7DEB7C8
:10554000182F00E021E040E059E06DE370E0CE016B
:1055500001960E94755489819A810E94725460E17B
:1055600070E0812F0E94A05B4FEF62E070E0812F1E
:10557000D5DF0E9471540F900F90DF91CF911F9152
:105580000F910895CF92DF92EF92FF920F931F93A6
:10559000CF93DF931F921F92CDB7DEB7182FC62E81
:1055A0007A01D22EC5DF00E021E040E059E06DE352
:1055B00070E0CE0101960E94755489819A810E9403
:1055C00072544C2D4D2960E070E0812FA7DFE1146B
:1055D000F10459F4E090AB07F090AC078FEFE81AB4
:1055E000F80AF092AC07E092AB074F2D64E070E050
:1055F000812F94DF4E2D65E070E0812F8FDF61E019
:1056000070E0812F0E94A05B0E94715481E00F9096
:105610000F90DF91CF911F910F91FF90EF90DF904E
:10562000CF900895CF93DF93EC01888D843059F0AB
:105630007FDFE88DF0E0EE0FFF1FED55F84F118290
:10564000108284E0888FDF91CF9108950F931F938C
:10565000CF93DF931F92CDB7DEB790E00496982FDB
:1056600088278C01060F171F0E9466538FE051DEBA
:10567000812F4FDE802F4DDE80E04BDE89830E943C
:10568000645389810F90DF91CF911F910F910895FD
:105690001F93CF93DF93182F60E270E0D7DFC82FFE
:1056A000D0E061E270E0812FD1DFDC2FCC279E01BA
:1056B000282BC901DF91CF911F9108958F929F925E
:1056C000AF92BF92CF92DF92FF920F931F93CF932F
:1056D000DF931F921F92CDB7DEB7F82E4B016A0100
:1056E00000E021E040E059E06DE370E0CE0101967A
:1056F0000E94755489819A810E94725400E010E0E2
:105700008F2D0E94E4535C01892B21F08F2D0E9484
:10571000E4538C010A151B0599F70115110591F445
:1057200063E070E08F2D92DF8431F1F08823E1F0A7
:1057300001E010E08C3111F400E010E011950195CA
:10574000110912C0C016D1060CF4860110161106FC
:105750005CF420E0A801B4018F2D0E945C5C60E441
:1057600070E08F2D0E94A05B0E947154C8010F90C1
:105770000F90DF91CF911F910F91FF90DF90CF900D
:10578000BF90AF909F908F900895CF93DF93FC01CF
:10579000218D328D2115310519F48FEF9FEF10C047
:1057A000EC014217530708F0A901888D87DF18160E
:1057B00019069CF7298D3A8D281B390B3A8F298FB2
:1057C000DF91CF9108950F931F93CF93DF931F9293
:1057D000CDB7DEB7FC01218D328D232B59F08C0122
:1057E00041E050E0BE016F5F7F4F808D67DF18168C
:1057F00019061CF08FEF9FEF08C0F801818D928D84
:105800000197928F818F898190E00F90DF91CF91E6
:105810001F910F9108950F931F93CF93DF93CDB7EF
:10582000DEB728970FB6F894DEBF0FBECDBF8C0150
:10583000F801818D928D892B49F0D801ED91FC9171
:105840000680F781E02DC8011995F2CF808DAEDD7D
:105850001816190654F548E050E0BE016F5F7F4FFF
:10586000D80158968C912ADF9C0118161906DCF491
:1058700089819A81AB81BC81F801808B918BA28B4D
:10588000B38B8D8190E0982F88272E81820F911DF8
:10589000958B848B2F8130E0322F22278885280F2B
:1058A000311D328F218FC90102C080E090E028961F
:1058B0000FB6F894DEBF0FBECDBFDF91CF911F9121
:1058C0000F9108950F931F93CF93DF9300D0CDB71F
:1058D000DEB7182F00E021E040E059E06DE370E012
:1058E000CE0101960E94755489819A810E9472545A
:1058F00063E070E0812FAADE8B830E9471548B815C
:105900000F900F900F90DF91CF911F910F910895FD
:10591000EF92FF921F93CF93DF93FC01208D2430F1
:1059200011F080E01AC07B01EC0110E0812FCADF8A
:10593000811102C0188F05C08831E1F31F5F143058
:10594000A9F7888D843069F3FD86EC861A8E198E4E
:1059500020E0A70162E016DE81E0DF91CF911F9188
:10596000FF90EF9008950F931F93CF93DF931F92B3
:105970001F92CDB7DEB7FC01108D00E021E040E0C2
:1059800059E06DE370E0CE0101960E947554898163
:105990009A810E94725460E270E0812F0E94A05BA5
:1059A00062E070E0812F52DE84FD21C062E070E091
:1059B000812F4CDE83FF0AC048E162E070E0812F56
:1059C000ADDD0E94715480E090E01AC00E947154D5
:1059D00000E021E040E059E06DE370E0CE01019687
:1059E0000E94755489819A810E947254D9CF40E1F6
:1059F00062E070E0812F92DD0E94715481E090E0BE
:105A00000F900F90DF91CF911F910F910895CF9339
:105A1000DF93C82FD62F472F60E170E07FDD4D2F39
:105A200061E170E08C2FDF91CF9178CDBF92CF9262
:105A3000DF92EF92FF920F931F93CF93DF9300D0EB
:105A400000D0CDB7DEB7FC01208D243009F050C066
:105A50006A017B018C01B12C63E070E08B2DF6DDD7
:105A6000811103C0F801B08E06C08831D9F3B39418
:105A7000F4E0BF12F1CFF801808D8430C9F196E0D7
:105A8000EBEAF2E0DE01119601900D929A95E1F7B2
:105A9000F70193819F779C8394819D8395819E8359
:105AA000B7016E5F7F4F90E0982F882744E050E069
:105AB000845F9B4F0E949653B601F801808DA7DF4B
:105AC000F801808D90E0982F882746E050E0BE01D5
:105AD0006F5F7F4F8A5F9B4F0E949653F801128E33
