:10000000C1C200000C94673E0C94983E0C94C93E0B
:100010000C94FA3E0C942B3F0C945C3F0C948D3F57
:100020000C94BE3FDCC20000DAC20000D8C200005F
:10003000D6C20000D4C20000D2C200000C945D38C9
:10004000CEC20000CCC20000CAC20000C8C200007C
:10005000C6C20000C4C20000C2C200000C9403412A
:10006000BEC200000C94EF460C943348B8C20000A6
:10007000B6C20000B4C20000B2C20000B0C20000AC
:10008000AEC20000ACC20000AAC20000A8C20000BC
:100090000C942F470C947248A2C20000A0C200002A
:1000A0009EC200009CC200009AC2000098C20000DC
:1000B00096C2000094C2000092C2000090C20000EC
:1000C0008EC200008CC200008AC200000C946F47F0
:1000D0000C94B14884C200000C94AF470C94F048D3
:1000E0007EC2000000316253C4F5A697B988DBEAEE
:1000F0007D4C1F2E4372211087B6E5D4FACB98A908
:100100003E0F5C6D86B7E4D5427320113F0E5D6CE7
:10011000FBCA99A8C5F4A796013063527C4D1E2FE7
:10012000B889DAEB3D0C5F6EF9C89BAA84B5E6D7B7
:10013000407122137E4F1C2DBA8BD8E9C7F6A594C7
:1001400003326150BB8AD9E87F4E1D2C02336051C7
:10015000C6F7A495F8C99AAB3C0D5E6F41702312A7
:1001600085B4E7D67A4B1829BE8FDCEDC3F2A19097
:100170000736655439085B6AFDCC9FAE80B1E2D387
:1001800044752617FCCD9EAF38095A6B4574271667
:1001900081B0E3D2BF8EDDEC7B4A19280637645567
:1001A000C2F3A0914776251483B2E1D0FECF9CAD77
:1001B0003A0B586904356657C0F1A293BD8CDFEE47
:1001C00079481B2AC1F0A3920534675678491A2B47
:1001D000BC8DDEEF82B3E0D1467724153B0A596827
:1001E000FFCE9DAC49503A206272616B2045746825
:1001F0006572536869656C642E2E2E0A0057575736
:100200003A7374726F6E6120676F746F77610A0062
:100210005757573A7572756368616D69616D2073E0
:1002200074726F6E652E2E2E0A000A002E002E00AC
:100230002E0049503A204F4B2E2E2E0A49503A207C
:100240000049503A206B6F6E666967757261636A28
:10025000612073696563692E2E2E0A0053443A208B
:10026000626C6164206F64637A7974752064616E76
:100270007963680053443A20626C6164206B617258
:1002800074790A0053443A206272616B206B617288
:1002900074790A0053443A206272616B20706C6971
:1002A0006B7520636F6E6669672E7478740A0061DF
:1002B00063636573732D636F6E74726F6C2D616C05
:1002C0006C6F772D6F726967696E3A202A0A006138
:1002D00063636573732D636F6E74726F6C2D616CE5
:1002E0006C6F772D6F726967696E3A202A0A006118
:1002F00063636573732D636F6E74726F6C2D616CC5
:100300006C6F772D6F726967696E3A202A0A002038
:100310006279746573290A00206D696C6C697320B9
:10032000287265636569766564200020627974656A
:100330007320696E200057726F74652000437265E8
:100340006174696E672000436F756C64206E6F7412
:100350002066696E642066696C653A2000526561AA
:10036000642066696C652000436F756C64206E6F55
:10037000742070617273652055524C007C3C3E5E67
:100380002B3D3F2F5B5D3B2C2A225C0048544D2ABD
:10039000746578742F68746D6C7C5458542A746535
:1003A00078742F706C61696E7C4353532A7465783E
:1003B000742F6373737C584D4C2A746578742F784E
:1003C0006D6C7C4A532A746578742F6A6176617308
:1003D00063726970747C4749462A696D6167652F4D
:1003E0006769667C4A50472A696D6167652F6A7044
:1003F00065677C504E472A696D6167652F706E672F
:100400007C49434F2A696D6167652F766E642E6D56
:100410006963726F736F66742E69636F6E7C4D5083
:10042000332A617564696F2F6D7065677C00436F57
:100430006E74656E742D547970653A2000204F4BB0
:100440000D0A00485454502F312E31200000002155
:1004500000240027002A002D003000330001010095
:1004600000040107010A0100002200250028002BDA
:10047000002E003100340002010000050108010BCC
:1004800001000020002300260029002C002F00324C
:10049000000001000003010601090105050505072B
:1004A0000508080808020202020A0A0808040404EF
:1004B000040101010101010101030303030303031B
:1004C00003040707070C0C0C0C0C0C0C0C020202AA
:1004D0000206060606060606060B0B0B0B0B0B0B9D
:1004E0000B0102102020080810204010204080023C
:1004F000010201080402010102040810204080806A
:1005000040201008040201800402018040201008ED
:1005100004020108040201010204081020408001C5
:10052000020408102040800000090A02080B0C0D8C
:1005300007060304010000000000000000000000A6
:1005400000000000000000000000000000000000AB
:1005500000000011100F000000000000000000006B
:100560000000000000000000000000000000250462
:100570002313A0140215E017B1194F1B21213131AB
:100580005F4AA14B11241FBECFEFD1E2DEBFCDBF2A
:1005900000E00CBF14E0A0E0B2E0EEE5FEE900E010
:1005A0000BBF02C007900D92A23EB107D9F71BBE48
:1005B0001EE0A2EEB4E001C01D92A038B107E1F741
:1005C00015E0C4E8D5E004C02297FE010E94FD4E6C
:1005D000CE36D107C9F70E945E4C0C942D4F10CD3A
:1005E0000F931F93CF93DF93689F8001699F100D36
:1005F000789F100D1124C8010E94183BEC01009750
:1006000021F060E070E0A8014BD0CE01DF91CF91E6
:100610001F910F9108951F93FC0199278827BC0112
:10062000E89411911032E9F3193010F01E30C8F33C
:100630001B3249F01D3241F4689405C095D0610F1A
:10064000711D811D911D119110531A30B8F33EF4A4
:1006500090958095709561957F4F8F4F9F4F1F911B
:100660000895FC0105900020E9F7809590958E0F84
:100670009F1F0895FB01DC0104C08D91019080193A
:1006800021F441505040C8F7881B990B0895FB0195
:10069000DC0102C001900D9241505040D8F70895FE
:1006A000DC0101C06D9341505040E0F70895FC011A
:1006B0008191861721F08823D9F7992708953197DA
:1006C000CF010895FB01DC018D910190801901108B
:1006D000D9F3990B0895FB01DC0101900D920020E4
:1006E000E1F70895FB01DC014150504030F08D915D
:1006F0000190801919F40020B9F7881B990B08950F
:10070000FB01DC014150504048F001900D92002067
:10071000C9F701C01D9241505040E0F70895FC0117
:1007200081E090E00190061609F4CF010020D1F796
:1007300001970895FB0151915523A9F0BF01DC01F8
:100740004D9145174111E1F759F4CD010190002079
:1007500049F04D9140154111C9F3FB014111EFCF13
:1007600081E090E001970895592F482F372F262FC9
:10077000660F771F881F991F660F771F881F991FA5
:10078000620F731F841F951F660F771F881F991FA5
:1007900008958CB190E0A0E0B0E024E0B695A79574
:1007A000979587952A95D1F7817008950F931F9398
:1007B000DF93CF9300D00F92CDB7DEB7282F809173
:1007C0001B058230B9F580918205482F50E0FA016F
:1007D000E65EFA4F8081833069F50091050510913E
:1007E000060590E061E030E02250304015C0E55E43
:1007F000FA4FE081F0E0892F90E0E827F927E00F39
:10080000F11FE4918E2F90E0A0E0B0E089839A83FD
:10081000AB83BC839E2F6F5FE62FF0E0E217F307F8
:1008200034F320E0475E5A4FFA018081891719F4AA
:1008300021E001C020E0822F0F900F900F900F90C9
:10084000CF91DF911F910F9108950F9388E296E069
:1008500060E040E020E000E00E94954B89EE94E0EB
:100860006DE30E94843A85E094E0909304058093C0
:10087000030584EE90E0909306058093050580E0E3
:1008800091E0909308058093070587E095E09093A9
:100890002F0680932E0689EC93E090933106809387
:1008A00030061092340610923506109236061092D9
:1008B0003706109238061092390610923A061092B6
:1008C0003B0610923C0610923D0610924206109292
:1008D0004306109244061092450610924606109266
:1008E0004706109248061092490610924E06109242
:1008F0004F06109250061092510610925206109216
:100900005306109254061092550688E995E060EA65
:1009100073E048EE53E020E530E00E943A37109251
:10092000BC051092BD051092C0051092C20582E070
:1009300090E0A0E0B0E08093C3059093C405A0933D
:10094000C505B093C6051092DA051092E405109221
:10095000E30580E694E09093E2058093E105109230
:10096000E60510920106109200069093FF05809311
:10097000FE05109203060F910895CF92DF92EF9239
:10098000FF920F931F93DF93CF9300D00F92CDB7B9
:10099000DEB77C016B0100E010E024C0D7011296A5
:1009A000ED91FC911397E00FF11FE4918E2F90E0F1
:1009B000A0E0B0E06E2F89839A83AB83BC83C6012D
:1009C0004AE050E00E942A45F70184819581019711
:1009D0000817190728F4C60160E072E00E94C445B8
:1009E0000F5F1F4FD70114968D919C911597081793
:1009F0001907A0F20F900F900F900F90CF91DF91F9
:100A00001F910F91FF90EF90DF90CF900895882372
:100A100021F4809108018F7D03C0809108018062DC
:100A200080930801089580919F03882371F01092AC
:100A30008405109283058FE360E00E94A24085E464
:100A400060E00E94A24084E442C0409109055091B8
:100A50000A0530E080910B052AE0829FC001112435
:100A6000C2974817590708F031E030930D0522E08E
:100A70004F3E520718F081E08093830582E04732B1
:100A8000580778F080911205909113058652924094
:100A900010F4332319F44F5E524018F084E461E0FF
:100AA00002C084E460E00E94A24080918305882314
:100AB00069F080910D05882349F08EE190E09093D4
:100AC000F0038093EF0385E461E002C085E460E019
:100AD0000C94A2400F931F93DF93CF93CDB7DEB753
:100AE000A9970FB6F894DEBF0FBECDBF8091ED037E
:100AF0009091EE03009799F40E944B416093240675
:100B000070932506809326069093270610928905F8
:100B10001092880510928A0581E090E006C181302C
:100B20009105D9F40E944B4120912406309125066D
:100B30004091260650912706621B730B840B950B80
:100B4000653671058105910508F4BBC110928905D0
:100B50001092880582E090E0E8C08230910509F0AB
:100B60005FC010928105DE015596E2E0F2E085E17A
:100B700001900D928150E1F730917F054091800501
:100B800090E051E0BE016B5E7F4FDE01119621C007
:100B9000FB01E90FF11D40819F5FFB01E90FF11D92
:100BA00091503081413418F0842F875302C0842F34
:100BB0008053313418F0232F275302C0232F2053A2
:100BC000FD01E50FF11D8295807F822B80839E5F62
:100BD0005F5F9431E8F230937F05409380059093F6
:100BE00081058AE0898381E080939E038E010F5FF7
:100BF0001F4F0BC0F801E80FF11D60818F5F8093DC
:100C00009E0382E19EE00E941F4A80919E038B30EA
:100C100088F3109289051092880583E090E085C0E2
:100C200083309105B1F582E19EE00E94B549892BA0
:100C300059F010929E03109282051092890510922D
:100C4000880584E090E071C08091880590918905C5
:100C5000019690938905809388058159914008F405
:100C600030C1109289051092880520918A052F5F66
:100C700020938A0582E090E09093EE038093ED0349
:100C8000263008F41EC181E08093FE0480939F0308
:100C900018C18430910509F04DC082E19EE00E94A8
:100CA000B549181619067CF410919E0382E19EE066
:100CB0000E94E649E12FF0E0E55EFA4F80831F5F76
:100CC00010939E0323C08091880590918905019619
:100CD000909389058093880581599140B8F01092CE
:100CE00089051092880582E090E09093EE0380934E
:100CF000ED0380918A058F5F80938A05863030F0FE
:100D000082E08093FE0481E080939F0380919E03A4
:100D1000863508F4D6C08093820510929E03109207
:100D200089051092880587E090E09093EE03809308
:100D3000ED03C7C0079709F0C4C0809182058635CE
:100D400009F0B2C033DD882309F4AEC010929F03CE
:100D500090912C0580E020912B0530E0822B932B85
:100D6000909319058093180590912E0580E02091AD
:100D70002D0530E0822B932B909313058093120561
:100D80009091300580E020912F0530E0822B932B4D
:100D900090931705809316059091320580E020917D
:100DA000310530E0822B932B9093100580930F0533
:100DB0009091380580E02091370530E0822B932B0D
:100DC00090930A058093090590913A0580E020915F
:100DD000390530E0822B932B9093150580931405F1
:100DE00080913C0580930C058091400580930B0514
:100DF00080914105809311058091420580931A05E9
:100E0000809185058093860580913B0590E09695BD
:100E1000879581708093850560E0811161E080E4B1
:100E20000E94A2401092870580916E05813011F4D6
:100E30008093870580913B0590E0969587959695E0
:100E4000879581708093840560E0811161E08FE374
:100E50000E94A24080913B0590E033E096958795F3
:100E60003A95E1F781708093830510920E05809189
:100E70003D058130A1F480930E0511C010928905C3
:100E80001092880580918A058F5F80938A0586304D
:100E900030F084E08093FE0481E080939F03109201
:100EA000EE031092ED030DC08091880590918905A5
:100EB0000196909389058093880581599140F0F6B9
:100EC000EECFA9960FB6F894DEBF0FBECDBFCF917F
:100ED000DF911F910F9108953F924F925F926F9211
:100EE0007F928F929F92AF92BF92CF92DF92EF92BA
:100EF000FF920F931F93CF93DF93909195038AE016
:100F0000989FB0011124C7E0D4E0F5E94F2EF3E03B
:100F10005F2EEAE03E2EE0911605F09117058881DC
:100F2000932D890280011124E017F107ACF189812A
:100F30008902D0011124AE17BF0774F100D00F92BF
:100F4000BF01882777FD8095982F9801442737FDAA
:100F50004095542F7D010027F7FC0095102FF201DA
:100F6000A080A39C50011124CC24B7FCC094DC2C9D
:100F70006180639C30011124882477FC8094982C34
:100F8000EDB7FEB761827282838294820E94174C11
:100F90000F900F900F900F9021960894411C511CB8
:100FA000F4E0CB30DF0709F0B6CF809116059091C1
:100FB00017058536910534F0909199038AE0989F42
:100FC000B0011124CB01DF91CF911F910F91FF90C0
:100FD000EF90DF90CF90BF90AF909F908F907F90D9
:100FE0006F905F904F903F900895CF93DF938091E3
:100FF0009303909194038230910509F071C0809120
:1010000087058823B9F082E461E00E94A2408091C4
:101010008C0390918D03909302058093010581E0EC
:1010200090E09093940380939303109200051092A4
:10103000FF0478C080918405882309F473C020914F
:10104000090530910A0580919103909192038217CE
:10105000930708F067C08091010590910205892BE4
:1010600009F060C039DF909392038093910320913F
:101070001805309119058217930709F453C0EC0144
:10108000C21BD30B8217930710F482E405C0281704
:10109000390708F047C081E461E00E94A2408091D6
:1010A0008E03282F30E0309302052093010581E064
:1010B00090E09093940380939303CA30D10590F508
:1010C000C901969587959093020580930105259710
:1010D00048F596958795909302058093010522C067
:1010E000019701F58091010590910205892BD1F4BA
:1010F00082E460E00E94A24081E460E00E94A2409D
:1011000080918705882371F480918F0390919003DB
:10111000909302058093010582E090E09093940300
:1011200080939303DF91CF9108952F923F924F9236
:101130005F926F927F928F929F92BF92CF92DF9237
:10114000EF92FF920F931F93DF93CF93CDB7DEB74C
:10115000C95AD0400FB6F894DEBF0FBECDBF8E0186
:101160000E5F1F4FC80167E172E00E946743C8012C
:1011700064E170E00E94DD428EEF95E061EE75E083
:1011800048E152E021E00E94692F882309F0F6C16E
:101190001DC269816A3039F06D3029F08B2D9E2D8A
:1011A0000E94244302C280EF9DE063E272E00E944D
:1011B000C44580EF9DE06B2D7E2D0E94BC4680EFE4
:1011C0009DE06EE272E00E94AB46CE01099660E3BC
:1011D00072E00E9467438B2D9E2DBE01675F7F4F9B
:1011E0000E9484426C01CE0109960E94E7438E81E1
:1011F0009F81892B09F4BBC18FEFC8168FEFD806EA
:1012000009F4B5C1CE01409662E372E00E946743E3
:101210008B2D9E2DBE01605F7F4F0E94B342182F21
:10122000CE0140960E94E743112391F08E01095EA2
:101230001F4F0894C11CD11CC8016B2D7E2DA60127
:101240000E94DC43C8010E94254260939A0324C097
:101250008E01025E1F4FC80166E372E00E94674381
:101260008B2D9E2DB8010E94B342F82EC8010E941A
:10127000E743FF2099F08E010B5D1F4F0894C11CBE
:10128000D11CC8016B2D7E2DA6010E94DC43C80134
:101290000E94254260939B03C80167C18E01045DD3
:1012A0001F4FC8016AE372E00E9467438B2D9E2D99
:1012B000B8010E94B342F82EC8010E94E743FF2004
:1012C00091F08E010D5C1F4F0894C11CD11CC80108
:1012D0006B2D7E2DA6010E94DC43C8010E94254291
:1012E00060939C03D9CF8E01065C1F4FC8016EE34B
:1012F00072E00E9467438B2D9E2DB8010E94B3427D
:10130000F82EC8010E94E743FF2081F00894C11C19
:10131000D11CC4016B2D7E2DA6010E94DC43C401AB
:101320000E94254260939D03C4011FC1CE01885BCA
:101330009F4F62E472E00E9467438B2D9E2DBE0199
:10134000685B7F4F0E94B342182FCE01885B9F4F8E
:101350000E94E743112381F00894C11CD11CC301F2
:101360006B2D7E2DA6010E94DC43C3010E94254205
:101370006093F103C301F9C0CE018A5A9F4F67E41D
:1013800072E00E9467438B2D9E2DBE016A5A7F4FEB
:101390000E94B342182FCE018A5A9F4F0E94E74302
:1013A000112381F00894C11CD11CC2016B2D7E2D2C
:1013B000A6010E94DC43C2010E9425426093F20311
:1013C000C201D3C0CE018C599F4F6CE472E00E94E1
:1013D00067438B2D9E2DBE016C597F4F0E94B342F7
:1013E000182FCE018C599F4F0E94E7431123B1F073
:1013F0000894C11CD11CCE0185599F4F6B2D7E2DA9
:10140000A6010E94DC43CE0185599F4F0E942542D0
:101410006093F303CE0185599F4FA7C0CE018E582C
:101420009F4F61E572E00E9467438B2D9E2DBE01A8
:101430006E587F4F0E94B342182FCE018E589F4F97
:101440000E94E743112381F00894C11CD11CC10103
:101450006B2D7E2DA6010E94DC43C1010E94254216
:101460006093F403C10181C0CE0180589F4F66E5AF
:1014700072E00E9467438B2D9E2DBE0160587F4F06
:101480000E94B342182FCE0180589F4F0E94E7431D
:101490001123B1F00894C11CD11CCE0189579F4F74
:1014A0006B2D7E2DA6010E94DC43CE0189579F4FF4
:1014B0000E9425426093F503CE0189579F4F55C086
:1014C000CE0182579F4F6BE572E00E9467438B2DE0
:1014D0009E2DBE0162577F4F0E94B342182FCE014E
:1014E00082579F4F0E94E7431123B1F00894C11C1B
:1014F000D11CCE018B569F4F6B2D7E2DA6010E94D5
:10150000DC43CE018B569F4F0E9425426093F60329
:10151000CE018B569F4F29C0CE0184569F4F6CE45D
:1015200072E00E9467438B2D9E2DBE0164567F4F53
:101530000E94B342182FCE0184569F4F0E94E7436A
:101540001123A9F00894C11CD11CCE018D559F4FC9
:101550006B2D7E2DA6010E94DC43CE018D559F4F41
:101560000E942542CE018D559F4F0E94E7438B2D4F
:101570009E2D67E172E00E94804317C0C801B02E23
:10158000E92E99E7292E312C2C0E3D1E8DE5482E93
:10159000512C4C0E5D1E0FE4602E712C6C0E7D1EC6
:1015A00011E4812E912C8C0E9D1E8EEF95E0BE01D4
:1015B0006F5F7F4F41E050E00E94052B892B09F0BF
:1015C000E8CD8EEF95E00E94362A06C080EF9DE0C0
:1015D00064E972E00E941644CE0102960E94E7433D
:1015E000C755DF4F0FB6F894DEBF0FBECDBFCF910A
:1015F000DF911F910F91FF90EF90DF90CF90BF9000
:101600009F908F907F906F905F904F903F902F9022
:101610000895EF92FF920F931F938C0122E1E22E27
:10162000F12CE80EF91EC70168EC70E00E946F32E1
:10163000C80160E672E00E949937C8016FEA72E063
:101640000E941644C7010E944144C7016AE672E045
:101650000E94C4450E944B4128EE33E040E050E038
:101660000E94BE4EC701BA01A9012AE030E00E94E3
:10167000E044C70163E772E00E94AB4681E01F913E
:101680000F91FF90EF9008950F931F93CF93DF93E7
:101690008C01EC016296CE0168EC70E00E946F3222
:1016A000C80160E672E00E949937C8016FEE72E0EF
:1016B0000E941644CE010E944144CE0165E772E0CB
:1016C0000E94C44585E40E94D440892B19F46FE739
:1016D00072E002C065E872E0CE010E94C445CE010E
:1016E00060E072E00E94C445CE016AE872E00E94A8
:1016F000C44584E40E94D440892B19F46FE772E05A
:1017000002C065E872E0CE010E94C445CE0163E7E5
:1017100072E00E94C44581E0DF91CF911F910F914B
:101720000895AF92BF92CF92DF92EF92FF920F9304
:101730001F937C018C010E5E1F4FC80168EC70E0A6
:101740000E946F32C70160E672E00E949937C701BC
:101750006FEC72E00E941644C8010E944144C80127
:1017600063E972E00E94C44555E9E52E52E0F52E8A
:10177000C801B7010E94C4458091090590910A05EE
:101780006AE070E00E94AA4EC8014AE050E00E9460
:10179000FF444FE9A42E42E0B42EC801B5010E94D7
:1017A000C4458091090590910A056AE070E00E94A5
:1017B000AA4EBC01C8014AE050E00E94FF4431EA51
:1017C000C32E32E0D32EC801B6010E94C445C80121
:1017D000B7010E94C44580910F05909110056AE001
:1017E00070E00E94AA4EC8014AE050E00E94FF4407
:1017F000C801B5010E94C44580910F059091100564
:101800006AE070E00E94AA4EBC01C8014AE050E0C4
:101810000E94FF44C801B6010E94C445C801B70137
:101820000E94C44580911205909113056AE070E012
:101830000E94AA4EC8014AE050E00E94FF44C8013D
:10184000B5010E94C44580911205909113056AE08C
:1018500070E00E94AA4EBC01C8014AE050E00E941C
:10186000FF44C801B6010E94C445C801B7010E94E7
:10187000C44580911405909115056AE070E00E94BE
:10188000AA4EC8014AE050E00E94FF44C801B501D9
:101890000E94C44580911405909115056AE070E09E
:1018A0000E94AA4EBC01C8014AE050E00E94FF44D9
:1018B000C801B6010E94C445C801B7010E94C445D1
:1018C000C80160911A054AE050E00E942A45C8010B
:1018D000B6010E94C445C801B7010E94C445609189
:1018E000920570919305C8014AE050E00E94954529
:1018F000C801B6010E94C445C801B7010E94C44591
:1019000080911805909119056AE070E00E94AA4E36
:10191000C8014AE050E00E94FF44C801B5010E949E
:10192000C44580911805909119056AE070E00E9405
:10193000AA4EBC01C8014AE050E00E94FF44C80121
:1019400064EA72E00E94C44581E01F910F91FF900C
:10195000EF90DF90CF90BF90AF9008950F931F93BB
:10196000CF93DF938C01EC016296CE0168EC70E0BE
:101970000E946F32C80167EA72E00E949937CE0177
:101980000E944144CE0162EB72E00E94C44585E4AE
:101990000E94D440BC01CE014AE050E00E94A7451D
:1019A000CE0168EB72E00E94C44584E40E94D440FA
:1019B000BC01CE014AE050E00E94A745CE016EEB8B
:1019C00072E00E94C445CE0160911A054AE050E0E1
:1019D0000E943B4580919F03882329F0CE016AEC49
:1019E00072E00E94AB466091880570918905CE0136
:1019F0004AE050E00E940F45CE0160918B054AE01D
:101A000050E00E943B4581E0DF91CF911F910F9103
:101A100008950F931F93CF93DF938C01EC0162968F
:101A2000CE0168EC70E00E946F32C80167EA72E094
:101A30000E949937CE010E944144CE0167ED72E0C9
:101A40000E94C4456091090570910A05CE014AE0E3
:101A500050E00E940F45CE0162EB72E00E94C44547
:101A600060910F0570911005CE014AE050E00E9490
:101A70000F45CE0168EB72E00E94C44560911205EB
:101A800070911305CE014AE050E00E940F4580910D
:101A90009F03882329F0CE016AEC72E00E94AB46D6
:101AA00081E0DF91CF911F910F910895EF92FF9206
:101AB0000F931F937C018C010E5E1F4FC80168ECD1
:101AC00070E00E946F32C70167EA72E00E949937A6
:101AD000C8010E9441444091EE045091EF0460918E
:101AE000F0047091F104C80122E030E00E949A46AF
:101AF00089EE94E00E94C839682FC8014AE050E09E
:101B00000E943B456091140570911505C8014AE09B
:101B100050E00E940F454091F2045091F30460910F
:101B2000F4047091F504C8012AE030E00E94ED440D
:101B30006091160570911705C8014AE050E00E94B7
:101B4000A7456091910370919203C8014AE050E06B
:101B50000E940F45C8016091FE044AE050E00E94D7
:101B60003B45C80160910E054AE050E00E943B45AC
:101B70006091960570919705C8014AE050E00E9477
:101B8000A7456091920570919305C8014AE050E025
:101B90000E94A74581E01F910F91FF90EF9008955B
:101BA0000F931F93CF93DF938C01E901613071058F
:101BB00009F444C06230710509F465C0672B09F06F
:101BC000B4C00E944B4160935A0670935B068093A9
:101BD0005C0690935D06109256061092570610927E
:101BE00058061092590680910306882309F09DC07B
:101BF000C8010E946B300E946934EC01009709F41F
:101C000094C080EF9DE06DE373E00E94164480EF86
:101C10009DE0BE010E94C44580EF9DE06BED72E047
:101C20000E94C4458EEF95E061EE75E0AE0122E5BD
:101C30000E94692FCE010E949F3B77C080910306CE
:101C4000882309F472C08EEF95E0BA01A9010E94C1
:101C5000432D9E01442737FD4095542F8091560611
:101C600090915706A0915806B0915906820F931F84
:101C7000A41FB51F8093560690935706A09358064D
:101C8000B093590652C08EEF95E00E94EE2980EF86
:101C90009DE066E373E00E94164440911106509166
:101CA0001206609113067091140680EF9DE02AE001
:101CB00030E00E94E04480EF9DE06BE273E00E9420
:101CC00016440E944B41AB01BC0180915A06909191
:101CD0005B06A0915C06B0915D06481B590B6A0B30
:101CE0007B0B80EF9DE02AE030E00E94E04480EF33
:101CF0009DE068E173E00E941644409156065091C1
:101D00005706609158067091590680EF9DE02AE0D1
:101D100030E00E94E04480EF9DE06FE073E00E94BD
:101D200016448EEF95E00E94362ADF91CF911F91E5
:101D30000F910895CF92DF92EF92FF920F931F932E
:101D4000CF93DF93EC016B0162E1E62EF12CE80EFC
:101D5000F91EC114D10459F4C70164E971E00E946D
:101D60006F32CE0168E673E00E9416443DC0C601A2
:101D70000E9498318C01C70168EC70E00E946F32BC
:101D8000CE01B8010E94AF37C7010E9441448EEFD7
:101D900095E061EE75E0A60121E00E94692F88239D
:101DA000A9F080EF9DE06DE573E00E94164480EF9E
:101DB0009DE0B6010E94AB46CE016EEF75E00E9439
:101DC00066318EEF95E00E94362A0EC0CE0167E4A0
:101DD00073E00E941644CE01B6010E94C445CE01B4
:101DE0006BED72E00E94C445DF91CF911F910F917E
:101DF000FF90EF90DF90CF9008956DED72E09ADF45
:101E000081E00895EF92FF920F931F937C010E944F
:101E10006B300E9469348C01C701B8018BDFC801A7
:101E20000E949F3B81E01F910F91FF90EF900895DA
:101E3000AF92BF92CF92DF92EF92FF920F931F93D8
:101E400070910B05E0910905F0910A05409192050A
:101E500050919305509395054093940560911A0510
:101E6000262F30E0309393052093920580910E0544
:101E7000882309F4BFC0A091E504B091E60410974F
:101E8000A9F4662399F04115510509F005C188ECC4
:101E900090E09093E8048093E70481E090E002C032
:101EA00082E090E0909397058093960540E08AE069
:101EB000789FC0011124E817F90708F441E0209148
:101EC000E7043091E8041216130654F4662341F037
:101ED000442331F084E690E090939305809392053B
:101EE0008091960590919705019749F42115310548
:101EF00031F482E090E0909397058093960580916D
:101F00008605882391F480918505813071F4232B17
:101F100061F484E690E0909391058093900583E0CE
:101F200090E0909397058093960580919605909107
:101F30009705039761F48091900590919105892B05
:101F400031F482E090E0909397058093960580911C
:101F5000900590919105892B49F08091920590917F
:101F60009305049690939305809392051A161B0689
:101F700074F4662361F488E097E090938D05809374
:101F80008C0584E090E0909397058093960580916E
:101F90008C0590918D05892B49F06623A9F482E385
:101FA00090E090939305809392050EC080919605E2
:101FB00090919705049741F4662331F485E090E011
:101FC000909397058093960580919605909197053B
:101FD0000597E9F46623D9F4442339F48EE190E0BF
:101FE000909393058093920512C0109293051092DE
:101FF000920509C0232B39F082E090E09093970579
:102000008093960504C01092970510929605209132
:102010009205309193052531310514F0245130405B
:1020200000D00F92B901882777FD8095982FEDB7E2
:10203000FEB7118212821382148220E030E040E069
:1020400050E0F4E6EF2EF12C012D112DEFEFAE2E26
:10205000B12CC12CD12C0E94174C9B01AC010F90CC
:102060000F900F900F908CE0B9010E940D3D8EE211
:1020700096E060911A050E94D13880911A058093EC
:10208000E5041092E6041F910F91FF90EF90DF900E
:10209000CF90BF90AF900895141615060CF400CFA2
:1020A00005CF0E944B4120911B0630911C064091A8
:1020B0001D0650911E06621B730B840B950B653633
:1020C00071058105910508F48EC00E944B41609313
:1020D000FA047093FB048093FC049093FD0489EE52
:1020E00094E00E94583A6093EE047093EF0480935A
:1020F000F0049093F1040E94424D2AE030E040E069
:1021000050E00E948B4EDC01CB018093F60490934B
:10211000F704A093F804B093F9046091E20470917D
:10212000E3040E94A03AAA2797FDA095BA2F8093B6
:10213000F2049093F304A093F404B093F5040E9486
:102140004B412091FA043091FB044091FC045091E2
:10215000FD04621B730B840B950B6093FA04709360
:10216000FB048093FC049093FD040E944B41609318
:102170001B0670931C0680931D0690931E0680918B
:10218000010590910205009729F0019790930205AF
:10219000809301058091E7049091E80418161906D0
:1021A0002CF401979093E8048093E7048091E40471
:1021B000882319F081508093E40480918E059091DA
:1021C0008F05009729F0019790938F0580938E05D6
:1021D0008091900590919105009729F00197909337
:1021E0009105809390050E944B4120911F063091EC
:1021F00020064091210650912206621B730B840B2E
:10220000950B633371058105910550F00E944B4198
:1022100060931F06709320068093210690932206F8
:102220000E946A0505DE0E94130580919F038823A2
:1022300011F40E94F5078091E404882399F48DE05D
:102240000E94D44060E0892B09F461E08DE00E9497
:10225000A24080919F03882311F481E001C08AE0AD
:102260008093E4048091EC03882341F0809123065D
:10227000882321F488E995E00C940A3608958CE0CF
:1022800061E00E94EF3F8CE06FEF70E00E940D3D37
:1022900083E461E00E94EF3F83E460E00E94A2409B
:1022A0008EE296E060E070E00E94913888EE93E064
:1022B000A0E0B0E08093520690935306A09354069A
:1022C000B093550608950F931F93DF93CF93CDB727
:1022D000DEB72C970FB6F894DEBF0FBECDBF80EFF0
:1022E0009DE040E855E260E070E00E942F4982E105
:1022F0009EE040E052EC61E070E00E942F4982E1F4
:1023000061E00E94A24083E161E00E94A2408DE072
:1023100061E00E94A2408DE061E00E94EF3F8FE308
:1023200060E00E94A2408FE361E00E94EF3F85E4FD
:1023300060E00E94A24085E461E00E94EF3F84E4F7
:1023400060E00E94A24084E461E00E94EF3F82E4EA
:1023500060E00E94A24082E461E00E94EF3F81E4DD
:1023600060E00E94A24081E461E00E94EF3F80E4CF
:1023700060E00E94A24080E461E00E94EF3F7FDFC6
:1023800085E361E00E94EF3F85E361E00E94A240A7
:102390008AE061E00E94EF3F8AE061E00E94A24093
:1023A00084E061E00E94EF3F84E061E00E94A2408F
:1023B00087EB95E060E044E00E946B23882341F4C2
:1023C00080EF9DE064E872E00E9416441092EC03F6
:1023D00083EC95E067EB75E041E00E94C924882317
:1023E00089F483EC95E067EB75E040E00E94C92436
:1023F000882341F480EF9DE064E772E00E94164478
:102400001092EC0381EE95E063EC75E00E94612C84
:10241000882341F480EF9DE06CE572E00E94164451
:102420001092EC038091EC03882341F080ED9DE055
:102430009093FF088093FE080E94950880EF9DE02E
:1024400061E472E00E9416448E010F5F1F4FC801C5
:102450006AE973E00E94FC4B8EE796E061EF73E05F
:10246000A8010E94CD1A8E01095F1F4F89E090E0FC
:10247000B80146E050E00E941420C80161EF73E00B
:1024800046E050E00E943A0380932306882309F037
:102490004DC080EF9DE062E372E00E94164480EF41
:1024A0009DE060919A034AE050E00E942A4580EF47
:1024B0009DE060E372E00E94164480EF9DE0609131
:1024C0009B034AE050E00E942A4580EF9DE06EE2C7
:1024D00072E00E94164480EF9DE060919C034AE008
:1024E00050E00E942A4580EF9DE06CE272E00E947D
:1024F000164480EF9DE060919D034AE050E00E9409
:102500002A4580EF9DE06AE272E00E94164480EF67
:102510009DE060E172E00E94164488E995E00E9427
:102520005B3380EF9DE06DEF71E004C080EF9DE0D4
:1025300064EE71E00E94164489EE94E00E94583ADD
:102540006093EE047093EF048093F0049093F10491
:102550000E944B4160931B0670931C0680931D06DE
:1025600090931E0660931F067093200680932106A9
:102570009093220682E00E94E33A9093E3048093D2
:10258000E2042C960FB6F894DEBF0FBECDBFCF91FC
:10259000DF911F910F910895882319F48CB5806203
:1025A00002C08CB58F7D8CBD08959CB5937F982B10
:1025B0009CBD08952CB5382F33702C7F322B3CBD39
:1025C0002DB590E0959587959595879581702E7F8F
:1025D000822B8DBD089585E361E00E94A24085E3D2
:1025E00061E00E94EF3F8CB580618CBD8CB580644A
:1025F0008CBD84E361E00E94EF3F83E361E00C94D3
:10260000EF3FFC011382128280E194E0918380838A
:10261000758364830895DF93CF930F92CDB7DEB7B0
:10262000FC016983A081B18112962D913C91139791
:10263000BE016F5F7F4F41E050E0F90119950F90A7
:10264000CF91DF9108950F938EE596E060E040E032
:1026500020E000E00E94954B0F9108958F929F9289
:10266000BF92CF92DF92EF92FF920F931F93DF936F
:10267000CF93CDB7DEB72D970FB6F894DEBF0FBE60
:10268000CDBF7C0106E716E088249924BB246E01A7
:102690000894C11CD11CC6016B2D4AD4D8012D91C0
:1026A0003C91F701848195812817390791F4C6017F
:1026B00092D4843121F481E0882E912C0AC0C60185
:1026C0008AD48C3131F4C60134D5892B11F4C6017A
:1026D000B0D4B3940E5F1F4FF4E0BF16E1F6892823
:1026E00041F4D701ED91FC910480F581E02DC70103
:1026F00019952D960FB6F894DEBF0FBECDBFCF91C2
:10270000DF911F910F91FF90EF90DF90CF90BF90DE
:102710009F908F9008954F925F926F927F928F92C9
:102720009F92AF92BF92DF92EF92FF920F931F930F
:10273000DF93CF93CDB7DEB72D970FB6F894DEBFFA
:102740000FBECDBF4C012B013A0188DF96E7E92E81
:1027500096E0F92E00E010E0DD245E010894A11C53
:10276000B11CC5016D2DE4D3F70120813181F40145
:10277000848195812817390751F4C5012CD48731FC
:1027800031F4C501B201A301E1D4080F191FD3949C
:1027900082E090E0E80EF91E94E0D91611F7C80126
:1027A0002D960FB6F894DEBF0FBECDBFCF91DF914F
:1027B0001F910F91FF90EF90DF90BF90AF909F908F
:1027C0008F907F906F905F904F9008959F92AF92FF
:1027D000BF92CF92DF92EF92FF920F931F93DF93FE
:1027E000CF93CDB7DEB72D970FB6F894DEBF0FBEEF
:1027F000CDBFC82E992E5B01CB0130DF06E716E076
:10280000DD247E010894E11CF11CC7016D2D90D3DD
:10281000F80120813181F5018481958128173907DC
:1028200049F5C701D8D3873121F0C701D4D38C3102
:1028300009F5C7017ED4892BE9F0EC2DF92D8B81A8
:102840009C81938382838D819E81AF81B8858483AF
:102850009583A683B78389859A85AB85BC85808758
:102860009187A287B3878AE194E0918380838D85E5
:1028700084870AC0D3940E5F1F4FF4E0DF1629F659
:102880008C2D992D64E054D38C2D992D2D960FB657
:10289000F894DEBF0FBECDBFCF91DF911F910F9196
:1028A000FF90EF90DF90CF90BF90AF909F900895F2
:1028B000CF92DF92EF92FF920F931F93DF93CF930C
:1028C000CDB7DEB72D970FB6F894DEBF0FBECDBFE4
:1028D0006C0100E010E07E010894E11CF11CC701CE
:1028E000602F26D3C70177D38823B1F4F601448142
:1028F0005581802F61E020E00E94821D802F0E9480
:10290000101D000F111F0A58194FF601848195817F
:10291000F8019183808305C00F5F1F4F04301105BC
:10292000F1F62D960FB6F894DEBF0FBECDBFCF9156
:10293000DF911F910F91FF90EF90DF90CF9008955E
:102940000F9384E696E060E040E020E000E00E9423
:10295000954B0F9108959C01FB0182819381A48185
:10296000B581F90182839383A483B583178216828C
:102970000895CF93DF93FB0101C0319680818823B6
:10298000E1F7EB01A0E0B0E020E030E021C06E32E2
:1029900061F42F3F310509F07CF5FA01EA0FFB1FC6
:1029A0002283119620E030E012C0C901E3E0880FD5
:1029B000991FEA95E1F7220F331F820F931F262FED
:1029C000332727FD309520533040280F391F21969B
:1029D0006881662319F0A430B105CCF22F3F310590
:1029E00009F054F4A430B1053CF4A40FB51F1296BD
:1029F0002C9321E030E002C020E030E0C901DF91FB
:102A0000CF9108950F938AE696E060E040E020E0E1
:102A100000E00E94954B0F9108952F923F924F92A4
:102A20005F926F927F928F929F92AF92BF92CF925E
:102A3000DF92EF92FF920F931F93DF93CF93CDB767
:102A4000DEB769970FB6F894DEBF0FBECDBF4C015D
:102A50008B011A010E944B412B013C01F8E0EF2E43
:102A6000F12CE80CF91C5801CC24DD2414C00E9480
:102A70004B416419750986099709A616B706C80659
:102A8000D90618F42FEF3FEFF8C062E370E080E062
:102A900090E00E945941C70173D6181619063CF7F9
:102AA000F4012281338144815581818D928DA38DE2
:102AB000B48D8A879B87AC87BD87281739074A075B
:102AC0005B0709F0D8C0858D968DC59709F0D3C0F6
:102AD000EEC08E01025F1F4FC701B8014CE050E00D
:102AE00003D6F801528143815B834A83F401268136
:102AF00037818E859F852817390711F457FD05C04A
:102B0000C701BBD52CEF3FEFB8C04F705270452BBB
:102B100029F0C701B2D52BEF3FEFAFC0F8017680A7
:102B200067806114710441F0AA24BB2448012E017E
:102B30000894411C511C24C0C7019FD52AEF3FEFC8
:102B40009CC0C701B20141E050E0CED58981882305
:102B500019F407C0C701EAD58981815089838F5F45
:102B6000C9F78981882369F700E010E0C701DED545
:102B70000F5F1F4F04301105C9F70894A11CB11C49
:102B8000F401D480C580AC14BD04D8F2442455248B
:102B9000C701BE016F5F7F4F41E050E0A5D599812D
:102BA000892F807C59F4992319F40BC0C701BED535
:102BB0008981815089838F5FC9F703C0C701B6D56A
:102BC00019828981882321F7C701BE016C5F7F4F7D
:102BD00042E050E089D5C701BE016A5F7F4F42E005
:102BE00050E082D500E010E0C701A0D50F5F1F4F75
:102BF00004301105C9F7C701BE016E5F7F4F42E087
:102C000050E072D5DC80CD80F1E0CF16D10401F523
:102C1000BE80AF8081E0A816B104D1F49A818B8187
:102C2000049729F0C70129D527EF3FEF26C0E2E03E
:102C3000F0E02E0E3F1EC701B10144E050E054D534
:102C400021E030E01AC0C70171D50F5F1F4F02C0ED
:102C500000E010E09A808B8008151905A0F3089415
:102C6000411C511C4614570408F492CFC70105D5E6
:102C700026EF3FEF02C02EEF3FEFC90169960FB676
:102C8000F894DEBF0FBECDBFCF91DF911F910F91A2
:102C9000FF90EF90DF90CF90BF90AF909F908F907C
:102CA0007F906F905F904F903F902F90089580EEAF
:102CB00094E099878887C701C4D40C970CF009CF9A
:102CC0002DEF3FEFDACF6F927F928F929F92AF926C
:102CD000BF92CF92DF92EF92FF920F931F93DF93F9
:102CE000CF9300D0CDB7DEB78C01F62EE72E0E9431
:102CF0004B41F80177836683B8E0CB2ED12CC00E10
:102D0000D11E0A5F1F4FC601B80142E050E08AD5CC
:102D100081E090E09B838A83A2E08A2E912C8C0E26
:102D20009D1EC601B40142E050E07CD580E091E0F8
:102D30009B838A83C601B40142E050E073D51B82B5
:102D40001A82C601B40142E050E06CD5C601B4015C
:102D500042E050E067D5C601B40142E050E062D5E0
:102D60002F2D3E2DC9018C017C013E010894611C70
:102D7000711C1EC00894E11CF11CF701808188239E
:102D800011F08E32B9F75701A01AB10A1A141B04B8
:102D900064F48E2D801B8983C601B30141E050E0AD
:102DA00041D5C601B801A5013DD587010F5F1F4F71
:102DB000F7018081882311F07801DFCF1982C601E5
:102DC000BE016F5F7F4F41E050E02CD500E011E085
:102DD0001B830A83C601B40142E050E023D51B8364
:102DE0000A83C601B40142E050E01CD581E090E0C6
:102DF0000F900F900F90CF91DF911F910F91FF9047
:102E0000EF90DF90CF90BF90AF909F908F907F908A
:102E10006F9008958F929F92AF92BF92CF92DF9260
:102E2000EF92FF920F931F93DF93CF9300D000D0C8
:102E3000CDB7DEB76C017B014A019BDD892B19F010
:102E400001E010E061C0F6012281338144815581A7
:102E500080916C0690916D06A0916E06B0916F0600
:102E6000281739074A075B0719F40EEF1FEF4CC00C
:102E700018E0A12EB12CAC0CBD1C0E944B419B0153
:102E8000AC012F70307020503C4FC501B90183D583
:102E9000813019F000E010E037C080EE94E09A83B2
:102EA0008983F60182819381A481B5818B839C8380
:102EB000AD83BE83C501BE016F5F7F4F45E350E028
:102EC000CED48C010097F1F0C601B701FCDE8C0175
:102ED0000097C1F0C501C0D48C01009799F0EE2491
:102EE000FF24C60168E873E1A40197DD8C01089412
:102EF000E11CF11CF3E0EF16F10421F08FEF0F3F1E
:102F0000180779F3C50133D5C80126960FB6F89492
:102F1000DEBF0FBECDBFCF91DF911F910F91FF900C
:102F2000EF90DF90CF90BF90AF909F908F900895DB
:102F3000FC011382128288EE93E0A0E0B0E084836B
:102F40009583A683B7838AE194E091838083648725
:102F50000895DF93CF930F92CDB7DEB7FC0169835D
:102F6000A081B18112962D913C911397BE016F5FA4
:102F70007F4F41E050E0F90119950F90CF91DF911B
:102F80000895CF93DF93EC0107C0E881F9810680B3
:102F9000F781E02DCE011995E881F9810480F58152
:102FA000E02DCE011995892B81F7DF91CF910895FE
:102FB00020E0FC018485843009F021E0822F08950F
:102FC0000F9380E796E060E040E020E000E00E94A0
:102FD000954B0F910895FC018485843011F480E0B5
:102FE0000895982F80E08D5F9B4F2AC7CF93DF9382
:102FF000EC018C85843011F480E018C0CE01EBDF49
:10300000843191F0882381F0883171F08C3151F452
:10301000E881F9810480F581E02DCE01199520E049
:10302000892B19F021E001C020E0822FDF91CF91A0
:103030000895EF92FF920F931F93CF93DF93EC01CC
:103040008C85843069F1E0D40E944B417B018C0176
:10305000CE01C1DF8823F9F00E944B416E197F0930
:10306000800B910B685E734080409040A0F461E05B
:1030700070E080E090E00E945941EACF8C8509D54C
:10308000EC85F0E0EE0FFF1FEA58F94F1182108235
:1030900084E08C8705C0CE019EDF882389F3EECFC4
:1030A000DF91CF911F910F91FF90EF9008950F93B3
:1030B0001F93DF93CF930F92CDB7DEB78C01DC0166
:1030C000ED91FC910480F581E02D1995892B19F47F
:1030D0002FEF3FEF09C0F8018485BE016F5F7F4F7E
:1030E00023D68981282F30E0C9010F90CF91DF913D
:1030F0001F910F910895FC01848524C6DF93CF931F
:103100000F92CDB7DEB7FC018485BE016F5F7F4FA4
:1031100041E050E017D6181619061CF02FEF3FEFCC
:1031200003C08981282F30E0C9010F90CF91DF9132
:103130000895FC016485643019F420E030E004C097
:1031400084E996E028D79C01C90108950F931F9345
:10315000CF93DF938C01EA01FC018485843019F45C
:1031600081E090E006C091D5892B39F481E090E0B0
:10317000F80193838283C0E0D0E0CE01DF91CF914C
:103180001F910F910895AF92BF92CF92DF92EF926D
:10319000FF920F931F93CF93DF937C016B015A0132
:1031A000FC018485843009F051C0C0E0D0E003E028
:1031B00014E0C80145D6882321F0883111F08C3104
:1031C00019F4F701C48706C0219600501F4FC43080
:1031D000D10579F7F70124852430C1F18091F703F7
:1031E0009091F80301969093F8038093F703892B4D
:1031F00031F480E094E09093F8038093F7034091DA
:10320000F7035091F803822F61E020E07BD482E045
:1032100090E0C80ED91EF7018485B601A501D0D46F
:1032200008C061E070E080E090E00E945941C70171
:10323000D2DE882321F484E0F701848707C0C70128
:10324000CADE873171F721E030E002C020E030E0D3
:10325000C901DF91CF911F910F91FF90EF90DF9007
:10326000CF90BF90AF9008956F927F928F929F9270
:10327000AF92BF92CF92DF92EF92FF920F931F9384
:10328000DF93CF93CDB7DEB7E5970FB6F894DEBFE7
:103290000FBECDBF4C015B013A0193E1E92EF12C49
:1032A000EC0EFD1EC7010E940D4CCE014B96DED2E6
:1032B0006E010894C11CD11CC6010E940D4C8E01E8
:1032C000095F1F4FC8016EE776E03AD0C701B80129
:1032D00042DBC701B501A6019DDD9C01813091054E
:1032E000C9F4D401ED91FC910484F585E02D80EEC4
:1032F00094E09E878D878B819C81AD81BE818F8775
:10330000988BA98BBA8BC401BE01635F7F4FA30169
:1033100019959C01C901E5960FB6F894DEBF0FBE62
:10332000CDBFCF91DF911F910F91FF90EF90DF9074
:10333000CF90BF90AF909F908F907F906F900895A7
:10334000DB01FC0120EE34E03183208312962D91C5
:103350003D914D915C91159722833383448355832E
:1033600008950F9386E896E060E040E020E000E0FA
:103370000E94954B8EE796E00E940D4C0F910895A8
:103380006F927F928F929F92AF92BF92CF92DF9275
:10339000EF92FF920F931F933C015B016A01490179
:1033A00084E996E0F7D689E090E0B50146E050E088
:1033B00020D582E090E0C80ED91E8FE090E0B601E3
:1033C00044E050E016D50E5F1F4F81E090E0B80159
:1033D00044E050E00ED5E2E0F0E0EE0EFF1E85E0A6
:1033E00090E0B70144E050E004D5F401828193817C
:1033F000A481B581F30182839383A483B5831F9154
:103400000F91FF90EF90DF90CF90BF90AF909F9083
:103410008F907F906F9008956F927F928F929F927E
:10342000AF92BF92CF92DF92EF92FF920F931F93D2
:10343000DF93CF93CDB7DEB76E970FB6F894DEBFAC
:103440000FBECDBF4C013B017A0169015801CE018D
:1034500001966FEF4FEF2FEF00E00E94954B20EEAB
:1034600034E038872F83F70182819381A481B5816D
:1034700089879A87AB87BC873E872D87F601828133
:103480009381A481B5818F87988BA98BBA8B3C8B54
:103490002B8BF50182819381A481B5818D8B9E8BCD
:1034A000AF8BB88F3A8F298F8B819C81AD81BE8184
:1034B0008B8F9C8FAD8FBE8FC401B301AE01495F6E
:1034C0005F4F9E01235F3F4F8E010D5E1F4FE9E16D
:1034D000EE2EF12CEC0EFD1E53DF6E960FB6F89417
:1034E000DEBF0FBECDBFCF91DF911F910F91FF9037
:1034F000EF90DF90CF90BF90AF909F908F907F9094
:103500006F9008950F931F93DF93CF93CDB7DEB7DE
:1035100068970FB6F894DEBF0FBECDBFFA01D90190
:1035200022813381448155812B833C834D835E838B
:10353000E0EEF4E0F887EF8329873A874B875C87D2
:10354000FE87ED8712962D913D914D915C911597D7
:103550002F87388B498B5A8BFC8BEB8B21E02E838A
:103560002B813C814D815E812D8B3E8B4F8B588F03
:10357000AE01495F5F4F9E01235F3F4F8E010D5E9D
:103580001F4F4ADF68960FB6F894DEBF0FBECDBF5F
:10359000CF91DF911F910F910895DF93CF93CDB716
:1035A000DEB762970FB6F894DEBF0FBECDBFFA014B
:1035B00022813381448155812B833C834D835E83FB
:1035C000E0EEF4E0F887EF8329873A874B875C8742
:1035D000FE87ED8721E02E832B813C814D815E812A
:1035E0002F87388B498B5A8BAE01495F5F4F9E0105
:1035F000235F3F4F87DF62960FB6F894DEBF0FBEA2
:10360000CDBFCF91DF910895DC01ED91FC91008C4D
:10361000F18DE02D19950895DB01FC0120EE34E0D9
:103620003183208351962D913D914D915C9154971A
:1036300022833383448355830895FC0185899689C9
:103640000895FC01818D928D0895DF93CF930F92A1
:10365000CDB7DEB7FC016983A081B18112962D91AF
:103660003C911397BE016F5F7F4F41E050E0F9013D
:1036700019950F90CF91DF910895CF93DF93EC01CF
:1036800007C0E881F9810680F781E02DCE01199508
:10369000898D9A8D892BA9F7DF91CF9108950F938A
:1036A0008CE896E060E040E020E000E00E94954B6E
:1036B0000F910895DF93CF930F92CDB7DEB7FC0142
:1036C000818D928D892B19F42FEF3FEF08C08485EF
:1036D000BE016F5F7F4F28D38981282F30E0C90159
:1036E0000F90CF91DF910895CF93DF93EC019A0172
:1036F000498D5A8D4115510599F02417350710F061
:103700008C8502C08C85A9011DD39C011816190651
:103710003CF4898D9A8D821B930B9A8F898F02C0FE
:103720002FEF3FEFC901DF91CF9108950F931F93C2
:10373000DF93CF930F92CDB7DEB78C01FC01818D63
:10374000928D892BA1F08485BE016F5F7F4F41E090
:1037500050E0F8D21816190654F4F801818D928DB4
:103760000197928F818F8981282F30E002C02FEF3F
:103770003FEFC9010F90CF91DF911F910F910895F5
:10378000EF92FF920F931F93DF93CF93CDB7DEB7E6
:1037900028970FB6F894DEBF0FBECDBF8C01DC01B9
:1037A000ED91FC910284F385E02D199584E996E072
:1037B000F8016485F0D3892B19F420E030E024C0AF
:1037C000D8011C968C917E010894E11CF11CB70174
:1037D00048E050E0B7D29C0118161906ACF4C801B5
:1037E0000F96B7010E94EF4B9D8180E02E81820FE2
:1037F000911DF801968B858B9F8180E02885820F33
:10380000911D928F818F9C01C90128960FB6F89463
:10381000DEBF0FBECDBFCF91DF911F910F91FF9003
:10382000EF9008950F931F938C01FB019A01DC0127
:1038300057966D917C9158971C968C91AF01F8D159
:103840009C01F8018789908D820F931F908F878B41
:10385000C9011F910F910895FC018485FBC0FC01F3
:10386000108E178A6E5F7F4F848581C1FC011382A1
:10387000128288EE93E0A0E0B0E084839583A68373
:10388000B78386E394E09183808384E08487CF01CB
:103890000F960C940D4C6F927F928F929F92AF92E5
:1038A000BF92CF92DF92EF92FF920F931F93DF931D
:1038B000CF93CDB7DEB7E5970FB6F894DEBF0FBE56
:1038C000CDBF4C015B013A0183E1E82EF12CEC0EF7
:1038D000FD1EC7010E940D4CCE014B96C7DF6E0145
:1038E0000894C11CD11CC6010E940D4C8E01095FB9
:1038F0001F4FC8016EE776E023DDC701B8012BD862
:10390000C701B501A60186DA9C0181309105C9F491
:10391000D401ED91FC910088F189E02D80EE94E0D6
:103920009E878D878B819C81AD81BE818F87988B8F
:10393000A98BBA8BC401BE01635F7F4FA3011995A8
:103940009C01C901E5960FB6F894DEBF0FBECDBF4E
:10395000CF91DF911F910F91FF90EF90DF90CF906B
:10396000BF90AF909F908F907F906F900895CF936E
:10397000DF93EC018C85843059F08BD0EC85F0E03E
:10398000EE0FFF1FEA58F94F1182108284E08C87F6
:10399000DF91CF910895CF92DF92EF92FF920F9334
:1039A0001F93CF93DF937C016B01FC0184858430EE
:1039B00009F5C0E0D0E003E014E0C80141D288235B
:1039C00011F0883119F4F701C48706C02196005020
:1039D0001F4FC430D10589F7F7018485843051F039
:1039E000D686C586128E118E62E0A60120E08AD0AE
:1039F00081E001C080E0DF91CF911F910F91FF9096
:103A0000EF90DF90CF900895682F84E996E048E02A
:103A100050E0B0C390E0982F88278E5F9B4F10C274
:103A20001F93182F982F80E08D5F9B4F09D2833111
:103A300011F080E007C084E996E0612F42E050E099
:103A400099D381E01F91089590E0982F88278E5F89
:103A50009B4FB5C11F93182F84E996E0612F40E278
:103A600050E088D30AC0812FD5DF83FF06C0812FA5
:103A700068E1EADF20E030E009C0812FCBDF84FF7E
:103A8000F2CF812F60E1E0DF21E030E0C9011F913A
:103A900008951F93182F84E996E0612F40E150E0CC
:103AA00069D3812F6FEFD0DF1F910895FF920F939D
:103AB0001F93F62E672F082F10E00C5F1F4F102F5B
:103AC0000027C80140967BD1C80141966F2D77D160
:103AD0001F910F91FF900895FF920F931F93F62E61
:103AE000672F082F10E00C5F1F4F102F0027C80111
:103AF000049665D1C80105966F2D61D11F910F9174
:103B0000FF900895FF920F931F93CF93DF93082F99
:103B1000F62EEA01122F862F8150853010F080E0BA
:103B200020C0802FB6DF1F2980E0902F9C5F612F7F
:103B300046D1209719F0802FBE010BC060919206EC
:103B4000709193066F5F7F4F709393066093920618
:103B5000802FC2DF84E996E0602F41E050E00AD375
:103B600081E0DF91CF911F910F91FF9008951F93F6
:103B7000CF93DF93182FFB01EA018081882349F45A
:103B80008181882331F48281882319F483818823F9
:103B900081F0209771F0912F80E0845F9B4FBF01EF
:103BA00044E050E026D1812FBE0180DF21E030E0EB
:103BB00002C020E030E0C901DF91CF911F9108954C
:103BC0001F93CF93DF93182FFB01EA0180818F3F72
:103BD00051F481818F3F91F482818F3F79F4838109
:103BE0008F3F61F420C0882349F48181882331F418
:103BF0008281882319F483818823A9F0209799F082
:103C0000912F80E0845F9B4FBF0144E050E0F1D0F2
:103C1000812FBE014BDF84E996E0612F44E050E044
:103C2000A9D281E001C080E0DF91CF911F9108957A
:103C3000AF92BF92DF92EF92FF920F931F93CF93B9
:103C4000DF93D82EEB015A01890184E996E06D2DAE
:103C5000D1D18017910710F0780105C084E996E072
:103C60006D2DC8D17C0184E996E06D2DAE019501E2
:103C7000870106D1C701DF91CF911F910F91FF906E
:103C8000EF90DF90BF90AF900895AF92BF92DF9218
:103C9000EF92FF920F931F93CF93DF93D82E5B0188
:103CA0008A0188E04130580710F000E018E0DD2D6F
:103CB000C0E0CD5FDB4F84E996E06D2D9BD17C01A8
:103CC000CE01BED0873129F08C3119F000E010E030
:103CD00003C0E016F10678F384E996E06D2DA501A6
:103CE000980139D184E996E06D2D40E250E042D24E
:103CF00009C0CE01A5D0882329F48D2DCADE00E0AD
:103D000010E007C08D2D86DE84FFF3CF8D2D60E19E
:103D10009BDEC801DF91CF911F910F91FF90EF9033
:103D2000DF90BF90AF9008950F93282FAB0184E9E7
:103D300096E0622F21E030E001E0D6D181E090E012
:103D40000F910895CF92DF92FF920F931F93CF931D
:103D5000DF93F82E6B018A0184E996E06F2D1BD169
:103D6000EC01009761F49F2D80E08D5F9B4F68D040
:103D70008431C9F08823B9F08C31A9F01DC008172F
:103D800019070CF4E8011C161D066CF484E996E092
:103D90006F2DA6019E0100E0A7D184E996E06F2D6A
:103DA00040E450E0E7D1CE01DF91CF911F910F9118
:103DB000FF90DF90CF900895CFEFDFEFF4CF282F63
:103DC0002C9880EF8EBD0DB407FEFDCF8EB59EBD45
:103DD0000DB407FEFDCF8EB52EBD0DB407FEFDCF91
:103DE0008EB56EBD0DB407FEFDCF8EB52C9A81E069
:103DF0000895DC0120E030E090EF1DC02C989EBDBE
:103E00000DB407FEFDCF8EB5BEBD0DB407FEFDCFD0
:103E10008EB5AEBD0DB407FEFDCF8EB5FB01E20F32
:103E2000F31F80818EBD0DB407FEFDCF11968EB5B8
:103E30002C9A2F5F3F4F2417350700F3CA010895CE
:103E4000282F2C988FE08EBD0DB407FEFDCF8EB5C8
:103E50009EBD0DB407FEFDCF8EB52EBD0DB407FE81
:103E6000FDCF8EB51EBC0DB407FEFDCF8EB52C9ACE
:103E7000089590E00496982F8827860F971FE0CF2B
:103E80007F928F929F92AF92BF92CF92DF92EF92EA
:103E9000FF920F931F93CF93DF936C01762E7A01DD
:103EA00049015801862F64E270E0E3DF182F872D67
:103EB00065E270E0DEDFC82FD0E0912F80E0C82BF4
:103EC000D92BCE0DDF1DAE015770872D90E0880FE6
:103ED000991FC80ED91EF60120813181240F351F8C
:103EE000CA018A0D9B1D8150984090F000E018E0B7
:103EF000041B150BC901B401A8017BDFA501401B00
:103F0000510BF60180819181080D191DB80103C084
:103F1000C901B401A5016DDF7E01EA0CFB1C072D70
:103F200010E00C5F1F4F102F0027C80184966F2DE3
:103F300046DFC80185966E2D42DFDF91CF911F913C
:103F40000F91FF90EF90DF90CF90BF90AF909F9038
:103F50008F907F9008950F931F93FA01890140E09D
:103F600050E09F018DDF1F910F9108950F931F93D4
:103F7000182F66E270E07DDF082F812F67E270E086
:103F800078DF502F40E0282F30E0242B352BC9015B
:103F90001F910F910895FF920F931F93CF93DF937B
:103FA000F62EC0E0D0E08F2DE1DF8C01009719F0F4
:103FB0008F2DDCDFEC01C017D107A9F7CE01DF910F
:103FC000CF911F910F91FF9008950F931F93182F7A
:103FD00060E270E04EDF082F812F61E270E049DF80
:103FE000502F40E0282F30E0242B352BC9011F91A2
:103FF0000F910895FF920F931F93CF93DF93F62EA7
:10400000C0E0D0E08F2DE1DF8C01009719F08F2DFB
:10401000DCDFEC01C017D107A9F7CE01DF91CF910A
:104020001F910F91FF900895DC0120E030E09FE0A8
:104030001DC02C989EBD0DB407FEFDCF8EB5BEBD34
:104040000DB407FEFDCF8EB5AEBD0DB407FEFDCF9E
:104050008EB51EBC0DB407FEFDCF11968EB5FB01CB
:10406000E20FF31F80832C9A2F5F3F4F24173507F1
:1040700000F3CA010895CF92DF92EF92FF920F935F
:104080001F93CF93DF93690178015770C62FD0E05B
:104090002496CC0FDD1FC80FD91F28813981240F2A
:1040A000351FC801840F951F8150984080F000E0B3
:1040B00018E0041B150BC901B601A801B5DFE01A11
:1040C000F10A888199810C0D1D1DB80102C0C9013A
:1040D000B601A701A9DFDF91CF911F910F91FF904A
:1040E000EF90DF90CF9008958F929F92AF92BF9202
:1040F000CF92DF92EF92FF920F931F93CF93DF93B4
:104100007C01A62E6A014901B02E862F68E270E07C
:10411000B0DE182F8A2D69E270E0ABDEC82FD0E048
:10412000912F80E0C82BD92BC7016A2DAE019601D3
:104130008401A1DFBB2089F47E01E80CF91C0A2D63
:1041400010E00C5F1F4F102F0027C80188966F2DBD
:1041500036DEC80189966E2D32DEDF91CF911F9138
:104160000F91FF90EF90DF90CF90BF90AF909F9016
:104170008F9008951F93162F962F80E08F5F9B4F8F
:10418000642F1DDE812F61E070E073DE8823D1F79C
:104190001F9108950F931F93182F092F6CE271E060
:1041A00080E090E00E9459410E94EB12249A80E046
:1041B00090E060E804DE8BE190E065E500DE8AE1F6
:1041C00090E065E5FCDD212F302FC901FC0180E086
:1041D00090E4918380838050904E918780878050B7
:1041E0009841329620E68030920799F71F910F91FF
:1041F0000895FC018AE594E0918380837383628350
:104200000895EF92FF920F931F93CF93DF937C015A
:104210008B01C0E0D0E0D7011296ED91FC9113978D
:10422000EC0FFD1F6491662329F0C8010E943944F8
:104230002196F1CFDF91CF911F910F91FF90EF90D9
:1042400008951092A9061092AA061092AD06109237
:10425000AF0682E090E0A0E0B0E08093B0069093DB
:10426000B106A093B206B093B3061092C70610929F
:10427000D1061092D00680E694E09093CF0680930A
:10428000CE061092D3060895FC01673020F086E137
:10429000858380E00895262F30E060FD02C06630FF
:1042A00019F48DB58E7F02C08DB581608DBD8CB542
:1042B0008C7F8CBD4CB522FD02C090E001C092E025
:1042C00036952795822F8170842B892B8CBD81E0B8
:1042D0000895FF920F931F93CF93DF938B010E945A
:1042E0004B41EB01FF24FA94FEBC0DB407FEFDCF59
:1042F0008EB58F3F11F481E008C00E944B416C1BCA
:104300007D0B6017710780F380E0DF91CF911F91E3
:104310000F91FF900895FC01848160E00C94A2400D
:10432000FC01848161E00C94A240DC016EBDFA01C5
:1043300020E030E00DB407FEFDCF80818EBD0DB4CE
:1043400007FEFDCF81818EBD2E5F3F4F329682E00A
:104350002030380779F70DB407FEFDCF8FEF8EBD03
:104360000DB407FEFDCF8FEF8EBD0DB407FEFDCF60
:104370008FEF8EBD0DB407FEFDCF8EB51A968C93D0
:104380001A978F71853011F481E0089581E11596B7
:104390008C931597CD01C4DF80E00895FF920F93B1
:1043A0001F93CF93DF93EC010E944B418B01FF24BD
:1043B000FA9409C00E944B41601B710B6D52714011
:1043C00010F08FE00DC0FEBC0DB407FEFDCF8EB522
:1043D0008A878F3F79F38E3F11F481E005C08DE02D
:1043E0008D83CE019DDF80E0DF91CF911F910F91F2
:1043F000FF900895CF93DF93EC018E818823C9F05D
:104400008FEF8EBD2F8138854FEF04C00DB407FEAE
:10441000FDCF4EBD2F5F3F4FC901019781509240A4
:10442000A8F338872F830DB407FEFDCFCE0178DFC8
:104430001E82DF91CF910895DF92EF92FF920F934A
:104440001F93CF93DF93EC01D62E79018A01D2DF3F
:10445000CE0161DFCE016CE271E03BDF8D2D806427
:104460008EBD0DB407FEFDCF28E130E0D801C701B5
:10447000022E04C0B695A795979587950A94D2F712
:104480008EBD0DB407FEFDCF285030408FEF283F82
:10449000380761F7DD2011F485E906C088E0D816F9
:1044A00011F487E801C08FEF8EBD0DB407FEFDCF7C
:1044B00090E02FEF2EBD0DB407FEFDCF8EB587FF28
:1044C00002C09150B9F78A87DF91CF911F910F9168
:1044D000FF90EF90DF900895CF92DF92EF92FF92DE
:1044E0000F931F93CF93DF93EC017A018B01690146
:1044F000411551056105710511F482E133C08B85C9
:10450000833039F029E0EE0CFF1C001F111F2A95A3
:10451000D1F7CE0168E1A80197018EDF882311F061
:1045200084E020C0CE016EEFA601FFDE8823D9F023
:10453000CE0168E572E0CDDE882311F485E112C07A
:10454000CE016DE020E030E040E050E075DF8823F0
:1045500041F48FEF8EBD0DB407FEFDCF8EB58823DD
:1045600071F084E18D83CE01DBDE80E0DF91CF91BD
:104570001F910F91FF90EF90DF90CF900895CE01A3
:10458000CFDE81E0F3CF8F929F92AF92BF92CF9216
:10459000DF92EF92FF920F931F93CF93DF93EC0183
:1045A0005A016B0149010115110509F477C0C801D1
:1045B000820F931F8150924008F06CC08E81882337
:1045C00071F088819981AA81BB81481759076A07D0
:1045D0007B0729F48F8198858816990608F5A882AB
:1045E000B982CA82DB828B85833039F069E0AA0CFC
:1045F000BB1CCC1CDD1C6A95D1F7CE0161E1A60184
:1046000095011ADF882319F083E08D8343C0CE0122
:10461000C5DE882309F43EC018861F8281E08E83A0
:104620008FEF8EBD8F8198852FEF05C00DB407FEEB
:10463000FDCF2EBD019688159905C0F398878F830D
:10464000D801119720E030E09FEF0BC00DB407FEBA
:10465000FDCF8EB5F701E20FF31F80839EBD2F5F64
:104660003F4F2A173B0790F30DB407FEFDCF8EB5E1
:10467000AE0DBF1D8C932F813885200F311F3887D9
:104680002F838985882319F02050324038F0CE01DD
:10469000B1DE04C0CE0144DE80E001C081E0DF91E4
:1046A000CF911F910F91FF90EF90DF90CF90BF902F
:1046B000AF909F908F900895EF92FF920F931F936A
:1046C000790120E030E000E012E05DDF1F910F9102
:1046D000FF90EF900895BF92CF92DF92EF92FF92FA
:1046E0000F931F93CF93DF93EC01B62E1B86198691
:1046F0001E821D824C830E944B416B018C8161E0C4
:104700000E94EF3FCE010CDE82E360E00E94EF3FAB
:1047100083E361E00E94EF3F84E361E00E94EF3FAA
:1047200085E361E00E94EF3F85E361E00E94A240E3
:1047300083E58CBD8DB58E7F8DBD80E09FEF9EBDE6
:104740000DB407FEFDCF8F5F8A30C9F7CE01E3DDE0
:1047500009C00E944B416C197D09615D774010F0E2
:1047600081E059C0CE0160E020E030E040E050E060
:1047700063DE182F8A87813061F7CE0168E02AEA6C
:1047800031E040E050E058DE82FF02C01B8711C0DC
:1047900080E02FEF2EBD0DB407FEFDCF9EB58F5FDD
:1047A0008430C1F79A879A3A11F082E034C082E0EF
:1047B0008B878B85823021F0EE24FF2487010FC088
:1047C000E12CF12C012DF0E41F2F09C00E944B4178
:1047D0006C197D09615D774010F088E01CC0CE0146
:1047E00067E320E030E040E050E026DECE0169E201
:1047F000A801970121DE8A87882341F78B858230C3
:1048000021F5CE016AE320E030E040E050E014DE24
:10481000882331F086E08D83CE0182DD80E01AC0EE
:104820008FEF8EBD0DB407FEFDCF8EB5807C803C32
:1048300011F483E08B8780E09FEF9EBD0DB407FEEF
:10484000FDCF2EB58F5F8330C1F7CE0169DDCE017C
:104850006B2D1ADDDF91CF911F910F91FF90EF909B
:10486000DF90CF90BF9008958091EF08882389F161
:104870004091F9035091FA036091FB037091FC039E
:104880008091ED089091EE082DEE36E025DE88232C
:1048900011F14091F0085091F1086091F208709187
:1048A000F308411551056105710589F08091ED0806
:1048B0009091EE082DEE36E00FDE882361F0109225
:1048C000F0081092F1081092F2081092F30810927A
:1048D000EF0881E0089580E00895EF92FF920F9332
:1048E0001F937B018C01C0DF8823A9F0EDEEF6E079
:1048F000119288E0ED3EF807D9F7E092F903F092C3
:10490000FA030093FB031093FC038091EF0881608E
:104910008093EF0881E01F910F91FF90EF90089531
:10492000DF92EF92FF920F931F937B018C01D42EA5
:104930008091F9039091FA03A091FB03B091FC03DD
:104940008E159F05A007B107B1F08EDF8823D1F047
:104950008091ED089091EE08B801A7012DEE36E0A8
:10496000ABDE882379F0E092F903F092FA0300932A
:10497000FB031093FC038091EF088D298093EF08CF
:1049800081E001C080E01F910F91FF90EF90DF90D8
:1049900008958F929F92AF92BF92CF92DF92EF9243
:1049A000FF920F931F93CF93DF936C01142F70939B
:1049B000EE086093ED08442321F4882499245401DF
:1049C0003FC0453008F01AC160E070E080E090E040
:1049D00040E0A6DF882309F411C1C12FD0E0219760
:1049E000FE0174E0EE0FFF1F7A95E1F7E351F94FF6
:1049F000E254FE4F8081EE5BF14090E08F77907043
:104A0000892B09F0FBC0E653FE4F80819181A28182
:104A1000B38184369105A105B10508F4EFC064E0C7
:104A2000CC0FDD1F6A95E1F7CD54D74F8880998070
:104A3000AA80BB8081149104A104B10409F4DEC0F2
:104A4000C501B40140E06CDF882309F4D7C0809130
:104A5000F8069091F9068050924009F0CFC020915D
:104A6000FD06222309F4CAC08091FB069091FC0642
:104A7000892B09F4C3C08091FA06882309F4BEC0CB
:104A8000F601228B8091FA068483158661E070E03E
:104A900007C04F5FF60145874150483008F0AEC06F
:104AA000F6014585848190E09B01042E02C0220F0F
:104AB000331F0A94E2F78217930759F720910307EF
:104AC000309104072115310519F040E050E008C08D
:104AD000209111073091120740911307509114074C
:104AE000F6012583368347835087E090FB06F090DC
:104AF000FC0600E010E0E80CF91C0A1D1B1DE38A0F
:104B0000F48A058B168B8091FE069091FF06918F9B
:104B1000808F6091FD0670E080E090E00E948B4EF7
:104B20006E0D7F1D801F911FF601628F738F848F22
:104B3000958F2091FE063091FF0655E0220F331F1E
:104B40005A95E1F721503E4F232F3327269540E019
:104B500050E0260F371F481F591F26873787408B85
:104B6000518B8091000790910107009719F0A0E008
:104B7000B0E008C080910D0790910E07A0910F073B
:104B8000B091100785017401E21AF30A040B150BAA
:104B9000A8019701280F391F4A1F5B1FF6010584E2
:104BA00004C056954795379527950A94D2F72187E3
:104BB000328743875487253FFFE03F07F0E04F07E8
:104BC000F0E05F0710F48CE006C0255F3F4F4040E7
:104BD000504028F480E1F601878B81E010C080917D
:104BE000190790911A07A0911B07B0911C07F601B5
:104BF000828F938FA48FB58F80E2EECF80E0DF911C
:104C0000CF911F910F91FF90EF90DF90CF90BF90C9
:104C1000AF909F908F9008954F925F926F927F9286
:104C20008F929F92AF92BF92CF92DF92EF92FF92BC
:104C30000F931F93CF93DF93EC016A017B0128014F
:104C40003901423051056105710508F46EC089854E
:104C50009A85AB85BC850196A11DB11D841795076A
:104C6000A607B70708F461C02B893C894D895E8986
:104C70008F89803129F499278F2D7E2D6D2D09C0C4
:104C8000C701B60117E096958795779567951A95B0
:104C9000D1F74B015C01820E931EA41EB51E8091BC
:104CA000F9039091FA03A091FB03B091FC038816DD
:104CB0009906AA06BB0631F0C501B40140E030DE1A
:104CC000882399F18F89803149F4F601F070EE0F55
:104CD000FF1FE351F94F518240820DC0F601EF777B
:104CE000F070EE0FFF1FEE0FFF1FE351F94F4082F0
:104CF0005182628273828091EF0881608093EF0815
:104D00008A89823080F08D819E81AF81B885880E3E
:104D1000991EAA1EBB1E8092F0089092F108A092E4
:104D2000F208B092F30881E001C080E0DF91CF91FA
:104D30001F910F91FF90EF90DF90CF90BF90AF90B9
:104D40009F908F907F906F905F904F900895CF923B
:104D5000DF92EF92FF920F931F93CF93DF93EC01BB
:104D60007A018B01690189859A85AB85BC8501969D
:104D7000A11DB11D84179507A607B70708F44FC0FA
:104D80002B893C894D895E898F89803129F4992747
:104D9000812F702F6F2D09C0C801B701E7E09695EC
:104DA000879577956795EA95D1F7260F371F481FA6
:104DB000591F8091F9039091FA03A091FB03B091E0
:104DC000FC03281739074A075B0731F0CA01B9010C
:104DD00040E0A6DD882319F18F89803159F4F7016D
:104DE000F070EE0FFF1FE351F94F80819181A0E039
:104DF000B0E00EC0F701EF77F070EE0FFF1FEE0F7F
:104E0000FF1FE351F94F80819181A281B381BF706F
:104E1000F60180839183A283B38381E001C080E0A7
:104E2000DF91CF911F910F91FF90EF90DF90CF9086
:104E30000895AF92BF92CF92DF92EF92FF920F93BD
:104E40001F93DF93CF9300D00F92CDB7DEB76C01E5
:104E50007A018B0182E090E0A0E0B0E0F60180836F
:104E60009183A283B3835E010894A11CB11CC60187
:104E7000B801A70195016BDF882311F1C601B801C4
:104E8000A70100E010E020E030E0C6DE8823C1F09A
:104E9000E980FA800B811C81F6018789803129F035
:104EA00088EF9FEFAFEFBFE004C088EF9FEFA0E077
:104EB000B0E0E816F9060A071B07C8F281E001C056
:104EC00080E00F900F900F900F90CF91DF911F9186
:104ED0000F91FF90EF90DF90CF90BF90AF9008952B
:104EE0004F925F926F927F928F929F92AF92BF92FA
:104EF000CF92DF92EF92FF920F931F93DF93CF93A6
:104F000000D00F92CDB7DEB76C0149835A836B8313
:104F10007C833901EE24FF2487012E010894411C73
:104F2000511C812CA2E09A2EA12CB12C49815A81CE
:104F30006B817C81C60192010ADF882351F1D50182
:104F4000C401F601058404C0880F991FAA1FBB1F66
:104F50000A94D2F7E80EF91E0A1F1B1F29813A8115
:104F60004B815C818789803129F088EF9FEFAFEF1B
:104F7000BFE004C088EF9FEFA0E0B0E0281739073A
:104F80004A075B0798F2F301E082F1820283138300
:104F900081E00F900F900F900F90CF91DF911F91B4
:104FA0000F91FF90EF90DF90CF90BF90AF909F90C8
:104FB0008F907F906F905F904F9008952F923F92C7
:104FC0004F925F926F927F928F929F92AF92BF9219
:104FD000CF92DF92EF92FF920F931F93DF93CF93C5
:104FE000CDB7DEB72F970FB6F894DEBF0FBECDBF9B
:104FF0001C014A875B876C877D873F872E87D90195
:105000000D911D912D913C91011511052105310541
:1050100049F0480159010894811C911CA11CB11C44
:10502000198610C0FC0180809180A280B38019860F
:105030008A859B85AC85BD850197A105B10511F4D5
:1050400091E09987D10119968D919D910D90BC9118
:10505000A02D0196A11DB11D8D839E83AF83B887BE
:10506000750164014424552432018E010F5F1F4FE6
:10507000F10181859285A385B485481659066A0693
:105080007B0608F08CC08D819E81AF81B8858C1520
:105090009D05AE05BF0550F482E0882E912CA12C11
:1050A000B12CB2E0CB2ED12CE12CF12CC101B701F7
:1050B000A60198014CDE882309F471C089819A8188
:1050C000AB81BC81A70196012F5F3F4F4F4F5F4FD0
:1050D0000097A105B10519F049015A010DC0281921
:1050E00039094A095B098A859B85AC85BD852817E6
:1050F00039074A075B0759F00894411C511C611C91
:10510000711C0894C11CD11CE11CF11CB1CFC10160
:10511000A601B7010FEF1FEF2FEF3FE07DDD8823E2
:1051200091F43DC0260137010894410851086108F7
:105130007108C101B301A201970186016DDD8823C9
:1051400071F1730162018C149D04AE04BF0450F32D
:10515000AE85BF854D915D916D917C914115510555
:105160006105710531F0C1019501840155DD882388
:10517000B1F0EE85FF8580829182A282B382F985AB
:10518000FF2359F00894811C911CA11CB11CD10172
:105190008D929D92AD92BC92139781E001C080E008
:1051A0002F960FB6F894DEBF0FBECDBFCF91DF9123
:1051B0001F910F91FF90EF90DF90CF90BF90AF9035
:1051C0009F908F907F906F905F904F903F902F9027
:1051D0000895CF93DF93EC01DB0180E090E020E2C3
:1051E000FD01E80FF91F208301968B309105C1F76F
:1051F00057E040E021C02E3219F08CE793E007C061
:105200005A3019F15AE048E017C03217F1F0FC01AA
:10521000019634913323C9F75417B8F02132A8F01E
:105220002F3798F4822F81568A3108F42052FD01DD
:10523000E40FF11D20834F5F29912223E1F690E0D6
:105240008C91803219F091E001C090E0892FDF91BC
:10525000CF9108956F927F928F929F92AF92BF925B
:10526000CF92DF92EF92FF920F931F93CF93DF9332
:10527000EC017A018B012D81222309F47FC08B89F7
:105280009C89AD89BE8984179507A607B70708F4DE
:1052900075C084C0E114F1040105110549F41E82B2
:1052A0001F82188619861A861B861C861D8664C076
:1052B0002A853B854C855D85EB8DFC8D858590E051
:1052C0000996215030404040504039014A01082E93
:1052D00004C096948794779467940A94D2F72F5FCA
:1052E0003F4F4F4F5F4F0894E108F1080109110942
:1052F0005701680104C0D694C794B794A7948A95BF
:10530000D2F70894E11CF11C011D111DA614B7046D
:10531000C804D90428F0211531054105510549F487
:105320008F89988DA98DBA8D8E839F83A887B98721
:1053300015C0A618B708C808D90810C04E815F81EB
:10534000688579858B8D9C8D940101DD0894A10879
:10535000B108C108D108882331F410C086E0882E36
:10536000912C8C0E9D1EA114B104C104D10431F7FF
:10537000EA86FB860C871D8781E001C080E0DF9113
:10538000CF911F910F91FF90EF90DF90CF90BF9042
:10539000AF909F908F907F906F900895223009F08A
:1053A00079CFE6CFCF93DF93EC01462F6E857F85D3
:1053B00088899989B5DA882319F420E030E00AC099
:1053C0008A89282F30E095E0220F331F9A95E1F764
:1053D0002351394FC901DF91CF9108950F931F9346
:1053E000CF93DF938C01FC0185818823C9F18481EF
:1053F00087FF34C0C80161E0D5DFEC01009781F17F
:10540000F8018581823040F483899489A589B68921
:105410008C8F9D8FAE8FBF8FF8018789908D9B8F6A
:105420008A8F8789908DA18DB28DCD01AA27BB2748
:105430009D8B8C8BE091F408F091F508309751F03A
:10544000BE016A5E7F4FCE0148961995888D998D71
:105450009B8B8A8BF80184818F77848305DA01C066
:1054600080E0DF91CF911F910F910895CF93DF934B
:10547000EC01B4DF882311F01D8281E0DF91CF9130
:1054800008956F927F928F929F92AF92BF92CF9228
:10549000DF92EF92FF920F931F93DF93CF9300D091
:1054A0000F92CDB7DEB77C015A016B01DC01159676
:1054B0008C911597813009F088C014968C9181FFEA
:1054C00084C097C00097A105B10511F481E07EC0AA
:1054D000F7016284738484849584C701B601A501B1
:1054E000B9DE882309F471C0D7015B968D919C9138
:1054F0005C97A114B104C104D10481F457964D9175
:105500005D916D917C915A9794DC882309F45DC07C
:10551000F701178A108E118E128E3AC0D701169697
:105520004D915D916D917C9119979E012F5F3F4F39
:105530000EDC882309F449C0D7015B96ED91FC91FC
:105540005C9749815A816B817C818789803129F000
:1055500088EF9FEFAFEFBFE004C088EF9FEFA0E0C0
:10556000B0E0481759076A077B0790F4CF0161DC68
:10557000882359F1F7014681578160857185838DB4
:10558000948D0FEF1FEF2FEF3FE046DB8823E9F00C
:10559000D7015396AD92BD92CD92DC925697149658
:1055A0008C911497806814968C93C70117DF882319
:1055B00061F0B601A5016A147B048C049D0410F40B
:1055C000B401A301C70146DE01C080E00F900F9037
:1055D0000F900F90CF91DF911F910F91FF90EF905F
:1055E000DF90CF90BF90AF909F908F907F906F9003
:1055F0000895F70183899489A589B6898417950749
:10560000A607B70708F05ECFE0CF2F923F924F92E8
:105610005F926F927F928F929F92AF92BF92CF9242
:10562000DF92EF92FF920F931F93CF93DF93EC01E2
:105630002A018D81882309F4C5C08C8180FFC2C0F6
:10564000D7C025014E185F084B0176E0272E312C7C
:105650002C0E3D1E3201B0C02A853B854C855D85F0
:105660006FEFA62E61E0B62EA222B3228D817901C2
:105670008A0199E016950795F794E7949A95D1F7E2
:10568000EB8DFC8D823049F4428D538D648D758D88
:105690004E0D5F1D601F711F3EC0D480DA94DE2066
:1056A000A114B104D1F4DD20C1F421153105410567
:1056B000510549F48F89988DA98DBA8D8E839F836A
:1056C000A887B9870AC04E815F8168857985CF0137
:1056D00091013DDB882309F475C0EB8DFC8D4E8173
:1056E0005F816885798542505040604070400584F4
:1056F00004C0440F551F661F771F0A94D2F7868592
:105700009785A089B189480F591F6A1F7B1F4D0DCE
:10571000511D611D711D80E092E08A199B09630192
:105720008615970508F46C018C8186FD06C080E023
:10573000C81682E0D80609F073C08091F9039091F1
:10574000FA03A091FB03B091FC03481759076A07BD
:105750007B0709F465C08091ED089091EE089501F2
:10576000860174010E94C322882361F18C0C9D1C68
:1057700012C095012351394FA9014C0D5D1DD40173
:10578000F90102C081918D93E417F507D9F7E21B67
:10579000F30B8E0E9F1E960140E050E08A859B859C
:1057A000AC85BD85820F931FA41FB51F8A879B8779
:1057B000AC87BD876C187D086114710409F04CCF6B
:1057C000A20102C04FEF5FEFCA01DF91CF911F919D
:1057D0000F91FF90EF90DF90CF90BF90AF909F9090
:1057E0008F907F906F905F904F903F902F90089593
:1057F000AB88BC88CD88DE88EA84FB840C851D8557
:105800009A0140E050E0D601C5018E199F09A00B16
:10581000B10B82179307A407B50708F412CF14CF72
:10582000CB01BA0140E07CD8882309F0A2CFCACFCF
:10583000CF92DF92EF92FF920F931F93DF93CF935C
:105840000F92CDB7DEB76C01FC018581823068F024
:10585000E284F38404851585C601BE016F5F7F4F26
:1058600041E050E0D2DE019769F020E030E0C9016C
:105870000F90CF91DF911F910F91FF90EF90DF90EC
:10588000CF900895F60182859385A485B5854F96BE
:10589000A11DB11D82879387A487B587F5E0169572
:1058A0000795F794E794FA95D1F78E2D8F70282FEE
:1058B00030E0E5E0220F331FEA95E1F72351394F3D
:1058C000D6CF0F931F93CF93DF93EC018B018D8184
:1058D000882309F040C0FB0187898031B1F482E060
:1058E0008D831F8A188E198E1A8E808D918DA0E05F
:1058F000B0E045E0880F991FAA1FBB1F4A95D1F75A
:105900008B8B9C8BAD8BBE8B14C0803221F583E0DA
:105910008D83FB01428D538D648D758D4F8B588F18
:10592000698F7A8F9E012D5E3F4FC801D9DA882397
:1059300091F01C8F0B8F81E08C831E821F82188652
:1059400019861A861B861C861D861E861F86188A47
:10595000198A1A8A01C080E0DF91CF911F910F91BF
:1059600008951F93CF93DF93EC01142FE62FF0E0FF
:1059700075E0EE0FFF1F7A95E1F7E351F94F83854C
:10598000817121F0842F827409F052C06A8B80915A
:10599000F9039091FA03A091FB03B091FC038E8769
:1059A0009F87A88BB98B84899589A0E0B0E0BC0162
:1059B00055274427828D938DA0E0B0E0482B592BCA
:1059C0006A2B7B2B4F8B588F698F7A8F838590E062
:1059D00088719070009751F4848D958DA68DB78D48
:1059E0008B8B9C8BAD8BBE8B81E00BC0409701F500
:1059F0009E012D5E3F4F8B8D9C8D72DA8823C1F006
:105A000084E08D83812F8F708C831E821F82188685
:105A100019861A861B861C861D8616FD02C081E02B
:105A200008C0CE0140E050E060E070E02ADD01C037
:105A300080E0DF91CF911F910895CF93DF93EC0128
:105A40009C012A5F3F4F8B8D9C8D41E050E060E0D0
:105A500070E0B4DA8823A1F08F89988DA98DBA8D72
:105A60000097A105B10559F48E819F81A885B9855C
:105A70008F8B988FA98FBA8F8C8180688C8381E0FF
:105A8000DF91CF9108952F923F924F925F927F9234
:105A90008F929F92AF92BF92CF92DF92EF92FF923E
:105AA0000F931F93DF93CF9300D000D0CDB7DEB715
:105AB0006C01162F072F5E834D83DC0115968C91A8
:105AC0001597813009F06CC114968C9181FF68C1E3
:105AD0008AC1F601438954896589768982859385CF
