:100000000C946B130C94E09A0C94B59A0C948A9A05
:100010000C945F9A0C94349A0C94099A0C94DE997F
:100020000C94B3990C9408550C94D8540C94A8547F
:100030000C949C130C949C130C949C130C949C1384
:100040000C949C130C948A690C949C130C949C1330
:100050000C949C130C949C130C949C130C94C8A6A5
:100060000C949C130C9427960C94FE950C949C1362
:100070000C949C130C9445530C949C130C949C135B
:100080000C949C130C949C130C949C130C94F96684
:100090000C94D5950C94AC950C949C130C94B1676E
:1000A0000C949C130C949C130C949C130C949C1314
:1000B0000C949C130C949C130C949C130C949C1304
:1000C0000C949C130C949C130C949C130C9483958B
:1000D0000C945A950C949C130C949C130C949C13A4
:1000E0000C949C131F632463296333633D63B663DD
:1000F00047634F63576361636B63756384638E63A8
:10010000B6639863A263AC6391A594A583A587A504
:100110008DA5CBA598A59CA5A2A5A6A5AAA5B0A589
:10012000B4A5B8A5CBA5BEA5C2A5C6A5534B52592B
:1001300050544F5759005245435A4E590041555457
:100140004F0052520052524D0052524D32005A410D
:100150005359504F5759004252554C490045434F4F
:10016000414C004C41544F005A494D4100425255B8
:100170004C490045434F414C004E69657A6E616EB3
:100180007920647A69656E004E4400534F005054E4
:1001900000435A00535200575400504F002A005851
:1001A00058444D5F504C55535F4D4F430058584491
:1001B0004D5F504C55535F4D4F4300585854455375
:1001C000545F4E5231207A6E616C657A696F6E6F42
:1001D000005858544553545F4E52310057594C5FA4
:1001E000414C474F004155544F4C41544F5F54527E
:1001F0005942004155544F4C41544F5F5457455755
:10020000004155544F4C41544F5F48495354455257
:10021000455A41004155544F4C41544F5F54454D50
:10022000500054525942204155544F21004F5554CB
:100230005F57454E54594C41544F52005452594205
:10024000204155544F21004F55545F504F4D504160
:100250004359524B0054525942204155544F2100AA
:100260004F55545F504F4D504143575500545259CC
:1002700042204155544F21004F55545F504F4D502F
:1002800041435755320054525942204155544F2151
:10029000004F55545F504F4D5041434F00545259F9
:1002A00042204155544F21004F55545F504F444117
:1002B0004A4E494B00525443005254435F435A4103
:1002C00053005254435F44415441004155544F0040
:1002D0005254435F5A494D410050524143412042DC
:1002E000455A20444554454B544F524100444554CF
:1002F000454B544F525F54455354554A455F424510
:100300005A504945435A4E494B004E69657A6E61D1
:100310006E7920647A69656E0050524F475F435989
:10032000524B5F0050524F475F005A4144414E418B
:10033000004B525A595741005A41574F5234442D9D
:1003400054525942005A41574F5234442D5A414455
:10035000414E41005A41574F5234442D484953545D
:100360004552455A41005A41574F5234442D4F424D
:100370004E495A4F4E41005A41574F5234442D4333
:100380005A554A4E494B005A41574F5234442D4317
:100390005A41535F504F4D49415255005A41574FB2
:1003A0005234442D435A41535F4B524F4B005A41F4
:1003B000574F5234442D435A41535F4F5457415283
:1003C000434941004B525A5957415F47525A414E97
:1003D00049412B3135004B525A5957415F47525AC8
:1003E000414E49412B35004B525A5957415F4752B4
:1003F0005A414E49412D30004B525A5957415F479F
:10040000525A414E49412D3130004B525A595741B1
:100410005F47525A414E49412D3230004B525A5992
:1004200057415F47525A414E49412D3330005600E3
:10043000414E414C4F470054380054370054360069
:1004400054350054340054330054320054310054B5
:100450005350414C494E590054504F444C4F474122
:100460000054435755005457455700545A455700B8
:1004700054504F44414A4E494B0054504F57524FED
:100480005400545049454300545F4D4150554A5F14
:100490005A5F4252554C4900545F4D4150554A5F96
:1004A0005A5F45434F414C005A415359504F575999
:1004B0005F4D4F43005252575F4849535445524590
:1004C0005A41005252575F504F53544F4A005252B4
:1004D000575F504F44414E4945005252575F4E417D
:1004E000444D5543480052524D5F5749454C455F76
:1004F0004D4F43590052524D5F444F50414C414E75
:1005000049455F435A41530052524D5F444F504159
:100510004C414E49455F4D4F430052524D5F4D4156
:10052000585F50525A4542494349455F544C4F0029
:1005300052524D5F544C4F5F435A41530052524DFB
:100540005F544C4F5F435A41535F504F44414E49B3
:10055000450052524D5F544C4F5F4D4F4300525235
:100560004D5F544C4F5F574C41435A4F4E450052DC
:10057000525F50524143415F4D4F430052525F50D2
:10058000524143415F504F53544F4A0052525F50C3
:10059000524143415F504F44414E49450052525FE2
:1005A000504F4454525A594D414E49455F4D4F4367
:1005B0000052525F504F4454525A594D414E494592
:1005C0005F504F53544F4A0052525F504F44545261
:1005D0005A594D414E49455F504F44414E4945009F
:1005E00052525F504F4454525A594D414E49455F03
:1005F000435A41535F4C41544F0052525F504F4455
:1006000054525A594D414E49455F435A4153004354
:1006100059524B554C41434A415F544D494E00435A
:1006200059524B554C41434A415F435A41535F57DE
:10063000594C41435A004359524B554C41434A414E
:100640005F435A41535F574C41435A004359524B01
:10065000554C41434A415F414C474F5259544D001C
:10066000434F5F435A41535F57594C41435A0043EC
:100670004F5F435A41535F574C41435A00434F5FCA
:10068000414C474F5259544D00434F5F54525942C9
:1006900000435755325F435A554A4E494B00435722
:1006A00055325F414C474F5259544D0043575532D4
:1006B0005F5452594200435755325F48495354459D
:1006C00052455A4100435755325F5A4144414E41C9
:1006D000004357555F545F4D4158004357555F489D
:1006E0004953544552455A41004357555F5052496A
:1006F0004F5259544554004357555F414C474F5250
:1007000059544D004357555F545259420043575571
:100710005F5A4144414E4100504945435F414C4777
:100720004F5259544D00504945435F484953544531
:1007300052455A4100504945435F5A4144414E4158
:1007400000504945435F5452594200504945435F68
:10075000545F4D415800504945435F545F4D494EE9
:1007600000504F44414A4E494B5F414C41524D5F0E
:100770004D494E00504F44414A4E494B5F505245FF
:10078000444B4F53435F504F444157414E49410002
:10079000504F44414A4E494B5F435A41535F504F7B
:1007A00044414A4E494B4100504F44414A4E494B07
:1007B0005F435A41535F444F5F4F50524F5A4E4927
:1007C000454E494100504F44414A4E494B5F545FAA
:1007D0004D415800504F44414A4E494B5F435A41A6
:1007E000535F5759525A55545500504F44414A4E41
:1007F000494B5F545F5759534F4B415F504F5754CC
:100800004F524B4900504F44414A4E494B5F545F51
:100810005759534F4B4100504F44414A4E494B5F4B
:10082000435A41535F504F444E4F535A454E4941EE
:100830000054524941433A207A6D69616E61206EDD
:100840006120747279622025640054524941433A10
:10085000207A6D69616E61206E6120747279622008
:10086000256400444D5F54595000444D5F504C5531
:10087000535F4D4F4300444D5F504C55535F435AB7
:10088000415300444D5F524F5A525543485F4D4FBC
:100890004300444D5F524F5A525543485F435A41BB
:1008A0005300444D5F544C4F5F4D4F4300444D5FE8
:1008B000544C4F5F435A415300444D5F444F5041A5
:1008C0004C414E49455F4D4F4300444D5F444F50AE
:1008D000414C414E49455F435A415300444D5F4DA1
:1008E0004F44554C41434A4100444D5F494E5745A2
:1008F00052534A415F50574D00444D5F4F46465357
:10090000455400444D5543484157415F41435F477B
:100910005255504F574F004E45545F444E53004E72
:1009200045545F4252414D41004E45545F4D415345
:100930004B41006175746F004E45545F4950004E45
:1009400045545F4D4143004F46465345545F002D8B
:100950003E002000533A2000535F00504B543A2091
:1009600043524300504B543A2045545800504B5486
:100970003A205354580044533A206E723A2564206A
:10098000703A2564204552524F520044533A206E2B
:10099000723A256420703A256420743A25642063F5
:1009A00072633A2564204F4B00253032643A25307B
:1009B00032643A20414C41524D2054504F44414AF8
:1009C0004E494B3D545759534F4B412025643E00EF
:1009D000253032643A253032643A20414C41524D40
:1009E0002054504F44414A4E494B3D544D415820AC
:1009F00025643E002A2A444D5031002A2A444D5491
:100A000032002A2A444D5431002A2A444D545F4F63
:100A10004E002A2A444D445F4F4E002A2A444D502E
:100A20005F4F4646002A2A444D505F4F4E002A2A07
:100A3000444D525F4F464632002A2A444D525F4F82
:100A40004646002A2A444D525F4F4E002A2A432D23
:100A50004F46462A002A2A432D4F4646002A2A435B
:100A60002D4F4E002A2A432D4F4E2A00202D3E2086
:100A7000004841524D4F4E4F4752414D3A207A6DFA
:100A800069616E612000503A2025642C2530346461
:100A90002C253034642C253034642C25303464000B
:100AA00041363A20256420256420256400414C4CC1
:100AB0003A2025646D7300545A3A00545249414318
:100AC0003A20302D256420312D256420532D2564B6
:100AD000206F6B2D25640054524941433A20302D3C
:100AE000256420312D256420532D2564206F6B2D26
:100AF0002564002025642525204445542D25642F98
:100B00003230300054524941433A20542D2564205C
:100B10005A2D256420542D5A2D256420462D2564F8
:100B2000002025642525204445542D25642F32308E
:100B3000300054524941433A20542D2564205A2D07
:100B4000256420542D5A2D256420462D2564004D02
:100B5000415820646174613A202523782C20743A2E
:100B600025642C20743A25640020534356002053FA
:100B7000434700204F4300544B206572726F723A16
:100B80000054524941433A2070726F626C656D792E
:100B9000207A20646574656B746F72656D203020F7
:100BA0003A2025642F323030005254433A20643AC0
:100BB00025642025643A25640054524941433A2073
:100BC0007A616B6C6F63656E6961207A206465740D
:100BD000656B746F72612C20543D0054524941433F
:100BE0003A207A616B6C6F63656E6961207A20646C
:100BF0006574656B746F72612C20543D00207265C2
:100C00007472793D0045434F414C3A2070726F62D7
:100C10006C656D79207A206B6F6D756E696B6163A1
:100C20006A61203A206572723D004553503A005483
:100C3000524941433A737461727920747279620047
:100C400054524941433A6E6F777920747279620049
:100C5000576F6C6E792052414D3A00576F6C6E7928
:100C60002052414D3A0020615F703A00615F743A52
:100C700000414C4D3A2050525A4550414C4F4E592C
:100C80002042455A504945435A4E494B00414C4D2C
:100C90003A20504F44414A4E494B205354414E2034
:100CA0004D494E00414C4D3A20504F44414A4E4927
:100CB0004B20544D415800414C4D3A20504945433A
:100CC00020544D415800414C4D3A204252414B0076
:100CD000576F6C6E792052414D3A00743A5B007345
:100CE0006574205B004553503A20637A61733A2063
:100CF000004553503A20706F62696572616D2063E0
:100D00007A617300666C6173683A005452494143DA
:100D10003A73746172792074727962005452494155
:100D2000433A6E6F7779207472796200576F6C6EF8
:100D3000792052414D3A00576F6C6E792052414DE7
:100D40003A0020615F703A00615F743A00414C4D97
:100D50003A2050525A4550414C4F4E592042455A24
:100D6000504945435A4E494B00414C4D3A20504F53
:100D700044414A4E494B205354414E204D494E0068
:100D8000414C4D3A20504F44414A4E494B20544D1E
:100D9000415800414C4D3A205049454320544D4163
:100DA0005800414C4D3A204252414B00576F6C6EF7
:100DB000792052414D3A00743A5B00736574205BB0
:100DC000005245534554005245534554005745423F
:100DD0003A004C43443A0064697361626C65640094
:100DE000656E61626C6564002020416363656C65BB
:100DF000726174696F6E2069732000436C69636B64
:100E0000456E636F6465723A3A446F75626C654310
:100E10006C69636B656400427574746F6E3A200090
:100E200020613A2000206D656E753A200020453221
:100E30003A20005A34443A00504D503A00444D553F
:100E40003A00504F443A00414C473A00414C4D3A29
:100E5000004D41503A00414E413A004D41583A0050
:100E600044414C4C3A00434F4E3A0054494D3A00ED
:100E700044414C4C41533A204B6F6E69656320707E
:100E80006F737A756B6977616E696120637A756AD1
:100E90006E696B6F772E0044414C4C41533A204EA3
:100EA000494520444F44414E4F21210020205465A4
:100EB0006D7065726174757261203D20002043522F
:100EC000433D00202044617461203D2000204E6994
:100ED000657A6E616E792044533138787800204409
:100EE00053313832320020445331384232300020FE
:100EF0004453313853323000626C616420435243B2
:100F00000044414C4C41533A204944203D00204389
:100F10007A6173206B6F6D656E6461206B6F6E77A5
:100F20006572736A6920646C6120637A756A6E69A0
:100F30006B61203D200044414C4C41533A20506F9E
:100F4000637A6174656B20706F737A756B69776112
:100F50006E696120637A756A6E696B6F772E0052D5
:100F600054433A206F64637A7974207A61736F62B4
:100F70006E696B613A0053544152540053544152CC
:100F8000540049503A206272616B20457468657262
:100F9000536869656C642E2E2E005757573A737448
:100FA000726F6E6120676F746F7761005757573AA1
:100FB0007572756368616D69616D207374726F6EAF
:100FC000652E2E2E0049503A20646E733A00495027
:100FD0003A206272616D613A0049503A206D617346
:100FE0006B613A0049503A2061647265733A004976
:100FF000503A206D61633A0049503A20706F62693F
:101000006572616E696520616472657375207A200E
:10101000444843502E2E2E006272616B0049503AB4
:1010200020636869702E2E2E00576F6C6E792052E7
:10103000414D3A0049503A206B6F6E666967757290
:1010400061636A612073696563692E2E2E00576F94
:101050006C6E792052414D3A00576F6C6E79205278
:10106000414D3A00576F6C6E792052414D3A005312
:10107000443A20626C6164206F64637A79747520ED
:1010800064616E7963680053443A20626C61642045
:101090006B617274790053443A206272616B206B09
:1010A0006172747900454550524F4D3A206E696522
:1010B000207A6E616C657A696F6E6F00454550529B
:1010C0004F4D3A207A6E616C657A696F6E6F00528F
:1010D00054433A206272616B2044533133303700FD
:1010E0005254433A2053544F50202D3E20535441E4
:1010F0005254005254433A207A6E616C657A696F9B
:101100006E6F2044533133303700302E312E302E65
:101110003132392E32004C75636A616E20762E00B2
:101120001F1F1F0000000000181C1E1F1F1F1F1F75
:101130001F1F1F1F1F0F070300000000001F1F1F9E
:101140001F1F1F1F1F1E1C181F1F1F0000001F1F17
:101150001F000000001F1F1F03070F1F1F1F1F1F5F
:101160004932433A20536B616E6F77616E69652037
:101170002E2E2E00302E312E302E3132392E3200CE
:101180004C75636A616E20762E00302E312E302E23
:101190003132392E32004C75636A616E20762E0032
:1011A0002020000000000000FF07000000000000F9
:1011B000050520200000000004FF04FF0401FF01DA
:1011C00008FF0607FF0500000120040104012004B8
:1011D00008060220030702040520000000000000AA
:1011E00008010304000000000102040500000000E3
:1011F000010404010401010404FF0401FF010000D3
:10120000200500000000000004040420202000004D
:101210002004000000000000202004010401202020
:10122000080102030405000001022004FF0400007D
:10123000060602FF0707000001060204070500007A
:101240000304FF2020FF0000FF060607070500003B
:10125000080606030705000001010220082000001F
:10126000080602030705000008060207070500003C
:10127000A5A500000000000004050000000000001B
:101280002004010101040000040404010101000024
:1012900001042004010100000106022007200000D3
:1012A0000806020304040000080602FF20FF0000F5
:1012B000FF0605FF07020000080101030404000007
:1012C000FF0102FF04050000FF0606FF07070000FC
:1012D000FF0606FF202000000801010304020000B1
:1012E000FF04FFFF20FF000001FF0104FF040000D6
:1012F0002020FF0404050000FF0405FF2002000079
:10130000FF2020FF0404000008030502FF2020FF47
:10131000FF0220FFFF2003FF080102030405000075
:10132000080602FF20200000080102200304FF0439
:10133000FF0602FF2002000008060607070500005E
:1013400001FF0120FF200000FF20FF030405000033
:101350000320200520020820FF2020FF03080205AB
:10136000030405082002000003040520FF200000FC
:101370000106050807040000FF01FF04000000004B
:10138000010420202020010401FF04FF00000000D0
:101390000802202000000000202020040404000097
:1013A0006E6F77613A202020202020202533642092
:1013B0002000505241434120202020202020202086
:1013C0002020005A415359502E4D4F433A20253387
:1013D00064252520202020006E6F77613A20202090
:1013E00020202020253364202000504F4454525A9E
:1013F000594D414E4945202020200052522E435A3B
:1014000041533A2020202533646D20202020006E97
:101410006F77613A2020202020202025336420206F
:1014200000504F4454525A594D414E4945202020B6
:10143000200052522E4D4F433A2020202025336465
:10144000252520202020006E6F77613A2020202063
:10145000202020253364202000504F4454525A59F4
:101460004D414E4945202020200052522E504F53CE
:10147000544F4A3A202533647320202020006E6F99
:1014800077613A202020202020202533642020006E
:10149000504F4454525A594D414E49452020202026
:1014A0000052522E504F4441572E3A202533647338
:1014B0002020202020006E6F77613A2020202020FD
:1014C0002020253364202000505241434120202019
:1014D00020202020202020200052522E4D4F433A21
:1014E000202020202533642525202020006E6F77C2
:1014F000613A202020202020202533642020005025
:101500005241434120202020202020202020200064
:1015100052522E504F53544F4A2E3A253364732063
:10152000202020006E6F77613A202020202020208C
:1015300025336420200050524143412020202020A8
:101540002020202020200052522E504F4441572E60
:101550003A202533647320202020006E6F77613A93
:10156000202020202020202533642020002020203F
:10157000202020202020202020202020200020208B
:101580002020202052524D322020202020200020D8
:10159000202020202052524D2020202020202000DA
:1015A00020202020202052522020202020202020D7
:1015B00000202020205A415359504F5759202020B5
:1015C000200020202045434F414C2F4252554C498A
:1015D00020200020202057594C41435A4F4E59207B
:1015E000202020005049454320414C474F52595438
:1015F0004D3A2020002020202020202020202020C4
:10160000202020202000205E5E2020575354454398
:101610005A20205E5E2000202020205350414C4163
:101620004E4941202020200020202055535441576E
:1016300049454E4941202020002020202020202004
:10164000202020202020202020002020205553541E
:10165000415749454E49412020200020202020208C
:10166000202020202020202533642525005A4153A6
:101670004F424E494B3A20202020202020005A4142
:10168000534F424E494B3A2050454C4E4520555AF7
:101690005550454C4E49454E4945006E6F77613A6D
:1016A00020202020202020253364202000202020FE
:1016B00020202020202020202020202020005A41EF
:1016C00044414E4120434F3A2025336420202020BE
:1016D000200054525942205245435A4E593A202034
:1016E00020200054523A205245435A4E593A202560
:1016F00064002020202020202020202020202533AE
:1017000064252500444D5543484157413A20202047
:10171000202020200054523A20444D554348415740
:1017200041204D4F433A20256400504F44414A4EDA
:10173000494B3A202020202020200054523A2050AB
:101740004F44414A4E494B3A202564005A41572E96
:101750003444205A414D594B414A3A200054523AA0
:10176000205A3444205A414D3A202564005A4157AA
:101770002E3444204F5457494552414A3A0054525E
:101780003A205A3444204F54573A20256400504F91
:101790004D5041204359524B554C3A202020005483
:1017A000523A2050204359524B3A20256400504F62
:1017B0004D504120435755323A20202020200054DC
:1017C000523A205020435755323A20256400504F5A
:1017D0004D504120435755313A20202020200054BD
:1017E000523A205020435755313A20256400504F3B
:1017F0004D504120434F3A202020202020200054EB
:10180000523A205020434F3A2025640054383A255C
:101810003032642E2564202020202020202020002B
:1018200054373A253032642E256420202020202091
:101830002020200054363A253032642E25642020A2
:10184000202020202020200054353A253032642EDC
:1018500025642020202020202020200054343A25F8
:101860003032642E256420202020202020202000DB
:1018700054333A253032642E256420202020202045
:101880002020200054323A253032642E2564202056
:10189000202020202020200054313A253032642E90
:1018A0002564202020202020202020005350414C5F
:1018B000494E593A253033642E25642020200050AB
:1018C0004F444C4F47413A253032642E2564202046
:1018D0002020002020202020202020202020202028
:1018E00020202000504F44414A4E494B3A25303287
:1018F000642E2564202020005745574E3A2025307D
:1019000032642E25642020202020200025303264DF
:101910002E2564202020202020005A45574E3A00D2
:10192000504F57524F543A253032642E25642020B0
:1019300020202000504F57523A253032642E256423
:10194000205A3A253032642E256400434F3A253020
:1019500032642E25642020202020202020200043D7
:101960004F3A253032642E2564205A34443A2530CB
:1019700032642E25640050525A4550414C4F4E5906
:101980002042455A502E002020202020414C415218
:101990004D202020202020004E49534B49205354F5
:1019A000414E205A41534F42002020202020414CDC
:1019B00041524D2020202020200054454D502E4DD6
:1019C000414B532E504F44414A2E002020202020CE
:1019D000414C41524D2020202020200054454D50A4
:1019E0002E204D414B532E5049454341002020208D
:1019F0002020414C41524D2020202020200020203A
:101A0000202020414C41524D4F57202020200020C3
:101A100020202020204252414B2020202020200046
:101A2000414C4D3A20534B41534F57414E4F20505C
:101A3000525A4550414C4F4E592042455A50494503
:101A4000435A4E494B00414C4D3A20534B41534F62
:101A500057414E4F20504F44414A4E494B2053541A
:101A6000414E204D494E00414C4D3A20534B41537D
:101A70004F57414E4F20504F44414A4E494B2054FE
:101A80004D415800414C4D3A20534B41534F574123
:101A90004E4F205049454320544D415800414C4D34
:101AA0003A204E494320444F20534B41534F574116
:101AB0004E494100202020202020434F3A00414C35
:101AC00041524D20434F3A00253032643A2530329E
:101AD0006420434F3A004357553A253032642E254F
:101AE00064200020706F323A200020706F3A20008E
:101AF00070727A65643A00204F4B0D0A00485454C6
:101B0000502F312E31200020743A0020653A0020F9
:101B10006D3A00206F3A0020703A002049443A00A4
:101B200044414C4C4153200058585845434F414C78
:101B3000004252414B004252414B00534F46540029
:101B4000534F4654004D415836363735004D4158B5
:101B500036363735004D41583331383535004D4133
:101B60005833313835350044414C4C4153204E52A6
:101B7000203D200044414C4C4153005350414C49BE
:101B80004E5900504F444C4F474100435755005762
:101B90004557005A455700504F44414A4E494B0063
:101BA000504F57524F5400434F004252554C49003A
:101BB00045434F414C0054380054370054360054CC
:101BC000350054340054330054320054310054531F
:101BD00050414C494E590054504F444C4F474100DE
:101BE00054435755005457455700545A45570054CD
:101BF000504F44414A4E494B0054504F57524F5456
:101C0000005450494543007C3C3E5E2B3D3F2F5BDA
:101C10005D3B2C2A225C0044454C455445004F5006
:101C200054494F4E530050555400504F53540047A1
:101C30004554005254433A207A61706973207A61A6
:101C4000736F626E696B613A00202D3E2000444D37
:101C50003A200057594741535A414E49453A20537B
:101C600054415254004D4945535A414E4945004252
:101C7000415254454B00574C41435A004252554C37
:101C8000490045434F414C0057594C41435A4F4E30
:101C9000590043594B4C49435A4E59004349414717
:101CA0004C5900205434443A00207A6164616E61DA
:101CB0003A0034443A20435A454B414D59202D2097
:101CC00064656C74613A00205434443A00207A61AF
:101CD00064616E613A00206B726F6B3A0034443A73
:101CE000204B524543494D59202D2064656C746149
:101CF0003A0034443A205445524D4F5354415420F5
:101D00004F46460034443A205445524D4F535441B7
:101D100054204F4E002020203C574C41435A4F4EF8
:101D2000593E202020002020203C57594C41435A46
:101D30004F4E593E2020004E54503A20557A797328
:101D40006B616E6F20637A617320756E6978746958
:101D50006D653A004E54503A20444E532025643A63
:101D600020004554483A206E696520757A79736B76
:101D7000616E6F20637A617375207A204E54500033
:101D80004553503A206E696520757A79736B616EA0
:101D90006F20637A617375207A204E54500045534A
:101DA000503A20706F62696572616D20637A617369
:101DB000002020202020202000647A69656E3A00EF
:101DC0006861726D6F6E6F6772616D206379726B9F
:101DD000756C61636A693A00434D443F3F004E456C
:101DE00045445F53594E4321002000524553505FF4
:101DF00043423A2000524553505F563A2000454C2A
:101E0000433A20496E76616C696420435243002056
:101E100000200020003A2000204000454C433A209A
:101E2000676F742000005EBCE2613FDD83C29C7E70
:101E300020A3FD1F419DC3217FFCA2401E5F01E343
:101E4000BD3E6082DC237D9FC1421CFEA0E1BF5DE0
:101E50000380DE3C62BEE0025CDF81633D7C22C029
:101E60009E1D43A1FF4618FAA427799BC584DA3842
:101E700066E5BB5907DB856739BAE406581947A5FB
:101E8000FB7826C49A653BD987045AB8E6A7F91BA4
:101E900045C6987A24F8A6441A99C7257B3A6486E1
:101EA000D85B05E7B98CD2306EEDB3510F4E10F20E
:101EB000AC2F7193CD114FADF3702ECC92D38D6FAB
:101EC00031B2EC0E50AFF1134DCE90722C6D33D178
:101ED0008F0C52B0EE326C8ED0530DEFB1F0AE4C91
:101EE0001291CF2D73CA947628ABF517490856B4D2
:101EF000EA6937D58B5709EBB536688AD495CB2973
:101F000077F4AA4816E9B7550B88D6346A2B75972B
:101F1000C94A14F6A8742AC896154BA9F7B6E80A58
:101F200054D7896B351F1C1F1E1F1E1F1F1E1F1E0F
:101F30001F57594741535A414E49453A205433207F
:101F40004F4B0057594741535A414E49453A205447
:101F500050494543204F4B0057594741535A414E32
:101F600049453A20545350414C494E204F4B00575D
:101F7000594741535A414E49453A20645350414CC8
:101F8000494E2025642C2064504945432025642C6B
:101F900020645433202564002A2A4833002A2A4723
:101FA0004D32002A2A4732002A2A474D2D002A2A7C
:101FB0004731002A2A5032002A2A5031002A2A4466
:101FC00032002A2A4431002A2A5432002A2A543163
:101FD0000070727A656A73636965206E6120706F44
:101FE0006474727A796D616E69652025643E3D2561
:101FF000640070727A656A73636965206E61206E31
:1020000061646D75636820746C6F002A2A48330020
:102010002A2A4732002A2A4731002A2A5032002A27
:102020002A5031002062616A746F772900206D7335
:1020300020286F64656272616E6F20002062616AA1
:10204000746F77207720005757573A205A6170698C
:1020500073616E6F20005757573A205A6170697349
:10206000756A6520706C696B3A00444953434F4E62
:102070004E454354454400435755323A0043575563
:10208000313A00434F3A004D4F433A256420686986
:1020900073743A2520336420706F643A25203364CA
:1020A00020706F733A2520346420646D3A25203304
:1020B00064206C69637A3A256400424C4144004FC5
:1020C0004B004B4F004F4B0066756C6C00575757D9
:1020D0003A20736574200020743A0020653A00208D
:1020E0006D3A00206F3A0020703A002049443A00CF
:1020F00044414C4C41532000444953434F4E4E45BC
:10210000435445440077656E74796C61746F723A1C
:1021100000435755323A00435755313A00616363E3
:102120006573732D636F6E74726F6C2D616C6C6F61
:10213000772D6F726967696E3A202A0A002E002D8A
:1021400000227D00302E312E302E3132392E3200D9
:102150002C22766572223A22002274696D65223A39
:10216000002C0022616C223A20002C00300031004B
:1021700022746572223A20002C0030003100226364
:1021800079726B223A20002C0030003100226377F4
:102190007532223A20002C0030003100226377751E
:1021A00031223A20002C003000310022636F223AA5
:1021B00020002C003000310022706F64223A200091
:1021C0002C0022706F64676D696E223A20002C002B
:1021D00022706F64637A646F223A20002C002270B0
:1021E0006F64637A7A6173223A20002C0022706F48
:1021F00064637A223A20002C002277656E31223AFD
:1022000020002C002277656E30223A20007D5D2C64
:10221000007B2274223A20007D2C007B22746865AA
:10222000726D6F73223A5B006163636573732D6334
:102230006F6E74726F6C2D616C6C6F772D6F72693D
:1022400067696E3A202A0A00050505050705080892
:102250000808020202020A0A080804040404010130
:102260000101010101010303030303030303040745
:1022700007070C0C0C0C0C0C0C0C020202020606DC
:102280000606060606060B0B0B0B0B0B0B0B0102CF
:102290001020200808102040102040800201020178
:1022A0000804020101020408102040808040201030
:1022B0000804020180040201804020100804020189
:1022C00008040201010204081020408001020408F1
:1022D00010204080000020002300260029002C0050
:1022E0002F00320000010000030106010901303215
:1022F00030313030303630303030303030303631D0
:1023000030330000316253C4F5A697B988DBEA7D0B
:102310004C1F2E4372211087B6E5D4FACB98A93E04
:102320000F5C6D86B7E4D5427320113F0E5D6CFBE8
:10233000CA99A8C5F4A796013063527C4D1E2FB8E8
:1023400089DAEB3D0C5F6EF9C89BAA84B5E6D740ED
:102350007122137E4F1C2DBA8BD8E9C7F6A59403C2
:10236000326150BB8AD9E87F4E1D2C02336051C6C2
:10237000F7A495F8C99AAB3C0D5E6F4170231285A6
:10238000B4E7D67A4B1829BE8FDCEDC3F2A19007D3
:1023900036655439085B6AFDCC9FAE80B1E2D34408
:1023A000752617FCCD9EAF38095A6B4574271681E8
:1023B000B0E3D2BF8EDDEC7B4A192806376455C2E4
:1023C000F3A0914776251483B2E1D0FECF9CAD3ABD
:1023D0000B586904356657C0F1A293BD8CDFEE79C6
:1023E000481B2AC1F0A3920534675678491A2BBCC2
:1023F0008DDEEF82B3E0D1467724153B0A5968FFA2
:10240000CE9DAC436F6E74656E742D547970653AD1
:10241000200048544D2A746578742F68746D6C7C64
:102420005458542A746578742F706C61696E7C43BB
:1024300053532A746578742F6373737C584D4C2AF8
:10244000746578742F786D6C7C4A532A746578743F
:102450002F6A6176617363726970747C4749462A9A
:10246000696D6167652F6769667C4A50472A696DA7
:102470006167652F6A7065677C504E472A696D6198
:1024800067652F706E677C49434F2A696D61676588
:102490002F766E642E6D6963726F736F66742E692A
:1024A000636F6E7C4D50332A617564696F2F6D7058
:1024B00065677C006163636573732D636F6E74720F
:1024C0006F6C2D616C6C6F772D6F726967696E3AF6
:1024D000202A0A006163636573732D636F6E7472E3
:1024E0006F6C2D616C6C6F772D6F726967696E3AD6
:1024F000202A0A002F6D6F64756C61636A61006148
:1025000063636573732D636F6E74726F6C2D616C92
:102510006C6F772D6F726967696E3A202A0A002FF7
:10252000683464006163636573732D636F6E7472E6
:102530006F6C2D616C6C6F772D6F726967696E3A85
:10254000202A0A00227D00302E312E302E313239E1
:102550002E32002C22766572223A22007B22746988
:102560006D65223A006163636573732D636F6E74EA
:10257000726F6C2D616C6C6F772D6F726967696E0D
:102580003A202A0A004553503A20574946492065C7
:1025900072726F723A20004553503A2057494649AB
:1025A000206F6B004241443A200053594E432100B2
:1025B0006A657374006272616B004553503A207310
:1025C0007A756B616D206573702D6C696E6B202E52
:1025D0002E2E200000002100240027002A002D00BC
:1025E0003000330001010000040107010A0100006E
:1025F0002200250028002B002E00310034000201AB
:102600000000050108010B0100000A0B02090C0D76
:102610000E08070304010000000000000000000095
:1026200000000000000000000000000000000000AA
:102630000000000012111000000000000000000067
:1026400000000000000000000000000000005344F3
:102650003A206272616B20706C696B7520636F6EDB
:102660006669672E747874005D00636F6E666967D3
:102670003A205B005757573A206272616B20706CAA
:10268000696B753A20005757573A204F64637A793F
:102690007420706C696B753A006163636573732DA8
:1026A000636F6E74726F6C2D616C6C6F772D6F72CF
:1026B0006967696E3A202A0A005757573A20426CD8
:1026C000616420706172736F77616E696120555229
:1026D0004C00DDBED5BE11241FBECFEFD1E2DEBF60
:1026E000CDBF00E00CBF15E0A0E0B2E0EAE8FAE9F7
:1026F00001E00BBF02C007900D92AC3EB107D9F7C5
:1027000024E1ACEEB5E001C01D92A533B207E1F7BC
:1027100013E1CAE6D3E100E006C021970109802F4A
:10272000FE010E947ACBC936D10780E00807A9F7DD
:102730000E9418A90C9434CD0C9400008F929F92A3
:10274000AF92BF92CF92DF92EF92FF920F931F93BF
:10275000CF93DF93CDB7DEB769970FB6F894DEBF9E
:102760000FBECDBF8C0140E050E06DE30E94EF97BB
:102770006C01D80114968D919C9115971816190625
:1027800014F00C942E2BBFEFCB16DB0611F40C9437
:102790002E2BA6014F5F5F4FB801CE010D960E9410
:1027A000C256CE010D960E94909768E579E0CE0161
:1027B00001960E940C99BE016F5F7F4FC8010E9475
:1027C0001D98F82ECE0101960E940799FF2009F46A
:1027D0005EC0960142E050E0B801CE0101960E9431
:1027E0006F99BE016F5F7F4FC8010E947198CE0143
:1027F00001960E940799CE010D960E9485974B0184
:102800005C01C8010E94C6518F3F11F40C94052B46
:10281000E7E08E02C00111249C012A57364F79014E
:10282000D90114968C91813011F00C94052B64E53C
:1028300079E087E791E10E944C9CB80187E791E13C
:102840000E942E9C62E579E087E791E10E944C9C12
:10285000F701608171814AE050E087E791E10E94D1
:10286000E39B6FE479E087E791E10E944C9C4AE0AA
:1028700050E0B40187E791E10E94E39B87E791E193
:102880000E94549BD7018D929C920C94052B67E477
:1028900079E0CE0101960E940C99BE016F5F7F4FD7
:1028A000C8010E941D98F82ECE0101960E9407993A
:1028B000FF2049F1960147E050E0B801CE010196B2
:1028C0000E946F99BE016F5F7F4FC8010E9471988F
:1028D000CE0101960E940799CE010D960E94859720
:1028E0006B017C01C8010E94C6518F3F11F40C940A
:1028F000052BB7E08B02F0011124EA57F64FD38283
:10290000C2820C94052B6FE379E0CE0101960E9400
:102910000C99BE016F5F7F4FC8010E941D98F82E71
:10292000CE0101960E940799FF2009F44AC08989C7
:102930009A890C9711F00C94052BE12CF12CD12CD9
:102940000E2DB701CE010D960E940B98FC018081DF
:102950000E942D538F3F89F1182F1295107FB701D8
:102960006F5F7F4FCE010D960E940B98DC018C911A
:102970000E942D538F3F09F10695E1E0F0E0EC0F46
:10298000FD1FE00FF11D810F8083BAE0EB16F1040B
:1029900011F4DD24D394E2E0EE0EF11CFCE0EF161E
:1029A000F10471F6DD2049F086E0FE013196A5EBD9
:1029B000B2E001900D928A95E1F70E94FF630C94BA
:1029C000052B68E379E0CE0101960E940C99BE01C7
:1029D0006F5F7F4FC8010E941D98E82ECE010196BF
:1029E0000E940799EE2009F45EC088EB93E09A8379
:1029F00089831B821C821D821E82BE01635F7F4F02
:102A0000CE0101960E948155882329F08B819C81FB
:102A1000AD81BE813AC063E379E0CE0107960E94A2
:102A20000C9989899A892B853C8582179307F9F43B
:102A3000892BD9F00D851E85CF80D884F80181912E
:102A40008F01882391F0082E000C990B0E9493CCE3
:102A50005C01D6018D916D01082E000C990B0E942E
:102A600093CCA816B90651F302C0FF24F394CE010B
:102A700007960E940799FF2081F080912C13909176
:102A80002D13A0912E13B0912F138093FC109093CF
:102A9000FD10A093FE10B093FF108AEF90E10E940A
:102AA00068A10C94052B69E279E0CE0101960E94A1
:102AB0000C99BE016F5F7F4FC8010E941D98F82ED0
:102AC000CE0101960E940799FF2049F188EB93E01F
:102AD0009A8389831B821C821D821E82BE01635FD2
:102AE0007F4FCE0101960E948155882391F08B8102
:102AF0009C81AD81BE818093F6109093F710A093D6
:102B0000F810B093F910CE0101960E9468A10C94C0
:102B1000052BCE0101960E9468A10C94052B6FE154
:102B200079E0CE0101960E940C99BE016F5F7F4F44
:102B3000C8010E941D98F82ECE0101960E940799A7
:102B4000FF2049F188EB93E09A8389831B821C82E2
:102B50001D821E82BE01635F7F4FCE0101960E94DF
:102B60008155882391F08B819C81AD81BE818093BA
:102B7000F0109093F110A093F210B093F310CE01E7
:102B800001960E9468A10C94052BCE0101960E942B
:102B900068A10C94052B67E179E0CE0101960E94B3
:102BA0000C99BE016F5F7F4FC8010E941D98F82EDF
:102BB000CE0101960E940799FF2049F188EB93E02E
:102BC0009A8389831B821C821D821E82BE01635FE1
:102BD0007F4FCE0101960E948155882391F08B8111
:102BE0009C81AD81BE818093EA109093EB10A093FD
:102BF000EC10B093ED10CE0101960E9468A10C94E8
:102C0000052BCE0101960E9468A10C94052B63E070
:102C100079E0CE0101960E940C99BE016F5F7F4F53
:102C2000C8010E941D98F82ECE0101960E940799B6
:102C3000F1100C94052B69EF78E0CE0101960E940B
:102C40000C99BE016F5F7F4FC8010E941D98F82E3E
:102C5000CE0101960E940799FF2041F0CE010D960A
:102C60000E948597609360080C94052B69EE78E0CC
:102C7000CE0101960E940C99BE016F5F7F4FC80183
:102C80000E941D98F82ECE0101960E940799FF2000
:102C900041F0CE010D960E948597609361080C94D7
:102CA000052B6CED78E0CE0101960E940C99BE01D7
:102CB0006F5F7F4FC8010E941D98F82ECE010196CC
:102CC0000E940799FF2041F0CE010D960E94859742
:102CD000609362080C94052B6AEC78E0CE010196B3
:102CE0000E940C99BE016F5F7F4FC8010E941D9822
:102CF000F82ECE0101960E940799FF2051F0CE01D7
:102D00000D960E94859770936408609363080C94F5
:102D1000052B69EB78E0CE0101960E940C99BE016B
:102D20006F5F7F4FC8010E941D98F82ECE0101965B
:102D30000E940799FF2051F0CE010D960E948597C1
:102D400070936C0860936B080C94052B6DEA78E027
:102D5000CE0101960E940C99BE016F5F7F4FC801A2
:102D60000E941D98F82ECE0101960E940799FF201F
:102D700051F0CE010D960E9485977093680860937C
:102D800067080C94052B62EA78E0CE0101960E9458
:102D90000C99BE016F5F7F4FC8010E941D98F82EED
:102DA000CE0101960E940799FF2051F0CE010D96A9
:102DB0000E9485977093700860936F080C94052BA0
:102DC00062E978E0CE0101960E940C99BE016F5F26
:102DD0007F4FC8010E941D98F82ECE0101960E94D7
:102DE0000799FF2051F0CE010D960E9485977093B0
:102DF0006608609365080C94052B63E878E0CE01C3
:102E000001960E940C99BE016F5F7F4FC8010E941E
:102E10001D98F82ECE0101960E940799FF2051F0CF
:102E2000CE010D960E94859770936E0860936D0891
:102E30000C94052B66E778E0CE0101960E940C9970
:102E4000BE016F5F7F4FC8010E941D98F82ECE0112
:102E500001960E940799FF2051F0CE010D960E9425
:102E6000859770936A08609369080C94052B6AE64D
:102E700078E0CE0101960E940C99BE016F5F7F4FF2
:102E8000C8010E941D98F82ECE0101960E94079954
:102E9000FF2051F0CE010D960E9485977093720825
:102EA000609371080C94052B63E678E0CE010196DF
:102EB0000E940C99BE016F5F7F4FC8010E941D9850
:102EC000F82ECE0101960E940799FF2079F1CE01DC
:102ED0000D960E948597162F862F0E9489C31F92F8
:102EE0001F938AE498E09F938F9387E791E19F93E4
:102EF0008F930E94765687E791E10E94549B1F9220
:102F00001F9381E398E09F938F9381EC9DE09F93C3
:102F10008F930E94765681EC9DE00E94549B0FB6E1
:102F2000F894DEBF0FBECDBF0C94052B67E178E0AF
:102F3000CE0101960E940C99BE016F5F7F4FC801C0
:102F40000E941D98F82ECE0101960E940799FF203D
:102F500099F0CE010D960E9485976F3F710509F09B
:102F60002CF41616170624F00C94052B6FEF70E066
:102F7000609374080C94052B65E078E0CE0101960F
:102F80000E940C99BE016F5F7F4FC8010E941D987F
:102F9000F82ECE0101960E940799FF2081F0CE0104
:102FA0000D960E9485979B01215031092A353105E4
:102FB00010F00C94052B609376080C94052B6AEEA8
:102FC00077E0CE0101960E940C99BE016F5F7F4FA2
:102FD000C8010E941D98F82ECE0101960E94079903
:102FE000FF2069F0CE010D960E9485976B35710523
:102FF00010F00C94052B609377080C94052B64ED6E
:1030000077E0CE0101960E940C99BE016F5F7F4F61
:10301000C8010E941D98F82ECE0101960E940799C2
:10302000FF2081F0CE010D960E9485979B012150D3
:1030300031092336310510F00C94052B6093730889
:103040000C94052B65EC77E0CE0101960E940C995B
:10305000BE016F5F7F4FC8010E941D98F82ECE0100
:1030600001960E940799FF2081F0CE010D960E94E3
:1030700085979B01215031092A35310510F00C94B8
:10308000052B609375080C94052B68EA77E0CE0158
:1030900001960E940C99BE016F5F7F4FC8010E948C
:1030A0001D98F82ECE0101960E940799FF20A9F0E5
:1030B000CE010D960E9485976115710581059105D8
:1030C00011F40C94052B6093780870937908809321
:1030D0007A0890937B080C94052B60E977E0CE0189
:1030E00001960E940C99BE016F5F7F4FC8010E943C
:1030F0001D98F82ECE0101960E940799FF2081F0BD
:10310000CE010D960E94859760937C0870937D0890
:1031100080937E0890937F080E94BE630C94052BD9
:1031200064E777E0CE0101960E940C99BE016F5FC3
:103130007F4FC8010E941D98F82ECE0101960E9473
:103140000799FF2079F0CE010D960E9485976115B1
:10315000710511F40C94052B70938108609380081D
:103160000C94052B61E677E0CE0101960E940C9944
:10317000BE016F5F7F4FC8010E941D98F82ECE01DF
:1031800001960E940799FF2041F0CE010D960E9402
:103190008597609382080C94052B66E577E0CE0155
:1031A00001960E940C99BE016F5F7F4FC8010E947B
:1031B0001D98F82ECE0101960E940799FF2081F0FC
:1031C000CE010D960E9485979B012150310923362F
:1031D000310510F00C94052B609388080C94052B96
:1031E0006BE477E0CE0101960E940C99BE016F5FFF
:1031F0007F4FC8010E941D98F82ECE0101960E94B3
:103200000799FF2081F0CE010D960E9485979B01C2
:10321000215031092336310510F00C94052B6093B1
:1032200087080C94052B61E477E0CE0101960E949B
:103230000C99BE016F5F7F4FC8010E941D98E82E58
:10324000CE0101960E940799EE2009F452C0BE01FA
:10325000635F7F4FCE0107960E9442996DE371E054
:10326000CE0101960E940C99BE016F5F7F4FCE0187
:1032700007960E941D98182FCE0101960E9407996B
:1032800011112DC066E371E0CE0101960E940C99E8
:10329000BE016F5F7F4FCE0107960E941D98182FC9
:1032A000CE0101960E940799111114C06CE271E0E1
:1032B000CE0101960E940C99BE016F5F7F4FCE0137
:1032C00007960E941D98182FCE0101960E9407991B
:1032D000111103C0FF24F39402C082E0F82EF09293
:1032E0008408CE0107960E9407990E94BEBE0C94E6
:1032F000052B65E377E0CE0101960E940C99BE0193
:103300006F5F7F4FC8010E941D98F82ECE01019675
:103310000E940799FF2081F0CE010D960E948597AB
:103320009B01215031092336310510F00C94052BF7
:10333000609385080C94052B66E277E0CE01019638
:103340000E940C99BE016F5F7F4FC8010E941D98BB
:10335000F82ECE0101960E940799FF2081F0CE0140
:103360000D960E9485979B01215031092336310526
:1033700010F00C94052B609386080C94052B68E1E3
:1033800077E0CE0101960E940C99BE016F5F7F4FDE
:10339000C8010E941D98F82ECE0101960E9407993F
:1033A000FF2009F49AC0BE01635F7F4FCE014396B0
:1033B0000E9442996DE571E0CE0101960E940C9940
:1033C000BE016F5F7F4FCE0143960E941D98811111
:1033D00016C067E571E0CE0107960E940C99BE0108
:1033E000695F7F4FCE0143960E941D9811E08111C5
:1033F00001C010E0CE0107960E94079901C011E0BC
:10340000CE0101960E940799112321F01092190212
:1034100011E057C06EE471E0CE0101960E940C9954
:10342000BE016F5F7F4FCE0143960E941D98182FFB
:10343000CE0101960E94079911113EC069E471E026
:10344000CE0101960E940C99BE016F5F7F4FCE01A5
:1034500043960E941D98182FCE0101960E9407994D
:1034600011112CC065E471E0CE0101960E940C9907
:10347000BE016F5F7F4FCE0143960E941D98182FAB
:10348000CE0101960E94079911111AC062E471E001
:10349000CE0101960E940C99BE016F5F7F4FCE0155
:1034A00043960E941D98182FCE0101960E940799FD
:1034B000112339F013E005C012E003C015E001C08C
:1034C00014E010938308CE0143960E9407998091DF
:1034D000830880938D080C94052B6DE077E0CE0176
:1034E00001960E940C99BE016F5F7F4FC8010E9438
:1034F0001D98F82ECE0101960E940799FF2081F0B9
:10350000CE010D960E9485979B01215031092336EB
:10351000310510F00C94052B609394080C94052B46
:1035200064E077E0CE0101960E940C99BE016F5FC6
:103530007F4FC8010E941D98F82ECE0101960E946F
:103540000799FF2099F0BE01635F7F4FCE0101967E
:103550000E944299CE0101960E9435BE8093920846
:10356000CE0101960E9407990C94052B67EF76E037
:10357000CE0101960E940C99BE016F5F7F4FC8017A
:103580000E941D98F82ECE0101960E940799FF20F7
:1035900099F0BE01635F7F4FCE0101960E94429970
:1035A000CE0101960E94E0BD80939308CE01019662
:1035B0000E9407990C94052B69EE76E0CE010196E6
:1035C0000E940C99BE016F5F7F4FC8010E941D9839
:1035D000F82ECE0101960E940799FF2099F0BE01B6
:1035E000635F7F4FCE0101960E944299CE01019602
:1035F0000E9435BE80939708CE0101960E940799DC
:103600000C94052B6BED76E0CE0101960E940C998F
:10361000BE016F5F7F4FC8010E941D98F82ECE013A
:1036200001960E940799FF2069F0CE010D960E9435
:1036300085976536710510F00C94052B60939608FC
:103640000C94052B61ED76E0CE0101960E940C9959
:10365000BE016F5F7F4FC8010E941D98F82ECE01FA
:1036600001960E940799FF2081F0CE010D960E94DD
:1036700085979B01215031092336310510F00C94B8
:10368000052B609395080C94052B65EC76E0CE0134
:1036900001960E940C99BE016F5F7F4FC8010E9486
:1036A0001D98F82ECE0101960E940799FF2081F007
:1036B000CE010D960E9485979B012150310923363A
:1036C000310510F00C94052B60939A080C94052B8F
:1036D00066EB76E0CE0101960E940C99BE016F5F09
:1036E0007F4FC8010E941D98F82ECE0101960E94BE
:1036F0000799FF2069F0CE010D960E9485976536E7
:10370000710510F00C94052B60939B080C94052B0D
:103710006CEA76E0CE0101960E940C99BE016F5FC3
:103720007F4FC8010E941D98F82ECE0101960E947D
:103730000799FF2099F0BE01635F7F4FCE0101968C
:103740000E944299CE0101960E9435BE809398084E
:10375000CE0101960E9407990C94052B6EE976E044
:10376000CE0101960E940C99BE016F5F7F4FC80188
:103770000E941D98F82ECE0101960E940799FF2005
:1037800099F0BE01635F7F4FCE0101960E9442997E
:10379000CE0101960E94E0BD80939908CE0101966A
:1037A0000E9407990C94052B61E976E0CE01019601
:1037B0000E940C99BE016F5F7F4FC8010E941D9847
:1037C000F82ECE0101960E940799FF2041F0CE010C
:1037D0000D960E94C65180939C080C94052B69E8B5
:1037E00076E0CE0101960E940C99BE016F5F7F4F7B
:1037F000C8010E941D98F82ECE0101960E940799DB
:10380000FF2009F46AC0BE01635F7F4FCE0143967B
:103810000E94429963E771E0CE0101960E940C99E3
:10382000BE016F5F7F4FCE0143960E941D988111AC
:1038300016C06DE671E0CE0107960E940C99BE019C
:10384000695F7F4FCE0143960E941D9811E0811160
:1038500001C010E0CE0107960E94079901C011E057
:10386000CE0101960E940799112321F010921902AE
:1038700011E02BC068E671E0CE0101960E940C9920
:10388000BE016F5F7F4FCE0143960E941D98182F97
:10389000CE0101960E940799111116C063E671E0EE
:1038A000CE0101960E940C99BE016F5F7F4FCE0141
:1038B00043960E941D98182FCE0101960E940799E9
:1038C000112319F013E001C012E010938E08CE010D
:1038D00043960E9407990C94052B6DE776E0CE0184
:1038E00001960E940C99BE016F5F7F4FC8010E9434
:1038F0001D98F82ECE0101960E940799FF2099F09D
:10390000BE01635F7F4FCE0101960E944299CE01B6
:1039100001960E94E0BD80938F08CE0101960E941F
:1039200007990C94052B6FE676E0CE0101960E9474
:103930000C99BE016F5F7F4FC8010E941D98F82E41
:10394000CE0101960E940799FF2069F0CE010D96E5
:103950000E9485971616170614F00C94052B609399
:1039600090080C94052B60E676E0CE0101960E944B
:103970000C99BE016F5F7F4FC8010E941D98F82E01
:10398000CE0101960E940799FF2069F0CE010D96A5
:103990000E9485971616170614F00C94052B609359
:1039A00091080C94052B6CE476E0CE0101960E9400
:1039B0000C99BE016F5F7F4FC8010E941D98F82EC1
:1039C000CE0101960E940799FF2099F0BE01635F26
:1039D0007F4FCE0101960E944299CE0101960E942E
:1039E000E0BD80939D08CE0101960E9407990C943A
:1039F000052B66E376E0CE0101960E940C99BE018C
:103A00006F5F7F4FC8010E941D98F82ECE0101966E
:103A10000E940799FF2041F0CE010D960E948597E4
:103A200060939E080C94052B6FE176E0CE01019621
:103A30000E940C99BE016F5F7F4FC8010E941D98C4
:103A4000F82ECE0101960E940799FF2041F0CE0189
:103A50000D960E94859760939F080C94052B6FE04C
:103A600076E0CE0101960E940C99BE016F5F7F4FF8
:103A7000C8010E941D98F82ECE0101960E94079958
:103A8000FF2071F0CE010D960E9485978FEF860F73
:103A9000833610F00C94052B6093A0080C94052B32
:103AA0006AEF75E0CE0101960E940C99BE016F5F2E
:103AB0007F4FC8010E941D98F82ECE0101960E94EA
:103AC0000799FF2069F0CE010D960E948597161682
:103AD000170614F00C94052B6093A5080C94052B85
:103AE00060EE75E0CE0101960E940C99BE016F5FF9
:103AF0007F4FC8010E941D98F82ECE0101960E94AA
:103B00000799FF2061F0CE010D960E94859777FFFF
:103B100002C00C94052B6093A6080C94052B68EC4E
:103B200075E0CE0101960E940C99BE016F5F7F4F38
:103B3000C8010E941D98F82ECE0101960E94079997
:103B4000FF2069F0CE010D960E9485971616170684
:103B500014F00C94052B6093A7080C94052B61EBD3
:103B600075E0CE0101960E940C99BE016F5F7F4FF8
:103B7000C8010E941D98F82ECE0101960E94079957
:103B8000FF2069F0CE010D960E9485971616170644
:103B900014F00C94052B6093A8080C94052B6DE988
:103BA00075E0CE0101960E940C99BE016F5F7F4FB8
:103BB000C8010E941D98F82ECE0101960E94079917
:103BC000FF2069F0CE010D960E9485971616170604
:103BD00014F00C94052B6093A9080C94052B6CE849
:103BE00075E0CE0101960E940C99BE016F5F7F4F78
:103BF000C8010E941D98F82ECE0101960E940799D7
:103C0000FF2069F0CE010D960E94859716161706C3
:103C100014F00C94052B6093AA080C94052B6CE708
:103C200075E0CE0101960E940C99BE016F5F7F4F37
:103C3000C8010E941D98F82ECE0101960E94079996
:103C4000FF2069F0CE010D960E9485971616170683
:103C500014F00C94052B6093AB080C94052B6FE6C5
:103C600075E0CE0101960E940C99BE016F5F7F4FF7
:103C7000C8010E941D98F82ECE0101960E94079956
:103C8000FF2069F0CE010D960E9485971616170643
:103C900014F00C94052B6093AC080C94052B6EE586
:103CA00075E0CE0101960E940C99BE016F5F7F4FB7
:103CB000C8010E941D98F82ECE0101960E94079916
:103CC000FF2069F0CE010D960E9485976330710543
:103CD00010F00C94052B6093AD080C94052B62E555
:103CE00075E0CE0101960E940C99BE016F5F7F4F77
:103CF000C8010E941D98F82ECE0101960E940799D6
:103D0000FF2069F0CE010D960E94859716161706C2
:103D100014F00C94052B6093AE080C94052B6DE306
:103D200075E0CE0101960E940C99BE016F5F7F4F36
:103D3000C8010E941D98F82ECE0101960E94079995
:103D4000FF2081F0CE010D960E948597161617066A
:103D500014F00C94052B70E07093B2086093B108D6
:103D60000C94052B60E375E0CE0101960E940C993E
:103D7000BE016F5F7F4FC8010E941D98F82ECE01D3
:103D800001960E940799FF2081F0CE010D960E94B6
:103D900085971616170614F00C94052B70E0709397
:103DA000B0086093AF080C94052B6AE175E0CE0172
:103DB00001960E940C99BE016F5F7F4FC8010E945F
:103DC0001D98F82ECE0101960E940799FF2069F0F8
:103DD000CE010D960E9485971616170614F00C94C6
:103DE000052B6093B3080C94052B68E075E0CE01B9
:103DF00001960E940C99BE016F5F7F4FC8010E941F
:103E00001D98F82ECE0101960E940799FF2081F09F
:103E1000CE010D960E9485971616170614F00C9485
:103E2000052B70E07093B7086093B6080C94052BCF
:103E300065EF74E0CE0101960E940C99BE016F5FA0
:103E40007F4FC8010E941D98F82ECE0101960E9456
:103E50000799FF2081F0CE010D960E9485971616D6
:103E6000170614F00C94052B70E07093B50860935E
:103E7000B4080C94052B66EE74E0CE0101960E9406
:103E80000C99BE016F5F7F4FC8010E941D98F82EEC
:103E9000CE0101960E940799FF2061F0CE010D9698
:103EA0000E94859777FF02C00C94052B6093B80899
:103EB0000C94052B6AED74E0CE0101960E940C99DA
:103EC000BE016F5F7F4FC8010E941D98F82ECE0182
:103ED00001960E940799FF2019F16BE070E0C8017C
:103EE0000E940B98DC01EC9110ED1E0F1A3010F0BF
:103EF0000C94052BCE010D960E94859765367105B1
:103F000024F477FF04C00C94052B64E670E0B8E05D
:103F10001B9FF0011124E754F74F60830C94052B8D
:103F20006EEC74E0CE0101960E940C99BE016F5FA9
:103F30007F4FC8010E941D98F82ECE0101960E9465
:103F40000799FF20F1F06BE070E0C8010E940B9828
:103F5000DC01EC9110ED1E0F1A3010F00C94052BC3
:103F6000CE010D960E94859777FF02C00C94052B19
:103F7000B8E01B9FF0011124E654F74F60830C94C6
:103F8000052B63EC74E0CE0101960E940C99BE01F2
:103F90006F5F7F4FC8010E941D98F82ECE010196D9
:103FA0000E940799FF20F9F06AE070E0C8010E94C2
:103FB0000B98DC01EC9110ED1E0F1A3010F00C94F0
:103FC000052BCE010D960E94859777FF02C00C94B9
:103FD000052BB8E01B9FF0011124E554F74F7183C6
:103FE00060830C94052B65EB74E0CE0101960E9472
:103FF0000C99BE016F5F7F4FC8010E941D98F82E7B
:10400000CE0101960E940799FF20F9F06DE070E063
:10401000C8010E940B98DC01EC9110ED1E0F1A30C4
:1040200010F00C94052BCE010D960E94859777FF1A
:1040300002C00C94052BB8E01B9FF0011124E3543F
:10404000F74F718360830C94052B68EA74E0CE010E
:1040500001960E940C99BE016F5F7F4FC8010E94BC
:104060001D98F82ECE0101960E940799FF2069F055
:10407000CE010D960E9485971616170614F00C9423
:10408000052B609309090C94052B68E974E0CE01B7
:1040900007960E940C99BE01695F7F4FC8010E947C
:1040A0001D98811116C068E874E0CE0101960E9447
:1040B0000C99BE016F5F7F4FC8010E941D98FF24BD
:1040C000F394811101C0F12CCE0101960E94079951
:1040D00002C0FF24F394CE0107960E940799FF20A7
:1040E00091F1CE010D960E948597613011F00C94EC
:1040F000052B82E080938A0910928B0980939109A5
:1041000060939209809398098093990980939F09FD
:1041100093E09093A0098093A60994E09093A70957
:104120008093AD0995E09093AE098093B40996E031
:104130009093B5098093BB0987E08093BC091092E6
:1041400019020C94052B62E874E0CE0101960E94DE
:104150000C99BE016F5F7F4FC8010E941D98F82E19
:10416000CE0101960E940799FF2049F0BE01635FCE
:104170007F4F80E090E00E9484B60C94052B6AE7A4
:1041800074E0CE0101960E940C99BE016F5F7F4FD3
:10419000C8010E941D98F82ECE0101960E94079931
:1041A000FF2049F0BE01635F7F4F81E090E00E94F5
:1041B00084B60C94052B60E774E0CE0101960E9452
:1041C0000C99BE016F5F7F4FC8010E941D98F82EA9
:1041D000CE0101960E940799FF2049F0BE01635F5E
:1041E0007F4F82E090E00E9484B60C94052B6BE632
:1041F00074E0CE0101960E940C99BE016F5F7F4F63
:10420000C8010E941D98F82ECE0101960E940799C0
:10421000FF2049F0BE01635F7F4F83E090E00E9482
:1042200084B60C94052B66E674E0CE0101960E94DC
:104230000C99BE016F5F7F4FC8010E941D98F82E38
:10424000CE0101960E940799FF2049F0BE01635FED
:104250007F4F84E090E00E9484B60C94052B61E6C9
:1042600074E0CE0101960E940C99BE016F5F7F4FF2
:10427000C8010E941D98F82ECE0101960E94079950
:10428000FF2049F0BE01635F7F4F85E090E00E9410
:1042900084B60C94052B68E574E0CE0101960E946B
:1042A0000C99BE016F5F7F4FC8010E941D98F82EC8
:1042B000CE0101960E940799FF2049F0BE01635F7D
:1042C0007F4F86E090E00E9484B60C94052B6FE44B
:1042D00074E0CE0101960E940C99BE016F5F7F4F82
:1042E000C8010E941D98F82ECE0101960E940799E0
:1042F000FF2049F0BE01635F7F4F87E090E00E949E
:1043000084B60C94052B6CE474E0CE0101960E94F7
:104310000C99BE016F5F7F4FC8010E941D98F82E57
:10432000CE0101960E940799FF2049F0BE01635F0C
:104330007F4F88E090E00E9484B60C94052B69E4DE
:1043400074E0CE0101960E940C99BE016F5F7F4F11
:10435000C8010E941D98F82ECE0101960E9407996F
:10436000FF2049F0BE01635F7F4F89E090E00E942B
:1043700084B60C94052B66E474E0CE0101960E948D
:104380000C99BE016F5F7F4FC8010E941D98F82EE7
:10439000CE0101960E940799FF2049F0BE01635F9C
:1043A0007F4F8AE090E00E9484B60C94052B63E472
:1043B00074E0CE0101960E940C99BE016F5F7F4FA1
:1043C000C8010E941D98F82ECE0101960E940799FF
:1043D000FF2049F0BE01635F7F4F8BE090E00E94B9
:1043E00084B60C94052B60E474E0CE0101960E9423
:1043F0000C99BE016F5F7F4FC8010E941D98F82E77
:10440000CE0101960E940799FF2049F0BE01635F2B
:104410007F4F8CE090E00E9484B60C94052B6DE3F6
:1044200074E0CE0101960E940C99BE016F5F7F4F30
:10443000C8010E941D98F82ECE0101960E9407998E
:10444000FF2049F0BE01635F7F4F8DE090E00E9446
:1044500084B60C94052B6AE374E0CE0101960E94A9
:104460000C99BE016F5F7F4FC8010E941D98F82E06
:10447000CE0101960E940799FF2049F0BE01635FBB
:104480007F4F8EE090E00E9484B60C94052B67E38A
:1044900074E0CE0101960E940C99BE016F5F7F4FC0
:1044A000C8010E941D98F82ECE0101960E9407991E
:1044B000FF2049F0BE01635F7F4F8FE090E00E94D4
:1044C00084B60C94052B60E374E0CE0101960E9443
:1044D0000C99BE016F5F7F4FC8010E941D98F82E96
:1044E000CE0101960E940799FF20B9F0CE010D96EA
:1044F0000E94859781E0611101C080E080934A08A5
:1045000080914708882311F40C94052B80914A0868
:1045100081110C940A2B0C94052B6EE274E0CE01F1
:1045200001960E940C99BE016F5F7F4FC8010E94E7
:104530001D98F82ECE0101960E940799FF2069F080
:10454000CE010D960E948597613011F00C94052BD9
:1045500081E080930A090C94052B6CE174E0CE0194
:1045600001960E940C99BE016F5F7F4FC8010E94A7
:104570001D98F82ECE0101960E940799FF2079F030
:10458000CE010D960E9485976E3120F06D3318F0A4
:104590006CE301C06EE1609305020C94052B6AE0A8
:1045A00074E0CE0101960E940C99BE016F5F7F4FAF
:1045B000C8010E941D98F82ECE0101960E9407990D
:1045C000FF2079F0CE010D960E9485976E3120F084
:1045D0006D3318F06CE301C06EE1609306020C9439
:1045E000052B68EF73E0CE0101960E940C99BE0185
:1045F0006F5F7F4FC8010E941D98F82ECE01019673
:104600000E940799FF2071F0CE010D960E948597B8
:104610006E3120F06D3318F06CE301C06EE16093F1
:104620000702F3C767EE73E0CE0101960E940C9972
:10463000BE016F5F7F4FC8010E941D98F82ECE010A
:1046400001960E940799FF2071F0CE010D960E94FD
:1046500085976E3120F06D3318F06CE301C06EE188
:1046600060930802D2C766ED73E0CE0101960E9406
:104670000C99BE016F5F7F4FC8010E941D98F82EF4
:10468000CE0101960E940799FF2071F0CE010D9690
:104690000E9485976E3120F06D3318F06CE301C0F5
:1046A0006EE160930902B1C764EC73E0CE0101963C
:1046B0000E940C99BE016F5F7F4FC8010E941D9838
:1046C000F82ECE0101960E940799FF2071F0CE01CD
:1046D0000D960E9485976E3120F06D3318F06CE3D3
:1046E00001C06EE160930A0290C76EEA73E0CE01EA
:1046F00001960E940C99BE016F5F7F4FC8010E9416
:104700001D98F82ECE0101960E940799FF2079F09E
:10471000CE010D960E9485972AE0269FA001279F33
:10472000500D112450930402409303026EC76CE9AC
:1047300073E0CE0101960E940C99BE016F5F7F4F1E
:10474000C8010E941D98F82ECE0101960E9407997B
:10475000FF2061F0CE010D960E948597660F862F8F
:10476000880F880F680F609302024FC767E873E0F5
:10477000CE0101960E940C99BE016F5F7F4FC80168
:104780000E941D98F82ECE0101960E940799FF20E5
:1047900069F0CE010D960E948597EAE06E9FB00108
:1047A000112470930102609300022FC767E773E042
:1047B000CE0101960E940C99BE016F5F7F4FC80128
:1047C0000E941D98F82ECE0101960E940799FF20A5
:1047D00039F0CE010D960E94C6518093A10815C7ED
:1047E00066E673E0CE0101960E940C99BE016F5FF0
:1047F0007F4FC8010E941D98F82ECE0101960E949D
:104800000799FF2039F0CE010D960E94859760939D
:10481000A208FBC664E573E0CE0101960E940C99E4
:10482000BE016F5F7F4FC8010E941D98F82ECE0118
:1048300001960E940799FF2039F0CE010D960E9443
:1048400085976093A308E1C665E473E0CE01019605
:104850000E940C99BE016F5F7F4FC8010E941D9896
:10486000F82ECE0101960E940799FF2039F0CE0163
:104870000D960E9485976093A408C7C668E373E00D
:10488000CE0101960E940C99BE016F5F7F4FC80157
:104890000E941D98F82ECE0101960E940799FF20D4
:1048A000D9F161E373E0CE0101960E940C99BE013B
:1048B0006F5F7F4FCE010D960E941D98182FCE017D
:1048C00001960E940799112339F082E090E09093BD
:1048D000EE058093ED0599C66AE273E0CE0101967C
:1048E0000E940C99BE016F5F7F4FCE010D960E9412
:1048F0001D98182FCE0101960E940799112339F0B7
:1049000081E090E09093EE058093ED057EC61092D5
:10491000EE051092ED0579C664E273E0CE010196D2
:104920000E940C99BE016F5F7F4FC8010E941D98C5
:10493000F82ECE0101960E940799FF2009F475C157
:1049400069E173E0CE0101960E940C99BE016F5F90
:104950007F4FC8010E941D98F82ECE0101960E943B
:104960000799FF2009F451C696014AE050E0B801CA
:10497000CE0101960E946F99BE016F5F7F4FC80103
:104980000E947198CE0101960E940799B801CE014C
:1049900007960E9442996DE971E0CE0101960E944E
:1049A0000C99BE016F5F7F4FCE0107960E941D9844
:1049B000182FCE0101960E940799111194C06AE93F
:1049C00071E0CE0101960E940C99BE016F5F7F4F8E
:1049D000CE0107960E941D98182FCE0101960E94C5
:1049E0000799111182C067E971E0CE0101960E941A
:1049F0000C99BE016F5F7F4FCE0107960E941D98F4
:104A0000182FCE0101960E940799111170C064E918
:104A100071E0CE0101960E940C99BE016F5F7F4F3D
:104A2000CE0107960E941D98182FCE0101960E9474
:104A3000079911115EC061E971E0CE0101960E94F3
:104A40000C99BE016F5F7F4FCE0107960E941D98A3
:104A5000182FCE0101960E94079911114CC06EE8E3
:104A600071E0CE0101960E940C99BE016F5F7F4FED
:104A7000CE0107960E941D98182FCE0101960E9424
:104A8000079911113AC06BE871E0CE0101960E94BE
:104A90000C99BE016F5F7F4FCE0107960E941D9853
:104AA000182FCE0101960E940799111128C068E8BD
:104AB00071E0CE0101960E940C99BE016F5F7F4F9D
:104AC000CE0107960E941D98082FCE0101960E94E4
:104AD0000799011115C069E771E087E791E10E942C
:104AE000709C19E00DC017E00BC011E009C012E086
:104AF00007C013E005C014E003C015E001C016E0D4
:104B0000CE0107960E940799193039F46AE073E0E4
:104B100087E791E10E94709C78C5BE01635F7F4F7B
:104B2000CE010196173009F073C00E944299BE0170
:104B30006F5F7F4F80E00E943ABDCE0101960E94D8
:104B40000799BE01635F7F4FCE0101960E94429993
:104B5000BE016F5F7F4F81E00E943ABDCE0101969A
:104B60000E940799BE01635F7F4FCE0101960E94AC
:104B70004299BE016F5F7F4F82E00E943ABDCE0135
:104B800001960E940799BE01635F7F4FCE01019697
:104B90000E944299BE016F5F7F4F83E00E943ABD41
:104BA000CE0101960E940799BE01635F7F4FCE013F
:104BB00001960E944299BE016F5F7F4F84E00E9480
:104BC0003ABDCE0101960E940799BE01635F7F4FF7
:104BD000CE0101960E944299BE016F5F7F4F85E032
:104BE0000E943ABDCE0101960E940799BE01635F03
:104BF0007F4FCE0101960E944299BE016F5F7F4FA9
:104C000086E00E943ABDCE0101960E940799FDC43C
:104C10000E944299BE016F5F7F4F812F0E943ABD73
:104C2000CE0101960E940799F0C46DEE72E0CE01AC
:104C300001960E940C99BE016F5F7F4FC8010E94D0
:104C40001D98F82ECE0101960E940799FF2099F039
:104C5000CE010D960E94859781E0611101C080E030
:104C6000809313028111D1C469ED72E087E791E16D
:104C70000E94709CCAC460ED72E0CE0101960E9451
:104C80000C99BE016F5F7F4FC8010E941D98F82EDE
:104C9000CE0101960E940799FF20F9F0CE010D96F2
:104CA0000E9485976093EC056BEC72E0CE01019653
:104CB0000E940C99BE016F5F7F4FCE010D960E943E
:104CC0001D98182FCE0101960E940799112309F40F
:104CD0009CC482E08093EC0598C462EC72E0CE0143
:104CE00001960E940C99BE016F5F7F4FC8010E9420
:104CF0001D98F82ECE0101960E940799FF2009F415
:104D0000CDC089899A890A9709F07FC411E0E12C06
:104D1000F12C01E0B701CE010D960E940B98DC0149
:104D20008C919E2DB4E0EB16F10409F47EC497300B
:104D300009F476C480538A3008F000E01A3029F074
:104D4000FFEFEF1AFF0A1F5FE5CF002309F45DC4F0
:104D50000E94A9C220932011309321114093221167
:104D600050932311609324117093251160E070E03B
:104D7000CE010D960E940B98FC012081022E000CA2
:104D8000330B20533109129F7001139FF00C112433
:104D900061E070E0CE010D960E940B98DC018C91D1
:104DA000082E000C990BC0978E0D9F1D189F700147
:104DB000199FF00C112462E070E0CE010D960E9464
:104DC0000B98FC012081022E000C330B205331097B
:104DD0002E0D3F1D129F7001139FF00C112463E0F4
:104DE00070E0CE010D960E940B98DC018C91082E8C
:104DF000000C990BC0978E0D9F1D803DB7E09B075F
:104E000008F0805D8093201165E070E0CE010D9682
:104E10000E940B98FC012081022E000C330B2053C2
:104E200031091AE0129F7001139FF00C112466E003
:104E300070E0CE010D960E940B98DC018C91082E3B
:104E4000000C990BC0978E0D9F1D8093211168E077
:104E500070E0CE010D960E940B98FC012081022E7D
:104E6000000C330B20533109129F7001139FF00C7B
:104E7000112469E070E0CE010D960E940B98DC01D0
:104E80008C91082E000C990BC0978E0D9F1D80935E
:104E9000221180E291E10E94AB9CB7C369EB72E002
:104EA000CE0101960E940C99BE016F5F7F4FC80131
:104EB0000E941D98F82ECE0101960E940799FF20AE
:104EC00009F49AC089899A89089709F09EC321E05C
:104ED00000E010E0FF24F394B801CE010D96298F75
:104EE0000E940B98FC018081298D0230110509F484
:104EF000A5C3053009F49DC380538A3008F0F12C16
:104F0000273021F00F5F1F4F2F5FE6CFFF2009F4FE
:104F10007CC30E94A9C22093201130932111409399
:104F2000221150932311609324117093251160E096
:104F300070E0CE010D960E940B98DC019C9110ED63
:104F4000190F61E070E0CE010D960E940B98FC01F4
:104F5000912F990F292F220F220F290F8081082EC0
:104F6000000C990BC097820F911D8093231163E071
:104F700070E0CE010D960E940B98FC01908110ED1F
:104F8000190F64E070E0CE010D960E940B98FC01B1
:104F9000912F990F292F220F220F290F8081082E80
:104FA000000C990BC097820F911D8093241166E02D
:104FB00070E0CE010D960E940B98DC019C9110EDE3
:104FC000190F67E070E0CE010D960E940B98FC016E
:104FD000912F990F292F220F220F290F8081082E40
:104FE000000C990BC097820F911D8093251180E2D0
:104FF00091E10E94AB9C09C365EB72E0CE01019682
:105000000E940C99BE016F5F7F4FC8010E941D98DE
:10501000F82ECE0101960E940799FF2009F441C1A4
:1050200089899A89439709F0F0C201E0E12CF12CBB
:1050300011E0B701CE010D960E940B98FC01808112
:105040009E2DF4E0EF16F10491F0973009F4FAC2C6
:105050009A3019F4803269F40DC09D3009F4FAC217
:10506000903109F4F4C280538A3018F403C08D32B1
:1050700019F010E0023129F0BFEFEB1AFB0A0F5FC5
:10508000D8CF112309F4C1C20E94A9C220932011D4
:1050900030932111409322115093231160932411D6
:1050A0007093251160E070E0CE010D960E940B9880
:1050B000DC012C91022E000C330B205331091AE035
:1050C000129F7001139FF00C112461E070E0CE017B
:1050D0000D960E940B98FC018081082E000C990B04
:1050E000C0978E0D9F1D189F7001199FF00C112401
:1050F00062E070E0CE010D960E940B98DC012C91CD
:10510000022E000C330B205331092E0D3F1D129F30
:105110007001139FF00C112463E070E0CE010D9636
:105120000E940B98FC018081082E000C990BC097FF
:105130008E0D9F1D803DF7E09F0708F0805D8093F6
:10514000201165E070E0CE010D960E940B98DC0105
:105150002C91022E000C330B205331091AE0129FC0
:105160007001139FF00C112466E070E0CE010D96E3
:105170000E940B98FC018081082E000C990BC097AF
:105180008E0D9F1D8093211168E070E0CE010D9679
:105190000E940B98DC012C91022E000C330B205343
:1051A0003109129F7001139FF00C112469E070E027
:1051B000CE010D960E940B98FC018081082E000CF8
:1051C000990BC0978E0D9F1D809322116BE070E0AC
:1051D000CE010D960E940B98DC012C91022E000C42
:1051E000330B20533109129F7001139FF00C1124CF
:1051F0006CE070E0CE010D960E940B98FC0180815E
:10520000082E000C990BC0978E0D9F1D80932311C3
:105210006EE070E0CE010D960E940B98DC012C919F
:10522000022E000C330B20533109129F7001139F83
:10523000F00C11246FE070E0CE010D960E940B98E7
:10524000FC018081082E000C990BC0978E0D9F1DCC
:105250008093241161E170E0CE010D960E940B98BD
:10526000DC012C91022E000C330B20533109129FCC
:105270007001139FF00C112462E170E0CE010D96D5
:105280000E940B98FC018081082E000C990BC0979E
:105290008E0D9F1D8093251180E291E10E94AB9CB1
:1052A000B4C168EA72E0CE0101960E940C99BE0179
:1052B0006F5F7F4FC8010E941D98F82ECE010196A6
:1052C0000E940799FF20B1F0CE010D960E948597AC
:1052D00080918408882339F081E0611101C080E069
:1052E00080937B0992C16DE972E087E791E10E94AA
:1052F000709C8BC161E972E0CE0101960E940C990D
:10530000BE016F5F7F4FC8010E941D98F82ECE012D
:1053100001960E940799FF20B1F0CE010D960E94E0
:10532000859780918408882339F081E0611101C05C
:1053300080E08093810969C166E872E087E791E1C6
:105340000E94709C62C168E772E0CE0101960E94E3
:105350000C99BE016F5F7F4FC8010E941D98F82E07
:10536000CE0101960E940799FF20B1F0CE010D9663
:105370000E94859780918408882339F081E061112B
:1053800001C080E080937F0940C16DE672E087E74D
:1053900091E10E94709C39C160E672E0CE010196F5
:1053A0000E940C99BE016F5F7F4FC8010E941D983B
:1053B000F82ECE0101960E940799FF20B1F0CE0190
:1053C0000D960E94859780918408882339F081E0AA
:1053D000611101C080E08093800917C165E572E02A
:1053E00087E791E10E94709C10C167E472E0CE01F2
:1053F00001960E940C99BE016F5F7F4FC8010E9409
:105400001D98F82ECE0101960E940799FF20B1F059
:10541000CE010D960E94859780918408882339F0EB
:1054200081E0611101C080E080937E09EEC06CE3F1
:1054300072E087E791E10E94709CE7C06DE272E044
:10544000CE0101960E940C99BE016F5F7F4FC8018B
:105450000E941D98F82ECE0101960E940799FF2008
:10546000A9F0CE010D960E9485978091840888232B
:1054700031F0653608F064E66093F709C6C062E271
:1054800072E087E791E10E94709CBFC064E172E026
:10549000CE0101960E940C99BE016F5F7F4FC8013B
:1054A0000E941D98F82ECE0101960E940799FF20B8
:1054B00051F0CE010D960E948597662309F4A5C090
:1054C00060938908A2C061E072E0CE0101960E945B
:1054D0000C99BE016F5F7F4FC8010E941D98F82E86
:1054E000CE0101960E940799FF2051F0CE010D9642
:1054F0000E948597662309F488C060938A0885C056
:1055000063EF71E0CE0101960E940C99BE016F5FBE
:105510007F4FC8010E941D98F82ECE0101960E946F
:105520000799FF2051F0CE010D960E9485976623C2
:1055300009F46BC060938B0868C065EE71E0CE0122
:1055400001960E940C99BE016F5F7F4FC8010E94B7
:105550001D98F82ECE0101960E940799FF20F1F0C8
:10556000CE010D960E94859760938C086CED71E0DA
:10557000CE0101960E940C99BE016F5F7F4FCE0154
:105580000D960E941D98182FCE0101960E94079932
:105590001123D9F180E180938C0837C061ED71E06F
:1055A000CE0101960E940C99BE016F5F7F4FC8012A
:1055B0000E941D98F82ECE0101960E940799FF20A7
:1055C00039F06BEB71E087E791E10E94709C1DC0A0
:1055D0006DEA71E0CE0101960E940C99BE016F5FE9
:1055E0007F4FC8010E941D98182FCE0101960E947E
:1055F000079911110AC06FE971E0CE0101960E946E
:105600000C99CE0101960E940799CE010D960E9439
:10561000079924C080917A00806480937A00F5CF46
:105620008D3209F48BCB00E08BCB8D3209F085CB2A
:1056300087CB8A3309F464CCF12C64CC8A3309F02B
:105640005ECC60CC8D3209F415CD10E015CD8A33D7
:10565000E1F710CD8A3309F00CCD0ECD69960FB667
:10566000F894DEBF0FBECDBFDF91CF911F910F9198
:10567000FF90EF90DF90CF90BF90AF909F908F9072
:1056800008952F923F924F925F926F927F928F92E6
:105690009F92AF92BF92CF92DF92EF92FF920F93C1
:1056A0001F93CF93DF93CDB7DEB7A3970FB6F894D0
:1056B000DEBF0FBECDBFA8950E94BCA660934B076E
:1056C00070934C0780934D0790934E0780914B0742
:1056D00090914C07A0914D07B0914E0780934707DA
:1056E00090934807A0934907B0934A0780914B07CE
:1056F00090914C07A0914D07B0914E0780934307BE
:1057000090934407A0934507B09346070E94BCA618
:1057100000914307109144072091450730914607B7
:10572000DC01CB01801B910BA20BB30B80934307D1
:1057300090934407A0934507B093460780910A09C8
:10574000882369F08091430790914407A091450711
:10575000B09146070397A105B1050CF0D4C60E948D
:10576000BCA66093430770934407809345079093CA
:10577000460780910C0290910D02009799F40E94C7
:10578000BCA660930B0770930C0780930D07909352
:105790000E07109292061092910610920A0781E06D
:1057A00090E01DC00197F9F40E94BCA600910B0780
:1057B00010910C0720910D0730910E07DC01CB01F1
:1057C000801B910BA20BB30B85369105A105B1058A
:1057D00050F0109292061092910682E090E0909321
:1057E0000D0280930C0280910C0290910D02823088
:1057F000910509F05EC00091611010916210C8011E
:105800000E9429C69091080720E0E091070761E017
:10581000281740F5F801E20FF11D949131E0320FA5
:10582000F801E30FF11D2E5FE491A62FB0E0913453
:1058300010F039EC01C030ED390FE13410F079ECA3
:1058400001C070ED7E0FF0E13F9FA0011124472BB6
:10585000EE24E394F12CEC0EFD1EAE0DBF1D4C9317
:105860006F5FD6CF9093080720930907E09307074F
:10587000182F1695198381E080930B0280910B02FB
:10588000181780F091E0980F90930B02E1E0F0E0A0
:10589000EC0FFD1FE80FF11D60818EED9EE00E9470
:1058A000B594ECCF109292061092910683E090E0AE
:1058B00013C083309105D1F58EED9EE00E946D946A
:1058C000892B79F010920B02109206071092920623
:1058D0001092910684E090E090930D0280930C0268
:1058E000D8C080919106909192060196909392066D
:1058F000809391068139914008F4CBC010929206B2
:105900001092910680910A078F5F80930A0722E028
:1059100030E030930D0220930C02863008F4B9C0B9
:1059200081E08093350780932A02B3C084309105CB
:1059300009F051C08EED9EE00E946D941816190674
:10594000BCF48EED9EE00E946D94181619069CF52D
:1059500010910B0281E0810F80930B028EED9EE08F
:105960000E944B94E12FF0E0EE55F94F8083E9CF90
:105970008091910690919206019690939206809361
:10598000910681399140B8F01092920610929106DA
:1059900082E090E090930D0280930C0280910A07C0
:1059A0008F5F80930A07863030F082E0809335075E
:1059B00081E080932A0280910B02863508F469C049
:1059C0008093060710920B02109292061092910695
:1059D00087E090E081CF079709F05BC080910607D0
:1059E0008635B1F58091A206823019F06DE679E036
:1059F0002BC08091F706833021F423EA36E0E0E003
:105A000003C064E679E020C0B6E0263F3B07A1F082
:105A1000D9018D919D018E27E0916510F09166105E
:105A2000E80FF11DE4918E2F90E0A0E0B0E08983B3
:105A30009A83AB83BC83E8CF8091F6068E1711F46E
:105A40000C94AF426BE579E087E791E10E94709C8E
:105A50008091910690919206019690939206809380
:105A600091068139914088F0109292061092910629
:105A700080910A078F5F80930A07863030F084E0B8
:105A80008093350781E080932A0210920D021092D4
:105A90000C020E94BCA6009143071091440720917C
:105AA000450730914607DC01CB01801B910BA20B0F
:105AB000B30B8093430790934407A0934507B0939B
:105AC000460780910A09882369F0809143079091E5
:105AD0004407A0914507B09146070397A105B1057A
