:10000000EBC400000C9442580C946D580C94985812
:100010000C94C3580C94EE580C9419590C944459F0
:100020000C946F590AC5000008C5000006C5000001
:1000300004C5000002C5000000C500000C94315644
:10004000FCC40000FAC40000F8C40000F6C40000BC
:10005000F4C40000F2C40000F0C400000C949B59EA
:10006000ECC400000C94C85D0C940C5EE6C4000067
:10007000E4C40000E2C40000E0C40000DEC40000EC
:10008000DCC40000DAC40000D8C400000C947C5723
:100090000C94815E0C94C55ED0C40000CEC40000F8
:1000A000CCC40000CAC40000C8C40000C6C400001C
:1000B000C4C40000C2C40000C0C40000BEC400002C
:1000C000BCC40000BAC40000B8C40000B6C400003C
:1000D000B4C40000B2C40000B0C40000AEC400004C
:1000E000ACC400001C58E657EE57FA57075828587A
:1000F0003558CA5ACF5AD45ADE5AE85A615BF25A76
:10010000FA5A025B0C5B165B205B2F5B395B615B11
:10011000435B4D5B575B835B865B755B795B7F5BAA
:10012000BD5B8A5B8E5B945B985B9C5BA25BA65B12
:10013000AA5BBD5BB05BB45BB85B524553455400F2
:100140005745423A005A34443A00504D503A004420
:100150004D553A00504F443A00414C473A00414C0B
:100160004D3A004D41503A0044414C4C3A00434F07
:100170004E3A0054494D3A0053443A206272616B42
:1001800020706C696B7520636F6E6669672E74787A
:10019000740A005858544553545F4E5231207A6EB9
:1001A000616C657A696F6E6F005D00636F6E666982
:1001B000673A205B0049503A206272616B204574B7
:1001C000686572536869656C642E2E2E0A00575755
:1001D000573A7374726F6E6120676F746F77610A3C
:1001E000005757573A7572756368616D69616D2084
:1001F0007374726F6E652E2E2E0A0049503A204F8E
:100200004B2E2E2E0A49503A20002E002E002E0092
:100210000A00576F6C6E792052414D3A0049503AAE
:10022000206B6F6E666967757261636A61207369BE
:100230006563692E2E2E0A00576F6C6E792052412D
:100240004D3A00576F6C6E792052414D3A0053443D
:100250003A20626C6164206F64637A7974752064FB
:10026000616E7963680053443A20626C6164206B6C
:10027000617274790A0053443A206272616B206B98
:10028000617274790A00302E312E302E3335004CD5
:1002900075636A616E20762E00227D00302E312E2D
:1002A000302E3335002C22766572223A22007B22D2
:1002B00074696D65223A006163636573732D636FC2
:1002C0006E74726F6C2D616C6C6F772D6F726967D5
:1002D000696E3A202A0A006163636573732D636F48
:1002E0006E74726F6C2D616C6C6F772D6F726967B5
:1002F000696E3A202A0A006163636573732D636F28
:100300006E74726F6C2D616C6C6F772D6F72696794
:10031000696E3A202A0A00227D00302E312E302EBE
:100320003335002C22766572223A22002274696DE0
:1003300065223A002C002263777532223A20002C85
:10034000002263777531223A20002C0022706F64FE
:10035000223A20002C002277656E31223A20002CB0
:10036000002277656E30223A20007D5D2C007B22D2
:1003700074223A20007D2C007B22746865726D6FB8
:1003800073223A5B006163636573732D636F6E74F0
:10039000726F6C2D616C6C6F772D6F726967696E0F
:1003A0003A202A0A002E006163636573732D636F20
:1003B0006E74726F6C2D616C6C6F772D6F726967E4
:1003C000696E3A202A0A0020743A00206F3A002011
:1003D000703A002049443A0044414C4C41532000BB
:1003E0005757573A205A61706973616E6F20002029
:1003F00062616A746F7720772000206D7320286F08
:1004000064656272616E6F20002062616A746F774A
:10041000290A005757573A204F7477696572616D02
:1004200020005757573A206272616B20706C696BDD
:10043000753A20005757573A204F64637A797420F1
:10044000706C696B753A006163636573732D636FDC
:100450006E74726F6C2D616C6C6F772D6F72696743
:10046000696E3A202A0A005757573A20426C616455
:1004700020706172736F77616E69612055524C0014
:1004800044414C4C4153204E52203D200044414CAD
:100490004C41533A204B6F6E69656320706F737ADD
:1004A000756B6977616E696120637A756A6E696BD5
:1004B0006F772E00202054656D70657261747572BF
:1004C00061203D2000204352433D002020446174C0
:1004D00061203D200020437A617320706F62726159
:1004E0006E69612064616E796368207A20637A7531
:1004F0006A6E696B61203D200020437A6173206B36
:100500006F6D656E6461206B6F6E776572736A697B
:1005100020646C6120637A756A6E696B61203D208E
:1005200000204E69657A6E616E79204453313878C7
:10053000780020445331383232002044533138425D
:10054000323000204453313853323000626C6164E1
:10055000204352430044414C4C41533A20494420EB
:100560003D0044414C4C41533A20506F637A6174D2
:10057000656B20706F737A756B6977616E69612046
:10058000637A756A6E696B6F772E0020743A00206B
:100590006F3A0020703A002049443A0044414C4CE4
:1005A00041532000504B543A2045545800504B546E
:1005B0003A205354580030323031303030363030F9
:1005C000303030303030363130330000316253C497
:1005D000F5A697B988DBEA7D4C1F2E437221108760
:1005E000B6E5D4FACB98A93E0F5C6D86B7E4D54248
:1005F0007320113F0E5D6CFBCA99A8C5F4A7960144
:100600003063527C4D1E2FB889DAEB3D0C5F6EF9DA
:10061000C89BAA84B5E6D7407122137E4F1C2DBA21
:100620008BD8E9C7F6A59403326150BB8AD9E87F1D
:100630004E1D2C02336051C6F7A495F8C99AAB3C05
:100640000D5E6F4170231285B4E7D67A4B1829BE30
:100650008FDCEDC3F2A1900736655439085B6AFD63
:10066000CC9FAE80B1E2D344752617FCCD9EAF3847
:10067000095A6B4574271681B0E3D2BF8EDDEC7B3F
:100680004A192806376455C2F3A09147762514838A
:10069000B2E1D0FECF9CAD3A0B586904356657C025
:1006A000F1A293BD8CDFEE79481B2AC1F0A392051D
:1006B00034675678491A2BBC8DDEEF82B3E0D14601
:1006C0007724153B0A5968FFCE9DAC7C3C3E5E2BDF
:1006D0003D3F2F5B5D3B2C2A225C00204F4B0D0AD7
:1006E00000485454502F312E312000436F6E7465F2
:1006F0006E742D547970653A200048544D2A746503
:1007000078742F68746D6C7C5458542A74657874AE
:100710002F706C61696E7C4353532A746578742F13
:100720006373737C584D4C2A746578742F786D6CA4
:100730007C4A532A746578742F6A61766173637298
:100740006970747C4749462A696D6167652F6769DE
:10075000667C4A50472A696D6167652F6A706567D4
:100760007C504E472A696D6167652F706E677C49C2
:10077000434F2A696D6167652F766E642E6D6963DC
:10078000726F736F66742E69636F6E7C4D50332A7F
:10079000617564696F2F6D7065677C00005EBCE2F7
:1007A000613FDD83C29C7E20A3FD1F419DC3217F4D
:1007B000FCA2401E5F01E3BD3E6082DC237D9FC141
:1007C000421CFEA0E1BF5D0380DE3C62BEE0025C35
:1007D000DF81633D7C22C09E1D43A1FF4618FAA421
:1007E00027799BC584DA3866E5BB5907DB8567390D
:1007F000BAE406581947A5FB7826C49A653BD98701
:10080000045AB8E6A7F91B45C6987A24F8A6441AF4
:1008100099C7257B3A6486D85B05E7B98CD2306EE0
:10082000EDB3510F4E10F2AC2F7193CD114FADF3CC
:10083000702ECC92D38D6F31B2EC0E50AFF1134DC0
:10084000CE90722C6D33D18F0C52B0EE326C8ED0B4
:10085000530DEFB1F0AE4C1291CF2D73CA947628A0
:10086000ABF517490856B4EA6937D58B5709EBB58C
:1008700036688AD495CB2977F4AA4816E9B7550B80
:1008800088D6346A2B7597C94A14F6A8742AC89674
:10089000154BA9F7B6E80A54D7896B3500000A0B47
:1008A00002090C0D0E0807030401000000000000FF
:1008B0000000000000000000000000000000000038
:1008C00000000000000000001211100000000000F5
:1008D0000000000000000000000000000000000018
:1008E0000000010210202008081020401020408045
:1008F00002010201080402010102040810204080E4
:100900008040201008040201800402018040201071
:1009100008040201080402010102040810204080BA
:100920000102040810204080050505050705080898
:100930000808020202020A0A080804040404010169
:10094000010101010101030303030303030304077E
:1009500007070C0C0C0C0C0C0C0C02020202060615
:100960000606060606060B0B0B0B0B0B0B0B00000B
:1009700020002300260029002C002F003200000157
:1009800000000301060109010000220025002800E3
:100990002B002E0031003400020100000501080187
:1009A0000B0100002100240027002A002D00300048
:1009B000330001010000040107010A011125862B03
:1009C000D12BF42FC13145339035333C263FD152E2
:1009D0003E5EF75EA25FB92511241FBECFEFD1E2C4
:1009E000DEBFCDBF00E00CBF17E0A0E0B2E0E2E563
:1009F000F5ED00E00BBF02C007900D92AE3BB107D2
:100A0000D9F72FE0AEEBB7E001C01D92AF37B207C8
:100A1000E1F719E0C6EDD9E000E006C02297010930
:100A2000FE010BBF0E949467CC3BD10780E0080712
:100A3000A9F70E94C8640C94986AE2CA8CB18295A6
:100A4000817008954F925F926F927F928F929F92E2
:100A5000AF92BF92CF92DF92EF92FF926C01CA01E8
:100A600079016130710509F44EC06230710509F4F5
:100A70006FC0672B09F0D0C00E94E5596093C20790
:100A80007093C3078093C4079093C5071092BE0765
:100A90001092BF071092C0071092C10780917F0982
:100AA0008111BAC0C6010E945C4D0E94154E7C01A6
:100AB000009709F4B1C063E174E082EF9DE00E9409
:100AC000EF5FB70182EF9DE00E9420606DEA77E062
:100AD00082EF9DE00E94206022E5A70167E979E0AE
:100AE0008AE799E00E94AD43C701FF90EF90DF9045
:100AF000CF90BF90AF909F908F907F906F905F90BE
:100B00004F900C944A6820917F092223F9F0A701A5
:100B1000BC018AE799E00E948C44A701662757FD33
:100B20006095762F8091BE079091BF07A091C00776
:100B3000B091C107840F951FA61FB71F8093BE07F2
:100B40009093BF07A093C007B093C107A89564C056
:100B50008AE799E00E943E428090BE079090BF07CE
:100B6000A090C007B090C1070E94E5596B017C01BD
:100B70008091C2079091C307A091C407B091C507A7
:100B8000C81AD90AEA0AFB0A40908D0950908E09CA
:100B900060908F097090900960EE73E082EF9DE0A5
:100BA0000E94EF5F2AE030E0B301A20182EF9DE0F6
:100BB0000E9416616FEE73E082EF9DE00E94EF5F8E
:100BC0002AE030E0B701A60182EF9DE00E941661A5
:100BD0006AEF73E082EF9DE00E94EF5F2AE030E071
:100BE000B501A40182EF9DE00E94166169E074E006
:100BF00082EF9DE00E94EF5F8AE799E0FF90EF901F
:100C0000DF90CF90BF90AF909F908F907F906F902C
:100C10005F904F900C948342FF90EF90DF90CF90C5
:100C2000BF90AF909F908F907F906F905F904F900C
:100C300008950F931F93CF93DF938C01EC0162967D
:100C400068EC70E0CE010E94F24C67EA72E0C801E5
:100C50000E94424DCE010E94286062EB72E0CE01FC
:100C60000E94206060915E0A70915F0A4AE050E045
:100C7000CE010E943D6166EB72E0CE010E942060D1
:100C80006091590A70915A0A4AE050E0CE010E94E0
:100C90003D616CEB72E0CE010E9420606091560ACB
:100CA0007091570A4AE050E0CE010E943D61809168
:100CB0007002882329F062EC72E0CE010E943B6052
:100CC00081E0DF91CF911F910F9108957F928F92D4
:100CD0009F92AF92BF92CF92DF92EF92FF920F93CB
:100CE0001F93CF93DF935C01EC01629668EC70E098
:100CF000CE010E94F24C67EA72E0C5010E94424DAB
:100D0000CE010E94286083ECC82E88E0D82E0BEB21
:100D100018E0712C68ED73E0CE010E94EF5F4AE0AD
:100D200050E0672DCE010E94226163ED73E0CE0199
:100D30000E94EF5FE12CF12C48018E0C9F1CD40126
:100D40008C91803158F4D5015296ED91FC915397D6
:100D50000190F081E02D60E3CE01199540E150E073
:100D6000F4016081CE010E942261FFEFEF1AFF0AB9
:100D700088E0E816F10401F76FEC73E0CE010E9401
:100D8000EF5F4AE050E0D6016C91CE010E942261F3
:100D90006BEC73E0CE010E94EF5FF8016385748510
:100DA0004AE050E0CE010E94E96067EC73E0CE01BA
:100DB0000E94EF5FD80119966D917C911A974AE0D5
:100DC00050E0CE010E94F0607394BDE0CB0ED11CC8
:100DD000035F1F4FE8E07E129DCF81E0DF91CF914E
:100DE0001F910F91FF90EF90DF90CF90BF90AF9049
:100DF0009F908F907F9008950F931F93CF93DF93D1
:100E00008C01EC01629668EC70E0CE010E94F24C1D
:100E10006FEC72E0C8010E94424D67EF72E0C801BA
:100E20000E94EF5FCE010E94286069ED72E0CE0162
:100E30000E943B6081E08093640ADF91CF911F9113
:100E40000F9108950F931F93CF93DF938C01EC01C3
:100E5000629668EC70E0CE010E94F24C6FEC72E09A
:100E6000C8010E94424D67EB72E0C8010E94EF5F2B
:100E7000CE010E9428606EEA72E0CE010E94EF5F10
:100E80000E94E55928EE33E040E050E00E943767C9
:100E9000BA01A9012AE030E0CE010E94166165EA9C
:100EA00072E0CE010E94EF5F6CE972E0CE010E9419
:100EB000EF5F69E972E0CE010E942B6081E0DF9173
:100EC000CF911F910F9108950F931F93CF93DF93AD
:100ED0008C01EC01629668EC70E0CE010E94F24C4D
:100EE00067EA72E0C8010E94424DCE010E9428606C
:100EF0004091760A5091770A6091780A7091790A48
:100F000022E030E0CE010E9438628AE79AE00E9437
:100F1000C1564AE050E0682FCE010E9428616091DE
:100F2000540A7091550A4AE050E0CE010E943D619A
:100F30004091720A5091730A6091740A7091750A17
:100F40002AE030E0CE010E9451616091520A709116
:100F5000530A4AE050E0CE010E94F06060918402A2
:100F6000709185024AE050E0CE010E943D614AE066
:100F700050E06091690ACE010E94286160915C0A8C
:100F800070E04AE050E0CE010E94F06060912F08CE
:100F9000709130084AE050E0CE010E94F06060910C
:100FA0003508709136084AE050E0CE010E94F060AA
:100FB00060910508709106084AE050E0CE010E9459
:100FC000F060CE010E9428606091FF0770910008D8
:100FD0004AE050E0CE010E94F0606091FE0770E0B0
:100FE0004AE050E0CE010E94F0606091FD0770E0A1
:100FF0004AE050E0CE010E94F06085E40E942C5C43
:10100000892B19F06CED72E002C061EE72E0CE0146
:101010000E943B6084E40E942C5C892B19F06CEDEB
:1010200072E002C061EE72E0CE010E943B6081E09E
:10103000DF91CF911F910F9108950F931F93CF933D
:10104000DF938C01EC01629668EC70E0CE010E94A7
:10105000F24C67EA72E0C8010E94424DCE010E9444
:10106000286066EB72E0CE010E94206085E40E9459
:101070002C5C4AE050E0BC01CE010E94F0606CEBB9
:1010800072E0CE010E94206084E40E942C5C4AE061
:1010900050E0BC01CE010E94F06067EE72E0CE012C
:1010A0000E9420604AE050E060914F0ACE010E9409
:1010B000286180917002882329F062EC72E0CE01F1
:1010C0000E943B606091E0097091E1094AE050E0C4
:1010D000CE010E943D614AE050E06091DE09CE0100
:1010E0000E94286181E0DF91CF911F910F910895B7
:1010F0000F931F93CF93DF938C01EC01629668EC02
:1011000070E0CE010E94F24C6FEC72E0C8010E94C8
:10111000424D67EA73E0C8010E94EF5FCE010E9472
:10112000286063EF72E0CE010E94206085E40E9497
:101130002C5C892B19F06CED72E002C061EE72E05C
:10114000CE010E9420606DEF72E0CE010E9420600F
:101150006FEF72E0CE010E94206084E40E942C5C5C
:10116000892B19F06CED72E002C061EE72E0CE01E5
:101170000E94206068E073E0CE010E94206081E060
:10118000DF91CF911F910F910895811104C080913B
:1011900008018F7D03C0809108018062809308015F
:1011A0000895CF92DF92EF92FF920F931F93CF9308
:1011B000DF9300D01F92CDB7DEB77C016B0100E05A
:1011C00010E0D70114968D919C9115970817190777
:1011D00020F5D7011296ED91FC911397E00FF11FC6
:1011E000449150E060E070E049835A836B837C83D4
:1011F000642F4AE050E0C6010E942261F701848119
:10120000958101970817190728F46DEF72E0C60160
:101210000E9420600F5F1F4FD4CF0F900F900F9050
:101220000F90DF91CF911F910F91FF90EF90DF9082
:10123000CF900895EF92FF920F931F93CF93DF9378
:10124000CDB7DEB72C970FB6F894DEBF0FBECDBF7B
:101250007C018C010E5E1F4F68EC70E0C8010E949B
:10126000F24C6FEC72E0C7010E94424D67ED72E0F4
:10127000C7010E94EF5FC8010E942860C7010E9459
:101280005C4DBC01CE0107960E94F9626AE073E0F2
:10129000CE0101960E94F962BE016F5F7F4FCE01C1
:1012A00007960E94E063F82ECE0101960E9492629A
:1012B000FF20C1F02B853C854AE050E0BE01695F0C
:1012C0007F4FCE0101960E941E64CE0101960E94BE
:1012D000BD6460934108CE0101960E94926269ED5F
:1012E00072E002C065E173E0C8010E943B60CE017C
:1012F00007960E94926281E02C960FB6F894DEBFAA
:101300000FBECDBFDF91CF911F910F91FF90EF9056
:101310000895DC01ED91FC910190F081E02D19948C
:10132000813410F0875301C08053613410F067534B
:1013300001C0605320E1829FC0011124862B0895D3
:10134000CF93DF9300D01F92CDB7DEB79091EB091A
:10135000923019F06DEA75E011C02091E70930E094
:101360002551364FF90131979081933029F4A1E04E
:1013700040E090E0029707C064EA75E082EF9DE0EC
:101380000E942B6025C06A2F70E068177907ACF4C3
:10139000FB01E551F64F60816427E0915409F0911B
:1013A0005509E60FF11D449150E060E070E049837B
:1013B0005A836B837C83AF5FE6CFF90132978081DC
:1013C000841741F068E173E082EF9DE00E943B608A
:1013D00080E001C081E00F900F900F900F90DF919F
:1013E000CF91089580912309882329F080912309C2
:1013F00081508093230908950F931F93CF93DF9318
:101400000BEB18E0C0E0D0E048E050E0B80188E223
:1014100099E00E94236A892B41F02196035F1F4FB8
:10142000C830D10589F7CFEFDFEFCE01DF91CF9143
:101430001F910F91089590913E09973011F160E04E
:101440004DE0949F90011124462F50E0F901E40FE4
:10145000F51FE554F74FDA01A85DB64F4C91408374
:1014600041E0460F483010F4642FEECF40933F091F
:10147000F901E554F74F80879F5F90933E0981E023
:10148000089580E00895BF92CF92DF92EF92FF928D
:101490000F931F93CF93DF9393ECE92E98E0F92EEF
:1014A000CBEBD8E0B12C6CE975E082EF9DE00E94B7
:1014B000EF5F4AE050E06B2D82EF9DE00E942261D9
:1014C00067E975E082EF9DE00E94EF5F00E010E0C9
:1014D0006E01C00ED11EF6018081803128F460E3D8
:1014E00070E082EF9DE015DF40E150E0F6016081A1
:1014F00082EF9DE00E9422610F5F1F4F08301105AF
:1015000039F763E975E082EF9DE00E94EF5F4AE002
:1015100050E0F701608182EF9DE00E9422616FE858
:1015200075E082EF9DE00E94EF5F6B857C854AE06D
:1015300050E082EF9DE00E94E9606BE875E082EF89
:101540009DE00E94EF5F69857A854AE050E082EF76
:101550009DE00E94F060B394FDE0EF0EF11C2D962B
:1015600088E0B812A0CFDF91CF911F910F91FF902B
:10157000EF90DF90CF90BF90089580E499E00E94B3
:10158000EA5280E499E00E94045441E064E480E47B
:1015900099E00C947D53CF9380E499E00E94EA5245
:1015A00080933D0968E279E080E499E00E94D95394
:1015B00040E06EEB80E499E00E947D5310923F0979
:1015C000C0913F09C93078F480E499E00E94BE538D
:1015D000EC2FF0E0E05DF64F808380913F098F5F54
:1015E00080933F09EDCF68E080E399E00E94CD54FD
:1015F00091E020913809821390E0892FCF910895CE
:1016000080912809823241F0883231F0803121F412
:1016100081E080933C0902C010923C09209131097D
:1016200030E0322F222780913009282B80913C090D
:10163000882399F073E0220F331F7A95E1F78091A8
:1016400037098031F9F4409136098CE090E0841B31
:101650009109207F280F391F15C0809134098076A9
:1016600031F463E0220F331F6A95E1F70BC080323B
:1016700029F4220F331F220F331F04C0803411F4CA
:10168000220F331F4AE0429FC001439F900D112457
:1016900097FD0F9624E0959587952A95E1F7089593
:1016A000AF92BF92CF92DF92EF92FF920F931F9370
:1016B000CF93DF9362E675E082EF9DE00E942B609E
:1016C00082EF9DE00E9428601DE0CCE0D0E068E25F
:1016D00079E080E499E00E943A54882309F491C1AA
:1016E00065E575E082EF9DE00E94EF5F10923F0993
:1016F000E0913F09E830E8F4F0E0E85DF64F008162
:1017000060E270E082EF9DE004DE003128F460E3E7
:1017100070E082EF9DE0FDDD40E150E0602F82EF60
:101720009DE00E94226180913F098F5F80933F0975
:10173000DFCF67E088E299E00E94CD5490912F09B5
:10174000891739F06CE475E082EF9DE00E942B6010
:10175000BECF80912809823289F0883261F08031D1
:10176000B1F463E475E082EF9DE00E942B6081E0BC
:1017700080933C091CC06AE375E002C062E375E037
:1017800082EF9DE00E942B6010923C0910C061E244
:1017900075E082EF9DE0DF91CF911F910F91FF9057
:1017A000EF90DF90CF90BF90AF900C942B600E9491
:1017B000E559609324097093250980932609909335
:1017C0002709DBDE0E94E559C0902409D090250945
:1017D000E0902609F09027096C197D098E099F0970
:1017E0006093240970932509809326099093270913
:1017F00069EF74E082EF9DE00E94EF5F4091240961
:101800005091250960912609709127092AE030E05E
:1018100082EF9DE00E94066168EE73E080E090E058
:101820000E94145A0E94E559609324097093250977
:101830008093260990932709AEDE0E94E559C09057
:101840002409D0902509E0902609F09027096C1909
:101850007D098E099F09609324097093250980935F
:1018600026099093270965ED74E082EF9DE00E94C0
:10187000EF5F4091240950912509609126097091EC
:1018800027092AE030E082EF9DE00E9406616BECC0
:1018900074E082EF9DE00E94EF5F40E150E06091D4
:1018A0003D0982EF9DE00E94226160E270E082EFDC
:1018B0009DE02FDD10923F0980913F098930F8F4B7
:1018C00060E270E082EF9DE024DDE0913F09F0E00E
:1018D000E05DF64F0081003128F460E370E082EFB4
:1018E0009DE017DD40E150E0602F82EF9DE00E9417
:1018F000226180913F098F5F80933F09DDCF65ECC6
:1019000074E082EF9DE00E94EF5F68E080E399E081
:101910000E94CD5440E150E0682F82EF9DE00E948C
:10192000226182EF9DE00E9428606091310970E0A1
:10193000762F662780913009682B80913C09882397
:1019400091F003E0660F771F0A95E1F78091370960
:101950008031F1F4809136099E01281B3109607FA6
:10196000620F731F15C080913409807631F4B3E0A3
:10197000660F771FBA95E1F70BC0803229F4660F26
:10198000771F660F771F04C0803411F4660F771F2E
:10199000882777FD8095982F0E94DA6520E030E057
:1019A00040E85DE30E948E666B017C0164EB74E0AD
:1019B00082EF9DE00E94EF5F22E030E0B701A601D8
:1019C00082EF9DE00E94386281E035DD80913E0922
:1019D00090E00197189F5001199FB00C1124C50188
:1019E0008554974F5C0120E030E040E251E4C701AC
:1019F000B6010E948E660E94A765F5017287618715
:101A000066CE6DE874E082EF9DE00E942B6082EF6D
:101A10009DE00E94286080E499E00E9407546AEFEC
:101A200070E080E090E0DF91CF911F910F91FF90E7
:101A3000EF90DF90CF90BF90AF900C94145A80E459
:101A400099E00E9407546AEF70E080E090E00E9405
:101A5000145A26DE18CDCF93DF9380913E09882358
:101A600009F43CC0C091BA08C11105C088E0809358
:101A7000230983DD26C080912309811127C0C1502D
:101A80009DE0C99FE0011124E82FF0E0DF01A85D8F
:101A9000B64FEC0FFD1FE554F74F90819C938F5F7D
:101AA000883090F380933F0976DDC554D74F882363
:101AB00039F0A6DD9A87898780913D09888701C022
:101AC00018868091BA088F5F8093BA089091BA08FF
:101AD00080913E09891710F41092BA08DF91CF91D6
:101AE00008956F927F928F929F92AF92BF92CF9202
:101AF000DF92EF92FF920F931F93CF93DF9340916A
:101B00005C0950915D0960915E0970915F091091C7
:101B1000600900916109F0906209E0906309D0903A
:101B20006409C0906509B0906609A090670990901B
:101B300068098090690970906A0960906B0920912A
:101B40003E09EAE6F8E0ADE6B8E03DE0ED012197B8
:101B50008881823041F58C91882389F0813091F021
:101B6000823099F0833099F0843099F0853099F083
:101B7000863099F0873099F099E18CEF11C0942F5D
:101B8000852F0EC0962F872F0BC0C80109C0C70133
:101B900007C0C60105C0C50103C0C40101C0C3011F
:101BA0009083818314C0833081F4CC91C21740F4B8
:101BB0003C9FE0011124C554D74F89859A8502C006
:101BC0008AE19CEF9183808302C011821082359656
:101BD000159688E0EA3BF80709F0B8CFDF91CF917E
:101BE0001F910F91FF90EF90DF90CF90BF90AF903B
:101BF0009F908F907F906F900895CF93DF93C82F21
:101C0000DD27C7FDD095CE010E94F769892B49F0E9
:101C1000CE010E94126A90ED980F9A3020F08753FF
:101C200003C08FEF01C0892FDF91CF9108959F925C
:101C3000AF92BF92CF92DF92EF92FF920F931F93DA
:101C4000CF93DF93CDB7DEB72C970FB6F894DEBFF6
:101C50000FBECDBF6C018B01CB010E9461646BE5AF
:101C6000C8010E941B647C0197FDA4C1AC016DE515
:101C7000C8010E9400645C01A7016CE2C8010E94D7
:101C800000641A141B040CF095C163E373E0CE01E9
:101C900007960E94F962BE01695F7F4FC8010E94EA
:101CA000E063811116C06AED75E0CE0101960E94D5
:101CB000F962BE016F5F7F4FC8010E94E063BB24E1
:101CC000B394811101C0B12CCE0101960E949262A1
:101CD00002C0BB24B394CE0107960E949262BB203F
:101CE00009F4B3C0F80124813581A7014F5F5F4F2C
:101CF000B801CE0101960E941E64BE016F5F7F4F46
:101D0000C8010E945F63CE0101960E949262C801E1
:101D10000E94616461E273E0CE0101960E94F96263
:101D2000BE016F5F7F4FC8010E94E063F82ECE01B5
:101D300001960E949262F11025C167EE75E0CE0116
:101D400001960E94F962BE016F5F7F4FC8010E9439
:101D5000E063F82ECE0101960E949262F11014C148
:101D60006FEE75E0CE0101960E94F962BE016F5FD1
:101D70007F4FC8010E94E063F82ECE0101960E94B9
:101D80009262F11003C169EF75E0CE0101960E94E5
:101D9000F962BE016F5F7F4FC8010E94E063F82EB9
:101DA000CE0101960E949262F110F2C06EEF75E0D2
:101DB000CE0101960E94F962BE016F5F7F4FC8019C
:101DC0000E94E063F82ECE0101960E949262F1100B
:101DD000E1C063E076E0CE0101960E94F962BE01A7
:101DE0006F5F7F4FC8010E94E063F82ECE0101961D
:101DF0000E949262F110D0C068E076E0CE010196B8
:101E00000E94F962BE016F5F7F4FC8010E94E063CC
:101E1000F82ECE0101960E949262F110BFC061E1DE
:101E200076E0CE0101960E94F962BE016F5F7F4F9E
:101E3000C8010E94E063182FCE0101960E949262B1
:101E4000112309F4B7C087E0AAC064E273E0CE01B1
:101E500001960E94F962BE016F5F7F4FC8010E9428
:101E6000E063B82ECE0101960E949262BB2009F475
:101E70005AC0FFEFEF1AFF0AA12CB12CB701C8011D
:101E80000E94EE63FC018081B8DE982E929490EF60
:101E90009922B7016F5F7F4FC8010E94EE63FC017A
:101EA0008081ABDEF501F595E795E85DF64F890D8C
:101EB0008083F2E0AF0EB11C82E0E80EF11CE0E19D
:101EC000AE16B104D9F698DA8C0197FF13C080E002
:101ED000B2DA8823D1F000913E0910E001501109D7
:101EE0008DE0809FF001819FF00D1124E554F74FA4
:101EF0001286118685E08C9DF0018D9DF00D1124D8
:101F0000E659F74F83E08283038360E874E082EF51
:101F10009DE00E94EF5F4AE050E0B80182EF9DE053
:101F20000E94F06047C06BE273E0CE0101960E9410
:101F3000F962BE016F5F7F4FC8010E94E063F82E17
:101F4000CE0101960E949262FF2059F085E08C9D9F
:101F5000F0018D9DF00D1124E659F74F81E0828349
:101F600029C060E373E0CE0101960E94F962BE01D0
:101F70006F5F7F4FC8010E94E063CE0101960E940F
:101F8000926218C080E00BC081E009C082E007C007
:101F900083E005C084E003C085E001C086E095E0F1
:101FA0009C9DF0019D9DF00D1124E659F74F92E0A4
:101FB000928383832C960FB6F894DEBF0FBECDBFFD
:101FC000DF91CF911F910F91FF90EF90DF90CF9015
:101FD000BF90AF909F90089580913D0890913E08EA
:101FE000892B49F080913D0890913E08019790938C
:101FF0003E0880933D088091390890913A08892BDA
:1020000049F08091390890913A08019790933A08E5
:10201000809339088091370890913808892B49F0CE
:1020200080913708909138080197909338088093F1
:10203000370880913B0890913C08892B49F08091AA
:102040003B0890913C08019790933C0880933B0893
:102050000895AF92BF92CF92DF92EF92FF920F93CB
:102060001F9397FD06C0853691052CF084E690E01D
:1020700002C080E090E0BC01882777FD8095982F12
:102080001F921F921F922FEF2F93A12CB12C65014D
:1020900014E6E12EF12C00E010E020E030E0A90190
:1020A0000E94486270930608609305080F900F9095
:1020B0000F900F9020914008222341F02FEF30E045
:1020C000261B370B309306082093050860910508FE
:1020D000709106088CE01F910F91FF90EF90DF90B8
:1020E000CF90BF90AF900C94A65A61E08CE00E9414
:1020F000BE5B80E090E0ADDF61E088E00E94BE5B07
:1021000060E088E00E94F75B61E083E40E94BE5BD0
:1021100060E083E40E94F75B60E070E087E098E0B5
:102120000E94655688EE93E0A0E0B0E080932B0813
:1021300090932C08A0932D08B0932E080895CF9368
:10214000C0915D0A40915E0A50915F0A8091350806
:1021500090913608909334088093330860914F0A29
:10216000262F30E03093360820933508E0915C0A42
:1021700070914108EE2319F070FD08C002C071FD96
:1021800005C070915408733009F0D6C02091310811
:10219000309132082115310531F5662321F1009780
:1021A000C9F4A0914408B09145088AE08A9FF001E3
:1021B0008B9FF00D1124F0933C08E0933B08E1E085
:1021C000F0E0F0933008E0932F0880915B0A809351
:1021D000C60709C01816190634F4E3E0F0E0F093DE
:1021E0003008E0932F087AE0C79FC001112471E006
:1021F0004817590708F070E080913B0890913C081F
:10220000892B21F0662311F07111FFC080912F08F6
:1022100090913008019739F480913B0890913C08E7
:10222000892B09F4FBC08091E30981110BC08091D7
:10223000E409882339F080913B0890913C08892B70
:1022400009F4F3C080912F0890913008049739F475
:102250008091370890913808892B09F4FFC080914C
:10226000370890913808892B71F08091350890914A
:1022700036084091500850915108840F951F909353
:102280003608809335088091C607882309F44BC02F
:1022900012161306B4F4611114C020914208309153
:1022A00043084AE0429FC001439F900D1124909340
:1022B0003E0880933D0885E090E09093300880933D
:1022C0002F0880913D0890913E08892B19F06623D4
:1022D00009F4CBC080913D0890913E08892B49F4C8
:1022E00080912F0890913008059719F4662309F41E
:1022F000C5C080912F0890913008069751F5611163
:1023000028C071110BC080914E0890914F08009722
:1023100029F090933608809335081BC01092360838
:102320001092350812C080912F08909130080397C1
:1023300081F461110EC009C0232B39F083E090E0D5
:102340009093300880932F0804C0109230081092A8
:102350002F088091350890913608009751F0209110
:102360003F08820F911D27FD9A9590933608809320
:102370003508809135089091360897FF04C0109277
:1023800036081092350880913508909136088536C8
:10239000910534F084E690E09093360880933508F8
:1023A0008091760990917709A0917809B091790987
:1023B00086709927AA27BB27892B8A2B8B2B21F084
:1023C00010923608109235088091350890913608A1
:1023D00040DE6091350887E098E00E94D9548091F2
:1023E0003508909136081816190614F460E001C0FB
:1023F00061E088E00E94F75B80914F0A90E0909343
:10240000320880933108CF91089580914C089091C3
:102410004D089093360880933508F8CE83E090E01D
:102420009093300880932F08FECE40914808509139
:102430004908EAE0E49FC001E59F900D11249093C4
:1024400038088093370884E090E0909330088093B8
:102450002F0880915B0A8093C607F4CE83E090E05A
:102460009093300880932F08FACE80914A0890917B
:102470004B0890933608809335082CCF86E090E087
:102480009093300880932F0834CF9091760991FD76
:102490000FC02AE0829FC00111249093040880930A
:1024A000030881E08093E40961E080E40C94F75B29
:1024B00008958091760990917709A0917809B0915B
:1024C0007909AC01BD017695679557954795E42F3D
:1024D000E17040FD28C020917608222321F120914F
:1024E00053084AE0249F90011124409174085091B0
:1024F000750824173507BCF46091520848E552E08E
:10250000649F9001659F300D11243093040820933F
:10251000030882608093760990937709A0937809E5
:10252000B093790919C082FF07C060E080E40E947F
:10253000F75B1092E4090895E11116C080915408E8
:10254000813091F48091E409882371F0809103082F
:1025500090910408892B41F461E080E40E94F75BCC
:1025600081E08093E4090895809103089091040824
:10257000892BD9F2F1CF60E08FE30E94F75B61E035
:102580008FE30E94BE5B60E085E40E94F75B61E040
:1025900085E40E94BE5B60E084E40E94F75B61E03A
:1025A00084E40E94BE5B8AE58093570898E290938A
:1025B000580881E08093540822E320935508109234
:1025C000560822E02093590880935A0810925B081D
:1025D00080935C0890935D0810925F0810926008E9
:1025E00080936108089580915E0A90915F0A20911E
:1025F0005D0A4AE0249F900111242253310961E0D1
:102600008217930708F460E06093610A2091620AE0
:102610003091630A2550310941E08217930708F48D
:1026200040E04093600A2091E609222311F06111F5
:1026300002C050E001C0542F5093FE07873272E071
:10264000970748F02091560A3091570A26323240B7
:1026500010F4611101C040E04093FD07511103C027
:10266000442309F456C08091010890910208892BF7
:1026700009F067C08091FF07909100089C012B7FB3
:10268000232BA1F4552379F081E090E0909300088A
:102690008093FF078CE291E09093020880930108F9
:1026A00061E085E43FC082E090E01AC0813091058E
:1026B00019F482E090E01DC082309105B1F444230A
:1026C00069F083E090E0909300088093FF078CE22C
:1026D00091E0909302088093010822C084E090E08A
:1026E000909300088093FF072CC0039751F584E076
:1026F00090E0909300088093FF0788E592E0909324
:1027000002088093010860E085E40E94F75B60E0C6
:1027100008C08132934048F061E085E40E94F75B95
:1027200061E084E40E94F75B0CC060E085E40E94F5
:10273000F75B60E084E40E94F75B1092000810925F
:10274000FF0780915E0A90915F0A9093630A8093DD
:10275000620A089560916C088091760990917709DA
:10276000A0917809B0917909662301F12091570869
:102770004AE0249F9001112440916A0850916B080F
:10278000241735079CF48460809376099093770929
:10279000A0937809B093790961E08FE30E94F75B19
:1027A00061E085E40E94F75B61E034C082FF1AC0FB
:1027B000662391F1209157087AE0279F9001112418
:1027C00040916A0850916B08421753076CF424E05B
:1027D00082278093760990937709A0937809B09324
:1027E00079091AC06623C1F0809158083AE0839FA6
:1027F000C001112420916A0830916B08281739070D
:102800005CF460E08FE30E94F75B60E085E40E9487
:10281000F75B60E084E4BEC080915908813021F00C
:1028200080915B088130C9F4809170028823A9F0FF
:102830001092E5091092E60960E08FE30E94F75BD1
:1028400060E085E40E94F75B60E084E40E94F75B4F
:10285000109200081092FF07089580915B08843061
:1028600011F4C1DE6EC0813031F48091E609882315
:1028700031F061E005C080915C08813029F060E0B2
:1028800085E40E94F75B5DC0809185088823B9F3D9
:1028900020915E088091830890918408222371F131
:1028A0006623A9F06AE0269FA001112484179507EA
:1028B00074F040916A0850916B08481759073CF42E
:1028C00061E085E40E94F75B82E090E02BC04091DC
:1028D000FB075091FC074230510581F47AE0279FB5
:1028E00090011124821793074CF460E085E40E9464
:1028F000F75B1092FC071092FB0723C020915D0844
:102900004AE0249F9001112440915F08B901641BA3
:102910007109861797075CF461E085E40E94F75B14
:1029200081E090E09093FC078093FB070AC0409100
:10293000FB075091FC074130510519F4281739075E
:10294000A4F2809160088330B9F4809185088823CF
:1029500099F0809162087AE0879FC001112420914C
:102960008308309184082817390714F061E001C00A
:1029700060E084E40E94F75B80915908813031F473
:102980008091E509882321F061E003C0823021F0C5
:1029900060E08FE30C94F75B80915A088130C1F7B7
:1029A00080916C08EFCFFF920F931F93CF93DF932B
:1029B000CDB7DEB72C970FB6F894DEBF0FBECDBFF4
:1029C0008C0163E373E0CE0107960E94F962BE01B9
:1029D000695F7F4FC8010E94E063811116C06AEDF4
:1029E00075E0CE0101960E94F962BE016F5F7F4FD4
:1029F000C8010E94E063FF24F394811101C0F12C0F
:102A0000CE0101960E94926202C0FF24F394CE018F
:102A100007960E949262F11028C069E373E0CE012C
:102A200001960E94F962BE016F5F7F4FC8010E944C
:102A3000E063F82ECE0101960E949262F11017C059
:102A40006DE373E0CE0101960E94F962BE016F5FF3
:102A50007F4FC8010E94E063182FCE0101960E94AB
:102A60009262112331F082E005C081E003C083E06F
:102A700001C080E02C960FB6F894DEBF0FBECDBF2C
:102A8000DF91CF911F910F91FF900895FF920F93C7
:102A90001F93CF93DF93CDB7DEB72C970FB6F89483
:102AA000DEBF0FBECDBF8C0163E373E0CE0107969E
:102AB0000E94F962BE01695F7F4FC8010E94E06316
:102AC000811116C06AED75E0CE0101960E94F9628F
:102AD000BE016F5F7F4FC8010E94E063FF24F39443
:102AE000811101C0F12CCE0101960E94926202C0B8
:102AF000FF24F394CE0107960E949262F11041C028
:102B000060E473E0CE0101960E94F962BE016F5F3E
:102B10007F4FC8010E94E063F82ECE0101960E940B
:102B20009262F11028C066E473E0CE0101960E9423
:102B3000F962BE016F5F7F4FC8010E94E063F82E0B
:102B4000CE0101960E949262F11017C06DE473E00D
:102B5000CE0101960E94F962BE016F5F7F4FC801EE
:102B60000E94E063182FCE0101960E949262112309
:102B700031F083E007C082E005C084E003C080E05C
:102B800001C081E02C960FB6F894DEBF0FBECDBF1A
:102B9000DF91CF911F910F91FF900895FF920F93B6
:102BA0001F93CF93DF9300D000D0CDB7DEB78C0159
:102BB00067E573E0CE0101960E94F962BE016F5F86
:102BC0007F4FC8010E94E063F82ECE0101960E945B
:102BD0009262F11015C06EE573E0CE0101960E947D
:102BE000F962BE016F5F7F4FC8010E94E063182F3A
:102BF000CE0101960E949262112311F082E001C081
:102C000081E026960FB6F894DEBF0FBECDBFDF91F0
:102C1000CF911F910F91FF900895FF920F931F93F3
:102C2000CF93DF93CDB7DEB72C970FB6F894DEBF06
:102C30000FBECDBF8C0163E373E0CE0107960E9407
:102C4000F962BE01695F7F4FC8010E94E063811194
:102C500016C06AED75E0CE0101960E94F962BE01D0
:102C60006F5F7F4FC8010E94E063FF24F3948111DE
:102C700001C0F12CCE0101960E94926202C0FF2495
:102C8000F394CE0107960E949262F11028C068E684
:102C900073E0CE0101960E94F962BE016F5F7F4F23
:102CA000C8010E94E063F82ECE0101960E94926254
:102CB000F11017C06DE673E0CE0101960E94F96233
:102CC000BE016F5F7F4FC8010E94E063182FCE01E5
:102CD00001960E949262112331F083E005C081E0E9
:102CE00003C082E001C080E02C960FB6F894DEBFEE
:102CF0000FBECDBFDF91CF911F910F91FF9008952F
:102D00004F925F926F927F928F929F92AF92BF92FB
:102D1000CF92DF92EF92FF920F931F93CF93DF93A7
:102D200080917C022AE0829FC0011124C6EDD6E08A
:102D3000FDE78F2EF2E09F2E6091520A7091530AA8
:102D400029914AE024029001112462177307A4F12B
:102D500048815AE0450270011124E616F70664F135
:102D6000D401EC911197AC90BAE0AB9E50011124C4
:102D7000CC24B7FCC094DC2C0027F7FC0095102F66
:102D8000442737FD4095542F882777FD8095982F4D
:102D9000AAE0EA9FF00111242F01662457FC6094F9
:102DA000762C7F926F925F924F920E944862CB0185
:102DB0000F900F900F900F90BFEF8B1A9B0A26E099
:102DC000CB3DD20709F0B8CF2091520A3091530A77
:102DD0002739310534F0809181024AE0849FC00197
:102DE0001124DF91CF911F910F91FF90EF90DF9011
:102DF000CF90BF90AF909F908F907F906F905F909B
:102E00004F900895CF93DF938091760982FF06C09B
:102E100061E081E4DF91CF910C94F75B80918202B5
:102E2000909183028230910599F58091E20988237F
:102E3000B9F061E082E40E94F75B80918902909191
:102E40008A029093660A8093650A81E090E09093ED
:102E50008302809382021092680A1092670A7FC0F0
:102E60008091E509882309F47AC020915E0A3091A7
:102E70005F0A80918402909185028217930708F07F
:102E80006EC08091650A9091660A892B31F167C006
:102E9000019709F064C08091650A9091660A892BB8
:102EA00009F05DC060E082E40E94F75B60E081E4CD
:102EB0000E94F75B8091E209811151C080918602E6
:102EC000909187029093660A8093650A82E090E071
:102ED000909383028093820242C012DF9093850216
:102EE000809384022091500A3091510A82179307EF
:102EF000B1F1EC01C21BD30B8217930718F461E008
:102F000082E405C02817390750F561E081E40E948A
:102F1000F75B8091880290E09093660A8093650A3F
:102F200081E090E09093830280938202CA30D105C1
:102F3000B0F48091650A9091660A96958795909372
:102F4000660A8093650A259750F48091650A9091EE
:102F5000660A969587959093660A8093650ADF9135
:102F6000CF9108958091690290916A02A0916B02BD
:102F7000B0916C02892B8A2B8B2B99F0809169027E
:102F800090916A02A0916B02B0916C020197A10925
:102F9000B1098093690290936A02A0936B02B09387
:102FA0006C0208958091650A9091660A892B49F018
:102FB0008091650A9091660A01979093660A8093C2
:102FC000650A80917F0A882329F080917F0A8150C9
:102FD00080937F0A01D88091010890910208892B83
:102FE00049F080910108909102080197909302089E
:102FF000809301088091030890910408892B49F07F
:10300000809103089091040801979093040880939D
:1030100003080E94F209A6CF8AE080936308809398
:1030200064082EE12093650898E2909366088093E7
:1030300067082093680890936908089580916C0848
:103040008823D9F0509155082AE0529FC0011124DD
:1030500020915608821B910920916A0830916B08D3
:103060002817390784F040E06AE0569FC001112418
:10307000281739070CF07EC001C040E0809168023B
:10308000811178C004C01092680241E0EDCF442362
:1030900009F464C08091F9079091FA07009709F04C
:1030A0004DC062E773E082EF9DE00E943B6080913B
:1030B000690880934F0A80916708E7D98091680872
:1030C0002091670830E040E050E0280F311D411D9D
:1030D000511DAAE0B0E00E948A6760936902709374
:1030E0006A0280936B0290936C0260910308709166
:1030F00004084AE050E082EF9DE00E943D6140916B
:10310000690250916A0260916B0270916C022AE030
:1031100030E082EF9DE00E9451610E94E55960938A
:10312000F5077093F6078093F7079093F80781E00F
:1031300090E09093FA078093F90718C00197B1F4D3
:103140008091690290916A02A0916B02B0916C0229
:10315000892B8A2B8B2B09F485C008C067E773E0A5
:1031600082EF9DE00E943B6010924F0A80E08093C6
:10317000680208958091F9079091FA07009709F085
:1031800046C08091690290916A02A0916B02B09151
:103190006C02892B8A2B8B2B09F062C06CE773E0E1
:1031A00082EF9DE00E943B608091660880934F0A09
:1031B000809164086AD9809165082091640830E0A4
:1031C00040E050E0280F311D411D511DAAE0B0E044
:1031D0000E948A676093690270936A0280936B020F
:1031E00090936C024091690250916A0260916B0267
:1031F00070916C022AE030E082EF9DE00E94516104
:1032000081E090E09093FA078093F907B0CF01979F
:1032100039F58091690290916A02A0916B02B09198
:103220006C02892B8A2B8B2BD9F461E873E082EF37
:103230009DE00E943B602091630830E0A8E5B2E089
:103240000E947B676093690270936A0280936B02AD
:1032500090936C0210924F0A1092FA071092F9079D
:1032600081E085CF66E873E082EF9DE00E943B60DD
:103270000E94E559AB01BC018091F5079091F607DA
:10328000A091F707B091F807481B590B6A0B7B0B0D
:103290002AE030E082EF9DE00E9451611092FA072F
:1032A0001092F90763CF8091E4098093E30980913C
:1032B0005408813091F480917002882329F0109293
:1032C0004F0A1092E40908958091720980934F0A81
:1032D000809170098093E40908958250823078F7D4
:1032E000ADCE7F928F929F92AF92BF92CF92DF929C
:1032F000EF92FF920F931F93CF93DF93CDB7DEB77B
:1033000069970FB6F894DEBF0FBECDBF8E010D5E7C
:103310001F4F6EEA77E0C8010E94F96264E170E035
:10332000C8010E94C06221E04BE853E067E979E000
:103330008AE799E00E94AD43882309F4FCC7F02E88
:10334000E12E82E0D82E93E0C92E24E0B22E35E0A3
:10335000A32E46E0942E57E0852E41E050E0BE01BA
:10336000675E7F4F8AE799E00E945440892B09F4F9
:10337000DDC7698D6A3031F06D3021F0C8010E94DF
:10338000AA63EBCF6BEA71E082EF9DE00E94EF5FF2
:10339000B80182EF9DE00E94126069EA71E082EF5D
:1033A0009DE00E942B606DE3C8010E941B642F8981
:1033B000388D121613060CF0B3C78F3F4FEF9407EA
:1033C00009F4AEC7AC014F5F5F4FB801CE010D9657
:1033D0000E941E64CE010D960E94616466E973E04E
:1033E000CE0101960E94F962BE016F5F7F4FC80156
:1033F0000E94E063782ECE0101960E9492627720AF
:1034000039F0CE010D960E94BD646093780284C7A6
:103410006AE973E0CE0101960E94F962BE016F5F16
:103420007F4FC8010E94E063782ECE0101960E9472
:103430009262772039F0CE010D960E94BD646093B0
:1034400079026AC76EE973E0CE0101960E94F962C3
:10345000BE016F5F7F4FC8010E94E063782ECE01EE
:1034600001960E949262772039F0CE010D960E945B
:10347000BD6460937A0250C762EA73E0CE010196A0
:103480000E94F962BE016F5F7F4FC8010E94E06336
:10349000782ECE0101960E949262772039F0CE01FB
:1034A0000D960E94BD6460937B0236C766EA73E0A6
:1034B000CE0101960E94F962BE016F5F7F4FC80185
:1034C0000E94E063782ECE0101960E9492627720DE
:1034D00039F0CE010D960E94BD64609372021CC744
:1034E0006BEA73E0CE0101960E94F962BE016F5F44
:1034F0007F4FC8010E94E063782ECE0101960E94A2
:103500009262772039F0CE010D960E94BD646093DF
:10351000730202C760EB73E0CE0101960E94F9626C
:10352000BE016F5F7F4FC8010E94E063782ECE011D
:1035300001960E949262772039F0CE010D960E948A
:10354000BD6460937402E8C665EB73E0CE0101963A
:103550000E94F962BE016F5F7F4FC8010E94E06365
:10356000782ECE0101960E949262772039F0CE012A
:103570000D960E94BD6460937502CEC66AEB73E03F
:10358000CE0101960E94F962BE016F5F7F4FC801B4
:103590000E94E063782ECE0101960E94926277200D
:1035A00039F0CE010D960E94BD6460937602B4C6D8
:1035B0006FEB73E0CE0101960E94F962BE016F5F6E
:1035C0007F4FC8010E94E063782ECE0101960E94D1
:1035D0009262772039F0CE010D960E94BD6460930F
:1035E00077029AC664EC73E0CE0101960E94F962FC
:1035F000BE016F5F7F4FC8010E94E063782ECE014D
:1036000001960E949262772029F0CE010D960E94C9
:10361000BD6482C668ED73E0CE0101960E94F96236
:10362000BE016F5F7F4FC8010E94E063782ECE011C
:1036300001960E949262772039F0CE010D960E9489
:10364000BD6460933F0868C662EE73E0CE010196E8
:103650000E94F962BE016F5F7F4FC8010E94E06364
:10366000782ECE0101960E949262772039F0CE0129
:103670000D960E94BD64609340084EC662EF73E0F1
:10368000CE0101960E94F962BE016F5F7F4FC801B3
:103690000E94E063782ECE0101960E94926277200C
:1036A00039F0CE010D960E94BD646093410834C686
:1036B0006FEF73E0CE0101960E94F962BE016F5F69
:1036C0007F4FC8010E94E063782ECE0101960E94D0
:1036D0009262772049F0CE010D960E94BD647093EE
:1036E00043086093420818C661E174E0CE01019678
:1036F0000E94F962BE016F5F7F4FC8010E94E063C4
:10370000782ECE0101960E949262772049F0CE0178
:103710000D960E94BD6470934B0860934A08FCC5E7
:1037200062E274E0CE0101960E94F962BE016F5F11
:103730007F4FC8010E94E063782ECE0101960E945F
:103740009262772049F0CE010D960E94BD6470937D
:10375000470860934608E0C56EE274E0CE0101962A
:103760000E94F962BE016F5F7F4FC8010E94E06353
:10377000782ECE0101960E949262772049F0CE0108
:103780000D960E94BD6470934F0860934E08C4C5A7
:1037900069E374E0CE0101960E94F962BE016F5F99
:1037A0007F4FC8010E94E063782ECE0101960E94EF
:1037B0009262772049F0CE010D960E94BD6470930D
:1037C000450860934408A8C569E474E0CE010196F9
:1037D0000E94F962BE016F5F7F4FC8010E94E063E3
:1037E000782ECE0101960E949262772049F0CE0198
:1037F0000D960E94BD6470934D0860934C088CC573
:1038000068E574E0CE0101960E94F962BE016F5F27
:103810007F4FC8010E94E063782ECE0101960E947E
:103820009262772049F0CE010D960E94BD6470939C
:1038300049086093480870C56EE376E0CE010196B2
:103840000E94F962BE016F5F7F4FC8010E94E06372
:10385000782ECE0101960E949262772049F0CE0127
:103860000D960E94BD64709351086093500854C532
:1038700065E674E0CE0101960E94F962BE016F5FB9
:103880007F4FC8010E94E063782ECE0101960E940E
:103890009262772071F0CE010D960E94BD649B016B
:1038A000215031092336310508F036C5609352089E
:1038B00033C56BE774E0CE0101960E94F962BE0148
:1038C0006F5F7F4FC8010E94E063782ECE010196A2
:1038D0000E949262772071F0CE010D960E94BD6425
:1038E0009B01215031092A35310508F015C5609337
:1038F000530812C56AE874E0CE0101960E94F9628D
:10390000BE016F5F7F4FC8010E94E063782ECE0139
:1039100001960E949262772071F0CE010D960E946E
:10392000BD649B01215031092336310508F0F4C4F0
:1039300060935808F1C465E974E0CE0101960E94D5
:10394000F962BE016F5F7F4FC8010E94E063782E6D
:10395000CE0101960E949262772071F0CE010D9601
:103960000E94BD649B01215031092336310508F0C6
:10397000D3C460935708D0C460EA74E0CE010196C6
:103980000E94F962BE016F5F7F4FC8010E94E06331
:10399000782ECE0101960E949262772071F0CE01BE
:1039A0000D960E94BD649B012150310923363105DB
:1039B00008F0B2C460935508AFC46CEA74E0CE015D
:1039C00001960E94F962BE016F5F7F4FC8010E949D
:1039D000E063782ECE0101960E949262772071F00A
:1039E000CE010D960E94BD649B0121503109233602
:1039F000310508F091C4609356088EC46BEB74E0F7
:103A0000CE0101960E94F962BE016F5F7F4F8F2D3C
:103A10009E2D0E94E063782ECE0101960E94926254
:103A2000772071F0BE01635F7F4FCE0101960E9447
:103A30005763CE0101960E94D3148093540843C06B
:103A400069EC74E0CE0101960E94F962BE016F5FDD
:103A50007F4F8F2D9E2D0E94E063782ECE01019620
:103A60000E949262772071F0CE010D960E94BD6493
:103A70009B01215031092336310508F04DC4609374
:103A80005D084AC464ED74E0CE0101960E94F962BB
:103A9000BE016F5F7F4F8F2D9E2D0E94E063782EB9
:103AA000CE0101960E949262772091F0BE01635F81
:103AB0007F4FCE0101960E945763CE0101960E946E
:103AC000461580935B08CE0101960E94926224C441
:103AD0006DED74E0CE0101960E94F962BE016F5F48
:103AE0007F4F8F2D9E2D0E94E063782ECE01019690
:103AF0000E949262772069F0BE01635F7F4FCE0122
:103B000001960E945763CE01019648D880935C08C5
:103B1000DACF6AEE74E0CE0101960E94F962BE012E
:103B20006F5F7F4F8F2D9E2D0E94E063782ECE0118
:103B300001960E949262772059F0CE010D960E9464
:103B4000BD646436710508F0E7C360935F08E4C3A1
:103B500068EF74E0CE0101960E94F962BE016F5FCA
:103B60007F4F8F2D9E2D0E94E063782ECE0101960F
:103B70000E949262772071F0CE010D960E94BD6482
:103B80009B01215031092336310508F0C5C36093EC
:103B90005E08C2C362E075E0CE0101960E94F96240
:103BA000BE016F5F7F4F8F2D9E2D0E94E063782EA8
:103BB000CE0101960E949262772071F0CE010D969F
:103BC0000E94BD649B01215031092336310508F064
:103BD000A3C360936208A0C36EE075E0CE010196B6
:103BE0000E94F962BE016F5F7F4F8F2D9E2D0E9454
:103BF000E063782ECE0101960E949262772071F0E8
:103C0000BE01635F7F4FCE0101960E945763CE01D4
:103C100001960E9446158093600855CF68E175E0D3
:103C2000CE0101960E94F962BE016F5F7F4F8F2D1A
:103C30009E2D0E94E063782ECE0101960E94926232
:103C4000772071F0BE01635F7F4FCE0101960E9425
:103C50005763CE0101960E94CE158093610833CF41
:103C600066E275E0CE0101960E94F962BE016F5FC7
:103C70007F4F8F2D9E2D0E94E063782ECE010196FE
:103C80000E949262772071F0BE01635F7F4FCE0188
:103C900001960E945763CE0101960E940D168093F3
:103CA000590811CF6EE275E0CE0101960E94F962CB
:103CB000BE016F5F7F4F8F2D9E2D0E94E063782E97
:103CC000CE0101960E949262772071F0BE01635F7F
:103CD0007F4FCE0101960E945763CE0101960E944C
:103CE000CE1580935A08EFCE6AE375E0CE010196B7
:103CF0000E94F962BE016F5F7F4F8F2D9E2D0E9443
:103D0000E063782ECE0101960E949262772059F0EE
:103D1000CE010D960E94BD64161617060CF0FCC26B
:103D200060936308F9C26FE475E0CE0101960E94CA
:103D3000F962BE016F5F7F4F8F2D9E2D0E94E06361
:103D4000782ECE0101960E949262772059F0CE0122
:103D50000D960E94BD64161617060CF0DDC2609326
:103D60006408DAC267E675E0CE0101960E94F96246
:103D7000BE016F5F7F4F8F2D9E2D0E94E063782ED6
:103D8000CE0101960E949262772059F0CE010D96E5
:103D90000E94BD64161617060CF0BEC2609365083B
:103DA000BBC26EE775E0CE0101960E94F962BE01CA
:103DB0006F5F7F4F8F2D9E2D0E94E063782ECE0186
:103DC00001960E949262772059F0CE010D960E94D2
:103DD000BD64161617060CF09FC2609366089CC25D
:103DE00062E975E0CE0101960E94F962BE016F5F43
:103DF0007F4F8F2D9E2D0E94E063782ECE0101967D
:103E00000E949262772059F0CE010D960E94BD6407
:103E1000161617060CF080C2609367087DC263EA2D
:103E200075E0CE0101960E94F962BE016F5F7F4F7F
:103E30008F2D9E2D0E94E063782ECE0101960E9468
:103E40009262772059F0CE010D960E94BD6416163D
:103E500017060CF061C2609368085EC263EB75E000
:103E6000CE0101960E94F962BE016F5F7F4F8F2DD8
:103E70009E2D0E94E063782ECE0101960E949262F0
:103E8000772059F0CE010D960E94BD6416161706D4
:103E90000CF042C2609369083FC260EC75E0CE014D
:103EA00007960E94F962BE01695F7F4F8F2D9E2D9C
:103EB0000E94E063811117C060ED75E0CE010196AC
:103EC0000E94F962BE016F5F7F4F8F2D9E2D0E9471
:103ED000E06377247394811101C0712CCE010196A7
:103EE0000E94926202C077247394CE0107960E94CA
:103EF0009262772041F1CE010D960E94BD6461303F
:103F000009F00AC2D0926C0810926D08D092710824
:103F100060937208D0927608D0927708D0927B088E
:103F2000C0927C08D0928008B0928108D092850817
:103F3000A0928608D0928A0890928B08D0928F081F
:103F400080929008E9C160EE75E0CE0101960E9472
:103F5000F962BE016F5F7F4F8F2D9E2D0E94E0633F
:103F6000782ECE0101960E949262772031F0BE0138
:103F7000635F7F4F80E090E019C066EE75E0CE0190
:103F800001960E94F962BE016F5F7F4F8F2D9E2DBB
:103F90000E94E063782ECE0101960E949262772003
:103FA00041F0BE01635F7F4F81E090E00E94170EF9
:103FB000B3C16EEE75E0CE0101960E94F962BE01BA
:103FC0006F5F7F4F8F2D9E2D0E94E063782ECE0174
:103FD00001960E949262772031F0BE01635F7F4FAD
:103FE00082E090E0E3CF68EF75E0CE0101960E9499
:103FF000F962BE016F5F7F4F8F2D9E2D0E94E0639F
:10400000782ECE0101960E949262772031F0BE0197
:10401000635F7F4F83E090E0C9CF6DEF75E0CE0125
:1040200001960E94F962BE016F5F7F4F8F2D9E2D1A
:104030000E94E063782ECE0101960E949262772062
:1040400031F0BE01635F7F4F84E090E0AFCF62E06C
:1040500076E0CE0101960E94F962BE016F5F7F4F4C
:104060008F2D9E2D0E94E063782ECE0101960E9436
:104070009262772031F0BE01635F7F4F85E090E070
:1040800095CF67E076E0CE0101960E94F962BE010D
:104090006F5F7F4F8F2D9E2D0E94E063782ECE01A3
:1040A00001960E949262772031F0BE01635F7F4FDC
:1040B00086E090E07BCF60E176E0CE0101960E9441
:1040C000F962BE016F5F7F4F8F2D9E2D0E94E063CE
:1040D000782ECE0101960E949262772031F0BE01C7
:1040E000635F7F4F87E090E061CF69E176E0CE01CA
:1040F00001960E94F962BE016F5F7F4F8F2D9E2D4A
:104100000E94E063782ECE0101960E949262772091
:1041100031F0BE01635F7F4F88E090E047CF6CE1F4
:1041200076E0CE0101960E94F962BE016F5F7F4F7B
:104130008F2D9E2D0E94E063782ECE0101960E9465
:104140009262772031F0BE01635F7F4F89E090E09B
:104150002DCF6FE176E0CE0101960E94F962BE019B
:104160006F5F7F4F8F2D9E2D0E94E063782ECE01D2
:1041700001960E949262772031F0BE01635F7F4F0B
:104180008AE090E013CF62E276E0CE0101960E94D1
:10419000F962BE016F5F7F4F8F2D9E2D0E94E063FD
:1041A000782ECE0101960E949262772031F0BE01F6
:1041B000635F7F4F8BE090E0F9CE65E276E0CE0161
:1041C00001960E94F962BE016F5F7F4F8F2D9E2D79
:1041D0000E94E063782ECE0101960E9492627720C1
:1041E00031F0BE01635F7F4F8CE090E0DFCE68E28C
:1041F00076E0CE0101960E94F962BE016F5F7F4FAB
:104200008F2D9E2D0E94E063782ECE0101960E9494
:104210009262772031F0BE01635F7F4F8DE090E0C6
:10422000C5CE6BE276E0CE0101960E94F962BE0136
:104230006F5F7F4F8F2D9E2D0E94E063782ECE0101
:1042400001960E949262772031F0BE01635F7F4F3A
:104250008EE090E0ABCE6EE276E0CE0101960E9459
:10426000F962BE016F5F7F4F8F2D9E2D0E94E0632C
:10427000782ECE0101960E949262772031F0BE0125
:10428000635F7F4F8FE090E091CE61E376E0CE01F7
:1042900001960E94F962BE016F5F7F4F8F2D9E2DA8
:1042A0000E94E063782ECE0101960E9492627720F0
:1042B00059F0CE010D960E94BD6463E971E082EF72
:1042C0009DE00E942B6028C06CE376E0CE01019651
:1042D0000E94F962BE016F5F7F4F8F2D9E2D0E945D
:1042E000E063782ECE0101960E94926271108DC912
:1042F0006CE376E0CE0101960E94F962BE016F5F29
:104300007F4F8F2D9E2D0E94E063782ECE01019667
:104310000E949262711079C9CE010D960E9492623C
:104320006EEA77E0C8010E946A6317C88AE799E0DD
:104330000E94834206C068E771E082EF9DE00E9420
:10434000EF5FC8010E94926269960FB6F894DEBFD3
:104350000FBECDBFDF91CF911F910F91FF90EF90D6
:10436000DF90CF90BF90AF909F908F907F900895F7
:10437000CF92DF92EF92FF920F931F93CF93DF9331
:10438000EC018B0142967C016115710589F464E9A9
:1043900071E00E94F24C67E674E0CE01DF91CF91AC
:1043A0001F910F91FF90EF90DF90CF900C94EF5FF3
:1043B000CB010E943B4E6C0168EC70E0C7010E948B
:1043C000F24CB601CE010E94164D67E474E0CE01B6
:1043D0000E94EF5FC7010E94286021E0A80167E901
:1043E00079E08AE799E00E94AD438823E1F064E335
:1043F00074E082EF9DE00E94EF5FB80182EF9DE0E4
:104400000E943B606AE779E0CE010E94AD4E8AE7E8
:1044100099E0DF91CF911F910F91FF90EF90DF9086
:10442000CF900C94834262E274E0CE010E94EF5F71
:10443000B801CE010E9420606DEA77E0CE01DF91E5
:10444000CF911F910F91FF90EF90DF90CF900C9440
:1044500020600F931F93CF93DF938C010E945C4DDC
:104460000E94154EEC01BC01C80182DFCE010E9402
:104470004A6881E0DF91CF911F910F9108956AE41E
:1044800076E076DF81E008950F931F93CF93DF935B
:10449000EC01CB016AE070E00E9424678C014AE0E5
:1044A00050E0CE010E94E96065EA73E0CE010E940F
:1044B000EF5F4AE050E0B801CE01DF91CF911F914C
:1044C0000F910C94E960EF92FF920F931F93CF939B
:1044D000DF938C01EC01629668EC70E0CE010E94E3
:1044E000F24C6FEC72E0C8010E94424D65E873E047
:1044F000C8010E94EF5FCE010E94286068E773E068
:10450000CE010E94EF5F0AE618E0E12CF12C6EE686
:1045100073E0CE010E94EF5FF80160817181CE01EE
:10452000B3DFFFEFEF1AFF0A80E1E816F10441F074
:1045300065E773E0CE010E94EF5F0B5F1F4FE7CF8F
:104540006AE673E0CE010E94EF5F61E673E0CE01A0
:104550000E94EF5F4AE050E060914F0ACE010E9456
:1045600022616FE573E0CE010E94EF5F66E573E0C4
:10457000CE010E94EF5F60913508709136084AE0E5
:1045800050E0CE010E94E96064E573E0CE010E9434
:10459000EF5F6CE473E0CE010E94EF5F8091E4096D
:1045A000882319F069EA73E002C064E576E0CE0181
:1045B0000E9420606AE473E0CE010E94EF5F61E434
:1045C00073E0CE010E94EF5F85E40E942C5C892B92
:1045D00019F06CED72E002C061EE72E0CE010E9453
:1045E00020606FE373E0CE010E94EF5F66E373E04B
:1045F000CE010E94EF5F84E40E942C5C892B19F0AD
:104600006CED72E002C061EE72E0CE010E942060AB
:1046100064E373E0CE010E94EF5F6CE273E0CE01D1
:104620000E94EF5F0E94E55928EE33E040E050E041
:104630000E943767BA01A9012AE030E0CE010E944A
:10464000166163E273E0CE010E94EF5F6AE173E0FE
:10465000CE010E94EF5F67E173E0CE010E942B6004
:1046600081E0DF91CF911F910F91FF90EF9008951E
:10467000EF92FF920F931F93CF93DF9300D000D060
:10468000CDB7DEB726E040E052EC61E070E082EFAB
:104690009DE00E94665D26E040E052EC61E070E043
:1046A00083EB9EE00E94665D61E082E10E94F75B21
:1046B00061E083E10E94F75B61E08DE00E94F75BBF
:1046C00061E08DE00E94BE5B6AEF70E080E090E008
:1046D0000E94145A82EF9DE00E9428606FE872E009
:1046E00082EF9DE00E94EF5F66E872E082EF9DE05E
:1046F0000E942B600E94BB1260E082E40E94F75B84
:1047000061E082E40E94BE5B60E081E40E94F75BAE
:1047100061E081E40E94BE5B85E0809352088CE3F7
:104720008093530860E080E40E94F75B61E080E4DE
:104730000E94BE5B0E940C1829E288E190E00FB64F
:10474000F894A895809360000FBE209360000E94AB
:104750001F0D61E085E30E94BE5B61E085E30E947E
:10476000F75B61E08AE00E94BE5B61E08AE00E9444
:10477000F75B61E084E00E94BE5B61E084E00E9440
:10478000F75B44E060E082ED99E00E94433D8111D7
:1047900008C066E772E082EF9DE00E94EF5F109232
:1047A0006F0241E062ED79E084EB99E00E94BD493F
:1047B000811111C040E062ED79E084EB99E00E9444
:1047C000BD49811108C066E672E082EF9DE00E945B
:1047D000EF5F10926F0264EB79E087E999E00E9445
:1047E0000540811108C06EE472E082EF9DE00E94F6
:1047F000EF5F10926F0280916F02882331F182E2A5
:1048000095E09093280D8093270D63E472E082EF8A
:104810009DE00E94EF5F0E94E33B4AE050E0BC0154
:1048200082EF9DE00E94F0600E94711968E372E0DF
:1048300082EF9DE00E94EF5F0E94E33B4AE050E080
:10484000BC0182EF9DE00E94F0600E9475106DE156
:1048500072E082EF9DE00E94EF5F68E772E0CE01B8
:1048600001960E94875FAE014F5F5F4F62E772E083
:1048700088E99AE00E94A72F62E172E082EF9DE052
:104880000E94EF5F0E94E33B4AE050E0BC0182EFF0
:104890009DE00E94F06046E050E0BE016F5F7F4FF8
:1048A00089E090E00E94073B46E050E062E772E05A
:1048B000CE0101960E94236A21E0892B09F420E0B1
:1048C0002093C70721114FC010917B0200917A02FB
:1048D000F0907902E09078026BEF71E082EF9DE05A
:1048E0000E94EF5F4AE050E06E2D82EF9DE00E9453
:1048F00022616AE072E082EF9DE00E94EF5F4AE091
:1049000050E06F2D82EF9DE00E9422616CE072E02A
:1049100082EF9DE00E94EF5F4AE050E0602F82EF5F
:104920009DE00E9422616EE072E082EF9DE00E94B5
:10493000EF5F4AE050E0612F82EF9DE00E9422612C
:1049400060E172E082EF9DE00E94EF5F61EE71E056
:1049500082EF9DE00E94EF5F80ED97E00E94E752BA
:104960006EEC71E002C065EB71E082EF9DE00E94A9
:10497000EF5F8AE79AE00E9450576093760A70933F
:10498000770A8093780A9093790A0E94E559609398
:10499000CC077093CD078093CE079093CF0780917B
:1049A000CC079091CD07A091CE07B091CF0780930F
:1049B000C8079093C907A093CA07B093CB0782E0BA
:1049C0000E94A7579093810A8093800A80E1809388
:1049D00091001092900083E08093E20D84ED90E3CB
:1049E0009093E40D8093E30D90939700809396004D
:1049F00083E18093910082ED97E19093E60D80939F
:104A0000E50D81E08093710026960FB6F894DEBF25
:104A10000FBECDBFDF91CF911F910F91FF90EF900F
:104A200008950F9300E020E040E060E082E89AE023
:104A30000E947B5F6DE38AE79AE00E94A556109280
:104A4000D7091092D8091092DB091092DD0982E093
:104A500090E0A0E0B0E08093B4099093B509A093F2
:104A6000B609B093B7091092CB0910929A09109227
:104A7000990980E497E090939809809397091092A0
:104A80009C0910927D0910927C0990937B09809378
:104A90007A0910927F0980EE96E0909353098093F3
:104AA00052098BEC95E0909355098093540980E06E
:104AB00091E0909357098093560966EB75E08EE478
:104AC00099E00E942B3C66E180E499E00E94195431
:104AD00085EC98E090930808809307088EE195E0B4
:104AE00090930A088093090810920D0810920E08FE
:104AF00010920F08109210081092110810921208CC
:104B000010921308109214081092150810921608AB
:104B100010921B0810921C0810921D0810921E087B
:104B200010921F081092200810922108109222085B
:104B300010922708109228081092290810922A082B
:104B400010922B0810922C0810922D0810922E080B
:104B50006EEA77E08FEE97E00E94F96220E530E0A0
:104B60004AE052E06EE072E080ED97E00F910C9425
:104B7000134B8FEE97E00C949262AF92BF92CF925C
:104B8000DF92EF92FF920F931F93CF93DF93CDB7F6
:104B9000DEB764970FB6F894DEBF0FBECDBF80912D
:104BA0006D0290916E02009799F40E94E55960930E
:104BB00058097093590980935A0990935B09109290
:104BC000E1091092E0091092DF0981E090E01BC03A
:104BD0000197E9F40E94E55900915809109159098B
:104BE00020915A0930915B09601B710B820B930B6A
:104BF000653671058105910550F01092E10910921A
:104C0000E00982E090E090936E0280936D028091C3
:104C10006D0290916E028230910509F05AC0109297
:104C2000E80981E0809371020091500910915109C7
:104C3000C8010E941A6AE82EC090E90990E0D0905D
:104C4000EA09FF24F394BB24B394BF0C9E15D0F45F
:104C5000F801E90FF11DC49082E0A82EA90E9F5F14
:104C6000F801E90FF11DD4906D2D8C2D0E94900953
:104C7000A1E0B0E0AC0FBD1FAF0DB11D8C939A2D1C
:104C8000FB2CE1CFC092E9099093E809D092EA09A0
:104C90001E2D1695198381E0809371029091710207
:104CA000191780F081E0890F80937102E1E0F0E054
:104CB000EC0FFD1FE90FF11D608183EB9EE00E9468
:104CC000025DECCF1092E1091092E00983E090E0E0
:104CD0008DC083309105B1F583EB9EE00E94545C5A
:104CE000892B59F0109271021092E7091092E10994
:104CF0001092E00984E090E079C08091E009909101
:104D0000E10901969093E1098093E009813991408E
:104D100008F459C11092E1091092E0092091DF09CD
:104D20002F5F2093DF0982E090E090936E028093E2
:104D30006D02263008F447C181E08093690A8093B0
:104D4000700241C18430910509F055C083EB9EE0AB
:104D50000E94545C18161906BCF483EB9EE00E9476
:104D6000545C181619069CF51091710281E0810FB0
:104D70008093710283EB9EE00E946E5CE12FF0E075
:104D8000E551F64F8083E9CF8091E0099091E109E8
:104D900001969093E1098093E00981399140B8F040
:104DA0001092E1091092E00982E090E090936E0287
:104DB00080936D028091DF098F5F8093DF098630D9
:104DC00030F082E08093690A81E0809370028091E4
:104DD0007102863508F4F7C08093E70910927102DA
:104DE0001092E1091092E00987E090E090936E0242
:104DF00080936D02E8C0079709F0E5C08091E7094C
:104E0000863509F0C2C00E94A009882309F4BDC0FC
:104E100010927002A091FC09B0E0BA2FAA278091ED
:104E2000FB09A82BB0936909A0936809E091FE09DA
:104E3000F0E0FE2FEE278091FD09E82BF093650945
:104E4000E09364096091000A70E0762F66278091F4
:104E5000FF09682B70936309609362094091020A0D
:104E600050E0542F44278091010A482B5093670942
:104E7000409366098091040A90E0982F882720913A
:104E8000030A822B90935F0980935E098091060A42
:104E900090E0982F88272091050A822B9093610932
:104EA000809360092091080A30E0322F22278091F8
:104EB000070A282B30935D0920935C0980910A0A28
:104EC00090E0982F88271091090A812B90936B0905
:104ED00080936A0910910B0A10936C090091120AD1
:104EE0000093720911FB002700F9009370090091EB
:104EF000280A00937309017000937409B093510A52
:104F0000A093500AF093570AE093560A7093530AFD
:104F10006093520A50935A0A4093590A30935F0A99
:104F200020935E0A9093550A8093540A8091100A48
:104F300080935D0A8091110A8093580A81E09091D4
:104F40003E0A913009F080E08093E20912FB882745
:104F500080F98093E50913FB112710F91093E609F6
:104F600081E090910D0A913009F080E080935C0A15
:104F700081E090910C0A913009F080E080935B0A07
:104F800010926E0210926D021EC08091E009909105
:104F9000E10901969093E1098093E00981399140FC
:104FA00078F31092E1091092E0098091DF098F5F98
:104FB0008093DF09863020F384E08093690A81E0E2
:104FC00080937002DDCF64960FB6F894DEBF0FBEFB
:104FD000CDBFDF91CF911F910F91FF90EF90DF90A8
:104FE000CF90BF90AF9008950F931F93A8950E9404
:104FF000E55960936E0A70936F0A8093700A9093DC
:10500000710A80916E0A90916F0AA091700AB09116
:10501000710A80936A0A90936B0AA0936C0AB0930A
:105020006D0A80916E0A90916F0AA091700AB091FA
:10503000710A4091C8075091C9076091CA077091E1
:10504000CB07841B950BA60BB70BC397A105B10526
:1050500084F080916E0A90916F0AA091700AB091CD
:10506000710A8093C8079093C907A093CA07B093A9
:10507000CB070E94E55900916A0A10916B0A2091B2
:105080006C0A30916D0A601B710B820B930B60935D
:105090006A0A70936B0A80936C0A90936D0A8091F0
:1050A0006A0A90916B0AA0916C0AB0916D0A0397FD
:1050B000A105B105A4F063E771E082EF9DE00E94D5
:1050C000EF5F40916A0A50916B0A60916C0A70918F
:1050D0006D0A2AE030E082EF9DE00E9406610E94A6
:1050E000E55960936A0A70936B0A80936C0A9093F7
:1050F0006D0A43DD0E94E55900916A0A10916B0A1E
:1051000020916C0A30916D0A601B710B820B930B1E
:1051100060936A0A70936B0A80936C0A90936D0A8D
:1051200080916A0A90916B0AA0916C0AB0916D0A05
:105130000397A105B105A4F06EE671E082EF9DE052
:105140000E94EF5F40916A0A50916B0A60916C0A6D
:1051500070916D0A2AE030E082EF9DE00E940661C6
:105160000E94E55960936A0A70936B0A80936C0AF7
:1051700090936D0A0E942B0D0E94E55900916A0AD6
:1051800010916B0A20916C0A30916D0A601B710BB3
:10519000820B930B60936A0A70936B0A80936C0A7C
:1051A00090936D0A80916A0A90916B0AA0916C0AA3
:1051B000B0916D0A0297A105B105A4F068E671E00F
:1051C00082EF9DE00E94EF5F40916A0A50916B0A66
:1051D00060916C0A70916D0A2AE030E082EF9DE0E8
:1051E0000E9406610E94E55960936A0A70936B0AF7
:1051F00080936C0A90936D0A0E94710D0E94E5598C
:1052000000916A0A10916B0A20916C0A30916D0A24
:10521000601B710B820B930B60936A0A70936B0A8D
:1052200080936C0A90936D0A80916A0A90916B0A40
:10523000A0916C0AB0916D0A0397A105B105A4F085
:1052400063E671E082EF9DE00E94EF5F40916A0AA1
:1052500050916B0A60916C0A70916D0A2AE030E0FF
:1052600082EF9DE00E9406610E94E55960936A0A00
:1052700070936B0A80936C0A90936D0A0E94E559B3
:1052800000916A0A10916B0A20916C0A30916D0AA4
:10529000601B710B820B930B60936A0A70936B0A0D
:1052A00080936C0A90936D0A80916A0A90916B0AC0
:1052B000A0916C0AB0916D0A0397A105B105A4F005
:1052C0006EE571E082EF9DE00E94EF5F40916A0A17
:1052D00050916B0A60916C0A70916D0A2AE030E07F
:1052E00082EF9DE00E9406610E94E55960936A0A80
:1052F00070936B0A80936C0A90936D0A0E94531905
:105300000E94E55900916A0A10916B0A20916C0A7B
:1053100030916D0A601B710B820B930B60936A0ACC
:1053200070936B0A80936C0A90936D0A80916A0A5D
:1053300090916B0AA0916C0AB0916D0A0397A10538
:10534000B105A4F069E571E082EF9DE00E94EF5F96
:1053500040916A0A50916B0A60916C0A70916D0AD3
:105360002AE030E082EF9DE00E9406610E94E5594C
:1053700060936A0A70936B0A80936C0A90936D0A2B
:105380000E9459120E94E55900916A0A10916B0A15
:1053900020916C0A30916D0A601B710B820B930B8C
:1053A00060936A0A70936B0A80936C0A90936D0AFB
:1053B00080916A0A90916B0AA0916C0AB0916D0A73
:1053C0000397A105B105A4F064E571E082EF9DE0CB
:1053D0000E94EF5F40916A0A50916B0A60916C0ADB
:1053E00070916D0A2AE030E082EF9DE00E94066134
:1053F0000E94E55960936A0A70936B0A80936C0A65
:1054000090936D0A0E949F100E94E55900916A0ACC
:1054100010916B0A20916C0A30916D0A601B710B20
:10542000820B930B60936A0A70936B0A80936C0AE9
:1054300090936D0A80916A0A90916B0AA0916C0A10
:10544000B0916D0A0397A105B105A4F06FE471E076
:1054500082EF9DE00E94EF5F40916A0A50916B0AD3
:1054600060916C0A70916D0A2AE030E082EF9DE055
:105470000E9406610E94E55960936A0A70936B0A64
:1054800080936C0A90936D0A0E94AA130E94E559BA
:1054900000916A0A10916B0A20916C0A30916D0A92
:1054A000601B710B820B930B60936A0A70936B0AFB
:1054B00080936C0A90936D0A80916A0A90916B0AAE
:1054C000A0916C0AB0916D0A0397A105B105A4F0F3
:1054D0006AE471E082EF9DE00E94EF5F40916A0A0A
:1054E00050916B0A60916C0A70916D0A2AE030E06D
:1054F00082EF9DE00E94066180917002811142C09E
:105500000E94E55960936A0A70936B0A80936C0A53
:1055100090936D0A0E9402170E94E55900916A0A51
:1055200010916B0A20916C0A30916D0A601B710B0F
:10553000820B930B60936A0A70936B0A80936C0AD8
:1055400090936D0A80916A0A90916B0AA0916C0AFF
:10555000B0916D0A0397A105B105A4F065E471E06F
:1055600082EF9DE00E94EF5F40916A0A50916B0AC2
:1055700060916C0A70916D0A2AE030E082EF9DE044
:105580000E94066180917F0A811113C08DE00E9404
:105590002C5C61E0892B09F060E08DE00E94F75BF4
:1055A00080917002811102C081E001C08AE0809385
:1055B0007F0A80916F02882309F448C08091C70751
:1055C000811144C00E94E55960936A0A70936B0A86
:1055D00080936C0A90936D0A80ED97E00E94C24F11
:1055E0000E94E55900916A0A10916B0A20916C0A99
:1055F00030916D0A601B710B820B930B60936A0AEA
:1056000070936B0A80936C0A90936D0A80916A0A7A
:1056100090916B0AA0916C0AB0916D0A0397A10555
:10562000B105A4F060E471E082EF9DE00E94EF5FBD
:1056300040916A0A50916B0A60916C0A70916D0AF0
:105640002AE030E082EF9DE00E9406618091640ACA
:10565000882399F06AE371E082EF9DE00E94EF5F9A
:105660006EE270E082EF9DE00E94890968EE73E0CF
:1056700080E090E00E94145AF3CF82EF9DE00E94F8
:10568000545C892B51F082EF9DE00E946E5C823564
:10569000910519F481E08093640A1F910F91089598
:1056A000CF93CFB7F89480918B0A811127C0EDE595
:1056B000F9E08491E7E1F9E09491E82FF0E0EE0F52
:1056C000FF1FEE55F64FA591B4918C91892321F4DB
:1056D00061E085E30E94F75B61E085E30E94BE5BC9
:1056E0008CB580618CBD8CB580648CBD61E084E339
:1056F0000E94BE5B61E083E30E94BE5B80918B0AE7
:105700008F5F80938B0ACFBFCF9108950F9300E0F6
:1057100020E040E060E08CE89AE00E947B5F0F911F
:105720000895FB014281538164817581FC014283AC
:10573000538364837583178216820895FB0120E0EA
:1057400080E090E06AE03191332309F170ED730F4E
:105750007A3080F4DC016A9FC0016B9F900D1124A8
:10576000C097830F911D37FD9A958F3F910559F38F
:1057700050F314C03E3291F4233081F0DA01A20FCD
:10578000B11D12968C932F5F80E090E0DCCF233028
:1057900029F4FA01858381E090E0089580E090E0AB
:1057A00008950F9300E020E040E060E082E99AE095
:1057B0000E947B5F0F910895AF92BF92CF92DF92CC
:1057C000EF92FF920F931F93CF93DF9300D01F921E
:1057D0001F92CDB7DEB78C017B010E94E559F8011D
:1057E000778366837627672776277A836983085FBE
:1057F0001F4F42E050E0BE016F5F7F4FC801A4D74A
:1058000081E090E09C838B8342E050E0BE016D5FBD
:105810007F4FC80199D780E091E09C838B8342E061
:1058200050E0BE016D5F7F4FC8018ED71C821B8286
:1058300042E050E0BE016D5F7F4FC80185D742E076
:1058400050E0BE016D5F7F4FC8017ED742E050E05F
:10585000BE016D5F7F4FC80177D76701F601808178
:10586000882301F1F7016F018191811113C0560165
:10587000AE18BF081A141B0484F4AD8241E050E056
:10588000BE016B5F7F4FC8015FD7A501B701C8019B
:105890005BD703C08E3239F7EACF7601FFEFEF1AFC
:1058A000FF0ADCCF1D8241E050E0BE016B5F7F4FFD
:1058B000C8014AD7E12CFF24F394FC82EB8242E03A
:1058C00050E0BE016D5F7F4FC8013ED7FC82EB8286
:1058D00042E050E0BE016D5F7F4FC80135D781E0E7
:1058E00090E00F900F900F900F900F90DF91CF915D
:1058F0001F910F91FF90EF90DF90CF90BF90AF90EE
:1059000008954F925F926F927F928F929F92AF9283
:10591000BF92CF92DF92EF92FF920F931F93CF939C
:10592000DF93CDB7DEB763970FB6F894DEBF0FBE37
:10593000CDBF7C015B016A010E94E5592B013C014E
:105940008701085F1F4F4501A12CB12CC80196D7D4
:105950001816190694F00E94E5596419750986090C
:10596000970986169706A806B906D0F062E370E09C
:1059700080E090E00E94145AE9CFF7014281538100
:1059800064817581808D918DA28DB38D48175907E3
:105990006A077B0741F4848D958DC59721F406C075
:1059A0008FEF9FEFE1C08EEF9FEFDEC0C80193D66F
:1059B0000C97E4F04CE050E0BE016F5F7F4FC801F0
:1059C000FED66C818B810E948D629A8B898BF70148
:1059D000E680F7806A8189810E948D62E816F90667
:1059E00041F489899A8997FF04C008C08DEF9FEF21
:1059F000BBC0C8018AD68CEF9FEFB6C08F70927083
:105A0000892B29F0C80181D68BEF9FEFADC0688547
:105A10008F810E948D625C01009719F0E12CF12CBE
:105A20001DC0C80172D68AEF9FEF9EC041E050E0D2
:105A3000BE01635F7F4FC801C2D68D85811116C03C
:105A40008D858111F3CFC80192D6C80190D6C801C7
:105A50008ED6C8018CD6FFEFEF1AFF0A6E818D81BA
:105A60000E948D62E816F90608F309C08D859FEF44
:105A7000980F9D87882321F3C80179D6F7CFE12CB1
:105A8000F12C41E050E0BE016D5E7F4FC80197D61A
:105A90008B89982F907C59F4882361F08B899FEF34
:105AA000980F9B8B882331F0C80161D6F7CFC801CE
:105AB0005ED61B8A8B898111E4CF42E050E0BE01A3
:105AC000615F7F4FC8017BD642E050E0BE01635F5B
:105AD0007F4FC80174D6C8014AD6C80148D6C8014C
