:100000000C946F080C94DD430C94B2430C9487431A
:100010000C945C430C9431430C9406430C94DB42E7
:100020000C94B0420C94A0080C94A0080C94A00866
:100030000C94A0080C94A0080C94A0080C9464459F
:100040000C94A0080C94A0080C94A0080C94A00890
:100050000C94A0080C94A0080C94A0080C94664280
:100060000C94A0080C947F570C9456570C94A0083D
:100070000C94A0080C94A0080C94A0080C94A00860
:100080000C94A0080C94A0080C94A0080C9439457A
:100090000C942D570C9404570C94A0080C9408440D
:1000A0000C94A0080C94A0080C94A0080C94A00830
:1000B0000C94A0080C94A0080C94A0080C94A00820
:1000C0000C94A0080C94A0080C94A0080C94A00810
:1000D0000C94A0080C94A0080C94A0080C94A00800
:1000E0000C94A0087B407E406D4071407740B54045
:1000F000824086408C40904094409A409E40A2406E
:10010000B540A840AC40B040435848584D585758A7
:100110006158DA586B5873587B5885588F589958DE
:10012000A858B258DA58BC58C658D05844414C4C1C
:1001300041533A204B6F6E69656320706F737A7517
:100140006B6977616E696120637A756A6E696B6F3E
:10015000772E00202054656D706572617475726130
:10016000203D2000204352433D0020204461746123
:10017000203D200020437A617320706F6272616EAF
:1001800069612064616E796368207A20637A756A98
:100190006E696B61203D200020437A6173206B6F94
:1001A0006D656E6461206B6F6E776572736A69202E
:1001B000646C6120637A756A6E696B61203D200012
:1001C000204E69657A6E616E7920445331387878B3
:1001D0000020445331383232002044533138423207
:1001E0003000204453313853323000626C61642057
:1001F0004352430044414C4C41533A204944203D32
:100200000044414C4C41533A20506F637A6174650D
:100210006B20706F737A756B6977616E69612063AB
:100220007A756A6E696B6F772E0020743A00206FC2
:100230003A0020703A002049443A0044414C4C4175
:1002400053200053443A206272616B20706C696BDA
:100250007520706F64616A6E696B2E747874001F0C
:100260001C1F1E1F1E1F1F1E1F1E1F5254433A20FD
:100270006F64637A7974207A61736F626E696B61FF
:100280003A004E54503A20557A79736B616E6F2064
:10029000637A617320756E697874696D653A00528E
:1002A00054433A207A6E616C657A696F6E6F2044B0
:1002B0005331333037005254433A206272616B201D
:1002C000445331333037005254433A20537A756BDC
:1002D000616D20445331333037202E2E2E0049508B
:1002E0003A206272616B2045746865725368696573
:1002F0006C642E2E2E005757573A7374726F6E61CE
:1003000020676F746F7761005757573A757275633E
:1003100068616D69616D207374726F6E652E2E2E2B
:100320000049503A20646E733A0049503A20627294
:10033000616D613A0049503A206D61736B613A001A
:1003400049503A2061647265733A0049503A206D11
:1003500061633A0049503A20706F62696572616E5C
:10036000696520616472657375207A204448435042
:100370002E2E2E00576F6C6E792052414D3A004957
:10038000503A206B6F6E666967757261636A6120AF
:1003900073696563692E2E2E00576F6C6E7920523B
:1003A000414D3A00576F6C6E792052414D3A0057DB
:1003B0006F6C6E792052414D3A0053443A20626C82
:1003C0006164206F64637A7974752064616E796307
:1003D000680053443A20626C6164206B61727479E6
:1003E0000053443A206272616B206B617274790031
:1003F000302E312E302E353363004C75636A616EBA
:1004000020762E00504B543A2043524300504B5418
:100410003A2045545800504B543A20535458002A1F
:100420002A4833002A2A4732002A2A4731002A2A3A
:100430005032002A2A5031002A2A432D4F46462A9C
:10044000002A2A432D4F4646002A2A432D4F4E00AC
:100450002A2A432D4F4E2A005245534554005745F2
:10046000423A005A34443A00504D503A00444D55F7
:100470003A00504F443A00414C473A00414C4D3A03
:10048000004D41503A0044414C4C3A00434F4E3AE3
:100490000054494D3A004C41544F005A494D4100D7
:1004A0004252554C490045434F414C00543800548A
:1004B000370054360054350054340054330054325D
:1004C00000543100545350414C494E590054504F40
:1004D000444C4F474100544357550054574557002B
:1004E000545A45570054504F44414A4E494B0054CA
:1004F000504F57524F540054504945430053443ACB
:10050000206272616B20706C696B7520636F6E6620
:1005100069672E747874005858444D5F504C555399
:100520005F4D4F43005858444D5F504C55535F4DFD
:100530004F43005858544553545F4E5231207A6E01
:10054000616C657A696F6E6F005858544553545FFB
:100550004E5231005A41574F5234442D435A554A56
:100560004E494B005A41574F5234442D435A415340
:100570005F504F4D49415255005A41574F523444F4
:100580002D435A41535F4B524F4B005A41574F52E4
:1005900034442D435A41535F4F54574152434941CC
:1005A000004B525A5957415F47525A414E49412BCD
:1005B0003135004B525A5957415F47525A414E49C3
:1005C000412B35004B525A5957415F47525A414EC1
:1005D00049412D30004B525A5957415F47525A41B9
:1005E0004E49412D3130004B525A5957415F4752C5
:1005F0005A414E49412D3230004B525A5957415FB2
:1006000047525A414E49412D33300056005438006C
:1006100054370054360054350054340054330054D9
:100620003200543100545350414C494E59005450FB
:100630004F444C4F4741005443575500545745577A
:1006400000545A45570054504F44414A4E494B00BC
:1006500054504F57524F5400545049454300545F33
:100660004D4150554A5F5A5F4252554C4900545FC4
:100670004D4150554A5F5A5F45434F414C005252DD
:100680005F50524143415F4D4F430052525F5052C1
:100690004143415F504F53544F4A0052525F5052B2
:1006A0004143415F504F44414E49450052525F50D3
:1006B0004F4454525A594D414E49455F4D4F4300A6
:1006C00052525F504F4454525A594D414E49455F22
:1006D000504F53544F4A0052525F504F4454525A55
:1006E000594D414E49455F504F44414E4945005296
:1006F000525F504F4454525A594D414E49455F4301
:100700005A4153004359524B554C41434A415F545F
:100710004D494E004359524B554C41434A415F436A
:100720005A41535F57594C41435A004359524B5514
:100730004C41434A415F435A41535F574C41435AEE
:10074000004359524B554C41434A415F414C474F3E
:100750005259544D00434F5F414C474F5259544DED
:1007600000434F5F5452594200435755325F414C4A
:10077000474F5259544D00435755325F54525942D6
:1007800000435755325F5A4144414E41004357554B
:100790005F545F4D4158004357555F484953544596
:1007A00052455A41004357555F414C474F525954A7
:1007B0004D004357555F54525942004357555F5AB5
:1007C0004144414E4100504945435F414C474F52DF
:1007D00059544D00504945435F484953544552458B
:1007E0005A4100504945435F5A4144414E410050EF
:1007F0004945435F545F4D415800504945435F545C
:100800005F4D494E00504F44414A4E494B5F414C69
:1008100041524D5F4D494E00504F44414A4E494B65
:100820005F505245444B4F53435F504F44415741F3
:100830004E494100504F44414A4E494B5F435A4153
:10084000535F504F44414A4E494B4100504F444141
:100850004A4E494B5F435A41535F444F5F4F50529A
:100860004F5A4E49454E494100504F44414A4E4926
:100870004B5F545F4D415800504F44414A4E494BE5
:100880005F435A41535F5759525A55545500444D8E
:100890005F504C55535F4D4F4300444D5F504C5596
:1008A000535F435A415300444D5F524F5A52554390
:1008B000485F4D4F4300444D5F524F5A5255434895
:1008C0005F435A415300444D5F544C4F5F4D4F437B
:1008D00000444D5F544C4F5F435A415300444D5FB9
:1008E000444F50414C414E49455F4D4F4300444DAC
:1008F0005F444F50414C414E49455F435A4153007C
:10090000444D5F4D4F44554C41434A4100444D5F77
:10091000494E574552534A415F50574D00444D5F31
:100920004F464653455400444D5543484157415F57
:1009300041435F475255504F574F004E45545F4417
:100940004E53004E45545F4252414D41004E455476
:100950005F4D41534B41006175746F004E45545FCC
:100960004950004E45545F4D4143005D00636F6E3A
:100970006669673A205B00204F4B0D0A00485454CB
:10098000502F312E3120007C3C3E5E2B3D3F2F5BB3
:100990005D3B2C2A225C00005EBCE2613FDD83C22D
:1009A0009C7E20A3FD1F419DC3217FFCA2401E5FB2
:1009B00001E3BD3E6082DC237D9FC1421CFEA0E1BD
:1009C000BF5D0380DE3C62BEE0025CDF81633D7C94
:1009D00022C09E1D43A1FF4618FAA427799BC58417
:1009E000DA3866E5BB5907DB856739BAE40658197A
:1009F00047A5FB7826C49A653BD987045AB8E6A771
:100A0000F91B45C6987A24F8A6441A99C7257B3A5B
:100A10006486D85B05E7B98CD2306EEDB3510F4ECA
:100A200010F2AC2F7193CD114FADF3702ECC92D349
:100A30008D6F31B2EC0E50AFF1134DCE90722C6D24
:100A400033D18F0C52B0EE326C8ED0530DEFB1F02B
:100A5000AE4C1291CF2D73CA947628ABF517490886
:100A600056B4EA6937D58B5709EBB536688AD49501
:100A7000CB2977F4AA4816E9B7550B88D6346A2BE8
:100A80007597C94A14F6A8742AC896154BA9F7B6E3
:100A9000E80A54D7896B3500002100240027002A7A
:100AA000002D003000330001010000040107010A9D
:100AB0000100002200250028002B002E0031003408
:100AC0000002010000050108010B012062616A7447
:100AD0006F772900206D7320286F64656272616EE4
:100AE0006F20002062616A746F772077200057576B
:100AF000573A205A61706973616E6F2000575757DB
:100B00003A205A61706973756A6520706C696B3A36
:100B100000444953434F4E4E4543544544004357C8
:100B200055323A00435755313A00434F3A004B4F44
:100B3000004F4B0066756C6C0020743A00206F3AD1
:100B40000020703A002049443A0044414C4C415343
:100B50002000444953434F4E4E454354454400778B
:100B6000656E74796C61746F723A00435755323A0E
:100B700000435755313A006163636573732D636FAA
:100B80006E74726F6C2D616C6C6F772D6F7269670C
:100B9000696E3A202A0A002E00227D00302E312E66
:100BA000302E353363002C22766572223A220022E1
:100BB00074696D65223A002C0022616C223A200093
:100BC0002C0030003100226379726B223A20002C15
:100BD00000300031002263777532223A20002C0069
:100BE000300031002263777531223A20002C00302A
:100BF00000310022636F223A20002C0030003100C7
:100C000022706F64223A20002C0022706F64676D9E
:100C1000696E223A20002C0022706F64637A646F40
:100C2000223A20002C0022706F64637A7A6173226A
:100C30003A20002C0022706F64637A223A20002C44
:100C4000002277656E31223A20002C002277656EF3
:100C500030223A20007D5D2C007B2274223A200055
:100C60007D2C007B22746865726D6F73223A5B0085
:100C70006163636573732D636F6E74726F6C2D6146
:100C80006C6C6F772D6F726967696E3A202A0A0063
:100C90006163636573732D636F6E74726F6C2D6126
:100CA0006C6C6F772D6F726967696E3A202A0A0043
:100CB0002F6D6F64756C61636A6100616363657356
:100CC000732D636F6E74726F6C2D616C6C6F772D0A
:100CD0006F726967696E3A202A0A00227D00302E01
:100CE000312E302E353363002C22766572223A2263
:100CF000007B2274696D65223A00616363657373DA
:100D00002D636F6E74726F6C2D616C6C6F772D6FCD
:100D1000726967696E3A202A0A0000000A0B02090C
:100D20000C0D0E0807030401000000000000000085
:100D300000000000000000000000000000000000B3
:100D40000000000000001211100000000000000070
:100D50000000000000000000000000000000000093
:100D600058585845434F414C00534F465400444156
:100D70004C4C4153204E52203D200044414C4C41AC
:100D800053005350414C494E5900504F444C4F472B
:100D9000410043575500574557005A455700504F9B
:100DA00044414A4E494B00504F57524F5400434F15
:100DB000004252554C490045434F414C0052544368
:100DC0003A207A61706973207A61736F626E696B21
:100DD000613A004D4945535A414E494500424152FE
:100DE00054454B00574C41435A004252554C490020
:100DF00045434F414C0057594C41435A4F4E5900BF
:100E000043594B4C49435A4E5900434941474C5969
:100E100000436F6E74656E742D547970653A2000CE
:100E200048544D2A746578742F68746D6C7C5458DE
:100E3000542A746578742F706C61696E7C435353C7
:100E40002A746578742F6373737C584D4C2A7465CB
:100E500078742F786D6C7C4A532A746578742F6A85
:100E60006176617363726970747C4749462A696D63
:100E70006167652F6769667C4A50472A696D6167BB
:100E8000652F6A7065677C504E472A696D6167659A
:100E90002F706E677C49434F2A696D6167652F76B5
:100EA0006E642E6D6963726F736F66742E69636F03
:100EB0006E7C4D50332A617564696F2F6D70656764
:100EC0007C00000020002300260029002C002F00B9
:100ED00032000001000003010601090105050505B6
:100EE000070508080808020202020A0A08080404A2
:100EF00004040101010101010101030303030303D0
:100F00000303040707070C0C0C0C0C0C0C0C02025E
:100F1000020206060606060606060B0B0B0B0B0B5B
:100F20000B0B0102102020080810204010204080E8
:100F3000020102010804020101020408102040809D
:100F4000804020100804020180040201804020102B
:100F50000804020108040201010204081020408074
:100F600001020408102040803032303130303036F9
:100F70003030303030303030363130330000316294
:100F800053C4F5A697B988DBEA7D4C1F2E43722126
:100F90001087B6E5D4FACB98A93E0F5C6D86B7E40E
:100FA000D5427320113F0E5D6CFBCA99A8C5F4A70A
:100FB00096013063527C4D1E2FB889DAEB3D0C5FF1
:100FC0006EF9C89BAA84B5E6D7407122137E4F1CE8
:100FD0002DBA8BD8E9C7F6A59403326150BB8AD9E4
:100FE000E87F4E1D2C02336051C6F7A495F8C99ACC
:100FF000AB3C0D5E6F4170231285B4E7D67A4B1877
:1010000029BE8FDCEDC3F2A1900736655439085B29
:101010006AFDCC9FAE80B1E2D344752617FCCD9E0D
:10102000AF38095A6B4574271681B0E3D2BF8EDD05
:10103000EC7B4A192806376455C2F3A09147762500
:101040001483B2E1D0FECF9CAD3A0B5869043566EB
:1010500057C0F1A293BD8CDFEE79481B2AC1F0A3E3
:10106000920534675678491A2BBC8DDEEF82B3E0C7
:10107000D1467724153B0A5968FFCE9DAC57575788
:101080003A206272616B20706C696B753A20005770
:1010900057573A204F64637A797420706C696B7586
:1010A0003A006163636573732D636F6E74726F6C66
:1010B0002D616C6C6F772D6F726967696E3A202AAB
:1010C0000A005757573A20426C616420706172736E
:1010D0006F77616E69612055524C0000FE701124DB
:1010E0001FBECFEFD1E2DEBFCDBF00E00CBF14E0EA
:1010F000A0E0B2E0EAEDF4EF00E00BBF02C0079021
:101100000D92AC3DB107D9F72DE0ACEDB4E001C0D4
:101110001D92AA3AB207E1F718E0CFE6D8E000E066
:1011200006C021970109802FFE010E949574CE36DA
:10113000D10780E00807A9F70E942B610C946B7A15
:101140000C9400002F923F924F925F926F927F9289
:101150008F929F92AF92BF92CF92DF92EF92FF92C7
:101160000F931F93CF93DF93CDB7DEB76F970FB673
:10117000F894DEBF0FBECDBFA8950E945941609381
:10118000560770935707809358079093590780919B
:10119000560790915707A0915807B091590780932F
:1011A000520790935307A0935407B093550780912B
:1011B000560790915707A0915807B0915907409151
:1011C000A5055091A6056091A7057091A805841BFF
:1011D000950BA60BB70BC397A105B10584F08091C1
:1011E000560790915707A0915807B09159078093DF
:1011F000A5059093A605A093A705B093A8050E9406
:101200005941009152071091530720915407309192
:101210005507DC01CB01801B910BA20BB30B809314
:10122000520790935307A0935407B09355078091AA
:10123000A105882369F08091520790915307A091EE
:101240005407B09155070397A105B1050CF0D6C41A
:101250000E9459416093520770935307809354073B
:10126000909355078091120290911302009799F480
:101270000E945941609312077093130780931407DB
:1012800090931507109232061092310610921107B2
:1012900081E090E01DC00197F9F40E94594100914E
:1012A0001207109113072091140730911507DC01E4
:1012B000CB01801B910BA20BB30B85369105A105C9
:1012C000B10550F0109232061092310682E090E0A3
:1012D0009093130280931202809112029091130254
:1012E0008230910509F05DC00091860B1091870B4B
:1012F000C8010E94CC7890910F0720E0E0910E0782
:1013000031E0281738F5F801E20FF11D949141E022
:10131000420FF801E40FF11D2E5FE491632F70E09E
:10132000913410F049EC01C040ED490FE13410F068
:10133000F9EC01C0F0EDFE0FA0E14A9FA0011124DD
:101340004F2BA1E0B0E0AC0FBD1FA60FB71F4C9311
:101350003F5FD7CF90930F0720931007E0930E07BE
:10136000182F1695198381E0809311028091110244
:10137000181780F091E0980F90931102E1E0F0E0EF
:10138000EC0FFD1FE80FF11D608181ED99E00E94D7
:101390000053ECCF109232061092310683E090E0B9
:1013A00013C083309105D1F581ED99E00E94C152BF
:1013B000892B79F01092110210920D0710923206CB
:1013C0001092310684E090E0909313028093120211
:1013D000D8C08091310690913206019690933206E2
:1013E000809331068139914008F4CBC010923206C7
:1013F00010923106809111078F5F8093110722E0D0
:1014000030E03093130220931202863008F4B9C002
:1014100081E080930C0780932902B3C0843091054A
:1014200009F051C081ED99E00E94C15218161906C9
:10143000BCF481ED99E00E94C152181619069CF582
:101440001091110281E0810F8093110281ED99E0EA
:101450000E949F52E12FF0E0E855F94F8083E9CFD9
:1014600080913106909132060196909332068093D6
:10147000310681399140B8F010923206109231064F
:1014800082E090E090931302809312028091110702
:101490008F5F80931107863030F082E080930C07D5
:1014A00081E08093290280911102863508F469C099
:1014B00080930D071092110210923206109231069D
:1014C00087E090E081CF079709F05BC080910D071E
:1014D0008635B1F58091A806823019F066E174E096
:1014E0002BC08091FD06833021F429EA36E0E0E04C
:1014F00003C06DE074E020C0B6E02C3F3B07A1F0D4
:10150000D9018D919D018E27E0918A0BF0918B0B73
:10151000E80FF11DE4918E2F90E0A0E0B0E0898308
:101520009A83AB83BC83E8CF8091FC068E1711F4BD
:101530000C94CF1964E074E08EE69AE00E94B156F4
:1015400080913106909132060196909332068093F5
:1015500031068139914088F010923206109231069E
:10156000809111078F5F80931107863030F084E0FF
:1015700080930C0781E0809329021092130210924D
:1015800012020E9459410091520710915307209175
:10159000540730915507DC01CB01801B910BA20B46
:1015A000B30B8093520790935307A0935407B093C3
:1015B00055078091A105882369F080915207909189
:1015C0005307A0915407B09155070397A105B105A2
:1015D0000CF025C30E945941609352077093530742
:1015E00080935407909355078091DC04882309F475
:1015F000A5C0D0901607D11009C088E080933306AB
:101600000E948C5981E08093160790C02091330688
:1016100021118CC00FEF0D0DE02EF12CFDE00F9F7E
:1016200080011124822F90E0FC01E551FB4F800FD7
:10163000911FDC01AC50BB4F8C9180832F5F283011
:1016400089F72093F3040E944059882309F467C066
:101650008091EB04823241F0883231F0803121F404
:1016600081E08093EA0402C01092EA048091DE04D3
:1016700090E0982F88272091DD04822B2091EA04A6
:10168000222399F043E0880F991F4A95E1F72091B2
:10169000E4042031F9F44091E3042CE030E0241B11
:1016A0003109807F820F931F15C02091E1042076BD
:1016B00031F433E0880F991F3A95E1F70BC02032DF
:1016C00029F4880F991F880F991F04C0203411F442
:1016D000880F991F2DE02E9DF0012F9DF00D1124F4
:1016E000EC50FB4F4AE0489F9001499F300D112478
:1016F00037FF02C0215F3F4F14E0359527951A95BB
:10170000E1F7328721878DE08E9DF0018F9DF00DEE
:101710001124EC50FB4F8091E904808704C0F8014C
:10172000EC50FB4F1086D394D09216079091160779
:101730008091DC04891710F4109216070E94594119
:10174000009152071091530720915407309155078B
:10175000DC01CB01801B910BA20BB30B80935207D2
:1017600090935307A0935407B09355078091A10518
:10177000882369F08091520790915307A0915407F4
:10178000B09155070297A105B1050CF059C20E940E
:101790005941609352077093530780935407909375
:1017A00055078090170790901807A0901907B090E0
:1017B0001A0720911B0730911C0740911D0750917B
:1017C0001E0760911F07709120071091210700915B
:1017D0002207F0902307E0902407D0902507C090BF
:1017E00026076090DC04E6E4F6E0A9E44A2EA6E0D1
:1017F0005A2EBDE07B2EC2010197DC018C91823014
:1018000061F5D2018C91882381F0813089F082309A
:1018100091F0833099F08430A1F08530A9F08630C2
:10182000A9F08730A9F4C60115C0982D892D12C0E2
:101830009A2D8B2D0FC0922F832F0CC0942F852FA4
:1018400009C0962F872F06C0C80104C0C70102C077
:1018500099E18CEF9083818318C08330A1F4D20189
:101860008C91861558F4789EC00111248C509B4FA2
:10187000DC0119968D919C911A9702C08AE19CEF28
:101880009183808302C0118210823596B5E04B0EA1
:10189000511C86E0E639F80709F0ADCF0E945941A6
:1018A000009152071091530720915407309155072A
:1018B000DC01CB01801B910BA20BB30B8093520771
:1018C00090935307A0935407B09355078091A105B7
:1018D000882369F08091520790915307A091540793
:1018E000B09155070397A105B1050CF0BAC10E944C
:1018F0005941609352077093530780935407909314
:1019000055070E94594100915207109153072091A9
:10191000540730915507DC01CB01801B910BA20BC2
:10192000B30B8093520790935307A0935407B0933F
:1019300055078091A105882369F080915207909105
:101940005307A0915407B09155070397A105B1051E
:101950000CF098C10E94594160935207709353074D
:10196000809354079093550780913A0680933807E7
:1019700080918605813091F480912902882329F095
:1019800010923D0610923A0695C080912D078093E3
:101990003D0680912B0780933A068CC08091860586
:1019A000823021F080918605833051F7809148067E
:1019B000882309F4E4C1409146065091470680917E
:1019C0008705AAE08A9FC001112421E04817590722
:1019D0000CF420E08091870530918805BAE08B9F58
:1019E000C0011124831B9109481759070CF45BC1EE
:1019F00080E010911802112309F457C1882309F4DB
:101A000054C18091350790913607009709F0A7C11E
:101A100069E274E08EE69AE00E94B1568091A005DA
:101A200080933D0680919E050E94E15720919E057E
:101A300080919F05422F50E060E070E09A01AB0179
:101A4000280F311D411D511DAAE0B0E00E942A7AE5
:101A500060931402709315028093160290931702FC
:101A600060913406709135068EE69AE00E945C3BE8
:101A70004091140250911502609116027091170264
:101A80008EE69AE00E94B93B0E945941609331076B
:101A900070933207809333079093340781E090E08E
:101AA000909336078093350701E010E010931802F9
:101AB000009337070E945941009152071091530734
:101AC0002091540730915507DC01CB01801B910B0D
:101AD000A20BB30B8093520790935307A093540724
:101AE000B09355078091A105882369F08091520732
:101AF00090915307A0915407B09155070397A10502
:101B0000B1050CF088C10E9459416093520770934F
:101B100053078093540790935507C0909906D0902F
:101B20009A06E0909B06F0909C06D701C601B695F8
:101B3000A79597958795182F117020917F05309163
:101B40008005409181055091820580907B059090A1
:101B50007C05A0907D05B0907E0500918505A4E6EA
:101B6000B0E00E942A7AA50194010E943A7A802F5F
:101B700090E0A0E0B0E0281739074A075B0750F46F
:101B80006894C4F8C0929906D0929A06E0929B0697
:101B9000F0929C064091990650919A0660919B069E
:101BA00070919C06111148C180915206882309F456
:101BB00043C180917A05EAE08E9FC00111242091F3
:101BC000500630915106821793070CF035C1E09111
:101BD000790528E532E0E29FC001E39F900D1124D2
:101BE0009093350680933406426040939906509353
:101BF0009A0660939B0670939C062AC161E974E083
:101C00008EE69AE00E948D566091520770915307BC
:101C100080915407909155070E94C55919CB6CE8E3
:101C200074E08EE69AE00E948D56609152077091A2
:101C3000530780915407909155070E94C559CACC0B
:101C400066E874E08EE69AE00E948D566091520735
:101C50007091530780915407909155070E94C55980
:101C600096CD61E874E08EE69AE00E948D56609110
:101C700052077091530780915407909155070E9425
:101C8000C55935CE6CE774E08EE69AE00E948D5619
:101C900060915207709153078091540790915507B6
:101CA0000E94C55957CE81E0A4CE0091370700238A
:101CB00011F40C948A1A222311F40C94851A00E072
:101CC0008091350790913607009709F05AC08091AE
:101CD000140290911502A0911602B0911702892B5F
:101CE0008A2B8B2B09F076C063E374E08EE69AE0D2
:101CF0000E94B15680919D0580933D0680919B0581
:101D00000E94E15720919B0580919C05422F50E055
:101D100060E070E09A01AB01280F311D411D511D9B
:101D2000AAE0B0E00E942A7A609314027093150230
:101D3000809316029093170240911402509115025D
:101D400060911602709117028EE69AE00E94B93BEC
:101D500081E090E090933607809335073BC0019770
:101D600009F0A2CE8091140290911502A091160262
:101D7000B0911702892B8A2B8B2B71F195CE20E025
:101D800037CE019739F58091140290911502A091F8
:101D90001602B0911702892B8A2B8B2BD9F46EE295
:101DA00074E08EE69AE00E94B15620919A0530E0E8
:101DB000A8E5B2E00E945C7A609314027093150269
:101DC000809316029093170210923D0610923607E8
:101DD0001092350711E06ACE64E274E08EE69AE074
:101DE0000E94B1560E94594100913107109132076B
:101DF0002091330730913407AB01BC01401B510BDC
:101E0000620B730B8EE69AE00E94B93B1092360784
:101E10001092350749CE67E774E08EE69AE00E949B
:101E20008D5660915207709153078091540790919D
:101E300055070E94C55967CE42FD8CC0112309F495
:101E400078C08091340690913506892B09F482C0C0
:101E50008091080184608093080181E080933A06B4
:101E60008091A40581110AC080913807882331F040
:101E700080913A06811102C00E94E2580E945941A5
:101E80000091520710915307209154073091550744
:101E9000DC01CB01801B910BA20BB30B809352078B
:101EA00090935307A0935407B09355078091A105D1
:101EB000882369F08091520790915307A0915407AD
:101EC000B09155070397A105B1050CF053C00E94CE
:101ED000594160935207709353078093540790932E
:101EE0005507909148076091460670914706E0912A
:101EF0003E06F0913F06F0934107E0934007809142
:101F00003D06282F30E030933F0620933E06409157
:101F10003F07442329F04091680540FDBEC104C03D
:101F20004091680541FDB9C140918605433099F55E
:101F3000B4C190918605913009F083CF80913A0623
:101F4000882309F47ECF2091340630913506232B67
:101F500049F077CF809108018B7F80930801109220
:101F60003A067ECF809108018460809308019093A7
:101F70003A0676CF62E774E08EE69AE00E948D56CC
:101F800060915207709153078091540790915507C3
:101F90000E94C5599CCF232B09F4A0C283E090E096
:101FA00090933C0780933B0780913E0690913F06BB
:101FB000009751F020916605820F911D27FD9A959B
:101FC00090933F0680933E0680913E0690913F0697
:101FD00097FF04C010923F0610923E0680913E0685
:101FE00090913F068536910534F084E690E0909319
:101FF0003F0680933E068091990690919A06A091A3
:102000009B06B0919C0686709927AA27BB27892B2F
:102010008A2B8B2B21F010923F0610923E061091D6
:102020003E06812F90913F060E94F6571B3008F024
:102030001A508091540B811709F4BBC0612F681BA3
:1020400016164CF58090720B9090730BA090740B49
:10205000B090750B81149104A104B10409F44EC031
:10206000811101C064E6062E000C770B880B990BDA
:102070000E94F8786B017C01C501B4010E94F678DA
:102080009B01AC01C701B6010E94577920E030E006
:1020900048EC52E426C0662389F18090720B909040
:1020A000730BA090740BB090750B81149104A10474
:1020B000B10421F1062E000C770B880B990B0E94BE
:1020C000F8786B017C01C501B4010E94F6789B0190
:1020D000AC01C701B6010E94577920E030E04AEF19
:1020E00053E40E940F750E94777560935E0B7093A6
:1020F0005F0B8093600B9093610B08C010925E0B96
:1021000010925F0B1092600B1092610B8FEF810F9A
:102110008436B0F580917000816080937000C0902B
:102120006205D09063050D2C000CEE08FF08812F8E
:1021300090E0A0E0B0E09C01AD01245631094109D6
:1021400051096091640570916505CB01770FAA0B69
:10215000BB0BBC01CD016C197D098E099F090E9442
:1021600053742CE93FEF4FEF5FEF0E940E7AC20EDF
:10217000D31EE41EF51ED0926105C092600513C007
:10218000809170008E7F80937000E0914E0BF091F3
:102190004F0B80E0199580916405909165059093AF
:1021A0006105809360058091540B8093550B1093CB
:1021B000540B80913E0690913F061816190614F4B0
:1021C00060E001C061E088E00E94B64080913D0679
:1021D00090E090933E0780933D070E945941009103
:1021E0005207109153072091540730915507DC0195
:1021F000CB01801B910BA20BB30B809352079093E2
:102200005307A0935407B09355078091A1058823E5
:1022100069F08091520790915307A0915407B091B3
:1022200055070397A105B1050CF05DC10E94594106
:102230006093520770935307809354079093550708
:10224000F09048064091990650919A0660919B063D
:1022500070919C06FF2009F457C1809189052AE0FE
:10226000829FC001112420914606309147068217B3
:1022700093070CF049C144604093990650939A0625
:1022800060939B0670939C0681E08093A10661E0B9
:1022900085E40E94B64061E0CCC340913D07509177
:1022A0003E074115510531F5882321F13097C9F4D6
:1022B000A0916B05B0916C052AE02A9FF0012B9F3D
:1022C000F00D1124F0933C06E0933B0621E030E052
:1022D00030933C0720933B0720913A07209339071E
:1022E00009C01E161F0634F423E030E030933C078B
:1022F00020933B07FAE09F9F9001112491E0621721
:10230000730708F090E020913B0630913C06232BA8
:1023100021F0882311F091119DC020913B0730914D
:102320003C072130310539F420913B0630913C06C1
:10233000232B09F498C02091380721110BC020915C
:102340003A06222339F020913B0630913C06232B9C
:1023500009F490C020913B0730913C0724303105AF
:1023600039F42091380630913906232B09F49BC0AB
:102370002091380630913906232B71F02091770592
:102380003091780560913E0670913F06260F371F09
:1023900030933F0620933E0620913907222309F40B
:1023A0004EC014161506B4F4811114C0409169058D
:1023B00050916A056AE0649F9001659F300D112479
:1023C000309337062093360625E030E030933C0703
:1023D00020933B072091360630913706232B19F0C6
:1023E000882309F467C02091360630913706232BE5
:1023F00051F420913B0730913C072530310519F409
:10240000882309F460C020913B0730913C072630B7
:10241000310509F0C9CD8111C7CD91115BC0809103
:10242000750590917605892B09F454C08091750546
:102430009091760590933F0680933E06B5CD20910E
:102440003B0730913C072330310509F0ADCD8111B8
:10245000ABCD44C0209173053091740530933F0695
:1024600020933E065ACF23E030E030933C07209380
:102470003B0761CF60916F0570917005EAE0E69FC0
:102480009001E79F300D11243093390620933806D0
:1024900024E030E030933C0720933B0720913A073B
:1024A0002093390757CF23E030E030933C07209347
:1024B0003B075ECF209171053091720530933F0646
:1024C00020933E0690CF26E030E030933C072093E7
:1024D0003B0799CF10923F0610923E0610923C07A0
:1024E00010923B0761CD6DE674E08EE69AE00E94A3
:1024F0008D566091520770915307809154079091C7
:1025000055070E94C55992CE42FF89C2FF20E1F0D3
:10251000809189053AE0839FC001112420914606ED
:1025200030914706281739070CF46EC280918A054E
:102530004AE0849FC001112420914606309147064D
:10254000281739070CF46EC280918B05813029F071
:1025500080918D05813009F070C280912902882315
:1025600009F46BC21092A10610924F0760E085E457
:102570000E94B64060E084E40E94B64010924E078C
:1025800010924D070E945941009152071091530734
:102590002091540730915507DC01CB01801B910B32
:1025A000A20BB30B8093520790935307A093540749
:1025B000B09355078091A105882369F08091520757
:1025C00090915307A0915407B09155070397A10527
:1025D000B1050CF0E4C380912902882329F0809191
:1025E0002802882309F4ACC00E9459416093520725
:1025F00070935307809354079093550780919906E1
:1026000082FF05C061E081E40E94B64070C0809105
:102610002602909127028230910509F04AC08091EC
:1026200098068823B1F081E080939F068091240270
:1026300090912502909397068093960681E090E012
:102640009093270280932602109251071092500710
:102650004EC0809199058F3F09F449C0E0919905DA
:1026600025E0E202F0011124EA5BF94F8281882320
:10267000F1F1809148068823D1F180915706882393
:10268000B1F18091A106882391F120914606309105
:10269000470680912002909121028217930738F516
:1026A00000919606109197060115110509F488C34B
:1026B0001EC00197E1F48091960690919706892BB0
:1026C000B1F410929E0610929F0680919806811197
:1026D0000EC08091220290912302909397068093DE
:1026E000960682E090E090932702809326020E9453
:1026F000594100915207109153072091540730918E
:102700005507DC01CB01801B910BA20BB30B80930F
:10271000520790935307A0935407B09355078091A5
:10272000A105882369F08091520790915307A091E9
:102730005407B09155070397A105B1050CF01AC4D1
:102740008091A206811113C08DE00E94A85761E01C
:10275000892B09F060E08DE00E94B640809129024B
:10276000811102C081E001C08AE08093A2068091BD
:10277000060182FD02C0129A01C012988091A10642
:10278000811105C0139A809108018D7F04C01398B0
:10279000809108018260809308018091060187FD85
:1027A00002C0149A01C014988091060186FD02C0EF
:1027B000159A01C015988091A006811105C0169A3E
:1027C000809108018E7F04C0169880910801816075
:1027D0008093080180919F06811105C0179A80910E
:1027E00008018F7E04C01798809108018061809352
:1027F000080180919E06811105C0479A80910801C9
:10280000877F04C047988091080188608093080101
:1028100080911002882309F4C6C08091AD05811112
:10282000C2C00E945941609352077093530780932E
:1028300054079093550787E39BE00E94BC2E0AE55E
:1028400017E0D12C38EE832E33E0932EA12CB12C3F
:1028500040E3E42E43E0F42E1C821B828D829E8294
:10286000AF82B886FA82E982DD86F8012191319142
:102870008F0180913B0B90913C0B28173907F1F4A5
:10288000CE0101960E94B92D873111F08C31B1F43F
:10289000CE0101960E94C84D892B81F02B813C818D
:1028A0008D819E81AF81B88549855A856B857C85F0
:1028B0004B8F5C8F6D8F7E8FDD840AC0D39454E084
:1028C000D512CACF88EE93E0A0E0B0E020E030E07F
:1028D0003093440B2093430B8093450B9093460B0E
:1028E000A093470BB093480B6B8D7C8D8D8D9E8D87
:1028F0006093490B70934A0B80934B0B90934C0B56
:10290000D0924D0B81E49BE00E94362E882311F17A
:1029100081E49BE00E94C84D892BE1F01092880C65
:1029200000E010E0AE014F5F5F4F61E47BE08FE2BB
:102930009BE00E94374081112EC30F5F1F4F0F395C
:10294000110581F7F801E857F34F10828091880C48
:1029500081112AC30E9459410091520710915307D7
:102960002091540730915507DC01CB01801B910B5E
:10297000A20BB30B8093520790935307A093540775
:10298000B09355078091A105882369F08091520783
:1029900090915307A0915407B09155070397A10553
:1029A000B1050CF0EBC480919D06882389F068E5A1
:1029B00074E08EE69AE00E948D568EE290E00E94CE
:1029C0000E3E68EE73E080E090E00E942141F5CF7A
:1029D0008EE69AE00E94C152892B09F4E6C58EE684
:1029E0009AE00E949F52823521F481E080939D06F7
:1029F000DCC5863509F0D9C59091A10581E091111A
:102A000080E08093A105D1C5F4E04F27409399065B
:102A100050939A0660939B0670939C0695CDF11097
:102A200085CD92CD1092A10660E085E40E94B6406B
:102A300060E084E40E94B640A5CD80918D0584308D
:102A400009F0B7C090914C0790934F07009146064C
:102A500010914706209148075AE0259F90011124C4
:102A60002253310941E0021713070CF440E0409370
:102A7000470720914507309146072550310981E0ED
:102A80000217130708F480E080934407992329F084
:102A9000411102C090E001C0982F90934307073284
:102AA00062E016074CF02091420630914306263230
:102AB000324010F4411101C080E08093420791112F
:102AC00003C0882309F45AC0209140063091410682
:102AD000232B09F069C020914D0730914E07A901C1
:102AE0004B7F452BA1F4992379F081E090E09093FE
:102AF0004E0780934D078CE291E0909341068093BE
:102B0000400661E085E418C082E090E02CC02130EE
:102B10003105A9F482E090E090934E0780934D0731
:102B200088E592E0909341068093400660E085E45A
:102B30000E94B64060E084E40E94B64035C0223076
:102B40003105B1F4882369F083E090E090934E075B
:102B500080934D078CE291E090934106809340066C
:102B600015C084E090E090934E0780934D071CC001
:102B700023303105C9F484E090E0CECF013283E008
:102B8000180734F061E085E40E94B64061E0D3CFDD
:102B900060E085E40E94B64060E084E40E94B640B4
:102BA00010924E0710924D07109346070093450769
:102BB00021C080918D05813041F480914C07809334
:102BC0004F07882331F061E005C080918E05813088
:102BD00029F060E085E40E94B6400CC08091610657
:102BE000811136C0F6CF80914A0790914B0701972B
:102BF00009F467C0809192058330B1F48091610639
:102C0000882391F0809194056AE0869FC001112489
:102C100020915F0630916006281739070CF479C0BF
:102C200061E084E40E94B64080918B05813019F404
:102C30008091490789C080918B05823009F06BC073
:102C400080918C05813009F066C0F1107BC063C0B3
:102C50008091900520915F06309160068823E9F00D
:102C6000FF20D9F080919005AAE08A9FC00111242D
:102C70002817390794F080914606909147068217ED
:102C800093075CF461E085E40E94B64082E090E046
:102C900090934B0780934A07ADCF8091900588238E
:102CA00019F180914A0790914B070297E9F48091BE
:102CB0009005BAE08B9FC0011124281739075CF0FA
:102CC00013C080918F05EAE08E9FC0011124821706
:102CD00093070CF08FCF60E085E40E94B64010921D
:102CE0004B0710924A0786CF80918F05409191053E
:102CF0005AE0859FC0011124841B910928173907C8
:102D00000CF071CF61E085E40E94B64081E090E074
:102D1000BFCF60E086CF81E0809398061092A10635
:102D200080916106882351F180919805FAE08F9F88
:102D3000C001112420915F063091600628173907E1
:102D400034F41CC0109298068093A106E9CF8091BC
:102D50009505813071F48091A006811106C060E56F
:102D600074E08EE69AE00E94B15681E08093A0065E
:102D700009CC80919505823009F4E2C38091A006C8
:102D8000882331F068E374E08EE69AE00E94B15641
:102D90001092A0061092450610924406F3CB68E606
:102DA00074E08EE69AE00E948D5660915207709111
:102DB000530780915407909155070E94C5590BCC39
:102DC000A0905506B0905606C09019027AE0C79EB2
:102DD0006001112484EA882E82E0982EC5010B2C14
:102DE000000CAA0BBB0B8F8B988FA98FBA8FD401C5
:102DF0008D914D010F5F1F4FBAE08B02200111240E
:102E0000A414B5040CF441C0D401EC91BAE0EB0277
:102E1000F0011124EA15FB05C4F1D801A75EBD4FEE
:102E20006C911197CC902AE0C29E600111240D2C68
:102E3000000CEE08FF08052C000C660877082F89A7
:102E4000388D498D5A8D24193509460957098AE06C
:102E5000689FB0011124CB01770FAA0BBB0BBC01FB
:102E6000CD016C197D098E099F090E9453749F0141
:102E7000FF0F440B550B24193509460957090E94C9
:102E80000E7AC20ED31EE41EF51E0530110509F0A0
:102E9000AECF97E9A916B10434F0C0901E02AAE0A3
:102EA000CA9E60011124D0922102C0922002E091BA
:102EB0009905B5E0EB02F0011124EA5BF94F80813E
:102EC00091818601081B190B17FF03C0119501950D
:102ED0001109C816D90620F481E080939F0606C028
:102EE0008C159D0550F581E080939E0680911F0210
:102EF00090E0909397068093960681E090E09093FF
:102F00002702809326020A301105BCF480919606B0
:102F1000909197069695879590939706809396063D
:102F20000530110554F48091960690919706969578
:102F30008795909397068093960660EA73E08EE6F5
:102F40009AE00E948B56A801110F660B770B8EE654
:102F50009AE00E94723B6DEA73E08EE69AE00E946E
:102F60008B5660919606709197068EE69AE00E94C5
:102F70005C3BBDCB63E674E08EE69AE00E948D5622
:102F800060915207709153078091540790915507B3
:102F90000E94C559D5CB89818A3009F4D3CCF80178
:102FA000E857F34F8083C9CC0F39110559F46EE906
:102FB00071E081E49BE00E94F72F81E49BE00E9496
:102FC000592EC8CC80E090E00E94CA737C01109218
:102FD000400B10923F0BBC0187EB93E00E94E5761B
:102FE000892B19F481E090E024C0B7018BEB93E0CA
:102FF0000E94E576892B19F483E090E01AC0B701AE
:1030000080EC93E00E94E576892B19F484E090E04F
:1030100010C0B70184EC93E00E94E576892BB1F3F0
:10302000B7018CEC93E00E94E576892B31F485E0C2
:1030300090E09093400B80933F0B81E090E00E94E2
:10304000CA7390933E0B80933D0B8091350B90910A
:10305000360B892B59F40E9459414B015C0101E068
:1030600010E028E8C22E2CE0D22E36C000E010E09E
:10307000E091350BF091360BE00FF11F80819181CB
:10308000892B49F382819381009751F00E94B27796
:10309000E091350BF091360BE00FF11F1382128295
:1030A0000C5F1F4FE5CF0E945941DC01CB0188190D
:1030B0009909AA09BB090B97A105B10508F0EBC056
:1030C000AE014F5F5F4F61E47BE08FE29BE00E94C7
:1030D0003740582E811107C08FE29BE00E94A32F3A
:1030E000882309F3D8C00E9459414B015C01033089
:1030F000110509F488C03CF40130110569F0023073
:10310000110541F1C0C00430110509F46AC0053051
:10311000110509F4B4C0B7C029812D3009F4B3C03A
:103120002A3019F45110C1C0B6C0822F022E000CF3
:10313000990B2F8F0E9498762F8D892B19F42D32A1
:1031400009F013C12093880C22242394312C02E02F
:1031500010E09DC031017FEF671A770A80EA681698
:10316000710408F002C129812A3341F5F101E857C1
:10317000F34F10820091350B1091360B011511059C
:1031800009F4D5C1D8010D90BC91A02DBE8BAD8B9B
:10319000AB2B79F06D897E8988E89CE00E94E5760A
:1031A0000C5F1F4F892B71F7212C312C04E010E0AC
:1031B0006EC0E8E8FCE0FE8BED8BBDC1822F022ED5
:1031C000000C990B2F8F0E9498762F8D892B19F464
:1031D0002D3209F0CAC0F101E857F34F20831301E3
:1031E00052C0C1010196803A910508F0BEC0298104
:1031F000203209F448C0F101E857F34F20831C0145
:1032000003E010E044C0C1010196803A910508F046
:10321000ACC029812A3059F5F101E857F34F1082EB
:10322000E091350BF091360B309709F49EC08F0179
:1032300080819181009709F498C034962D893E8948
:1032400028173907A1F7D6010D900020E9F7CD0125
:1032500088589C400E941D77F801938382830097D1
:1032600009F483C068E87CE00E94EE7681C02D30CE
:1032700051F0F101E857F34F20831C0104C089810C
:103280008A3009F475C00630110509F44BCF0115D9
:10329000110509F021CF61EA71E081E49BE00E9411
:1032A000F72F81E49BE00E94592EA0903D0BB09037
:1032B0003E0B80903F0B9090400BC090330BD09012
:1032C000340BF6010081118101151105D1F1F801CE
:1032D00001900020E9F731972F01401A510AB801F7
:1032E000C5010E94E5763C01F801E40DF51D31971A
:1032F00080818A3209F03FC0A20141505109B801D2
:10330000C5010E94F576672811F0892BB1F4D6012A
:1033100012968D919C9113978730910559F4D6019F
:103320001496ED91FC9115978FE29BE019958823F7
:1033300091F00DC08815990591F3B6E0CB0ED11C24
:10334000C0CF64E971E081E49BE00E94F72F81E443
:103350009BE00E94592E80913D0B90913E0B0E9464
:10336000B277C7010E94B277F5CA00E010E08FCFB4
:1033700001E010E08CCF672851F2DFCF6EE574E0FA
:103380008EE69AE00E948D56609152077091530725
:1033900080915407909155070E94C55904CB109213
:1033A00029024091B90650E0542F44278091B80675
:1033B000482B50932407409323072091BB0630E00D
:1033C000322F22278091BA06282B30932007209392
:1033D0001F078091BD0690E0982F88276091BC065A
:1033E000862B90931E0780931D078091BF0690E067
:1033F000982F88276091BE06862B90932207809392
:1034000021076091C10670E0762F6627E091C00623
:103410006E2B70931A07609319076091C30670E0D2
:10342000762F6627E091C2066E2B70931C0760937F
:103430001B07E091C506F0E0FE2FEE276091C40661
:10344000E62BF0931807E09317076091C70670E02A
:10345000762F6627A091C6066A2B70932607609385
:103460002507A091C806A0932707B091CF06B09377
:103470002D07A1FBBB27B0F9B0932B07B091E50650
:10348000B0932E07B170B0932F075093A7064093C7
:10349000A60630934306209342069093300680930D
:1034A0002F06F093A506E093A40670932E06609372
:1034B0002D068091CD06809348078091CE0680939B
:1034C000A30681E09091FB06913009F080E08093A3
:1034D0009806A2FB882780F980934907A3FBAA27B7
:1034E000A0F9A0934C0781E09091CA06913009F0B1
:1034F00080E080933F0781E09091C906913009F008
:1035000080E080933A070C94BD0A11110C94600E70
:103510000C94010D11110C94600E6FE174E08EE6B5
:103520009AE00E94B15610923D060C94560DA8E800
:10353000BCE0BE8BAD8B212C312C05E010E0A7CE7A
:103540008091440690914506892B09F01BC8809113
:10355000A006811113C04091960528E532E0429FF4
:10356000C001439F900D112490934506809344061B
:1035700081E08093A00669E474E011C04091970552
:1035800028E532E0429FC001439F900D11249093A3
:103590004506809344061092A00661E474E08EE62E
:1035A0009AE00E94B1560C94C2126F960FB6F8942E
:1035B000DEBF0FBECDBFDF91CF911F910F91FF9066
:1035C000EF90DF90CF90BF90AF909F908F907F90C3
:1035D0006F905F904F903F902F9008952F923F9261
:1035E0004F925F926F927F928F929F92AF92BF9213
:1035F000CF92DF92EF92FF920F931F93CF93DF93BF
:10360000CDB7DEB7A0970FB6F894DEBF0FBECDBF23
:103610007E0123E1E20EF11C67E574E0C7010E9420
:10362000795564E170E0C7010E949A5461E083ED2E
:1036300093E00E948E39882311F40C942C281E2DBF
:103640000F2D82E0582E93E0492E24E0322E38E6EA
:10365000C32E33E0D32E41E050E0BE01615E7F4FC8
:103660008EE89BE00E947435892B11F40C94292874
:103670006F8D6A3031F06D3021F0C7010E94C15466
:10368000EACF6DE679E08EE69AE00E948D564F898A
:10369000588D6B897C898EE69AE00E945B526BE6BE
:1036A00079E08EE69AE00E94B15640E050E06DE38A
:1036B000C7010E9418542F89388D1216130614F072
:1036C0000C9422288F3F4FEF940711F40C9422287A
:1036D000AC014F5F5F4FB701CE010D960E948D5533
:1036E000CE010D960E94B95363E679E0CE010196B2
:1036F0000E942A55BE016F5F7F4FC7010E9446544A
:10370000282ECE0101960E942555222009F448C09A
:1037100089899A890C9711F00C941E28A12CB12C40
:10372000812CB501CE010D960E943454FC0180819C
:103730000E942759982E929440EF9422B5016F5F12
:103740007F4FCE010D960E943454FC0180810E946F
:103750002759F501F595E79521E030E02C0F3D1F45
:10376000E20FF31F890D80833AE0A316B10411F430
:103770008824839442E0A40EB11C8CE0A816B10406
:1037800081F6882049F086E0FE013196A4E9B2E096
:1037900001900D928A95E1F70E9414590C941E280D
:1037A0006CE579E0CE0101960E942A55BE016F5F5B
:1037B0007F4FC7010E944654B82ECE0101960E9449
:1037C0002555BB2009F45BC0DA82C9821B821C82AA
:1037D0001D821E826D857E85CE0101960E94C15696
:1037E000882329F08B819C81AD81BE813AC067E539
:1037F00079E0CE0107960E942A5589899A892B85FE
:103800003C8582179307F9F4892BD9F0AD84BE84E7
:103810008F809884F50181915F01882391F0082EB3
:10382000000C990B0E94B4763C01F40181914F0188
:10383000082E000C990B0E94B4766816790651F395
:1038400002C022242394CE0107960E9425552220EF
:1038500081F08091110C9091120CA091130CB091F9
:10386000140C8093060C9093070CA093080CB09353
:10387000090C84E09CE00E947C5A0C941E286DE4A4
:1038800079E0CE0101960E942A55BE016F5F7F4FFD
:10389000C7010E944654B82ECE0101960E942555BC
:1038A000BB2031F1DA82C9821B821C821D821E82FA
:1038B0006D857E85CE0101960E94C156882391F0C8
:1038C0008B819C81AD81BE818093000C9093010C13
:1038D000A093020CB093030CCE0101960E947C5A77
:1038E0000C941E28CE0101960E947C5A0C941E282E
:1038F00063E479E0CE0101960E942A55BE016F5F14
:103900007F4FC7010E944654B82ECE0101960E94F7
:103910002555BB2031F1DA82C9821B821C821D82AF
:103920001E826D857E85CE0101960E94C156882338
:1039300091F08B819C81AD81BE818093FA0B909335
:10394000FB0BA093FC0BB093FD0BCE0101960E94E4
:103950007C5A0C941E28CE0101960E947C5A0C942D
:103960001E286BE379E0CE0101960E942A55BE0124
:103970006F5F7F4FC7010E944654B82ECE0101965B
:103980000E942555BB2031F1DA82C9821B821C823C
:103990001D821E826D857E85CE0101960E94C156D4
:1039A000882391F08B819C81AD81BE818093F40B43
:1039B0009093F50BA093F60BB093F70BCE01019605
:1039C0000E947C5A0C941E28CE0101960E947C5ABB
:1039D0000C941E2867E279E0CE0101960E942A55D8
:1039E000BE016F5F7F4FC7010E944654B82ECE01C3
:1039F00001960E942555B1100C941E286DE179E0C6
:103A0000CE0101960E942A55BE016F5F7F4FC7010C
:103A10000E944654B82ECE0101960E942555BB2027
:103A200041F0CE010D960E94AE53609366050C9452
:103A30001E286DE079E0CE0101960E942A55BE0154
:103A40006F5F7F4FC7010E944654B82ECE0101968A
:103A50000E942555BB2041F0CE010D960E94AE5329
:103A6000609367050C941E2860E079E0CE01019612
:103A70000E942A55BE016F5F7F4FC7010E944654C6
:103A8000B82ECE0101960E942555BB2041F0CE01F3
:103A90000D960E94AE53609368050C941E286EEE3E
:103AA00078E0CE0101960E942A55BE016F5F7F4FDC
:103AB000C7010E944654B82ECE0101960E9425559A
:103AC000BB2051F0CE010D960E94AE5370936A0553
:103AD000609369050C941E286DED78E0CE01019687
:103AE0000E942A55BE016F5F7F4FC7010E94465456
:103AF000B82ECE0101960E942555BB2051F0CE0173
:103B00000D960E94AE5370937205609371050C94EC
:103B10001E2861ED78E0CE0101960E942A55BE0173
:103B20006F5F7F4FC7010E944654B82ECE010196A9
:103B30000E942555BB2051F0CE010D960E94AE5338
:103B400070936E0560936D050C941E2866EC78E00A
:103B5000CE0101960E942A55BE016F5F7F4FC701BB
:103B60000E944654B82ECE0101960E942555BB20D6
:103B700051F0CE010D960E94AE537093760560937E
:103B800075050C941E2866EB78E0CE0101960E9424
:103B90002A55BE016F5F7F4FC7010E944654B82E61
:103BA000CE0101960E942555BB2051F0CE010D9605
:103BB0000E94AE5370936C0560936B050C941E28A5
:103BC00067EA78E0CE0101960E942A55BE016F5F38
:103BD0007F4FC7010E944654B82ECE0101960E9425
:103BE0002555BB2051F0CE010D960E94AE53709327
:103BF0007405609373050C941E286AE978E0CE0181
:103C000001960E942A55BE016F5F7F4FC7010E9437
:103C10004654B82ECE0101960E942555BB2051F086
:103C2000CE010D960E94AE537093700560936F05A0
:103C30000C941E286EE878E0CE0101960E942A5569
:103C4000BE016F5F7F4FC7010E944654B82ECE0160
:103C500001960E942555BB2051F0CE010D960E9481
:103C6000AE5370937805609377050C941E2868E72F
:103C700078E0CE0101960E942A55BE016F5F7F4F0A
:103C8000C7010E944654B82ECE0101960E942555C8
:103C9000BB2081F0CE010D960E94AE539B012150B6
:103CA00031092336310510F00C941E2860937905F4
:103CB0000C941E2869E678E0CE0101960E942A55F0
:103CC000BE016F5F7F4FC7010E944654B82ECE01E0
:103CD00001960E942555BB2081F0CE010D960E94D1
:103CE000AE539B01215031092A35310510F00C9457
:103CF0001E2860937A050C941E286CE478E0CE01AF
:103D000001960E942A55BE016F5F7F4FC7010E9436
:103D10004654B82ECE0101960E942555BB20A9F02D
:103D2000CE010D960E94AE53611571058105910576
:103D300011F40C941E2860937B0570937C0580938E
:103D40007D0590937E050C941E2864E378E0CE01F7
:103D500001960E942A55BE016F5F7F4FC7010E94E6
:103D60004654B82ECE0101960E942555BB2081F005
:103D7000CE010D960E94AE5360937F05709380052F
:103D800080938105909382050E94E2580C941E282E
:103D900068E178E0CE0101960E942A55BE016F5F6E
:103DA0007F4FC7010E944654B82ECE0101960E9453
:103DB0002555BB2079F0CE010D960E94AE536115BA
:103DC000710511F40C941E2870938405609383058B
:103DD0000C941E2865E078E0CE0101960E942A55D9
:103DE000BE016F5F7F4FC7010E944654B82ECE01BF
:103DF00001960E942555BB2041F0CE010D960E94F0
:103E0000AE53609385050C941E286AEF77E0CE01CF
:103E100001960E942A55BE016F5F7F4FC7010E9425
:103E20004654B82ECE0101960E942555BB2081F044
:103E3000CE010D960E94AE539B01215031092336CD
:103E4000310510F00C941E2860938A050C941E28EE
:103E50006FEE77E0CE0101960E942A55BE016F5F9A
:103E60007F4FC7010E944654B82ECE0101960E9492
:103E70002555BB2081F0CE010D960E94AE539B01CB
:103E8000215031092336310510F00C941E2860931F
:103E900089050C941E2863EE77E0CE0101960E94FE
:103EA0002A55BE016F5F7F4FC7010E944654B82E4E
:103EB000CE0101960E942555BB2081F0CE010D96C2
:103EC0000E94AE539B01215031092336310510F079
:103ED0000C941E28609387050C941E2864ED77E0EF
:103EE000CE0101960E942A55BE016F5F7F4FC70128
:103EF0000E944654B82ECE0101960E942555BB2043
:103F000081F0CE010D960E94AE539B0121503109E4
:103F10002336310510F00C941E28609388050C940C
:103F20001E2866EC77E0CE0101960E942A55BE015C
:103F30006F5F7F4FC7010E944654B82ECE01019695
:103F40000E942555BB2009F46EC0BE01635F7F4F00
:103F5000CE0149960E9460556EED73E0CE01019648
:103F60000E947955BE016F5F7F4FCE0149960E9436
:103F70004654811117C064EE73E0CE0107960E948B
:103F80007955BE01695F7F4FCE0149960E94465424
:103F9000BB24B394811101C0B12CCE0107960E94BD
:103FA000255502C0BB24B394CE0101960E9425552D
:103FB000BB2021F01092280221E02DC06AEE73E0B0
:103FC000CE0101960E947955BE016F5F7F4FCE01F1
:103FD00049960E944654B82ECE0101960E9425555E
:103FE000B11018C06EEE73E0CE0101960E947955B3
:103FF000BE016F5F7F4FCE0149960E944654282F25
:10400000CE01019628A30E94255528A1222319F04C
:1040100022E001C023E020938605CE0149960E944C
:1040200025550C941E286BEB77E0CE0101960E947B
:104030002A55BE016F5F7F4F812F902F0E944654FB
:10404000B82ECE0101960E942555BB2071F0CE01FD
:104050000D960E94AE539B01215031092336310544
:1040600008F0ECC760938F05E9C762EB77E0CE01FB
:1040700001960E942A55BE016F5F7F4F812F902FBE
:104080000E944654B82ECE0101960E942555BB20B1
:1040900091F0BE01635F7F4FCE0101960E94605593
:1040A000CE0101960E94906E80938D05CE010196FF
:1040B0000E942555C3C765EA77E0CE0101960E94AC
:1040C0002A55BE016F5F7F4F812F902F0E9446546B
:1040D000B82ECE0101960E942555BB2091F0BE015D
:1040E000635F7F4FCE0101960E946055CE0101961D
:1040F0000E943B6E80938E05CE0101960E9425554D
:104100009DC767E977E0CE0101960E942A55BE015E
:104110006F5F7F4F812F902F0E944654B82ECE01A3
:1041200001960E942555BB2059F0CE010D960E94A4
:10413000AE536436710508F081C7609391057EC760
:104140006DE877E0CE0101960E942A55BE016F5FAF
:104150007F4F812F902F0E944654B82ECE0101969A
:104160000E942555BB2071F0CE010D960E94AE53E2
:104170009B01215031092336310508F05FC7609358
:1041800090055CC761E877E0CE0101960E942A5550
:10419000BE016F5F7F4F812F902F0E944654B82E33
:1041A000CE0101960E942555BB2071F0CE010D96DF
:1041B0000E94AE539B01215031092336310508F08E
:1041C0003DC7609394053AC767E777E0CE01019653
:1041D0000E942A55BE016F5F7F4F812F902F0E9452
:1041E0004654B82ECE0101960E942555BB2091F071
:1041F000BE01635F7F4FCE0101960E946055CE01E4
:1042000001960E94906E80939205CE0101960E94C5
:10421000255514C769E677E0CE0101960E942A551C
:10422000BE016F5F7F4F812F902F0E944654B82EA2
:10423000CE0101960E942555BB2091F0BE01635F1F
:104240007F4FCE0101960E946055CE0101960E94DB
:104250003B6E80939305CE0101960E942555EEC6D4
:1042600061E677E0CE0101960E942A55BE016F5F9C
:104270007F4F812F902F0E944654B82ECE01019679
:104280000E942555BB2009F46DC0BE01635F7F4FBE
:10429000CE0149960E94605566EA74E0CE0101960F
:1042A0000E942A55BE016F5F7F4FCE0149960E9442
:1042B0004654811117C060EA74E0CE0107960E944F
:1042C0002A55BE01695F7F4FCE0149960E94465430
:1042D000BB24B394811101C0B12CCE0107960E947A
:1042E000255502C0BB24B394CE0101960E942555EA
:1042F000BB2021F01092280221E02DC06BE974E070
:10430000CE0101960E942A55BE016F5F7F4FCE01FC
:1043100049960E944654B82ECE0101960E9425551A
:10432000B11018C066E974E0CE0101960E942A55CA
:10433000BE016F5F7F4FCE0149960E944654282FE1
:10434000CE01019628A30E94255528A1222319F009
:1043500023E001C022E020938B05CE0149960E9404
:1043600025556CC665E577E0CE0101960E942A5579
:10437000BE016F5F7F4F812F902F0E944654B82E51
:10438000CE0101960E942555BB2091F0BE01635FCE
:104390007F4FCE0101960E946055CE0101960E948A
:1043A0003B6E80938C05CE0101960E94255546C632
:1043B00061E477E0CE0101960E942A55BE016F5F4D
:1043C0007F4F812F902F0E944654B82ECE01019628
:1043D0000E942555BB2091F0BE01635F7F4FCE0147
:1043E00001960E946055CE0101960E943B6E80931B
:1043F0009505CE0101960E94255520C66BE277E017
:10440000CE0101960E942A55BE016F5F7F4F812F1A
:10441000902F0E944654B82ECE0101960E94255539
:10442000BB2039F0CE010D960E94AE5360939605E5
:1044300005C664E177E0CE0101960E942A55BE01CF
:104440006F5F7F4F812F902F0E944654B82ECE0170
:1044500001960E942555BB2039F0CE010D960E9491
:10446000AE5360939705EAC564E077E0CE0101960C
:104470000E942A55BE016F5F7F4F812F902F0E94AF
:104480004654B82ECE0101960E942555BB2061F0FE
:10449000CE010D960E94AE538FEF860F833608F043
:1044A000CDC560939805CAC56FEE76E0CE01019642
:1044B0000E942A55BE016F5F7F4F812F902F0E946F
:1044C0004654B82ECE0101960E942555BB2059F0C6
:1044D000CE010D960E94AE53161617060CF0AEC50F
:1044E00060939A05ABC567ED76E0CE0101960E9418
:1044F0002A55BE016F5F7F4F812F902F0E94465437
:10450000B82ECE0101960E942555BB2059F0CE0150
:104510000D960E94AE53161617060CF08FC56093C9
:104520009B058CC560EC76E0CE0101960E942A5571
:10453000BE016F5F7F4F812F902F0E944654B82E8F
:10454000CE0101960E942555BB2059F0CE010D9653
:104550000E94AE53161617060CF070C560939C05AA
:104560006DC56CEA76E0CE0101960E942A55BE0127
:104570006F5F7F4F812F902F0E944654B82ECE013F
:1045800001960E942555BB2059F0CE010D960E9440
:10459000AE53161617060CF051C560939D054EC517
:1045A0006BE976E0CE0101960E942A55BE016F5F4D
:1045B0007F4F812F902F0E944654B82ECE01019636
:1045C0000E942555BB2059F0CE010D960E94AE5396
:1045D000161617060CF032C560939E052FC56BE8C2
:1045E00076E0CE0101960E942A55BE016F5F7F4F93
:1045F000812F902F0E944654B82ECE0101960E9422
:104600002555BB2059F0CE010D960E94AE531616CB
:1046100017060CF013C560939F0510C56EE776E092
:10462000CE0101960E942A55BE016F5F7F4F812FF8
:10463000902F0E944654B82ECE0101960E94255517
:10464000BB2059F0CE010D960E94AE5316161706E8
:104650000CF0F4C46093A005F1C46EE676E0CE01E0
:1046600007960E942A55BE01695F7F4F812F902FC8
:104670000E944654811117C06EE576E0CE01019686
:104680000E942A55BE016F5F7F4F812F902F0E949D
:104690004654BB24B394811101C0B12CCE010196C4
:1046A0000E94255502C0BB24B394CE0107960E94F8
:1046B0002555BB2069F1CE010D960E94AE536130A5
:1046C00009F0BCC4509248061092490650924D061B
:1046D00060934E06509252065092530650925706DF
:1046E0004092580650925C0630925D0650926106E8
:1046F00085E0809362065092660686E080936706A6
:1047000050926B0687E080936C061092280296C444
:1047100068E576E0CE0101960E942A55BE016F5FE2
:104720007F4F812F902F0E944654B82ECE010196C4
:104730000E942555BB2041F0BE01635F7F4F80E0A2
:1047400090E00E94196F7AC460E576E0CE01019690
:104750000E942A55BE016F5F7F4F812F902F0E94CC
:104760004654B82ECE0101960E942555BB2041F03B
:10477000BE01635F7F4F81E090E00E94196F5EC4CD
:1047800066E476E0CE0101960E942A55BE016F5F75
:104790007F4F812F902F0E944654B82ECE01019654
:1047A0000E942555BB2041F0BE01635F7F4F82E030
:1047B00090E00E94196F42C461E476E0CE01019658
:1047C0000E942A55BE016F5F7F4F812F902F0E945C
:1047D0004654B82ECE0101960E942555BB2041F0CB
:1047E000BE01635F7F4F83E090E00E94196F26C493
:1047F0006CE376E0CE0101960E942A55BE016F5F00
:104800007F4F812F902F0E944654B82ECE010196E3
:104810000E942555BB2041F0BE01635F7F4F84E0BD
:1048200090E00E94196F0AC467E376E0CE0101961A
:104830000E942A55BE016F5F7F4F812F902F0E94EB
:104840004654B82ECE0101960E942555BB2041F05A
:10485000BE01635F7F4F85E090E00E94196FEEC359
:104860006EE276E0CE0101960E942A55BE016F5F8E
:104870007F4F812F902F0E944654B82ECE01019673
:104880000E942555BB2041F0BE01635F7F4F86E04B
:1048900090E00E94196FD2C365E276E0CE010196E6
:1048A0000E942A55BE016F5F7F4F812F902F0E947B
:1048B0004654B82ECE0101960E942555BB2041F0EA
:1048C000BE01635F7F4F87E090E00E94196FB6C31F
:1048D00062E276E0CE0101960E942A55BE016F5F2A
:1048E0007F4F812F902F0E944654B82ECE01019603
:1048F0000E942555BB2041F0BE01635F7F4F88E0D9
:1049000090E00E94196F9AC36FE176E0CE010196A4
:104910000E942A55BE016F5F7F4F812F902F0E940A
:104920004654B82ECE0101960E942555BB2041F079
:10493000BE01635F7F4F89E090E00E94196F7EC3E4
:104940006CE176E0CE0101960E942A55BE016F5FB0
:104950007F4F812F902F0E944654B82ECE01019692
:104960000E942555BB2041F0BE01635F7F4F8AE066
:1049700090E00E94196F62C369E176E0CE01019672
:104980000E942A55BE016F5F7F4F812F902F0E949A
:104990004654B82ECE0101960E942555BB2041F009
:1049A000BE01635F7F4F8BE090E00E94196F46C3AA
:1049B00066E176E0CE0101960E942A55BE016F5F46
:1049C0007F4F812F902F0E944654B82ECE01019622
:1049D0000E942555BB2041F0BE01635F7F4F8CE0F4
:1049E00090E00E94196F2AC363E176E0CE01019640
:1049F0000E942A55BE016F5F7F4F812F902F0E942A
:104A00004654B82ECE0101960E942555BB2041F098
:104A1000BE01635F7F4F8DE090E00E94196F0EC36F
:104A200060E176E0CE0101960E942A55BE016F5FDB
:104A30007F4F812F902F0E944654B82ECE010196B1
:104A40000E942555BB2041F0BE01635F7F4F8EE081
:104A500090E00E94196FF2C26DE076E0CE010196FF
:104A60000E942A55BE016F5F7F4F812F902F0E94B9
:104A70004654B82ECE0101960E942555BB2041F028
:104A8000BE01635F7F4F8FE090E00E94196FD6C236
:104A90006BE076E0CE0101960E942A55BE016F5F61
:104AA0007F4F812F902F0E944654B82ECE01019641
:104AB0000E942555BB2051F0CE010D960E94AE53A9
:104AC000613009F0BBC26093A105B8C269EF75E01F
:104AD000CE0101960E942A55BE016F5F7F4F812F44
:104AE000902F0E944654B82ECE0101960E94255563
:104AF000BB2039F0CE010D960E94AE53609319028F
:104B00009DC267EE75E0CE0101960E942A55BE0156
:104B10006F5F7F4F812F902F0E944654B82ECE0199
:104B200001960E942555BB2039F0CE010D960E94BA
:104B3000AE5360931A0282C265ED75E0CE01019614
:104B40000E942A55BE016F5F7F4F812F902F0E94D8
:104B50004654B82ECE0101960E942555BB2039F04F
:104B6000CE010D960E94AE5360931B0267C264ECA7
:104B700075E0CE0101960E942A55BE016F5F7F4FFE
:104B8000812F902F0E944654B82ECE0101960E948C
:104B90002555BB2039F0CE010D960E94AE5360938F
:104BA0001C024CC263EB75E0CE0101960E942A55AF
:104BB000BE016F5F7F4F812F902F0E944654B82E09
:104BC000CE0101960E942555BB2039F0CE010D96ED
:104BD0000E94AE5360931D0231C261EA75E0CE01BE
:104BE00001960E942A55BE016F5F7F4F812F902F43
:104BF0000E944654B82ECE0101960E942555BB2036
:104C000039F0CE010D960E94AE5360931E0216C27B
:104C10006BE875E0CE0101960E942A55BE016F5FD8
:104C20007F4F812F902F0E944654B82ECE010196BF
:104C30000E942555BB2079F0CE010D960E94AE53FF
:104C40002AE0269FA001279F500D11245093250292
:104C500040932402F3C169E775E0CE0101960E94FA
:104C60002A55BE016F5F7F4F812F902F0E944654BF
:104C7000B82ECE0101960E942555BB2061F0CE01D1
:104C80000D960E94AE53660F862F880F880F680F0F
:104C900060931F02D3C164E675E0CE0101960E94C5
:104CA0002A55BE016F5F7F4F812F902F0E9446547F
:104CB000B82ECE0101960E942555BB2069F0CE0189
:104CC0000D960E94AE53FAE06F9FB00111247093CD
:104CD000230260932202B2C164E575E0CE01019621
:104CE0000E942A55BE016F5F7F4F812F902F0E9437
:104CF0004654B82ECE0101960E942555BB2009F4DA
:104D000064C167EF74E0CE0101960E942A55BE018E
:104D10006F5F7F4FCE010D960E944654B82ECE0194
:104D200001960E942555B1102EC16FEE74E0CE01A0
:104D300001960E942A55BE016F5F7F4FCE010D96EE
:104D40000E944654B82ECE0101960E942555B110FE
:104D50001CC165EE74E0CE0101960E942A55BE0189
:104D60006F5F7F4FCE010D960E944654B82ECE0144
:104D700001960E942555B1100AC160EE74E0CE0183
:104D800001960E942A55BE016F5F7F4FCE010D969E
:104D90000E944654B82ECE0101960E942555B110AE
:104DA000F8C06BED74E0CE0101960E942A55BE0159
:104DB0006F5F7F4FCE010D960E944654B82ECE01F4
:104DC00001960E942555B110E6C066ED74E0CE0153
:104DD00001960E942A55BE016F5F7F4FCE010D964E
:104DE0000E944654B82ECE0101960E942555B1105E
:104DF000D4C06DEC74E0CE0101960E942A55BE012C
:104E00006F5F7F4FCE010D960E944654B82ECE01A3
:104E100001960E942555B110C2C064EC74E0CE0129
:104E200001960E942A55BE016F5F7F4FCE010D96FD
:104E30000E944654B82ECE0101960E942555B1100D
:104E4000B0C061EC74E0CE0101960E942A55BE010B
:104E50006F5F7F4FCE010D960E944654B82ECE0153
:104E600001960E942555B1109EC06EEB74E0CE01F4
:104E700001960E942A55BE016F5F7F4FCE010D96AD
:104E80000E944654B82ECE0101960E942555B110BD
:104E90008CC06BEB74E0CE0101960E942A55BE01D6
:104EA0006F5F7F4FCE010D960E944654B82ECE0103
:104EB00001960E942555B1107AC068EB74E0CE01CE
:104EC00001960E942A55BE016F5F7F4FCE010D965D
:104ED0000E944654B82ECE0101960E942555B1106D
:104EE00068C065EB74E0CE0101960E942A55BE01B0
:104EF0006F5F7F4FCE010D960E944654B82ECE01B3
:104F000001960E942555B11056C062EB74E0CE01A7
:104F100001960E942A55BE016F5F7F4FCE010D960C
:104F20000E944654B82ECE0101960E942555B1101C
:104F300044C06FEA74E0CE0101960E942A55BE017A
:104F40006F5F7F4FCE010D960E944654B82ECE0162
:104F500001960E942555B11032C06CEA74E0CE0172
:104F600001960E942A55BE016F5F7F4FCE010D96BC
:104F70000E944654B82ECE0101960E942555B110CC
:104F800020C08FEF1FC080E01DC081E01BC082E009
:104F900019C083E017C084E015C085E013C086E027
:104FA00011C087E00FC088E00DC089E00BC08AE027
:104FB00009C08BE007C08CE005C08DE003C08EE027
:104FC00001C08FE08093990539C069E475E0CE0196
:104FD00001960E942A55BE016F5F7F4F812F902F4F
:104FE0000E944654B82ECE0101960E942555BB2042
:104FF00039F063E375E08EE69AE00E94B1561EC078
:1050000065E275E0CE0101960E942A55BE016F5FF0
:105010007F4F812F902F0E944654B82ECE010196CB
:105020000E942555B1100AC067E175E0CE010196D6
:105030000E942A55CE0101960E942555CE010D965B
:105040000E94255567E574E0C7010E9410550C9435
:105050002B1B0E94BB5906C06DEF74E08EE69AE0F0
:105060000E94B156C7010E942555A0960FB6F8942C
:10507000DEBF0FBECDBFDF91CF911F910F91FF908B
:10508000EF90DF90CF90BF90AF909F908F907F90E8
:105090006F905F904F903F902F9008950895CF9319
:1050A000DF931F92CDB7DEB76983DC01ED91FC91F0
:1050B0000280F381E02D41E050E0BE016F5F7F4F41
:1050C00019950F90DF91CF910895FC01818D928DFC
:1050D0000895FC0184899589089528E633E0FC0150
:1050E00031832083FB014089518962897389FC01E6
:1050F00042835383648375830895DC01ED91FC91B1
:10510000008CF18DE02D1994CF93DF931F92CDB7D2
:10511000DEB76983DC01ED91FC910280F381E02D23
:1051200041E050E0BE016F5F7F4F19950F90DF9116
:10513000CF910895FC019485FB018485981303C0E9
:1051400081E0943009F480E0089521E0FC01848539
:10515000843009F420E0822F08951F93CF93DF93CA
:10516000182F66E270E00E94D14DC82FD0E067E2B0
:1051700070E0812F0E94D14DDC2FCC279E01282B7F
:10518000C901DF91CF911F9108958F929F92AF92A5
:10519000BF92CF92DF92EF92FF920F931F93CF9324
:1051A000DF931F921F92CDB7DEB76C014B017A01DE
:1051B000FC01A688B788108D00E021E040E059E0AE
:1051C0006DE370E0CE0101960E94024E89819A81C2
:1051D0000E94FF4D812F0E94205C8E159F0520F4B8
:1051E000812F0E94205C7C019701A401B501812FD1
:1051F0000E94BB5B0E94FE4DF601868997898E0D49
:105200009F1D978B868BC7010F900F90DF91CF91D9
:105210001F910F91FF90EF90DF90CF90BF90AF90D4
:105220009F908F9008952C9A08952C9808951F931D
:10523000CF93DF93182F60E270E00E94D14DC82F0A
:10524000D0E061E270E0812F0E94D14DDC2FCC27AD
:105250009E01282BC901DF91CF911F9108958EBD2A
:1052600000000DB407FEFDCF8EB50895CF92DF92FA
:10527000EF92FF920F931F93CF93DF93EC017A018C
:105280008B016C01C40ED51ECC15DD0579F0CDDF88
:105290008FE0E5DF8D2FE3DF8C2FE1DF219680E0CB
:1052A000DEDFF80181938F01BEDFEECFC701DF9112
:1052B000CF911F910F91FF90EF90DF90CF900895C5
:1052C000CF92DF92EF92FF920F931F93CF93DF93D2
:1052D000EC017A018B016C01C40ED51ECC15DD05E5
:1052E00071F0A3DF80EFBBDF8D2FB9DF8C2FB7DF2D
:1052F0002196F80181918F01B2DF95DFEFCFC701D1
:10530000DF91CF911F910F91FF90EF90DF90CF90A1
:1053100008951F93CF93DF931F921F92CDB7DEB7EF
:10532000182F6A83998381DF80EF99DF9981892F14
:1053300096DF812F94DF6A81862F91DF74DF81E011
:105340000F900F90DF91CF911F910895EF92FF92F0
:105350000F931F93CF93DF931F921F92CDB7DEB7AA
:10536000182F7B0100E021E040E059E06DE370E0A0
:10537000CE0101960E94024E89819A810E94FF4DC2
:1053800021E041E050E0B701812F0E94535B0E9471
:10539000FE4D81E090E00F900F90DF91CF911F9133
:1053A0000F91FF90EF900895CF93DF931F92CDB7A9
:1053B000DEB7FC01218D328D232B41F0BE016F5FE2
:1053C0007F4F808DC3DF898190E002C08FEF9FEF18
:1053D0000F90DF91CF910895DF92EF92FF920F939C
:1053E0001F93CF93DF931F921F92CDB7DEB7D82EB6
:1053F00000E021E040E059E06DE370E0CE0101966D
:105400000E94024E89819A810E94FF4D00E010E0C7
:105410008D2DA3DE7C01892B19F08D2D9EDE8C0154
:105420000E151F05A9F70E94FE4DC8010F900F90A1
:10543000DF91CF911F910F91FF90EF90DF90089532
:105440008F929F92AF92BF92CF92DF92FF920F9373
:105450001F93CF93DF931F921F92CDB7DEB7F82E25
:105460004B016A0100E021E040E059E06DE370E0AB
:10547000CE0101960E94024E89819A810E94FF4DC1
:1054800000E010E08F2D69DE5C01892B19F08F2D73
:1054900064DE8C010A151B05A9F70115110599F4A5
:1054A00063E070E08F2D0E94D14D8431F1F08823AC
:1054B000E1F001E010E08C3111F400E010E0119512
:1054C0000195110912C0C016D1060CF48601101600
:1054D00011065CF420E0A801B4018F2D0E94535BFB
:1054E00060E470E08F2D0E94905A0E94FE4DC8012A
:1054F0000F900F90DF91CF911F910F91FF90DF9050
:10550000CF90BF90AF909F908F900895CF93DF93EF
:10551000FC01218D328D2115310519F48FEF9FEF9C
:1055200010C0EC014217530708F0A901888D88DFED
:10553000181619069CF7298D3A8D281B390B3A8FBE
:10554000298FDF91CF9108950F931F93CF93DF930E
:105550001F92CDB7DEB7FC01218D328D232B59F080
:105560008C0141E050E0BE016F5F7F4F808D68DFAE
:10557000181619061CF08FEF9FEF08C0F801818DF7
:10558000928D0197928F818F898190E00F90DF91AA
:10559000CF911F910F9108950F931F93CF93DF9396
:1055A000CDB7DEB728970FB6F894DEBF0FBECDBFDC
:1055B0008C01F801818D928D892B49F0D801ED91F4
:1055C000FC910680F781E02DC8011995F2CF808DFE
:1055D00003DF1816190654F548E050E0BE016F5F6E
:1055E0007F4FD80158968C912BDF9C011816190615
:1055F000DCF489819A81AB81BC81F801808B918B2D
:10560000A28BB38B8D8190E0982F88272E81820FFB
:10561000911D958B848B2F8130E0322F2227888536
:10562000280F311D328F218FC90102C080E090E028
:1056300028960FB6F894DEBF0FBECDBFDF91CF9195
:105640001F910F9108950F931F93CF93DF9300D075
:10565000CDB7DEB7182F00E021E040E059E06DE360
:1056600070E0CE0101960E94024E89819A810E94CB
:10567000FF4D63E070E0812F0E94D14D8B830E942B
:10568000FE4D8B810F900F900F90DF91CF911F9166
:105690000F910895FC011382128288EE93E0A0E03E
:1056A000B0E084839583A683B78384EB92E09183F3
:1056B000808388E693E097878687108A118A128A0A
:1056C000138A84E0808F0895CF92DF92EF92FF9249
:1056D0000F931F93CF93DF93CDB7DEB7E1970FB64C
:1056E000F894DEBF0FBECDBF7C016A0108E613E06F
:1056F0001A8309831B821C821D821E82CE01099699
:1057000068AB79ABC7DF1DA30CA31EA21FA218A60E
:1057100019A68091230B9091240BA091250BB09199
:10572000260B8CA79DA7AEA7BFA78B839C83AD83B9
:10573000BE8318861F82AE014C5D5F4F68A979A9B0
:10574000CE0101960E94624F81309105B1F4D701DC
:10575000ED91FC910088F189E02D1BA70AA78EA18D
:105760009FA1A8A5B9A58CA79DA7AEA7BFA7A60175
:10577000BE01665D7F4FC7011995E1960FB6F8949B
:10578000DEBF0FBECDBFDF91CF911F910F91FF9074
:10579000EF90DF90CF9008959B0190E00496982FB2
:1057A0008827642F820F931FB4CD0F931F93CF933D
:1057B000DF931F921F92CDB7DEB7182F00E021E0D4
:1057C00040E059E06DE370E0CE0101960E94024E88
:1057D00089819A810E94FF4D60E170E0812F0E94D3
:1057E000905A4FEF62E070E0812FD6DF0E94FE4DAD
:1057F0000F900F90DF91CF911F910F910895CF924D
:10580000DF92EF92FF920F931F93CF93DF931F923C
:105810001F92CDB7DEB7182FC62E7A01D22EC5DF64
:1058200000E021E040E059E06DE370E0CE01019638
:105830000E94024E89819A810E94FF4D4C2D4D2974
:1058400060E070E0812FA8DFE114F10459F4E090EA
:105850006207F09063078FEFE81AF80AF092630787
:10586000E09262074F2D64E070E0812F95DF4E2DAE
:1058700065E070E0812F90DF61E070E0812F0E9491
:10588000905A0E94FE4D81E00F900F90DF91CF91D2
:105890001F910F91FF90EF90DF90CF900895EF92BE
:1058A000FF921F93CF93DF93FC01208D243011F0E2
:1058B00080E01AC07B01EC0110E0812FC4DE811171
:1058C00002C0188F05C08831E1F31F5F1430A9F7BB
:1058D000888D843069F3FD86EC861A8E198E20E05F
:1058E000A70162E08CDF81E0DF91CF911F91FF90F3
:1058F000EF900895CF93DF93EC01888D843059F0B9
:1059000054DFE88DF0E0EE0FFF1FE65AF84F1182EA
:10591000108284E0888FDF91CF9108950F931F93B9
:10592000CF93DF931F921F92CDB7DEB7FC01108D8E
:1059300000E021E040E059E06DE370E0CE01019627
:105940000E94024E89819A810E94FF4D60E270E0C0
:10595000812F0E94905A62E070E0812F0E94D14D09
:1059600084FD22C062E070E0812F0E94D14D83FF50
:105970000AC048E162E070E0812F0EDF0E94FE4D18
:1059800080E090E01AC00E94FE4D00E021E040E07F
:1059900059E06DE370E0CE0101960E94024E8981CC
:1059A0009A810E94FF4DD7CF40E162E070E0812FE5
:1059B000F3DE0E94FE4D81E090E00F900F90DF91AA
:1059C000CF911F910F910895CF93DF93C82FD62FBA
:1059D000472F60E170E0E0DE4D2F61E170E08C2F39
:1059E000DF91CF91D9CEBF92CF92DF92EF92FF920B
:1059F0000F931F93CF93DF9300D000D0CDB7DEB7C6
:105A0000FC01208D243009F04FC06A017B018C011C
:105A1000B12C63E070E08B2D0E94D14D811103C049
:105A2000F801B08E06C08831D9F3B394F4E0BF1208
:105A3000F0CFF801808D8430B9F196E0EAEAF2E027
:105A4000DE01119601900D929A95E1F7F70193818D
:105A50009F779C8394819D8395819E83B7016E5F20
:105A60007F4F90E0982F882744E050E0845F9B4F61
:105A700027DCB601F801808DA7DFF801808D90E06A
:105A8000982F882746E050E0BE016F5F7F4F8A5F06
:105A90009B4F16DCF801128E118E20E8A60162E001
:105AA000808DADDE81E001C080E026960FB6F894CF
:105AB000DEBF0FBECDBFDF91CF911F910F91FF9041
:105AC000EF90DF90CF90BF900895CF92DF92EF924A
:105AD000FF920F931F93CF93DF931F921F92CDB727
