:100000000C94DD0D0C947F790C9454790C9429791F
:100010000C94FE780C94D3780C94A8780C947D788A
:100020000C9452780C9462390C9432390C94023945
:100030000C940E0E0C940E0E0C940E0E0C940E0ED0
:100040000C940E0E0C94363A0C940E0E0C940E0E6C
:100050000C940E0E0C940E0E0C940E0E0C9408784C
:100060000C940E0E0C943E710C9415710C940E0EA3
:100070000C940E0E0C944D370C940E0E0C940E0E28
:100080000C940E0E0C940E0E0C940E0E0C94E54770
:100090000C94EC700C94C3700C940E0E0C94B4463B
:1000A0000C940E0E0C940E0E0C940E0E0C940E0E60
:1000B0000C940E0E0C940E0E0C940E0E0C940E0E50
:1000C0000C940E0E0C940E0E0C940E0E0C940E0E40
:1000D0000C940E0E0C940E0E0C940E0E0C940E0E30
:1000E0000C940E0EED34F234F73401350B358435B3
:1000F00015351D3525352F353935433552355C35A8
:100100008435663570357A35F976FC76EB76EF76A0
:10011000F5763377007704770A770E7712771877BA
:100120001C772077337726772A772E7744414C4CFB
:1001300041533A204B6F6E69656320706F737A7517
:100140006B6977616E696120637A756A6E696B6F3E
:10015000772E0044414C4C41533A204E49452044AF
:100160004F44414E4F212100202054656D7065722F
:100170006174757261203D2000204352433D002090
:100180002044617461203D200020437A6173207017
:100190006F6272616E69612064616E796368207A52
:1001A00020637A756A6E696B61203D2000204E697C
:1001B000657A6E616E792044533138787800204436
:1001C000533138323200204453313842323000202B
:1001D0004453313853323000626C616420435243DF
:1001E0000044414C4C41533A204944203D002043B7
:1001F0007A6173206B6F6D656E6461206B6F6E77D3
:100200006572736A6920646C6120637A756A6E69CD
:100210006B61203D200044414C4C41533A20506FCB
:10022000637A6174656B20706F737A756B6977613F
:100230006E696120637A756A6E696B6F772E005301
:10024000443A206272616B20706C696B7520636F39
:100250006E6669672E747874005D00636F6E666900
:10026000673A205B0053443A206272616B20706CE5
:10027000696B7520706F64616A6E696B2E74787437
:10028000004E54503A20557A79736B616E6F20633B
:100290007A617320756E697874696D653A0052549D
:1002A000433A206F64637A7974207A61736F626E67
:1002B000696B613A0053544152540049503A2062EC
:1002C00072616B204574686572536869656C642E51
:1002D0002E2E005757573A7374726F6E6120676FF6
:1002E000746F7761005757573A7572756368616D1F
:1002F00069616D207374726F6E652E2E2E004950E9
:100300003A20646E733A0049503A206272616D611E
:100310003A0049503A206D61736B613A0049503A96
:100320002061647265733A0049503A206D61633A06
:100330000049503A20706F62696572616E6965208C
:10034000616472657375207A20444843502E2E2EC6
:1003500000576F6C6E792052414D3A0049503A2057
:100360006B6F6E666967757261636A612073696538
:1003700063692E2E2E00576F6C6E792052414D3AD4
:1003800000576F6C6E792052414D3A00576F6C6E7A
:10039000792052414D3A0053443A20626C61642006
:1003A0006F64637A7974752064616E796368005351
:1003B000443A20626C6164206B617274790053442A
:1003C0003A206272616B206B6172747900525443FF
:1003D0003A206272616B20445331333037005254FB
:1003E000433A2053544F50202D3E205354415254F1
:1003F000005254433A207A6E616C657A696F6E6F71
:100400002044533133303700302E312E302E3839DE
:10041000004C75636A616E20762E001F1F1F00005E
:10042000000000181C1E1F1F1F1F1F1F1F1F1F1F44
:100430000F070300000000001F1F1F1F1F1F1F1FAB
:100440001E1C181F1F1F0000001F1F1F00000000A0
:100450001F1F1F03070F1F1F1F1F1F4932433A2073
:10046000536B616E6F77616E6965202E2E2E0030A2
:100470002E312E302E3839004C75636A616E20762D
:100480002E00504B543A2043524300504B543A20D4
:1004900045545800504B543A205354580044533A52
:1004A000206E723A256420703A2564204552524FDE
:1004B000520044533A206E723A256420703A256403
:1004C00020743A2564206372633A2564204F4B0000
:1004D0002A2A4833002A2A4732002A2A4731002A8A
:1004E0002A5032002A2A5031002A2A444D50310025
:1004F0002A2A444D5432002A2A444D5431002A2AD3
:10050000444D545F4F4E002A2A444D445F4F4E00E5
:100510002A2A444D505F4F4646002A2A444D505FD8
:100520004F4E002A2A444D525F4F464632002A2A37
:10053000444D525F4F4646002A2A444D525F4F4E6B
:10054000002A2A432D4F46462A002A2A432D4F4689
:1005500046002A2A432D4F4E002A2A432D4F4E2A69
:1005600000205434443A00207A6164616E613A009C
:1005700034443A20435A454B414D59202D2064655F
:100580006C74613A00205434443A00207A6164610A
:100590006E613A00206B726F6B3A0034443A204B24
:1005A000524543494D59202D2064656C74613A00D1
:1005B00034443A205445524D4F53544154204F46F1
:1005C000460034443A205445524D4F535441542030
:1005D0004F4E002020202020202000647A69656E84
:1005E0003A006861726D6F6E6F6772616D2063793A
:1005F000726B756C61636A693A00503A2025642C0D
:10060000253034642C253034642C253034642C257A
:100610003034640041363A20256420256420256466
:1006200000414C4C3A2025646D7300545A3A002026
:1006300025642525204445542D25642F3230300073
:1006400054524941433A20542D2564205A2D2564A3
:1006500020542D5A2D256420462D25640020534317
:1006600056002053434700204F4300544B206572EF
:10067000726F723A0054524941433A2070726F626D
:100680006C656D79207A20646574656B746F726532
:100690006D2030203A2025642F32303000525443F0
:1006A0003A20643A25642025643A2564005452496E
:1006B00041433A207A616B6C7563656E6961207A9B
:1006C00020646574656B746F72612C2064656C7452
:1006D00061203D002072657472793D0045434F41B1
:1006E0004C3A2070726F626C656D79207A206B6F66
:1006F0006D756E696B61636A61203A206572723D47
:1007000000414C4D3A2050525A4550414C4F4E59A1
:100710002042455A504945435A4E494B00414C4DA1
:100720003A20504F44414A4E494B205354414E20A9
:100730004D494E00414C4D3A20504F44414A4E499C
:100740004B20544D415800414C4D3A2050494543AF
:1007500020544D415800414C4D3A204252414B00EB
:10076000576F6C6E792052414D3A005D007365748D
:10077000205B005245534554005745423A004C43D4
:10078000443A005A34443A00504D503A00444D55D2
:100790003A00504F443A00414C473A00414C4D3AE0
:1007A000004D41503A00414E413A004D41583A0007
:1007B00044414C4C3A00434F4E3A0054494D3A00A4
:1007C0004C41544F005A494D41004252554C49004A
:1007D00045434F414C004E69657A6E616E792064E5
:1007E0007A69656E004E4400534F00505400435ADE
:1007F00000535200575400504F002A005858444D9F
:100800005F504C55535F4D4F43005858444D5F5017
:100810004C55535F4D4F43005858544553545F4E09
:100820005231207A6E616C657A696F6E6F0058582C
:10083000544553545F4E5231004E69657A6E616E75
:100840007920647A69656E0050524F475F43595270
:100850004B5F0050524F475F005A4144414E4100A8
:100860004B525A595741005A41574F5234442D5414
:10087000525942005A41574F5234442D5A41444133
:100880004E41005A41574F5234442D484953544524
:1008900052455A41005A41574F5234442D4F424E0F
:1008A000495A4F4E41005A41574F5234442D435AF2
:1008B000554A4E494B005A41574F5234442D435AE2
:1008C00041535F504F4D49415255005A41574F5285
:1008D00034442D435A41535F4B524F4B005A4157BA
:1008E0004F5234442D435A41535F4F545741524362
:1008F0004941004B525A5957415F47525A414E495C
:10090000412B3135004B525A5957415F47525A419A
:100910004E49412B35004B525A5957415F47525A65
:10092000414E49412D30004B525A5957415F475271
:100930005A414E49412D3130004B525A5957415F6F
:1009400047525A414E49412D3230004B525A595765
:10095000415F47525A414E49412D333000560054B1
:1009600038005437005436005435005434005433A2
:1009700000543200543100545350414C494E5900F8
:1009800054504F444C4F474100544357550054571F
:10099000455700545A45570054504F44414A4E4918
:1009A0004B0054504F57524F540054504945430048
:1009B000545F4D4150554A5F5A5F4252554C490071
:1009C000545F4D4150554A5F5A5F45434F414C007B
:1009D00052525F50524143415F4D4F430052525F6C
:1009E00050524143415F504F53544F4A0052525F5F
:1009F00050524143415F504F44414E49450052528D
:100A00005F504F4454525A594D414E49455F4D4FE6
:100A1000430052525F504F4454525A594D414E492F
:100A2000455F504F53544F4A0052525F504F445409
:100A3000525A594D414E49455F504F44414E4945E8
:100A40000052525F504F4454525A594D414E4945FD
:100A50005F435A4153004359524B554C41434A411D
:100A60005F544D494E004359524B554C41434A4106
:100A70005F435A41535F57594C41435A00435952BF
:100A80004B554C41434A415F435A41535F574C4198
:100A9000435A004359524B554C41434A415F414CE4
:100AA000474F5259544D00434F5F414C474F5259A5
:100AB000544D00434F5F5452594200435755325FE3
:100AC000414C474F5259544D00435755325F545291
:100AD000594200435755325F5A4144414E41004309
:100AE00057555F545F4D4158004357555F48495330
:100AF000544552455A41004357555F414C474F5268
:100B000059544D004357555F54525942004357556D
:100B10005F5A4144414E4100504945435F414C4773
:100B20004F5259544D00504945435F48495354452D
:100B300052455A4100504945435F5A4144414E4154
:100B400000504945435F545F4D415800504945436B
:100B50005F545F4D494E00504F44414A4E494B5FF0
:100B6000414C41524D5F4D494E00504F44414A4E19
:100B7000494B5F505245444B4F53435F504F4441A4
:100B800057414E494100504F44414A4E494B5F4303
:100B90005A41535F504F44414A4E494B4100504FD8
:100BA00044414A4E494B5F435A41535F444F5F4F64
:100BB00050524F5A4E49454E494100504F44414AC8
:100BC0004E494B5F545F4D415800504F44414A4E8F
:100BD000494B5F435A41535F5759525A5554550038
:100BE000444D5F504C55535F4D4F4300444D5F5053
:100BF0004C55535F435A415300444D5F524F5A5234
:100C00005543485F4D4F4300444D5F524F5A525534
:100C100043485F435A415300444D5F544C4F5F4D2E
:100C20004F4300444D5F544C4F5F435A415300447F
:100C30004D5F444F50414C414E49455F4D4F43003D
:100C4000444D5F444F50414C414E49455F435A41EA
:100C50005300444D5F4D4F44554C41434A4100447D
:100C60004D5F494E574552534A415F50574D0044DE
:100C70004D5F4F464653455400444D5543484157F8
:100C8000415F41435F475255504F574F004E4554C7
:100C90005F444E53004E45545F4252414D41004E19
:100CA00045545F4D41534B41006175746F004E4593
:100CB000545F4950004E45545F4D4143002D3E0066
:100CC0002000533A2000535F0020743A0020653A18
:100CD00000206D3A00206F3A0020703A002049440D
:100CE0003A0044414C4C4153200058585845434F1A
:100CF000414C004252414B004252414B00534F463F
:100D00005400534F4654004D415833313835350067
:100D10004D415833313835350044414C4C41532016
:100D20004E52203D200044414C4C41530053504111
:100D30004C494E5900504F444C4F47410043575582
:100D400000574557005A455700504F44414A4E49B5
:100D50004B00504F57524F5400434F004252554C96
:100D6000490045434F414C00543800543700543635
:100D700000543500543400543300543200543100D0
:100D8000545350414C494E590054504F444C4F47D6
:100D9000410054435755005457455700545A45573E
:100DA0000054504F44414A4E494B0054504F575203
:100DB0004F54005450494543005254433A207A61FD
:100DC000706973207A61736F626E696B613A00209B
:100DD0002D3E2000444D3A20004D4945535A414E86
:100DE00049450042415254454B00574C41435A003B
:100DF0004252554C490045434F414C0057594C41D4
:100E0000435A4F4E590043594B4C49435A4E59008F
:100E1000434941474C59002020203C574C41435AFC
:100E20004F4E593E202020002020203C57594C4155
:100E3000435A4F4E593E202000202D3E200048416D
:100E4000524D4F4E4F4752414D3A207A6D69616E77
:100E5000612000005EBCE2613FDD83C29C7E20A376
:100E6000FD1F419DC3217FFCA2401E5F01E3BD3EEB
:100E70006082DC237D9FC1421CFEA0E1BF5D038038
:100E8000DE3C62BEE0025CDF81633D7C22C09E1DD1
:100E900043A1FF4618FAA427799BC584DA3866E592
:100EA000BB5907DB856739BAE406581947A5FB78B3
:100EB00026C49A653BD987045AB8E6A7F91B45C6EC
:100EC000987A24F8A6441A99C7257B3A6486D85B99
:100ED00005E7B98CD2306EEDB3510F4E10F2AC2F46
:100EE0007193CD114FADF3702ECC92D38D6F31B283
:100EF000EC0E50AFF1134DCE90722C6D33D18F0CA0
:100F000052B0EE326C8ED0530DEFB1F0AE4C129168
:100F1000CF2D73CA947628ABF517490856B4EA6901
:100F200037D58B5709EBB536688AD495CB2977F43A
:100F3000AA4816E9B7550B88D6346A2B7597C94A63
:100F400014F6A8742AC896154BA9F7B6E80A54D720
:100F5000896B351F1C1F1E1F1E1F1F1E1F1E1F7C7F
:100F60003C3E5E2B3D3F2F5B5D3B2C2A225C0020EC
:100F70004F4B0D0A00485454502F312E312000445D
:100F80004953434F4E4E4543544544004357553211
:100F90003A00435755313A00434F3A004B4F004F08
:100FA0004B0066756C6C0020743A0020653A002096
:100FB0006D3A00206F3A0020703A002049443A0010
:100FC00044414C4C41532000444953434F4E4E45FD
:100FD000435445440077656E74796C61746F723A5E
:100FE00000435755323A00435755313A0061636325
:100FF0006573732D636F6E74726F6C2D616C6C6FA3
:10100000772D6F726967696E3A202A0A002E002DCB
:1010100000227D00302E312E302E3839002C2276E1
:101020006572223A22002274696D65223A002C0012
:1010300022616C223A20002C0030003100227465BD
:1010400072223A20002C0030003100226379726B4A
:10105000223A20002C0030003100226377753222C2
:101060003A20002C00300031002263777531223A9B
:1010700020002C003000310022636F223A20002C27
:10108000003000310022706F64223A20002C0022D0
:10109000706F64676D696E223A20002C0022706FB9
:1010A00064637A646F223A20002C0022706F6463BC
:1010B0007A7A6173223A20002C0022706F64637A7E
:1010C000223A20002C002277656E31223A20002C33
:1010D000002277656E30223A20007D5D2C007B2255
:1010E00074223A20007D2C007B22746865726D6F3B
:1010F00073223A5B006163636573732D636F6E7473
:10110000726F6C2D616C6C6F772D6F726967696E91
:101110003A202A0A006163636573732D636F6E74EE
:10112000726F6C2D616C6C6F772D6F726967696E71
:101130003A202A0A006163636573732D636F6E74CE
:10114000726F6C2D616C6C6F772D6F726967696E51
:101150003A202A0A002F6D6F64756C61636A610022
:101160006163636573732D636F6E74726F6C2D6151
:101170006C6C6F772D6F726967696E3A202A0A006E
:101180002F683464006163636573732D636F6E74DD
:10119000726F6C2D616C6C6F772D6F726967696E01
:1011A0003A202A0A00227D00302E312E302E383986
:1011B000002C22766572223A22007B2274696D65CA
:1011C000223A006163636573732D636F6E74726F8F
:1011D0006C2D616C6C6F772D6F726967696E3A2048
:1011E0002A0A002020000000000000FF0700000085
:1011F000000000050520200000000004FF04FF049B
:1012000001FF0108FF0607FF05000001200401049B
:101210000120040806022003070204052000000044
:1012200000000008010304000000000102040500A2
:10123000000000010404010401010404FF0401FF93
:10124000010000200500000000000004040420202C
:101250002000002004000000000000202004010401
:10126000012020080102030405000001022004FF00
:10127000040000060602FF0707000001060204073B
:101280000500000304FF2020FF0000FF06060707FB
:1012900005000008060603070500000101022008FA
:1012A00020000008060203070500000806020707E1
:1012B000050000A5A50000000000000405000000D6
:1012C00000000020040101010400000404040101E5
:1012D00001000001042004010100000106022007B2
:1012E0002000000806020304040000080602FF2094
:1012F000FF0000FF0605FF070200000801010304CC
:10130000040000FF0102FF04050000FF0606FF07BE
:10131000070000FF0606FF2020000008010103046B
:10132000020000FF04FFFF20FF000001FF0104FF97
:101330000400002020FF0404050000FF0405FF2036
:10134000020000FF2020FF0404000008030502FF44
:101350002020FFFF0220FFFF2003FF0801020304FB
:10136000050000080602FF202000000801022003FB
:1013700004FF04FF0602FF2002000008060607071C
:1013800005000001FF0120FF200000FF20FF0304F3
:101390000500000320200520020820FF2020FF0375
:1013A000080205030405082002000003040520FFCD
:1013B0002000000106050807040000FF01FF0400EB
:1013C000000000010420202020010401FF04FF0090
:1013D000000000080220200000000020202004045B
:1013E0000400002020202020202020202020202554
:1013F00033642525005A41534F424E494B3A202031
:101400002020202020005A41534F424E494B3A2081
:1014100050454C4E4520555A5550454C4E49454E29
:1014200049450054525942205245435A4E593A2098
:101430002020200054523A205245435A4E593A2017
:10144000256400202020202020202020202020256E
:101450003364252500444D5543484157413A2020E7
:1014600020202020200054523A20444D554348412A
:101470005741204D4F433A20256400504F44414A84
:101480004E494B3A202020202020200054523A2060
:10149000504F44414A4E494B3A202564005A415727
:1014A0002E3444205A414D594B414A3A200054525F
:1014B0003A205A3444205A414D3A202564005A417A
:1014C000572E3444204F5457494552414A3A00540C
:1014D000523A205A3444204F54573A202564005041
:1014E0004F4D5041204359524B554C3A202020003B
:1014F00054523A2050204359524B3A202564005010
:101500004F4D504120435755323A20202020200093
:1015100054523A205020435755323A202564005007
:101520004F4D504120435755313A20202020200074
:1015300054523A205020435755313A2025640050E8
:101540004F4D504120434F3A2020202020202000A2
:1015500054523A205020434F3A2025640054383AE0
:10156000253032642E2564202020202020202020B9
:101570000054373A253032642E2564202020202064
:10158000202020200054363A253032642E25642055
:1015900020202020202020200054353A253032649D
:1015A0002E25642020202020202020200054343AA2
:1015B000253032642E256420202020202020202069
:1015C0000054333A253032642E2564202020202018
:1015D000202020200054323A253032642E25642009
:1015E00020202020202020200054313A2530326451
:1015F0002E25642020202020202020200053504130
:101600004C3A253033642E256420202020202000F1
:10161000504F444C3A253032642E2564202020203F
:10162000202020005745573A253032642E2564206B
:1016300020202020202020005A45573A252B3032E8
:10164000642E25642020202020202000504F575257
:101650003A253032642E25642020202020202000CE
:10166000504F57523A253032642E2564205A3A257D
:101670003032642E256400434F3A253032642E25E3
:101680006420202020202020202000434F3A2530B5
:1016900032642E2564205A34443A253032642E2593
:1016A000640050525A4550414C4F4E592042455AC1
:1016B000502E002020202020414C41524D2020203F
:1016C000202020004E49534B49205354414E205A6C
:1016D00041534F42002020202020414C41524D20B8
:1016E00020202020200054454D502E4D414B532E9C
:1016F000504F44414A2E002020202020414C41528E
:101700004D2020202020200054454D502E204D41BA
:101710004B532E5049454341002020202020414C6E
:1017200041524D2020202020200020202020204138
:101730004C41524D4F5720202020002020202020B7
:10174000204252414B20202020202000414C4D3A85
:1017500020534B41534F57414E4F2050525A455002
:10176000414C4F4E592042455A504945435A4E49E3
:101770004B00414C4D3A20534B41534F57414E4F34
:1017800020504F44414A4E494B205354414E204D26
:10179000494E00414C4D3A20534B41534F57414E17
:1017A0004F20504F44414A4E494B20544D41580020
:1017B000414C4D3A20534B41534F57414E4F2050CF
:1017C00049454320544D415800414C4D3A204E4923
:1017D0004320444F20534B41534F57414E49410002
:1017E000202020202020434F3A00414C41524D20E0
:1017F000434F3A00253032643A2530326420434F5B
:101800003A004357553A253032642E2564200000B3
:10181000000A0B02090C0D0E08070304010000006A
:1018200000000000000000000000000000000000B8
:101830000000000000000000000000121110000075
:101840000000000000000000000000000000000098
:101850000000000000436F6E74656E742D54797043
:10186000653A200048544D2A746578742F68746D69
:101870006C7C5458542A746578742F706C61696E4E
:101880007C4353532A746578742F6373737C584D6B
:101890004C2A746578742F786D6C7C4A532A746571
:1018A00078742F6A6176617363726970747C4749DA
:1018B000462A696D6167652F6769667C4A50472AC9
:1018C000696D6167652F6A7065677C504E472A694C
:1018D0006D6167652F706E677C49434F2A696D6142
:1018E00067652F766E642E6D6963726F736F6674B1
:1018F0002E69636F6E7C4D50332A617564696F2F5A
:101900006D7065677C000505050507050808080872
:10191000020202020A0A0808040404040101010187
:101920000101010103030303030303030407070782
:101930000C0C0C0C0C0C0C0C020202020606060627
:10194000060606060B0B0B0B0B0B0B0B01021020F4
:1019500020080810204010204080020102010804E5
:101960000201010204081020408080402010080479
:1019700002018004020180402010080402010804D2
:101980000201010204081020408001020408102016
:101990004080000020002300260029002C002F009A
:1019A000320000010000030106010901303230312C
:1019B0003030303630303030303030303631303317
:1019C0000000316253C4F5A697B988DBEA7D4C1F4D
:1019D0002E4372211087B6E5D4FACB98A93E0F5C4E
:1019E0006D86B7E4D5427320113F0E5D6CFBCA993A
:1019F000A8C5F4A796013063527C4D1E2FB889DA32
:101A0000EB3D0C5F6EF9C89BAA84B5E6D740712206
:101A1000137E4F1C2DBA8BD8E9C7F6A5940332610B
:101A200050BB8AD9E87F4E1D2C02336051C6F7A403
:101A300095F8C99AAB3C0D5E6F4170231285B4E7EF
:101A4000D67A4B1829BE8FDCEDC3F2A1900736651C
:101A50005439085B6AFDCC9FAE80B1E2D344752651
:101A600017FCCD9EAF38095A6B4574271681B0E339
:101A7000D2BF8EDDEC7B4A192806376455C2F3A02D
:101A8000914776251483B2E1D0FECF9CAD3A0B5836
:101A90006904356657C0F1A293BD8CDFEE79481B0F
:101AA0002AC1F0A3920534675678491A2BBC8DDE03
:101AB000EF82B3E0D1467724153B0A5968FFCE9DEB
:101AC000AC44454C455445004F5054494F4E53008B
:101AD00050555400504F53540047455400000021C6
:101AE00000240027002A002D0030003300010100EF
:101AF00000040107010A0100002200250028002B34
:101B0000002E003100340002010000050108010B25
:101B1000015757573A206272616B20706C696B7580
:101B20003A20005757573A204F64637A79742070EF
:101B30006C696B753A006163636573732D636F6ED7
:101B400074726F6C2D616C6C6F772D6F7269676941
:101B50006E3A202A0A005757573A20426C61642097
:101B6000706172736F77616E69612055524C00200D
:101B700062616A746F772900206D7320286F646535
:101B80006272616E6F20002062616A746F772077E5
:101B900020005757573A205A61706973616E6F2061
:101BA000005757573A205A61706973756A652070FB
:101BB0006C696B3A0000A58EA18E11241FBECFEF79
:101BC000D1E2DEBFCDBF00E00CBF15E0A0E0B2E087
:101BD000E6E5FBE301E00BBF02C007900D92A03DDC
:101BE000B107D9F721E1A0EDB5E001C01D92AA31FE
:101BF000B207E1F71DE0CCEDDDE000E006C0219783
:101C00000109802FFE010E944F95CB3DD10780E056
:101C10000807A9F70E94F07B0C94999D0C94000092
:101C20002F923F924F925F926F927F928F929F92EC
:101C3000AF92BF92CF92DF92EF92FF920F931F93DA
:101C4000CF93DF93CDB7DEB76A970FB6F894DEBFB8
:101C50000FBECDBFA8950E94FC77609307097093D3
:101C600008098093090990930A09809107099091C6
:101C70000809A0910909B0910A098093030990937A
:101C80000409A0930509B093060980910709909172
:101C90000809A0910909B0910A098093FF0890935F
:101CA0000009A0930109B09302090E94FC770091FA
:101CB000FF08109100092091010930910209DC010F
:101CC000CB01801B910BA20BB30B8093FF08909369
:101CD0000009A0930109B093020980910B078823A2
:101CE00069F08091FF0890910009A0910109B091DD
:101CF00002090397A105B1050CF00EC70E94FC77FD
:101D00006093FF0870930009809301099093020982
:101D10008091120290911302009799F40E94FC772F
:101D20006093A9087093AA088093AB089093AC08BD
:101D300010923908109238081092A80881E090E0BB
:101D40001DC00197F9F40E94FC770091A908109139
:101D5000AA082091AB083091AC08DC01CB01801BB4
:101D6000910BA20BB30B85369105A105B10550F07F
:101D7000109239081092380882E090E09093130294
:101D80008093120280911202909113028230910589
:101D900009F05EC00091D80E1091D90EC8010E94C2
:101DA00028999091A60820E0E091A50861E0281705
:101DB00040F5F801E20FF11D949131E0320FF80186
:101DC000E30FF11D2E5FE491A62FB0E0913410F0E7
:101DD00039EC01C030ED390FE13410F079EC01C07D
:101DE00070ED7E0FF0E13F9FA0011124472BEE2400
:101DF000E394F12CEC0EFD1EAE0DBF1D4C936F5FF6
:101E0000D6CF9093A6082093A708E093A508182F93
:101E10001695198381E080931102809111021817A1
:101E200080F091E0980F90931102E1E0F0E0EC0F68
:101E3000FD1FE80FF11D608182E39CE00E94B46CFD
:101E4000ECCF109239081092380883E090E013C06C
:101E500083309105D1F582E39CE00E94756C892B5B
:101E600079F0109211021092A40810923908109281
:101E7000380884E090E09093130280931202D8C057
:101E80008091380890913908019690933908809391
:101E900038088139914008F4CBC01092390810926B
:101EA00038088091A8088F5F8093A80822E030E06E
:101EB0003093130220931202863008F4B9C081E0F7
:101EC0008093F10880932D02B3C08430910509F00E
:101ED00051C082E39CE00E94756C18161906BCF490
:101EE00082E39CE00E94756C181619069CF510910F
:101EF000110281E0810F8093110282E39CE00E9435
:101F0000536CE12FF0E0E05CF74F8083E9CF8091E4
:101F100038089091390801969093390880933808D1
:101F200081399140B8F0109239081092380882E057
:101F300090E090931302809312028091A8088F5F23
:101F40008093A808863030F082E08093F10881E029
:101F500080932D0280911102863508F469C0809328
:101F6000A40810921102109239081092380887E0E4
:101F700090E081CF079709F05BC08091A408863577
:101F8000B1F580914008823019F064E974E02BC00B
:101F900080919508833021F421E438E0E0E003C02B
:101FA0006BE874E020C0B8E024393B07A1F0D90108
:101FB0008D919D018E27E091DC0EF091DD0EE80FF2
:101FC000F11DE4918E2F90E0A0E0B0E089839A8328
:101FD000AB83BC83E8CF809194088E1711F40C94E6
:101FE0000F2462E874E08FE49DE00E94707080919D
:101FF00038089091390801969093390880933808F1
:102000008139914088F010923908109238088091F7
:10201000A8088F5F8093A808863030F084E0809312
:10202000F10881E080932D021092130210921202A7
:102030000E94FC770091FF0810910009209101098E
:1020400030910209DC01CB01801B910BA20BB30B79
:102050008093FF0890930009A0930109B0930209AF
:1020600080910B07882369F08091FF089091000907
:10207000A0910109B09102090397A105B1050CF0E7
:102080005CC50E94FC776093FF0870930009809301
:102090000109909302098091B006882309F4DEC0FB
:1020A000D090AD08D11007C088E08093A0070E94AF
:1020B000243881E0C9C08091A0078111C7C0DA949B
:1020C000ED2CF12CFEE0DF9E80011124282F30E062
:1020D000D901A154B94F200F311FF901E053FA4F34
:1020E00090819C938F5F883089F78093C7060E9408
:1020F000D937882309F487C08091BF06823241F026
:10210000883231F0803121F481E08093BE0602C034
:102110001092BE068091B20690E0982F88272091F9
:10212000B106822B2091BE06222399F053E0880F3E
:10213000991F5A95E1F72091B8062031F9F44091A2
:10214000B7062CE030E0241B3109807F820F931FFB
:1021500015C02091B506207631F443E0880F991F11
:102160004A95E1F70BC0203229F4880F991F880F98
:10217000991F04C0203411F4880F991F2AE0289F6A
:102180008001299F100D112417FF02C0015F1F4F0E
:1021900084E0159507958A95E1F78EE08E9DF00114
:1021A0008F9DF00D1124E053FA4F808581111DC0E1
:1021B0008091B9061F928F931F930F931F921F92C6
:1021C0001F92DF9282EB94E09F938F938FE49DE0C8
:1021D0009F938F930E9492398FE49DE00E94D96F64
:1021E0000FB6F894DEBF0FBECDBF8EE08E9DF0011E
:1021F0008F9DF00D1124E053FA4F028713878091D1
:10220000BD0680871EC0F801E053FA4F1086818515
:102210008F5F81871F921F92FF92EF928DE994E06A
:102220009F938F938FE49DE09F938F930E949239A9
:102230008FE49DE00E94D96F0FB6F894DEBF0FBE09
:10224000CDBF8091AD088F5F8093AD089091AD08B0
:102250008091B006891710F41092AD080E94FC77A7
:102260000091FF08109100092091010930910209A5
:10227000DC01CB01801B910BA20BB30B8093FF08F9
:1022800090930009A0930109B093020980910B0774
:10229000882369F08091FF0890910009A0910109BD
:1022A000B09102090297A105B1050CF057C40E9434
:1022B000FC776093FF087093000980930109909365
:1022C00002098091A207882309F424C18091A10703
:1022D000811120C185E08093A1078091800F60E08B
:1022E000882319F180917F0F0E9434778FE99FE056
:1022F0000197F1F700C000008E010B5F1F4FDE0158
:1023000011967D0180E00E94293BF80182938F01A4
:10231000EE15FF05B9F761E080917F0F0E943477D9
:1023200089817A816B819C8148C080917D0F0E9458
:1023300034778FE99FE00197F1F700C0000060E07B
:1023400080917F0F0E943477AFE9BFE01197F1F7DA
:1023500000C0000000E210E0C12CD12C760160E04A
:1023600080917D0F0E943477EFE9FFE03197F1F71C
:1023700000C00000CC0CDD1CEE1CFF1C80917E0F09
:102380000E946771892B11F06894C0F861E0809118
:102390007D0F0E9434778FE99FE00197F1F700C02D
:1023A000000001501109D9F661E080917F0F0E9471
:1023B00034778C2D7D2D6E2D9F2D082F172F262FD6
:1023C000392F6801790197E0C922DD24EE24FF242A
:1023D000CD28CE28CF2819F087708093810FA901CE
:1023E0009801F2E15595479537952795FA95D1F7DC
:1023F000AAE0B0E00E94589D6B017C01A2E0F69437
:10240000E794D794C794AA95D1F7C092A707D09222
:10241000A807E092A907F092AA0746010D2C000C2C
:10242000AA08BB081091BC082091B8083091B908DF
:102430004091BA085091BB08A12FB0E00E94589D6E
:10244000680D791D8A1D9B1D9D012F5F3F4F032E37
:10245000000C440B550B0E94689D2093B8083093E4
:10246000B9084093BA085093BB0881E0810F80936C
:10247000BC0887FF03C08FE78093BC08C901330FF6
:10248000AA0BBB0B8093A3079093A407A093A50767
:10249000B093A6078091B008811107C0D092AF0811
:1024A000C092AE0881E08093B008A091AE08B091D0
:1024B000AF0823EF31E00E945E95DC01CB01880D6F
:1024C000991DAA1DBB1DBC01CD01660F771F881F7A
:1024D000991F28EE33E040E050E00E94689D309361
:1024E000AF082093AE08A3E3CA16D104E104F104B7
:1024F00048F01092BD081092BE081092BF081092CA
:10250000C00808C0C092BD08D092BE08E092BF08C3
:10251000F092C0080E94FC770091FF08109100091A
:102520002091010930910209DC01CB01801B910B44
:10253000A20BB30B8093FF0890930009A0930109AD
:10254000B093020980910B07882369F08091FF08FE
:1025500090910009A0910109B09102090297A1058B
:10256000B1050CF00CC30E94FC776093FF087093D8
:10257000000980930109909302090E94FC77009161
:10258000FF08109100092091010930910209DC0136
:10259000CB01801B910BA20BB30B8093FF08909390
:1025A0000009A0930109B093020980910B078823C9
:1025B00069F08091FF0890910009A0910109B09104
:1025C00002090297A105B1050CF0EAC20E94FC774E
:1025D0006093FF08709300098093010990930209AA
:1025E0002090C1083090C2084090C3085090C408A1
:1025F0006090C5087090C6081091C7080091C8087F
:10260000F090C908E090CA08D090CB08C090CC08E0
:10261000B090CD08A090CE089090CF088090D008C0
:10262000B091B006BD8B2091A7073091A8074091CB
:10263000A3075091A4076091BD087091BE08E7ED13
:10264000FBE08AED9BE09A8F898F898D9A8D0197A7
:10265000DC018C91823059F5A98DBA8D8C9188233B
:1026600081F0813089F0823091F0833099F08430AC
:1026700099F0853099F0863099F0873099F4C4014B
:1026800013C0922D832D10C0942D852D0DC0962D35
:10269000872D0AC0C80108C0C70106C0C60104C012
:1026A000C50102C099E18CEF908381832FC08330F4
:1026B000B9F4A98DBA8D8C91BD898B1760F4AEE009
:1026C000A89FC001112480539A4FDC011A968D9166
:1026D0009C911B9702C08AE19CEF9183808316C076
:1026E000843081F4A98DBA8D8C91813019F43183B5
:1026F00020830CC0811103C05183408307C07183C4
:10270000608304C0813011F0118210823596898D6A
:102710009A8D05969A8F898F9CE0E732F90709F028
:1027200094CF0E94FC770091FF081091000920913E
:10273000010930910209DC01CB01801B910BA20B36
:10274000B30B8093FF0890930009A0930109B09305
:10275000020980910B07882369F08091FF0890910E
:102760000009A0910109B09102090397A105B105E3
:102770000CF027C20E94FC776093FF087093000959
:1027800080930109909302090E94FC770091FF0851
:10279000109100092091010930910209DC01CB015F
:1027A000801B910BA20BB30B8093FF089093000941
:1027B000A0930109B093020980910B07882369F067
:1027C0008091FF0890910009A0910109B091020940
:1027D0000397A105B1050CF005C20E94FC77609338
:1027E000FF0870930009809301099093020980917A
:1027F000CC0B8093F0088091ED06811164C080912C
:10280000EC06813069F480912D028111FCC1809128
:10281000D7088093CB0B8091D5088093CC0B53C005
:102820008091EC06823029F08091EC06833009F02B
:10283000EAC18091D90B882309F464C24091D70B77
:102840005091D80B8091EE06AAE08A9FC001112416
:1028500021E0481759070CF420E08091EE063091F2
:10286000EF06BAE08B9FC0011124831B9109481722
:1028700059070CF4CDC180E0109118021111CAC1A2
:102880000091E108002311F40C94C524222309F4DB
:10289000C4C100E08091DF089091E008009709F042
:1028A0007BC28091140290911502A0911602B09102
:1028B0001702892B8A2B8B2B09F426C211E0109367
:1028C00018020093E1080E94FC770091FF08109124
:1028D00000092091010930910209DC01CB01801B24
:1028E000910BA20BB30B8093FF0890930009A09368
:1028F0000109B093020980910B07882369F0809148
:10290000FF0890910009A0910109B0910209039775
:10291000A105B1050CF08BC20E94FC776093FF0803
:102920007093000980930109909302090091D30BE1
:102930002091E5063091E6064091E7065091E806C1
:10294000C090E106D090E206E090E306F090E40645
:102950001091EB06A4E6B0E00E94589DA7019601F5
:102960000E94689D812F90E0A0E0B0E02817390711
:102970004A075B0788F48091D30B9091D40BA09108
:10298000D50BB091D60B88608093D30B9093D40B6A
:10299000A093D50BB093D60B8091ED0681113BC06F
:1029A00001FB222720F901FD30C08091E30B882331
:1029B00061F18091E0063AE0839FC00111244091CB
:1029C000E10B5091E20B84179507FCF44091DF0670
:1029D00028E532E0429FC001439F900D112490935F
:1029E000CA0B8093C90B8091D30B9091D40BA0910B
:1029F000D50BB091D60B82608093D30B9093D40B00
:102A0000A093D50BB093D60B2CC28091D30B82FF31
:102A10001FC21092CC0B80911607882349F0809139
:102A2000F008882329F08091CC0B882309F42CC26C
:102A30000E94FC770091FF08109100092091010984
:102A400030910209DC01CB01801B910BA20BB30B6F
:102A50008093FF0890930009A0930109B0930209A5
:102A600080910B07882369F08091FF0890910009FD
:102A7000A0910109B09102090397A105B1050CF0DD
:102A800006C20E94FC776093FF0870930009809350
:102A90000109909302098091EC06813039F480910C
:102AA000B3074AE0849FC00111240AC08091EC065C
:102AB000833071F48091EE065AE0859FC0011124A5
:102AC00011E02091D70B3091D80B2817390708F067
:102AD00010E08091CB0B90E09093B2078093B10708
:102AE0002091ED062111E4C12091E808222339F05C
:102AF0002091CE0620FF02C00C94E91F06C0209151
:102B0000CE0621FF02C00C94E91F2091EC06233071
:102B100009F0CEC10C94E91F6BEB77E08FE49DE0E8
:102B20000E944C706091FF0870910009809101092A
:102B3000909102090E94E64EE1C866EB77E08FE4CF
:102B40009DE00E944C706091FF0870910009809197
:102B50000109909102090E94E64E93CA60EB77E06A
:102B60008FE49DE00E944C706091FF087091000915
:102B700080910109909102090E94E64E98CB6BEA80
:102B800077E08FE49DE00E944C706091FF087091A7
:102B9000000980910109909102090E94E64EE3CC60
:102BA00066EA77E08FE49DE00E944C706091FF0838
:102BB0007091000980910109909102090E94E64EEE
:102BC00005CD61EA77E08FE49DE00E944C70609152
:102BD000FF087091000980910109909102090E94FB
:102BE000E64EC8CD6CE977E08FE49DE00E944C7022
:102BF0006091FF087091000980910109909102098C
:102C00000E94E64EEACD1092CB0B1092CC0B5BCE1D
:102C100081E032CE811103C033CE11113BCE8091C1
:102C2000DF089091E008009709F05AC06AED74E05F
:102C30008FE49DE00E94707080910A078093CB0B17
:102C4000809108079091D30B91FD0BC0FAE08F9F04
:102C5000C00111249093CA0B8093C90B81E080932B
:102C6000CC0B2091080780910907422F50E060E0CB
:102C700070E09A01AB01280F311D411D511DAAE0E2
:102C8000B0E00E94589D60931402709315028093E7
:102C90001602909317020E94FC776093DB087093F2
:102CA000DC088093DD089093DE086091C90B709179
:102CB000CA0B8FE49DE00E94F04B409114025091AA
:102CC000150260911602709117028FE49DE00E9438
:102CD000374C81E090E09093E0088093DF080FC0CC
:102CE000019769F48091140290911502A091160247
:102CF000B0911702892B8A2B8B2B09F479C001E044
:102D000010E0DDCD20E0B7CD64EE74E08FE49DE00F
:102D10000E947070809107078093CB0B809105070C
:102D20009091D30B91FD0BC0EAE08E9FC00111245E
:102D30009093CA0B8093C90B81E08093CC0B2091B8
:102D4000050780910607422F50E060E070E09A018D
:102D5000AB01280F311D411D511DAAE0B0E00E94BA
:102D6000589D6093140270931502809316029093FD
:102D70001702409114025091150260911602709151
:102D800017028FE49DE00E94374C81E090E0909321
:102D9000E0088093DF0892CD019709F08FCD8091F4
:102DA000140290911502A0911602B0911702892B7E
:102DB0008A2B8B2B09F082CD6FED74E08FE49DE0C0
:102DC0000E9470702091040730E0A8E5B2E00E94F4
:102DD0008A9D60931402709315028093160290935B
:102DE00017021092CB0B1092E0081092DF0866CD0C
:102DF00065ED74E08FE49DE00E9470700E94FC77A6
:102E00000091DB081091DC082091DD083091DE088C
:102E1000AB01BC01401B510B620B730B8FE49DE0B7
:102E20000E94374C1092E0081092DF0868CF67E9E3
:102E300077E08FE49DE00E944C706091FF087091F4
:102E4000000980910109909102090E94E64E64CD2B
:102E5000222359F08091C90B9091CA0B892B09F458
:102E6000D8CD81E08093CC0BD6CD8091EC0681301B
:102E700089F79091CC0B992369F32091C90B30917C
:102E8000CA0B232B79F3E6CF0E948C35D1CD62E9B2
:102E900077E08FE49DE00E944C706091FF08709194
:102EA000000980910109909102090E94E64EE9CD46
:102EB000892B39F083E090E09093E5088093E40853
:102EC00004C01092E5081092E4088091B107909137
:102ED000B207009751F02091CC06820F911D27FD7B
:102EE0009A959093B2078093B1078091B107909122
:102EF000B20797FF04C01092B2071092B1078091F9
:102F0000B1079091B2078536910534F084E690E0E0
:102F10009093B2078093B1078091D30B81FF02C0D9
:102F20000C944D218091D30B82FF02C00C944D2153
:102F30008091B1079091B2070E947B348091B107D4
:102F40000E94D8718091B1079091B20718161906A6
:102F500024F4809102018F7D03C080910201806280
:102F6000809302018091CB0B90E09093E7088093CF
:102F7000E6080E94FC770091FF081091000920915B
:102F8000010930910209DC01CB01801B910BA20BDE
:102F9000B30B8093FF0890930009A0930109B093AD
:102FA000020980910B07882371F08091FF089091AE
:102FB0000009A0910109B09102090397A105B1058B
:102FC00014F00C9453210E94FC776093FF087093D7
:102FD000000980930109909302098091D90B8823FD
:102FE00011F40C9465214091D70B5091D80B20918E
:102FF000F1066AE0269F9001112491E0241735071D
:103000000CF090E02091F006AAE02A9F9001112494
:103010002417350714F00C9466218091D30B9091FE
:10302000D40BA091D50BB091D60B84608093D30BB9
:103030009093D40BA093D50BB093D60B81E08093E3
:10304000D20B8093D10B8093D00B0E94FC77009120
:10305000FF08109100092091010930910209DC015B
:10306000CB01801B910BA20BB30B8093FF089093B5
:103070000009A0930109B093020980910B078823EE
:1030800071F08091FF0890910009A0910109B09121
:1030900002090397A105B10514F00C94B92280919F
:1030A0002D02882329F080912C02882309F4CEC1B7
:1030B0000E94FC776093FF087093000980930109D8
:1030C000909302098091D30B82FF06C081E0809328
:1030D000CE0B1092CD0B90C18091240290912502CD
:1030E0008230910509F06AC18091BF078823B1F051
:1030F00081E08093CD0B80912202909123029093E6
:10310000BE078093BD0781E090E0909325028093F5
:1031100024021092ED081092EC086EC18091000715
:103120008F3F09F469C1E091000725E0E202F00158
:103130001124E952F44F8281882309F45DC1809102
:10314000D90B882309F458C18091BB079091BC0723
:103150008230910529F42091E80B222309F44CC117
:103160002091D20B222309F447C14091D70B5091F3
:10317000D80B20913402309135022417350708F01E
:103180003BC10091BD071091BE070115110509F063
:1031900033C1029709F078C0A090E60BB090E70B1E
:1031A000C09019023AE0C39E600111245FEB852EA6
:1031B00052E0952EC5010B2C000CAA0BBB0B8D8B7E
:1031C0009E8BAF8BB88FD4018D914D010F5F1F4F38
:1031D000BAE08B0220011124A414B5040CF441C000
:1031E000D401EC91BAE0EB02F0011124EA15FB05E1
:1031F000C4F1D801A75EBD4F6C911197CC902AE025
:10320000C29E600111240D2C000CEE08FF08052C55
:10321000000C660877082D893E894F89588D24193E
:103220003509460957098AE0689FB0011124CB018E
:10323000770FAA0BBB0BBC01CD016C197D098E0960
:103240009F090E940C959F01FF0F440B550B2419F9
:103250003509460957090E943C9DC20ED31EE41E43
:10326000F51E0530110509F0AECF97E9A916B10496
:1032700034F0C0901E02AAE0CA9E60011124D092D0
:103280003502C09234020AC080910307BAE08B9FD6
:10329000C001112490933502809334027E9904C0BA
:1032A00081E08093BA0711C01092BA0720910107FC
:1032B0008091340290913502EAE02E9F80199109A5
:1032C0001124909335028093340280910B07882358
:1032D00069F08091BA07882319F062EC75E002C0AA
:1032E00060EB75E08FE49DE00E947070E091000754
:1032F00025E0E202F0011124E952F44F008111812E
:1033000020913402309135027901E01AF10AC701A7
:10331000F7FE04C0882799278E199F09409102075C
:1033200050E0841795070CF43EC02017310720F4B5
:1033300021E02093CD0B06C00217130748F521E0CA
:103340002093CE0B20911F0230E03093BE072093D4
:10335000BD0721E030E030932502209324028A301B
:103360009105B4F42091BD073091BE07369527959D
:103370003093BE072093BD07059754F48091BD0795
:103380009091BE07969587959093BE078093BD0751
:1033900080910B0781110C94CB228091F708811149
:1033A0000C94CB2229C080910B0781110C94092326
:1033B0008091F70881110C94092310C00197E1F462
:1033C0008091BD079091BE07892BB1F41092CE0B6E
:1033D0001092CD0B8091BF0781110EC08091200209
:1033E000909121029093BE078093BD0782E090E008
:1033F00090932502809324020E94FC770091FF089D
:10340000109100092091010930910209DC01CB01E2
:10341000801B910BA20BB30B8093FF0890930009C4
:10342000A0930109B093020980910B07882371F0E2
:103430008091FF0890910009A0910109B0910209C3
:103440000397A105B10514F00C943623E0910E0703
:10345000F0910F07F894248135818085823021F422
:10346000C9018170992705C0843031F4C901837086
:1034700099279583848302C015821482789480856D
:10348000843029F4359527953595279504C08230E9
:1034900011F4359527958685882329F081859285B5
:1034A000892F992702C080E090E037FF03C0809504
:1034B000909506C0232B11F0019602C080E090E0A9
:1034C0008093270C2091FD083091FE08A901480F38
:1034D000511D87FD5A955093FE084093FD08209199
:1034E000FB083091FC084217530781F15093FC0808
:1034F0004093FB0861E174E08FE49DE00E944A7014
:103500006091FD087091FE088FE49DE00E941B4CC5
:1035100067E174E08FE49DE00E944A706091280C9E
:10352000062E000C770B8FE49DE00E941B4C6FE190
:1035300074E08FE49DE00E944A706091270C062E93
:10354000000C770B8FE49DE00E94064C8091290CC3
:103550008093FA08E0910E07F0910F078385948518
:10356000238534852330310511F014861386982F76
:103570008093290C8091F9088823F1F19923E1F1D6
:1035800064E274E08FE49DE00E944A708091290C0F
:10359000843081F038F4823051F0833069F563E48F
:1035A00074E026C0853049F0863051F025C06DE2C8
:1035B00074E01EC066E574E01BC06DE674E018C0E0
:1035C00063E874E08FE49DE00E94DD6F6FE974E0D2
:1035D0008FE49DE00E944A70E0910E07F0910F0782
:1035E0008685811103C068E074E002C060E074E089
:1035F0008FE49DE00E94DD6F80912107882309F40C
:103600004AC00E94FC776093FF0870930009809382
:1036100001099093020980912107882391F08091FC
:103620003602882311F40C9448238091270C8111D1
:103630000C9448239091FA088091290C98130C94CB
:1036400048230E94FC770091FF0810910009209107
:10365000010930910209DC01CB01801B910BA20B07
:10366000B30B8093FF0890930009A0930109B093D6
:10367000020980910B07882371F08091FF089091D7
:103680000009A0910109B09102090397A105B105B4
:1036900014F00C944C231092C0078091D30B90919E
:1036A000D40BA091D50BB091D60B892B8A2B8B2BE9
:1036B00031F08091D30B87FD02C00C945E23469AB3
:1036C0008091CC0B811105C0129A809108018B7FEB
:1036D00004C0129880910801846080930801809151
:1036E000D20B811105C0139A809108018D7F04C00F
:1036F0001398809108018260809308018091D10B1A
:10370000811105C0149A809108018F7704C0149824
:10371000809108018068809308018091D00B81110D
:1037200005C0159A809108018F7B04C0159880917F
:1037300008018064809308018091CF0B811105C03E
:10374000169A809108018E7F04C016988091080116
:103750008160809308018091CD0B811105C0179A7B
:10376000809108018F7E04C01798809108018061C4
:10377000809308018091CE0B811105C0479A8091FA
:103780000801877F04C04798809108018860809372
:103790000801809115078823C9F1809112078111D2
:1037A00035C00E94FC776093FF08709300098093F6
:1037B0000109909302090E945F920E94FC77009198
:1037C000FF08109100092091010930910209DC01E4
:1037D000CB01801B910BA20BB30B8093FF0890933E
:1037E0000009A0930109B093020980910B07882377
:1037F00069F08091FF0890910009A0910109B091B2
:1038000002090397A105B1050CF05FC780913A0842
:103810008823D9F063E777E08FE49DE00E944C7045
:103820009EE088E10FB6F894A895809360000FBEE3
:10383000909360008EE290E00E94A04D68EC70E0F2
:1038400080E090E00E94C477F5CF8FE49DE00E9475
:10385000756C892B09F471C18FE49DE00E94536C53
:103860009091F808833769F19923E9F18A3011F0D2
:103870000C94D2246DE677E08FE49DE00E944C70BA
:1038800087E79FE00E9437726BE677E08FE49DE068
:103890000E94707067E77FE0CE0101960E941F6F63
:1038A000CE0101960E943625CE0101960E94E46E5B
:1038B0006EE275E087E79FE00E94CF6E1092F808F5
:1038C0003CC1992331F0682F87E79FE00E94806E0A
:1038D00034C181E08093F8086EE275E087E79FE0ED
:1038E0000E94CF6E2AC1823521F481E080933A088C
:1038F00024C1863541F490910B0781E0911180E05D
:1039000080930B071AC1813339F49091F70881E055
:1039100089278093F70811C1823339F49091F9080F
:1039200081E089278093F90808C1833339F49091A5
:10393000F60881E089278093F608FFC0843339F4C4
:103940009091F50881E089278093F508F6C08533CA
:1039500041F46091F40881E068276093F40870E016
:103960001DC0863339F49091F30881E08927809354
:10397000F308E3C0873339F49091F20881E0892796
:103980008093F208DAC0863671F460E677E08FE45F
:103990009DE00E944C700E94C23ABC018FE49DE001
:1039A0000E94064CCAC0813249F41092D30B109287
:1039B000D40B1092D50B1092D60BBFC0843619F4DD
:1039C0000E942E38BAC08136D9F58091D30B9091E0
:1039D000D40BA091D50BB091D60B892B8A2B8B2BB6
:1039E00031F466E577E08FE49DE00E94707080918D
:1039F000D30B82FF06C067E477E08FE49DE00E946E
:103A000070708091D30B81FF06C064E377E08FE490
:103A10009DE00E9470708091D30B83FF06C06DE122
:103A200077E08FE49DE00E9470708091D30B87FF58
:103A300084C061E077E08FE49DE00E9470707DC0FB
:103A4000883609F07AC062EE75E08FE49DE00E944E
:103A5000707000E010E0FCE08F2E6BED75E08FE4FD
:103A60009DE00E944C7038010F5F1F4FB8018FE43A
:103A70009DE00E941B4CFF24F394A12CB12C869C4A
:103A80006001879CD00C112499249A949F0C8F2D4F
:103A900081958770E82E892D8370D1F460E28FE4E0
:103AA0009DE00E94007059E05B1528F060E28FE411
:103AB0009DE00E9400704AE050E06B2D8FE49DE095
:103AC0000E94FA6F60E28FE49DE00E940070B39460
:103AD000F601EA0DF11DEF53F84F808190E00E2CB6
:103AE00002C0959587950A94E2F780FF02C063E2D1
:103AF00001C06FE58FE49DE00E9400706FE29612B6
:103B00000EC08FE49DE00E94D96F63ED75E08FE4F5
:103B10009DE00E944C70EE2021F0F394B5CFE110AF
:103B200001C0A39480E6F812F8CF8FE49DE00E94D4
:103B3000D96F0730110509F090CF80910B078823CA
:103B400089F180912D02882369F180912C028111E5
:103B500029C08091F108882329F16CED76E08FE48B
:103B60009DE00E944C704AE050E06091F1088FE4C3
:103B70009DE00E94FA6F64ED76E08FE49DE00E9484
:103B80004C70409138085091390860E070E02AE0AC
:103B90008FE49DE00E94906F8FE49DE00E94D96FBA
:103BA0001092F10880910B078823E9F08091BE0EF6
:103BB0009091BF0EA091C00EB091C10E8C3A96426A
:103BC000A105B10584F46DEA76E08FE49DE00E94E2
:103BD0004C706091BE0E7091BF0E8091C00E90919E
:103BE000C10E0E94E64E80912B028111A6C08091E9
:103BF0001607882309F4A1C088EC80932B0288E67D
:103C00000E94544F60E08CE69EE00E9484440E9433
:103C1000F74E87E090E00E948F718CE69EE00E9454
:103C200039448F77982F92959F701AEFD82E919FD5
:103C3000D00C11248CE69EE00E9439449C0133276D
:103C400094E0359527959A95E1F7E82E129FE00CC0
:103C500011248CE69EE00E94394486FF47C5982FC8
:103C60009F71292F22952F70F92E219FF00C11247E
:103C700085FF02C0FCE0FF0E8CE69EE00E94394406
:103C80008CE69EE00E9439449C01332744E0359540
:103C900027954A95E1F75AEFC52E182FC29E100DB1
:103CA00011248CE69EE00E9439449C01332764E095
:103CB000359527956A95E1F7082FC29E000D1124CE
:103CC0008CE69EE00E9439449C01332774E03595D0
:103CD00027957A95E1F7C29E800D11248093820F7B
:103CE0000093830F1093840FF092850FE092860F5C
:103CF000D092870F80910B078823E9F082E89FE03C
:103D00000E942D461F92EF921F92FF921F928F9357
:103D10008DE996E09F938F938FE49DE09F938F931F
:103D20000E9492398FE49DE00E94D96F0FB6F894FB
:103D3000DEBF0FBECDBF0E941B8A8091370888234B
:103D400009F47AC01092370880912A02811112C0BA
:103D50008091D30B9091D40BA091D50BB091D60B41
:103D600080688093D30B9093D40BA093D50BB09322
:103D7000D60B1CC080912A02873CC0F480912A0295
:103D80001F928F9385E796E09F938F938FE49DE03A
:103D90009F938F930E9492398FE49DE00E94D96F88
:103DA0000F900F900F900F900F900F908091810FB8
:103DB000898390910B07992339F1882329F16BE6C8
:103DC00076E08FE49DE00E944C70898180FF06C000
:103DD00067E676E08FE49DE00E944C70898181FF68
:103DE00006C062E676E08FE49DE00E944C70898117
:103DF00082FF06C06DE576E08FE49DE00E944C7086
:103E00008FE49DE00E94D96F80910B0781117AC4E5
:103E10008091F608811176C48091F508882361F0BD
:103E20006BE276E08FE49DE00E944C7060912A0284
:103E30008FE49DE00E94204C8091F00881118091D8
:103E4000CC0B8091F008811104C08091CC0B8111C2
:103E5000B2C48091210890912208209126023091CD
:103E600027022817390709F45CC090932702809332
:103E700026022091350830913608809128029091D1
:103E800029028217930738F08091350890913608FF
:103E9000892B09F09BC42091350830913608809118
:103EA000EE089091EF082817390740F08091350807
:103EB000909136089093EF088093EE088091F40873
:103EC000882379F16091EE087091EF084091280203
:103ED00050912902209135083091360880912602B0
:103EE00090912702E091CC0B7F936F935F934F9358
:103EF0003F932F939F938F931F92EF938AEF95E0B9
:103F00009F938F938FE49DE09F938F930E949239AC
:103F10008FE49DE00E94D96F0FB6F894DEBF0FBE0C
:103F2000CDBF0E94FC7700910309109104092091F4
:103F3000050930910609DC01CB01801B910BA20B16
:103F4000B30B8093030990930409A0930509B093E0
:103F5000060980910B07811104C08091F308882322
:103F600069F08091030990910409A0910509B0912D
:103F700006090397A105B1050CF031C48091F20840
:103F8000882309F45AC51092F2082091350830911F
:103F9000360880912108909122084091CC0B3F93E4
:103FA0002F939F938F931F924F9384E196E09F935B
:103FB0008F938FE49DE09F938F930E9492398FE4BB
:103FC0009DE00E94D96F0FB6F894DEBF0FBECDBF43
:103FD00034C52091E6083091E708232B79F5892B29
:103FE00069F18091D1069091D206892BD9F0209168
:103FF000D1063091D2064AE0429FC001439F900D06
:1040000011249093B0078093AF0781E090E09093E4
:10401000E5088093E4088091E3088093E20868E370
:1040200075E008C083E090E09093E5088093E40891
:104030006EE275E08FE49DE00E9470708091AF07A2
:104040009091B007892B49F08091B1079091B20708
:104050001816190614F41111B8C08091E408909153
:10406000E508019739F48091AF079091B007892B4B
:1040700009F4B4C08091F00881110BC08091CC0B81
:10408000882339F08091AF079091B007892B09F40C
:10409000B2C08091E4089091E508049739F48091CA
:1040A000AD079091AE07892B09F4C4C08091AD078C
:1040B0009091AE07892B71F08091DD069091DE061C
:1040C0002091B1073091B207820F931F9093B207EE
:1040D0008093B1078091E208882309F462C080913F
:1040E000E6089091E70818161906F4F48091CB0BB6
:1040F00081111AC02091CF063091D0064AE0429F2C
:10410000C001439F900D11249093AC078093AB079F
:1041100085E090E09093E5088093E40867E075E01F
:104120008FE49DE00E9470708091AB079091AC0786
:10413000892B29F08091CB0B882309F488C08091CA
:10414000AB079091AC07892B59F48091E4089091CA
:10415000E508059729F48091CB0B882309F480C0EA
:104160008091E4089091E508069711F00C9465178A
:104170008091CB0B81110C94651711117EC0809139
:10418000DB069091DC06892B09F477C08091DB0671
:104190009091DC069093B2078093B10767EF74E0CB
:1041A00076C08091E4089091E508039711F00C9493
:1041B00065178091CB0B81110C9465171092E5085F
:1041C0001092E40869EE74E062C08091D906909183
:1041D000DA069093B2078093B1073FCF83E090E077
:1041E0009093E5088093E40863E275E08FE49DE036
:1041F0000E9470703FCF2091D5063091D6064AE0DC
:10420000429FC001439F900D11249093AE0780936D
:10421000AD0784E090E09093E5088093E4088091F6
:10422000E3088093E2086AE175E08FE49DE00E9474
:1042300070702FCF83E090E09093E5088093E408BE
:1042400060E175E08FE49DE00E9470702FCF809157
:10425000D7069091D8069093B2078093B1076FCF9D
:1042600086E090E09093E5088093E4086EEF74E0B8
:104270008FE49DE00E94707073CF1092B20710928D
:10428000B1071092E5081092E40860EF74E08FE443
:104290009DE00E9470700C9465171092B207109206
:1042A000B1070C9498176DE877E08FE49DE00E94C9
:1042B0004C706091FF087091000980910109909104
:1042C00002090E94E64E0C94E31790E02091D30B74
:1042D00022FF38C08823B1F12091F006BAE02B9F6D
:1042E000900111244091D70B5091D80B42175307DE
:1042F0004CF54091D30B5091D40B6091D50B70913C
:10430000D60B4B7F4093D30B5093D40B6093D50BBC
:104310007093D60B2091F206213021F02091F40603
:10432000213061F520912D02222341F11092D20B10
:104330001092D10B1092D00B1092B9071092B807BF
:104340000C9425182091ED0621110C942518882332
:1043500009F32091F106EAE02E9F9001112440918B
:10436000D70B5091D80B42175307A4F61092D20BDB
:104370001092D10B1092D00B0C9425182091F406BA
:10438000243019F40E94CA333AC02091F406213037
:1043900029F48091B7078093D10B31C06091F50665
:1043A000613009F070C02091F20B222309F46BC038
:1043B0004091F7062091F00B3091F10B442311F05E
:1043C00081114FC08091F706882309F464C04091A1
:1043D000EA085091EB084230510509F05CC0409169
:1043E000F7066AE0469FA0011124241735070CF058
:1043F00052C01092D10B1092EB081092EA088091F3
:10440000F9062091F20B833099F4222389F08091F0
:10441000FB06AAE08A9FC00111244091F00B509145
:10442000F10B481759070CF469C081E08093D00B59
:104430008091F206813019F48091E90862C0809180
:10444000F206823009F06FC08091F306813009F0E6
:104450006AC09091D90B992309F465C01092BF07E7
:1044600050C04091F706FAE04F9FA0011124241795
:1044700035070CF4A7CF4091D70B5091D80B4217BA
:10448000530724F09FCF1092D10BB9CF6093D10B7B
:1044900082E090E01CC04091D70B5091D80B42179E
:1044A00053070CF4A6CF9923B9F08091F6064091FA
:1044B000F806AAE08A9FC0011124841B91092817DD
:1044C000390754F481E08093D10B81E090E0909320
:1044D000EB088093EA0893CF8091EA089091EB086B
:1044E000019709F08CCF8091F606BAE08B9FC0014E
:1044F0001124821793070CF47CCF81CF1092D00B3C
:1045000097CF8093D20B222311F18091FF06EAE02E
:104510008E9FC00111242091F00B3091F10B2817D0
:1045200039073CF414C081E08093BF071092D20B8E
:10453000EACF8091B60780FF0AC08091FC068130E7
:1045400009F436C28091FC06823009F440C28091A1
:10455000CF0B882331F061E475E08FE49DE00E9489
:1045600070701092CF0B1092B5071092B4070C9494
:10457000251868E877E08FE49DE00E944C70609118
:10458000FF087091000980910109909102090E9431
:10459000E64E0C944F186BE975E08FE49DE00E94A5
:1045A0004C70B7018FE49DE00E941B4C64E975E0FC
:1045B0008FE49DE00E944C704091BD075091BE0772
:1045C00060E070E02AE08FE49DE00E94906F6BE86D
:1045D00075E08FE49DE00E944C7040913402509150
:1045E000350260E070E02AE08FE49DE00E94906F69
:1045F00065E875E08FE49DE00E944C70B8018FE49F
:104600009DE00E941B4C8FE49DE00E94D96F0C94AA
:10461000FC1960E775E08FE49DE00E944C70B701E3
:104620008FE49DE00E941B4C67E675E08FE49DE0FF
:104630000E944C70409134025091350260E070E06D
:104640002AE08FE49DE00E94906F61E675E08FE4C0
:104650009DE00E944C70B8018FE49DE00E941B4CCD
:104660008FE49DE00E94D96F0C94EE1963E877E027
:104670008FE49DE00E944C706091FF0870910009EA
:1046800080910109909102090E94E64E0C94261A2D
:104690000E94F5640C94211B6EE777E08FE49DE0A7
:1046A0000E944C706091FF0870910009809101098F
:1046B000909102090E94E64E0C944B1B369902C061
:1046C0000C945F1B46980C94601B69E777E08FE4BD
:1046D0009DE00E944C706091FF08709100098091EC
:1046E0000109909102090E94E64E90C89C0133276F
:1046F000E4E035952795EA95E1F7F82E129FF00C46
:104700001124BACAE091C20EF091C30E8091BE0E80
:104710009091BF0EA091C00EB091C10EC090BA0E84
:10472000D090BB0EE090BC0EF090BD0E0091BA0E82
:104730001091BB0E2091BC0E3091BD0E4091BE0E6B
:104740005091BF0E6091C00E7091C10EFF93EF9318
:104750008C199D09AE09BF09BF93AF939F938F93A7
:104760003F932F931F930F937F936F935F934F9379
:1047700080E496E09F938F930FE41DE01F930F93C7
:104780000E94923990912A028091B50E1F929F93B8
:104790001F928F938FE296E09F938F931F930F93B7
:1047A0000E949239C8010E94D96F0FB6F894DEBFFB
:1047B0000FBECDBF31CB1092EF081092EE0880E013
:1047C00094E0909329028093280243CB809135088E
:1047D0009091360890932902809328025CCB8091B7
:1047E000030990910409A0910509B0910609BF93AE
:1047F000AF939F938F9381E296E09F938F938FE483
:104800009DE09F938F930E9492398FE49DE00E94D8
:10481000D96F0FB6F894DEBF0FBECDBFAFCB1092ED
:104820002D02E0915108F0E0FE2FEE278091500814
:10483000E82BF093CE08E093CD086091530870E028
:10484000762F662780915208682B7093CA08609370
:10485000C9088091550890E0982F88272091540826
:10486000822B9093C8088093C7084091570850E066
:10487000542F442780915608482B5093CC084093DE
:10488000CB088091590890E0982F882720915808EC
:10489000822B9093C4088093C30880915B0890E0BA
:1048A000982F882720915A08822B9093C6088093CE
:1048B000C50820915D0830E0322F222780915C08E6
:1048C000282B3093C2082093C10880915F0890E0A4
:1048D000982F8827A0915E088A2B9093D008809308
:1048E000CF08A0916008A093D108B0916708B09359
:1048F000D708A1FBBB27B0F9B093D508B0917D08CC
:10490000B093D808B170B093D908F0933F08E09302
:104910003E0870939F0760939E0750939D074093B6
:104920009C0730933D0820933C0890939B0780930D
:104930009A07809165088093B307809166088093F9
:104940003B0881E090919308913009F080E08093DA
:10495000BF07A2FB882780F98093E908A3FBAA2759
:10496000A0F9A093B70781E090916208913009F017
:1049700080E08093E80881E090916108913009F02F
:1049800080E08093E3080C94141011110C944A14E5
:1049900060ED74E08FE49DE00E9470701092CB0B8C
:1049A0000C945F148D3011F00C94631C0C943A1C21
:1049B0008091CF0B811106C069E575E08FE49DE021
:1049C0000E94707081E08093CF0B0C942518809129
:1049D000B4079091B507892B11F00C94251880919C
:1049E000CF0B811113C04091FD0628E532E0429FB4
:1049F000C001439F900D11249093B5078093B40795
:104A000081E08093CF0B62E575E011C04091FE0616
:104A100028E532E0429FC001439F900D11249093FE
:104A2000B5078093B4071092CF0B6AE475E08FE46A
:104A30009DE00E9470700C9425186A960FB6F89449
:104A4000DEBF0FBECDBFDF91CF911F910F91FF90C1
:104A5000EF90DF90CF90BF90AF909F908F907F901E
:104A60006F905F904F903F902F9008958F929F92FC
:104A7000AF92BF92DF92EF92FF920F931F93CF936B
:104A8000DF93CDB7DEB768970FB6F894DEBF0FBEE1
:104A9000CDBF8C0140E050E06DE30E94CC6D7C0105
:104AA000F801848195811816190614F00C944B3383
:104AB000FFEFEF16FF0611F40C944B33A7014F5F85
:104AC0005F4FB801CE010D960E94DE39CE010D96E2
:104AD0000E946D6D66EC7CE0CE0101960E94E96E4D
:104AE000BE016F5F7F4FC8010E94FA6DD82ECE01C4
:104AF00001960E94E46EDD2009F456C0970142E061
:104B000050E0B801CE0101960E944C6FBE016F5F6C
:104B10007F4FC8010E944E6ECE0101960E94E46E46
:104B2000CE010D960E94626D4B015C01C8010E948E
:104B3000CE358F3F11F40C94473325E08202C0013B
:104B40001124FC01E952F44F7F018281813011F080
:104B50000C94473362EC7CE08FE49DE00E944C7043
:104B6000C8010E94377260EC7CE08FE49DE00E94F7
:104B70004C70F701608171818FE49DE00E941B4CB5
:104B80006DEB7CE08FE49DE00E944C70B4018FE4FB
:104B90009DE00E941B4C8FE49DE00E94D96FF701BD
:104BA000918280820C94473365EB7CE0CE010196C4
:104BB0000E94E96EBE016F5F7F4FC8010E94FA6DCF
:104BC000D82ECE0101960E94E46EDD2009F44AC081
:104BD00089899A890C9711F00C944733E12CF12CB8
:104BE000D12C0E2DB701CE010D960E94E86DFC016F
:104BF00080810E9435378F3F89F1182F1295107FE1
:104C0000B7016F5F7F4FCE010D960E94E86DFC01EA
:104C100080810E9435378F3F09F10695E1E0F0E091
:104C2000EC0FFD1FE00FF11D810F8083FAE0EF16FE
:104C3000F10411F4DD24D39422E0E20EF11C3CE0F7
:104C4000E316F10471F6DD2049F086E0FE013196AD
:104C5000ADEAB2E001900D928A95E1F70E94B93574
:104C60000C9447336EEA7CE0CE0101960E94E96E17
:104C7000BE016F5F7F4FC8010E94FA6DB82ECE0152
:104C800001960E94E46EBB2009F45DC081EA93E0C6
:104C90009A8389831B821C821D821E826D857E857C
:104CA000CE0101960E948070882329F08B819C811F
:104CB000AD81BE813AC069EA7CE0CE0107960E94D0
:104CC000E96E89899A892B853C8582179307F9F4C7
:104CD000892BD9F00D851E85EF80F884F80181912C
:104CE0008F01882391F0082E000C990B0E940797E2
:104CF0005C01F70181917F01082E000C990B0E9445
:104D00000797A816B90651F302C0DD24D394CE014B
:104D100007960E94E46EDD2081F08091B40F90919F
:104D2000B50FA091B60FB091B70F8093730F90930A
:104D3000740FA093750FB093760F81E79FE00E94E8
:104D400023720C9447336FE97CE0CE0101960E94F8
:104D5000E96EBE016F5F7F4FC8010E94FA6DD82EC9
:104D6000CE0101960E94E46EDD2041F181EA93E0DC
:104D70009A8389831B821C821D821E826D857E859B
:104D8000CE0101960E948070882391F08B819C81D6
:104D9000AD81BE8180936D0F90936E0FA0936F0FC6
:104DA000B093700FCE0101960E9423720C9447338A
:104DB000CE0101960E9423720C94473365E97CE092
:104DC000CE0101960E94E96EBE016F5F7F4FC80160
:104DD0000E94FA6DD82ECE0101960E94E46EDD206D
:104DE00041F181EA93E09A8389831B821C821D82B0
:104DF0001E826D857E85CE0101960E94807088237B
:104E000091F08B819C81AD81BE818093670F9093DF
:104E1000680FA093690FB0936A0FCE0101960E94AC
:104E200023720C944733CE0101960E9423720C9496
:104E300047336DE87CE0CE0101960E94E96EBE0129
:104E40006F5F7F4FC8010E94FA6DD82ECE01019688
:104E50000E94E46EDD2041F181EA93E09A83898328
:104E60001B821C821D821E826D857E85CE0101966D
:104E70000E948070882391F08B819C81AD81BE81DE
:104E80008093610F9093620FA093630FB093640FB0
:104E9000CE0101960E9423720C944733CE010196F5
:104EA0000E9423720C94473369E77CE0CE0101969F
:104EB0000E94E96EBE016F5F7F4FC8010E94FA6DCC
:104EC000D82ECE0101960E94E46ED1100C94473387
:104ED0006FE67CE0CE0101960E94E96EBE016F5F35
:104EE0007F4FC8010E94FA6DD82ECE0101960E9414
:104EF000E46EDD2041F0CE010D960E94626D60935C
:104F0000CC060C9447336FE57CE0CE0101960E94FD
:104F1000E96EBE016F5F7F4FC8010E94FA6DD82E07
:104F2000CE0101960E94E46EDD2041F0CE010D9687
:104F30000E94626D6093CD060C94473362E57CE07D
:104F4000CE0101960E94E96EBE016F5F7F4FC801DE
:104F50000E94FA6DD82ECE0101960E94E46EDD20EB
:104F600041F0CE010D960E94626D6093CE060C94C6
:104F7000473360E47CE0CE0101960E94E96EBE01F9
:104F80006F5F7F4FC8010E94FA6DD82ECE01019647
:104F90000E94E46EDD2051F0CE010D960E94626DFC
:104FA0007093D0066093CF060C9447336FE27CE099
:104FB000CE0101960E94E96EBE016F5F7F4FC8016E
:104FC0000E94FA6DD82ECE0101960E94E46EDD207B
:104FD00051F0CE010D960E94626D7093D8066093D9
:104FE000D7060C94473363E27CE0CE0101960E9421
:104FF000E96EBE016F5F7F4FC8010E94FA6DD82E27
:10500000CE0101960E94E46EDD2051F0CE010D9696
:105010000E94626D7093D4066093D3060C9447335C
:1050200068E17CE0CE0101960E94E96EBE016F5FEF
:105030007F4FC8010E94FA6DD82ECE0101960E94C2
:10504000E46EDD2051F0CE010D960E94626D7093EA
:10505000DC066093DB060C94473368E07CE0CE010D
:1050600001960E94E96EBE016F5F7F4FC8010E94EA
:10507000FA6DD82ECE0101960E94E46EDD2051F02B
:10508000CE010D960E94626D7093D2066093D10698
:105090000C94473369EF7BE0CE0101960E94E96EE4
:1050A000BE016F5F7F4FC8010E94FA6DD82ECE01FE
:1050B00001960E94E46EDD2051F0CE010D960E9413
:1050C000626D7093DA066093D9060C9447336CEEE8
:1050D0007BE0CE0101960E94E96EBE016F5F7F4FBB
:1050E000C8010E94FA6DD82ECE0101960E94E46E8E
:1050F000DD2051F0CE010D960E94626D7093D606B0
:105100006093D5060C94473360EE7BE0CE010196A8
:105110000E94E96EBE016F5F7F4FC8010E94FA6D69
:10512000D82ECE0101960E94E46EDD2051F0CE0112
:105130000D960E94626D7093DE066093DD060C94FE
:1051400047336AEC7BE0CE0101960E94E96EBE0116
:105150006F5F7F4FC8010E94FA6DD82ECE01019675
:105160000E94E46EDD2081F0CE010D960E94626DFA
:105170009B01215031092336310510F00C9447333F
:105180006093DF060C9447336BEB7BE0CE01019616
:105190000E94E96EBE016F5F7F4FC8010E94FA6DE9
:1051A000D82ECE0101960E94E46EDD2081F0CE0162
:1051B0000D960E94626D9B01215031092A353105FF
:1051C00010F00C9447336093E0060C9447336EE97B
:1051D0007BE0CE0101960E94E96EBE016F5F7F4FBA
:1051E000C8010E94FA6DD82ECE0101960E94E46E8D
:1051F000DD20A9F0CE010D960E94626D611571054A
:105200008105910511F40C9447336093E106709386
:10521000E2068093E3069093E4060C94473366E835
:105220007BE0CE0101960E94E96EBE016F5F7F4F69
:10523000C8010E94FA6DD82ECE0101960E94E46E3C
:10524000DD2081F0CE010D960E94626D6093E5062F
:105250007093E6068093E7069093E8060E948C35EB
:105260000C9447336AE67BE0CE0101960E94E96E1A
:10527000BE016F5F7F4FC8010E94FA6DD82ECE012C
:1052800001960E94E46EDD2079F0CE010D960E9419
:10529000626D6115710511F40C9447337093EA0641
:1052A0006093E9060C94473367E57BE0CE010196F5
:1052B0000E94E96EBE016F5F7F4FC8010E94FA6DC8
:1052C000D82ECE0101960E94E46EDD2041F0CE0181
:1052D0000D960E94626D6093EB060C9447336CE46C
:1052E0007BE0CE0101960E94E96EBE016F5F7F4FA9
:1052F000C8010E94FA6DD82ECE0101960E94E46E7C
:10530000DD2081F0CE010D960E94626D9B0121503F
:1053100031092336310510F00C9447336093F106C0
:105320000C94473361E47BE0CE0101960E94E96E64
:10533000BE016F5F7F4FC8010E94FA6DD82ECE016B
:1053400001960E94E46EDD2081F0CE010D960E9450
:10535000626D9B01215031092336310510F00C9408
:1053600047336093F0060C94473365E37BE0CE014E
:1053700001960E94E96EBE016F5F7F4FC8010E94D7
:10538000FA6DD82ECE0101960E94E46EDD2081F0E8
:10539000CE010D960E94626D9B012150310923368A
:1053A000310510F00C9447336093EE060C944733AC
:1053B00066E27BE0CE0101960E94E96EBE016F5F5E
:1053C0007F4FC8010E94FA6DD82ECE0101960E942F
:1053D000E46EDD2081F0CE010D960E94626D9B018E
:1053E000215031092336310510F00C944733609376
:1053F000EF060C94473368E17BE0CE0101960E94F2
:10540000E96EBE016F5F7F4FC8010E94FA6DD82E12
:10541000CE0101960E94E46EDD2009F46AC0BE014F
:10542000635F7F4FCE0143960E941F6F62EB74E073
:10543000CE0101960E94386FBE016F5F7F4FCE0193
:1054400043960E94FA6D811116C068EB74E0CE019C
:1054500007960E94386FBE01695F7F4FCE01439669
:105460000E94FA6D11E0811101C010E0CE01079693
:105470000E94E46E01C011E0CE0101960E94E46E2C
:10548000112321F010922C0211E02BC06EEB74E07E
:10549000CE0101960E94386FBE016F5F7F4FCE0133
:1054A00043960E94FA6D182FCE0101960E94E46E79
:1054B000111116C062EC74E0CE0101960E94386FA3
:1054C000BE016F5F7F4FCE0143960E94FA6D182F89
:1054D000CE0101960E94E46E112319F012E001C082
:1054E00013E01093EC06CE0143960E94E46E0C94F8
:1054F00047336DE07BE0CE0101960E94E96EBE016C
:105500006F5F7F4FC8010E94FA6DD82ECE010196C1
:105510000E94E46EDD2081F0CE010D960E94626D46
:105520009B01215031092336310510F00C9447338B
:105530006093F6060C94473364E07BE0CE0101965D
:105540000E94E96EBE016F5F7F4FC8010E94FA6D35
:10555000D82ECE0101960E94E46EDD2099F0BE01A6
:10556000635F7F4FCE0101960E941F6FCE010196AF
:105570000E94CB8A8093F406CE0101960E94E46ECD
:105580000C94473367EF7AE0CE0101960E94E96EF2
:10559000BE016F5F7F4FC8010E94FA6DD82ECE0109
:1055A00001960E94E46EDD2099F0BE01635F7F4F9B
:1055B000CE0101960E941F6FCE0101960E94768A4D
:1055C0008093F506CE0101960E94E46E0C94473359
:1055D00069EE7AE0CE0101960E94E96EBE016F5F2E
:1055E0007F4FC8010E94FA6DD82ECE0101960E940D
:1055F000E46EDD2069F0CE010D960E94626D653685
:10560000710510F00C9447336093F8060C944733FF
:105610006FED7AE0CE0101960E94E96EBE016F5FE8
:105620007F4FC8010E94FA6DD82ECE0101960E94CC
:10563000E46EDD2081F0CE010D960E94626D9B012B
:10564000215031092336310510F00C944733609313
:10565000F7060C94473363ED7AE0CE0101960E9481
:10566000E96EBE016F5F7F4FC8010E94FA6DD82EB0
:10567000CE0101960E94E46EDD2071F0CE010D9600
:105680000E94626D9B01215031092336310508F0DB
:10569000FEC76093FB06FBC769EC7AE0CE0101967A
:1056A0000E94E96EBE016F5F7F4FC8010E94FA6DD4
:1056B000D82ECE0101960E94E46EDD2091F0BE014D
:1056C000635F7F4FCE0101960E941F6FCE0101964E
:1056D0000E94CB8A8093F906CE0101960E94E46E67
:1056E000D6C76BEB7AE0CE0101960E94E96EBE014F
:1056F0006F5F7F4FC8010E94FA6DD82ECE010196D0
:105700000E94E46EDD2091F0BE01635F7F4FCE0109
:1057100001960E941F6FCE0101960E94768A8093A7
:10572000FA06CE0101960E94E46EB1C763EB7AE0FF
:10573000CE0101960E94E96EBE016F5F7F4FC801E6
:105740000E94FA6DD82ECE0101960E94E46EDD20F3
:1057500009F469C0BE01635F7F4FCE0143960E948A
:105760001F6F60ED77E0CE0101960E94E96EBE01E9
:105770006F5F7F4FCE0143960E94FA6D811116C074
:105780006AEC77E0CE0107960E94E96EBE01695F80
:105790007F4FCE0143960E94FA6D11E0811101C046
:1057A00010E0CE0107960E94E46E01C011E0CE0128
:1057B00001960E94E46E112321F010922C0211E058
:1057C0002BC065EC77E0CE0101960E94E96EBE0128
:1057D0006F5F7F4FCE0143960E94FA6D182FCE0166
:1057E00001960E94E46E111116C060EC77E0CE01C4
:1057F00001960E94E96EBE016F5F7F4FCE01439616
:105800000E94FA6D182FCE0101960E94E46E1123BA
:1058100019F013E001C012E01093F206CE01439696
:105820000E94E46E34C767EA7AE0CE0101960E94D6
:10583000E96EBE016F5F7F4FC8010E94FA6DD82EDE
:10584000CE0101960E94E46EDD2091F0BE01635FFF
:105850007F4FCE0101960E941F6FCE0101960E94DC
:10586000768A8093F306CE0101960E94E46E0FC7FC
:1058700063E97AE0CE0101960E94E96EBE016F5F96
:105880007F4FC8010E94FA6DD82ECE0101960E946A
:10589000E46EDD2091F0BE01635F7F4FCE01019683
:1058A0000E941F6FCE0101960E94768A8093FC06AB
:1058B000CE0101960E94E46EEAC66DE77AE0CE0161
:1058C00001960E94E96EBE016F5F7F4FC8010E9482
:1058D000FA6DD82ECE0101960E94E46EDD2039F0DB
:1058E000CE010D960E94626D6093FD06D0C666E6FD
:1058F0007AE0CE0101960E94E96EBE016F5F7F4F94
:10590000C8010E94FA6DD82ECE0101960E94E46E65
:10591000DD2039F0CE010D960E94626D6093FE0687
:10592000B6C666E57AE0CE0101960E94E96EBE0138
:105930006F5F7F4FC8010E94FA6DD82ECE0101968D
:105940000E94E46EDD2061F0CE010D960E94626D32
:105950008FEF860F833608F09AC66093FF0697C6CE
:1059600061E47AE0CE0101960E94E96EBE016F5FAC
:105970007F4FC8010E94FA6DD82ECE0101960E9479
:10598000E46EDD2059F0CE010D960E94626D161670
:1059900017060CF07CC66093040779C669E27AE0CA
:1059A000CE0101960E94E96EBE016F5F7F4FC80174
:1059B0000E94FA6DD82ECE0101960E94E46EDD2081
:1059C00059F0CE010D960E94626D161617060CF066
:1059D0005EC6609305075BC662E17AE0CE01019680
:1059E0000E94E96EBE016F5F7F4FC8010E94FA6D91
:1059F000D82ECE0101960E94E46EDD2059F0CE0132
:105A00000D960E94626D161617060CF040C6609344
:105A100006073DC66EEF79E0CE0101960E94E96E61
:105A2000BE016F5F7F4FC8010E94FA6DD82ECE0174
:105A300001960E94E46EDD2059F0CE010D960E9481
:105A4000626D161617060CF022C6609307071FC674
:105A50006DEE79E0CE0101960E94E96EBE016F5FA6
:105A60007F4FC8010E94FA6DD82ECE0101960E9488
:105A7000E46EDD2059F0CE010D960E94626D16167F
:105A800017060CF004C66093080701C66DED79E0B7
:105A9000CE0101960E94E96EBE016F5F7F4FC80183
:105AA0000E94FA6DD82ECE0101960E94E46EDD2090
:105AB00059F0CE010D960E94626D161617060CF075
:105AC000E6C560930907E3C560ED79E0CE01019674
:105AD0000E94E96EBE016F5F7F4FC8010E94FA6DA0
