:100000000C9477080C94DB2D0C94B02D0C94852D5A
:100010000C945A2D0C942F2D0C94042D0C94D92C47
:100020000C94AE2C0C94A8080C94A8080C94A80866
:100030000C94A8080C94A8080C94A8080C94A80880
:100040000C94A8080C9412300C94A8080C94A808DE
:100050000C94A8080C94A8080C94A8080C94642C80
:100060000C94A8080C94A64C0C947C4C0C94A808F6
:100070000C94A8080C94A8080C94A8080C94A80840
:100080000C94A8080C94A8080C94A8080C94372F7A
:100090000C94534C0C94294C0C94A8080C94062EE8
:1000A0000C94A8080C94A8080C94A8080C94A80810
:1000B0000C94A8080C94A8080C94A8080C94A80800
:1000C0000C94A8080C94A8080C94A8080C94A808F0
:1000D0000C94A8080C94A8080C94A8080C94A808E0
:1000E0000C94A8085F286228512855285B28992875
:1000F00066286A287028742878287E28822886280E
:1001000099288C28902894287F2A842A892A932A3F
:100110009D2A162BA72AAF2AB72AC12ACB2AD52A6D
:10012000E42AEE2A162BF82A022B0C2B44414C4CC5
:1001300041533A204B6F6E69656320706F737A7517
:100140006B6977616E696120637A756A6E696B6F3E
:10015000772E00202054656D706572617475726130
:10016000203D2000204352433D0020204461746123
:10017000203D200020437A617320706F6272616EAF
:1001800069612064616E796368207A20637A756A98
:100190006E696B61203D2000204E69657A6E616E4C
:1001A0007920445331387878002044533138323242
:1001B0000020445331384232300020445331385308
:1001C000323000626C6164204352430044414C4C25
:1001D00041533A204944203D0020437A6173206B0B
:1001E0006F6D656E6461206B6F6E776572736A699F
:1001F00020646C6120637A756A6E696B61203D20B2
:100200000044414C4C41533A20506F637A6174650D
:100210006B20706F737A756B6977616E69612063AB
:100220007A756A6E696B6F772E0020743A00206FC2
:100230003A0020703A002049443A0044414C4C4175
:1002400053200053443A206272616B20706C696BDA
:100250007520706F64616A6E696B2E747874001F0C
:100260001C1F1E1F1E1F1F1E1F1E1F5254433A20FD
:100270006F64637A7974207A61736F626E696B61FF
:100280003A004E54503A20557A79736B616E6F2064
:10029000637A617320756E697874696D653A00528E
:1002A00054433A207A6E616C657A696F6E6F2044B0
:1002B0005331333037005254433A206272616B201D
:1002C000445331333037005254433A20537A756BDC
:1002D000616D20445331333037202E2E2E0049508B
:1002E0003A206272616B2045746865725368696573
:1002F0006C642E2E2E005757573A7374726F6E61CE
:1003000020676F746F7761005757573A757275633E
:1003100068616D69616D207374726F6E652E2E2E2B
:100320000049503A20646E733A0049503A20627294
:10033000616D613A0049503A206D61736B613A001A
:1003400049503A2061647265733A0049503A206D11
:1003500061633A0049503A20706F62696572616E5C
:10036000696520616472657375207A204448435042
:100370002E2E2E00576F6C6E792052414D3A004957
:10038000503A206B6F6E666967757261636A6120AF
:1003900073696563692E2E2E00576F6C6E7920523B
:1003A000414D3A00576F6C6E792052414D3A0057DB
:1003B0006F6C6E792052414D3A0053443A20626C82
:1003C0006164206F64637A7974752064616E796307
:1003D000680053443A20626C6164206B61727479E6
:1003E0000053443A206272616B206B617274790031
:1003F000302E312E302E3534004C75636A616E20FC
:10040000762E00504B543A2043524300504B543AFE
:100410002045545800504B543A20535458002A2A2F
:100420004833002A2A4732002A2A4731002A2A5014
:1004300032002A2A5031002A2A432D4F46462A00EC
:100440002A2A432D4F4646002A2A432D4F4E002A82
:100450002A432D4F4E2A00206B726F6B3A003444B2
:100460003A20726F7A6E6963613A0052455345547F
:10047000005745423A005A34443A00504D503A0031
:10048000444D553A00504F443A00414C473A0041E0
:100490004C4D3A004D41503A0044414C4C3A0043D7
:1004A0004F4E3A0054494D3A004C41544F005A497E
:1004B0004D41004252554C490045434F414C005478
:1004C0003800543700543600543500543400543347
:1004D00000543200543100545350414C494E59009D
:1004E00054504F444C4F47410054435755005457C4
:1004F000455700545A45570054504F44414A4E49BD
:100500004B0054504F57524F5400545049454300EC
:1005100053443A206272616B20706C696B75206382
:100520006F6E6669672E747874005858444D5F503A
:100530004C55535F4D4F43005858444D5F504C55F8
:10054000535F4D4F43005858544553545F4E5231FA
:10055000207A6E616C657A696F6E6F0058585445E9
:1005600053545F4E5231005A41574F5234442D4339
:100570005A554A4E494B005A41574F5234442D4325
:100580005A41535F504F4D49415255005A41574FC0
:100590005234442D435A41535F4B524F4B005A4102
:1005A000574F5234442D435A41535F4F5457415291
:1005B000434941004B525A5957415F47525A414EA5
:1005C00049412B3135004B525A5957415F47525AD6
:1005D000414E49412B35004B525A5957415F4752C2
:1005E0005A414E49412D30004B525A5957415F47AD
:1005F000525A414E49412D3130004B525A595741C0
:100600005F47525A414E49412D3230004B525A59A0
:1006100057415F47525A414E49412D3330005600F1
:1006200054380054370054360054350054340054C4
:100630003300543200543100545350414C494E5908
:100640000054504F444C4F474100544357550054B9
:1006500057455700545A45570054504F44414A4E4D
:10066000494B0054504F57524F5400545049454342
:1006700000545F4D4150554A5F5A5F4252554C49B4
:1006800000545F4D4150554A5F5A5F45434F414CBE
:100690000052525F50524143415F4D4F430052520E
:1006A0005F50524143415F504F53544F4A005252A2
:1006B0005F50524143415F504F44414E49450052C3
:1006C000525F504F4454525A594D414E49455F4D27
:1006D0004F430052525F504F4454525A594D414E6D
:1006E00049455F504F53544F4A0052525F504F4458
:1006F00054525A594D414E49455F504F44414E491D
:10070000450052525F504F4454525A594D414E4940
:10071000455F435A4153004359524B554C41434A5C
:10072000415F544D494E004359524B554C41434A49
:10073000415F435A41535F57594C41435A00435913
:10074000524B554C41434A415F435A41535F574CCA
:1007500041435A004359524B554C41434A415F4132
:100760004C474F5259544D00434F5F414C474F52F5
:1007700059544D00434F5F5452594200435755322C
:100780005F414C474F5259544D00435755325F54C7
:1007900052594200435755325F5A4144414E41003D
:1007A0004357555F545F4D4158004357555F484983
:1007B00053544552455A41004357555F414C474FAA
:1007C0005259544D004357555F54525942004357B4
:1007D000555F5A4144414E4100504945435F414CA9
:1007E000474F5259544D00504945435F484953546F
:1007F0004552455A4100504945435F5A4144414E94
:100800004100504945435F545F4D415800504945B0
:10081000435F545F4D494E00504F44414A4E494B4F
:100820005F414C41524D5F4D494E00504F44414A4B
:100830004E494B5F505245444B4F53435F504F44DA
:100840004157414E494100504F44414A4E494B5F48
:10085000435A41535F504F44414A4E494B41005027
:100860004F44414A4E494B5F435A41535F444F5FA7
:100870004F50524F5A4E49454E494100504F444106
:100880004A4E494B5F545F4D415800504F44414AD6
:100890004E494B5F435A41535F5759525A5554552D
:1008A00000444D5F504C55535F4D4F4300444D5FE6
:1008B000504C55535F435A415300444D5F524F5A79
:1008C000525543485F4D4F4300444D5F524F5A527B
:1008D0005543485F435A415300444D5F544C4F5F6A
:1008E0004D4F4300444D5F544C4F5F435A415300BA
:1008F000444D5F444F50414C414E49455F4D4F433D
:1009000000444D5F444F50414C414E49455F435A6E
:10091000415300444D5F4D4F44554C41434A4100C3
:10092000444D5F494E574552534A415F50574D0021
:10093000444D5F4F464653455400444D554348414E
:1009400057415F41435F475255504F574F004E4507
:10095000545F444E53004E45545F4252414D410056
:100960004E45545F4D41534B41006175746F004ECD
:1009700045545F4950004E45545F4D4143005D0072
:10098000636F6E6669673A205B00005EBCE2613FA0
:10099000DD83C29C7E20A3FD1F419DC3217FFCA25D
:1009A000401E5F01E3BD3E6082DC237D9FC1421C8F
:1009B000FEA0E1BF5D0380DE3C62BEE0025CDF8141
:1009C000633D7C22C09E1D43A1FF4618FAA42779EF
:1009D0009BC584DA3866E5BB5907DB856739BAE41D
:1009E00006581947A5FB7826C49A653BD987045A4F
:1009F000B8E6A7F91B45C6987A24F8A6441A99C701
:100A0000257B3A6486D85B05E7B98CD2306EEDB3AE
:100A1000510F4E10F2AC2F7193CD114FADF3702EDC
:100A2000CC92D38D6F31B2EC0E50AFF1134DCE900E
:100A3000722C6D33D18F0C52B0EE326C8ED0530DC0
:100A4000EFB1F0AE4C1291CF2D73CA947628ABF56E
:100A500017490856B4EA6937D58B5709EBB536689C
:100A60008AD495CB2977F4AA4816E9B7550B88D6CE
:100A7000346A2B7597C94A14F6A8742AC896154B80
:100A8000A9F7B6E80A54D7896B3500002100240085
:100A900027002A002D00300033000101000004016E
:100AA00007010A0100002200250028002B002E006B
:100AB0003100340002010000050108010B010000B3
:100AC0000A0B02090C0D0E080703040100000000C8
:100AD0000000000000000000000000000000000016
:100AE00000000000000000000000121110000000D3
:100AF00000000000000000000000000000000000F6
:100B0000000000007C3C3E5E2B3D3F2F5B5D3B2C9C
:100B10002A225C004B4F004F4B0066756C6C002026
:100B2000743A00206F3A0020703A002049443A009D
:100B300044414C4C41532000444953434F4E4E4591
:100B4000435445440077656E74796C61746F723AF2
:100B500000435755323A00435755313A00616363B9
:100B60006573732D636F6E74726F6C2D616C6C6F37
:100B7000772D6F726967696E3A202A0A002E00226B
:100B80007D00302E312E302E3534002C22766572C9
:100B9000223A22002274696D65223A002C002261FB
:100BA0006C223A20002C0030003100226379726BF5
:100BB000223A20002C003000310022637775322267
:100BC0003A20002C00300031002263777531223A40
:100BD00020002C003000310022636F223A20002CCC
:100BE000003000310022706F64223A20002C002275
:100BF000706F64676D696E223A20002C0022706F5E
:100C000064637A646F223A20002C0022706F646360
:100C10007A7A6173223A20002C0022706F64637A22
:100C2000223A20002C002277656E31223A20002CD7
:100C3000002277656E30223A20007D5D2C007B22F9
:100C400074223A20007D2C007B22746865726D6FDF
:100C500073223A5B006163636573732D636F6E7417
:100C6000726F6C2D616C6C6F772D6F726967696E36
:100C70003A202A0A006163636573732D636F6E7493
:100C8000726F6C2D616C6C6F772D6F726967696E16
:100C90003A202A0A002F6D6F64756C61636A6100E7
:100CA0006163636573732D636F6E74726F6C2D6116
:100CB0006C6C6F772D6F726967696E3A202A0A0033
:100CC000227D00302E312E302E3534002C227665D8
:100CD00072223A22007B2274696D65223A006163B8
:100CE000636573732D636F6E74726F6C2D616C6CC2
:100CF0006F772D6F726967696E3A202A0A00436F19
:100D00006E74656E742D547970653A200048544DA8
:100D10002A746578742F68746D6C7C5458542A74E6
:100D20006578742F706C61696E7C4353532A7465C7
:100D300078742F6373737C584D4C2A746578742FC4
:100D4000786D6C7C4A532A746578742F6A61766179
:100D50007363726970747C4749462A696D6167657F
:100D60002F6769667C4A50472A696D6167652F6AFB
:100D70007065677C504E472A696D6167652F706E9C
:100D8000677C49434F2A696D6167652F766E642ED3
:100D90006D6963726F736F66742E69636F6E7C4DDD
:100DA00050332A617564696F2F6D7065677C000030
:100DB0000020002300260029002C002F0032000014
:100DC00001000003010601090105050505070508E5
:100DD000080808020202020A0A08080404040401BE
:100DE00001010101010101030303030303030304E0
:100DF0000707070C0C0C0C0C0C0C0C020202020670
:100E0000060606060606060B0B0B0B0B0B0B0B015F
:100E1000021020200808102040102040800201020B
:100E200001080402010102040810204080804020D3
:100E3000100804020180040201804020100804020E
:100E4000010804020101020408102040800102048C
:100E50000810204080303230313030303630303081
:100E60003030303030363130330000316253C4F529
:100E7000A697B988DBEA7D4C1F2E4372211087B6F6
:100E8000E5D4FACB98A93E0F5C6D86B7E4D54273E2
:100E900020113F0E5D6CFBCA99A8C5F4A7960130DE
:100EA00063527C4D1E2FB889DAEB3D0C5F6EF9C89A
:100EB0009BAA84B5E6D7407122137E4F1C2DBA8BB6
:100EC000D8E9C7F6A59403326150BB8AD9E87F4EB2
:100ED0001D2C02336051C6F7A495F8C99AAB3C0D9E
:100EE0005E6F4170231285B4E7D67A4B1829BE8F06
:100EF000DCEDC3F2A1900736655439085B6AFDCC7E
:100F00009FAE80B1E2D344752617FCCD9EAF380961
:100F10005A6B4574271681B0E3D2BF8EDDEC7B4A55
:100F2000192806376455C2F3A0914776251483B279
:100F3000E1D0FECF9CAD3A0B586904356657C0F13D
:100F4000A293BD8CDFEE79481B2AC1F0A392053431
:100F5000675678491A2BBC8DDEEF82B3E0D1467715
:100F600024153B0A5968FFCE9DAC204F4B0D0A005B
:100F7000485454502F312E31200058585845434F73
:100F8000414C00534F46540044414C4C4153204E79
:100F900052203D200044414C4C4153005350414CA1
:100FA000494E5900504F444C4F474100435755005C
:100FB000574557005A455700504F44414A4E494BF8
:100FC00000504F57524F5400434F004252554C4926
:100FD0000045434F414C005254433A207A617069B6
:100FE00073207A61736F626E696B613A004D494597
:100FF000535A414E49450042415254454B00574CCB
:1010000041435A004252554C490045434F414C0020
:1010100057594C41435A4F4E590043594B4C494341
:101020005A4E5900434941474C59005757573A20A7
:101030006272616B20706C696B753A20005757576C
:101040003A204F64637A797420706C696B753A004A
:101050006163636573732D636F6E74726F6C2D6162
:101060006C6C6F772D6F726967696E3A202A0A007F
:101070005757573A20426C616420706172736F77E2
:10108000616E69612055524C002062616A746F770D
:101090002900206D7320286F64656272616E6F2075
:1010A000002062616A746F77207720005757573AA3
:1010B000205A61706973616E6F20005757573A204C
:1010C0005A61706973756A6520706C696B3A004487
:1010D0004953434F4E4E45435445440043575532C0
:1010E0003A00435755313A00434F3A00AE6D112450
:1010F0001FBECFEFD1E2DEBFCDBF00E00CBF14E0DA
:10110000A0E0B2E0ECECF2EF00E00BBF02C0079011
:101110000D92AE3EB107D9F72DE0AEEEB4E001C0BE
:101120001D92A53AB207E1F718E0C7E7D8E000E062
:1011300006C021970109802FFE010E94F673C63771
:10114000D10780E00807A9F70E94B8600C94647981
:101150000C9400002F923F924F925F926F927F9279
:101160008F929F92AF92BF92CF92DF92EF92FF92B7
:101170000F931F93CF93DF93CDB7DEB76F970FB663
:10118000F894DEBF0FBECDBFA8950E94572B609389
:101190006307709364078093650790936607809157
:1011A000630790916407A0916507B09166078093EB
:1011B0005F0790936007A0936107B09362078091E7
:1011C000630790916407A0916507B091660740910D
:1011D000B1055091B2056091B3057091B405841BBF
:1011E000950BA60BB70BC397A105B10584F08091B1
:1011F000630790916407A0916507B091660780939B
:10120000B1059093B205A093B305B093B4050E94C5
:10121000572B00915F071091600720916107309173
:101220006207DC01CB01801B910BA20BB30B8093F7
:101230005F0790936007A0936107B0936207809166
:10124000AD05882369F080915F0790916007A091B8
:101250006107B09162070397A105B1050CF0D6C4F0
:101260000E94572B60935F0770936007809361071C
:10127000909362078091120290911302009799F463
:101280000E94572B60931F077093200780932107BC
:101290009093220710923E0610923D0610921E0770
:1012A00081E090E01DC00197F9F40E94572B009156
:1012B0001F07109120072091210730912207DC01A0
:1012C000CB01801B910BA20BB30B85369105A105B9
:1012D000B10550F010923E0610923D0682E090E07B
:1012E0009093130280931202809112029091130244
:1012F0008230910509F05DC00091710B1091720B65
:10130000C8010E94C57790911C0720E0E0911B075F
:1013100031E0281738F5F801E20FF11D949141E012
:10132000420FF801E40FF11D2E5FE491632F70E08E
:10133000913410F049EC01C040ED490FE13410F058
:10134000F9EC01C0F0EDFE0FA0E14A9FA0011124CD
:101350004F2BA1E0B0E0AC0FBD1FA60FB71F4C9301
:101360003F5FD7CF90931C0720931D07E0931B0787
:10137000182F1695198381E0809311028091110234
:10138000181780F091E0980F90931102E1E0F0E0DF
:10139000EC0FFD1FE80FF11D60818DEC99E00E94BC
:1013A0006E48ECCF10923E0610923D0683E090E02E
:1013B00013C083309105D1F58DEC99E00E9403288C
:1013C000892B79F01092110210921A0710923E06A2
:1013D00010923D0684E090E09093130280931202F5
:1013E000D8C080913D0690913E06019690933E06AE
:1013F00080933D068139914008F4CBC010923E069F
:1014000010923D0680911E078F5F80931E0722E099
:1014100030E03093130220931202863008F4B9C0F2
:1014200081E08093190780932902B3C0843091052D
:1014300009F051C08DEC99E00E9403281816190696
:10144000BCF48DEC99E00E940328181619069CF54F
:101450001091110281E0810F809311028DEC99E0CF
:101460000E942448E12FF0E0EB54F94F8083E9CF4C
:1014700080913D0690913E06019690933E068093A2
:101480003D0681399140B8F010923E0610923D061B
:1014900082E090E0909313028093120280911E07E5
:1014A0008F5F80931E07863030F082E080931907AB
:1014B00081E08093290280911102863508F469C089
:1014C00080931A071092110210923E0610923D0668
:1014D00087E090E081CF079709F05BC080911A0701
:1014E0008635B1F58091B506823019F065E174E07A
:1014F0002BC080910A07833021F426EB36E0E0E030
:1015000003C06CE074E020C0B7E029303B07A1F0D5
:10151000D9018D919D018E27E091750BF091760B8D
:10152000E80FF11DE4918E2F90E0A0E0B0E08983F8
:101530009A83AB83BC83E8CF809109078E1711F49F
:101540000C94831963E074E08AE69AE00E94D64B1B
:1015500080913D0690913E06019690933E068093C1
:101560003D068139914088F010923E0610923D066A
:1015700080911E078F5F80931E07863030F084E0D5
:101580008093190781E08093290210921302109230
:1015900012020E94572B00915F0710916007209163
:1015A000610730916207DC01CB01801B910BA20B1C
:1015B000B30B80935F0790936007A0936107B0938C
:1015C00062078091AD05882369F080915F07909153
:1015D0006007A0916107B09162070397A105B1056B
:1015E0000CF025C30E94572B60935F077093600730
:1015F00080936107909362078091EE04882309F439
:10160000A5C0D0902307D11009C088E080933F0681
:101610000E94055B81E08093230790C020913F06E4
:1016200021118CC00FEF0D0DE02EF12CFDE00F9F6E
:1016300080011124822F90E0FC01E350FB4F800FCA
:10164000911FDC01AA5FBA4F8C9180832F5F2830F5
:1016500089F7209305050E94B95A882309F467C0C9
:101660008091FD04823241F0883231F0803121F4E2
:1016700081E08093FC0402C01092FC048091F0048D
:1016800090E0982F88272091EF04822B2091FC0472
:10169000222399F043E0880F991F4A95E1F72091A2
:1016A000F6042031F9F44091F5042CE030E0241BDD
:1016B0003109807F820F931F15C02091F30420769B
:1016C00031F433E0880F991F3A95E1F70BC02032CF
:1016D00029F4880F991F880F991F04C0203411F432
:1016E000880F991F2DE02E9DF0012F9DF00D1124E4
:1016F000EA5FFA4F4AE0489F9001499F300D11245C
:1017000037FF02C0215F3F4F14E0359527951A95AA
:10171000E1F7328721878DE08E9DF0018F9DF00DDE
:101720001124EA5FFA4F8091FB04808704C0F8011E
:10173000EA5FFA4F1086D394D09223079091230743
:101740008091EE04891710F4109223070E94572B02
:1017500000915F0710916007209161073091620747
:10176000DC01CB01801B910BA20BB30B80935F07B5
:1017700090936007A0936107B09362078091AD05D5
:10178000882369F080915F0790916007A0916107BD
:10179000B09162070297A105B1050CF059C20E94F1
:1017A000572B60935F077093600780936107909356
:1017B00062078090240790902507A0902607B0909C
:1017C0002707209128073091290740912A07509137
:1017D0002B0760912C0770912D0710912E07009117
:1017E0002F07F0903007E0903107D0903207C0907B
:1017F00033076090EE04E2E5F6E0A5E54A2EA6E0A8
:101800005A2EBDE07B2EC2010197DC018C91823003
:1018100061F5D2018C91882381F0813089F082308A
:1018200091F0833099F08430A1F08530A9F08630B2
:10183000A9F08730A9F4C60115C0982D892D12C0D2
:101840009A2D8B2D0FC0922F832F0CC0942F852F94
:1018500009C0962F872F06C0C80104C0C70102C067
:1018600099E18CEF9083818318C08330A1F4D20179
:101870008C91861558F4789EC00111248A5F9A4F86
:10188000DC0119968D919C911A9702C08AE19CEF18
:101890009183808302C0118210823596B5E04B0E91
:1018A000511C86E0E23AF80709F0ADCF0E94572BB1
:1018B00000915F07109160072091610730916207E6
:1018C000DC01CB01801B910BA20BB30B80935F0754
:1018D00090936007A0936107B09362078091AD0574
:1018E000882369F080915F0790916007A09161075C
:1018F000B09162070397A105B1050CF0BAC10E942F
:10190000572B60935F0770936007809361079093F4
:1019100062070E94572B00915F071091600720918A
:10192000610730916207DC01CB01801B910BA20B98
:10193000B30B80935F0790936007A0936107B09308
:1019400062078091AD05882369F080915F079091CF
:101950006007A0916107B09162070397A105B105E7
:101960000CF098C10E94572B60935F07709360073B
:1019700080936107909362078091460680934507A4
:1019800080919205813091F480912902882329F079
:10199000109249061092460695C080913A078093AE
:1019A000490680913807809346068CC08091920545
:1019B000823021F080919205833051F78091540656
:1019C000882309F4E4C14091520650915306809156
:1019D0009305AAE08A9FC001112421E04817590706
:1019E0000CF420E08091930530919405BAE08B9F30
:1019F000C0011124831B9109481759070CF45BC1DE
:101A000080E010911802112309F457C1882309F4CA
:101A100054C18091420790914307009709F0A7C1F4
:101A200068E274E08AE69AE00E94D64B8091AC05A9
:101A3000809349068091AA050E940E5A2091AA051A
:101A40008091AB05422F50E060E070E09A01AB015D
:101A5000280F311D411D511DAAE0B0E00E942379DD
:101A600060931402709315028093160290931702EC
:101A700060914006709141068AE69AE00E944733E1
:101A80004091140250911502609116027091170254
:101A90008AE69AE00E94A4330E94572B60933E0787
:101AA00070933F07809340079093410781E090E057
:101AB000909343078093420701E010E010931802CF
:101AC000009344070E94572B00915F071091600715
:101AD0002091610730916207DC01CB01801B910BE3
:101AE000A20BB30B80935F0790936007A0936107ED
:101AF000B09362078091AD05882369F080915F07FC
:101B000090916007A0916107B09162070397A105CA
:101B1000B1050CF088C10E94572B60935F0770934A
:101B200060078093610790936207C090A506D090EC
:101B3000A606E090A706F090A806D701C601B695C4
:101B4000A79597958795182F117020918B05309147
:101B50008C0540918D0550918E0580908705909061
:101B60008805A0908905B0908A0500919105A4E6AA
:101B7000B0E00E942379A50194010E943379802F5F
:101B800090E0A0E0B0E0281739074A075B0750F45F
:101B90006894C4F8C092A506D092A606E092A70663
:101BA000F092A8064091A5065091A6066091A7065E
:101BB0007091A806111148C180915E06882309F42E
:101BC00043C180918605EAE08E9FC00111242091D7
:101BD0005C0630915D06821793070CF035C1E091E9
:101BE000850528E532E0E29FC001E39F900D1124B6
:101BF000909341068093400642604093A50650931F
:101C0000A6066093A7067093A8062AC164EA74E04A
:101C10008AE69AE00E94B24B60915F07709160077C
:101C200080916107909162070E94085719CB6FE974
:101C300074E08AE69AE00E94B24B60915F0770916F
:101C4000600780916107909162070E940857CACC93
:101C500069E974E08AE69AE00E94B24B60915F07FE
:101C60007091600780916107909162070E94085708
:101C700096CD64E974E08AE69AE00E94B24B6091E6
:101C80005F077091600780916107909162070E94E1
:101C9000085735CE6FE874E08AE69AE00E94B24BAE
:101CA00060915F0770916007809161079091620772
:101CB0000E94085757CE81E0A4CE0091440700232C
:101CC00011F40C943E1A222311F40C94391A00E0FA
:101CD0008091420790914307009709F05AC0809184
:101CE000140290911502A0911602B0911702892B4F
:101CF0008A2B8B2B09F076C062E374E08AE69AE0C7
:101D00000E94D64B8091A905809349068091A70532
:101D10000E940E5A2091A7058091A805422F50E0FD
:101D200060E070E09A01AB01280F311D411D511D8B
:101D3000AAE0B0E00E942379609314027093150228
:101D4000809316029093170240911402509115024D
:101D500060911602709117028AE69AE00E94A433FD
:101D600081E090E090934307809342073BC0019746
:101D700009F0A2CE8091140290911502A091160252
:101D8000B0911702892B8A2B8B2B71F195CE20E015
:101D900037CE019739F58091140290911502A091E8
:101DA0001602B0911702892B8A2B8B2BD9F46DE286
:101DB00074E08AE69AE00E94D64B2091A60530E0B6
:101DC000A8E5B2E00E945579609314027093150261
:101DD00080931602909317021092490610924307BF
:101DE0001092420711E06ACE63E274E08AE69AE05C
:101DF0000E94D64B0E94572B00913E0710913F073F
:101E00002091400730914107AB01BC01401B510BB1
:101E1000620B730B8AE69AE00E94A4331092430788
:101E20001092420749CE6AE874E08AE69AE00E947E
:101E3000B24B60915F07709160078091610790914C
:101E400062070E94085767CE42FD8CC0112309F437
:101E500078C08091400690914106892B09F482C098
:101E60008091080184608093080181E08093460698
:101E70008091B00581110AC080914507882331F017
:101E800080914606811102C00E94585A0E94572B29
:101E900000915F0710916007209161073091620700
:101EA000DC01CB01801B910BA20BB30B80935F076E
:101EB00090936007A0936107B09362078091AD058E
:101EC000882369F080915F0790916007A091610776
:101ED000B09162070397A105B1050CF053C00E94B1
:101EE000572B60935F07709360078093610790930F
:101EF0006207F09155072091520630915306609188
:101F00004A0670914B0670934E0760934D07E0911F
:101F100049060E2F10E010934B0600934A0680915D
:101F20004C07882329F08091740580FDF7C004C018
:101F30008091740581FDF2C080919205833099F5FE
:101F4000EDC090919205913009F083CF80914606C3
:101F5000882309F47ECF2091400630914106232B3F
:101F600049F077CF809108018B7F80930801109210
:101F700046067ECF8091080184608093080190938B
:101F8000460676CF65E874E08AE69AE00E94B24B96
:101F900060915F077091600780916107909162077F
:101FA0000E9408579CCF0115110509F4D5C183E0A3
:101FB00090E0909349078093480780914A0690915A
:101FC0004B06009751F020917205820F911D27FD5D
:101FD0009A9590934B0680934A0680914A06909179
:101FE0004B0697FF04C010924B0610924A06809150
:101FF0004A0690914B068536910534F084E690E0D0
:1020000090934B0680934A068091A5069091A60670
:10201000A091A706B091A80686709927AA27BB278A
:10202000892B8A2B8B2B21F010924B0610924A069B
:10203000E0904A06F0904B06C7010E94235AE092B6
:10204000500B1E141F0414F460E001C061E088E02E
:102050000E94ED2910934B0700934A070E94572BCB
:1020600000915F071091600720916107309162072E
:10207000DC01CB01801B910BA20BB30B80935F079C
:1020800090936007A0936107B09362078091AD05BC
:10209000882369F080915F0790916007A0916107A4
:1020A000B09162070397A105B1050CF05AC10E94D7
:1020B000572B60935F07709360078093610790933D
:1020C0006207F09054064091A5065091A6066091D3
:1020D000A7067091A806FF2009F454C180919505C8
:1020E000AAE08A9FC0011124209152063091530624
:1020F000821793070CF046C144604093A5065093A5
:10210000A6066093A7067093A80681E08093AE06AA
:1021100061E085E40E94ED2961E075C180914A0784
:1021200090914B07009739F5EE2329F16115710560
:10213000C9F46091770570917805AAE0A69FA00187
:10214000A79F500D1124509348064093470661E025
:1021500070E07093490760934807409147074093A8
:10216000460709C01616170634F463E070E0709352
:102170004907609348076AE0F69FA001112461E0D7
:102180002417350708F060E0209147063091480693
:10219000232B21F0EE2311F061119AC02091480702
:1021A000309149072130310539F4209147063091AB
:1021B0004806232B09F495C02091450721110BC037
:1021C00020914606222339F0209147063091480697
:1021D000232B09F48DC02091480730914907243002
:1021E000310539F42091440630914506232B09F43A
:1021F00098C02091440630914506232B71F0209120
:1022000083053091840540914A0650914B06240F76
:10221000351F30934B0620934A0620914607222310
:1022200009F44CC018161906B4F4E11114C0209139
:102230007505309176054AE0429FC001439F900D9D
:102240001124909343068093420685E090E090939A
:102250004907809348078091420690914306892B55
:1022600019F0EE2309F464C0809142069091430670
:10227000892B49F48091480790914907059719F4F3
:10228000EE2309F45EC080914807909149070697B4
:1022900009F093CEE11191CE61115AC08091810570
:1022A00090918205892B09F453C08091810590910A
:1022B000820590934B0680934A067FCE8091480713
:1022C00090914907039709F078CEE11176CE44C08A
:1022D00020917F053091800530934B0620934A066C
:1022E0005DCF23E030E0309349072093480764CF67
:1022F00040917B0550917C057AE0749F9001759F19
:10230000300D1124309345062093440624E030E03C
:1023100030934907209348072091470720934607A9
:102320005ACF23E030E0309349072093480761CF2C
:1023300080917D0590917E0590934B0680934A068F
:1023400093CF86E090E090934907809348079BCF16
:1023500010924B0610924A061092490710924807B5
:102360002CCE60E874E08AE69AE00E94B24B60915D
:102370005F077091600780916107909162070E94EA
:10238000085795CE42FF35C0FF20D1F080919505CA
:10239000BAE08B9FC0011124209152063091530660
:1023A00028173907DCF080919605EAE08E9FC0017E
:1023B0001124209152063091530628173907E4F072
:1023C00080919705813029F080919905813009F03D
:1023D000D0C2809129028111DAC3CBC2F4E04F2729
:1023E0004093A5065093A6066093A7067093A8068F
:1023F000E7CFF110D8CFE4CF1092AE0660E085E4CD
:102400000E94ED2960E084E40E94ED290E94572B90
:1024100000915F071091600720916107309162077A
:10242000DC01CB01801B910BA20BB30B80935F07E8
:1024300090936007A0936107B09362078091AD0508
:10244000882369F080915F0790916007A0916107F0
:10245000B09162070397A105B1050CF04EC48091BD
:102460002902882329F080912802882309F4ACC02E
:102470000E94572B60935F077093600780936107FA
:10248000909362078091A50682FF05C061E081E418
:102490000E94ED2970C0809126029091270282301F
:1024A000910509F04AC08091A4068823B1F081E02B
:1024B0008093AC0680912402909125029093A3060C
:1024C0008093A20681E090E09093270280932602F9
:1024D00010925E0710925D074EC08091A5058F3F58
:1024E00009F449C0E091A50525E0E202F0011124BC
:1024F000EE5AF94F82818823F1F1809154068823A6
:10250000D1F1809163068823B1F18091AE068823D2
:1025100091F12091520630915306809120029091C2
:1025200021028217930738F50091A2061091A306A5
:102530000115110509F4F2C31EC00197E1F4809161
:10254000A2069091A306892BB1F41092AB061092CB
:10255000AC068091A40681110EC080912202909158
:1025600023029093A3068093A20682E090E09093CA
:102570002702809326020E94572B00915F0710913B
:1025800060072091610730916207DC01CB01801B5D
:10259000910BA20BB30B80935F0790936007A093FE
:1025A0006107B09362078091AD05882369F080913F
:1025B0005F0790916007A0916107B0916207039750
:1025C000A105B1050CF089C48091AF06811113C03B
:1025D0008DE00E94C52961E0892B09F060E08DE063
:1025E0000E94ED2980912902811102C081E001C081
:1025F0008AE08093AF068091060182FD02C0129AA4
:1026000001C012988091AE06811105C0139A809185
:1026100008018D7F04C01398809108018260809327
:1026200008018091060187FD02C0149A01C0149828
:102630008091060186FD02C0159A01C0159880910F
:10264000AD06811105C0169A809108018E7F04C0E5
:102650001698809108018160809308018091AC06F2
:10266000811105C0179A809108018F7E04C01798C8
:10267000809108018061809308018091AB068111EF
:1026800005C0479A80910801877F04C047988091D0
:10269000080188608093080180911002882309F462
:1026A000C6C08091B9058111C2C00E94572B6093AA
:1026B0005F0770936007809361079093620783E3DD
:1026C0009BE00E94AB5005EC19E0D12C38EE832E34
:1026D00033E0932EA12CB12C40E3E42E43E0F42E02
:1026E0001C821B828D829E82AF82B886FA82E9822A
:1026F000DD86F801219131918F018091370B909106
:10270000380B28173907F1F4CE0101960E94A74F24
:10271000873111F08C31B1F4CE0101960E942E4D1B
:10272000892B81F02B813C818D819E81AF81B88581
:1027300049855A856B857C854B8F5C8F6D8F7E8F2D
:10274000DD840AC0D39454E0D512CACF88EE93E05A
:10275000A0E0B0E020E030E03093400B20933F0B4E
:102760008093410B9093420BA093430BB093440B87
:102770006B8D7C8D8D8D9E8D6093450B7093460B7C
:102780008093470B9093480BD092490B8DE39BE0CD
:102790000E942550882311F18DE39BE00E942E4D6D
:1027A000892BE1F01092770C00E010E0AE014F5F52
:1027B0005F4F6DE37BE08BE29BE00E947B29811100
:1027C0009DC30F5F1F4F0F39110581F7F801E958BD
:1027D000F34F10828091770C811199C30E94572B7F
:1027E00000915F07109160072091610730916207A7
:1027F000DC01CB01801B910BA20BB30B80935F0715
:1028000090936007A0936107B09362078091AD0534
:10281000882369F080915F0790916007A09161071C
:10282000B09162070397A105B1050CF05BC58091DB
:10283000AA06882389F06BE674E08AE69AE00E9493
:10284000B24B8EE290E00E94F93568EE73E080E0D2
:1028500090E00E941F2BF5CF8AE69AE00E940328A1
:10286000892B99F08AE69AE00E942448823521F467
:1028700081E08093AA0609C0863539F49091AD05B0
:1028800081E0911180E08093AD058091A9068111CE
:1028900041C68AE08093A9066CEB73E08AE69AE071
:1028A0000E94B14B63EC73E08AE69AE00E94B14B60
:1028B0004091590B50915A0B60915B0B70915C0BDE
:1028C0008AE69AE00E945D336BEC73E08AE69AE058
:1028D0000E94B14B4091550B5091560B6091570B94
:1028E0007091580B8AE69AE00E945D3362ED73E0C6
:1028F0008AE69AE00E94B14B4091590B50915A0BD5
:1029000060915B0B70915C0B8091550B9091560B15
:10291000A091570BB091580B481B590B6A0B7B0BBE
:102920008AE69AE00E945D336AED73E08AE69AE0F7
:102930000E94B14B40915D0B50915E0B052E000C37
:10294000660B770B8AE69AE00E945D3361EE73E0D6
:102950008AE69AE00E94B14B6091500B4AE050E049
:102960008AE69AE00E94614B8AE69AE00E94424B16
:10297000D1C580919905843009F0B7C0909159076D
:1029800090935C07009152061091530620915507D1
:10299000FAE02F9F900111242253310941E00217E0
:1029A00013070CF440E040935407209152073091F4
:1029B00053072550310981E00217130708F480E01E
:1029C00080935107992329F0411102C090E001C082
:1029D000982F90935007073222E012074CF0209175
:1029E0004E0630914F062632324010F4411101C09C
:1029F00080E080934F07911103C0882309F45AC0E7
:102A000020914C0630914D06232B09F069C020918E
:102A10005A0730915B07A9014B7F452BA1F49923FD
:102A200079F081E090E090935B0780935A078CE205
:102A300091E090934D0680934C0661E085E418C0C8
:102A400082E090E02CC021303105A9F482E090E0D2
:102A500090935B0780935A0788E592E090934D0628
:102A600080934C0660E085E40E94ED2960E084E4F8
:102A70000E94ED2935C022303105B1F4882369F078
:102A800083E090E090935B0780935A078CE291E09B
:102A900090934D0680934C0615C084E090E090938F
:102AA0005B0780935A071CC023303105C9F484E0CA
:102AB00090E0CECF013263E0160734F061E085E4A8
:102AC0000E94ED2961E0D3CF60E085E40E94ED290A
:102AD00060E084E40E94ED2910925B0710925A078F
:102AE000109353070093520721C0809199058130BC
:102AF00041F48091590780935C07882331F061E0AD
:102B000005C080919A05813029F060E085E40E943B
:102B1000ED290CC080916D0681114AC0F6CF8091DD
:102B2000570790915807019709F47BC080919E0543
:102B30008330B1F480916D06882391F08091A005D7
:102B40006AE0869FC001112420916B0630916C06CB
:102B5000281739070CF48DC061E084E40E94ED2948
:102B600080919705813019F48091560784C0809137
:102B70009705823009F093C080919805813009F063
:102B80008EC0FF2009F48BC01092A40674C010926E
:102B9000AE0610925C0760E085E40E94ED2960E0DB
:102BA00084E40E94ED2910925B0710925A072ECC04
:102BB00080919C0520916B0630916C068823E9F08A
:102BC000FF20D9F080919C057AE0879FC0011124F5
:102BD0002817390794F08091520690915306821776
:102BE00093075CF461E085E40E94ED2982E090E0C7
:102BF000909358078093570799CF80919C0588231D
:102C000019F180915707909158070297E9F4809144
:102C10009C05AAE08A9FC0011124281739075CF09F
:102C200013C080919B05BAE08B9FC00111248217CD
:102C300093070CF07BCF60E085E40E94ED291092B1
:102C400058071092570772CF80919B0540919D05C0
:102C50005AE0859FC0011124841B91092817390768
:102C60000CF05DCF61E085E40E94ED2981E090E009
:102C7000BFCF60E072CF8093AE0680916D0688234F
:102C800059F18091A405EAE08E9FC00111242091A2
:102C90006B0630916C06281739073CF41DC081E0A3
:102CA0008093A4061092AE06E8CF8091A1058130F2
:102CB00071F48091AD06811106C06FE474E08AE67C
:102CC0009AE00E94D64B81E08093AD069FCB809125
:102CD000A105823009F4E8C38091AD06882331F064
:102CE00067E374E08AE69AE00E94D64B1092AD0644
:102CF000109251061092500689CB6BE774E08AE679
:102D00009AE00E94B24B60915F07709160078091DA
:102D10006107909162070E940857A1CBA0906106BD
:102D2000B0906206C09019027AE0C79E600111243B
:102D300084EA882E82E0982EC5010B2C000CAA0B89
:102D4000BB0B8F8B988FA98FBA8FD4018D914D01BA
:102D50000F5F1F4FBAE08B0220011124A414B504A9
:102D60000CF441C0D401EC91BAE0EB02F001112463
:102D7000EA15FB05C4F1D801A75EBD4F6C91119710
:102D8000CC902AE0C29E600111240D2C000CEE08AC
:102D9000FF08052C000C660877082F89388D498DAF
:102DA0005A8D24193509460957098AE0689FB001F0
:102DB0001124CB01770FAA0BBB0BBC01CD016C1901
:102DC0007D098E099F090E94B4739F01FF0F440B78
:102DD000550B24193509460957090E940779C20E77
:102DE000D31EE41EF51E0530110509F0AECF97E99C
:102DF000A916B10434F0C0901E02AAE0CA9E600178
:102E00001124D0922102C0922002E091A505B5E0E4
:102E1000EB02F0011124EE5AF94F80819181860175
:102E2000081B190B17FF03C0119501951109C8164E
:102E3000D90620F481E08093AC0606C08C159D0570
:102E400050F581E08093AB0680911F0290E0909353
:102E5000A3068093A20681E090E0909327028093DE
:102E600026020A301105BCF48091A2069091A306B7
:102E7000969587959093A3068093A2060530110539
:102E800054F48091A2069091A3069695879590930D
:102E9000A3068093A2068091AD05882309F46BCB2D
:102EA0006EE574E08AE69AE00E94B24BA801110F29
:102EB000660B770B8AE69AE00E945D3367E574E063
:102EC0008AE69AE00E94B24B6091A2067091A30636
:102ED0008AE69AE00E9447334ECB66E774E08AE6C2
:102EE0009AE00E94B24B60915F07709160078091F9
:102EF0006107909162070E94085766CB89818A30EA
:102F000009F464CCF801E958F34F80835ACC0F39A7
:102F1000110559F46EE971E08DE39BE00E94575270
:102F20008DE39BE00E94485059CC80E090E00E94E5
:102F300068707C0110923C0B10923B0BBC0180EA44
:102F400093E00E94DE75892B19F481E090E024C0A3
:102F5000B70184EA93E00E94DE75892B19F483E0BF
:102F600090E01AC0B70189EA93E00E94DE75892BD0
:102F700019F484E090E010C0B7018DEA93E00E945C
:102F8000DE75892BB1F3B70185EB93E00E94DE7506
:102F9000892B31F485E090E090933C0B80933B0BC0
:102FA00081E090E00E94687090933A0B8093390B17
:102FB0008091310B9091320B892B59F40E94572B41
:102FC0004B015C0101E010E027E7C22E2CE0D22E7D
:102FD00036C000E010E0E091310BF091320BE00FD1
:102FE000F11F80819181892B49F382819381009720
:102FF00051F00E94AB76E091310BF091320BE00F73
:10300000F11F138212820C5F1F4FE5CF0E94572BD6
:10301000DC01CB0188199909AA09BB090B97A10505
:10302000B10508F0ECC0AE014F5F5F4F6DE37BE090
:103030008BE29BE00E947B29782E811107C08BE2F6
:103040009BE00E94B451882309F3D9C00E94572BFA
:103050004B015C010330110509F488C03CF40130D8
:10306000110569F00230110541F1C1C004301105AC
:1030700009F46AC00530110509F4B5C0B8C029814A
:103080002D3009F4B4C02A3019F47110C2C0B7C091
:10309000822F022E000C990B2F8F0E9491752F8D7D
:1030A000892B19F42D3209F014C12093770C2224B6
:1030B0002394312C02E010E09EC021017FEF471ADB
:1030C000570A80EA4816510408F003C129812A33BF
:1030D00041F5F101E958F34F10820091310B109145
:1030E000320B0115110509F4D6C1D8010D90BC9120
:1030F000A02DBE8BAD8BAB2B79F06D897E8987E7D8
:103100009CE00E94DE750C5F1F4F892B71F7212C0C
:10311000312C04E010E06FC0E7E7FCE0FE8BED8BA4
:10312000BEC1822F022E000C990B2F8F0E94917529
:103130002F8D892B19F42D3209F0CBC0F101E958FC
:10314000F34F2083120153C0C1010196803A9105CB
:1031500008F0BFC02981203209F449C0F101E958C3
:10316000F34F20831C0103E010E045C091012F5F65
:103170003F4F203A310508F0ACC089818A3059F5BB
:10318000F101E958F34F1082E091310BF091320BCD
:10319000309709F49EC08F0180819181009709F4D6
:1031A00098C034962D893E8928173907A1F7D60192
:1031B0000D900020E9F7CD0187579C400E941676BC
:1031C000F80193838283009709F483C067E77CE06A
:1031D0000E94E77581C08D3051F0F101E958F34F3D
:1031E0008083190104C089818A3009F475C00630D2
:1031F000110509F44ACF0115110509F020CF61EA44
:1032000071E08DE39BE00E9457528DE39BE00E94AA
:103210004850A090390BB0903A0B80903B0B9090A7
:103220003C0BC0902F0BD090300BF6010081118128
:1032300001151105D1F1F80101900020E9F731974E
:103240002F01401A510AB801C5010E94DE753C01E8
:10325000F801E40DF51D319780818A3209F03FC0F5
:10326000A20141505109B801C5010E94EE756728BD
:1032700011F0892BB1F4D60112968D919C91139780
:103280008730910559F4D6011496ED91FC9115976C
:103290008BE29BE01995882391F00DC08815990564
:1032A00091F3B6E0CB0ED11CC0CF64E971E08DE3A1
:1032B0009BE00E9457528DE39BE00E944850809112
:1032C000390B90913A0B0E94AB76C7010E94AB7606
:1032D00085CA00E010E08FCF01E010E08CCF6728B6
:1032E00051F2DFCF61E774E08AE69AE00E94B24BC8
:1032F00060915F077091600780916107909162070C
:103300000E94085794CA109229024091C60650E0C4
:10331000542F44278091C506482B50933107409382
:1033200030072091C80630E0322F22278091C7064F
:10333000282B30932D0720932C078091CA0690E00C
:10334000982F88276091C906862B90932B0780932E
:103350002A078091CC0690E0982F88276091CB06B1
:10336000862B90932F0780932E076091CE0670E0F6
:10337000762F6627E091CD066E2B7093270760931A
:1033800026076091D00670E0762F6627E091CF0681
:103390006E2B7093290760932807E091D206F0E026
:1033A000FE2FEE276091D106E62BF0932507E093E0
:1033B00024076091D40670E0762F6627A091D3068B
:1033C0006A2B7093330760933207A091D506A093C0
:1033D0003407B091DC06B0933A07A1FBBB27B0F9E4
:1033E000B0933807B091F206B0933B07B170B09339
:1033F0003C075093B4064093B30630934F06209396
:103400004E0690933C0680933B06F093B206E09301
:10341000B10670933A06609339068091DA0680937C
:1034200055078091DB068093B00681E090910807F4
:10343000913009F080E08093A406A2FB882780F9F0
:1034400080935607A3FBAA27A0F9A093590781E010
:103450009091D706913009F080E080934C0781E08D
:103460009091D606913009F080E0809347070C9444
:10347000C50A11110C94680E0C94090D11110C94CD
:10348000680E6EE174E08AE69AE00E94D64B1092D4
:1034900049060C945E0DA7E7BCE0BE8BAD8B212CDA
:1034A000312C05E010E0A7CE809150069091510696
:1034B000892B11F00C9406128091AD06811113C076
:1034C0004091A20528E532E0429FC001439F900D44
:1034D0001124909351068093500681E08093AD06AD
:1034E00068E474E011C04091A30528E532E0429FF2
:1034F000C001439F900D1124909351068093500674
:103500001092AD0660E474E08AE69AE00E94D64B21
:103510000C9406126F960FB6F894DEBF0FBECDBFA7
:10352000DF91CF911F910F91FF90EF90DF90CF909F
:10353000BF90AF909F908F907F906F905F904F90D3
:103540003F902F9008952F923F924F925F926F92EB
:103550007F928F929F92AF92BF92CF92DF92EF9223
:10356000FF920F931F93CF93DF93CDB7DEB7A09752
:103570000FB6F894DEBF0FBECDBF7E0123E1E20E91
:10358000F11C6FE574E0C7010E94A24A64E170E09B
:10359000C7010E94C34961E085EE93E00E94793142
:1035A000882311F40C94E1271E2D0F2D82E0582E54
:1035B00093E0492E24E0322E38E6C32E33E0D32E9A
:1035C00041E050E0BE01615E7F4F89E79BE00E94D1
:1035D0009239892B11F40C94DE276F8D6A3031F00B
:1035E0006D3021F0C7010E94EA49EACF60E879E036
:1035F0008AE69AE00E94B24B4F89588D6B897C898C
:103600008AE69AE00E94E0476EE779E08AE69AE06F
:103610000E94D64B40E050E06DE3C7010E94414953
:103620002F89388D1216130614F00C94D7278F3F6C
:103630004FEF940711F40C94D727AC014F5F5F4F05
:10364000B701CE010D960E94B64ACE010D960E949A
:10365000E24866E779E0CE0101960E94534ABE0136
:103660006F5F7F4FC7010E946F49282ECE010196E0
:103670000E944E4A222009F448C089899A890C97F1
:1036800011F00C94D327A12CB12C812CB501CE01C3
:103690000D960E945D49FC0180810E94A05A982EDF
:1036A000929440EF9422B5016F5F7F4FCE010D964B
:1036B0000E945D49FC0180810E94A05AF501F595A8
:1036C000E79521E030E02C0F3D1FE20FF31F890D3D
:1036D00080833AE0A316B10411F48824839442E075
:1036E000A40EB11C8CE0A816B10481F6882049F024
:1036F00086E0FE013196A4E9B2E001900D928A9530
:10370000E1F70E948B5A0C94D3276FE679E0CE0143
:1037100001960E94534ABE016F5F7F4FC7010E940E
:103720006F49B82ECE0101960E944E4ABB2009F483
:103730005BC0DA82C9821B821C821D821E826D855B
:103740007E85CE0101960E94E64B882329F08B816D
:103750009C81AD81BE813AC06AE679E0CE010796D0
:103760000E94534A89899A892B853C858217930741
:10377000F9F4892BD9F0AD84BE848F809884F5014B
:1037800081915F01882391F0082E000C990B0E9413
:10379000AD753C01F40181914F01082E000C990B8D
:1037A0000E94AD756816790651F302C02224239455
:1037B000CE0107960E944E4A222081F08091FC0B98
:1037C0009091FD0BA091FE0BB091FF0B8093F10B3C
:1037D0009093F20BA093F30BB093F40B8FEE9BE05E
:1037E0000E94C0570C94D32760E679E0CE01019681
:1037F0000E94534ABE016F5F7F4FC7010E946F490D
:10380000B82ECE0101960E944E4ABB2031F1DA82D9
:10381000C9821B821C821D821E826D857E85CE011F
:1038200001960E94E64B882391F08B819C81AD81AB
:10383000BE818093EB0B9093EC0BA093ED0BB093B8
:10384000EE0BCE0101960E94C0570C94D327CE01F7
:1038500001960E94C0570C94D32766E579E0CE010B
:1038600001960E94534ABE016F5F7F4FC7010E94BD
:103870006F49B82ECE0101960E944E4ABB2031F10D
:10388000DA82C9821B821C821D821E826D857E8522
:10389000CE0101960E94E64B882391F08B819C819A
:1038A000AD81BE818093E50B9093E60BA093E70B6F
:1038B000B093E80BCE0101960E94C0570C94D32719
:1038C000CE0101960E94C0570C94D3276EE479E094
:1038D000CE0101960E94534ABE016F5F7F4FC70120
:1038E0000E946F49B82ECE0101960E944E4ABB201D
:1038F00031F1DA82C9821B821C821D821E826D8593
:103900007E85CE0101960E94E64B882391F08B8143
:103910009C81AD81BE818093DF0B9093E00BA093DF
:10392000E10BB093E20BCE0101960E94C0570C94BC
:10393000D327CE0101960E94C0570C94D3276AE387
:1039400079E0CE0101960E94534ABE016F5F7F4F1E
:10395000C7010E946F49B82ECE0101960E944E4ABF
:10396000B1100C94D32760E379E0CE0101960E9458
:10397000534ABE016F5F7F4FC7010E946F49B82E47
:10398000CE0101960E944E4ABB2041F0CE010D9619
:103990000E94D748609372050C94D32760E279E0C7
:1039A000CE0101960E94534ABE016F5F7F4FC7014F
:1039B0000E946F49B82ECE0101960E944E4ABB204C
:1039C00041F0CE010D960E94D748609373050C9488
:1039D000D32763E179E0CE0101960E94534ABE01EC
:1039E0006F5F7F4FC7010E946F49B82ECE010196CD
:1039F0000E944E4ABB2041F0CE010D960E94D7484E
:103A0000609374050C94D32761E079E0CE010196B0
:103A10000E94534ABE016F5F7F4FC7010E946F49EA
:103A2000B82ECE0101960E944E4ABB2051F0CE0125
:103A30000D960E94D74870937605609375050C9497
:103A4000D32760EF78E0CE0101960E94534ABE0171
:103A50006F5F7F4FC7010E946F49B82ECE0101965C
:103A60000E944E4ABB2051F0CE010D960E94D748CD
:103A700070937E0560937D050C94D32764EE78E007
:103A8000CE0101960E94534ABE016F5F7F4FC7016E
:103A90000E946F49B82ECE0101960E944E4ABB206B
:103AA00051F0CE010D960E94D74870937A0560932D
:103AB00079050C94D32769ED78E0CE0101960E9438
:103AC000534ABE016F5F7F4FC7010E946F49B82EF6
:103AD000CE0101960E944E4ABB2051F0CE010D96B8
:103AE0000E94D74870938205609381050C94D32778
:103AF00069EC78E0CE0101960E94534ABE016F5FE7
:103B00007F4FC7010E946F49B82ECE0101960E94D7
:103B10004E4ABB2051F0CE010D960E94D7487093BB
:103B20007805609377050C94D3276AEB78E0CE0193
:103B300001960E94534ABE016F5F7F4FC7010E94EA
:103B40006F49B82ECE0101960E944E4ABB2051F01B
:103B5000CE010D960E94D7487093800560937F0533
:103B60000C94D3276DEA78E0CE0101960E94534A67
:103B7000BE016F5F7F4FC7010E946F49B82ECE0113
:103B800001960E944E4ABB2051F0CE010D960E9434
:103B9000D74870937C0560937B050C94D32761EA2A
:103BA00078E0CE0101960E94534ABE016F5F7F4FBD
:103BB000C7010E946F49B82ECE0101960E944E4A5D
:103BC000BB2051F0CE010D960E94D748709384051A
:103BD000609383050C94D3276BE878E0CE010196BF
:103BE0000E94534ABE016F5F7F4FC7010E946F4919
:103BF000B82ECE0101960E944E4ABB2081F0CE0124
:103C00000D960E94D7489B0121503109233631057A
:103C100010F00C94D327609385050C94D3276CE7A0
:103C200078E0CE0101960E94534ABE016F5F7F4F3C
:103C3000C7010E946F49B82ECE0101960E944E4ADC
:103C4000BB2081F0CE010D960E94D7489B012150E8
:103C500031092A35310510F00C94D327609386057D
:103C60000C94D3276FE578E0CE0101960E94534A69
:103C7000BE016F5F7F4FC7010E946F49B82ECE0112
:103C800001960E944E4ABB20A9F0CE010D960E94DB
:103C9000D748611571058105910511F40C94D3275E
:103CA00060938705709388058093890590938A05B2
:103CB0000C94D32767E478E0CE0101960E94534A22
:103CC000BE016F5F7F4FC7010E946F49B82ECE01C2
:103CD00001960E944E4ABB2081F0CE010D960E94B3
:103CE000D74860938B0570938C0580938D059093D6
:103CF0008E050E94585A0C94D3276BE278E0CE01CF
:103D000001960E94534ABE016F5F7F4FC7010E9418
:103D10006F49B82ECE0101960E944E4ABB2079F021
:103D2000CE010D960E94D7486115710511F40C94CF
:103D3000D3277093900560938F050C94D32768E187
:103D400078E0CE0101960E94534ABE016F5F7F4F1B
:103D5000C7010E946F49B82ECE0101960E944E4ABB
:103D6000BB2041F0CE010D960E94D748609391058B
:103D70000C94D3276DE078E0CE0101960E94534A5F
:103D8000BE016F5F7F4FC7010E946F49B82ECE0101
:103D900001960E944E4ABB2081F0CE010D960E94F2
:103DA000D7489B01215031092336310510F00C947E
:103DB000D327609396050C94D32762E078E0CE0178
:103DC00001960E94534ABE016F5F7F4FC7010E9458
:103DD0006F49B82ECE0101960E944E4ABB2081F059
:103DE000CE010D960E94D7489B0121503109233600
:103DF000310510F00C94D327609395050C94D327CC
:103E000066EF77E0CE0101960E94534ABE016F5FD4
:103E10007F4FC7010E946F49B82ECE0101960E94C4
:103E20004E4ABB2081F0CE010D960E94D7489B01DF
:103E3000215031092336310510F00C94D3276093BB
:103E400093050C94D32767EE77E0CE0101960E948C
:103E5000534ABE016F5F7F4FC7010E946F49B82E62
:103E6000CE0101960E944E4ABB2081F0CE010D96F4
:103E70000E94D7489B01215031092336310510F0AB
:103E80000C94D327609394050C94D32769ED77E0C5
:103E9000CE0101960E94534ABE016F5F7F4FC7015A
:103EA0000E946F49B82ECE0101960E944E4ABB2057
:103EB00009F46EC0BE01635F7F4FCE0149960E9438
:103EC000894A60EF73E0CE0101960E94A24ABE01CA
:103ED0006F5F7F4FCE0149960E946F49811117C0D5
:103EE00066EF73E0CE0107960E94A24ABE01695FA9
:103EF0007F4FCE0149960E946F49BB24B394811134
:103F000001C0B12CCE0107960E944E4A02C0BB24CC
:103F1000B394CE0101960E944E4ABB2021F010922C
:103F2000280221E02DC06CEF73E0CE0101960E94C3
:103F3000A24ABE016F5F7F4FCE0149960E946F4932
:103F4000B82ECE0101960E944E4AB11018C060E012
:103F500074E0CE0101960E94A24ABE016F5F7F4FBE
:103F6000CE0149960E946F49282FCE01019628A3C1
:103F70000E944E4A28A1222319F022E001C023E02A
:103F800020939205CE0149960E944E4A0C94D32765
:103F90006EEC77E0CE0101960E94534ABE016F5F3E
:103FA0007F4F812F902F0E946F49B82ECE0101962E
:103FB0000E944E4ABB2071F0CE010D960E94D74858
:103FC0009B01215031092336310508F0ECC760937D
:103FD0009B05E9C765EC77E0CE0101960E94534A44
:103FE000BE016F5F7F4F812F902F0E946F49B82EC7
:103FF000CE0101960E944E4ABB2091F0BE01635F44
:104000007F4FCE0101960E94894ACE0101960E94FF
:10401000467180939905CE0101960E944E4AC3C70E
:1040200068EB77E0CE0101960E94534ABE016F5FB4
:104030007F4F812F902F0E946F49B82ECE0101969D
:104040000E944E4ABB2091F0BE01635F7F4FCE01BC
:1040500001960E94894ACE0101960E94F1708093D8
:104060009A05CE0101960E944E4A9DC76AEA77E002
:10407000CE0101960E94534ABE016F5F7F4F812F90
:10408000902F0E946F49B82ECE0101960E944E4A91
:10409000BB2059F0CE010D960E94D74864367105B9
:1040A00008F081C760939D057EC760EA77E0CE0186
:1040B00001960E94534ABE016F5F7F4F812F902F60
:1040C0000E946F49B82ECE0101960E944E4ABB2035
:1040D00071F0CE010D960E94D7489B012150310905
:1040E0002336310508F05FC760939C055CC764E91F
:1040F00077E0CE0101960E94534ABE016F5F7F4F69
:10410000812F902F0E946F49B82ECE0101960E94F8
:104110004E4ABB2071F0CE010D960E94D7489B01FC
:10412000215031092336310508F03DC76093A005C1
:104130003AC76AE877E0CE0101960E94534ABE0171
:104140006F5F7F4F812F902F0E946F49B82ECE0155
:1041500001960E944E4ABB2091F0BE01635F7F4FE3
:10416000CE0101960E94894ACE0101960E944671B5
:1041700080939E05CE0101960E944E4A14C76CE7BB
:1041800077E0CE0101960E94534ABE016F5F7F4FD8
:10419000812F902F0E946F49B82ECE0101960E9468
:1041A0004E4ABB2091F0BE01635F7F4FCE01019666
:1041B0000E94894ACE0101960E94F17080939F056A
:1041C000CE0101960E944E4AEEC664E777E0CE012A
:1041D00001960E94534ABE016F5F7F4F812F902F3F
:1041E0000E946F49B82ECE0101960E944E4ABB2014
:1041F00009F46DC0BE01635F7F4FCE0149960E94F6
:10420000894A69EB74E0CE0101960E94534ABE01CF
:104210006F5F7F4FCE0149960E946F49811117C091
:1042200063EB74E0CE0107960E94534ABE01695FBA
:104230007F4FCE0149960E946F49BB24B3948111F0
:1042400001C0B12CCE0107960E944E4A02C0BB2489
:10425000B394CE0101960E944E4ABB2021F01092E9
:10426000280221E02DC06EEA74E0CE0101960E9482
:10427000534ABE016F5F7F4FCE0149960E946F493E
:10428000B82ECE0101960E944E4AB11018C069EABC
:1042900074E0CE0101960E94534ABE016F5F7F4FCA
:1042A000CE0149960E946F49282FCE01019628A37E
:1042B0000E944E4A28A1222319F023E001C022E0E7
:1042C00020939705CE0149960E944E4A6CC668E637
:1042D00077E0CE0101960E94534ABE016F5F7F4F87
:1042E000812F902F0E946F49B82ECE0101960E9417
:1042F0004E4ABB2091F0BE01635F7F4FCE01019615
:104300000E94894ACE0101960E94F170809398051F
:10431000CE0101960E944E4A46C664E577E0CE0182
:1043200001960E94534ABE016F5F7F4F812F902FED
:104330000E946F49B82ECE0101960E944E4ABB20C2
:1043400091F0BE01635F7F4FCE0101960E94894AC2
:10435000CE0101960E94F1708093A105CE010196D5
:104360000E944E4A20C66EE377E0CE0101960E947D
:10437000534ABE016F5F7F4F812F902F0E946F497C
:10438000B82ECE0101960E944E4ABB2039F0CE01D4
:104390000D960E94D7486093A20505C667E277E0B4
:1043A000CE0101960E94534ABE016F5F7F4F812F5D
:1043B000902F0E946F49B82ECE0101960E944E4A5E
:1043C000BB2039F0CE010D960E94D7486093A3051B
:1043D000EAC567E177E0CE0101960E94534ABE012B
:1043E0006F5F7F4F812F902F0E946F49B82ECE01B3
:1043F00001960E944E4ABB2061F0CE010D960E94AC
:10440000D7488FEF860F833608F0CDC56093A4059B
:10441000CAC562E077E0CE0101960E94534ABE0110
:104420006F5F7F4F812F902F0E946F49B82ECE0172
:1044300001960E944E4ABB2059F0CE010D960E9473
:10444000D748161617060CF0AEC56093A605ABC587
:104450006AEE76E0CE0101960E94534ABE016F5F7C
:104460007F4F812F902F0E946F49B82ECE01019669
:104470000E944E4ABB2059F0CE010D960E94D748AB
:10448000161617060CF08FC56093A7058CC563ED53
:1044900076E0CE0101960E94534ABE016F5F7F4FC6
:1044A000812F902F0E946F49B82ECE0101960E9455
:1044B0004E4ABB2059F0CE010D960E94D7481616E1
:1044C00017060CF070C56093A8056DC56FEB76E01C
:1044D000CE0101960E94534ABE016F5F7F4F812F2C
:1044E000902F0E946F49B82ECE0101960E944E4A2D
:1044F000BB2059F0CE010D960E94D748161617061C
:104500000CF051C56093A9054EC56EEA76E0CE0168
:1045100001960E94534ABE016F5F7F4F812F902FFB
:104520000E946F49B82ECE0101960E944E4ABB20D0
:1045300059F0CE010D960E94D748161617060CF0BA
:1045400032C56093AA052FC56EE976E0CE010196CB
:104550000E94534ABE016F5F7F4F812F902F0E94B0
:104560006F49B82ECE0101960E944E4ABB2059F0E9
:10457000CE010D960E94D748161617060CF013C5EB
:104580006093AB0510C561E976E0CE0101960E940B
:10459000534ABE016F5F7F4F812F902F0E946F495A
:1045A000B82ECE0101960E944E4ABB2059F0CE0192
:1045B0000D960E94D748161617060CF0F4C46093A7
:1045C000AC05F1C461E876E0CE0107960E94534A3B
:1045D000BE01695F7F4F812F902F0E946F4981112B
:1045E00017C061E776E0CE0101960E94534ABE01F2
:1045F0006F5F7F4F812F902F0E946F49BB24B39430
:10460000811101C0B12CCE0101960E944E4A02C018
:10461000BB24B394CE0107960E944E4ABB2069F199
:10462000CE010D960E94D748613009F0BCC450926B
:104630005406109255065092590660935A065092AD
:104640005E0650925F065092630640926406509256
:1046500068063092690650926D0685E080936E067A
:104660005092720686E0809373065092770687E038
:10467000809378061092280296C46BE676E0CE010D
:1046800001960E94534ABE016F5F7F4F812F902F8A
:104690000E946F49B82ECE0101960E944E4ABB205F
:1046A00041F0BE01635F7F4F80E090E00E94CF71D8
:1046B0007AC463E676E0CE0101960E94534ABE01B9
:1046C0006F5F7F4F812F902F0E946F49B82ECE01D0
:1046D00001960E944E4ABB2041F0BE01635F7F4FAE
:1046E00081E090E00E94CF715EC469E576E0CE0182
:1046F00001960E94534ABE016F5F7F4F812F902F1A
:104700000E946F49B82ECE0101960E944E4ABB20EE
:1047100041F0BE01635F7F4F82E090E00E94CF7165
:1047200042C464E576E0CE0101960E94534ABE0180
:104730006F5F7F4F812F902F0E946F49B82ECE015F
:1047400001960E944E4ABB2041F0BE01635F7F4F3D
:1047500083E090E00E94CF7126C46FE476E0CE0142
:1047600001960E94534ABE016F5F7F4F812F902FA9
:104770000E946F49B82ECE0101960E944E4ABB207E
:1047800041F0BE01635F7F4F84E090E00E94CF71F3
:104790000AC46AE476E0CE0101960E94534ABE0143
:1047A0006F5F7F4F812F902F0E946F49B82ECE01EF
:1047B00001960E944E4ABB2041F0BE01635F7F4FCD
:1047C00085E090E00E94CF71EEC361E476E0CE0117
:1047D00001960E94534ABE016F5F7F4F812F902F39
:1047E0000E946F49B82ECE0101960E944E4ABB200E
:1047F00041F0BE01635F7F4F86E090E00E94CF7181
:10480000D2C368E376E0CE0101960E94534ABE010E
:104810006F5F7F4F812F902F0E946F49B82ECE017E
:1048200001960E944E4ABB2041F0BE01635F7F4F5C
:1048300087E090E00E94CF71B6C365E376E0CE01D9
:1048400001960E94534ABE016F5F7F4F812F902FC8
:104850000E946F49B82ECE0101960E944E4ABB209D
:1048600041F0BE01635F7F4F88E090E00E94CF710E
:104870009AC362E376E0CE0101960E94534ABE01DC
:104880006F5F7F4F812F902F0E946F49B82ECE010E
:1048900001960E944E4ABB2041F0BE01635F7F4FEC
:1048A00089E090E00E94CF717EC36FE276E0CE0196
:1048B00001960E94534ABE016F5F7F4F812F902F58
:1048C0000E946F49B82ECE0101960E944E4ABB202D
:1048D00041F0BE01635F7F4F8AE090E00E94CF719C
:1048E00062C36CE276E0CE0101960E94534ABE019B
:1048F0006F5F7F4F812F902F0E946F49B82ECE019E
:1049000001960E944E4ABB2041F0BE01635F7F4F7B
:104910008BE090E00E94CF7146C369E276E0CE0161
:1049200001960E94534ABE016F5F7F4F812F902FE7
:104930000E946F49B82ECE0101960E944E4ABB20BC
:1049400041F0BE01635F7F4F8CE090E00E94CF7129
:104950002AC366E276E0CE0101960E94534ABE0168
:104960006F5F7F4F812F902F0E946F49B82ECE012D
:1049700001960E944E4ABB2041F0BE01635F7F4F0B
:104980008DE090E00E94CF710EC363E276E0CE012D
:1049900001960E94534ABE016F5F7F4F812F902F77
:1049A0000E946F49B82ECE0101960E944E4ABB204C
:1049B00041F0BE01635F7F4F8EE090E00E94CF71B7
:1049C000F2C260E276E0CE0101960E94534ABE0137
:1049D0006F5F7F4F812F902F0E946F49B82ECE01BD
:1049E00001960E944E4ABB2041F0BE01635F7F4F9B
:1049F0008FE090E00E94CF71D6C26EE176E0CE01EA
:104A000001960E94534ABE016F5F7F4F812F902F06
:104A10000E946F49B82ECE0101960E944E4ABB20DB
:104A200051F0CE010D960E94D748613009F0BBC20B
:104A30006093AD05B8C26CE076E0CE0101960E94AD
:104A4000534ABE016F5F7F4F812F902F0E946F49A5
:104A5000B82ECE0101960E944E4ABB2039F0CE01FD
:104A60000D960E94D748609319029DC26AEF75E0C7
:104A7000CE0101960E94534ABE016F5F7F4F812F86
:104A8000902F0E946F49B82ECE0101960E944E4A87
:104A9000BB2039F0CE010D960E94D74860931A02D0
:104AA00082C268EE75E0CE0101960E94534ABE01B3
:104AB0006F5F7F4F812F902F0E946F49B82ECE01DC
:104AC00001960E944E4ABB2039F0CE010D960E94FD
:104AD000D74860931B0267C267ED75E0CE0101966F
:104AE0000E94534ABE016F5F7F4F812F902F0E941B
:104AF0006F49B82ECE0101960E944E4ABB2039F074
:104B0000CE010D960E94D74860931C024CC266EC01
:104B100075E0CE0101960E94534ABE016F5F7F4F40
:104B2000812F902F0E946F49B82ECE0101960E94CE
:104B30004E4ABB2039F0CE010D960E94D7486093B3
:104B40001D0231C264EB75E0CE0101960E94534A0A
:104B5000BE016F5F7F4F812F902F0E946F49B82E4B
:104B6000CE0101960E944E4ABB2039F0CE010D962F
:104B70000E94D74860931E0216C26EE975E0CE010E
:104B800001960E94534ABE016F5F7F4F812F902F85
:104B90000E946F49B82ECE0101960E944E4ABB205A
:104BA00079F0CE010D960E94D7482AE0269FA001F9
:104BB000279F500D11245093250240932402F3C1E6
:104BC0006CE875E0CE0101960E94534ABE016F5F0A
:104BD0007F4F812F902F0E946F49B82ECE010196F2
:104BE0000E944E4ABB2061F0CE010D960E94D7482C
:104BF000660F862F880F880F680F60931F02D3C13E
:104C000067E775E0CE0101960E94534ABE016F5FCF
:104C10007F4F812F902F0E946F49B82ECE010196B1
:104C20000E944E4ABB2069F0CE010D960E94D748E3
:104C3000FAE06F9FB0011124709323026093220267
:104C4000B2C167E675E0CE0101960E94534ABE01EB
:104C50006F5F7F4F812F902F0E946F49B82ECE013A
:104C600001960E944E4ABB2009F464C16AE075E0D7
:104C7000CE0101960E94534ABE016F5F7F4FCE0165
:104C80000D960E946F49B82ECE0101960E944E4AA1
:104C9000B1102EC162E075E0CE0101960E94534A28
:104CA000BE016F5F7F4FCE010D960E946F49B82EF7
:104CB000CE0101960E944E4AB1101CC168EF74E00B
:104CC000CE0101960E94534ABE016F5F7F4FCE0115
:104CD0000D960E946F49B82ECE0101960E944E4A51
:104CE000B1100AC163EF74E0CE0101960E94534AED
:104CF000BE016F5F7F4FCE010D960E946F49B82EA7
:104D0000CE0101960E944E4AB110F8C06EEE74E0DA
:104D1000CE0101960E94534ABE016F5F7F4FCE01C4
:104D20000D960E946F49B82ECE0101960E944E4A00
:104D3000B110E6C069EE74E0CE0101960E94534ABC
:104D4000BE016F5F7F4FCE010D960E946F49B82E56
:104D5000CE0101960E944E4AB110D4C060EE74E0BC
:104D6000CE0101960E94534ABE016F5F7F4FCE0174
:104D70000D960E946F49B82ECE0101960E944E4AB0
:104D8000B110C2C067ED74E0CE0101960E94534A93
:104D9000BE016F5F7F4FCE010D960E946F49B82E06
:104DA000CE0101960E944E4AB110B0C064ED74E08D
:104DB000CE0101960E94534ABE016F5F7F4FCE0124
:104DC0000D960E946F49B82ECE0101960E944E4A60
:104DD000B1109EC061ED74E0CE0101960E94534A6D
:104DE000BE016F5F7F4FCE010D960E946F49B82EB6
:104DF000CE0101960E944E4AB1108CC06EEC74E058
:104E0000CE0101960E94534ABE016F5F7F4FCE01D3
:104E10000D960E946F49B82ECE0101960E944E4A0F
:104E2000B1107AC06BEC74E0CE0101960E94534A37
:104E3000BE016F5F7F4FCE010D960E946F49B82E65
:104E4000CE0101960E944E4AB11068C068EC74E031
:104E5000CE0101960E94534ABE016F5F7F4FCE0183
:104E60000D960E946F49B82ECE0101960E944E4ABF
:104E7000B11056C065EC74E0CE0101960E94534A11
:104E8000BE016F5F7F4FCE010D960E946F49B82E15
:104E9000CE0101960E944E4AB11044C062EC74E00B
:104EA000CE0101960E94534ABE016F5F7F4FCE0133
:104EB0000D960E946F49B82ECE0101960E944E4A6F
:104EC000B11032C06FEB74E0CE0101960E94534ADC
:104ED000BE016F5F7F4FCE010D960E946F49B82EC5
:104EE000CE0101960E944E4AB11020C08FEF1FC024
:104EF00080E01DC081E01BC082E019C083E017C0C4
:104F000084E015C085E013C086E011C087E00FC0C3
:104F100088E00DC089E00BC08AE009C08BE007C0C3
:104F20008CE005C08DE003C08EE001C08FE080936F
:104F3000A50539C06CE575E0CE0101960E94534A83
:104F4000BE016F5F7F4F812F902F0E946F49B82E57
:104F5000CE0101960E944E4ABB2039F066E475E00E
:104F60008AE69AE00E94D64B1EC068E375E0CE0147
:104F700001960E94534ABE016F5F7F4F812F902F91
:104F80000E946F49B82ECE0101960E944E4AB11080
:104F90000AC06AE275E0CE0101960E94534ACE0132
:104FA00001960E944E4ACE010D960E944E4A6FE530
:104FB00074E0C7010E94394A0C94E01A0E94915192
:104FC00006C060E175E08AE69AE00E94D64BC70110
:104FD0000E944E4AA0960FB6F894DEBF0FBECDBF1A
:104FE000DF91CF911F910F91FF90EF90DF90CF90C5
:104FF000BF90AF909F908F907F906F905F904F90F9
:105000003F902F900895FC01918D228D892F90E083
:10501000805C9F4F821B91098F739927089580E0D0
:1050200090E0892B21F00E946448811121C080E02A
:1050300090E0892B21F00E945A4881111CC080E029
:1050400090E0892B41F080E090E0892B21F00E94D4
:105050000000811113C080E090E0892BA1F080E076
:1050600090E0892B81F00E94000081110AC0089510
:105070000E940000DCCF0E940000E1CF0E940000EF
:10508000EACF0C940000089590E0FC013197E231E2
:10509000F10508F04EC08827EE58FF4F8F4F0C9453
:1050A000F673809180008F7703C0809180008F7DA0
:1050B00080938000089580918000877FF9CF84B528
:1050C0008F7702C084B58F7D84BD08958091B00034
:1050D0008F7703C08091B0008F7D8093B0000895DA
:1050E000809190008F7707C0809190008F7D03C0E2
:1050F00080919000877F8093900008958091A00018
:105100008F7707C08091A0008F7D03C08091A000A1
:10511000877F8093A0000895809120018F7707C03A
:10512000809120018F7D03C080912001877F809333
:10513000200108953FB7F8948091B3079091B40788
:10514000A091B507B091B60726B5A89B05C02F3F23
:1051500019F00196A11DB11D3FBFBA2FA92F982F9D
:105160008827820F911DA11DB11DBC01CD0142E018
:10517000660F771F881F991F4A95D1F708950895E4
:1051800085ED8093BC008091BC0084FDFCCF109223
:105190006F0D089540918907262F30E0240F311DAF
:1051A00021323105DCF420916F0D2430C9F4FC016B
:1051B00080E090E0861758F4309189072191DC0156
:1051C000A959B84FA30FB11D2C930196F3CF80912D
:1051D0008907680F6093890780E0089581E008954A
:1051E00082E008950895E091280D8091270DE81739
:1051F00030F4F0E0E75DF24F808190E008958FEFAA
:105200009FEF08959091280D8091270D981750F4E5
:10521000E92FF0E0E75DF24F208130E09F5F90934F
:10522000280D02C02FEF3FEFC90108958091270D8F
:1052300090E02091280D821B91090895CF92DF9272
:10524000EF92FF920F931F93CF93DF937C01262F52
:10525000972F8A018091700D882391F0C62FD72F48
:105260006E01C40ED51ECC15DD0569F06991D7011C
:10527000ED91FC910190F081E02DC7011995F3CFDC
:10528000642F822F87DFC801DF91CF911F910F918B
:10529000FF90EF90DF90CF900895CF93DF931F9210
:1052A000CDB7DEB769832091700D2223D1F0209114
:1052B000930D203240F021E030E0FC013383228363
:1052C00080E090E014C08091710DE82FF0E0EE587E
:1052D000F24F998190838F5F8093710D8093930D2E
:1052E00004C061E0CE01019655DF81E090E00F90AF
:1052F000DF91CF9108950F931F93CF93DF93EB012D
:105300008A01E881F9810480F581E02DCB011995AE
:10531000892B59F0E881F9810680F781E02DCE01D3
:105320001995F801808381E001C080E0DF91CF9181
:105330001F910F91089542960C948E3D42960C94C5
:10534000023E42960C947A52FC01848DDF01A80F34
:10535000B11DA35ABF4F2C91848D90E001968F739D
:105360009927848FA689B7892C93A089B1898C91BC
:1053700080648C93938D848D981306C00288F38982
:10538000E02D80818F7D80830895CF93DF93282F38
:1053900030E0F901E254F54F8491F901E15FF14FFA
:1053A000D491F901E753F24FC491CC2389F08111D4
:1053B0006BDEEC2FF0E0EE0FFF1FE155F24FA591F1
:1053C000B491EC91ED2381E090E021F480E002C003
:1053D00080E090E0DF91CF9108951F93CF93DF930A
:1053E000282F30E0F901E254F54F8491F901E15F93
:1053F000F14FD491F901E753F24FC491CC23C1F09E
:10540000162F811141DEEC2FF0E0EE0FFF1FEC555F
:10541000F54FA591B4918FB7F894111105C09C91E7
:10542000ED2FE095E92302C0EC91ED2BEC938FBFBB
:10543000DF91CF911F910895CF93DF9390E0FC010E
:10544000E15FF14F2491FC01E753F24F84918823EF
:1054500061F190E0880F991FFC01E657F54FC59167
:10546000D491FC01EC55F54FA591B491611109C09F
:105470009FB7F8948881209582238883EC912E230E
:105480000BC0623061F49FB7F8943881822F809509
:1054900083238883EC912E2B2C939FBF06C08FB75C
:1054A000F894E8812E2B28838FBFDF91CF91089548
:1054B0001F93CF93DF93182FEB0161E0BDDF20979F
:1054C00011F460E004C0CF3FD10531F461E0812FD9
:1054D000DF91CF911F9181CFE12FF0E0E254F54FA2
:1054E000E4914E2F50E0FA013197E231F10508F0D6
:1054F0009DC08827EC57FF4F8F4F0C94F67384B5EF
:10550000806884BDC7BD97C084B5806284BDC8BDB6
:1055100092C080918000806880938000D093890041
:10552000C093880088C08091800080628093800052
:10553000D0938B00C0938A007EC0809180008860E9
:1055400080938000D0938D00C0938C0074C08091B4
:10555000B00080688093B000C093B3006CC08091AD
:10556000B00080628093B000C093B40064C08091AA
:105570009000806880939000D0939900C093980029
:105580005AC080919000806280939000D0939B00DD
:10559000C0939A0050C080919000886080939000E2
:1055A000D0939D00C0939C0046C08091A00080686D
:1055B0008093A0008091A0008F7B8093A000D09367
:1055C000A900C093A80037C08091A000806280939A
:1055D000A000D093AB00C093AA002DC08091A00082
:1055E00088608093A000D093AD00C093AC0023C02E
:1055F00080912001806880932001D0932901C0937D
:10560000280119C080912001806280932001D093ED
:105610002B01C0932A010FC08091200188608093E4
:105620002001D0932D01C0932C0105C0C038D105B5
:105630000CF04CCF46CFDF91CF911F9108958F9200
:105640009F92AF92BF92CF92DF92EF92FF926B0147
:105650007C0170DD4B015C01C114D104E104F10453
:10566000E9F068DDDC01CB0188199909AA09BB09B9
:10567000883E9340A105B10578F321E0C21AD10814
:10568000E108F10888EE880E83E0981EA11CB11C89
:10569000C114D104E104F10421F7DECFFF90EF90B3
:1056A000DF90CF90BF90AF909F908F9008952FB7CD
:1056B000F8946091AF077091B0078091B107909115
:1056C000B2072FBF08952F923F924F925F926F9231
:1056D0007F928F929F92AF92BF92CF92DF92FF9272
:1056E0000F931F93CF93DF93CDB7DEB762970FB6BB
:1056F000F894DEBF0FBECDBF8C016C0122E1C20E5B
:10570000D11C68EC70E0C6010E945752C6010E948D
:10571000424BD8011696CD90DC901797C114D10456
:1057200099F05601D6018D919C91009779F063E034
:1057300074E00E94DE75B4E0CB0ED11C892B89F792
:10574000F5018281938102C080E090E00E94987709
:105750006F87788B898B9A8BF801848995899C83D4
:105760008B8386899789A08DB18D8D839E83AF832E
:10577000B887828D938DA48DB58D89879A87AB87E5
:10578000BC8780E393E09A838983868D8D87E0913F
:10579000BA05F091BB05309741F02F85388940E07C
:1057A00050E060E070E0C8011995812C912C540103
:1057B000F12C412C512C32018F859889A989BA8905
:1057C00088169906AA06BB06C8F5CE0101960E9466
:1057D0002550882399F187E7282E8CE0382EC12C9C
:1057E000D12CD801ED91FC910084F185E02DAE0122
:1057F000425F5F4FBE016F5F7F4FC80119958823DD
:1058000059F08E85D1018D931D01BFEFCB1ADB0AB4
:10581000E0E4CE16D10429F7C114D10421F5FF200C
:10582000E1F045DFDC01CB0184199509A609B70930
:1058300081339547A105B10508F4BECFE091BA05C3
:10584000F091BB05309739F120E030E040E050E0C6
:1058500062E070E0C80119951EC029DF2B013C01F0
:10586000FF24F394A9CFC6010D2C000CAA0BBB0B8F
:10587000880E991EAA1EBB1EE091BA05F091BB05C9
:10588000309739F0960147E75CE061E070E0C801CD
:105890001995F12C91CF81E062960FB6F894DEBF96
:1058A0000FBECDBFDF91CF911F910F91FF90DF9081
:1058B000CF90BF90AF909F908F907F906F905F90B0
:1058C0004F903F902F9008951F920F920FB60F9216
:1058D00011242F933F938F939F93AF93BF93809106
:1058E000AF079091B007A091B107B091B207309186
:1058F000AE0723E0230F2D3720F40196A11DB11D23
:1059000005C026E8230F0296A11DB11D2093AE0706
:105910008093AF079093B007A093B107B093B207FD
:105920008091B3079091B407A091B507B091B607E5
:105930000196A11DB11D8093B3079093B407A09366
:10594000B507B093B607BF91AF919F918F913F91EB
:105950002F910F900FBE0F901F9018951F920F92CE
:105960000FB60F9211240BB60F922F933F934F93C4
:105970005F936F937F938F939F93AF93BF93EF93B7
:10598000FF93E0910E02F0910F021995FF91EF91B4
:10599000BF91AF919F918F917F916F915F914F9147
:1059A0003F912F910F900BBE0F900FBE0F901F9045
:1059B00018951F920F920FB60F9211240BB60F92EB
:1059C0002F933F934F935F936F937F938F939F9307
:1059D000AF93BF93EF93FF93E0910C02F0910D0210
:1059E0001995FF91EF91BF91AF919F918F917F9109
:1059F0006F915F914F913F912F910F900BBE0F9040
:105A00000FBE0F901F9018951F920F920FB60F9216
:105A100011240BB60F922F933F934F935F936F9385
:105A20007F938F939F93AF93BF93EF93FF93E091F7
:105A30000202F09103021995FF91EF91BF91AF918E
:105A40009F918F917F916F915F914F913F912F9196
:105A50000F900BBE0F900FBE0F901F9018951F92C6
:105A60000F920FB60F9211240BB60F922F933F9304
:105A70004F935F936F937F938F939F93AF93BF9356
:105A8000EF93FF93E0910002F09101021995FF91CD
:105A9000EF91BF91AF919F918F917F916F915F91A6
:105AA0004F913F912F910F900BBE0F900FBE0F9013
:105AB0001F9018951F920F920FB60F9211240BB6DC
:105AC0000F922F933F934F935F936F937F938F9397
:105AD0009F93AF93BF93EF93FF93E0910A02F091EE
