:100000000C948D090C94A3430C9478430C944D43A9
:100010000C9422430C94F7420C94CC420C94A142D1
:100020000C9476420C94BE090C94BE090C94BE0943
:100030000C94BE090C94BE090C94BE090C94BE0924
:100040000C94BE090C949C460C94BE090C94BE09F9
:100050000C94BE090C94BE090C94BE090C942C425D
:100060000C94BE090C94AA560C9481560C94BE09AB
:100070000C94BE090C94BE090C94BE090C94BE09E4
:100080000C94BE090C94BE090C94BE090C94B8459E
:100090000C9458560C942F560C94BE090C9487441B
:1000A0000C94BE090C94BE090C94BE090C94BE09B4
:1000B0000C94BE090C94BE090C94BE090C94BE09A4
:1000C0000C94BE090C94BE090C94BE090C94BE0994
:1000D0000C94BE090C94BE090C94BE090C94BE0984
:1000E0000C94BE0971417441634167416D41AB415C
:1000F00078417C41824186418A41904194419841B6
:10010000AB419E41A241A641015006500B501550F3
:100110001F50985029503150395043504D5057502E
:100120006650705098507A5084508E50504B543ACC
:100130002043524300504B543A2045545800504BF2
:10014000543A20535458002A2A4833002A2A473266
:10015000002A2A4731002A2A5032002A2A50310028
:100160002A2A444D5031002A2A444D5432002A2A6A
:10017000444D5431002A2A444D545F4F4E002A2AE0
:10018000444D445F4F4E002A2A444D505F4F46462F
:10019000002A2A444D505F4F4E002A2A444D525F98
:1001A0004F464632002A2A444D525F4F4646002AA7
:1001B0002A444D525F4F4E002A2A432D4F46462A6D
:1001C000002A2A432D4F4646002A2A432D4F4E002F
:1001D0002A2A432D4F4E2A00206B726F6B3A00344F
:1001E000443A20726F7A6E6963613A0034443A206F
:1001F0005445524D4F53544154204F4646003444C9
:100200003A205445524D4F53544154204F4E0020F4
:1002100020202020202000647A69656E3A00686101
:10022000726D6F6E6F6772616D206379726B756C42
:1002300061636A693A00202D3E20004841524D4FCB
:100240004E4F4752414D3A207A6D69616E612000F0
:1002500020646574656B746F7220303A200020252D
:100260002000206669726520002070686173652037
:1002700000207A65726F200020746F74616C20001A
:1002800054524941433A002F32303020696D707525
:100290006C736F770054524941433A2070726F6219
:1002A0006C656D79207A20646574656B746F726516
:1002B0006D2030203A2000206D3A0020683A00205E
:1002C000643A005254433A0054524941433A207A26
:1002D000616B6C7563656E6961207A206465746515
:1002E0006B746F72612C2064656C7461203D00201A
:1002F00072657472793D0045434F414C3A207072EB
:100300006F626C656D79207A206B6F6D756E696BAD
:1003100061636A61203A206572723D00576F6C6EAE
:10032000792052414D3A00524553455400574542B9
:100330003A005A34443A00504D503A00444D553A30
:1003400000504F443A00414C473A00414C4D3A006E
:100350004D41503A004D41583A0044414C4C3A000E
:10036000434F4E3A0054494D3A0044414C4C41539E
:100370003A204B6F6E69656320706F737A756B6995
:1003800077616E696120637A756A6E696B6F772E2B
:1003900000202054656D7065726174757261203D36
:1003A0002000204352433D00202044617461203DE1
:1003B000200020437A617320706F6272616E696100
:1003C0002064616E796368207A20637A756A6E6949
:1003D0006B61203D2000204E69657A6E616E792048
:1003E0004453313878780020445331383232002079
:1003F0004453313842323000204453313853323084
:1004000000626C6164204352430044414C4C4153B0
:100410003A204944203D0020437A6173206B6F6D80
:10042000656E6461206B6F6E776572736A692064B4
:100430006C6120637A756A6E696B61203D200044AF
:10044000414C4C41533A20506F637A6174656B2084
:10045000706F737A756B6977616E696120637A7505
:100460006A6E696B6F772E0020743A00206F3A0035
:1004700020703A002049443A0044414C4C415320FA
:100480000053443A206272616B20706C696B752076
:10049000706F64616A6E696B2E7478740052544395
:1004A0003A206F64637A7974207A61736F626E693F
:1004B0006B613A004E54503A20557A79736B616EF5
:1004C0006F20637A617320756E697874696D653A1F
:1004D000005254433A207A6E616C657A696F6E6F90
:1004E00020445331333037005254433A2062726112
:1004F0006B20445331333037005254433A20537AFF
:10050000756B616D20445331333037202E2E2E0011
:1005100049503A206272616B204574686572536875
:1005200069656C642E2E2E005757573A7374726F9C
:100530006E6120676F746F7761005757573A757215
:10054000756368616D69616D207374726F6E652E7D
:100550002E2E0049503A20646E733A0049503A20DA
:100560006272616D613A0049503A206D61736B614E
:100570003A0049503A2061647265733A0049503A32
:10058000206D61633A0049503A20706F626965726C
:10059000616E696520616472657375207A204448D4
:1005A00043502E2E2E00576F6C6E792052414D3ADB
:1005B0000049503A206B6F6E666967757261636AB5
:1005C000612073696563692E2E2E00576F6C6E79FA
:1005D0002052414D3A00576F6C6E792052414D3A8E
:1005E00000576F6C6E792052414D3A0053443A20C7
:1005F000626C6164206F64637A7974752064616EE3
:100600007963680053443A20626C6164206B6172C4
:1006100074790053443A206272616B206B6172748A
:1006200079005254433A2053544F50202D3E2053CA
:100630005441525400302E312E302E3634004C7539
:10064000636A616E20762E004C41544F005A494D2A
:1006500041004252554C490045434F414C005438EB
:1006600000543700543600543500543400543300DD
:10067000543200543100545350414C494E590054A7
:10068000504F444C4F474100544357550054574531
:100690005700545A45570054504F44414A4E494B15
:1006A0000054504F57524F54005450494543004E48
:1006B00069657A6E616E7920647A69656E004E4470
:1006C00000534F00505400435A00535200575400F7
:1006D000504F002A0053443A206272616B20706CC4
:1006E000696B7520636F6E6669672E747874005845
:1006F00058444D5F504C55535F4D4F43005858443C
:100700004D5F504C55535F4D4F430058585445531F
:10071000545F4E5231207A6E616C657A696F6E6FEC
:10072000005858544553545F4E5231004E69657A13
:100730006E616E7920647A69656E0050524F475F32
:100740004359524B5F0050524F475F005A41574F39
:100750005234442D4F424E495A4F4E41005A415750
:100760004F5234442D435A554A4E494B005A415733
:100770004F5234442D435A41535F504F4D494152DB
:1007800055005A41574F5234442D435A41535F4B01
:10079000524F4B005A41574F5234442D435A415304
:1007A0005F4F54574152434941004B525A595741A8
:1007B0005F47525A414E49412B3135004B525A59ED
:1007C00057415F47525A414E49412B35004B525ACF
:1007D0005957415F47525A414E49412D30004B52C3
:1007E0005A5957415F47525A414E49412D313000C5
:1007F0004B525A5957415F47525A414E49412D3247
:1008000030004B525A5957415F47525A414E494165
:100810002D333000560054380054370054360054FD
:1008200035005434005433005432005431005453D2
:1008300050414C494E590054504F444C4F47410091
:1008400054435755005457455700545A4557005480
:10085000504F44414A4E494B0054504F57524F5409
:1008600000545049454300545F4D4150554A5F5A2A
:100870005F4252554C4900545F4D4150554A5F5AB2
:100880005F45434F414C0052525F50524143415FDC
:100890004D4F430052525F50524143415F504F53BE
:1008A000544F4A0052525F50524143415F504F44AF
:1008B000414E49450052525F504F4454525A594D8F
:1008C000414E49455F4D4F430052525F504F445493
:1008D000525A594D414E49455F504F53544F4A006B
:1008E00052525F504F4454525A594D414E49455F00
:1008F000504F44414E49450052525F504F4454526C
:100900005A594D414E49455F435A4153004359524C
:100910004B554C41434A415F544D494E0043595257
:100920004B554C41434A415F435A41535F57594CE1
:1009300041435A004359524B554C41434A415F434E
:100940005A41535F574C41435A004359524B554CFF
:1009500041434A415F414C474F5259544D00434F28
:100960005F414C474F5259544D00434F5F545259C9
:100970004200435755325F414C474F5259544D0046
:10098000435755325F5452594200435755325F5ACC
:100990004144414E41004357555F545F4D4158001B
:1009A0004357555F484953544552455A41004357B0
:1009B000555F414C474F5259544D004357555F5472
:1009C000525942004357555F5A4144414E410050ED
:1009D0004945435F414C474F5259544D005049459A
:1009E000435F484953544552455A41005049454395
:1009F0005F5A4144414E4100504945435F545F4D69
:100A0000415800504945435F545F4D494E00504F97
:100A100044414A4E494B5F414C41524D5F4D494E16
:100A200000504F44414A4E494B5F505245444B4F52
:100A300053435F504F444157414E494100504F444A
:100A4000414A4E494B5F435A41535F504F44414ADC
:100A50004E494B4100504F44414A4E494B5F435A27
:100A600041535F444F5F4F50524F5A4E49454E4994
:100A70004100504F44414A4E494B5F545F4D4158ED
:100A800000504F44414A4E494B5F435A41535F57D0
:100A900059525A55545500444D5F504C55535F4D73
:100AA0004F4300444D5F504C55535F435A415300F0
:100AB000444D5F524F5A525543485F4D4F43004497
:100AC0004D5F524F5A525543485F435A4153004479
:100AD0004D5F544C4F5F4D4F4300444D5F544C4F5E
:100AE0005F435A415300444D5F444F50414C414E87
:100AF00049455F4D4F4300444D5F444F50414C4189
:100B00004E49455F435A415300444D5F4D4F445554
:100B10004C41434A4100444D5F494E574552534A68
:100B2000415F50574D00444D5F4F4646534554007A
:100B3000444D5543484157415F41435F47525550EB
:100B40004F574F004E45545F444E53004E45545F3F
:100B50004252414D41004E45545F4D41534B41007F
:100B60006175746F004E45545F4950004E45545FA7
:100B70004D4143005D00636F6E6669673A205B001C
:100B8000204F4B0D0A00485454502F312E31200075
:100B9000005EBCE2613FDD83C29C7E20A3FD1F415D
:100BA0009DC3217FFCA2401E5F01E3BD3E6082DC4D
:100BB000237D9FC1421CFEA0E1BF5D0380DE3C623D
:100BC000BEE0025CDF81633D7C22C09E1D43A1FF2D
:100BD0004618FAA427799BC584DA3866E5BB59071D
:100BE000DB856739BAE406581947A5FB7826C49A0D
:100BF000653BD987045AB8E6A7F91B45C6987A24FD
:100C0000F8A6441A99C7257B3A6486D85B05E7B9EC
:100C10008CD2306EEDB3510F4E10F2AC2F7193CDDC
:100C2000114FADF3702ECC92D38D6F31B2EC0E50CC
:100C3000AFF1134DCE90722C6D33D18F0C52B0EEBC
:100C4000326C8ED0530DEFB1F0AE4C1291CF2D73AC
:100C5000CA947628ABF517490856B4EA6937D58B9C
:100C60005709EBB536688AD495CB2977F4AA48168C
:100C7000E9B7550B88D6346A2B7597C94A14F6A87C
:100C8000742AC896154BA9F7B6E80A54D7896B356C
:100C90001F1C1F1E1F1E1F1F1E1F1E1F00002100C6
:100CA000240027002A002D0030003300010100003D
:100CB000040107010A0158585845434F414C00535D
:100CC0004F4654004D41583331383535004D415869
:100CD00033313835350044414C4C4153204E52207D
:100CE0003D200044414C4C4153005350414C494E2F
:100CF0005900504F444C4F4741004357550057450A
:100D000057005A455700504F44414A4E494B0050F6
:100D10004F57524F5400434F004252554C490045E3
:100D2000434F414C005254433A207A61706973201A
:100D30007A61736F626E696B613A00202D3E20000C
:100D4000444D3A20004D4945535A414E49450042D1
:100D5000415254454B00574C41435A004252554C66
:100D6000490045434F414C0057594C41435A4F4E5F
:100D7000590043594B4C49435A4E59004349414746
:100D80004C590000002200250028002B002E0031C5
:100D900000340002010000050108010B0100000AF7
:100DA0000B02090C0D0E08070304010000000000EF
:100DB0000000000000000000000000000000000033
:100DC00000000000000000000012111000000000F0
:100DD0000000000000000000000000000000000013
:100DE000000000444953434F4E4E45435445440090
:100DF000435755323A00435755313A00434F3A0072
:100E00004B4F004F4B0066756C6C0020743A00200D
:100E10006F3A0020703A002049443A0044414C4C5B
:100E200041532000444953434F4E4E45435445449B
:100E30000077656E74796C61746F723A0043575530
:100E4000323A00435755313A006163636573732D3D
:100E5000636F6E74726F6C2D616C6C6F772D6F7237
:100E60006967696E3A202A0A002E00227D00302E22
:100E7000312E302E3634002C22766572223A220032
:100E80002274696D65223A002C0022616C223A209E
:100E9000002C003000310022746572223A20002CB0
:100EA0000030003100226379726B223A20002C005E
:100EB000300031002263777532223A20002C003056
:100EC0000031002263777531223A20002C00300077
:100ED000310022636F223A20002C003000310022C2
:100EE000706F64223A20002C0022706F64676D6975
:100EF0006E223A20002C0022706F64637A646F22A5
:100F00003A20002C0022706F64637A7A6173223A6F
:100F100020002C0022706F64637A223A20002C009B
:100F20002277656E31223A20002C002277656E30E0
:100F3000223A20007D5D2C007B2274223A20007D25
:100F40002C007B22746865726D6F73223A5B0061BE
:100F500063636573732D636F6E74726F6C2D616C58
:100F60006C6F772D6F726967696E3A202A0A00618B
:100F700063636573732D636F6E74726F6C2D616C38
:100F80006C6F772D6F726967696E3A202A0A002F9D
:100F90006D6F64756C61636A61006163636573732F
:100FA0002D636F6E74726F6C2D616C6C6F772D6F2B
:100FB000726967696E3A202A0A00227D00302E315C
:100FC0002E302E3634002C22766572223A22007B97
:100FD0002274696D65223A006163636573732D63E2
:100FE0006F6E74726F6C2D616C6C6F772D6F7269A0
:100FF00067696E3A202A0A007C3C3E5E2B3D3F2FFB
:101000005B5D3B2C2A225C00436F6E74656E742D11
:10101000547970653A200048544D2A746578742FCD
:1010200068746D6C7C5458542A746578742F706C95
:1010300061696E7C4353532A746578742F637373AC
:101040007C584D4C2A746578742F786D6C7C4A53AB
:101050002A746578742F6A6176617363726970743B
:101060007C4749462A696D6167652F6769667C4AD6
:1010700050472A696D6167652F6A7065677C504EBD
:10108000472A696D6167652F706E677C49434F2AF7
:10109000696D6167652F766E642E6D6963726F731B
:1010A0006F66742E69636F6E7C4D50332A61756470
:1010B000696F2F6D7065677C00000020002300269B
:1010C0000029002C002F003200000100000301065F
:1010D00001090105050505070508080808020202BF
:1010E000020A0A08080404040401010101010101C3
:1010F000010303030303030303040707070C0C0C9A
:101100000C0C0C0C0C020202020606060606060671
:10111000060B0B0B0B0B0B0B0B010210202008080E
:101120001020401020408002010201080402010149
:101130000204081020408080402010080402018032
:101140000402018040201008040201080402010189
:101150000204081020408001020408102040803062
:101160003230313030303630303030303030303670
:101170003130330000316253C4F5A697B988DBEAF9
:101180007D4C1F2E4372211087B6E5D4FACB98A967
:101190003E0F5C6D86B7E4D5427320113F0E5D6C47
:1011A000FBCA99A8C5F4A796013063527C4D1E2F47
:1011B000B889DAEB3D0C5F6EF9C89BAA84B5E6D717
:1011C000407122137E4F1C2DBA8BD8E9C7F6A59427
:1011D00003326150BB8AD9E87F4E1D2C0233605127
:1011E000C6F7A495F8C99AAB3C0D5E6F4170231207
:1011F00085B4E7D67A4B1829BE8FDCEDC3F2A190F7
:101200000736655439085B6AFDCC9FAE80B1E2D3E6
:1012100044752617FCCD9EAF38095A6B45742716C6
:1012200081B0E3D2BF8EDDEC7B4A192806376455C6
:10123000C2F3A0914776251483B2E1D0FECF9CADD6
:101240003A0B586904356657C0F1A293BD8CDFEEA6
:1012500079481B2AC1F0A3920534675678491A2BA6
:10126000BC8DDEEF82B3E0D1467724153B0A596886
:10127000FFCE9DAC5757573A206272616B20706C5D
:10128000696B753A20005757573A204F64637A7953
:101290007420706C696B753A006163636573732DBC
:1012A000636F6E74726F6C2D616C6C6F772D6F72E3
:1012B0006967696E3A202A0A005757573A20426CEC
:1012C000616420706172736F77616E69612055523D
:1012D0004C002062616A746F772900206D732028AA
:1012E0006F64656272616E6F20002062616A746F64
:1012F00077207720005757573A205A6170697361F9
:101300006E6F20005757573A205A61706973756A9B
:101310006520706C696B3A00507911241FBECFEFC5
:10132000D1E2DEBFCDBF00E00CBF14E0A0E0B2E030
:10133000E6E8F3E001E00BBF02C007900D92A83C85
:10134000B107D9F72DE0A8ECB4E001C01D92AE3E84
:10135000B207E1F719E0CDE8D9E000E006C0219737
:101360000109802FFE010E94537CCC38D10780E018
:101370000807A9F70E944A680C94C1810C940000E8
:101380002F923F924F925F926F927F928F929F9295
:10139000AF92BF92CF92DF92EF92FF920F931F9383
:1013A000CF93DF93CDB7DEB7A3970FB6F894DEBF28
:1013B0000FBECDBFA8950E94204260936206709335
:1013C000630680936406909365068091620690910F
:1013D0006306A0916406B091650680935E069093C3
:1013E0005F06A0936006B09361060E9420420091C0
:1013F0005E0610915F062091600630916106DC0167
:10140000CB01801B910BA20BB30B80935E069093D4
:101410005F06A0936006B09361068091260788233B
:1014200069F080915E0690915F06A0916006B09190
:1014300061060397A105B1050CF057C60E94204232
:1014400060935E0670935F068093600690936106DA
:101450008091010290910202009799F40E9420422B
:1014600060930B0670930C0680930D0690930E0606
:10147000109296051092950510920A0681E090E070
:101480001DC00197F9F40E94204200910B061091B3
:101490000C0620910D0630910E06DC01CB01801B5D
:1014A000910BA20BB30B85369105A105B10550F048
:1014B000109296051092950582E090E090930202BA
:1014C0008093010280910102909102028230910585
:1014D00009F05DC00091D90C1091DA0CC8010E948E
:1014E00022809091080620E0E091070631E028175D
:1014F00038F5F801E20FF11D949141E0420FF80137
:10150000E40FF11D2E5FE491632F70E0913410F031
:1015100049EC01C040ED490FE13410F0F9EC01C095
:10152000F0EDFE0FA0E14A9FA00111244F2BA1E096
:10153000B0E0AC0FBD1FA60FB71F4C933F5FD7CFD6
:101540009093080620930906E0930706182F169536
:10155000198381E08093000280910002181780F0C7
:1015600091E0980F90930002E1E0F0E0EC0FFD1F96
:10157000E80FF11D608183E39BE00E942B52ECCFCA
:10158000109296051092950583E090E013C0833089
:101590009105D1F583E39BE00E94EC51892B79F012
:1015A0001092000210920606109296051092950570
:1015B00084E090E09093020280930102D8C0809171
:1015C00095059091960501969093960580939505C3
:1015D0008139914008F4CBC0109296051092950580
:1015E00080910A068F5F80930A0622E030E03093F4
:1015F000020220930102863008F4B9C081E0809392
:101600005D0680931B02B3C08430910509F051C080
:1016100083E39BE00E94EC5118161906BCF483E3A7
:101620009BE00E94EC51181619069CF510910002DF
:1016300081E0810F8093000283E39BE00E94CA5106
:10164000E12FF0E0EE55FA4F8083E9CF80919505C8
:101650009091960501969093960580939505813912
:101660009140B8F0109296051092950582E090E0B6
:10167000909302028093010280910A068F5F80930B
:101680000A06863030F082E080935D0681E0809328
:101690001B0280910002863508F469C0809306061B
:1016A00010920002109296051092950587E090E046
:1016B00081CF079709F05BC0809106068635B1F5AA
:1016C0008091A205823019F06EE371E02BC0809109
:1016D000F705833021F423EA35E0E0E003C065E359
:1016E00071E020C0B5E0263F3B07A1F0D9018D9104
:1016F0009D018E27E091DD0CF091DE0CE80FF11DCD
:10170000E4918E2F90E0A0E0B0E089839A83AB83D0
:10171000BC83E8CF8091F6058E1711F40C94EF1E70
:101720006CE271E080ED9BE00E94DC5580919505B4
:101730009091960501969093960580939505813931
:10174000914088F0109296051092950580910A06B6
:101750008F5F80930A06863030F084E080935D06C8
:1017600081E080931B0210920202109201020E94FB
:10177000204200915E0610915F0620916006309134
:101780006106DC01CB01801B910BA20BB30B809394
:101790005E0690935F06A0936006B0936106809109
:1017A0002607882369F080915E0690915F06A091DC
:1017B0006006B09161060397A105B1050CF0A6C4BF
:1017C0000E94204260935E0670935F0680936006DD
:1017D0009093610680916606882309F4A5C0D09095
:1017E0000F06D11009C088E08093CC040E944B51B1
:1017F00081E080930F0690C02091CC0421118CC011
:101800000FEF0D0DE02EF12CFDE00F9F8001112454
:10181000822F90E0FC01EB58F94F800F911FDC0103
:10182000A258B94F8C9180832F5F283089F720937D
:101830007D060E94FF50882309F467C080917506D9
:10184000823241F0883231F0803121F481E080939E
:10185000740602C0109274068091680690E0982F7A
:10186000882720916706822B20917406222399F005
:1018700023E0880F991F2A95E1F720916E06203109
:10188000F9F440916D062CE030E0241B3109807F93
:10189000820F931F15C020916B06207631F403E070
:1018A000880F991F0A95E1F70BC0203229F4880FA1
:1018B000991F880F991F04C0203411F4880F991FB5
:1018C0002DE02E9DF0012F9DF00D1124E258F94FCF
:1018D0004AE0489F9001499F300D112437FF02C014
:1018E000215F3F4FA4E035952795AA95E1F7328710
:1018F00021878DE08E9DF0018F9DF00D1124E2581F
:10190000F94F80917306808704C0F801E258F94FBF
:101910001086D394D0920F0690910F0680916606A0
:10192000891710F410920F060E94204200915E0663
:1019300010915F062091600630916106DC01CB01B9
:10194000801B910BA20BB30B80935E0690935F06F6
:10195000A0936006B093610680912607882369F002
:1019600080915E0690915F06A0916006B09161063D
:101970000297A105B1050CF0DAC30E9420426093E2
:101980005E0670935F068093600690936106809177
:10199000CE04882309F423C18091CD0481111FC195
:1019A00085E08093CD048091600D60E0882319F17B
:1019B00080915F0D0E94FC568FE99FE00197F1F73F
:1019C00000C000008E010B5F1F4FDE0111967D01EC
:1019D00080E00E940137F80182938F01EE15FF0528
:1019E000B9F761E080915F0D0E94FC5689817A8190
:1019F0006B819C8148C080915D0D0E94FC568FE9EF
:101A00009FE00197F1F700C0000060E080915F0D5A
:101A10000E94FC56AFE9BFE01197F1F700C000004B
:101A200000E210E0C12CD12C760160E080915D0DC8
:101A30000E94FC56EFE9FFE03197F1F700C000008B
:101A4000CC0CDD1CEE1CFF1C80915E0D0E94D35659
:101A5000892B11F06894C0F861E080915D0D0E94BF
:101A6000FC568FE99FE00197F1F700C0000001509C
:101A70001109D9F661E080915F0D0E94FC568C2D12
:101A80007D2D6E2D9F2D082F172F262F392F6801A2
:101A9000790197E0C922DD24EE24FF24CD28CE2849
:101AA000CF2819F087708093610DA901980162E138
:101AB00055954795379527956A95D1F7AAE0B0E0F7
:101AC0000E9480816B017C0172E0F694E794D794C8
:101AD000C7947A95D1F7C092D304D092D404E092FF
:101AE000D504F092D60446010D2C000CAA08BB08C0
:101AF00010911E0620911A0630911B0640911C067B
:101B000050911D06A12FB0E00E948081680D791DC3
:101B10008A1D9B1D9D012F5F3F4F032E000C440B20
:101B2000550B0E94908120931A0630931B06409318
:101B30001C0650931D061F5F10931E0617FF03C05F
:101B40008FE780931E06C901330FAA0BBB0B80934E
:101B5000CF049093D004A093D104B093D204809189
:101B60001206811107C0D0921106C092100681E0C2
:101B700080931206A0911006B091110623EF31E078
:101B80000E94627CDC01CB01880D991DAA1DBB1D42
:101B9000BC01CD01660F771F881F991F28EE33E027
:101BA00040E050E00E94908130931106209310068F
:101BB000A3E3CA16D104E104F10448F010921F0611
:101BC00010922006109221061092220608C0C092A0
:101BD0001F06D0922006E0922106F09222060E9473
:101BE000204200915E0610915F06209160063091C0
:101BF0006106DC01CB01801B910BA20BB30B809320
:101C00005E0690935F06A0936006B0936106809194
:101C10002607882369F080915E0690915F06A09167
:101C20006006B09161060297A105B1050CF090C263
:101C30000E94204260935E0670935F068093600668
:101C4000909361068090230690902406A09025062C
:101C5000B09026062091270630912806409129064B
:101C600050912A0660912B0670912C0610912D063A
:101C700000912E06F0902F06E0903006D0903106AD
:101C8000C0903206B0916606BF8B6090D30470900E
:101C9000D404E091CF04F091D004FC8FEB8F4090FE
:101CA0001F0650902006EAEEF4E08DEE94E09BA330
:101CB0008AA38AA19BA10197DC018C91823069F5EE
:101CC000AAA1BBA18C91882381F0813089F0823058
:101CD00091F0833099F08430A1F08530A9F08630FE
:101CE000A9F08730A9F4C60115C0982D892D12C01E
:101CF0009A2D8B2D0FC0922F832F0CC0942F852FE0
:101D000009C0962F872F06C0C80104C0C70102C0B2
:101D100099E18CEF908381832DC08330A9F4AAA12F
:101D2000BBA18C91BF898B1760F4ADE0A89FC00167
:101D300011248258994FDC0119968D919C911A9724
:101D400011C08AE19CEF0EC0843091F4AAA1BBA11E
:101D50008C91813019F4718260820CC0811105C0B0
:101D60008B8D9C8D9183808305C05182408202C0FF
:101D7000118210823596AAA1BBA11596BBA3AAA376
:101D8000B5E0EA33FB0709F094CF0E9420420091AE
:101D90005E0610915F062091600630916106DC01BD
:101DA000CB01801B910BA20BB30B80935E0690932B
:101DB0005F06A0936006B093610680912607882392
:101DC00069F080915E0690915F06A0916006B091E7
:101DD00061060397A105B1050CF0CBC10E9420421A
:101DE00060935E0670935F06809360069093610631
:101DF0000E94204200915E0610915F0620916006CD
:101E000030916106DC01CB01801B910BA20BB30B5F
:101E100080935E0690935F06A0936006B093610680
:101E200080912607882369F080915E0690915F0675
:101E3000A0916006B09161060397A105B1050CF071
:101E4000A9C10E94204260935E0670935F06809352
:101E50006006909361068091DD0480934406809132
:101E60000A07813091F480911B02882329F0109297
:101E7000E2041092DD0495C0809139068093E2045B
:101E8000809137068093DD048CC080910A078230F0
:101E900021F080910A07833051F78091EC04882368
:101EA00009F4F5C14091EA045091EB0480910B07CD
:101EB000EAE08E9FC001112421E0481759070CF475
:101EC00020E080910B0730910C07FAE08F9FC00152
:101ED0001124831B9109481759070CF46CC180E049
:101EE00010910702112309F468C1882309F465C120
:101EF0008091410690914206009709F0B8C161E5D2
:101F000071E080ED9BE00E94DC5580912507809375
:101F1000E204809123070E947D4F20912307809146
:101F20002407422F50E060E070E09A01AB01280FD7
:101F3000311D411D511DAAE0B0E00E9480816093D7
:101F400003027093040280930502909306020E949C
:101F5000204260933D0670933E0680933F06909327
:101F600040066091D7047091D80480ED9BE00E94F8
:101F70001F6040910302509104026091050270912C
:101F8000060280ED9BE00E94986081E090E09093D3
:101F900042068093410601E010E01093070200938F
:101FA00043060E94204200915E0610915F06209138
:101FB000600630916106DC01CB01801B910BA20B06
:101FC000B30B80935E0690935F06A0936006B09378
:101FD000610680912607882369F080915E069091C2
:101FE0005F06A0916006B09161060397A105B10557
:101FF0000CF099C10E94204260935E0670935F06C8
:102000008093600690936106C0909105D0909205F0
:10201000E0909305F0909405D701C601B695A79579
:1020200097958795182F1170209103073091040719
:1020300040910507509106078090FF069090000799
:10204000A0900107B090020700910907A4E6B0E054
:102050000E948081A50194010E949081802F90E0D0
:10206000A0E0B0E0281739074A075B0750F46894EE
:10207000C4F8C0929105D0929205E0929305F09237
:10208000940540919105509192056091930570914E
:102090009405111159C18091F604882309F454C1A3
:1020A0008091FE062AE0829FC00111242091F40451
:1020B0003091F504821793070CF046C1E091FD06BC
:1020C00028E532E0E29FC001E39F900D1124909338
:1020D000D8048093D70442604093910550939205B1
:1020E00060939305709394053BC165E673E080EDC2
:1020F0009BE00E94B85560915E0670915F068091EA
:102100006006909161060E94CE6298C960E673E015
:1021100080ED9BE00E94B85560915E0670915F066D
:1021200080916006909161060E94CE6249CB6AE57B
:1021300073E080ED9BE00E94B85560915E0670915F
:102140005F0680916006909161060E94CE6215CC78
:1021500065E573E080ED9BE00E94B85560915E06F6
:1021600070915F0680916006909161060E94CE6238
:102170005FCD60E573E080ED9BE00E94B855609113
:102180005E0670915F0680916006909161060E94E4
:10219000CE6224CE6BE473E080ED9BE00E94B855E4
:1021A00060915E0670915F06809160069091610675
:1021B0000E94CE6246CE81E093CE0091430600237A
:1021C00011F40C94AA1F222311F40C94A51F00E013
:1021D0008091410690914206009709F05AC0809183
:1021E000030290910402A0910502B0910602892B8E
:1021F0008A2B8B2B09F076C06BE571E080ED9BE0BC
:102200000E94DC55809122078093E2048091200790
:102210000E947D4F2091200780912107422F50E09E
:1022200060E070E09A01AB01280F311D411D511D86
:10223000AAE0B0E00E9480816093030270930402E0
:10224000809305029093060240910302509104028C
:10225000609105027091060280ED9BE00E949860FB
:1022600081E090E090934206809341063BC0019745
:1022700009F091CE8091030290910402A091050291
:10228000B0910602892B8A2B8B2B71F184CE20E032
:1022900026CE019739F58091030290910402A09116
:1022A0000502B0910602892B8A2B8B2BD9F466E5A7
:1022B00071E080ED9BE00E94DC5520911F0730E02B
:1022C000A8E5B2E00E94B281609303027093040219
:1022D00080930502909306021092E2041092420647
:1022E0001092410611E059CE6CE471E080ED9BE064
:1022F0000E94DC550E94204200913D0610913E064E
:1023000020913F0630914006AB01BC01401B510BB0
:10231000620B730B80ED9BE00E9498601092420666
:102320001092410638CE66E473E080ED9BE00E9497
:10233000B85560915E0670915F068091600690913D
:1023400061060E94CE6256CE42FDA3C0112309F45D
:1023500087C08091D7049091D804892B09F499C043
:102360008091080184608093080181E08093DD04FE
:102370008091290781110AC080914406882331F099
:102380008091DD04811102C00E94A0500E94204271
:1023900000915E0610915F06209160063091610603
:1023A000DC01CB01801B910BA20BB30B80935E066B
:1023B00090935F06A0936006B09361068091260714
:1023C000882369F080915E0690915F06A091600677
:1023D000B09161060397A105B1050CF062C00E949F
:1023E000204260935E0670935F0680936006909330
:1023F000610680910A07813039F4809152063AE0F3
:10240000839FC00111240AC080910A07833071F4B0
:1024100080910B074AE0849FC001112411E02091B4
:10242000EA043091EB042817390708F010E0809196
:10243000E20490E09093E1048093E00420914B0645
:10244000222329F02091EC0620FD06C104C0209132
:10245000EC0621FD01C120910A07233099F5FCC04B
:1024600090910A07913009F074CF8091DD048823A0
:1024700009F46FCF2091D7043091D804232B09F0B1
:1024800068CF809108018460809308019093DD04F7
:102490006FCF809108018B7F809308011092DD043B
:1024A00067CF61E473E080ED9BE00E94B8556091D6
:1024B0005E0670915F0680916006909161060E94B1
:1024C000CE628DCF892B39F083E090E0909348065F
:1024D0008093470604C010924806109247068091E8
:1024E000E0049091E104009751F02091EA06820FF8
:1024F000911D27FD9A959093E1048093E0048091CB
:10250000E0049091E10497FF04C01092E10410925E
:10251000E0048091E0049091E1048536910534F067
:1025200084E690E09093E1048093E004809191052B
:1025300090919205A0919305B0919405867099278A
:10254000AA27BB27892B8A2B8B2B21F01092E10421
:102550001092E0048091E0049091E1040E94924F77
:102560008091E0049091E1048093B60C181619064E
:1025700024F4809102018F7D03C08091020180626A
:10258000809302018091E20490E090934A06809348
:1025900049060E94204200915E0610915F0620913C
:1025A000600630916106DC01CB01801B910BA20B10
:1025B000B30B80935E0690935F06A0936006B09382
:1025C000610680912607882369F080915E069091CC
:1025D0005F06A0916006B09161060397A105B10561
:1025E0000CF09AC10E94204260935E0670935F06D1
:1025F00080936006909361066091EC048091910550
:1026000090919205A0919305B0919405662309F4E9
:1026100094C120910D075AE0259F9001112440910B
:10262000EA045091EB04241735070CF086C184604E
:102630008093910590939205A0939305B093940590
:1026400081E080939B058091080180688093080158
:10265000809108018064BDC62091490630914A06E8
:10266000232B79F5892B69F18091EF069091F00683
:10267000892BD9F02091EF063091F0064AE0429F75
:10268000C001439F900D11249093DF048093DE04DA
:1026900081E090E09093480680934706809146063B
:1026A000809345066FEA71E008C083E090E0909364
:1026B00048068093470665EA71E080ED9BE00E9442
:1026C000DC558091DE049091DF04892B49F08091E4
:1026D000E0049091E1041816190614F41111AAC02F
:1026E0008091470690914806019739F48091DE0465
:1026F0009091DF04892B09F4A6C0809144068111D2
:102700000BC08091DD04882339F08091DE04909124
:10271000DF04892B09F4A4C08091470690914806F4
:10272000049739F48091DB049091DC04892B09F43F
:10273000B6C08091DB049091DC04892B71F080910C
:10274000FB069091FC062091E0043091E104820F99
:10275000931F9093E1048093E004809145068823C1
:1027600009F456C08091490690914A061816190638
:10277000F4F48091E20481111AC02091ED063091A9
:10278000EE064AE0429FC001439F900D11249093B2
:10279000DA048093D90485E090E090934806809312
:1027A00047066EE771E080ED9BE00E94DC5580916A
:1027B000D9049091DA04892B29F08091E2048823CE
:1027C00009F47AC08091D9049091DA04892B59F4E4
:1027D0008091470690914806059729F48091E2047C
:1027E000882309F472C080914706909148060697A5
:1027F00009F075CE8091E204811171CE111172C081
:102800008091F9069091FA06892B09F076C06AC08A
:102810008091470690914806039709F060CE809119
:10282000E20481115CCE109248061092470660E6E1
:1028300071E06DC08091F7069091F8069093E104E5
:102840008093E0044DCF83E090E09093480680931E
:1028500047066AE971E080ED9BE00E94DC554DCFB0
:102860002091F3063091F4064AE0429FC001439F55
:10287000900D11249093DC048093DB0484E090E0BD
:1028800090934806809347068091460680934506BC
:1028900061E971E080ED9BE00E94DC553DCF83E073
:1028A00090E0909348068093470667E871E080EDDA
:1028B0009BE00E94DC553DCF8091F5069091F60695
:1028C0009093E1048093E0047DCF86E090E09093C4
:1028D00048068093470665E771E080ED9BE00E9423
:1028E000DC5581CF1092E1041092E004109248066A
:1028F0001092470667E671E00AC08091F906909150
:10290000FA069093E1048093E0046EE671E080EDB6
:102910009BE00E94DC55E3CD6CE373E080ED9BE02F
:102920000E94B85560915E0670915F0680916006C6
:10293000909161060E94CE6255CE82FF32C5662319
:10294000E1F020910D077AE0279F9001112440913A
:10295000EA045091EB04421753070CF425C580910B
:102960000E07AAE08A9FC00111242091EA04309149
:10297000EB04281739070CF422C580910F0781302A
:1029800029F080911107813009F026C580911B0242
:10299000882309F421C510929B0510925906809155
:1029A00008018F7780930801809108018F7B8093C5
:1029B000080110925806109257060E94204200917A
:1029C0005E0610915F062091600630916106DC0181
:1029D000CB01801B910BA20BB30B80935E069093EF
:1029E0005F06A0936006B093610680912607882356
:1029F00069F080915E0690915F06A0916006B091AB
:102A000061060397A105B1050CF09EC680911B02DB
:102A1000882329F080911A02882309F4ADC00E940E
:102A2000204260935E0670935F06809360069093E9
:102A300061068091910582FF06C081E08093980530
:102A40001092990570C08091150290911602823003
:102A5000910509F04AC080913C058823B1F081E0DE
:102A600080939905809113029091140290933B05F5
:102A700080933A0581E090E09093160280931502CE
:102A800010925B0610925A064EC080911D078F3F30
:102A900009F449C0E0911D0765E0E602F001112448
:102AA000E651FB4F82818823F1F18091EC04882369
:102AB000D1F18091FB048823B1F180919B0588239B
:102AC00091F12091EA043091EB0480910F029091F2
:102AD00010028217930738F500913A0510913B05D3
:102AE0000115110509F441C61EC00197E1F480915A
:102AF0003A0590913B05892BB1F4109298051092FC
:102B0000990580913C0581110EC080911102909130
:102B1000120290933B0580933A0582E090E09093F7
:102B20001602809315020E94204200915E061091C9
:102B30005F062091600630916106DC01CB01801BAD
:102B4000910BA20BB30B80935E0690935F06A0934C
:102B50006006B093610680912607882369F0809112
:102B60005E0690915F06A0916006B09161060397A2
:102B7000A105B1050CF00CC780919C05811113C013
:102B80008DE00E94D35661E0892B09F060E08DE072
:102B90000E94FC5680911B02811102C081E001C09D
:102BA0008AE080939C058091060182FD02C0129A02
:102BB00001C0129880919B05811105C0139A8091E4
:102BC00008018D7F04C01398809108018260809372
:102BD00008018091060187FD02C0149A01C0149873
:102BE0008091060186FD02C0159A01C0159880915A
:102BF0009A05811105C0169A809108018E7F04C044
:102C00001698809108018160809308018091990550
:102C1000811105C0179A809108018F7E04C0179812
:102C2000809108018061809308018091980581114D
:102C300005C0479A80910801877F04C0479880911A
:102C4000080188608093080180912C02882309F490
:102C5000C6C080912C078111C2C00E94204260939F
:102C60005E0670935F06809360069093610689E923
:102C70009CE00E94593506EA17E0D12CB8EE8B2E65
:102C8000B3E09B2EA12CB12C84E3E82E83E0F82E38
:102C90001C821B828D829E82AF82B886FA82E98274
:102CA000DD86D8012D913D918D0180919D0C9091F3
:102CB0009E0C28173907F1F4CE0101960E94563474
:102CC000873111F08C31B1F4CE0101960E94D52FDD
:102CD000892B81F02B813C818D819E81AF81B885CC
:102CE00049855A856B857C854D8F5E8F6F8F78A364
:102CF000DD840AC0D39454E0D512CACF88EE93E0A5
:102D0000A0E0B0E020E030E03093A60C2093A50CCA
:102D10008093A70C9093A80CA093A90CB093AA0C35
:102D20006D8D7E8D8F8D98A16093AB0C7093AC0CE4
:102D30008093AD0C9093AE0CD092AF0C83EA9CE0E4
:102D40000E94D334882311F183EA9CE00E94D52F9E
:102D5000892BE1F01092160A00E010E0AE014F5FFF
:102D60005F4F63EA7CE081E99CE00E94144181119D
:102D700020C60F5F1F4F0F39110581F7F801EA5E7A
:102D8000F54F10828091160A81111CC60E942042C4
:102D900000915E0610915F062091600630916106F9
:102DA000DC01CB01801B910BA20BB30B80935E0661
:102DB00090935F06A0936006B0936106809126070A
:102DC000882369F080915E0690915F06A09160066D
:102DD000B09161060397A105B1050CF0DEC78091A3
:102DE00097058823D9F067E273E080ED9BE00E94AD
:102DF000B8559EE088E10FB6F894A89580936000DE
:102E00000FBE909360008EE290E00E94016268EC39
:102E100070E080E090E00E94E841F5CF80ED9BE01B
:102E20000E94EC51892B09F49EC080ED9BE00E942A
:102E3000CA51823521F481E08093970594C086358C
:102E400041F49091260781E0911180E0809326075C
:102E50008AC0883609F087C06CE173E080ED9BE0A2
:102E60000E94B8550E949E36BC0180ED9BE00E94F6
:102E700067606EE172E080ED9BE00E94DC5500E04F
:102E800010E0ECE08E2E67E172E080ED9BE00E94A6
:102E9000B85538010F5F1F4FB80180ED9BE00E94CD
:102EA0007C60FF24F394A12CB12C869C6001879C4C
:102EB000D00C112499249A949F0C8F2D81958770A2
:102EC000E82E892D8370D1F460E280ED9BE00E94B2
:102ED0006C55F9E0FB1528F060E280ED9BE00E9464
:102EE0006C554AE050E06B2D80ED9BE00E946655EA
:102EF00060E280ED9BE00E946C55B394F601EA0D10
:102F0000F11DE35CFA4F808190E00E2C02C0959594
:102F100087950A94E2F780FF02C063E201C06FE583
:102F200080ED9BE00E946C552FE292120EC080ED66
:102F30009BE00E9445556FE072E080ED9BE00E94AF
:102F4000B855EE2021F0F394B5CFE11001C0A39461
:102F500030E6F312F8CF80ED9BE00E944555073034
:102F6000110509F090CF80912607882389F180917F
:102F70001B02882369F180911A02811129C0809176
:102F80005D06882329F167EF72E080ED9BE00E94E7
:102F9000B8554AE050E060915D0680ED9BE00E94EC
:102FA00066556FEE72E080ED9BE00E94B85540914F
:102FB00095055091960560E070E02AE080ED9BE079
:102FC0000E94FC5480ED9BE00E94455510925D06E6
:102FD000809126078823E9F08091BF0C9091C00C66
:102FE000A091C10CB091C20C8C3A9642A105B105DA
:102FF00084F468EC72E080ED9BE00E94B85560912B
:10300000BF0C7091C00C8091C10C9091C20C0E94B9
:10301000CE6280911902811113C18091290781111B
:103020000FC188EC8093190281E080930F0B88E632
:103030008093310B1092100B1092320B60E08DE6F2
:103040009CE00E94E6400E94DF6287E090E00E94E0
:103050003C638DE69CE00E949B408F77982F929571
:103060009F701AEFF82E919FF00C11248DE69CE0D2
:103070000E949B409C01332704E0359527950A95D3
:10308000E1F7E82E129FE00C11248DE69CE00E94EF
:103090009B4086FF93C6282F2F71922F92959F7089
:1030A000919F200D112485FD245F8DE69CE029A3CE
:1030B0000E949B408DE69CE00E949B40AC015527FE
:1030C00094E0559547959A95E1F72AEFD22E182F5F
:1030D000D49E100D11248DE69CE00E949B40AC0113
:1030E000552734E0559547953A95E1F7082FD49E3A
:1030F000000D11248DE69CE00E949B40AC015527F9
:1031000064E0559547956A95E1F7D49E800D1124AA
:103110008093620D0093630D1093640D29A1209399
:10312000650DE092660DF092670D80912607882369
:10313000B9F163EC72E080ED9BE00E94B8556FEB53
:1031400072E080ED9BE00E94B85582E69DE00E940F
:1031500055444AE050E0682F80ED9BE00E946655A0
:103160006BEB72E080ED9BE00E94B8554AE050E0C6
:103170006091650D80ED9BE00E94665567EB72E003
:1031800080ED9BE00E94B8554AE050E06091660DEA
:1031900080ED9BE00E94665580ED9BE00E944555C6
:1031A00000915C0610925C069091660D1091650D81
:1031B0009D3208F010C69E3108F00FC681E09F30A6
:1031C00008F480E0110F110F180F82E69DE00E94B5
:1031D0005544912F9695969596956CE0869FF001B3
:1031E0001124E90FF11DE35CFA4F808190E0109506
:1031F000177002C0959587951A95E2F780FF03C076
:1032000081E080935C0680915C060817C9F06BE34F
:1032100072E080ED9BE00E94B8554AE050E0602FDC
:1032200080ED9BE00E94665566E372E080ED9BE0D6
:103230000E94B85560915C0680ED9BE00E94816021
:10324000809118028111E1C684E180931802809177
:103250001702811112C08091910590919205A09161
:103260009305B09194059160809391059093920598
:10327000A0939305B093940518C080911702873CE2
:10328000A0F465E972E080ED9BE00E94B855609182
:1032900017024AE050E080ED9BE00E94665567E827
:1032A00072E080ED9BE00E94DC5580912607882328
:1032B00009F4ABC660E872E080ED9BE00E94B8556F
:1032C00068E772E080ED9BE00E94B8554091BF0C2A
:1032D0005091C00C6091C10C7091C20C80ED9BE0CC
:1032E0000E94356061E772E080ED9BE00E94B85576
:1032F0004091BB0C5091BC0C6091BD0C7091BE0C08
:1033000080ED9BE00E94356069E672E080ED9BE015
:103310000E94B8554091BF0C5091C00C6091C10CF7
:103320007091C20C8091BB0C9091BC0CA091BD0C13
:10333000B091BE0C481B590B6A0B7B0B80ED9BE0D8
:103340000E94356062E672E080ED9BE00E94B85515
:103350006091C30C7091C40C80ED9BE00E947C6076
:103360006EE572E080ED9BE00E94B8556091B60C6E
:103370004AE050E080ED9BE00E94665560E572E017
:1033800080ED9BE00E94B855609117024AE050E042
:1033900080ED9BE00E94665580ED9BE00E944555C4
:1033A00034C66111DCCAE9CA74E0872780939105AD
:1033B00090939205A0939305B0939405DECA109262
:1033C0009B05809108018F77809308018091080107
:1033D0008F7B80930801F1CA8091110770910505D8
:1033E000843009F0C0C090915606909359064091E0
:1033F000EA045091EB0420915206BAE02B9F900111
:10340000112422533109E1E0421753070CF4E0E0A4
:10341000E093510620914F06309150062550310916
:1034200081E04217530708F480E080934E06992309
:1034300029F0E11102C090E001C0982F90934D0651
:103440004732F2E05F074CF02091E5043091E6044A
:103450002632324010F4E11101C080E080934C0626
:10346000911103C0882309F45DC02091E3043091D9
:10347000E404232B09F06EC02091570630915806C2
:10348000A9014B7F452BA9F4992381F081E090E0BD
:1034900090935806809357068CE291E09093E40451
:1034A0008093E3048091080180681AC082E090E074
:1034B0002EC021303105B9F482E090E09093580697
:1034C0008093570688E592E09093E4048093E304A8
:1034D000809108018F7780930801809108018F7B8C
:1034E0008093080137C022303105B1F4882369F098
:1034F00083E090E090935806809357068CE291E029
:103500009093E4048093E30415C084E090E09093EA
:103510005806809357061EC023303105D9F484E045
:1035200090E0CCCF80910801413253403CF080685C
:1035300080930801809108018064D2CF8F778093B7
:103540000801809108018F7B809308011092580632
:10355000109257068091EA049091EB0490935006E4
:1035600080934F061DC080911107813059F48091DE
:10357000560680935906882309F442C080910801B9
:10358000806841C0809112078130D1F571113EC031
:1035900037C08091540690915506019709F485C073
:1035A000809116078330A9F4772399F0809118074A
:1035B000BAE08B9FC00111242091030530910405CE
:1035C000281739070CF485C0809108018064809326
:1035D000080180910F07813019F4809153067DC056
:1035E00080910F07823009F08AC0809110078130E6
:1035F00009F085C0662309F482C010923C056DC0B5
:10360000809108018F7780930801CACF80911407B9
:1036100020910305309104058823F1F06623E1F041
:1036200080911407EAE08E9FC00111242817390702
:103630009CF08091EA049091EB048217930764F464
:103640008091080180688093080182E090E0909367
:10365000550680935406A4CF80911407882379F0EF
:103660008091540690915506029749F48091140771
:10367000FAE08F9FC00111242817390704F18091C7
:10368000130740911507AAE08A9FC0011124841BEB
:103690009109281739070CF07CCF809108018068C8
:1036A0008093080181E090E0D2CF809113074AE037
:1036B000849FC0011124821793070CF071CF809171
:1036C00008018F77809308011092550610925406D6
:1036D00067CF809108018F7B7ACF80939B057723FA
:1036E00011F180911C075AE0859FC001112420919F
:1036F000030530910405281739073CF414C081E014
:1037000080933C0510929B05EACF80915C0680FF78
:103710000AC080911907813009F432C480911907D9
:10372000823009F43CC480919A05882331F068EB1B
:1037300071E080ED9BE00E94DC5510929A0510929A
:10374000E8041092E70439C967E373E080ED9BE079
:103750000E94B85560915E0670915F068091600688
:10376000909161060E94CE6251C9A090F904B09078
:10377000FA04C0900802EAE0CE9E6001112488EAB3
:10378000882E82E0982E95010B2C000C440B550BD3
:103790002F8B388F498F5A8FD4018D914D010F5F38
:1037A0001F4FBAE08B0220011124A414B5040CF4BD
:1037B00041C0D401EC91BAE0EB02F0011124EA150A
:1037C000FB05C4F1D801A85FBD4F6C911197CC9057
:1037D0002AE0C29E600111240D2C000CEE08FF08A7
:1037E000052C000C660877082F89388D498D5A8D75
:1037F00024193509460957098AE0689FB001112448
:10380000CB01770FAA0BBB0BBC01CD016C197D0955
:103810008E099F090E94117C9F01FF0F440B550BDD
:1038200024193509460957090E946481C20ED31E26
:10383000E41EF51E0530110509F0AECF97E9A91673
:10384000B10434F0C0900D02AAE0CA9E60011124B8
:10385000D0921002C0920F027E9904C081E0809342
:10386000E9040DC01092E90480911E07BAE08B9F15
:10387000C018D1081124D0921002C0920F0280917A
:103880002607882369F08091E904882319F06EEFF8
:1038900071E002C06CEE71E080ED9BE00E94DC55AF
:1038A000E0911D0780910F029091100225E0E20245
:1038B000F0011124E651FB4F208131818C01021B64
:1038C000130B17FF03C01195019511098217930778
:1038D00020F481E08093990506C02817390758F530
:1038E00081E08093980580910E0290E090933B05D3
:1038F00080933A0581E090E0909316028093150240
:103900000A30110534F580913A0590913B05969562
:10391000879590933B0580933A0505301105CCF4CB
:1039200080913A0590913B059695879590933B053C
:1039300080933A050EC080911102909112029093EB
:103940003B0580933A0582E090E0909316028093C5
:10395000150280912607882309F4E5C86FED71E010
:1039600080ED9BE00E94B855B80180ED9BE00E947D
:103970007C6068ED71E080ED9BE00E94B85560913D
:103980003A0570913B0580ED9BE00E941F60CBC81B
:1039900062E373E080ED9BE00E94B85560915E06A3
:1039A00070915F0680916006909161060E94CE62E0
:1039B000E3C889818A3009F4E1C9F801EA5EF54F6C
:1039C0008083D7C90F39110559F46EE971E083EA94
:1039D0009CE00E948A4783EA9CE00E94F634D6C9A4
:1039E00080E090E00E94C7787C011092A20C1092B7
:1039F000A10CBC018AE893E00E943B7E892B19F45C
:103A000081E090E024C0B7018EE893E00E943B7E05
:103A1000892B19F483E090E01AC0B70183E993E0A1
:103A20000E943B7E892B19F484E090E010C0B7011E
:103A300087E993E00E943B7E892BB1F3B7018FE9C0
:103A400093E00E943B7E892B31F485E090E09093D7
:103A5000A20C8093A10C81E090E00E94C778909323
:103A6000A00C80939F0C8091970C9091980C892BBF
:103A700059F40E9420424B015C0101E010E0A6E1F4
:103A8000CA2EAAE0DA2E36C000E010E0E091970CD2
:103A9000F091980CE00FF11F80819181892B49F3FF
:103AA00082819381009751F00E94087FE091970CEA
:103AB000F091980CE00FF11F138212820C5F1F4FE0
:103AC000E5CF0E942042DC01CB0188199909AA099F
:103AD000BB090B97A105B10508F0ECC0AE014F5F23
:103AE0005F4F63EA7CE081E99CE00E941441782EFC
:103AF000811107C081E99CE00E943E36882309F3CA
:103B0000D9C00E9420424B015C010330110509F429
:103B100088C03CF40130110569F00230110541F113
:103B2000C1C00430110509F46AC00530110509F45B
:103B3000B5C0B8C029812D3009F4B4C02A3019F4B9
:103B40007110C2C0B7C0822F022E000C990B29A39E
:103B50000E94EE7D29A1892B19F42D3209F014C1A0
:103B60002093160A22242394312C02E010E09EC0F8
:103B700021017FEF471A570A80EA4816510408F0DE
:103B800003C129812A3341F5F101EA5EF54F108224
:103B90000091970C1091980C0115110509F4E7C1DB
:103BA000D8010D90BC91A02DBE8BAD8BAB2B79F0C5
:103BB0006D897E8986E19AE00E943B7E0C5F1F4FF3
:103BC000892B71F7212C312C04E010E06FC0E6E165
:103BD000FAE0FE8BED8BCFC1822F022E000C990BE9
:103BE00029A30E94EE7D29A1892B19F42D3209F019
:103BF000CBC0F101EA5EF54F2083120153C0C10131
:103C00000196803A910508F0BFC02981203209F45D
:103C100049C0F101EA5EF54F20831C0103E010E08A
:103C200045C091012F5F3F4F203A310508F0ACC0ED
:103C300089818A3059F5F101EA5EF54F1082E091F1
:103C4000970CF091980C309709F49EC08F018081F9
:103C50009181009709F498C034962D893E892817E0
:103C60003907A1F7D6010D900020E9F7CD01865163
:103C70009A400E94737EF80193838283009709F42F
:103C800083C066E17AE00E94447E81C08D3051F0AD
:103C9000F101EA5EF54F8083190104C089818A3001
:103CA00009F475C00630110509F44ACF0115110554
:103CB00009F020CF61EA71E083EA9CE00E948A4724
:103CC00083EA9CE00E94F634A0909F0CB090A00C78
:103CD0008090A10C9090A20CC090950CD090960C66
:103CE000F6010081118101151105D1F1F801019052
:103CF0000020E9F731972F01401A510AB801C50198
:103D00000E943B7E3C01F801E40DF51D3197808156
:103D10008A3209F03FC0A20141505109B801C501E2
:103D20000E944B7E672811F0892BB1F4D6011296C0
:103D30008D919C9113978730910559F4D601149673
:103D4000ED91FC91159781E99CE01995882391F0FC
:103D50000DC08815990591F3B6E0CB0ED11CC0CFEC
:103D600064E971E083EA9CE00E948A4783EA9CE070
:103D70000E94F63480919F0C9091A00C0E94087FC5
:103D8000C7010E94087F02C800E010E08FCF01E069
:103D900010E08CCF672851F2DFCF6DE273E080ED49
:103DA0009BE00E94B85560915E0670915F0680911D
:103DB0006006909161060E94CE6211C89C01332773
:103DC00074E0359527957A95E1F7582F129F500D9D
:103DD0001124252F6AC983E0F5C982E0F3C9109246
:103DE0001B024091B30550E0542F44278091B20547
:103DF000482B5093300640932F062091B50530E0B4
:103E0000322F22278091B405282B30932C06209343
:103E10002B068091B70590E0982F88276091B60512
:103E2000862B90932A06809329068091B90590E00D
:103E3000982F88276091B805862B90932E06809343
:103E40002D066091BB0570E0762F6627E091BA05DC
:103E50006E2B70932606609325066091BD0570E079
:103E6000762F6627E091BC056E2B70932806609331
:103E70002706E091BF05F0E0FE2FEE276091BE051A
:103E8000E62BF0932406E09323066091C10570E0D1
:103E9000762F6627A091C0056A2B70933206609337
:103EA0003106A091C205A0933306B091C905B09325
:103EB0003906A1FBBB27B0F9B0933706B091DF05F7
:103EC000B0933A06B170B0933B065093A10540936E
:103ED000A0053093E6042093E5049093CB048093EF
:103EE000CA04F0939F05E0939E057093C904609304
:103EF000C8048091C705809352068091C8058093BD
:103F00009D0581E09091F505913009F080E0809366
:103F10003C05A2FB882780F980935306A3FBAA27C0
:103F2000A0F9A093560681E09091C405913009F064
:103F300080E080934B0681E09091C305913009F0B9
:103F400080E0809346060C94B30B11110C94E8109A
:103F50000C94780F11110C94E81067E471E080ED77
:103F60009BE00E94DC551092E2040C94CD0F46E1D8
:103F70005AE05E8B4D8B212C312C05E010E096CE63
:103F800080919A05811106C060ED71E080ED9BE0A3
:103F90000E94DC5581E080939A050C94DD14809199
:103FA000E7049091E804892B11F00C94DD148091C2
:103FB0009A05811113C040911A0728E532E0429F0B
:103FC000C001439F900D11249093E8048093E7046F
:103FD00081E080939A0569EC71E011C040911B0764
:103FE00028E532E0429FC001439F900D1124909339
:103FF000E8048093E70410929A0561EC71E080ED8B
:104000009BE00E94DC550C94DD14A3960FB6F89447
:10401000DEBF0FBECDBFDF91CF911F910F91FF90FB
:10402000EF90DF90CF90BF90AF909F908F907F9058
:104030006F905F904F903F902F9008953F924F92D6
:104040005F926F927F928F929F92AF92BF92CF9228
:10405000DF92EF92FF920F931F93CF93DF93CDB731
:10406000DEB7A0970FB6F894DEBF0FBECDBF7E01BE
:1040700023E1E20EF11C64E074E0C7010E94A45445
:1040800064E170E0C7010E94C55361E08EEC93E0EB
:104090000E944F5E882311F40C94182F1E2D0F2DB3
:1040A00087E0382E9AE0492E2CE6C22E23E0D22E4D
:1040B00041E050E0BE01615E7F4F81EE9CE00E94D6
:1040C000223C892B11F40C94152F6F8D6A3031F03E
:1040D0006D3021F0C7010E94EC53EACF66E77BE028
:1040E00080ED9BE00E94B8554F89588D6B897C8983
:1040F00080ED9BE00E94865164E77BE080ED9BE0D1
:104100000E94DC5540E050E06DE3C7010E9443533C
:104110005C018F89988D1816190614F00C940E2FD7
:104120003FEFA316B30611F40C940E2FA5014F5FB9
:104130005F4FB701CE010D960E947A51CE010D96C8
:104140000E94E4526CE67BE0CE0101960E94555439
:10415000BE016F5F7F4FC7010E947153582ECE0181
:1041600001960E945054552009F448C089899A89C3
:104170000C9711F00C940A2FA12CB12C812CB501B5
:10418000CE010D960E945F53FC0180810E94E65093
:10419000982E929430EF9322B5016F5F7F4FCE013E
:1041A0000D960E945F53FC0180810E94E650F5014C
:1041B000F595E79521E030E02C0F3D1FE20FF31F4E
:1041C000890D80833AE0A316B10411F48824839406
:1041D00082E0A80EB11CECE0AE16B10481F6882096
:1041E00049F086E0FE013196A4E3B2E001900D9221
:1041F0008A95E1F70E94D3500C940A2F65E67BE084
:10420000CE0101960E945554BE016F5F7F4FC701DA
:104210000E947153982ECE0101960E94505499200D
:1042200009F45BC0DA82C9821B821C821D821E8255
:104230006D857E85CE0101960E94EC55882329F07C
:104240008B819C81AD81BE813AC060E67BE0CE016E
:1042500007960E94555489899A892B853C85821737
:104260009307F9F4892BD9F0AD84BE848F809884AC
:10427000F50181915F01882391F0082E000C990BC4
:104280000E940A7E3C01F40181914F01082E000C2E
:10429000990B0E940A7E6816790651F302C05524D4
:1042A0005394CE0107960E945054552081F080917E
:1042B0006A0D90916B0DA0916C0DB0916D0D809376
:1042C000590D90935A0DA0935B0DB0935C0D87E54B
:1042D0009DE00E9485630C940A2F66E57BE0CE0189
:1042E00001960E945554BE016F5F7F4FC7010E9427
:1042F0007153982ECE0101960E945054992031F1AD
:10430000DA82C9821B821C821D821E826D857E8597
:10431000CE0101960E94EC55882391F08B819C81FF
:10432000AD81BE818093530D9093540DA093550D94
:10433000B093560DCE0101960E9485630C940A2F0E
:10434000CE0101960E9485630C940A2F6CE47BE0F9
:10435000CE0101960E945554BE016F5F7F4FC70189
:104360000E947153982ECE0101960E9450549920BC
:1043700031F1DA82C9821B821C821D821E826D8508
:104380007E85CE0101960E94EC55882391F08B81A9
:104390009C81AD81BE8180934D0D90934E0DA09375
:1043A0004F0DB093500DCE0101960E9485630C9481
:1043B0000A2FCE0101960E9485630C940A2F64E4B3
:1043C0007BE0CE0101960E945554BE016F5F7F4F86
:1043D000C7010E947153982ECE0101960E9450543D
:1043E000992031F1DA82C9821B821C821D821E82D1
:1043F0006D857E85CE0101960E94EC55882391F053
:104400008B819C81AD81BE818093470D9093480D37
:10441000A093490DB0934A0DCE0101960E94856389
:104420000C940A2FCE0101960E9485630C940A2FEA
:1044300060E37BE0CE0101960E945554BE016F5FA0
:104440007F4FC7010E947153982ECE0101960E94A2
:10445000505491100C940A2F66E27BE0CE01019635
:104460000E945554BE016F5F7F4FC7010E94715378
:10447000982ECE0101960E945054992041F0CE0111
:104480000D960E94D9526093EA060C940A2F66E1B9
:104490007BE0CE0101960E945554BE016F5F7F4FB5
:1044A000C7010E947153982ECE0101960E9450546C
:1044B000992041F0CE010D960E94D9526093EB06EF
:1044C0000C940A2F69E07BE0CE0101960E945554BE
:1044D000BE016F5F7F4FC7010E947153982ECE01BE
:1044E00001960E945054992041F0CE010D960E94F1
:1044F000D9526093EC060C940A2F67EF7AE0CE0154
:1045000001960E945554BE016F5F7F4FC7010E9404
:104510007153982ECE0101960E945054992051F06B
:10452000CE010D960E94D9527093EE066093ED066F
:104530000C940A2F66EE7AE0CE0101960E94555443
:10454000BE016F5F7F4FC7010E947153982ECE014D
:1045500001960E945054992051F0CE010D960E9470
:10456000D9527093F6066093F5060C940A2F6AED03
:104570007AE0CE0101960E945554BE016F5F7F4FD5
:10458000C7010E947153982ECE0101960E9450548B
:10459000992051F0CE010D960E94D9527093F206E7
:1045A0006093F1060C940A2F6FEC7AE0CE0101962D
:1045B0000E945554BE016F5F7F4FC7010E94715327
:1045C000982ECE0101960E945054992051F0CE01B0
:1045D0000D960E94D9527093FA066093F9060C94D6
:1045E0000A2F6FEB7AE0CE0101960E945554BE016E
:1045F0006F5F7F4FC7010E947153982ECE010196C5
:104600000E945054992051F0CE010D960E94D9522B
:104610007093F0066093EF060C940A2F60EB7AE03B
:10462000CE0101960E945554BE016F5F7F4FC701B6
:104630000E947153982ECE0101960E9450549920E9
:1046400051F0CE010D960E94D9527093F8066093F6
:10465000F7060C940A2F63EA7AE0CE0101960E94D5
:104660005554BE016F5F7F4FC7010E947153982E52
:10467000CE0101960E945054992051F0CE010D9622
:104680000E94D9527093F4066093F3060C940A2F9B
:1046900067E97AE0CE0101960E945554BE016F5F32
:1046A0007F4FC7010E947153982ECE0101960E9440
:1046B0005054992051F0CE010D960E94D95270931A
:1046C000FC066093FB060C940A2F61E87AE0CE01A9
:1046D00001960E945554BE016F5F7F4FC7010E9433
:1046E0007153982ECE0101960E945054992081F06A
:1046F000CE010D960E94D9529B01215031092336DB
:10470000310510F00C940A2F6093FD060C940A2FCB
:1047100062E77AE0CE0101960E945554BE016F5FB8
:104720007F4FC7010E947153982ECE0101960E94BF
:104730005054992081F0CE010D960E94D9529B01D0
:10474000215031092A35310510F00C940A2F60935D
:10475000FE060C940A2F65E57AE0CE0101960E94D0
:104760005554BE016F5F7F4FC7010E947153982E51
:10477000CE0101960E9450549920A9F0CE010D96C9
:104780000E94D952611571058105910511F40C94AF
:104790000A2F6093FF0670930007809301079093A0
:1047A00002070C940A2F6DE37AE0CE0101960E9475
:1047B0005554BE016F5F7F4FC7010E947153982E01
:1047C000CE0101960E945054992081F0CE010D96A1
:1047D0000E94D952609303077093040780930507E2
:1047E000909306070E94A0500C940A2F61E27AE091
:1047F000CE0101960E945554BE016F5F7F4FC701E5
:104800000E947153982ECE0101960E945054992017
:1048100079F0CE010D960E94D9526115710511F4FF
:104820000C940A2F70930807609307070C940A2FC3
:104830006EE07AE0CE0101960E945554BE016F5F92
:104840007F4FC7010E947153982ECE0101960E949E
:104850005054992041F0CE010D960E94D952609398
:1048600009070C940A2F63E07AE0CE0101960E94BA
:104870005554BE016F5F7F4FC7010E947153982E40
:10488000CE0101960E945054992081F0CE010D96E0
:104890000E94D9529B01215031092336310510F075
:1048A0000C940A2F60930E070C940A2F68EF79E09E
:1048B000CE0101960E945554BE016F5F7F4FC70124
:1048C0000E947153982ECE0101960E945054992057
:1048D00081F0CE010D960E94D9529B0121503109E1
:1048E0002336310510F00C940A2F60930D070C94B9
:1048F0000A2F6CEE79E0CE0101960E945554BE015C
:104900006F5F7F4FC7010E947153982ECE010196B1
:104910000E945054992081F0CE010D960E94D952E8
:104920009B01215031092336310510F00C940A2FD8
:1049300060930B070C940A2F6DED79E0CE01019680
:104940000E945554BE016F5F7F4FC7010E94715393
:10495000982ECE0101960E945054992081F0CE01EC
:104960000D960E94D9529B01215031092336310501
:1049700010F00C940A2F60930C070C940A2F6FEC24
:1049800079E0CE0101960E945554BE016F5F7F4FC2
:10499000C7010E947153982ECE0101960E94505477
:1049A000992009F46EC0BE01635F7F4FCE01499626
:1049B0000E948B5469ED73E0CE0101960E94A454CD
:1049C000BE016F5F7F4FCE0149960E9471538111E6
:1049D00017C06FED73E0CE0107960E94A454BE018C
:1049E000695F7F4FCE0149960E947153BB24B394F7
:1049F000811101C0B12CCE0107960E94505402C013
:104A0000BB24B394CE0101960E945054BB2021F0E8
:104A100010921A0221E02DC065EE73E0CE010196DE
:104A20000E94A454BE016F5F7F4FCE0149960E9441
:104A30007153B82ECE0101960E945054B11018C087
:104A400069EE73E0CE0101960E94A454BE016F5F2F
:104A50007F4FCE0149960E947153282FCE010196B7
:104A600028A30E94505428A1222319F022E001C05B
:104A700023E020930A07CE0149960E9450540C94DB
:104A80000A2F64EC79E0CE0101960E945554BE01D4
:104A90006F5F7F4F812F902F0E947153982ECE0110
:104AA00001960E945054992081F0CE010D960E94EB
:104AB000D9529B01215031092336310510F00C9455
:104AC0000A2F609313070C940A2F6BEB79E0CE0149
:104AD00001960E945554BE016F5F7F4F812F902F2A
:104AE0000E947153982ECE0101960E945054992035
:104AF00099F0BE01635F7F4FCE0101960E948B54F7
:104B0000CE0101960E941E7580931107CE01019679
:104B10000E9450540C940A2F6EEA79E0CE0101965F
:104B20000E945554BE016F5F7F4F812F902F0E94CE
:104B30007153982ECE0101960E945054992099F0FD
:104B4000BE01635F7F4FCE0101960E948B54CE0160
:104B500001960E94C97480931207CE0101960E94AB
:104B600050540C940A2F60EA79E0CE0101960E941D
:104B70005554BE016F5F7F4F812F902F0E9471535C
:104B8000982ECE0101960E945054992069F0CE01D2
:104B90000D960E94D9526536710510F00C940A2FBB
:104BA000609315070C940A2F66E979E0CE0101960F
:104BB0000E945554BE016F5F7F4F812F902F0E943E
:104BC0007153982ECE0101960E945054992081F085
:104BD000CE010D960E94D9529B01215031092336F6
:104BE000310510F00C940A2F609314070C940A2FCF
:104BF0006AE879E0CE0101960E945554BE016F5FCC
:104C00007F4F812F902F0E947153982ECE010196D5
:104C10000E945054992081F0CE010D960E94D952E5
:104C20009B01215031092336310510F00C940A2FD5
:104C3000609318070C940A2F60E879E0CE01019682
:104C40000E945554BE016F5F7F4F812F902F0E94AD
:104C50007153982ECE0101960E945054992099F0DC
:104C6000BE01635F7F4FCE0101960E948B54CE013F
:104C700001960E941E7580931607CE0101960E9430
:104C800050540C940A2F62E779E0CE0101960E94FD
:104C90005554BE016F5F7F4F812F902F0E9471533B
:104CA000982ECE0101960E945054992099F0BE0191
:104CB000635F7F4FCE0101960E948B54CE01019617
:104CC0000E94C97480931707CE0101960E94505428
:104CD0000C940A2F6AE679E0CE0101960E945554A1
:104CE000BE016F5F7F4F812F902F0E947153982ECE
:104CF000CE0101960E945054992009F46EC0BE0165
:104D0000635F7F4FCE0149960E948B5468E576E041
:104D1000CE0101960E945554BE016F5F7F4FCE01B8
:104D200049960E947153811117C062E576E0CE0169
:104D300007960E945554BE01695F7F4FCE01499688
:104D40000E947153BB24B394811101C0B12CCE01D8
:104D500007960E94505402C0BB24B394CE01019622
:104D60000E945054BB2021F010921A0221E02DC065
:104D70006DE476E0CE0101960E945554BE016F5F4E
:104D80007F4FCE0149960E947153B82ECE010196F5
:104D90000E945054B11018C068E476E0CE0101962C
:104DA0000E945554BE016F5F7F4FCE0149960E940D
:104DB0007153282FCE01019628A30E94505428A198
:104DC000222319F023E001C022E020930F07CE0137
:104DD00049960E9450540C940A2F6EE579E0CE015A
:104DE00001960E945554BE016F5F7F4F812F902F17
:104DF0000E947153982ECE0101960E945054992022
:104E000091F0BE01635F7F4FCE0101960E948B54EB
:104E1000CE0101960E94C97480931007CE010196BD
:104E20000E945054F7C76AE479E0CE0101960E94CF
:104E30005554BE016F5F7F4F812F902F0E94715399
:104E4000982ECE0101960E945054992091F0BE01F7
:104E5000635F7F4FCE0101960E948B54CE01019675
:104E60000E94C97480931907CE0101960E94505484
:104E7000D1C764E379E0CE0101960E945554BE018A
:104E80006F5F7F4F812F902F0E947153982ECE011C
:104E900001960E945054992039F0CE010D960E943F
:104EA000D95260931A07B6C76DE179E0CE01019639
:104EB0000E945554BE016F5F7F4F812F902F0E943B
:104EC0007153982ECE0101960E945054992039F0CA
:104ED000CE010D960E94D95260931B079BC76DE0CF
:104EE00079E0CE0101960E945554BE016F5F7F4F5D
:104EF000812F902F0E947153982ECE0101960E940F
:104F00005054992061F0CE010D960E94D9528FEF36
:104F1000860F833608F07EC760931C077BC768EF57
:104F200078E0CE0101960E945554BE016F5F7F4F1D
:104F3000812F902F0E947153982ECE0101960E94CE
:104F40005054992059F0CE010D960E94D952161650
:104F500017060CF05FC760931F075CC760EE78E030
:104F6000CE0101960E945554BE016F5F7F4F812F85
:104F7000902F0E947153982ECE0101960E9450549A
:104F8000992059F0CE010D960E94D9521616170697
:104F90000CF040C7609320073DC769EC78E0CE0174
:104FA00001960E945554BE016F5F7F4F812F902F55
:104FB0000E947153982ECE0101960E945054992060
:104FC00059F0CE010D960E94D952161617060CF014
:104FD00021C7609321071EC765EB78E0CE010196DB
:104FE0000E945554BE016F5F7F4F812F902F0E940A
:104FF0007153982ECE0101960E945054992059F079
:10500000CE010D960E94D952161617060CF002C753
:1050100060932207FFC664EA78E0CE0101960E9401
:105020005554BE016F5F7F4F812F902F0E947153A7
:10503000982ECE0101960E945054992059F0CE012D
:105040000D960E94D952161617060CF0E3C660930F
:105050002307E0C664E978E0CE0101960E9455542A
:10506000BE016F5F7F4F812F902F0E947153982E4A
:10507000CE0101960E945054992059F0CE010D9610
:105080000E94D952161617060CF0C4C66093240766
:10509000C1C667E878E0CE0101960E945554BE0172
:1050A0006F5F7F4F812F902F0E947153982ECE01FA
:1050B00001960E945054992059F0CE010D960E94FD
:1050C000D952161617060CF0A5C660932507A2C67E
:1050D00067E778E0CE0107960E945554BE01695FEC
:1050E0007F4F812F902F0E947153811117C067E667
:1050F00078E0CE0101960E945554BE016F5F7F4F4C
:10510000812F902F0E94715399249394811101C093
:10511000912CCE0101960E94505402C09924939480
:10512000CE0107960E945054992079F1CE010D9638
:105130000E94D952613009F06DC682E08093EC0480
:105140001092ED048093F1046093F2048093F604CE
:105150008093F7048093FB0493E09093FC04809386
:10516000000594E0909301058093050595E09093E8
:10517000060580930A0596E090930B0580930F0532
:105180003092100510921A0245C661E678E0CE0111
:1051900001960E945554BE016F5F7F4F812F902F63
:1051A0000E947153982ECE0101960E94505499206E
:1051B00041F0BE01635F7F4F80E090E00E94A276E5
:1051C00029C669E578E0CE0101960E945554BE01DA
:1051D0006F5F7F4F812F902F0E947153982ECE01C9
:1051E00001960E945054992041F0BE01635F7F4FA9
:1051F00081E090E00E94A2760DC66FE478E0CE01D7
:1052000001960E945554BE016F5F7F4F812F902FF2
:105210000E947153982ECE0101960E9450549920FD
:1052200041F0BE01635F7F4F82E090E00E94A27672
:10523000F1C56AE478E0CE0101960E945554BE01A2
:105240006F5F7F4F812F902F0E947153982ECE0158
:1052500001960E945054992041F0BE01635F7F4F38
:1052600083E090E00E94A276D5C565E478E0CE01A7
:1052700001960E945554BE016F5F7F4F812F902F82
:105280000E947153982ECE0101960E94505499208D
:1052900041F0BE01635F7F4F84E090E00E94A27600
:1052A000B9C560E478E0CE0101960E945554BE0174
:1052B0006F5F7F4F812F902F0E947153982ECE01E8
:1052C00001960E945054992041F0BE01635F7F4FC8
:1052D00085E090E00E94A2769DC567E378E0CE016C
:1052E00001960E945554BE016F5F7F4F812F902F12
:1052F0000E947153982ECE0101960E94505499201D
:1053000041F0BE01635F7F4F86E090E00E94A2768D
:1053100081C56EE278E0CE0101960E945554BE012F
:105320006F5F7F4F812F902F0E947153982ECE0177
:1053300001960E945054992041F0BE01635F7F4F57
:1053400087E090E00E94A27665C56BE278E0CE012E
:1053500001960E945554BE016F5F7F4F812F902FA1
:105360000E947153982ECE0101960E9450549920AC
:1053700041F0BE01635F7F4F88E090E00E94A2761B
:1053800049C568E278E0CE0101960E945554BE01FD
:105390006F5F7F4F812F902F0E947153982ECE0107
:1053A00001960E945054992041F0BE01635F7F4FE7
:1053B00089E090E00E94A2762DC565E278E0CE01FA
:1053C00001960E945554BE016F5F7F4F812F902F31
:1053D0000E947153982ECE0101960E94505499203C
:1053E00041F0BE01635F7F4F8AE090E00E94A276A9
:1053F00011C562E278E0CE0101960E945554BE01CB
:105400006F5F7F4F812F902F0E947153982ECE0196
:1054100001960E945054992041F0BE01635F7F4F76
:105420008BE090E00E94A276F5C46FE178E0CE01B7
:1054300001960E945554BE016F5F7F4F812F902FC0
:105440000E947153982ECE0101960E9450549920CB
:1054500041F0BE01635F7F4F8CE090E00E94A27636
:10546000D9C46CE178E0CE0101960E945554BE018A
:105470006F5F7F4F812F902F0E947153982ECE0126
:1054800001960E945054992041F0BE01635F7F4F06
:105490008DE090E00E94A276BDC469E178E0CE0183
:1054A00001960E945554BE016F5F7F4F812F902F50
:1054B0000E947153982ECE0101960E94505499205B
:1054C00041F0BE01635F7F4F8EE090E00E94A276C4
:1054D000A1C466E178E0CE0101960E945554BE0158
:1054E0006F5F7F4F812F902F0E947153982ECE01B6
:1054F00001960E945054992041F0BE01635F7F4F96
:105500008FE090E00E94A27685C464E178E0CE014D
:1055100001960E945554BE016F5F7F4F812F902FDF
:105520000E947153982ECE0101960E9450549920EA
:1055300051F0CE010D960E94D952613009F06AC433
:105540006093260767C462E078E0CE0101960E946E
:105550005554BE016F5F7F4F812F902F0E94715372
:10556000982ECE0101960E945054992039F0CE0118
:105570000D960E94D952609308024CC460EF77E008
:10558000CE0101960E945554BE016F5F7F4F812F5F
:10559000902F0E947153982ECE0101960E94505474
:1055A000992039F0CE010D960E94D95260930902DC
:1055B00031C46EED77E0CE0101960E945554BE01D4
:1055C0006F5F7F4F812F902F0E947153982ECE01D5
:1055D00001960E945054992039F0CE010D960E94F8
:1055E000D95260930A0216C46DEC77E0CE010196A1
:1055F0000E945554BE016F5F7F4F812F902F0E94F4
:105600007153982ECE0101960E945054992039F082
:10561000CE010D960E94D95260930B02FBC36CEB36
:1056200077E0CE0101960E945554BE016F5F7F4F17
:10563000812F902F0E947153982ECE0101960E94C7
:105640005054992039F0CE010D960E94D9526093A2
:105650000C02E0C36AEA77E0CE0101960E9455543D
:10566000BE016F5F7F4F812F902F0E947153982E44
:10567000CE0101960E945054992039F0CE010D962A
:105680000E94D95260930D02C5C364E977E0CE0150
:1056900001960E945554BE016F5F7F4F812F902F5E
:1056A0000E947153982ECE0101960E945054992069
:1056B00071F0CE010D960E94D952469E9001479EF0
:1056C000300D11243093140220931302A3C362E817
:1056D00077E0CE0101960E945554BE016F5F7F4F67
:1056E000812F902F0E947153982ECE0101960E9417
:1056F0005054992061F0CE010D960E94D952660F48
:10570000862F880F880F680F60930E0283C36DE6A3
:1057100077E0CE0101960E945554BE016F5F7F4F26
:10572000812F902F0E947153982ECE0101960E94D6
:105730005054992069F0CE010D960E94D952FAE09A
:105740006F9FB0011124709312026093110262C323
:105750006DE577E0CE0101960E945554BE016F5F62
:105760007F4F812F902F0E947153982ECE0101966A
:105770000E945054992009F464C169EA76E0CE0190
:1057800001960E945554BE016F5F7F4FCE010D966A
:105790000E947153B82ECE0101960E945054B11050
:1057A0002EC161EA76E0CE0101960E945554BE01F9
:1057B0006F5F7F4FCE010D960E947153B82ECE01C0
:1057C00001960E945054B1101CC167E976E0CE01E9
:1057D00001960E945554BE016F5F7F4FCE010D961A
:1057E0000E947153B82ECE0101960E945054B11000
:1057F0000AC162E976E0CE0101960E945554BE01CD
:105800006F5F7F4FCE010D960E947153B82ECE016F
:1058100001960E945054B110F8C06DE876E0CE01B8
:1058200001960E945554BE016F5F7F4FCE010D96C9
:105830000E947153B82ECE0101960E945054B110AF
:10584000E6C068E876E0CE0101960E945554BE019C
:105850006F5F7F4FCE010D960E947153B82ECE011F
:1058600001960E945054B110D4C06FE776E0CE018B
:1058700001960E945554BE016F5F7F4FCE010D9679
:105880000E947153B82ECE0101960E945054B1105F
:10589000C2C066E776E0CE0101960E945554BE0173
:1058A0006F5F7F4FCE010D960E947153B82ECE01CF
:1058B00001960E945054B110B0C063E776E0CE016B
:1058C00001960E945554BE016F5F7F4FCE010D9629
:1058D0000E947153B82ECE0101960E945054B1100F
:1058E0009EC060E776E0CE0101960E945554BE014D
:1058F0006F5F7F4FCE010D960E947153B82ECE017F
:1059000001960E945054B1108CC06DE676E0CE0135
:1059100001960E945554BE016F5F7F4FCE010D96D8
:105920000E947153B82ECE0101960E945054B110BE
:105930007AC06AE676E0CE0101960E945554BE0117
:105940006F5F7F4FCE010D960E947153B82ECE012E
:1059500001960E945054B11068C067E676E0CE010F
:1059600001960E945554BE016F5F7F4FCE010D9688
:105970000E947153B82ECE0101960E945054B1106E
:1059800056C064E676E0CE0101960E945554BE01F1
:105990006F5F7F4FCE010D960E947153B82ECE01DE
:1059A00001960E945054B11044C061E676E0CE01E9
:1059B00001960E945554BE016F5F7F4FCE010D9638
:1059C0000E947153B82ECE0101960E945054B1101E
:1059D00032C06EE576E0CE0101960E945554BE01BC
:1059E0006F5F7F4FCE010D960E947153B82ECE018E
:1059F00001960E945054B11020C08FEF1FC080E06C
:105A00001DC081E01BC082E019C083E017C084E0A4
:105A100015C085E013C086E011C087E00FC088E0A4
:105A20000DC089E00BC08AE009C08BE007C08CE0A4
:105A300005C08DE003C08EE001C08FE080931D079C
:105A4000E9C16CE477E0CE0101960E945554BE0195
:105A50006F5F7F4F812F902F0E947153982ECE0140
:105A600001960E945054992039F0CE010D960E9463
:105A7000D95260931E07CEC166E477E0CE0101964D
:105A80000E945554BE016F5F7F4F812F902F0E945F
:105A90007153982ECE0101960E945054992009F41A
:105AA00080C16BE377E0CE0101960E945554BE01A0
:105AB0006F5F7F4F812F902F0E947153982ECE01E0
:105AC00001960E945054992009F4A4C195014AE01E
:105AD00050E0612F702FCE0101960E94B854BE0194
