:100000000C949E090C94D2310C94A7310C947C3141
:100010000C9451310C9426310C94FB300C94D0305C
:100020000C94A5300C94CF090C94CF090C94CF09F3
:100030000C94CF090C94CF090C94CF090C94CF09E0
:100040000C94CF090C94CE340C94CF090C94CF09A6
:100050000C94CF090C94CF090C94CF090C945B300D
:100060000C94CF090C94B54B0C948C4B0C94CF0989
:100070000C94CF090C94CF090C94CF090C94CF09A0
:100080000C94CF090C94CF090C94CF090C94E7334E
:100090000C94634B0C943A4B0C94CF090C94B632ED
:1000A0000C94CF090C94CF090C94CF090C94CF0970
:1000B0000C94CF090C94CF090C94CF090C94CF0960
:1000C0000C94CF090C94CF090C94CF090C94CF0950
:1000D0000C94CF090C94CF090C94CF090C94CF0940
:1000E0000C94CF099547984787478B479147CF474F
:1000F0009C47A047A647AA47AE47B447B847BC4766
:10010000CF47C247C647CA47375D3C5D415D4B5D3F
:10011000555DCE5D5F5D675D6F5D795D835D8D5D16
:100120009C5DA65DCE5DB05DBA5DC45D504B543A3A
:100130002043524300504B543A2045545800504BF2
:10014000543A20535458002A2A4833002A2A473266
:10015000002A2A4731002A2A5032002A2A50310028
:100160002A2A444D5031002A2A444D5432002A2A6A
:10017000444D5431002A2A444D545F4F4E002A2AE0
:10018000444D445F4F4E002A2A444D505F4F46462F
:10019000002A2A444D505F4F4E002A2A444D525F98
:1001A0004F464632002A2A444D525F4F4646002AA7
:1001B0002A444D525F4F4E002A2A432D4F46462A6D
:1001C000002A2A432D4F4646002A2A432D4F4E002F
:1001D0002A2A432D4F4E2A00206B726F6B3A00344F
:1001E000443A20726F7A6E6963613A0034443A206F
:1001F0005445524D4F53544154204F4646003444C9
:100200003A205445524D4F53544154204F4E0020F4
:1002100020202020202000647A69656E3A00686101
:10022000726D6F6E6F6772616D206379726B756C42
:1002300061636A693A00202D3E20004841524D4FCB
:100240004E4F4752414D3A207A6D69616E612000F0
:1002500020646574656B746F7220303A200020252D
:100260002000206669726520002070686173652037
:1002700000207A65726F200020746F74616C20001A
:1002800054524941433A002F32303020696D707525
:100290006C736F770054524941433A2070726F6219
:1002A0006C656D79207A20646574656B746F726516
:1002B0006D2030203A2000206D3A0020683A00205E
:1002C000643A005254433A0054524941433A207A26
:1002D000616B6C7563656E6961207A206465746515
:1002E0006B746F72612C2064656C7461203D00201A
:1002F00072657472793D0045434F414C3A207072EB
:100300006F626C656D79207A206B6F6D756E696BAD
:1003100061636A61203A206572723D00576F6C6EAE
:10032000792052414D3A00524553455400574542B9
:100330003A005A34443A00504D503A00444D553A30
:1003400000504F443A00414C473A00414C4D3A006E
:100350004D41503A004D41583A0044414C4C3A000E
:10036000434F4E3A0054494D3A0044414C4C41539E
:100370003A204B6F6E69656320706F737A756B6995
:1003800077616E696120637A756A6E696B6F772E2B
:1003900000202054656D7065726174757261203D36
:1003A0002000204352433D00202044617461203DE1
:1003B000200020437A617320706F6272616E696100
:1003C0002064616E796368207A20637A756A6E6949
:1003D0006B61203D2000204E69657A6E616E792048
:1003E0004453313878780020445331383232002079
:1003F0004453313842323000204453313853323084
:1004000000626C6164204352430044414C4C4153B0
:100410003A204944203D0020437A6173206B6F6D80
:10042000656E6461206B6F6E776572736A692064B4
:100430006C6120637A756A6E696B61203D200044AF
:10044000414C4C41533A20506F637A6174656B2084
:10045000706F737A756B6977616E696120637A7505
:100460006A6E696B6F772E0020743A00206F3A0035
:1004700020703A002049443A0044414C4C415320FA
:100480000053443A206272616B20706C696B752076
:10049000706F64616A6E696B2E7478740052544395
:1004A0003A206F64637A7974207A61736F626E693F
:1004B0006B613A004E54503A20557A79736B616EF5
:1004C0006F20637A617320756E697874696D653A1F
:1004D000005254433A207A6E616C657A696F6E6F90
:1004E00020445331333037005254433A2062726112
:1004F0006B20445331333037005254433A20537AFF
:10050000756B616D20445331333037202E2E2E0011
:1005100049503A206272616B204574686572536875
:1005200069656C642E2E2E005757573A7374726F9C
:100530006E6120676F746F7761005757573A757215
:10054000756368616D69616D207374726F6E652E7D
:100550002E2E0049503A20646E733A0049503A20DA
:100560006272616D613A0049503A206D61736B614E
:100570003A0049503A2061647265733A0049503A32
:10058000206D61633A0049503A20706F626965726C
:10059000616E696520616472657375207A204448D4
:1005A00043502E2E2E00576F6C6E792052414D3ADB
:1005B0000049503A206B6F6E666967757261636AB5
:1005C000612073696563692E2E2E00576F6C6E79FA
:1005D0002052414D3A00576F6C6E792052414D3A8E
:1005E00000576F6C6E792052414D3A0053443A20C7
:1005F000626C6164206F64637A7974752064616EE3
:100600007963680053443A20626C6164206B6172C4
:1006100074790053443A206272616B206B6172748A
:1006200079005254433A2053544F50202D3E2053CA
:100630005441525400302E312E302E3638004C7535
:10064000636A616E20762E004C41544F005A494D2A
:1006500041004252554C490045434F414C005438EB
:1006600000543700543600543500543400543300DD
:10067000543200543100545350414C494E590054A7
:10068000504F444C4F474100544357550054574531
:100690005700545A45570054504F44414A4E494B15
:1006A0000054504F57524F54005450494543004E48
:1006B00069657A6E616E7920647A69656E004E4470
:1006C00000534F00505400435A00535200575400F7
:1006D000504F002A0053443A206272616B20706CC4
:1006E000696B7520636F6E6669672E747874005845
:1006F00058444D5F504C55535F4D4F43005858443C
:100700004D5F504C55535F4D4F430058585445531F
:10071000545F4E5231207A6E616C657A696F6E6FEC
:10072000005858544553545F4E5231004E69657A13
:100730006E616E7920647A69656E0050524F475F32
:100740004359524B5F0050524F475F005A41574F39
:100750005234442D4F424E495A4F4E41005A415750
:100760004F5234442D435A554A4E494B005A415733
:100770004F5234442D435A41535F504F4D494152DB
:1007800055005A41574F5234442D435A41535F4B01
:10079000524F4B005A41574F5234442D435A415304
:1007A0005F4F54574152434941004B525A595741A8
:1007B0005F47525A414E49412B3135004B525A59ED
:1007C00057415F47525A414E49412B35004B525ACF
:1007D0005957415F47525A414E49412D30004B52C3
:1007E0005A5957415F47525A414E49412D313000C5
:1007F0004B525A5957415F47525A414E49412D3247
:1008000030004B525A5957415F47525A414E494165
:100810002D333000560054380054370054360054FD
:1008200035005434005433005432005431005453D2
:1008300050414C494E590054504F444C4F47410091
:1008400054435755005457455700545A4557005480
:10085000504F44414A4E494B0054504F57524F5409
:1008600000545049454300545F4D4150554A5F5A2A
:100870005F4252554C4900545F4D4150554A5F5AB2
:100880005F45434F414C0052525F50524143415FDC
:100890004D4F430052525F50524143415F504F53BE
:1008A000544F4A0052525F50524143415F504F44AF
:1008B000414E49450052525F504F4454525A594D8F
:1008C000414E49455F4D4F430052525F504F445493
:1008D000525A594D414E49455F504F53544F4A006B
:1008E00052525F504F4454525A594D414E49455F00
:1008F000504F44414E49450052525F504F4454526C
:100900005A594D414E49455F435A4153004359524C
:100910004B554C41434A415F544D494E0043595257
:100920004B554C41434A415F435A41535F57594CE1
:1009300041435A004359524B554C41434A415F434E
:100940005A41535F574C41435A004359524B554CFF
:1009500041434A415F414C474F5259544D00434F28
:100960005F414C474F5259544D00434F5F545259C9
:100970004200435755325F414C474F5259544D0046
:10098000435755325F5452594200435755325F5ACC
:100990004144414E41004357555F545F4D4158001B
:1009A0004357555F484953544552455A41004357B0
:1009B000555F414C474F5259544D004357555F5472
:1009C000525942004357555F5A4144414E410050ED
:1009D0004945435F414C474F5259544D005049459A
:1009E000435F484953544552455A41005049454395
:1009F0005F5A4144414E4100504945435F545F4D69
:100A0000415800504945435F545F4D494E00504F97
:100A100044414A4E494B5F414C41524D5F4D494E16
:100A200000504F44414A4E494B5F505245444B4F52
:100A300053435F504F444157414E494100504F444A
:100A4000414A4E494B5F435A41535F504F44414ADC
:100A50004E494B4100504F44414A4E494B5F435A27
:100A600041535F444F5F4F50524F5A4E49454E4994
:100A70004100504F44414A4E494B5F545F4D4158ED
:100A800000504F44414A4E494B5F435A41535F57D0
:100A900059525A55545500444D5F504C55535F4D73
:100AA0004F4300444D5F504C55535F435A415300F0
:100AB000444D5F524F5A525543485F4D4F43004497
:100AC0004D5F524F5A525543485F435A4153004479
:100AD0004D5F544C4F5F4D4F4300444D5F544C4F5E
:100AE0005F435A415300444D5F444F50414C414E87
:100AF00049455F4D4F4300444D5F444F50414C4189
:100B00004E49455F435A415300444D5F4D4F445554
:100B10004C41434A4100444D5F494E574552534A68
:100B2000415F50574D00444D5F4F4646534554007A
:100B3000444D5543484157415F41435F47525550EB
:100B40004F574F004E45545F444E53004E45545F3F
:100B50004252414D41004E45545F4D41534B41007F
:100B60006175746F004E45545F4950004E45545FA7
:100B70004D4143005D00636F6E6669673A205B001C
:100B8000204F4B0D0A00485454502F312E31200075
:100B9000005EBCE2613FDD83C29C7E20A3FD1F415D
:100BA0009DC3217FFCA2401E5F01E3BD3E6082DC4D
:100BB000237D9FC1421CFEA0E1BF5D0380DE3C623D
:100BC000BEE0025CDF81633D7C22C09E1D43A1FF2D
:100BD0004618FAA427799BC584DA3866E5BB59071D
:100BE000DB856739BAE406581947A5FB7826C49A0D
:100BF000653BD987045AB8E6A7F91B45C6987A24FD
:100C0000F8A6441A99C7257B3A6486D85B05E7B9EC
:100C10008CD2306EEDB3510F4E10F2AC2F7193CDDC
:100C2000114FADF3702ECC92D38D6F31B2EC0E50CC
:100C3000AFF1134DCE90722C6D33D18F0C52B0EEBC
:100C4000326C8ED0530DEFB1F0AE4C1291CF2D73AC
:100C5000CA947628ABF517490856B4EA6937D58B9C
:100C60005709EBB536688AD495CB2977F4AA48168C
:100C7000E9B7550B88D6346A2B7597C94A14F6A87C
:100C8000742AC896154BA9F7B6E80A54D7896B356C
:100C90001F1C1F1E1F1E1F1F1E1F1E1F00002100C6
:100CA000240027002A002D0030003300010100003D
:100CB000040107010A0100002200250028002B0082
:100CC0002E003100340002010000050108010B0173
:100CD00000000A0B02090C0D0E08070304010000B6
:100CE0000000000000000000000000000000000004
:100CF00000000000000000000000000012111000C1
:100D000000000000000000000000000000000000E3
:100D10000000000000002062616A746F77290020E3
:100D20006D7320286F64656272616E6F20002062AF
:100D3000616A746F77207720005757573A205A61BD
:100D4000706973616E6F20005757573A205A61706F
:100D50006973756A6520706C696B3A004449534346
:100D60004F4E4E454354454400435755323A004395
:100D70005755313A00434F3A004B4F004F4B0066F6
:100D8000756C6C0020743A00206F3A0020703A00B5
:100D90002049443A0044414C4C41532000444953BB
:100DA000434F4E4E45435445440077656E74796C0D
:100DB00061746F723A00435755323A0043575531C8
:100DC0003A006163636573732D636F6E74726F6C49
:100DD0002D616C6C6F772D6F726967696E3A202A8E
:100DE0000A002E002D00227D00302E312E302E36AE
:100DF00038002C22766572223A22002274696D65D1
:100E0000223A002C0022616C223A20002C00300093
:100E1000310022746572223A20002C00300031002B
:100E2000226379726B223A20002C003000310022BC
:100E300063777532223A20002C00300031002263A3
:100E4000777531223A20002C003000310022636F88
:100E5000223A20002C003000310022706F64223AC8
:100E600020002C0022706F64676D696E223A2000AA
:100E70002C0022706F64637A646F223A20002C0089
:100E800022706F64637A7A6173223A20002C002208
:100E9000706F64637A223A20002C002277656E31ED
:100EA000223A20002C002277656E30223A20007D05
:100EB0005D2C007B2274223A20007D2C007B227462
:100EC0006865726D6F73223A5B006163636573736B
:100ED0002D636F6E74726F6C2D616C6C6F772D6FFC
:100EE000726967696E3A202A0A00616363657373E9
:100EF0002D636F6E74726F6C2D616C6C6F772D6FDC
:100F0000726967696E3A202A0A00616363657373C8
:100F10002D636F6E74726F6C2D616C6C6F772D6FBB
:100F2000726967696E3A202A0A002F6D6F64756CCA
:100F300061636A61006163636573732D636F6E74CF
:100F4000726F6C2D616C6C6F772D6F726967696E53
:100F50003A202A0A00227D00302E312E302E3638DB
:100F6000002C22766572223A22007B2274696D651C
:100F7000223A006163636573732D636F6E74726FE1
:100F80006C2D616C6C6F772D6F726967696E3A209A
:100F90002A0A0058585845434F414C00534F465475
:100FA000004D41583331383535004D4158333138D3
:100FB00035350044414C4C4153204E52203D2000D9
:100FC00044414C4C4153005350414C494E59005000
:100FD0004F444C4F47410043575500574557005A1F
:100FE000455700504F44414A4E494B00504F5752CD
:100FF0004F5400434F004252554C490045434F4126
:101000004C005254433A207A61706973207A6173BC
:101010006F626E696B613A00202D3E2000444D3AAC
:1010200020004D4945535A414E49450042415254D2
:10103000454B00574C41435A004252554C490045DC
:10104000434F414C0057594C41435A4F4E5900436E
:10105000594B4C49435A4E5900434941474C59005A
:101060007C3C3E5E2B3D3F2F5B5D3B2C2A225C008F
:10107000436F6E74656E742D547970653A20004824
:10108000544D2A746578742F68746D6C7C54585470
:101090002A746578742F706C61696E7C4353532A8F
:1010A000746578742F6373737C584D4C2A7465781B
:1010B000742F786D6C7C4A532A746578742F6A613A
:1010C00076617363726970747C4749462A696D6101
:1010D00067652F6769667C4A50472A696D61676555
:1010E0002F6A7065677C504E472A696D6167652F6E
:1010F000706E677C49434F2A696D6167652F766E14
:10110000642E6D6963726F736F66742E69636F6EA0
:101110007C4D50332A617564696F2F6D7065677CF3
:1011200000000020002300260029002C002F0032A0
:10113000000001000003010601090105050505077E
:101140000508080808020202020A0A080804040442
:10115000040101010101010101030303030303036E
:1011600003040707070C0C0C0C0C0C0C0C020202FD
:101170000206060606060606060B0B0B0B0B0B0BF0
:101180000B0102102020080810204010204080028F
:1011900001020108040201010204081020408080BD
:1011A0004020100804020180040201804020100841
:1011B0000402010804020101020408102040800119
:1011C0000204081020408030323031303030363068
:1011D000303030303030303631303300003162530F
:1011E000C4F5A697B988DBEA7D4C1F2E4372211007
:1011F00087B6E5D4FACB98A93E0F5C6D86B7E4D5E7
:10120000427320113F0E5D6CFBCA99A8C5F4A796E6
:10121000013063527C4D1E2FB889DAEB3D0C5F6EB6
:10122000F9C89BAA84B5E6D7407122137E4F1C2DC6
:10123000BA8BD8E9C7F6A59403326150BB8AD9E8C6
:101240007F4E1D2C02336051C6F7A495F8C99AABA6
:101250003C0D5E6F4170231285B4E7D67A4B182996
:10126000BE8FDCEDC3F2A1900736655439085B6A86
:10127000FDCC9FAE80B1E2D344752617FCCD9EAF66
:1012800038095A6B4574271681B0E3D2BF8EDDEC66
:101290007B4A192806376455C2F3A0914776251476
:1012A00083B2E1D0FECF9CAD3A0B58690435665746
:1012B000C0F1A293BD8CDFEE79481B2AC1F0A39246
:1012C0000534675678491A2BBC8DDEEF82B3E0D126
:1012D000467724153B0A5968FFCE9DAC5757573ABD
:1012E000206272616B20706C696B753A20005757F1
:1012F000573A204F64637A797420706C696B753A41
:10130000006163636573732D636F6E74726F6C2D10
:10131000616C6C6F772D6F726967696E3A202A0A6B
:10132000005757573A20426C616420706172736FA6
:1013300077616E69612055524C00D77911241FBE28
:10134000CFEFD1E2DEBFCDBF00E00CBF14E0A0E0E4
:10135000B2E0E4E9F4E001E00BBF02C007900D92B7
:10136000AA3DB107D9F72EE0AAEDB4E001C01D9265
:10137000A030B207E1F719E0CEE9D9E000E006C0FD
:1013800021970109802FFE010E94DA7CCD39D10717
:1013900080E00807A9F70E94CC680C9448820C945E
:1013A00000002F923F924F925F926F927F928F92A6
:1013B0009F92AF92BF92CF92DF92EF92FF920F93E4
:1013C0001F93CF93DF93CDB7DEB7A3970FB6F894F3
:1013D000DEBF0FBECDBFA8950E94CE4C60937406B1
:1013E00070937506809376069093770680917406C5
:1013F00090917506A0917606B0917706809370065D
:1014000090937106A0937206B09373060E94CE4C1F
:10141000009170061091710620917206309173064A
:10142000DC01CB01801B910BA20BB30B80937006E8
:1014300090937106A0937206B0937306809138075B
:10144000882369F08091700690917106A0917206D0
:10145000B09173060397A105B1050CF057C60E9421
:10146000CE4C6093700670937106809372069093D1
:1014700073068091010290910202009799F40E94F4
:10148000CE4C60931D0670931E0680931F069093AA
:1014900020061092A9051092A80510921C0681E062
:1014A00090E01DC00197F9F40E94CE4C00911D06FA
:1014B00010911E0620911F0630912006DC01CB0101
:1014C000801B910BA20BB30B85369105A105B105CD
:1014D00050F01092A9051092A80582E090E0909338
:1014E00002028093010280910102909102028230F7
:1014F000910509F05DC00091F40C1091F50CC80144
:101500000E94A98090911A0620E0E091190631E02E
:10151000281738F5F801E20FF11D949141E0420FD0
:10152000F801E40FF11D2E5FE491632F70E0913418
:1015300010F049EC01C040ED490FE13410F0F9EC36
:1015400001C0F0EDFE0FA0E14A9FA00111244F2B36
:10155000A1E0B0E0AC0FBD1FA60FB71F4C933F5FDB
:10156000D7CF90931A0620931B06E0931906182FE5
:101570001695198381E0809300028091000218176C
:1015800080F091E0980F90930002E1E0F0E0EC0F22
:10159000FD1FE80FF11D60818EE49BE00E94E04694
:1015A000ECCF1092A9051092A80583E090E013C03B
:1015B00083309105D1F58EE49BE00E94A146892BF2
:1015C00079F010920002109218061092A90510925C
:1015D000A80584E090E09093020280930102D8C0B5
:1015E0008091A8059091A90501969093A9058093F3
:1015F000A8058139914008F4CBC01092A90510923A
:10160000A80580911C068F5F80931C0622E030E0C5
:101610003093020220930102863008F4B9C081E0C1
:1016200080936F0680931B02B3C08430910509F04C
:1016300051C08EE49BE00E94A14618161906BCF426
:101640008EE49BE00E94A146181619069CF51091A5
:10165000000281E0810F809300028EE49BE00E94F3
:101660007F46E12FF0E0EC54FA4F8083E9CF809180
:10167000A8059091A90501969093A9058093A805C6
:1016800081399140B8F01092A9051092A80582E026
:1016900090E0909302028093010280911C068F5F7C
:1016A00080931C06863030F082E080936F0681E0E4
:1016B00080931B0280910002863508F469C08093F4
:1016C0001806109200021092A9051092A80587E052
:1016D00090E081CF079709F05BC0809118068635AE
:1016E000B1F58091B405823019F06EE371E02BC042
:1016F00080910906833021F425EB35E0E0E003C05A
:1017000065E371E020C0B6E028303B07A1F0D901C5
:101710008D919D018E27E091F80CF091F90CE80F66
:10172000F11DE4918E2F90E0A0E0B0E089839A83D0
:10173000AB83BC83E8CF809108068E1711F40C941C
:10174000FC1E6CE271E08BEE9BE00E94E74A809108
:10175000A8059091A90501969093A9058093A805E5
:101760008139914088F01092A9051092A8058091C6
:101770001C068F5F80931C06863030F084E08093D7
:101780006F0681E080931B02109202021092010208
:101790000E94CE4C00917006109171062091720645
:1017A00030917306DC01CB01801B910BA20BB30BB4
:1017B0008093700690937106A0937206B09373069F
:1017C00080913807882369F08091700690917106A6
:1017D000A0917206B09173060397A105B1050CF0B4
:1017E000A6C40E94CE4C60937006709371068093DD
:1017F00072069093730680917806882309F4A5C039
:10180000D0902106D11009C088E08093DE040E94A8
:101810007D5E81E08093210690C02091DE0421113D
:101820008CC00FEF0D0DE02EF12CFDE00F9F80011D
:101830001124822F90E0FC01E957F94F800F911F8E
:10184000DC01A057B94F8C9180832F5F283089F736
:1018500020938F060E94365E882309F467C080912A
:101860008706823241F0883231F0803121F481E004
:101870008093860602C01092860680917A0690E0D8
:10188000982F882720917906822B20918606222383
:1018900099F023E0880F991F2A95E1F7209180069F
:1018A0002031F9F440917F062CE030E0241B31090F
:1018B000807F820F931F15C020917D06207631F422
:1018C00003E0880F991F0A95E1F70BC0203229F435
:1018D000880F991F880F991F04C0203411F4880FB6
:1018E000991F2DE02E9DF0012F9DF00D1124E05742
:1018F000F94F4AE0489F9001499F300D112437FF6E
:1019000002C0215F3F4FA4E035952795AA95E1F7E6
:10191000328721878DE08E9DF0018F9DF00D11247F
:10192000E057F94F80918506808704C0F801E057A1
:10193000F94F1086D394D092210690912106809180
:101940007806891710F4109221060E94CE4C00915F
:101950007006109171062091720630917306DC01B9
:10196000CB01801B910BA20BB30B8093700690935D
:101970007106A0937206B09373068091380788238E
:1019800069F08091700690917106A0917206B091F5
:1019900073060297A105B1050CF0DAC30E94CE4C84
:1019A000609370067093710680937206909373062D
:1019B0008091E004882309F423C18091DF04811120
:1019C0001FC185E08093DF0480917B0D60E0882358
:1019D00019F180917A0D0E94064C8FE99FE00197E2
:1019E000F1F700C000008E010B5F1F4FDE01119662
:1019F0007D0180E00E94594FF80182938F01EE151E
:101A0000FF05B9F761E080917A0D0E94064C89814B
:101A10007A816B819C8148C08091780D0E94064C30
:101A20008FE99FE00197F1F700C0000060E080912E
:101A30007A0D0E94064CAFE9BFE01197F1F700C0A4
:101A4000000000E210E0C12CD12C760160E0809112
:101A5000780D0E94064CEFE9FFE03197F1F700C0E6
:101A60000000CC0CDD1CEE1CFF1C8091790D0E9447
:101A7000DE4B892B11F06894C0F861E08091780DFD
:101A80000E94064C8FE99FE00197F1F700C000002B
:101A900001501109D9F661E080917A0D0E94064C3F
:101AA0008C2D7D2D6E2D9F2D082F172F262F392F32
:101AB0006801790197E0C922DD24EE24FF24CD28B6
:101AC000CE28CF2819F0877080937C0DA90198014A
:101AD00062E155954795379527956A95D1F7AAE024
:101AE000B0E00E9407826B017C0172E0F694E794FB
:101AF000D794C7947A95D1F7C092E504D092E604C2
:101B0000E092E704F092E80446010D2C000CAA08CC
:101B1000BB081091300620912C0630912D06409183
:101B20002E0650912F06A12FB0E00E940782680D6B
:101B3000791D8A1D9B1D9D012F5F3F4F032E000CB9
:101B4000440B550B0E94178220932C0630932D06D0
:101B500040932E0650932F061F5F1093300617FFF9
:101B600003C08FE780933006C901330FAA0BBB0B6C
:101B70008093E1049093E204A093E304B093E4041F
:101B800080912406811107C0D0922306C0922206BC
:101B900081E080932406A0912206B091230623EFD2
:101BA00031E00E94E97CDC01CB01880D991DAA1D62
:101BB000BB1DBC01CD01660F771F881F991F28EE42
:101BC00033E040E050E00E941782309323062093D8
:101BD0002206A3E3CA16D104E104F10448F01092EE
:101BE000310610923206109233061092340608C065
:101BF000C0923106D0923206E0923306F09234065B
:101C00000E94CE4C009170061091710620917206D0
:101C100030917306DC01CB01801B910BA20BB30B3F
:101C20008093700690937106A0937206B09373062A
:101C300080913807882369F0809170069091710631
:101C4000A0917206B09173060297A105B1050CF040
:101C500090C20E94CE4C6093700670937106809380
:101C60007206909373068090350690903606A09089
:101C70003706B09038062091390630913A064091E7
:101C80003B0650913C0660913D0670913E061091D6
:101C90003F0600914006F0904106E0904206D09049
:101CA0004306C0904406B0917806BF8B6090E5046F
:101CB0007090E604E091E104F091E204FC8FEB8F78
:101CC0004090310650903206ECEFF4E08FEF94E054
:101CD0009BA38AA38AA19BA10197DC018C918230EE
:101CE00069F5AAA1BBA18C91882381F0813089F08C
:101CF000823091F0833099F08430A1F08530A9F0E2
:101D00008630A9F08730A9F4C60115C0982D892D19
:101D100012C09A2D8B2D0FC0922F832F0CC0942FA1
:101D2000852F09C0962F872F06C0C80104C0C701A0
:101D300002C099E18CEF908381832DC08330A9F498
:101D4000AAA1BBA18C91BF898B1760F4ADE0A89FBD
:101D5000C00111248057994FDC0119968D919C91F7
:101D60001A9711C08AE19CEF0EC0843091F4AAA1A9
:101D7000BBA18C91813019F4718260820CC08111F9
:101D800005C08B8D9C8D9183808305C051824082DC
:101D900002C0118210823596AAA1BBA11596BBA3E1
:101DA000AAA3B5E0EC34FB0709F094CF0E94CE4C17
:101DB00000917006109171062091720630917306A1
:101DC000DC01CB01801B910BA20BB30B809370063F
:101DD00090937106A0937206B093730680913807B2
:101DE000882369F08091700690917106A091720627
:101DF000B09173060397A105B1050CF0CBC10E9409
:101E0000CE4C609370067093710680937206909327
:101E100073060E94CE4C00917006109171062091BD
:101E2000720630917306DC01CB01801B910BA20B73
:101E3000B30B8093700690937106A0937206B093D3
:101E4000730680913807882369F08091700690911D
:101E50007106A0917206B09173060397A105B105B2
:101E60000CF0A9C10E94CE4C60937006709371066D
:101E700080937206909373068091EF0480935606C8
:101E800080911C07813091F480911B02882329F0F6
:101E90001092F4041092EF0495C080914B06809349
:101EA000F404809149068093EF048CC080911C0754
:101EB000823021F080911C07833051F78091FE041D
:101EC000882309F4F5C14091FC045091FD048091F0
:101ED0001D07EAE08E9FC001112421E04817590731
:101EE0000CF420E080911D0730911E07FAE08F9FCF
:101EF000C0011124831B9109481759070CF46CC1C8
:101F000080E010910702112309F468C1882309F4C5
:101F100065C18091530690915406009709F0B8C1AD
:101F200061E571E08BEE9BE00E94E74A8091370704
:101F30008093F404809135070E94B25C20913507AC
:101F400080913607422F50E060E070E09A01AB01CB
:101F5000280F311D411D511DAAE0B0E00E940782EB
:101F6000609303027093040280930502909306022B
:101F70000E94CE4C60934F0670935006809351069A
:101F8000909352066091E9047091EA048BEE9BE015
:101F90000E949B61409103025091040260910502EE
:101FA000709106028BEE9BE00E94146281E090E04B
:101FB000909354068093530601E010E010930702BB
:101FC000009355060E94CE4C009170061091710648
:101FD0002091720630917306DC01CB01801B910BBE
:101FE000A20BB30B8093700690937106A0937206B8
:101FF000B093730680913807882369F0809170064A
:1020000090917106A0917206B09173060397A10595
:10201000B1050CF099C10E94CE4C6093700670938C
:1020200071068093720690937306C090A405D090B9
:10203000A505E090A605F090A705D701C601B695C5
:10204000A79597958795182F1170209115073091B6
:10205000160740911707509118078090110790902C
:102060001207A0901307B090140700911B07A4E675
:10207000B0E00E940782A50194010E941782802F80
:1020800090E0A0E0B0E0281739074A075B0750F45A
:102090006894C4F8C092A405D092A505E092A60564
:1020A000F092A7054091A4055091A5056091A60561
:1020B0007091A705111159C180910805882309F471
:1020C00054C1809110072AE0829FC0011124209101
:1020D000060530910705821793070CF046C1E09181
:1020E0000F0728E532E0E29FC001E39F900D112425
:1020F0009093EA048093E90442604093A4055093CE
:10210000A5056093A6057093A7053BC165E673E03E
:102110008BEE9BE00E94C34A60917006709171063D
:1021200080917206909173060E944A6498C960E695
:1021300073E08BEE9BE00E94C34A60917006709141
:10214000710680917206909173060E944A6449CB91
:102150006AE573E08BEE9BE00E94C34A60917006D3
:102160007091710680917206909173060E944A6484
:1021700015CC65E573E08BEE9BE00E94C34A60914D
:1021800070067091710680917206909173060E949C
:102190004A645FCD60E573E08BEE9BE00E94C34A2A
:1021A000609170067091710680917206909173062D
:1021B0000E944A6424CE6BE473E08BEE9BE00E94A5
:1021C000C34A609170067091710680917206909179
:1021D00073060E944A6446CE81E093CE0091550674
:1021E000002311F40C94B71F222311F40C94B21F96
:1021F00000E08091530690915406009709F05AC070
:102200008091030290910402A0910502B091060210
:10221000892B8A2B8B2B09F076C06BE571E08BEE56
:102220009BE00E94E74A809134078093F4048091F8
:1022300032070E94B25C2091320780913307422F0F
:1022400050E060E070E09A01AB01280F311D411DA4
:10225000511DAAE0B0E00E940782609303027093D0
:10226000040280930502909306024091030250916C
:10227000040260910502709106028BEE9BE00E94C1
:10228000146281E090E090935406809353063BC023
:10229000019709F091CE8091030290910402A091E0
:1022A0000502B0910602892B8A2B8B2B71F184CE0B
:1022B00020E026CE019739F5809103029091040227
:1022C000A0910502B0910602892B8A2B8B2BD9F4A1
:1022D00066E571E08BEE9BE00E94E74A20913107B2
:1022E00030E0A8E5B2E00E94398260930302709367
:1022F000040280930502909306021092F404109257
:1023000054061092530611E059CE6CE471E08BEE46
:102310009BE00E94E74A0E94CE4C00914F0610912C
:1023200050062091510630915206AB01BC01401B72
:10233000510B620B730B8BEE9BE00E9414621092A8
:1023400054061092530638CE66E473E08BEE9BE0A1
:102350000E94C34A60917006709171068091720666
:10236000909173060E944A6456CE42FDA3C0112389
:1023700009F487C08091E9049091EA04892B09F45B
:1023800099C08091080184608093080181E0809366
:10239000EF0480913B0781110AC080915606882383
:1023A00031F08091EF04811102C00E94D65D0E943D
:1023B000CE4C0091700610917106209172063091FA
:1023C0007306DC01CB01801B910BA20BB30B809336
:1023D000700690937106A0937206B0937306809175
:1023E0003807882369F08091700690917106A0915A
:1023F0007206B09173060397A105B1050CF062C097
:102400000E94CE4C609370067093710680937206A2
:102410009093730680911C07813039F48091640693
:102420003AE0839FC00111240AC080911C078330C9
:1024300071F480911D074AE0849FC001112411E0CE
:102440002091FC043091FD042817390708F010E0B2
:102450008091F40490E09093F3048093F20420912F
:102460005D06222329F02091FE0620FD06C104C04E
:102470002091FE0621FD01C120911C07233099F512
:10248000FCC090911C07913009F074CF8091EF044B
:10249000882309F46FCF2091E9043091EA04232BBB
:1024A00009F068CF809108018460809308019093BF
:1024B000EF046FCF809108018B7F80930801109209
:1024C000EF0467CF61E473E08BEE9BE00E94C34AA8
:1024D00060917006709171068091720690917306FA
:1024E0000E944A648DCF892B39F083E090E090936D
:1024F0005A068093590604C010925A061092590643
:102500008091F2049091F304009751F02091FC0621
:10251000820F911D27FD9A959093F3048093F20406
:102520008091F2049091F30497FF04C01092F30499
:102530001092F2048091F2049091F3048536910593
:1025400034F084E690E09093F3048093F204809159
:10255000A4059091A505A091A605B091A705867048
:102560009927AA27BB27892B8A2B8B2B21F0109226
:10257000F3041092F2048091F2049091F3040E940B
:10258000C75C8091F2049091F3048093D10C1816EB
:10259000190624F4809102018F7D03C0809102010D
:1025A0008062809302018091F40490E090935C0635
:1025B00080935B060E94CE4C0091700610917106CC
:1025C0002091720630917306DC01CB01801B910BC8
:1025D000A20BB30B8093700690937106A0937206C2
:1025E000B093730680913807882369F08091700654
:1025F00090917106A0917206B09173060397A105A0
:10260000B1050CF09AC10E94CE4C60937006709395
:10261000710680937206909373066091FE04809118
:10262000A4059091A505A091A605B091A7056623E4
:1026300009F494C120911F075AE0259F90011124AD
:102640004091FC045091FD04241735070CF086C11D
:1026500084608093A4059093A505A093A605B093EC
:10266000A70581E08093AE05809108018068809382
:102670000801809108018064B9C620915B06309101
:102680005C06232B79F5892B69F1809101079091E4
:102690000207892BD9F020910107309102074AE007
:1026A000429FC001439F900D11249093F1048093A9
:1026B000F00481E090E090935A068093590680914F
:1026C0005806809357066FEA71E008C083E090E0F7
:1026D00090935A068093590665EA71E08BEE9BE071
:1026E0000E94E74A8091F0049091F104892B49F00F
:1026F0008091F2049091F3041816190614F4111144
:10270000AAC08091590690915A06019739F4809198
:10271000F0049091F104892B09F4A6C0809156062B
:1027200081110BC08091EF04882339F08091F0046F
:102730009091F104892B09F4A4C0809159069091DD
:102740005A06049739F48091ED049091EE04892B98
:1027500009F4B6C08091ED049091EE04892B71F0DC
:1027600080910D0790910E072091F2043091F304AF
:10277000820F931F9093F3048093F2048091570685
:10278000882309F456C080915B0690915C06181668
:102790001906F4F48091F40481111AC02091FF0607
:1027A000309100074AE0429FC001439F900D1124E1
:1027B0009093EC048093EB0485E090E090935A06AC
:1027C000809359066EE771E08BEE9BE00E94E74A2A
:1027D0008091EB049091EC04892B29F08091F40412
:1027E000882309F47AC08091EB049091EC04892B42
:1027F00059F48091590690915A06059729F48091D1
:10280000F404882309F472C08091590690915A0605
:10281000069709F075CE8091F404811171CE1111E3
:1028200072C080910B0790910C07892B09F076C03C
:102830006AC08091590690915A06039709F060CEBC
:102840008091F40481115CCE10925A0610925906C0
:1028500060E671E06DC08091090790910A0790933E
:10286000F3048093F2044DCF83E090E090935A06F6
:10287000809359066AE971E08BEE9BE00E94E74A7B
:102880004DCF20910507309106074AE0429FC001D5
:10289000439F900D11249093EE048093ED0484E007
:1028A00090E090935A068093590680915806809341
:1028B000570661E971E08BEE9BE00E94E74A3DCF4D
:1028C00083E090E090935A068093590667E871E0A0
:1028D0008BEE9BE00E94E74A3DCF809107079091E5
:1028E00008079093F3048093F2047DCF86E090E094
:1028F00090935A068093590665E771E08BEE9BE052
:102900000E94E74A81CF1092F3041092F2041092D1
:102910005A061092590667E671E00AC080910B07CB
:1029200090910C079093F3048093F2046EE671E0AB
:102930008BEE9BE00E94E74AE3CD6CE373E08BEE05
:102940009BE00E94C34A609170067091710680916D
:102950007206909173060E944A6455CE82FF2EC57E
:102960006623E1F020911F077AE0279F9001112450
:102970004091FC045091FD04421753070CF421C50B
:1029800080912007AAE08A9FC00111242091FC04B5
:102990003091FD04281739070CF41EC580912107DA
:1029A000813029F080912307813009F022C5809180
:1029B0001B02882309F41DC51092AE0510926B0608
:1029C000809108018F7780930801809108018F7BA7
:1029D0008093080110926A06109269060E94CE4CFC
:1029E0000091700610917106209172063091730665
:1029F000DC01CB01801B910BA20BB30B8093700603
:102A000090937106A0937206B09373068091380775
:102A1000882369F08091700690917106A0917206EA
:102A2000B09173060397A105B1050CF09AC6809189
:102A30001B02882329F080911A02882309F4ADC073
:102A40000E94CE4C6093700670937106809372065C
:102A5000909373068091A40582FF06C081E0809365
:102A6000AB051092AC0570C08091150290911602D2
:102A70008230910509F04AC080914E058823B1F05B
:102A800081E08093AC0580911302909114029093A1
:102A90004D0580934C0581E090E090931602809361
:102AA000150210926D0610926C064EC080912F0791
:102AB0008F3F09F449C0E0912F0765E0E602F0017D
:102AC0001124E450FB4F82818823F1F18091FE04B0
:102AD0008823D1F180910D058823B1F18091AE0555
:102AE000882391F12091FC043091FD0480910F0224
:102AF000909110028217930738F500914C051091C0
:102B00004D050115110509F43DC61EC00197E1F4FC
:102B100080914C0590914D05892BB1F41092AB0535
:102B20001092AC0580914E0581110EC0809111026A
:102B30009091120290934D0580934C0582E090E0B5
:102B400090931602809315020E94CE4C009170065D
:102B5000109171062091720630917306DC01CB0151
:102B6000801B910BA20BB30B8093700690937106A0
:102B7000A0937206B093730680913807882369F09A
:102B80008091700690917106A0917206B0917306C3
:102B90000397A105B1050CF008C710924F0580916D
:102BA000A4059091A505A091A605B091A705892B34
:102BB0008A2B8B2B21F0369B02C0469801C0469A87
:102BC0008091060182FD02C0129A01C01298809184
:102BD000AE05811105C0139A809108018D7F04C054
:102BE000139880910801826080930801809106010A
:102BF00087FD02C0149A01C014988091060186FDD9
:102C000002C0159A01C015988091AD05811105C0CB
:102C1000169A809108018E7F04C016988091080151
:102C20008160809308018091AC05811105C0179ADD
:102C3000809108018F7E04C01798809108018061FF
:102C4000809308018091AB05811105C0479A80915E
:102C50000801877F04C047988091080188608093AD
:102C6000080180912C02882309F4C6C080913E0798
:102C70008111C2C00E94CE4C6093700670937106A1
:102C8000809372069093730684EB9CE00E945545F6
:102C900005E018E0D12CB8EE8B2EB3E09B2EA12CD2
:102CA000B12C8AE3E82E83E0F82E1C821B828D82F1
:102CB0009E82AF82B886FA82E982DD86D8012D91A4
:102CC0003D918D018091B80C9091B90C281739076E
:102CD000F1F4CE0101960E945444873111F08C31F9
:102CE000B1F4CE0101960E94BC40892B81F02B816A
:102CF0003C818D819E81AF81B88549855A856B85E0
:102D00007C854D8F5E8F6F8F78A3DD840AC0D3944E
:102D100054E0D512CACF88EE93E0A0E0B0E020E006
:102D200030E03093C10C2093C00C8093C20C909380
:102D3000C30CA093C40CB093C50C6D8D7E8D8F8D8C
:102D400098A16093C60C7093C70C8093C80C9093A5
:102D5000C90CD092CA0C8EEB9CE00E94D14488230F
:102D600011F18EEB9CE00E94BC40892BE1F01092A7
:102D7000310A00E010E0AE014F5F5F4F6EEB7CE088
:102D80008CEA9CE00E940230811120C60F5F1F4F29
:102D90000F39110581F7F801EF5CF54F1082809132
:102DA000310A81111CC60E94CE4C00917006109110
:102DB00071062091720630917306DC01CB01801BF5
:102DC000910BA20BB30B8093700690937106A093A6
:102DD0007206B093730680913807882369F080915A
:102DE000700690917106A0917206B09173060397D8
:102DF000A105B1050CF0DEC78091AA058823D9F0A2
:102E000067E273E08BEE9BE00E94C34A9EE088E19C
:102E10000FB6F894A895809360000FBE9093600061
:102E20008EE290E00E947D6368EC70E080E090E0CC
:102E30000E94964CF5CF8BEE9BE00E94A146892B19
:102E400009F49EC08BEE9BE00E947F46823521F400
:102E500081E08093AA0594C0863541F490913807AB
:102E600081E0911180E0809338078AC0883609F0AC
:102E700087C06CE173E08BEE9BE00E94C34A0E9426
:102E80000A4FBC018BEE9BE00E94E3616EE172E0B1
:102E90008BEE9BE00E94E74A00E010E0ECE08E2E13
:102EA00067E172E08BEE9BE00E94C34A38010F5F3E
:102EB0001F4FB8018BEE9BE00E94F861FF24F39452
:102EC000A12CB12C869C6001879CD00C11249924E4
:102ED0009A949F0C8F2D81958770E82E892D837091
:102EE000D1F460E28BEE9BE00E94774AF9E0FB159B
:102EF00028F060E28BEE9BE00E94774A4AE050E0C7
:102F00006B2D8BEE9BE00E94714A60E28BEE9BE0A2
:102F10000E94774AB394F601EA0DF11DE05BFA4F87
:102F2000808190E00E2C02C0959587950A94E2F777
:102F300080FF02C063E201C06FE58BEE9BE00E9460
:102F4000774A2FE292120EC08BEE9BE00E94504A0D
:102F50006FE072E08BEE9BE00E94C34AEE2021F00E
:102F6000F394B5CFE11001C0A39430E6F312F8CF8B
:102F70008BEE9BE00E94504A0730110509F090CF7C
:102F800080913807882389F180911B02882369F199
:102F900080911A02811129C080916F06882329F13E
:102FA00067EF72E08BEE9BE00E94C34A4AE050E07C
:102FB00060916F068BEE9BE00E94714A6FEE72E0AB
:102FC0008BEE9BE00E94C34A4091A8055091A90551
:102FD00060E070E02AE08BEE9BE00E94074A8BEEF7
:102FE0009BE00E94504A10926F0680913807882318
:102FF000E9F08091DA0C9091DB0CA091DC0CB0919F
:10300000DD0C8C3A9642A105B10584F468EC72E0BF
:103010008BEE9BE00E94C34A6091DA0C7091DB0C4E
:103020008091DC0C9091DD0C0E944A648091190221
:10303000811113C180913B0781110FC188EC8093EE
:10304000190281E080932A0B88E680934C0B109242
:103050002B0B10924D0B60E088E89CE00E94D42F6F
:103060000E945B6487E090E00E94B86488E89CE07E
:103070000E94892F8F77982F92959F701AEFF82EC4
:10308000919FF00C112488E89CE00E94892F9C01FC
:10309000332704E0359527950A95E1F7E82E129F2E
:1030A000E00C112488E89CE00E94892F86FF93C6DB
:1030B000282F2F71922F92959F70919F200D112490
:1030C00085FD245F88E89CE029A30E94892F88E879
:1030D0009CE00E94892FAC01552794E055954795B7
:1030E0009A95E1F72AEFD22E182FD49E100D1124B5
:1030F00088E89CE00E94892FAC01552734E0559563
:1031000047953A95E1F7082FD49E000D112488E8E1
:103110009CE00E94892FAC01552764E055954795A6
:103120006A95E1F7D49E800D112480937D0D009364
:103130007E0D10937F0D29A12093800DE092810DCB
:10314000F092820D809138078823B9F163EC72E028
:103150008BEE9BE00E94C34A6FEB72E08BEE9BE02C
:103160000E94C34A8DE79DE00E9484324AE050E00D
:10317000682F8BEE9BE00E94714A6BEB72E08BEE46
:103180009BE00E94C34A4AE050E06091800D8BEEC4
:103190009BE00E94714A67EB72E08BEE9BE00E941D
:1031A000C34A4AE050E06091810D8BEE9BE00E94A3
:1031B000714A8BEE9BE00E94504A00916E0610927D
:1031C0006E069091810D1091800D9D3208F010C611
:1031D0009E3108F00FC681E09F3008F480E0110FA7
:1031E000110F180F8DE79DE00E948432912F969564
:1031F000969596956CE0869FF0011124E90FF11DDC
:10320000E05BFA4F808190E01095177002C09595B1
:1032100087951A95E2F780FF03C081E080936E06E0
:1032200080916E060817C9F06BE372E08BEE9BE0AD
:103230000E94C34A4AE050E0602F8BEE9BE00E9460
:10324000714A66E372E08BEE9BE00E94C34A609194
:103250006E068BEE9BE00E94FD6180911802811149
:10326000E1C684E18093180280911702811112C097
:103270008091A4059091A505A091A605B091A70500
:1032800091608093A4059093A505A093A605B093A3
:10329000A70518C080911702873CA0F465E972E089
:1032A0008BEE9BE00E94C34A609117024AE050E017
:1032B0008BEE9BE00E94714A67E872E08BEE9BE028
:1032C0000E94E74A80913807882309F4ABC660E87A
:1032D00072E08BEE9BE00E94C34A68E772E08BEEDF
:1032E0009BE00E94C34A4091DA0C5091DB0C609144
:1032F000DC0C7091DD0C8BEE9BE00E94B16161E70C
:1033000072E08BEE9BE00E94C34A4091D60C509134
:10331000D70C6091D80C7091D90C8BEE9BE00E9479
:10332000B16169E672E08BEE9BE00E94C34A409176
:10333000DA0C5091DB0C6091DC0C7091DD0C80910B
:10334000D60C9091D70CA091D80CB091D90C481BF9
:10335000590B6A0B7B0B8BEE9BE00E94B16162E61E
:1033600072E08BEE9BE00E94C34A6091DE0C70918C
:10337000DF0C8BEE9BE00E94F8616EE572E08BEE55
:103380009BE00E94C34A6091D10C4AE050E08BEE72
:103390009BE00E94714A60E572E08BEE9BE00E9428
:1033A000C34A609117024AE050E08BEE9BE00E9416
:1033B000714A8BEE9BE00E94504A34C66111E0CA0C
:1033C000EDCA74E087278093A4059093A505A09388
:1033D000A605B093A705E2CA1092AE058091080138
:1033E0008F7780930801809108018F7B809308017B
:1033F000F5CA8091230770911705843009F0C0C089
:103400009091680690936B064091FC045091FD04E6
:1034100020916406BAE02B9F9001112422533109B8
:10342000E1E0421753070CF4E0E0E09363062091DB
:103430006106309162062550310981E04217530739
:1034400008F480E080936006992329F0E11102C01E
:1034500090E001C0982F90935F064732F2E05F073B
:103460004CF02091F7043091F8042632324010F4E9
:10347000E11101C080E080935E06911103C08823B2
:1034800009F45DC02091F5043091F604232B09F076
:103490006EC02091690630916A06A9014B7F452BC9
:1034A000A9F4992381F081E090E090936A068093DB
:1034B00069068CE291E09093F6048093F504809184
:1034C000080180681AC082E090E02EC021303105EA
:1034D000B9F482E090E090936A068093690688E5EB
:1034E00092E09093F6048093F504809108018F7721
:1034F00080930801809108018F7B8093080137C079
:1035000022303105B1F4882369F083E090E0909394
:103510006A06809369068CE291E09093F6048093AA
:10352000F50415C084E090E090936A0680936906E4
:103530001EC023303105D9F484E090E0CCCF8091D7
:103540000801413253403CF080688093080180912B
:1035500008018064D2CF8F778093080180910801A1
:103560008F7B8093080110926A0610926906809101
:10357000FC049091FD0490936206809361061DC047
:1035800080912307813059F48091680680936B06FF
:10359000882309F442C080910801806841C080916D
:1035A00024078130D1F571113EC037C08091660685
:1035B00090916706019709F485C0809128078330B0
:1035C000A9F4772399F080912A07BAE08B9FC00174
:1035D00011242091150530911605281739070CF490
:1035E00085C0809108018064809308018091210743
:1035F000813019F4809165067DC080912107823069
:1036000009F08AC080912207813009F085C06623C5
:1036100009F482C010924E056DC0809108018F7729
:1036200080930801CACF809126072091150530911B
:1036300016058823F1F06623E1F080912607EAE081
:103640008E9FC0011124281739079CF08091FC043B
:103650009091FD048217930764F4809108018068BB
:103660008093080182E090E090936706809366065D
:10367000A4CF80912607882379F0809166069091E7
:103680006706029749F480912607FAE08F9FC001F0
:1036900011242817390704F1809125074091270745
:1036A000AAE08A9FC0011124841B910928173907B9
:1036B0000CF07CCF8091080180688093080181E044
:1036C00090E0D2CF809125074AE0849FC001112469
:1036D000821793070CF071CF809108018F77809348
:1036E0000801109267061092660667CF8091080164
:1036F0008F7B7ACF8093AE05772311F180912E07CF
:103700005AE0859FC00111242091150530911605BE
:10371000281739073CF414C081E080934E051092BD
:10372000AE05EACF80916E0680FF0AC080912B071C
:10373000813009F432C480912B07823009F43CC4F3
:103740008091AD05882331F068EB71E08BEE9BE052
:103750000E94E74A1092AD051092FA041092F90403
:103760003DC967E373E08BEE9BE00E94C34A609122
:1037700070067091710680917206909173060E9496
:103780004A6455C9A0900B05B0900C05C090080282
:10379000EAE0CE9E600111248EEA882E82E0982E07
:1037A00095010B2C000C440B550B2F8B388F498F38
:1037B0005A8FD4018D914D010F5F1F4FBAE08B02DC
:1037C00020011124A414B5040CF441C0D401EC91DF
:1037D000BAE0EB02F0011124EA15FB05C4F1D801AF
:1037E000A85FBD4F6C911197CC902AE0C29E6001FA
:1037F00011240D2C000CEE08FF08052C000C6608A7
:1038000077082F89388D498D5A8D24193509460935
:1038100057098AE0689FB0011124CB01770FAA0BEA
:10382000BB0BBC01CD016C197D098E099F090E945B
:10383000987C9F01FF0F440B550B2419350946094D
:1038400057090E94EB81C20ED31EE41EF51E0530FF
:10385000110509F0AECF97E9A916B10434F0C09074
:103860000D02AAE0CA9E60011124D0921002C092FB
:103870000F027E9904C081E08093FB040DC010927A
:10388000FB0480913007BAE08B9FC018D108112447
:10389000D0921002C0920F0280913807882369F0FD
:1038A0008091FB04882319F06EEF71E002C06CEE8A
:1038B00071E08BEE9BE00E94E74AE0912F07809138
:1038C0000F029091100225E0E202F0011124E45071
:1038D000FB4F208131818C01021B130B17FF03C0AA
:1038E0001195019511098217930720F481E08093C7
:1038F000AC0506C02817390758F581E08093AB0561
:1039000080910E0290E090934D0580934C0581E0EC
:1039100090E090931602809315020A30110534F559
:1039200080914C0590914D059695879590934D0506
:1039300080934C0505301105CCF480914C05909195
:103940004D059695879590934D0580934C050EC037
:10395000809111029091120290934D0580934C0535
:1039600082E090E0909316028093150280913807D0
:10397000882309F4E9C86FED71E08BEE9BE00E94AB
:10398000C34AB8018BEE9BE00E94F86168ED71E0DC
:103990008BEE9BE00E94C34A60914C0570914D05EF
:1039A0008BEE9BE00E949B61CFC862E373E08BEEDD
:1039B0009BE00E94C34A60917006709171068091ED
:1039C0007206909173060E944A64E7C889818A3022
:1039D00009F4E1C9F801EF5CF54F8083D7C90F39CD
:1039E000110559F46EE971E08EEB9CE00E94BC3544
:1039F0008EEB9CE00E94F444D6C980E090E00E94E7
:103A00004E797C011092BD0C1092BC0CBC0180E977
:103A100093E00E94C27E892B19F481E090E024C0DB
:103A2000B70184E993E00E94C27E892B19F483E0F8
:103A300090E01AC0B70189E993E00E94C27E892B09
:103A400019F484E090E010C0B7018DE993E00E9482
:103A5000C27E892BB1F3B70185EA93E00E94C27E52
:103A6000892B31F485E090E09093BD0C8093BC0CE1
:103A700081E090E00E944E799093BB0C8093BA0C49
:103A80008091B20C9091B30C892B59F40E94CE4CCA
:103A90004B015C0101E010E0A1E3CA2EAAE0DA2E9E
:103AA00036C000E010E0E091B20CF091B30CE00FF2
:103AB000F11F80819181892B49F382819381009745
:103AC00051F00E948F7FE091B20CF091B30CE00FA7
:103AD000F11F138212820C5F1F4FE5CF0E94CE4C64
:103AE000DC01CB0188199909AA09BB090B97A1052B
:103AF000B10508F0ECC0AE014F5F5F4F6EEB7CE0AC
:103B00008CEA9CE00E940230782E811107C08CEA7A
:103B10009CE00E942830882309F3D9C00E94CE4C33
:103B20004B015C010330110509F488C03CF40130FD
:103B3000110569F00230110541F1C1C004301105D1
:103B400009F46AC00530110509F4B5C0B8C029816F
:103B50002D3009F4B4C02A3019F47110C2C0B7C0B6
:103B6000822F022E000C990B29A30E94757E29A199
:103B7000892B19F42D3209F014C12093310A222423
:103B80002394312C02E010E09EC021017FEF471A00
:103B9000570A80EA4816510408F003C129812A33E4
:103BA00041F5F101EF5CF54F10820091B20C1091DC
:103BB000B30C0115110509F4E7C1D8010D90BC91B2
:103BC000A02DBE8BAD8BAB2B79F06D897E8981E307
:103BD0009AE00E94C27E0C5F1F4F892B71F7212C47
:103BE000312C04E010E06FC0E1E3FAE0FE8BED8BD6
:103BF000CFC1822F022E000C990B29A30E94757E43
:103C000029A1892B19F42D3209F0CBC0F101EF5C09
:103C1000F54F2083120153C0C1010196803A9105EE
:103C200008F0BFC02981203209F449C0F101EF5CDE
:103C3000F54F20831C0103E010E045C091012F5F88
:103C40003F4F203A310508F0ACC089818A3059F5E0
:103C5000F101EF5CF54F1082E091B20CF091B30CE2
:103C6000309709F49EC08F0180819181009709F4FB
:103C700098C034962D893E8928173907A1F7D601B7
:103C80000D900020E9F7CD0181539A400E94FA7E01
:103C9000F80193838283009709F483C061E37AE09B
:103CA0000E94CB7E81C08D3051F0F101EF5CF54F69
:103CB0008083190104C089818A3009F475C00630F7
:103CC000110509F44ACF0115110509F020CF61EA69
:103CD00071E08EEB9CE00E94BC358EEB9CE00E9474
:103CE000F444A090BA0CB090BB0C8090BC0C9090A7
:103CF000BD0CC090B00CD090B10CF60100811181C8
:103D000001151105D1F1F80101900020E9F7319773
:103D10002F01401A510AB801C5010E94C27E3C0120
:103D2000F801E40DF51D319780818A3209F03FC01A
:103D3000A20141505109B801C5010E94D27E6728F5
:103D400011F0892BB1F4D60112968D919C911397A5
:103D50008730910559F4D6011496ED91FC91159791
:103D60008CEA9CE01995882391F00DC0881599057F
:103D700091F3B6E0CB0ED11CC0CF64E971E08EEBBD
:103D80009CE00E94BC358EEB9CE00E94F444809144
:103D9000BA0C9091BB0C0E948F7FC7010E948F7F4D
:103DA00002C800E010E08FCF01E010E08CCF672860
:103DB00051F2DFCF6DE273E08BEE9BE00E94C34ACD
:103DC00060917006709171068091720690917306F1
:103DD0000E944A6411C89C01332774E035952795E9
:103DE0007A95E1F7582F129F500D1124252F6AC99B
:103DF00083E0F5C982E0F3C910921B024091C5052A
:103E000050E0542F44278091C405482B509342061C
:103E1000409341062091C70530E0322F2227809140
:103E2000C605282B30933E0620933D068091C90598
:103E300090E0982F88276091C805862B90933C06C8
:103E400080933B068091CB0590E0982F8827609166
:103E5000CA05862B9093400680933F066091CD055E
:103E600070E0762F6627E091CC056E2B70933806B4
:103E7000609337066091CF0570E0762F6627E0915A
:103E8000CE056E2B70933A0660933906E091D1050A
:103E9000F0E0FE2FEE276091D005E62BF09336067A
:103EA000E09335066091D30570E0762F6627A091E8
:103EB000D2056A2B7093440660934306A091D40503
:103EC000A0934506B091DB05B0934B06A1FBBB2741
:103ED000B0F9B0934906B091F105B0934C06B170BA
:103EE000B0934D065093B3054093B2053093F80458
:103EF0002093F7049093DD048093DC04F093B105E4
:103F0000E093B0057093DB046093DA048091D905E7
:103F1000809364068091DA058093AF0581E09091EB
:103F20000706913009F080E080934E05A2FB8827B8
:103F300080F980936506A3FBAA27A0F9A0936806E1
:103F400081E09091D605913009F080E080935D0684
:103F500081E09091D505913009F080E0809358067A
:103F60000C94C40B11110C94F9100C94890F1111BD
:103F70000C94F91067E471E08BEE9BE00E94E74A35
:103F80001092F4040C94DE0F41E35AE05E8B4D8BEB
:103F9000212C312C05E010E096CE8091AD058111E9
:103FA00006C060ED71E08BEE9BE00E94E74A81E085
:103FB0008093AD050C94EE148091F9049091FA046D
:103FC000892B11F00C94EE148091AD05811113C072
:103FD00040912C0728E532E0429FC001439F900D9D
:103FE00011249093FA048093F90481E08093AD0545
:103FF00069EC71E011C040912D0728E532E0429F45
:10400000C001439F900D11249093FA048093F9040A
:104010001092AD0561EC71E08BEE9BE00E94E74AE7
:104020000C94EE14A3960FB6F894DEBF0FBECDBF6E
:10403000DF91CF911F910F91FF90EF90DF90CF9084
:10404000BF90AF909F908F907F906F905F904F90B8
:104050003F902F9008953F924F925F926F927F9280
:104060008F929F92AF92BF92CF92DF92EF92FF9288
:104070000F931F93CF93DF93CDB7DEB7A0970FB603
:10408000F894DEBF0FBECDBF7E0123E1E20EF11C2E
:104090006AE074E0C7010E94AF4964E170E0C701C3
:1040A0000E94D04861E084ED93E00E94CB5F8823BA
:1040B00011F40C94252F1E2D0F2D87E0382E9AE039
:1040C000492E22E7C22E23E0D22E41E050E0BE016D
:1040D000615E7F4F8CEF9CE00E947850892B11F439
:1040E0000C94222F6F8D6A3031F06D3021F0C701B2
:1040F0000E94F748EACF66E77BE08BEE9BE00E94E8
:10410000C34A4F89588D6B897C898BEE9BE00E9456
:104110003B4664E77BE08BEE9BE00E94E74A40E091
:1041200050E06DE3C7010E944E485C018F89988D75
:104130001816190614F00C941B2F3FEFA316B306A4
:1041400011F40C941B2FA5014F5F5F4FB701CE01F7
:104150000D960E94A95ECE010D960E94EF476CE677
:104160007BE0CE0101960E946049BE016F5F7F4FE8
:10417000C7010E947C48582ECE0101960E945B49DF
:10418000552009F448C089899A890C9711F00C943C
:10419000172FA12CB12C812CB501CE010D960E94B8
:1041A0006A48FC0180810E941D5E982E929430EF37
:1041B0009322B5016F5F7F4FCE010D960E946A4832
:1041C000FC0180810E941D5EF501F595E79521E0D7
:1041D00030E02C0F3D1FE20FF31F890D80833AE082
:1041E000A316B10411F48824839482E0A80EB11CB4
:1041F000ECE0AE16B10481F6882049F086E0FE01BD
:104200003196A4E3B2E001900D928A95E1F70E9405
:10421000085E0C94172F65E67BE0CE0101960E94A4
:104220006049BE016F5F7F4FC7010E947C48982E96
:10423000CE0101960E945B49992009F45BC0DA82A5
:10424000C9821B821C821D821E826D857E85CE01E5
:1042500001960E94F74A882329F08B819C81AD81C9
:10426000BE813AC060E67BE0CE0107960E946049BD
:1042700089899A892B853C8582179307F9F4892BC4
:10428000D9F0AD84BE848F809884F50181915F015F
:10429000882391F0082E000C990B0E94917E3C011E
:1042A000F40181914F01082E000C990B0E94917E20
:1042B0006816790651F302C055245394CE0107962F
:1042C0000E945B49552081F08091850D9091860D6B
:1042D000A091870DB091880D8093740D9093750D0A
:1042E000A093760DB093770D82E79DE00E94016563
:1042F0000C94172F66E57BE0CE0101960E94604981
:10430000BE016F5F7F4FC7010E947C48982ECE018F
:1043100001960E945B49992031F1DA82C9821B82A1
:104320001C821D821E826D857E85CE0101960E94B3
:10433000F74A882391F08B819C81AD81BE81809367
:104340006E0D90936F0DA093700DB093710DCE0113
:1043500001960E9401650C94172FCE0101960E94D0
:1043600001650C94172F6CE47BE0CE0101960E944E
:104370006049BE016F5F7F4FC7010E947C48982E45
:10438000CE0101960E945B49992031F1DA82C982FF
:104390001B821C821D821E826D857E85CE01019648
:1043A0000E94F74A882391F08B819C81AD81BE8168
:1043B0008093680D9093690DA0936A0DB0936B0D77
:1043C000CE0101960E9401650C94172FCE01019633
:1043D0000E9401650C94172F64E47BE0CE010196E6
:1043E0000E946049BE016F5F7F4FC7010E947C48F9
:1043F000982ECE0101960E945B49992031F1DA8214
:10440000C9821B821C821D821E826D857E85CE0123
:1044100001960E94F74A882391F08B819C81AD819F
:10442000BE818093620D9093630DA093640DB09351
:10443000650DCE0101960E9401650C94172FCE01E7
:1044400001960E9401650C94172F60E37BE0CE017A
:1044500001960E946049BE016F5F7F4FC7010E94B5
:104460007C48982ECE0101960E945B4991100C94D5
:10447000172F66E27BE0CE0101960E946049BE01E3
:104480006F5F7F4FC7010E947C48982ECE01019636
:104490000E945B49992041F0CE010D960E94E447AD
:1044A0006093FC060C94172F66E17BE0CE01019629
:1044B0000E946049BE016F5F7F4FC7010E947C4828
:1044C000982ECE0101960E945B49992041F0CE01C1
:1044D0000D960E94E4476093FD060C94172F69E047
:1044E0007BE0CE0101960E946049BE016F5F7F4F65
:1044F000C7010E947C48982ECE0101960E945B491C
:10450000992041F0CE010D960E94E4476093FE068B
:104510000C94172F67EF7AE0CE0101960E94604954
:10452000BE016F5F7F4FC7010E947C48982ECE016D
:1045300001960E945B49992051F0CE010D960E9490
:10454000E447709300076093FF060C94172F66EE04
:104550007AE0CE0101960E946049BE016F5F7F4FF5
:10456000C7010E947C48982ECE0101960E945B49AB
:10457000992051F0CE010D960E94E44770930807F0
:10458000609307070C94172F6AED7AE0CE0101962D
:104590000E946049BE016F5F7F4FC7010E947C4847
:1045A000982ECE0101960E945B49992051F0CE01D0
:1045B0000D960E94E44770930407609303070C94E0
:1045C000172F6FEC7AE0CE0101960E946049BE0180
:1045D0006F5F7F4FC7010E947C48982ECE010196E5
:1045E0000E945B49992051F0CE010D960E94E4474C
:1045F00070930C0760930B070C94172F6FEB7AE006
:10460000CE0101960E946049BE016F5F7F4FC701D6
:104610000E947C48982ECE0101960E945B49992009
:1046200051F0CE010D960E94E4477093020760930B
:1046300001070C94172F60EB7AE0CE0101960E94DF
:104640006049BE016F5F7F4FC7010E947C48982E72
:10465000CE0101960E945B49992051F0CE010D9642
:104660000E94E44770930A07609309070C94172F80
:1046700063EA7AE0CE0101960E946049BE016F5F55
:104680007F4FC7010E947C48982ECE0101960E9460
:104690005B49992051F0CE010D960E94E44770933A
:1046A0000607609305070C94172F67E97AE0CE019F
:1046B00001960E946049BE016F5F7F4FC7010E9453
:1046C0007C48982ECE0101960E945B49992051F0BA
:1046D000CE010D960E94E44770930E0760930D077C
:1046E0000C94172F61E87AE0CE0101960E94604990
:1046F000BE016F5F7F4FC7010E947C48982ECE019C
:1047000001960E945B49992081F0CE010D960E948E
:10471000E4479B01215031092336310510F00C94F8
:10472000172F60930F070C94172F62E77AE0CE01E2
:1047300001960E946049BE016F5F7F4FC7010E94D2
:104740007C48982ECE0101960E945B49992081F009
:10475000CE010D960E94E4479B01215031092A3574
:10476000310510F00C94172F609310070C94172F3D
:1047700065E57AE0CE0101960E946049BE016F5F57
:104780007F4FC7010E947C48982ECE0101960E945F
:104790005B499920A9F0CE010D960E94E44761156E
:1047A00071058105910511F40C94172F6093110781
:1047B0007093120780931307909314070C94172F8C
:1047C0006DE37AE0CE0101960E946049BE016F5F01
:1047D0007F4FC7010E947C48982ECE0101960E940F
:1047E0005B49992081F0CE010D960E94E4476093C9
:1047F00015077093160780931707909318070E9468
:10480000D65D0C94172F61E27AE0CE0101960E94EA
:104810006049BE016F5F7F4FC7010E947C48982EA0
:10482000CE0101960E945B49992079F0CE010D9648
:104830000E94E4476115710511F40C94172F7093D1
:104840001A07609319070C94172F6EE07AE0CE01D7
:1048500001960E946049BE016F5F7F4FC7010E94B1
:104860007C48982ECE0101960E945B49992041F028
:10487000CE010D960E94E44760931B070C94172FFE
:1048800063E07AE0CE0101960E946049BE016F5F4D
:104890007F4FC7010E947C48982ECE0101960E944E
:1048A0005B49992081F0CE010D960E94E4479B015F
:1048B000215031092336310510F00C94172F6093E5
:1048C00020070C94172F68EF79E0CE0101960E9423
:1048D0006049BE016F5F7F4FC7010E947C48982EE0
:1048E000CE0101960E945B49992081F0CE010D9680
:1048F0000E94E4479B01215031092336310510F015
:104900000C94172F60931F070C94172F6CEE79E00F
:10491000CE0101960E946049BE016F5F7F4FC701C3
:104920000E947C48982ECE0101960E945B499920F6
:1049300081F0CE010D960E94E4479B012150310980
:104940002336310510F00C94172F60931D070C943B
:10495000172F6DED79E0CE0101960E946049BE01EE
:104960006F5F7F4FC7010E947C48982ECE01019651
:104970000E945B49992081F0CE010D960E94E44788
:104980009B01215031092336310510F00C94172F6B
:1049900060931E070C94172F6FEC79E0CE010196FF
:1049A0000E946049BE016F5F7F4FC7010E947C4833
:1049B000982ECE0101960E945B49992009F46EC0A1
:1049C000BE01635F7F4FCE0149960E9496496FED0D
:1049D00073E0CE0101960E94AF49BE016F5F7F4F29
:1049E000CE0149960E947C48811117C065EE73E0A4
:1049F000CE0107960E94AF49BE01695F7F4FCE018D
:104A000049960E947C48BB24B394811101C0B12C0B
:104A1000CE0107960E945B4902C0BB24B394CE012D
:104A200001960E945B49BB2021F010921A0221E0FE
:104A30002DC06BEE73E0CE0101960E94AF49BE011E
:104A40006F5F7F4FCE0149960E947C48B82ECE0101
:104A500001960E945B49B11018C06FEE73E0CE0161
:104A600001960E94AF49BE016F5F7F4FCE0149960C
:104A70000E947C48282FCE01019628A30E945B4902
:104A800028A1222319F022E001C023E020931C0773
:104A9000CE0149960E945B490C94172F64EC79E093
:104AA000CE0101960E946049BE016F5F7F4F812F4A
:104AB000902F0E947C48982ECE0101960E945B495F
:104AC000992081F0CE010D960E94E4479B01215070
:104AD00031092336310510F00C94172F6093250708
:104AE0000C94172F6BEB79E0CE0101960E94604980
:104AF000BE016F5F7F4F812F902F0E947C48982EC0
:104B0000CE0101960E945B49992099F0BE01635F36
:104B10007F4FCE0101960E949649CE0101960E94D8
:104B2000A57580932307CE0101960E945B490C94E2
:104B3000172F6EEA79E0CE0101960E946049BE010E
:104B40006F5F7F4F812F902F0E947C48982ECE015F
:104B500001960E945B49992099F0BE01635F7F4FE7
:104B6000CE0101960E949649CE0101960E94507591
:104B700080932407CE0101960E945B490C94172F65
:104B800060EA79E0CE0101960E946049BE016F5F44
:104B90007F4F812F902F0E947C48982ECE01019646
:104BA0000E945B49992069F0CE010D960E94E4476E
:104BB0006536710510F00C94172F609327070C943D
:104BC000172F66E979E0CE0101960E946049BE0187
:104BD0006F5F7F4F812F902F0E947C48982ECE01CF
:104BE00001960E945B49992081F0CE010D960E94AA
:104BF000E4479B01215031092336310510F00C9414
:104C0000172F609326070C94172F6AE879E0CE01DE
:104C100001960E946049BE016F5F7F4F812F902FE8
:104C20000E947C48982ECE0101960E945B499920F3
:104C300081F0CE010D960E94E4479B01215031097D
:104C40002336310510F00C94172F60932A070C942B
:104C5000172F60E879E0CE0101960E946049BE01FD
:104C60006F5F7F4F812F902F0E947C48982ECE013E
:104C700001960E945B49992099F0BE01635F7F4FC6
:104C8000CE0101960E949649CE0101960E94A5751B
:104C900080932807CE0101960E945B490C94172F40
:104CA00062E779E0CE0101960E946049BE016F5F24
:104CB0007F4F812F902F0E947C48982ECE01019625
:104CC0000E945B49992099F0BE01635F7F4FCE013E
:104CD00001960E949649CE0101960E9450758093DC
:104CE0002907CE0101960E945B490C94172F6AE6B2
:104CF00079E0CE0101960E946049BE016F5F7F4F4F
:104D0000812F902F0E947C48982ECE0101960E9400
:104D10005B49992009F46EC0BE01635F7F4FCE01ED
:104D200049960E94964968E576E0CE0101960E9478
:104D30006049BE016F5F7F4FCE0149960E947C485B
:104D4000811117C062E576E0CE0107960E946049A6
:104D5000BE01695F7F4FCE0149960E947C48BB240B
:104D6000B394811101C0B12CCE0107960E945B491A
:104D700002C0BB24B394CE0101960E945B49BB20C4
:104D800021F010921A0221E02DC06DE476E0CE01F0
:104D900001960E946049BE016F5F7F4FCE01499628
:104DA0000E947C48B82ECE0101960E945B49B1104A
:104DB00018C068E476E0CE0101960E946049BE0109
:104DC0006F5F7F4FCE0149960E947C48282FCE010D
:104DD000019628A30E945B4928A1222319F023E011
:104DE00001C022E020932107CE0149960E945B4931
:104DF0000C94172F6EE579E0CE0101960E94604970
:104E0000BE016F5F7F4F812F902F0E947C48982EAC
:104E1000CE0101960E945B49992091F0BE01635F2B
:104E20007F4FCE0101960E949649CE0101960E94C5
:104E3000507580932207CE0101960E945B49F7C707
:104E40006AE479E0CE0101960E946049BE016F5F7D
:104E50007F4F812F902F0E947C48982ECE01019683
:104E60000E945B49992091F0BE01635F7F4FCE01A4
:104E700001960E949649CE0101960E94507580933A
:104E80002B07CE0101960E945B49D1C764E379E00C
:104E9000CE0101960E946049BE016F5F7F4F812F56
:104EA000902F0E947C48982ECE0101960E945B496B
:104EB000992039F0CE010D960E94E44760932C07AB
:104EC000B6C76DE179E0CE0101960E946049BE014E
:104ED0006F5F7F4F812F902F0E947C48982ECE01CC
:104EE00001960E945B49992039F0CE010D960E94EF
:104EF000E44760932D079BC76DE079E0CE010196F2
:104F00000E946049BE016F5F7F4F812F902F0E94EA
:104F10007C48982ECE0101960E945B49992061F051
:104F2000CE010D960E94E4478FEF860F833608F07E
:104F30007EC760932E077BC768EF78E0CE010196AD
:104F40000E946049BE016F5F7F4F812F902F0E94AA
:104F50007C48982ECE0101960E945B49992059F019
:104F6000CE010D960E94E447161617060CF05FC797
:104F7000609331075CC760EE78E0CE0101960E9435
:104F80006049BE016F5F7F4F812F902F0E947C4848
:104F9000982ECE0101960E945B49992059F0CE01CE
:104FA0000D960E94E447161617060CF040C7609352
:104FB00032073DC769EC78E0CE0101960E94604956
:104FC000BE016F5F7F4F812F902F0E947C48982EEB
:104FD000CE0101960E945B49992059F0CE010D96B1
:104FE0000E94E447161617060CF021C7609333079A
:104FF0001EC765EB78E0CE0101960E946049BE01B4
:105000006F5F7F4F812F902F0E947C48982ECE019A
:1050100001960E945B49992059F0CE010D960E949D
:10502000E447161617060CF002C760933407FFC654
:1050300064EA78E0CE0101960E946049BE016F5F8C
:105040007F4F812F902F0E947C48982ECE01019691
:105050000E945B49992059F0CE010D960E94E447C9
:10506000161617060CF0E3C660933507E0C664E930
:1050700078E0CE0101960E946049BE016F5F7F4FCC
:10508000812F902F0E947C48982ECE0101960E947D
:105090005B49992059F0CE010D960E94E4471616FF
:1050A00017060CF0C4C660933607C1C667E878E0FF
:1050B000CE0101960E946049BE016F5F7F4F812F34
:1050C000902F0E947C48982ECE0101960E945B4949
:1050D000992059F0CE010D960E94E4471616170646
:1050E0000CF0A5C660933707A2C667E778E0CE014B
:1050F00007960E946049BE01695F7F4F812F902F04
:105100000E947C48811117C067E678E0CE010196C5
:105110000E946049BE016F5F7F4F812F902F0E94D8
:105120007C4899249394811101C0912CCE01019661
:105130000E945B4902C099249394CE0107960E9475
:105140005B49992079F1CE010D960E94E4476130C8
:1051500009F06DC682E08093FE041092FF048093F4
:1051600003056093040580930805809309058093E7
:105170000D0593E090930E058093120594E09093B3
:1051800013058093170595E09093180580931C05EF
:1051900096E090931D058093210530922205109290
:1051A0001A0245C661E678E0CE0101960E94604988
:1051B000BE016F5F7F4F812F902F0E947C48982EF9
:1051C000CE0101960E945B49992041F0BE01635FC8
:1051D0007F4F80E090E00E94297729C669E578E05A
:1051E000CE0101960E946049BE016F5F7F4F812F03
:1051F000902F0E947C48982ECE0101960E945B4918
:10520000992041F0BE01635F7F4F81E090E00E94F2
:1052100029770DC66FE478E0CE0101960E946049BF
:10522000BE016F5F7F4F812F902F0E947C48982E88
:10523000CE0101960E945B49992041F0BE01635F57
:105240007F4F82E090E00E942977F1C56AE478E020
:10525000CE0101960E946049BE016F5F7F4F812F92
:10526000902F0E947C48982ECE0101960E945B49A7
:10527000992041F0BE01635F7F4F83E090E00E9480
:105280002977D5C565E478E0CE0101960E94604992
:10529000BE016F5F7F4F812F902F0E947C48982E18
:1052A000CE0101960E945B49992041F0BE01635FE7
:1052B0007F4F84E090E00E942977B9C560E478E0F0
:1052C000CE0101960E946049BE016F5F7F4F812F22
:1052D000902F0E947C48982ECE0101960E945B4937
:1052E000992041F0BE01635F7F4F85E090E00E940E
:1052F00029779DC567E378E0CE0101960E94604959
:10530000BE016F5F7F4F812F902F0E947C48982EA7
:10531000CE0101960E945B49992041F0BE01635F76
:105320007F4F86E090E00E94297781C56EE278E0A9
:10533000CE0101960E946049BE016F5F7F4F812FB1
:10534000902F0E947C48982ECE0101960E945B49C6
:10535000992041F0BE01635F7F4F87E090E00E949B
:10536000297765C56BE278E0CE0101960E9460491D
:10537000BE016F5F7F4F812F902F0E947C48982E37
:10538000CE0101960E945B49992041F0BE01635F06
:105390007F4F88E090E00E94297749C568E278E075
:1053A000CE0101960E946049BE016F5F7F4F812F41
:1053B000902F0E947C48982ECE0101960E945B4956
:1053C000992041F0BE01635F7F4F89E090E00E9429
:1053D00029772DC565E278E0CE0101960E946049EB
:1053E000BE016F5F7F4F812F902F0E947C48982EC7
:1053F000CE0101960E945B49992041F0BE01635F96
:105400007F4F8AE090E00E94297711C562E278E040
:10541000CE0101960E946049BE016F5F7F4F812FD0
:10542000902F0E947C48982ECE0101960E945B49E5
:10543000992041F0BE01635F7F4F8BE090E00E94B6
:105440002977F5C46FE178E0CE0101960E946049AA
:10545000BE016F5F7F4F812F902F0E947C48982E56
:10546000CE0101960E945B49992041F0BE01635F25
:105470007F4F8CE090E00E942977D9C46CE178E0FE
:10548000CE0101960E946049BE016F5F7F4F812F60
:10549000902F0E947C48982ECE0101960E945B4975
:1054A000992041F0BE01635F7F4F8DE090E00E9444
:1054B0002977BDC469E178E0CE0101960E94604978
:1054C000BE016F5F7F4F812F902F0E947C48982EE6
:1054D000CE0101960E945B49992041F0BE01635FB5
:1054E0007F4F8EE090E00E942977A1C466E178E0CA
:1054F000CE0101960E946049BE016F5F7F4F812FF0
:10550000902F0E947C48982ECE0101960E945B4904
:10551000992041F0BE01635F7F4F8FE090E00E94D1
:10552000297785C464E178E0CE0101960E94604944
:10553000BE016F5F7F4F812F902F0E947C48982E75
:10554000CE0101960E945B49992051F0CE010D9643
:105550000E94E447613009F06AC46093380767C469
:1055600062E078E0CE0101960E946049BE016F5F63
:105570007F4F812F902F0E947C48982ECE0101965C
:105580000E945B49992039F0CE010D960E94E447B4
:10559000609308024CC460EF77E0CE0101960E9450
:1055A0006049BE016F5F7F4F812F902F0E947C4822
:1055B000982ECE0101960E945B49992039F0CE01C8
:1055C0000D960E94E4476093090231C46EED77E0C6
:1055D000CE0101960E946049BE016F5F7F4F812F0F
:1055E000902F0E947C48982ECE0101960E945B4924
:1055F000992039F0CE010D960E94E44760930A028B
:1056000016C46DEC77E0CE0101960E946049BE01A0
:105610006F5F7F4F812F902F0E947C48982ECE0184
:1056200001960E945B49992039F0CE010D960E94A7
:10563000E44760930B02FBC36CEB77E0CE0101966D
:105640000E946049BE016F5F7F4F812F902F0E94A3
:105650007C48982ECE0101960E945B49992039F032
:10566000CE010D960E94E44760930C02E0C36AEA03
:1056700077E0CE0101960E946049BE016F5F7F4FC7
:10568000812F902F0E947C48982ECE0101960E9477
:105690005B49992039F0CE010D960E94E447609352
:1056A0000D02C5C364E977E0CE0101960E9460490E
:1056B000BE016F5F7F4F812F902F0E947C48982EF4
:1056C000CE0101960E945B49992071F0CE010D96A2
:1056D0000E94E447469E9001479E300D112430936E
:1056E000140220931302A3C362E877E0CE0101966F
:1056F0000E946049BE016F5F7F4F812F902F0E94F3
:105700007C48982ECE0101960E945B49992061F059
:10571000CE010D960E94E447660F862F880F880FF2
:10572000680F60930E0283C36DE677E0CE010196A9
:105730000E946049BE016F5F7F4F812F902F0E94B2
:105740007C48982ECE0101960E945B49992069F011
:10575000CE010D960E94E447FAE06F9FB00111243C
:10576000709312026093110262C36DE577E0CE017F
:1057700001960E946049BE016F5F7F4F812F902F7D
:105780000E947C48982ECE0101960E945B49992088
:1057900009F464C169EA76E0CE0101960E9460498D
:1057A000BE016F5F7F4FCE010D960E947C48B82EE0
:1057B000CE0101960E945B49B1102EC161EA76E0EC
:1057C000CE0101960E946049BE016F5F7F4FCE01FE
:1057D0000D960E947C48B82ECE0101960E945B492E
:1057E000B1101CC167E976E0CE0101960E946049C4
:1057F000BE016F5F7F4FCE010D960E947C48B82E90
:10580000CE0101960E945B49B1100AC162E976E0BF
:10581000CE0101960E946049BE016F5F7F4FCE01AD
:105820000D960E947C48B82ECE0101960E945B49DD
:10583000B110F8C06DE876E0CE0101960E94604993
:10584000BE016F5F7F4FCE010D960E947C48B82E3F
:10585000CE0101960E945B49B110E6C068E876E08F
:10586000CE0101960E946049BE016F5F7F4FCE015D
:105870000D960E947C48B82ECE0101960E945B498D
:10588000B110D4C06FE776E0CE0101960E94604966
:10589000BE016F5F7F4FCE010D960E947C48B82EEF
:1058A000CE0101960E945B49B110C2C066E776E066
:1058B000CE0101960E946049BE016F5F7F4FCE010D
:1058C0000D960E947C48B82ECE0101960E945B493D
:1058D000B110B0C063E776E0CE0101960E94604946
:1058E000BE016F5F7F4FCE010D960E947C48B82E9F
:1058F000CE0101960E945B49B1109EC060E776E040
:10590000CE0101960E946049BE016F5F7F4FCE01BC
:105910000D960E947C48B82ECE0101960E945B49EC
:10592000B1108CC06DE676E0CE0101960E94604910
:10593000BE016F5F7F4FCE010D960E947C48B82E4E
:10594000CE0101960E945B49B1107AC06AE676E00A
:10595000CE0101960E946049BE016F5F7F4FCE016C
:105960000D960E947C48B82ECE0101960E945B499C
:10597000B11068C067E676E0CE0101960E946049EA
:10598000BE016F5F7F4FCE010D960E947C48B82EFE
:10599000CE0101960E945B49B11056C064E676E0E4
:1059A000CE0101960E946049BE016F5F7F4FCE011C
:1059B0000D960E947C48B82ECE0101960E945B494C
:1059C000B11044C061E676E0CE0101960E946049C4
:1059D000BE016F5F7F4FCE010D960E947C48B82EAE
:1059E000CE0101960E945B49B11032C06EE576E0AF
:1059F000CE0101960E946049BE016F5F7F4FCE01CC
:105A00000D960E947C48B82ECE0101960E945B49FB
:105A1000B11020C08FEF1FC080E01DC081E01BC00F
:105A200082E019C083E017C084E015C085E013C090
:105A300086E011C087E00FC088E00DC089E00BC090
:105A40008AE009C08BE007C08CE005C08DE003C090
:105A50008EE001C08FE080932F07E9C16CE477E00E
:105A6000CE0101960E946049BE016F5F7F4F812F7A
:105A7000902F0E947C48982ECE0101960E945B498F
:105A8000992039F0CE010D960E94E44760933007CB
:105A9000CEC166E477E0CE0101960E946049BE0166
:105AA0006F5F7F4F812F902F0E947C48982ECE01F0
:105AB00001960E945B49992009F480C16BE377E06D
:105AC000CE0101960E946049BE016F5F7F4F812F1A
:105AD000902F0E947C48982ECE0101960E945B492F
