:100000000C94140E0C94EE530C94C3530C9498530C
:100010000C946D530C9442530C9417530C94EC5263
:100020000C94C1520C941D390C94ED380C94BD38CD
:100030000C94450E0C94450E0C94450E0C94450EF4
:100040000C94450E0C94F73D0C94450E0C94450E03
:100050000C94450E0C94450E0C94450E0C9477525E
:100060000C94450E0C94D4690C94AB690C94450E19
:100070000C94450E0C9408370C94450E0C94450EC8
:100080000C94450E0C94450E0C94450E0C94B73B05
:100090000C9482690C9459690C94450E0C94863A20
:1000A0000C94450E0C94450E0C94450E0C94450E84
:1000B0000C94450E0C94450E0C94450E0C94450E74
:1000C0000C94450E0C94450E0C94450E0C94450E64
:1000D0000C94450E0C94450E0C94450E0C94450E54
:1000E0000C94450EAA34AF34B434BE34C834413510
:1000F000D234DA34E234EC34F63400350F351935C5
:10010000413523352D35373568516B515A515E5184
:100110006451A2516F51735179517D518151875171
:100120008B518F51A251955199519D5144414C4C45
:1001300041533A204B6F6E69656320706F737A7517
:100140006B6977616E696120637A756A6E696B6F3E
:10015000772E0044414C4C41533A204E49452044AF
:100160004F44414E4F212100202054656D7065722F
:100170006174757261203D2000204352433D002090
:100180002044617461203D200020437A6173207017
:100190006F6272616E69612064616E796368207A52
:1001A00020637A756A6E696B61203D2000204E697C
:1001B000657A6E616E792044533138787800204436
:1001C000533138323200204453313842323000202B
:1001D0004453313853323000626C616420435243DF
:1001E0000044414C4C41533A204944203D002043B7
:1001F0007A6173206B6F6D656E6461206B6F6E77D3
:100200006572736A6920646C6120637A756A6E69CD
:100210006B61203D200044414C4C41533A20506FCB
:10022000637A6174656B20706F737A756B6977613F
:100230006E696120637A756A6E696B6F772E005301
:10024000443A206272616B20706C696B7520636F39
:100250006E6669672E747874005D00636F6E666900
:10026000673A205B0053443A206272616B20706CE5
:10027000696B7520706F64616A6E696B2E74787437
:10028000004E54503A20557A79736B616E6F20633B
:100290007A617320756E697874696D653A0052549D
:1002A000433A206F64637A7974207A61736F626E67
:1002B000696B613A0053544152540049503A2062EC
:1002C00072616B204574686572536869656C642E51
:1002D0002E2E005757573A7374726F6E6120676FF6
:1002E000746F7761005757573A7572756368616D1F
:1002F00069616D207374726F6E652E2E2E004950E9
:100300003A20646E733A0049503A206272616D611E
:100310003A0049503A206D61736B613A0049503A96
:100320002061647265733A0049503A206D61633A06
:100330000049503A20706F62696572616E6965208C
:10034000616472657375207A20444843502E2E2EC6
:1003500000576F6C6E792052414D3A0049503A2057
:100360006B6F6E666967757261636A612073696538
:1003700063692E2E2E00576F6C6E792052414D3AD4
:1003800000576F6C6E792052414D3A00576F6C6E7A
:10039000792052414D3A0053443A20626C61642006
:1003A0006F64637A7974752064616E796368005351
:1003B000443A20626C6164206B617274790053442A
:1003C0003A206272616B206B6172747900525443FF
:1003D0003A206272616B20445331333037005254FB
:1003E000433A2053544F50202D3E205354415254F1
:1003F000005254433A207A6E616C657A696F6E6F71
:100400002044533133303700302E312E302E3935E1
:10041000004C75636A616E20762E001F1F1F00005E
:10042000000000181C1E1F1F1F1F1F1F1F1F1F1F44
:100430000F070300000000001F1F1F1F1F1F1F1FAB
:100440001E1C181F1F1F0000001F1F1F00000000A0
:100450001F1F1F03070F1F1F1F1F1F4932433A2073
:10046000536B616E6F77616E6965202E2E2E0030A2
:100470002E312E302E3935004C75636A616E207630
:100480002E00504B543A2043524300504B543A20D4
:1004900045545800504B543A205354580044533A52
:1004A000206E723A256420703A2564204552524FDE
:1004B000520044533A206E723A256420703A256403
:1004C00020743A2564206372633A2564204F4B0000
:1004D0002A2A4833002A2A4732002A2A4731002A8A
:1004E0002A5032002A2A5031002A2A444D50310025
:1004F0002A2A444D5432002A2A444D5431002A2AD3
:10050000444D545F4F4E002A2A444D445F4F4E00E5
:100510002A2A444D505F4F4646002A2A444D505FD8
:100520004F4E002A2A444D525F4F464632002A2A37
:10053000444D525F4F4646002A2A444D525F4F4E6B
:10054000002A2A432D4F46462A002A2A432D4F4689
:1005500046002A2A432D4F4E002A2A432D4F4E2A69
:1005600000205434443A00207A6164616E613A009C
:1005700034443A20435A454B414D59202D2064655F
:100580006C74613A00205434443A00207A6164610A
:100590006E613A00206B726F6B3A0034443A204B24
:1005A000524543494D59202D2064656C74613A00D1
:1005B00034443A205445524D4F53544154204F46F1
:1005C000460034443A205445524D4F535441542030
:1005D0004F4E002020202020202000647A69656E84
:1005E0003A006861726D6F6E6F6772616D2063793A
:1005F000726B756C61636A693A00503A2025642C0D
:10060000253034642C253034642C253034642C257A
:100610003034640041363A20256420256420256466
:1006200000414C4C3A2025646D7300545A3A002026
:1006300025642525204445542D25642F3230300073
:1006400054524941433A20542D2564205A2D2564A3
:1006500020542D5A2D256420462D25640020534317
:1006600056002053434700204F4300544B206572EF
:10067000726F723A0054524941433A2070726F626D
:100680006C656D79207A20646574656B746F726532
:100690006D2030203A2025642F32303000525443F0
:1006A0003A20643A25642025643A2564005452496E
:1006B00041433A207A616B6C7563656E6961207A9B
:1006C00020646574656B746F72612C2064656C7452
:1006D00061203D002072657472793D0045434F41B1
:1006E0004C3A2070726F626C656D79207A206B6F66
:1006F0006D756E696B61636A61203A206572723D47
:1007000000414C4D3A2050525A4550414C4F4E59A1
:100710002042455A504945435A4E494B00414C4DA1
:100720003A20504F44414A4E494B205354414E20A9
:100730004D494E00414C4D3A20504F44414A4E499C
:100740004B20544D415800414C4D3A2050494543AF
:1007500020544D415800414C4D3A204252414B00EB
:10076000576F6C6E792052414D3A005D002C007439
:100770003A5B005D00736574205B0052455345543D
:10078000005745423A004C43443A005A34443A0038
:10079000504D503A00444D553A00504F443A0041B4
:1007A0004C473A00414C4D3A004D41503A00414EC1
:1007B000413A004D41583A0044414C4C3A00434FB5
:1007C0004E3A0054494D3A004C41544F005A494D5D
:1007D00041004252554C490045434F414C004E693F
:1007E000657A6E616E7920647A69656E004E4400A8
:1007F000534F00505400435A005352005754005076
:100800004F002A005858444D5F504C55535F4D4F90
:1008100043005858444D5F504C55535F4D4F430073
:100820005858544553545F4E5231207A6E616C656E
:100830007A696F6E6F005858544553545F4E523169
:100840000050524143412042455A20444554454BB3
:10085000544F524100444554454B544F525F544508
:100860005354554A455F42455A504945435A4E49AB
:100870004B004E69657A6E616E7920647A69656EA7
:100880000050524F475F4359524B5F0050524F4701
:100890005F005A4144414E41004B525A5957410062
:1008A0005A41574F5234442D54525942005A4157DD
:1008B0004F5234442D5A4144414E41005A41574F02
:1008C0005234442D484953544552455A41005A41E7
:1008D000574F5234442D4F424E495A4F4E41005AC1
:1008E00041574F5234442D435A554A4E494B005AB2
:1008F00041574F5234442D435A41535F504F4D4955
:10090000415255005A41574F5234442D435A415396
:100910005F4B524F4B005A41574F5234442D435A6C
:1009200041535F4F54574152434941004B525A592A
:1009300057415F47525A414E49412B3135004B5286
:100940005A5957415F47525A414E49412B35004B46
:10095000525A5957415F47525A414E49412D300032
:100960004B525A5957415F47525A414E49412D31D6
:1009700030004B525A5957415F47525A414E4941F4
:100980002D3230004B525A5957415F47525A414E0F
:1009900049412D3330005600543800543700543646
:1009A00000543500543400543300543200543100A4
:1009B000545350414C494E590054504F444C4F47AA
:1009C000410054435755005457455700545A455712
:1009D0000054504F44414A4E494B0054504F5752D7
:1009E0004F5400545049454300545F4D4150554ABF
:1009F0005F5A5F4252554C4900545F4D4150554A31
:100A00005F5A5F45434F414C0052525F5052414341
:100A1000415F4D4F430052525F50524143415F503E
:100A20004F53544F4A0052525F50524143415F501E
:100A30004F44414E49450052525F504F4454525A20
:100A4000594D414E49455F4D4F430052525F504F03
:100A50004454525A594D414E49455F504F53544F9B
:100A60004A0052525F504F4454525A594D414E49D8
:100A7000455F504F44414E49450052525F504F44EC
:100A800054525A594D414E49455F435A41530043D0
:100A900059524B554C41434A415F544D494E0043D6
:100AA00059524B554C41434A415F435A41535F575A
:100AB000594C41435A004359524B554C41434A41CA
:100AC0005F435A41535F574C41435A004359524B7D
:100AD000554C41434A415F414C474F5259544D0098
:100AE000434F5F414C474F5259544D00434F5F5461
:100AF00052594200435755325F414C474F52595467
:100B00004D00435755325F545259420043575532B6
:100B10005F5A4144414E41004357555F545F4D4138
:100B200058004357555F484953544552455A410070
:100B30004357555F414C474F5259544D0043575509
:100B40005F54525942004357555F5A4144414E4108
:100B500000504945435F414C474F5259544D005056
:100B60004945435F484953544552455A410050490D
:100B700045435F5A4144414E4100504945435F540B
:100B80005F4D415800504945435F545F4D494E0009
:100B9000504F44414A4E494B5F414C41524D5F4D8D
:100BA000494E00504F44414A4E494B5F50524544D4
:100BB0004B4F53435F504F444157414E49410050C2
:100BC0004F44414A4E494B5F435A41535F504F4453
:100BD000414A4E494B4100504F44414A4E494B5FB8
:100BE000435A41535F444F5F4F50524F5A4E49450D
:100BF0004E494100504F44414A4E494B5F545F4D6E
:100C0000415800504F44414A4E494B5F435A41536B
:100C10005F5759525A55545500444D5F504C5553E7
:100C20005F4D4F4300444D5F504C55535F435A4115
:100C30005300444D5F524F5A525543485F4D4F4306
:100C400000444D5F524F5A525543485F435A4153F7
:100C500000444D5F544C4F5F4D4F4300444D5F5433
:100C60004C4F5F435A415300444D5F444F50414CF9
:100C7000414E49455F4D4F4300444D5F444F504105
:100C80004C414E49455F435A415300444D5F4D4FDF
:100C900044554C41434A4100444D5F494E574552EB
:100CA000534A415F50574D00444D5F4F46465345B0
:100CB0005400444D5543484157415F41435F4752BB
:100CC00055504F574F004E45545F444E53004E45CC
:100CD000545F4252414D41004E45545F4D41534B8C
:100CE00041006175746F004E45545F4950004E4598
:100CF000545F4D4143002D3E002000533A200053E5
:100D00005F0020743A0020653A00206D3A00206FA1
:100D10003A0020703A002049443A0044414C4C418A
:100D200053200058585845434F414C004252414BC4
:100D3000004252414B00534F465400534F4654001B
:100D40004D415836363735004D4158363637350027
:100D50004D41583331383535004D415833313835F0
:100D6000350044414C4C4153204E52203D2000441C
:100D7000414C4C4153005350414C494E5900504F47
:100D8000444C4F47410043575500574557005A457B
:100D90005700504F44414A4E494B00504F57524F15
:100DA0005400434F004252554C490045434F414C7B
:100DB0000054380054370054360054350054340081
:100DC000543300543200543100545350414C494E76
:100DD000590054504F444C4F47410054435755001D
:100DE0005457455700545A45570054504F44414AB0
:100DF0004E494B0054504F57524F540054504945A0
:100E000043005254433A207A61706973207A6173C7
:100E10006F626E696B613A00202D3E2000444D3AAE
:100E200020004D4945535A414E49450042415254D4
:100E3000454B00574C41435A004252554C490045DE
:100E4000434F414C0057594C41435A4F4E59004370
:100E5000594B4C49435A4E5900434941474C59005C
:100E60002020203C574C41435A4F4E593E202020D1
:100E7000002020203C57594C41435A4F4E593E20A8
:100E80002000202D3E20004841524D4F4E4F4752EA
:100E9000414D3A207A6D69616E612000005EBCE2CE
:100EA000613FDD83C29C7E20A3FD1F419DC3217F46
:100EB000FCA2401E5F01E3BD3E6082DC237D9FC13A
:100EC000421CFEA0E1BF5D0380DE3C62BEE0025C2E
:100ED000DF81633D7C22C09E1D43A1FF4618FAA41A
:100EE00027799BC584DA3866E5BB5907DB85673906
:100EF000BAE406581947A5FB7826C49A653BD987FA
:100F0000045AB8E6A7F91B45C6987A24F8A6441AED
:100F100099C7257B3A6486D85B05E7B98CD2306ED9
:100F2000EDB3510F4E10F2AC2F7193CD114FADF3C5
:100F3000702ECC92D38D6F31B2EC0E50AFF1134DB9
:100F4000CE90722C6D33D18F0C52B0EE326C8ED0AD
:100F5000530DEFB1F0AE4C1291CF2D73CA94762899
:100F6000ABF517490856B4EA6937D58B5709EBB585
:100F700036688AD495CB2977F4AA4816E9B7550B79
:100F800088D6346A2B7597C94A14F6A8742AC8966D
:100F9000154BA9F7B6E80A54D7896B357C3C3E5E01
:100FA0002B3D3F2F5B5D3B2C2A225C002062616A57
:100FB000746F772900206D7320286F6465627261F9
:100FC0006E6F20002062616A746F7720772000576F
:100FD00057573A205A61706973616E6F20005757F6
:100FE000573A205A61706973756A6520706C696B35
:100FF0003A00444953434F4E4E4543544544004301
:101000005755323A00435755313A00434F3A004B57
:101010004F004F4B0066756C6C0020743A002065E1
:101020003A00206D3A00206F3A0020703A002049C3
:10103000443A0044414C4C41532000444953434FEF
:101040004E4E45435445440077656E74796C617427
:101050006F723A00435755323A00435755313A00C0
:101060006163636573732D636F6E74726F6C2D6152
:101070006C6C6F772D6F726967696E3A202A0A006F
:101080002E002D00227D00302E312E302E393500DD
:101090002C22766572223A22002274696D65223A0A
:1010A000002C0022616C223A20002C00300031001C
:1010B00022746572223A20002C0030003100226335
:1010C00079726B223A20002C0030003100226377C5
:1010D0007532223A20002C003000310022637775EF
:1010E00031223A20002C003000310022636F223A76
:1010F00020002C003000310022706F64223A200062
:101100002C0022706F64676D696E223A20002C00FB
:1011100022706F64637A646F223A20002C00227080
:101120006F64637A7A6173223A20002C0022706F18
:1011300064637A223A20002C002277656E31223ACD
:1011400020002C002277656E30223A20007D5D2C35
:10115000007B2274223A20007D2C007B227468657B
:10116000726D6F73223A5B006163636573732D6305
:101170006F6E74726F6C2D616C6C6F772D6F72690E
:1011800067696E3A202A0A006163636573732D6391
:101190006F6E74726F6C2D616C6C6F772D6F7269EE
:1011A00067696E3A202A0A006163636573732D6371
:1011B0006F6E74726F6C2D616C6C6F772D6F7269CE
:1011C00067696E3A202A0A002F6D6F64756C61633F
:1011D0006A61006163636573732D636F6E74726F10
:1011E0006C2D616C6C6F772D6F726967696E3A2038
:1011F0002A0A002F683464006163636573732D638A
:101200006F6E74726F6C2D616C6C6F772D6F72697D
:1012100067696E3A202A0A00227D00302E312E3076
:101220002E3935002C22766572223A22007B2274F8
:10123000696D65223A006163636573732D636F6E38
:1012400074726F6C2D616C6C6F772D6F726967694A
:101250006E3A202A0A001F1C1F1E1F1E1F1F1E1F62
:101260001E1F00002100240027002A002D0030004E
:10127000330001010000040107010A0100002200FF
:10128000250028002B002E00310034000201000050
:10129000050108010B012020000000000000FF07ED
:1012A000000000000000050520200000000004FFF1
:1012B00004FF0401FF0108FF0607FF0500000120ED
:1012C000040104012004080602200307020405208B
:1012D00000000000000008010304000000000102FB
:1012E000040500000000010404010401010404FFDE
:1012F0000401FF01000020050000000000000404BC
:101300000420202000002004000000000000202015
:101310000401040120200801020304050000010269
:101320002004FF040000060602FF07070000010674
:101330000204070500000304FF2020FF0000FF0651
:10134000060707050000080606030705000001015F
:101350000220082000000806020307050000080616
:10136000020707050000A5A5000000000000040515
:10137000000000000000200401010104000004043A
:101380000401010100000104200401010000010624
:1013900002200720000008060203040400000806DB
:1013A00002FF20FF0000FF0605FF07020000080102
:1013B000010304040000FF0102FF04050000FF0612
:1013C00006FF07070000FF0606FF202000000801B7
:1013D000010304020000FF04FFFF20FF000001FFE3
:1013E0000104FF0400002020FF0404050000FF04A6
:1013F00005FF20020000FF2020FF04040000080376
:101400000502FF2020FFFF0220FFFF2003FF08014D
:10141000020304050000080602FF20200000080166
:1014200002200304FF04FF0602FF2002000008065A
:1014300006070705000001FF0120FF200000FF2034
:10144000FF03040500000320200520020820FF20E0
:1014500020FF03080205030405082002000003041E
:101460000520FF2000000106050807040000FF0119
:10147000FF0400000000010420202020010401FFDF
:1014800004FF0000000008022020000000002020CF
:1014900020040404000020202020202020202020E0
:1014A00020202533642525005A41534F424E494B95
:1014B0003A20202020202020005A41534F424E49FC
:1014C0004B3A2050454C4E4520555A5550454C4EB0
:1014D00049454E49450054525942205245435A4EBF
:1014E000593A202020200054523A205245435A4E67
:1014F000593A202564002020202020202020202070
:101500002020253364252500444D5543484157414B
:101510003A202020202020200054523A20444D55CB
:101520004348415741204D4F433A20256400504FD6
:1015300044414A4E494B3A2020202020202000548C
:10154000523A20504F44414A4E494B3A20256400BC
:101550005A41572E3444205A414D594B414A3A2062
:101560000054523A205A3444205A414D3A202564BE
:10157000005A41572E3444204F5457494552414A4E
:101580003A0054523A205A3444204F54573A2025B6
:101590006400504F4D5041204359524B554C3A2016
:1015A00020200054523A2050204359524B3A2025D3
:1015B0006400504F4D504120435755323A2020206F
:1015C00020200054523A205020435755323A2025CB
:1015D0006400504F4D504120435755313A20202050
:1015E00020200054523A205020435755313A2025AC
:1015F0006400504F4D504120434F3A20202020207E
:1016000020200054523A205020434F3A20256400B5
:1016100054383A253032642E2564202020202020A2
:101620002020200054373A253032642E25642020B3
:10163000202020202020200054363A253032642EED
:1016400025642020202020202020200054353A2509
:101650003032642E256420202020202020202000ED
:1016600054343A253032642E256420202020202056
:101670002020200054333A253032642E2564202067
:10168000202020202020200054323A253032642EA1
:1016900025642020202020202020200054313A25BD
:1016A0003032642E2564202020202020202020009D
:1016B0005350414C494E593A253033642E2564200D
:1016C000202000504F444C4F47413A253032642E81
:1016D00025642020202000202020202020202020E1
:1016E0002020202020202000504F44414A4E494BCA
:1016F0003A253032642E2564202020005745574E6D
:101700003A20253032642E2564202020202020001D
:10171000253032642E2564202020202020005A45C8
:10172000574E3A00504F57524F543A253032642E9C
:101730002564202020202000504F57523A25303277
:10174000642E2564205A3A253032642E25640043E5
:101750004F3A253032642E2564202020202020207E
:10176000202000434F3A253032642E2564205A341D
:10177000443A253032642E25640050525A45504177
:101780004C4F4E592042455A502E002020202020F8
:10179000414C41524D202020202020004E49534BE7
:1017A00049205354414E205A41534F42002020209B
:1017B0002020414C41524D20202020202000544523
:1017C0004D502E4D414B532E504F44414A2E002038
:1017D00020202020414C41524D202020202020005C
:1017E00054454D502E204D414B532E5049454341B9
:1017F000002020202020414C41524D20202020203C
:1018000020002020202020414C41524D4F572020C5
:101810002020002020202020204252414B20202048
:1018200020202000414C4D3A20534B41534F57410B
:101830004E4F2050525A4550414C4F4E5920424530
:101840005A504945435A4E494B00414C4D3A20535A
:101850004B41534F57414E4F20504F44414A4E4900
:101860004B205354414E204D494E00414C4D3A209F
:10187000534B41534F57414E4F20504F44414A4ED6
:10188000494B20544D415800414C4D3A20534B4157
:10189000534F57414E4F205049454320544D4158D6
:1018A00000414C4D3A204E494320444F20534B4178
:1018B000534F57414E494100202020202020434FC4
:1018C0003A00414C41524D20434F3A00253032649A
:1018D0003A2530326420434F3A004357553A253079
:1018E00032642E2564200000000A0B02090C0D0E44
:1018F00008070304010000000000000000000000D1
:1019000000000000000000000000000000000000D7
:101910000000001211100000000000000000000094
:1019200000000000000000000000000000436F6E97
:1019300074656E742D547970653A200048544D2AB0
:10194000746578742F68746D6C7C5458542A74656F
:1019500078742F706C61696E7C4353532A74657878
:10196000742F6373737C584D4C2A746578742F7888
:101970006D6C7C4A532A746578742F6A6176617342
:1019800063726970747C4749462A696D6167652F87
:101990006769667C4A50472A696D6167652F6A707E
:1019A00065677C504E472A696D6167652F706E6769
:1019B0007C49434F2A696D6167652F766E642E6D91
:1019C0006963726F736F66742E69636F6E7C4D50BE
:1019D000332A617564696F2F6D7065677C0005053A
:1019E0000505070508080808020202020A0A080895
:1019F00004040404010101010101010103030303C3
:101A000003030303040707070C0C0C0C0C0C0C0C51
:101A10000202020206060606060606060B0B0B0B62
:101A20000B0B0B0B01021020200808102040102087
:101A30004080020102010804020101020408102092
:101A40004080804020100804020180040201804090
:101A500020100804020108040201010204081020F9
:101A60004080010204081020408000002000230074
:101A7000260029002C002F00320000010000030185
:101A800006010901303230313030303630303030FC
:101A900030303030363130330000316253C4F5A677
:101AA00097B988DBEA7D4C1F2E4372211087B6E57B
:101AB000D4FACB98A93E0F5C6D86B7E4D54273206B
:101AC000113F0E5D6CFBCA99A8C5F4A7960130635F
:101AD000527C4D1E2FB889DAEB3D0C5F6EF9C89B26
:101AE000AA84B5E6D7407122137E4F1C2DBA8BD83D
:101AF000E9C7F6A59403326150BB8AD9E87F4E1D31
:101B00002C02336051C6F7A495F8C99AAB3C0D5E20
:101B10006F4170231285B4E7D67A4B1829BE8FDC4B
:101B2000EDC3F2A1900736655439085B6AFDCC9F7E
:101B3000AE80B1E2D344752617FCCD9EAF38095A6A
:101B40006B4574271681B0E3D2BF8EDDEC7B4A195A
:101B50002806376455C2F3A0914776251483B2E175
:101B6000D0FECF9CAD3A0B586904356657C0F1A240
:101B700093BD8CDFEE79481B2AC1F0A39205346730
:101B80005678491A2BBC8DDEEF82B3E0D14677241C
:101B9000153B0A5968FFCE9DAC44454C4554450061
:101BA0004F5054494F4E530050555400504F5354CA
:101BB00000474554005757573A206272616B2070B6
:101BC0006C696B753A20005757573A204F64637A17
:101BD000797420706C696B753A0061636365737327
:101BE0002D636F6E74726F6C2D616C6C6F772D6FDF
:101BF000726967696E3A202A0A005757573A20429D
:101C00006C616420706172736F77616E69612055D9
:101C1000524C00204F4B0D0A00485454502F312E87
:101C200031200000C890C49011241FBECFEFD1E234
:101C3000DEBFCDBF00E00CBF15E0A0E0B2E0EEE7F4
:101C4000FFE301E00BBF02C007900D92A03DB1077A
:101C5000D9F721E1A0EDB5E001C01D92A233B20792
:101C6000E1F71EE0C3E1DEE000E006C021970109D4
:101C7000802FFE010E946397C231D10780E00807E0
:101C8000A9F70E94267D0C94AD9F0C9400002F9222
:101C90003F924F925F926F927F928F929F92AF92FC
:101CA000BF92CF92DF92EF92FF920F931F93CF9349
:101CB000DF93CDB7DEB7A2970FB6F894DEBF0FBEA5
:101CC000CDBFA8950E946B526093180970931909B3
:101CD00080931A0990931B09809118099091190912
:101CE000A0911A09B0911B098093140990931509CA
:101CF000A0931609B09317098091180990911909BA
:101D0000A0911A09B0911B098093100990931109B1
:101D1000A0931209B09313090E946B52009110090D
:101D2000109111092091120930911309DC01CB01A6
:101D3000801B910BA20BB30B809310099093110998
:101D4000A0931209B093130980910B07882369F0BF
:101D50008091100990911109A0911209B091130975
:101D60000397A105B1050CF0DBC60E946B5260938E
:101D700010097093110980931209909313098091AF
:101D8000120290911302009799F40E946B52609393
:101D9000A8087093A9088093AA089093AB081092A2
:101DA0003808109237081092A70881E090E01DC013
:101DB0000197F9F40E946B520091A8081091A908AC
:101DC0002091AA083091AB08DC01CB01801B910B5C
:101DD000A20BB30B85369105A105B10550F0109209
:101DE00038081092370882E090E0909313028093B5
:101DF000120280911202909113028230910509F033
:101E00005EC00091F20E1091F30EC8010E943C9B3F
:101E10009091A50820E0E091A40861E0281740F522
:101E2000F801E20FF11D949131E0320FF801E30F58
:101E3000F11D2E5FE491A62FB0E0913410F039EC43
:101E400001C030ED390FE13410F079EC01C070EDD4
:101E50007E0FF0E13F9FA0011124472BEE24E39475
:101E6000F12CEC0EFD1EAE0DBF1D4C936F5FD6CF57
:101E70009093A5082093A608E093A408182F169520
:101E8000198381E08093110280911102181780F06C
:101E900091E0980F90931102E1E0F0E0EC0FFD1F4C
:101EA000E80FF11D60818CE49CE00E944A65ECCF54
:101EB000109238081092370883E090E013C0833006
:101EC0009105D1F58CE49CE00E940B65892B79F09B
:101ED000109211021092A30810923808109237083D
:101EE00084E090E09093130280931202D8C0809116
:101EF00037089091380801969093380880933708F6
:101F00008139914008F4CBC01092380810923708FC
:101F10008091A7088F5F8093A70822E030E030937C
:101F2000130220931202863008F4B9C081E0809336
:101F3000020980932E02B3C08430910509F051C08C
:101F40008CE49CE00E940B6518161906BCF48CE426
:101F50009CE00E940B65181619069CF51091110261
:101F600081E0810F809311028CE49CE00E94E9647F
:101F7000E12FF0E0E15CF74F8083E9CF80913708F3
:101F800090913808019690933808809337088139EA
:101F90009140B8F0109238081092370882E090E033
:101FA00090931302809312028091A7088F5F809311
:101FB000A708863030F082E08093020981E08093A8
:101FC0002E0280911102863508F469C08093A3081F
:101FD00010921102109238081092370887E090E0B2
:101FE00081CF079709F05BC08091A3088635B1F5D2
:101FF00080913F08823019F064E974E02BC0809131
:102000009408833021F420E438E0E0E003C06BE87A
:1020100074E020C0B8E023393B07A1F0D9018D91CD
:102020009D018E27E091F60EF091F70EE80FF11D5D
:10203000E4918E2F90E0A0E0B0E089839A83AB8397
:10204000BC83E8CF809193088E1711F40C94572429
:1020500062E874E089E69DE00E9406698091370895
:102060009091380801969093380880933708813909
:10207000914088F010923808109237088091A70894
:102080008F5F8093A708863030F084E08093020948
:1020900081E080932E0210921302109212020E948D
:1020A0006B52009110091091110920911209309181
:1020B0001309DC01CB01801B910BA20BB30B8093A6
:1020C000100990931109A0931209B09313098091FC
:1020D0000B07882369F08091100990911109A09154
:1020E0001209B09113090397A105B1050CF029C598
:1020F0000E946B526093100970931109809312092A
:10210000909313098091B006882309F4DEC0D09023
:10211000AC08D11007C088E080939E070E94DF378B
:1021200081E0C9C080919E078111C7C0DA94ED2C6F
:10213000F12CFEE0DF9E80011124282F30E0D90130
:10214000A154B94F200F311FF901E053FA4F90818C
:102150009C938F5F883089F78093C7060E949437DD
:10216000882309F487C08091BF06823241F088320B
:1021700031F0803121F481E08093BE0602C01092DC
:10218000BE068091B20690E0982F88272091B10674
:10219000822B2091BE06222399F0A3E0880F991F7D
:1021A000AA95E1F72091B8062031F9F44091B706DD
:1021B0002CE030E0241B3109807F820F931F15C073
:1021C0002091B506207631F4F3E0880F991FFA9537
:1021D000E1F70BC0203229F4880F991F880F991F4F
:1021E00004C0203411F4880F991F2AE0289F800131
:1021F000299F100D112417FF02C0015F1F4F64E0DB
:10220000159507956A95E1F78EE08E9DF0018F9DFB
:10221000F00D1124E053FA4F808581111DC080918B
:10222000B9061F928F931F930F931F921F921F92B5
:10223000DF9282EB94E09F938F9389E69DE09F93DA
:102240008F930E944D3989E69DE00E946F680FB61A
:10225000F894DEBF0FBECDBF8EE08E9DF0018F9D46
:10226000F00D1124E053FA4F028713878091BD06C9
:1022700080871EC0F801E053FA4F108681858F5F7A
:1022800081871F921F92FF92EF928DE994E09F93B6
:102290008F9389E69DE09F938F930E944D3989E645
:1022A0009DE00E946F680FB6F894DEBF0FBECDBFF1
:1022B0008091AC088F5F8093AC089091AC088091BE
:1022C000B006891710F41092AC080E946B5200916E
:1022D0001009109111092091120930911309DC01A4
:1022E000CB01801B910BA20BB30B80931009909331
:1022F0001109A0931209B093130980910B07882349
:1023000069F08091100990911109A0911209B09182
:1023100013090297A105B1050CF024C40E946B5269
:102320006093100970931109809312099093130917
:102330008091A107811105C08091A007882309F42D
:10234000D2C080919F078111CEC085E080939F0706
:102350008091A0078823C1F181EA9FE00E94E23BBF
:102360006093C0087093C1088093C2089093C3081B
:10237000C090BC08D090BD08E090BE08F090BF08A7
:102380009701860146E0000F111F221F331F4A9557
:10239000D1F70C191D092E093F09DC01CB01800F73
:1023A000911FA21FB31F56E0B695A79597958795E5
:1023B0005A95D1F7AA27BB278093BC089093BD08F4
:1023C000A093BE08B093BF088091A107882309F4A9
:1023D0008AC087E99FE00E94E23B6B017C01609329
:1023E000A6077093A7078093A8079093A9074B01AE
:1023F000770FAA08BB081091BB082091B70830914D
:10240000B8084091B9085091BA08A12FB0E00E94D5
:102410006C9F680D791D8A1D9B1D9D012F5F3F4F8D
:10242000032E000C440B550B0E947C9F2093B70891
:102430003093B8084093B9085093BA0881E0810FEF
:102440008093BB0887FF03C08FE78093BB08C90157
:10245000330FAA0BBB0B8093A2079093A307A09303
:10246000A407B093A5078091AF08811107C0D0924F
:10247000AE08C092AD0881E08093AF08A091AD088E
:10248000B091AE0823EF31E00E947297DC01CB01DE
:10249000880D991DAA1DBB1DBC01CD01660F771FBC
:1024A000881F991F28EE33E040E050E00E947C9F97
:1024B0003093AE082093AD0853E3C516D104E10470
:1024C000F10448F01092C4081092C5081092C60892
:1024D0001092C70808C0C092C408D092C508E09204
:1024E000C608F092C7080E946B5200911009109123
:1024F00011092091120930911309DC01CB01801BD5
:10250000910BA20BB30B8093100990931109A09328
:102510001209B093130980910B07882369F0809109
:10252000100990911109A0911209B0911309029715
:10253000A105B1050CF027C30E946B5260931009EE
:102540007093110980931209909313090E946B52A2
:10255000009110091091110920911209309113096D
:10256000DC01CB01801B910BA20BB30B80931009F4
:1025700090931109A0931209B093130980910B074E
:10258000882369F08091100990911109A091120996
:10259000B09113090297A105B1050CF005C30E9483
:1025A0006B526093100970931109809312099093F4
:1025B00013097090C8083091C9084091CA08509119
:1025C000CB086091CC087091CD081091CE08009195
:1025D000CF08F090D008E090D108D090D208C090F9
:1025E000D308B090D408A090D5089090D6088090D9
:1025F000D7086090B0068091A6079091A7079E8BA0
:102600008D8BA091A207B091A307BA8FA98FE091FB
:10261000C408F091C508FC8FEB8F8091C0089091A1
:10262000C1089E8F8D8F4090BC085090BD08ADEEC4
:102630002A2EABE03A2EA0EFBBE0BAA3A9A3F1018A
:102640002EE089A19AA10197DC018C91823059F585
:10265000A9A1BAA18C91882381F0813089F08230C0
:1026600091F0833099F0843099F0853099F086307C
:1026700099F0873099F4C40113C0972D832F10C0AF
:10268000942F852F0DC0962F872F0AC0C80108C030
:10269000C70106C0C60104C0C50102C099E18CEFA4
:1026A000908381833CC0833099F4A9A1BAA18C9115
:1026B000861558F4289FC001112480539A4FDC01DD
:1026C0001A968D919C911B970CC08AE19CEF09C0D2
:1026D0008430A1F4A9A1BAA18C91813029F48D890B
:1026E0009E89918380831BC0811105C0A98DBA8DFD
:1026F000B183A08314C08B8D9C8DF3CF853059F4AA
:10270000A9A1BAA18C91811103C08D8D9E8DE9CFB5
:102710005182408204C0813011F0118210823596BE
:10272000A9A1BAA11596BAA3A9A3BCE0ED33FB07F2
:1027300009F087CF0E946B52009110091091110986
:102740002091120930911309DC01CB01801B910B00
:10275000A20BB30B8093100990931109A093120957
:10276000B093130980910B07882369F080911009B9
:1027700090911109A0911209B09113090397A10535
:10278000B1050CF022C20E946B5260931009709345
:10279000110980931209909313090E946B520091C2
:1027A0001009109111092091120930911309DC01CF
:1027B000CB01801B910BA20BB30B8093100990935C
:1027C0001109A0931209B093130980910B07882374
:1027D00069F08091100990911109A0911209B091AE
:1027E00013090397A105B1050CF000C20E946B52BA
:1027F0006093100970931109809312099093130943
:102800008091E20B809301098091ED06811164C0F3
:102810008091EC06813069F480912E02811173C29F
:102820008091DE088093E10B8091DC088093E20BBD
:1028300053C08091EC06823029F08091EC06833001
:1028400009F061C28091EF0B882309F45AC24091CC
:10285000ED0B5091EE0B8091EE06EAE08E9FC001E9
:10286000112421E0481759070CF420E08091EE066E
:102870003091EF06FAE08F9FC0011124831B91096C
:10288000481759070CF4C3C180E0109118021111C8
:10289000C0C10091E808002311F40C940D252223F7
:1028A00009F4BAC100E08091E6089091E70800972A
:1028B00009F02EC28091140290911502A091160287
:1028C000B0911702892B8A2B8B2B09F44DC211E092
:1028D000109318020093E8080E946B5200911009AF
:1028E000109111092091120930911309DC01CB01DB
:1028F000801B910BA20BB30B8093100990931109CD
:10290000A0931209B093130980910B07882369F0F3
:102910008091100990911109A0911209B0911309A9
:102920000397A105B1050CF086C20E946B5260931B
:102930001009709311098093120990931309009163
:10294000E90B2091E5063091E6064091E7065091AB
:10295000E806C090E106D090E206E090E306F09031
:10296000E4061091EB06A4E6B0E00E946C9FA7017C
:1029700096010E947C9F812F90E0A0E0B0E0281794
:1029800039074A075B0788F48091E90B9091EA0BBD
:10299000A091EB0BB091EC0B88608093E90B9093C6
:1029A000EA0BA093EB0BB093EC0B8091ED06811139
:1029B0003BC001FB222720F901FD30C08091F90BBB
:1029C000882361F18091E0064AE0849FC0011124D0
:1029D0004091F70B5091F80B84179507FCF4409148
:1029E000DF0628E532E0429FC001439F900D11248D
:1029F0009093E00B8093DF0B8091E90B9091EA0BB1
:102A0000A091EB0BB091EC0B82608093E90B90935B
:102A1000EA0BA093EB0BB093EC0B27C28091E90B70
:102A200082FF1AC21092E20B80911607882349F0A8
:102A300080910109882329F08091E20B882309F411
:102A400027C20E946B520091100910911109209128
:102A5000120930911309DC01CB01801B910BA20BF1
:102A6000B30B8093100990931109A0931209B093AE
:102A7000130980910B07882369F0809110099091C8
:102A80001109A0911209B09113090397A105B1058D
:102A90000CF001C20E946B526093100970931109EF
:102AA00080931209909313098091EC06813039F4D8
:102AB0008091F6085AE0859FC00111240AC08091D8
:102AC000EC06833071F48091EE066AE0869FC001C7
:102AD000112411E02091ED0B3091EE0B28173907EE
:102AE00008F010E08091E10B90E09093B1078093A3
:102AF000B0072091ED062111DFC12091EF082223BC
:102B000029F02091CE0620FD87C204C02091CE0678
:102B100021FD82C22091EC06233009F0CDC17CC298
:102B200063EC77E089E69DE00E94E268609110091D
:102B30007091110980911209909113090E946C48BB
:102B400014C96EEB77E089E69DE00E94E26860912F
:102B500010097091110980911209909113090E9436
:102B60006C48C6CA68EB77E089E69DE00E94E2689F
:102B700060911009709111098091120990911309C7
:102B80000E946C48CBCB63EB77E089E69DE00E9426
:102B9000E268609110097091110980911209909179
:102BA00013090E946C48C8CC6EEA77E089E69DE084
:102BB0000E94E268609110097091110980911209D8
:102BC000909113090E946C48EACC69EA77E089E6A3
:102BD0009DE00E94E2686091100970911109809156
:102BE0001209909113090E946C48CDCD64EA77E0F8
:102BF00089E69DE00E94E2686091100970911109D8
:102C000080911209909113090E946C48EFCD81E0E8
:102C10003CCE811103C03DCE111145CE8091E60816
:102C20009091E708009709F05AC06AED74E089E6D0
:102C30009DE00E94066980910A078093E10B8091D4
:102C400008079091E90B91FD0BC03AE0839FC0010A
:102C500011249093E00B8093DF0B81E08093E20BD3
:102C60002091080780910907422F50E060E070E052
:102C70009A01AB01280F311D411D511DAAE0B0E0A2
:102C80000E946C9F60931402709315028093160249
:102C9000909317020E946B526093E2087093E308CE
:102CA0008093E4089093E5086091DF0B7091E00B4E
:102CB00089E69DE00E9478454091140250911502EA
:102CC000609116027091170289E69DE00E94BF454F
:102CD00081E090E09093E7088093E6080FC00197A9
:102CE00069F48091140290911502A0911602B0919E
:102CF0001702892B8A2B8B2B09F47EC001E010E090
:102D0000E7CD20E0C1CD1092E10B1092E20BE4CDB3
:102D1000019709F0DCCD8091140290911502A091E9
:102D20001602B0911702892B8A2B8B2B09F0CFCD7D
:102D30006FED74E089E69DE00E940669209104072A
:102D400030E0A8E5B2E00E949E9F60931402709369
:102D5000150280931602909317021092E10B1092C5
:102D6000E7081092E608B3CD64EE74E089E69DE0D2
:102D70000E940669809107078093E10B8091050707
:102D80009091E90B91FD0BC02AE0829FC0011124B4
:102D90009093E00B8093DF0B81E08093E20B209116
:102DA000050780910607422F50E060E070E09A012D
:102DB000AB01280F311D411D511DAAE0B0E00E945A
:102DC0006C9F609314027093150280931602909387
:102DD00017024091140250911502609116027091F1
:102DE000170289E69DE00E94BF4581E090E0909344
:102DF000E7088093E6086BCD65ED74E089E69DE019
:102E00000E9406690E946B520091E2081091E3084B
:102E10002091E4083091E508AB01BC01401B510B47
:102E2000620B730B89E69DE00E94BF451092E70894
:102E30001092E60863CF6FE977E089E69DE00E9493
:102E4000E2686091100970911109809112099091C6
:102E500013090E946C4869CD222359F08091DF0B41
:102E60009091E00B892B09F4DDCD81E08093E20B9A
:102E7000DBCD8091EC06813089F79091E20B9923AC
:102E800069F32091DF0B3091E00B232B79F3E6CF30
:102E90000E944935D6CD6AE977E089E69DE00E9437
:102EA000E268609110097091110980911209909166
:102EB00013090E946C48EECD892B39F083E090E035
:102EC0009093EC088093EB0804C01092EC081092E9
:102ED000EB088091B0079091B107009751F02091D5
:102EE000CC06820F911D27FD9A959093B107809390
:102EF000B0078091B0079091B10797FF04C010927E
:102F0000B1071092B0078091B0079091B107853654
:102F1000910534F084E690E09093B1078093B00778
:102F20008091E90B81FDD7C18091E90B82FDD3C16E
:102F30008091B0079091B1070E9438348091B0071A
:102F40000E9497788091B0079091B10718161906E2
:102F500024F4809102018F7D03C080910201806280
:102F6000809302018091E10B90E09093EE088093B2
:102F7000ED080E946B5200911009109111092091E7
:102F8000120930911309DC01CB01801B910BA20BBC
:102F9000B30B8093100990931109A0931209B09379
:102FA000130980910B07882369F080911009909193
:102FB0001109A0911209B09113090397A105B10558
:102FC0000CF08EC10E946B5260931009709311092E
:102FD00080931209909313095091EF0B552309F434
:102FE00090C16091ED0B7091EE0B2091F1068AE09B
:102FF000289F9001112481E0261737070CF080E00C
:103000002091F0069AE0299F900111242617370796
:1030100014F40C940F2176C12091ED083091EE0844
:10302000232B79F5892B69F18091D1069091D206F5
:10303000892BD9F02091D1063091D2064AE0429FE7
:10304000C001439F900D11249093AF078093AE076A
:1030500081E090E09093EC088093EB088091EA087F
:103060008093E90868E375E008C083E090E09093FE
:10307000EC088093EB086EE275E089E69DE00E9423
:1030800006698091AE079091AF07892B49F0809136
:10309000B0079091B1071816190614F41111B4C0B5
:1030A0008091EB089091EC08019739F48091AE077C
:1030B0009091AF07892B09F4B0C08091010981116B
:1030C0000BC08091E20B882339F08091AE0790917C
:1030D000AF07892B09F4AEC08091EB089091EC0802
:1030E000049739F48091AC079091AD07892B09F4CE
:1030F000C0C08091AC079091AD07892B71F0809191
:10310000DD069091DE062091B0073091B107820F65
:10311000931F9093B1078093B0078091E9088823AB
:1031200009F460C08091ED089091EE081816190618
:10313000F4F48091E10B81111AC02091CF063091F7
:10314000D0064AE0429FC001439F900D1124909306
:10315000AB078093AA0785E090E09093EC088093FA
:10316000EB0867E075E089E69DE00E9406698091C2
:10317000AA079091AB07892B29F08091E10B882356
:1031800009F484C08091AA079091AB07892B59F468
:103190008091EB089091EC08059729F48091E10B60
:1031A000882309F47CC08091EB089091EC08069785
:1031B00009F08FCE8091E10B81118BCE11117CC073
:1031C0008091DB069091DC06892B09F475C0809113
:1031D000DB069091DC069093B1078093B00767EF10
:1031E00074E074C08091EB089091EC08039709F0AB
:1031F00070CE8091E10B81116CCE1092EC08109290
:10320000EB0869EE74E062C08091D9069091DA060D
:103210009093B1078093B00743CF83E090E0909301
:10322000EC088093EB0863E275E089E69DE00E947C
:10323000066943CF2091D5063091D6064AE0429FD9
:10324000C001439F900D11249093AD078093AC076C
:1032500084E090E09093EC088093EB088091EA087A
:103260008093E9086AE175E089E69DE00E940669BD
:1032700033CF83E090E09093EC088093EB0860E11B
:1032800075E089E69DE00E94066933CF8091D706FC
:103290009091D8069093B1078093B00773CF86E0E2
:1032A00090E09093EC088093EB086EEF74E089E671
:1032B0009DE00E94066977CF1092B1071092B00787
:1032C0001092EC081092EB0860EF74E089E69DE044
:1032D0000E940669FECD1092B1071092B00728CE69
:1032E00065E977E089E69DE00E94E2686091100957
:1032F0007091110980911209909113090E946C48F4
:1033000061CE80E09091E90B92FFA2C7552309F4AA
:103310009FC72091F006AAE02A9F90011124609196
:10332000ED0B7091EE0B621773070CF091C70091D3
:10333000E90B1091EA0B2091EB0B3091EC0B0B7F1A
:103340000093E90B1093EA0B2093EB0B3093EC0BFB
:103350009091F206913029F09091F406913009F0A5
:1033600093C790912E02992309F48EC71092E80B0F
:103370001092E70B1092E60B1092FC081092FB08DB
:103380000E946B52009110091091110920911209AD
:1033900030911309DC01CB01801B910BA20BB30B05
:1033A0008093100990931109A0931209B093130907
:1033B00080910B07882371F0809110099091110979
:1033C000A0911209B09113090397A105B10514F05A
:1033D0000C94EA2280912E02882329F080912D02FC
:1033E000882309F4C8C10E946B526093100970933E
:1033F000110980931209909313098091E90B82FFC0
:1034000006C081E08093E40B1092E30B8BC18091A6
:103410002402909125028230910509F065C18091C6
:10342000BE078823B1F081E08093E30B80912202F4
:10343000909123029093BD078093BC0781E090E0B8
:1034400090932502809324021092FE081092FD08AA
:1034500069C1809100078F3F09F464C1E0910007C2
:1034600025E0E202F0011124E351F44F8281882328
:1034700009F458C18091EF0B882309F453C180915E
:10348000BA079091BB078230910529F42091FE0B79
:10349000222309F447C12091E80B222309F442C1F9
:1034A0004091ED0B5091EE0B209135023091360298
:1034B0002417350708F036C10091BC071091BD07ED
:1034C0000115110509F02EC1029709F078C0A090EE
:1034D000FC0BB090FD0BC09019023AE0C39E600156
:1034E0001124F0EC8F2EF2E09F2EC5010B2C000C66
:1034F000AA0BBB0B8D8B9E8BAF8BB88FD4018D919C
:103500004D010F5F1F4FBAE08B0220011124A4145C
:10351000B5040CF441C0D401EC91BAE0EB02F00127
:103520001124EA15FB05C4F1D801A75EBD4F6C91CB
:103530001197CC902AE0C29E600111240D2C000C42
:10354000EE08FF08052C000C660877082D893E89D7
:103550004F89588D24193509460957098AE0689F13
:10356000B0011124CB01770FAA0BBB0BBC01CD011D
:103570006C197D098E099F090E9420979F01FF0FFA
:10358000440B550B24193509460957090E94509FD1
:10359000C20ED31EE41EF51E0530110509F0AECF94
:1035A00097E9A916B10434F0C0901E02AAE0CA9EA1
:1035B00060011124D0923602C09235020AC0809177
:1035C0000307BAE08B9FC0011124909336028093C9
:1035D0003502319904C081E08093B90711C010927F
:1035E000B907209101078091350290913602EAE0F7
:1035F0002E9F8019910911249093360280933502F1
:1036000080910B07882369F08091B907882319F00E
:1036100062EC75E002C060EB75E089E69DE00E9417
:103620000669E091000725E0E202F0011124E35170
:10363000F44F0081118120913502309136027901D9
:10364000E01AF10AC701F7FE04C0882799278E19EE
:103650009F094091020750E084179507E4F1201775
:10366000310720F421E02093E30B06C00217130773
:1036700048F521E02093E40B20911F0230E03093C5
:10368000BD072093BC0721E030E030932502209352
:1036900024028A309105B4F42091BC073091BD0713
:1036A000369527953093BD072093BC07059754F4B2
:1036B0008091BC079091BD07969587959093BD0723
:1036C0008093BC0780910B07811196C780910809F0
:1036D000811192C727C080910B078111CAC78091C1
:1036E00008098111C6C710C00197E1F48091BC0799
:1036F0009091BD07892BB1F41092E40B1092E30B6B
:103700008091BE0781110EC080912002909121020C
:103710009093BD078093BC0782E090E090932502D0
:10372000809324020E946B5200911009109111099C
:103730002091120930911309DC01CB01801B910B00
:10374000A20BB30B8093100990931109A093120957
:10375000B093130980910B07882369F080911009B9
:1037600090911109A0911209B09113090397A10535
:10377000B1050CF0AAC7E0910E07F0910F07F8947D
:10378000248135818085823021F4C9018170992797
:1037900005C0843031F4C9018370992795838483EF
:1037A00002C01582148278948085843029F435957E
:1037B00027953595279504C0823011F435952795C6
:1037C0008685882329F081859285892F992702C0D3
:1037D00080E090E037FF03C08095909506C0232BD2
:1037E00011F0019602C080E090E080933D0C2091A2
:1037F0000E0930910F09A901480F511D87FD5A95F7
:1038000050930F0940930E0920910C0930910D0936
:103810004217530781F150930D0940930C0962E15F
:1038200074E089E69DE00E94E06860910E09709165
:103830000F0989E69DE00E94A34568E174E089E6EE
:103840009DE00E94E06860913E0C062E000C770B14
:1038500089E69DE00E94A34560E274E089E69DE070
:103860000E94E06860913D0C062E000C770B89E603
:103870009DE00E948E4580913F0C80930B09E09162
:103880000E07F0910F0783859485238534852330B7
:10389000310511F014861386982F80933F0C809188
:1038A0000A098823F1F19923E1F165E274E089E6E0
:1038B0009DE00E94E06880913F0C843081F038F4F4
:1038C000823051F0833069F564E474E026C08530BD
:1038D00049F0863051F025C06EE274E01EC067E505
:1038E00074E01BC06EE674E018C064E874E089E61A
:1038F0009DE00E94736860EA74E089E69DE00E94A2
:10390000E068E0910E07F0910F078685811103C0F2
:1039100069E074E002C061E074E089E69DE00E9425
:10392000736880912107882309F446C00E946B5276
:1039300060931009709311098093120990931309F1
:1039400080912107882379F080913702882309F438
:10395000CDC680913D0C8111C9C690910B09809113
:103960003F0C9813C3C60E946B520091100910912E
:1039700011092091120930911309DC01CB01801B40
:10398000910BA20BB30B8093100990931109A09394
:103990001209B093130980910B07882369F0809175
:1039A000100990911109A0911209B0911309039780
:1039B000A105B1050CF09DC61092BF078091E90BDF
:1039C0009091EA0BA091EB0BB091EC0B892B8A2B19
:1039D0008B2B21F08091E90B87FF9CC6469A809142
:1039E000E20B811105C0129A809108018B7F04C0FF
:1039F0001298809108018460809308018091E80BFF
:103A0000811105C0139A809108018D7F04C013981D
:103A1000809108018260809308018091E70B8111F9
:103A200005C0149A809108018F7704C01498809182
:103A300008018068809308018091E60B811105C020
:103A4000159A809108018F7B04C015988091080118
:103A50008064809308018091E50B811105C0169A5E
:103A6000809108018E7F04C01698809108018160C2
:103A7000809308018091E30B811105C0179A809112
:103A800008018F7E04C0179880910801806180939F
:103A900008018091E40B811105C0479A80910801CB
:103AA000877F04C04798809108018860809308014F
:103AB000809115078823C9F180911207811135C0C3
:103AC0000E946B5260931009709311098093120940
:103AD000909313090E9473940E946B5200911009F5
:103AE000109111092091120930911309DC01CB01C9
:103AF000801B910BA20BB30B8093100990931109BB
:103B0000A0931209B093130980910B07882369F0E1
:103B10008091100990911109A0911209B091130997
:103B20000397A105B1050CF0F9C5809139088823E8
:103B3000D9F06BE777E089E69DE00E94E2689EE0BD
:103B400088E10FB6F894A895809360000FBE90931B
:103B500060008EE290E00E94264768EC70E080E012
:103B600090E00E943352F5CF89E69DE00E940B65FC
:103B7000892B09F496C189E69DE00E94E964909141
:103B80000909833759F19923D9F18A3009F052C7CD
:103B900065E777E089E69DE00E94E26881E99FE0C1
:103BA0000E94F97863E777E089E69DE00E94066964
:103BB00061E97FE0CE0101960E94B567CE010196D2
:103BC0009BD7CE0101960E947A6769E175E081E991
:103BD0009FE00E9465671092090963C1992331F043
:103BE000682F81E99FE00E9416675BC181E08093A6
:103BF000090969E175E081E99FE00E94656751C1AB
:103C0000823521F481E0809339084BC1843729F54E
:103C100089E69DE00E946F686FE677E089E69DE0A7
:103C20000E94E26800E010E0D1016D917C9189E68C
:103C30009DE00E94A3450F5F1F4F0031110551F019
:103C40006DE677E089E69DE00E94E26855E0250E8A
:103C5000311CEACF6BE677E0A2C0863541F4909143
:103C60000B0781E0911180E080930B071AC181332B
:103C700039F49091080981E089278093080911C1DE
:103C8000823339F490910A0981E0892780930A09E7
:103C900008C1833339F49091070981E08927809323
:103CA0000709FFC0843339F49091060981E0892720
:103CB00080930609F6C0853341F46091050981E0DF
:103CC00068276093050970E01DC0863339F4909130
:103CD000040981E0892780930409E3C0873339F41C
:103CE0009091030981E0892780930309DAC0863621
:103CF00071F460E677E089E69DE00E94E2680E9448
:103D00005B5FBC0189E69DE00E948E45CAC081329E
:103D100049F41092E90B1092EA0B1092EB0B1092FF
:103D2000EC0BBFC0843619F40E94E937BAC0813663
:103D3000D9F58091E90B9091EA0BA091EB0BB09132
:103D4000EC0B892B8A2B8B2B31F466E577E089E627
:103D50009DE00E9406698091E90B82FF06C067E43E
:103D600077E089E69DE00E9406698091E90B81FF7A
:103D700006C064E377E089E69DE00E9406698091D1
:103D8000E90B83FF06C06DE177E089E69DE00E94C4
:103D900006698091E90B87FF84C061E077E089E6DE
:103DA0009DE00E9406697DC0883609F07AC062EE07
:103DB00075E089E69DE00E94066900E010E08CE075
:103DC000882E6BED75E089E69DE00E94E26838017F
:103DD0000F5F1F4FB80189E69DE00E94A345FF24B5
:103DE000F394A12CB12C869C6001879CD00C1124EB
:103DF00099249A949F0C8F2D81958770E82E892D98
:103E00008370D1F460E289E69DE00E949668B9E093
:103E1000BB1528F060E289E69DE00E9496684AE0C2
:103E200050E06B2D89E69DE00E94906860E289E693
:103E30009DE00E949668B394F601EA0DF11DE054EE
:103E4000F84F808190E00E2C02C0959587950A94DA
:103E5000E2F780FF02C063E201C06FE589E69DE002
:103E60000E949668EFE29E120EC089E69DE00E94D5
:103E70006F6863ED75E089E69DE00E94E268EE20E0
:103E800021F0F394B5CFE11001C0A394F0E6FF1246
:103E9000F8CF89E69DE00E946F680730110509F0B0
:103EA00090CF80910B07882389F180912E0288237F
:103EB00069F180912D02811129C080910209882326
:103EC00029F16CED76E089E69DE00E94E2684AE027
:103ED00050E06091020989E69DE00E94906864EDDF
:103EE00076E089E69DE00E94E268409137085091B3
:103EF000380860E070E02AE089E69DE00E942668CC
:103F000089E69DE00E946F681092020980910B077C
:103F10008823E9F08091D80E9091D90EA091DA0E05
:103F2000B091DB0E8C3A9642A105B10584F46DEA9E
:103F300076E089E69DE00E94E2686091D80E70917B
:103F4000D90E8091DA0E9091DB0E0E946C48809120
:103F50002C0281113CC0809116078823C1F188ECA6
:103F600080932C020E9427902093AB0F3093AC0FCC
:103F70004093AD0F5093AE0F6093AF0F7093B00F9F
:103F800080910B07882309F18BEA9FE05F8F68A37C
:103F90000E9493551F9268A16F931F925F8D5F934C
:103FA0001F928F938DE996E09F938F9389E69DE012
:103FB0009F938F930E944D3989E69DE00E946F6820
:103FC0000FB6F894DEBF0FBECDBF0E945E8B80910E
:103FD0003608882309F456C01092360880912B02C7
:103FE000882351F080912A02882309F4A8C3809184
:103FF0002A02873C08F4B5C380919C0F8983909175
:104000000B07992339F1882329F16BE676E089E6DD
:104010009DE00E94E268898180FF06C067E676E045
:1040200089E69DE00E94E268898181FF06C062E620
:1040300076E089E69DE00E94E268898182FF06C001
:104040006DE576E089E69DE00E94E26889E69DE004
:104050000E946F6880910B0781119CC380910709B2
:10406000811198C380910609882361F06BE276E0A4
:1040700089E69DE00E94E26860912A0289E69DE05F
:104080000E94A8458091010981118091E20B8091E5
:104090000109811104C08091E20B8111D4C3809188
:1040A000200890912108209126023091270228179C
:1040B000390709F45CC0909327028093260220916F
:1040C0003408309135088091280290912902821796
:1040D000930738F08091340890913508892B09F0C6
:1040E000BDC320913408309135088091FF0890912C
:1040F00000092817390740F080913408909135085D
:10410000909300098093FF0880910509882379F135
:104110006091FF0870910009409128025091290296
:104120002091340830913508809126029091270221
:10413000E091E20B7F936F935F934F933F932F93A5
:104140009F938F931F92EF938AEF95E09F938F93A6
:1041500089E69DE09F938F930E944D3989E69DE00B
:104160000E946F680FB6F894DEBF0FBECDBF0E94ED
:104170006B52009114091091150920911609309184
:104180001709DC01CB01801B910BA20BB30B8093B1
:10419000140990931509A0931609B09317098091FB
:1041A0000B07811104C080910409882369F0809174
:1041B000140990911509A0911609B0911709039758
:1041C000A105B1050CF053C380910309882309F4BC
:1041D0007AC41092030920913408309135088091F7
:1041E0002008909121084091E20B3F932F939F93D9
:1041F0008F931F924F9384E196E09F938F9389E66C
:104200009DE09F938F930E944D3989E69DE00E9427
:104210006F680FB6F894DEBF0FBECDBF54C4809157
:10422000E90B9091EA0BA091EB0BB091EC0B846041
:104230008093E90B9093EA0BA093EB0BB093EC0BFC
:1042400081E08093E80B8093E70B8093E60B98C89E
:104250009091ED06911194C8552309F479C82091E5
:10426000F106BAE02B9F900111246091ED0B709143
:10427000EE0B621773070CF06BC81092E80B1092EC
:10428000E70B1092E60B7CC89091F406E091080CC5
:10429000943009F0B1C09091FA089093E70B6091C7
:1042A000ED0B7091EE0B2091F608FAE02F9F900134
:1042B00011242253310941E0621773070CF440E0E6
:1042C0004093F5082091F3083091F4082550310906
:1042D00081E06217730708F480E08093F208992365
:1042E00029F0411102C090E001C0982F9093F1088D
:1042F000653F21E072074CF02091B4073091B5077B
:10430000243F314010F4411101C080E08093F00857
:10431000911103C0882309F458C02091B20730914D
:10432000B307232B09F063C02091FB083091FC08F0
:10433000D901AB7FAB2BA9F4992381F081E090E008
:104340009093FC088093FB088CE291E09093B30774
:104350008093B20781E08093E70B49C082E090E050
:104360001BC02130310519F482E090E01FC02230DB
:104370003105B9F4882371F083E090E09093FC0854
:104380008093FB088CE291E09093B3078093B2078F
:1043900081E022C084E090E09093FC088093FB08C9
:1043A00026C02330310519F584E090E09093FC0895
:1043B0008093FB0888E592E09093B3078093B2075F
:1043C0001092E70B1092E60B12C06132B3E07B074C
:1043D00034F081E08093E70B8093E60B08C01092E5
:1043E000E70B1092E60B1092FC081092FB087093FA
:1043F000F4086093F30838C09091F406913029F4E2
:104400008091FA088093E70B2FC09091F5069130C8
:1044100009F058C0EE2309F455C04091F7062091E9
:10442000060C3091070C442311F051114EC09091AD
:10443000F706992309F460C06091F8087091F908B3
:104440006230710509F058C06091F7064AE0649F38
:10445000B0011124261737070CF04EC01092E70B5D
:104460001092F9081092F8088091F906833099F4B7
:10447000EE2389F08091FB06BAE08B9FC0011124E6
:104480002091060C3091070C281739070CF467C0EF
:1044900081E08093E60B8091F206813019F48091DF
:1044A000F70860C08091F206823009F06DC08091FB
:1044B000F306813009F068C0552309F465C01092F5
:1044C000BE0750C01092E70BCFCF6091F706FAE01D
:1044D0006F9FB0011124261737070CF4A8CF609105
:1044E000ED0B7091EE0B621773070CF0A0CF909359
:1044F000E70B82E090E01CC06091ED0B7091EE0B39
:10450000621773070CF4AACF8823B9F08091F606DE
:104510004091F8066AE0869FC0011124841B91092E
:104520002817390754F481E08093E70B81E090E08D
:104530009093F9088093F80897CF8091F8089091AC
:10454000F908019709F090CF8091F606AAE08A9FBA
:10455000C0011124821793070CF480CF85CF1092ED
:10456000E60B99CF8093E80BEE2311F18091FF06C3
:10457000BAE08B9FC00111242091060C3091070CEA
:10458000281739073CF414C081E08093BE071092CD
:10459000E80BEACF8091B80780FF0AC08091FC0643
:1045A000813009F44BC28091FC06823009F455C277
:1045B0008091E50B882331F061E475E089E69DE0A8
:1045C0000E9406691092E50B1092B7071092B60789
:1045D0000C94C01960E977E089E69DE00E94E268EA
:1045E000609110097091110980911209909113093D
:1045F0000E946C480C94EA196BE975E089E69DE02D
:104600000E94E268B70189E69DE00E94A34564E943
:1046100075E089E69DE00E94E2684091BC075091F8
:10462000BD0760E070E02AE089E69DE00E94266810
:104630006BE875E089E69DE00E94E26840913502F2
:104640005091360260E070E02AE089E69DE00E9429
:10465000266865E875E089E69DE00E94E268B80199
:1046600089E69DE00E94A34589E69DE00E946F686F
:1046700059C860E775E089E69DE00E94E268B701ED
:1046800089E69DE00E94A34567E675E089E69DE026
:104690000E94E268409135025091360260E070E07D
:1046A0002AE089E69DE00E94266861E675E089E6D9
:1046B0009DE00E94E268B80189E69DE00E94A34562
:1046C00089E69DE00E946F681FC86BE877E089E685
:1046D0009DE00E94E268609110097091110980913B
:1046E0001209909113090E946C4845C80E94F75521
:1046F0003AC966E877E089E69DE00E94E268609149
:1047000010097091110980911209909113090E946A
:104710006C4852C9369B62C9469861C961E877E026
:1047200089E69DE00E94E26860911009709111098C
:1047300080911209909113090E946C48F6C98091EA
:10474000E90B9091EA0BA091EB0BB091EC0B806818
:104750008093E90B9093EA0BA093EB0BB093EC0BD7
:104760004BCC80912A021F928F9385E796E09F930E
:104770008F9389E69DE09F938F930E944D3989E640
:104780009DE00E946F680F900F900F900F900F9018
:104790000F9032CCE091DC0EF091DD0E8091D80EBE
:1047A0009091D90EA091DA0EB091DB0EC090D40E8C
:1047B000D090D50EE090D60EF090D70E0091D40E8A
:1047C0001091D50E2091D60E3091D70E4091D80E73
:1047D0005091D90E6091DA0E7091DB0EFF93EF933A
:1047E0008C199D09AE09BF09BF93AF939F938F9317
:1047F0003F932F931F930F937F936F935F934F93E9
:1048000080E496E09F938F9309E61DE01F930F933A
:104810000E944D3990912A028091CF0E1F929F9352
:104820001F928F938FE296E09F938F931F930F9326
:104830000E944D39C8010E946F680FB6F894DEBF20
:104840000FBECDBF0FCC109200091092FF0880E080
:1048500094E0909329028093280221CC809134081F
:104860009091350890932902809328023ACC809148
:10487000140990911509A0911609B0911709BF93D9
:10488000AF939F938F9381E296E09F938F9389E6F6
:104890009DE09F938F930E944D3989E69DE00E9491
:1048A0006F680FB6F894DEBF0FBECDBF8DCC1092EF
:1048B0002E02E0915008F0E0FE2FEE2780914F0885
:1048C000E82BF093D508E093D4086091520870E08B
:1048D000762F662780915108682B7093D1086093DA
:1048E000D0088091540890E0982F88272091530891
:1048F000822B9093CF088093CE084091560850E0C9
:10490000542F442780915508482B5093D308409347
:10491000D2088091580890E0982F88272091570856
:10492000822B9093CB088093CA0880915A0890E01C
:10493000982F882720915908822B9093CD08809337
:10494000CC0820915C0830E0322F222780915B0850
:10495000282B3093C9082093C80880915E0890E006
:10496000982F8827A0915D088A2B9093D708809371
:10497000D608A0915F08A093D808B0916608B093BC
:10498000DE08A1FBBB27B0F9B093DC08B0917C082E
:10499000B093DF08B170B093E008F0933E08E09365
:1049A0003D087093B5076093B40750939D074093FB
:1049B0009C0730933C0820933B0890939B0780937F
:1049C0009A07809164088093F60880916508809327
:1049D0003A0881E090919208913009F080E080934C
:1049E000BE07A2FB882780F98093F708A3FBAA27BC
:1049F000A0F9A093FA0881E090916108913009F044
:104A000080E08093EF0881E090916008913009F098
:104A100080E08093EA080C944B1011110C9453140D
:104A200060ED74E089E69DE00E9406691092E10B5A
:104A30000C9468148D3009F0D3C8AAC88091E50B96
:104A4000811106C069E575E089E69DE00E9406696E
:104A500081E08093E50B0C94C0198091B60790918A
:104A6000B707892B11F00C94C0198091E50B8111C7
:104A700013C04091FD0628E532E0429FC001439FEC
:104A8000900D11249093B7078093B60781E080932F
:104A9000E50B62E575E011C04091FE0628E532E0C5
:104AA000429FC001439F900D11249093B7078093BC
:104AB000B6071092E50B6AE475E089E69DE00E9476
:104AC00006690C94C019A2960FB6F894DEBF0FBE0B
:104AD000CDBFDF91CF911F910F91FF90EF90DF90AD
:104AE000CF90BF90AF909F908F907F906F905F908E
:104AF0004F903F902F9008958F929F92AF92BF92C8
:104B0000DF92EF92FF920F931F93CF93DF93CDB776
:104B1000DEB768970FB6F894DEBF0FBECDBF8C012D
:104B200040E050E06DE30E9462667C01F801848100
:104B300095811816190614F00C94B933FFEFEF168F
:104B4000FF0611F40C94B933A7014F5F5F4FB80112
:104B5000CE010D960E949939CE010D960E940366F2
:104B60006FEF7CE0CE0101960E947F67BE016F5F10
:104B70007F4FC8010E949066D82ECE0101960E94F8
:104B80007A67DD2009F456C0970142E050E0B80191
:104B9000CE0101960E94E267BE016F5F7F4FC801A0
:104BA0000E94E466CE0101960E947A67CE010D96BE
:104BB0000E94F8654B015C01C8010E9489358F3F56
:104BC00011F40C94B53325E08202C0011124FC01DC
:104BD000E351F44F7F018281813011F00C94B533A1
:104BE0006BEF7CE089E69DE00E94E268C8010E94CC
:104BF000F97869EF7CE089E69DE00E94E268F701C0
:104C00006081718189E69DE00E94A34566EF7CE0AA
:104C100089E69DE00E94E268B40189E69DE00E9479
:104C2000A34589E69DE00E946F68F701918280822A
:104C30000C94B5336EEE7CE0CE0101960E947F6746
:104C4000BE016F5F7F4FC8010E949066D82ECE01D3
:104C500001960E947A67DD2009F44AC089899A8901
:104C60000C9711F00C94B533E12CF12CD12C0E2DB6
:104C7000B701CE010D960E947E66FC0180810E94E4
:104C8000F0368F3F89F1182F1295107FB7016F5FB3
:104C90007F4FCE010D960E947E66FC0180810E94AE
:104CA000F0368F3F09F10695E1E0F0E0EC0FFD1FD3
:104CB000E00FF11D810F8083FAE0EF16F10411F48B
:104CC000DD24D39422E0E20EF11C3CE0E316F10473
:104CD00071F6DD2049F086E0FE013196A0EBB2E0EE
:104CE00001900D928A95E1F70E9474350C94B533CA
:104CF00067EE7CE0CE0101960E947F67BE016F5F88
:104D00007F4FC8010E949066B82ECE0101960E9486
:104D10007A67BB2009F45DC082EA93E09A838983B5
:104D20001B821C821D821E826D857E85CE010196AE
:104D30000E941669882329F08B819C81AD81BE81F8
:104D40003AC062EE7CE0CE0107960E947F678989B7
:104D50009A892B853C8582179307F9F4892BD9F022
:104D60000D851E85EF80F884F80181918F018823DD
:104D700091F0082E000C990B0E941B995C01F70121
:104D800081917F01082E000C990B0E941B99A81697
:104D9000B90651F302C0DD24D394CE0107960E94D8
:104DA0007A67DD2081F08091DD0F9091DE0FA09178
:104DB000DF0FB091E00F80938D0F90938E0FA09333
:104DC0008F0FB093900F8BE89FE00E94E4780C94D3
:104DD000B53368ED7CE0CE0101960E947F67BE018D
:104DE0006F5F7F4FC8010E949066D82ECE0101965A
:104DF0000E947A67DD2041F182EA93E09A838983F9
:104E00001B821C821D821E826D857E85CE010196CD
:104E10000E941669882391F08B819C81AD81BE81AF
:104E20008093870F9093880FA093890FB0938A0F78
:104E3000CE0101960E94E4780C94B533CE01019620
:104E40000E94E4780C94B5336EEC7CE0CE010196C0
:104E50000E947F67BE016F5F7F4FC8010E9490660E
:104E6000D82ECE0101960E947A67DD2041F182EAB8
:104E700093E09A8389831B821C821D821E826D852A
:104E80007E85CE0101960E941669882391F08B8160
:104E90009C81AD81BE818093810F9093820FA093FE
:104EA000830FB093840FCE0101960E94E4780C9496
:104EB000B533CE0101960E94E4780C94B53366ECCC
:104EC0007CE0CE0101960E947F67BE016F5F7F4F3D
:104ED000C8010E949066D82ECE0101960E947A6782
:104EE000DD2041F182EA93E09A8389831B821C8250
:104EF0001D821E826D857E85CE0101960E941669F7
:104F0000882391F08B819C81AD81BE8180937B0F42
:104F100090937C0FA0937D0FB0937E0FCE010196EE
:104F20000E94E4780C94B533CE0101960E94E47897
:104F30000C94B53362EB7CE0CE0101960E947F6752
:104F4000BE016F5F7F4FC8010E949066D82ECE01D0
:104F500001960E947A67D1100C94B53368EA7CE020
:104F6000CE0101960E947F67BE016F5F7F4FC8012F
:104F70000E949066D82ECE0101960E947A67DD20AD
:104F800041F0CE010D960E94F8656093CC060C941A
:104F9000B53368E97CE0CE0101960E947F67BE01CF
:104FA0006F5F7F4FC8010E949066D82ECE01019698
:104FB0000E947A67DD2041F0CE010D960E94F865CF
:104FC0006093CD060C94B5336BE87CE0CE0101967E
:104FD0000E947F67BE016F5F7F4FC8010E9490668D
:104FE000D82ECE0101960E947A67DD2041F0CE01D5
:104FF0000D960E94F8656093CE060C94B53369E770
:105000007CE0CE0101960E947F67BE016F5F7F4FFB
:10501000C8010E949066D82ECE0101960E947A6740
:10502000DD2051F0CE010D960E94F8657093D006F8
:105030006093CF060C94B53368E67CE0CE01019610
:105040000E947F67BE016F5F7F4FC8010E9490661C
:10505000D82ECE0101960E947A67DD2051F0CE0154
:105060000D960E94F8657093D8066093D7060C944D
:10507000B5336CE57CE0CE0101960E947F67BE01EE
:105080006F5F7F4FC8010E949066D82ECE010196B7
:105090000E947A67DD2051F0CE010D960E94F865DE
:1050A0007093D4066093D3060C94B53361E57CE02D
:1050B000CE0101960E947F67BE016F5F7F4FC801DE
:1050C0000E949066D82ECE0101960E947A67DD205C
:1050D00051F0CE010D960E94F8657093DC06609346
:1050E000DB060C94B53361E47CE0CE0101960E94AE
:1050F0007F67BE016F5F7F4FC8010E949066D82E08
:10510000CE0101960E947A67DD2051F0CE010D9606
:105110000E94F8657093D2066093D1060C94B53363
:1051200062E37CE0CE0101960E947F67BE016F5F63
:105130007F4FC8010E949066D82ECE0101960E9432
:105140007A67DD2051F0CE010D960E94F8657093CC
:10515000DA066093D9060C94B53365E27CE0CE01A3
:1051600001960E947F67BE016F5F7F4FC8010E945A
:105170009066D82ECE0101960E947A67DD2051F00C
:10518000CE010D960E94F8657093D6066093D50601
:105190000C94B53369E17CE0CE0101960E947F67F3
:1051A000BE016F5F7F4FC8010E949066D82ECE016E
:1051B00001960E947A67DD2051F0CE010D960E9483
:1051C000F8657093DE066093DD060C94B53363E0FA
:1051D0007CE0CE0101960E947F67BE016F5F7F4F2A
:1051E000C8010E949066D82ECE0101960E947A676F
:1051F000DD2081F0CE010D960E94F8659B012150C3
:1052000031092336310510F00C94B5336093DF0675
:105210000C94B53364EF7BE0CE0101960E947F676A
:10522000BE016F5F7F4FC8010E949066D82ECE01ED
:1052300001960E947A67DD2081F0CE010D960E94D2
:10524000F8659B01215031092A35310510F00C9485
:10525000B5336093E0060C94B53367ED7BE0CE0187
:1052600001960E947F67BE016F5F7F4FC8010E9459
:105270009066D82ECE0101960E947A67DD20A9F0B3
:10528000CE010D960E94F8656115710581059105A5
:1052900011F40C94B5336093E1067093E2068093A9
:1052A000E3069093E4060C94B5336FEB7BE0CE01FC
:1052B00001960E947F67BE016F5F7F4FC8010E9409
:1052C0009066D82ECE0101960E947A67DD2081F08B
:1052D000CE010D960E94F8656093E5067093E60690
:1052E0008093E7069093E8060E9449350C94B53305
:1052F00063EA7BE0CE0101960E947F67BE016F5F8B
:105300007F4FC8010E949066D82ECE0101960E9460
:105310007A67DD2079F0CE010D960E94F86561155F
:10532000710511F40C94B5337093EA066093E906A5
:105330000C94B53360E97BE0CE0101960E947F6753
:10534000BE016F5F7F4FC8010E949066D82ECE01CC
:1053500001960E947A67DD2041F0CE010D960E94F1
:10536000F8656093EB060C94B53365E87BE0CE01FD
:1053700001960E947F67BE016F5F7F4FC8010E9448
:105380009066D82ECE0101960E947A67DD2081F0CA
:10539000CE010D960E94F8659B01215031092336FC
:1053A000310510F00C94B5336093F1060C94B533CD
:1053B0006AE77BE0CE0101960E947F67BE016F5FC6
:1053C0007F4FC8010E949066D82ECE0101960E94A0
:1053D0007A67DD2081F0CE010D960E94F8659B0171
:1053E000215031092336310510F00C94B533609308
:1053F000F0060C94B5336EE67BE0CE0101960E9478
:105400007F67BE016F5F7F4FC8010E949066D82EF4
:10541000CE0101960E947A67DD2081F0CE010D96C3
:105420000E94F8659B01215031092336310510F0A7
:105430000C94B5336093EE060C94B5336FE57BE0C6
:10544000CE0101960E947F67BE016F5F7F4FC8014A
:105450000E949066D82ECE0101960E947A67DD20C8
:1054600081F0CE010D960E94F8659B012150310913
:105470002336310510F00C94B5336093EF060C948D
:10548000B53361E57BE0CE0101960E947F67BE01E6
:105490006F5F7F4FC8010E949066D82ECE010196A3
:1054A0000E947A67DD2009F46AC0BE01635F7F4F06
:1054B000CE0143960E94B56763EB74E0CE0101967E
:1054C0000E94CE67BE016F5F7F4FCE0143960E9460
:1054D0009066811116C069EB74E0CE0107960E94B8
:1054E000CE67BE01695F7F4FCE0143960E949066F2
:1054F00011E0811101C010E0CE0107960E947A6789
:1055000001C011E0CE0101960E947A67112321F0BB
:1055100010922D0211E02BC06FEB74E0CE010196CA
:105520000E94CE67BE016F5F7F4FCE0143960E94FF
:105530009066182FCE0101960E947A67111116C04D
:1055400063EC74E0CE0101960E94CE67BE016F5FEE
:105550007F4FCE0143960E949066182FCE01019690
:105560000E947A67112319F012E001C013E0109332
:10557000EC06CE0143960E947A670C94B53366E43C
:105580007BE0CE0101960E947F67BE016F5F7F4F77
:10559000C8010E949066D82ECE0101960E947A67BB
:1055A000DD2081F0CE010D960E94F8659B0121500F
:1055B00031092336310510F00C94B5336093F606AB
:1055C0000C94B5336DE37BE0CE0101960E947F67BA
:1055D000BE016F5F7F4FC8010E949066D82ECE013A
:1055E00001960E947A67DD2099F0BE01635F7F4FCC
:1055F000CE0101960E94B567CE0101960E940E8CE5
:105600008093F406CE0101960E947A670C94B5331C
:1056100060E37BE0CE0101960E947F67BE016F5F71
:105620007F4FC8010E949066D82ECE0101960E943D
:105630007A67DD2099F0BE01635F7F4FCE0101964E
:105640000E94B567CE0101960E94B98B8093F50642
:10565000CE0101960E947A670C94B53362E27BE03A
:10566000CE0101960E947F67BE016F5F7F4FC80128
:105670000E949066D82ECE0101960E947A67DD20A6
:1056800069F0CE010D960E94F8656536710510F03F
:105690000C94B5336093F8060C94B53368E17BE065
:1056A000CE0101960E947F67BE016F5F7F4FC801E8
:1056B0000E949066D82ECE0101960E947A67DD2066
:1056C00081F0CE010D960E94F8659B0121503109B1
:1056D0002336310510F00C94B5336093F7060C9423
:1056E000B5336CE07BE0CE0101960E947F67BE017E
:1056F0006F5F7F4FC8010E949066D82ECE01019641
:105700000E947A67DD2081F0CE010D960E94F86537
:105710009B01215031092336310510F00C94B5332B
:105720006093FB060C94B53362E07BE0CE010196FA
:105730000E947F67BE016F5F7F4FC8010E94906625
:10574000D82ECE0101960E947A67DD2091F0BE012D
:10575000635F7F4FCE0101960E94B567CE0101962F
:105760000E940E8C8093F906CE0101960E947A6702
:10577000FCC764EF7AE0CE0101960E947F67BE010C
:105780006F5F7F4FC8010E949066D82ECE010196B0
:105790000E947A67DD2091F0BE01635F7F4FCE01EA
:1057A00001960E94B567CE0101960E94B98B809345
:1057B000FA06CE0101960E947A67D7C76CEE7AE0AE
:1057C000CE0101960E947F67BE016F5F7F4FC801C7
:1057D0000E949066D82ECE0101960E947A67DD2045
:1057E00009F469C0BE01635F7F4FCE0143960E94FA
:1057F000B56768ED77E0CE0101960E947F67BE0134
:105800006F5F7F4FCE0143960E949066811116C054
:1058100062ED77E0CE0107960E947F67BE01695F67
:105820007F4FCE0143960E94906611E0811101C026
:1058300010E0CE0107960E947A6701C011E0CE0108
:1058400001960E947A67112321F010922D0211E037
:105850002BC06DEC77E0CE0101960E947F67BE0100
:105860006F5F7F4FCE0143960E949066182FCE0146
:1058700001960E947A67111116C068EC77E0CE019C
:1058800001960E947F67BE016F5F7F4FCE014396F6
:105890000E949066182FCE0101960E947A6711230C
:1058A00019F013E001C012E01093F206CE01439606
:1058B0000E947A675AC760EE7AE0CE0101960E9494
:1058C0007F67BE016F5F7F4FC8010E949066D82E30
:1058D000CE0101960E947A67DD2091F0BE01635FE0
:1058E0007F4FCE0101960E94B567CE0101960E94BE
:1058F000B98B8093F306CE0101960E947A6735C773
:105900006CEC7AE0CE0101960E947F67BE016F5F6A
:105910007F4FC8010E949066D82ECE0101960E944A
:105920007A67DD2091F0BE01635F7F4FCE01019663
:105930000E94B567CE0101960E94B98B8093FC0648
:10594000CE0101960E947A6710C766EB7AE0CE011D
:1059500001960E947F67BE016F5F7F4FC8010E9462
:105960009066D82ECE0101960E947A67DD2039F02C
:10597000CE010D960E94F8656093FD06F6C66FE9AC
:105980007AE0CE0101960E947F67BE016F5F7F4F74
:10599000C8010E949066D82ECE0101960E947A67B7
:1059A000DD2039F0CE010D960E94F8656093FE0669
:1059B000DCC66FE87AE0CE0101960E947F67BE01E7
:1059C0006F5F7F4FC8010E949066D82ECE0101966E
:1059D0000E947A67DD2061F0CE010D960E94F86585
:1059E0008FEF860F833608F0C0C66093FF06BDC6F2
:1059F0006AE77AE0CE0101960E947F67BE016F5F81
:105A00007F4FC8010E949066D82ECE0101960E9459
:105A10007A67DD2059F0CE010D960E94F8651616C2
:105A200017060CF0A2C6609304079FC662E67AE0F0
:105A3000CE0101960E947F67BE016F5F7F4FC80154
:105A40000E949066D82ECE0101960E947A67DD20D2
:105A500059F0CE010D960E94F865161617060CF047
:105A600084C66093050781C66BE47AE0CE01019697
:105A70000E947F67BE016F5F7F4FC8010E949066E2
:105A8000D82ECE0101960E947A67DD2059F0CE0112
:105A90000D960E94F865161617060CF066C6609300
:105AA000060763C667E37AE0CE0101960E947F672E
:105AB000BE016F5F7F4FC8010E949066D82ECE0155
:105AC00001960E947A67DD2059F0CE010D960E9462
:105AD000F865161617060CF048C66093070745C60A
